:020000040801F1
:10000000588B012081020108D5C9010839AB0108CC
:100010004DC401084D1101086DF2010800000000F7
:10002000000000000000000000000000C101010805
:10003000E9200108000000001D020108BBD50108ED
:100040009B0201089B0201089B0201089B02010818
:100050009B0201089B0201089B0201089B02010808
:100060009B0201089B0201089B020108ED15010893
:10007000FD1501080D1601081D1601082D160108B1
:100080003D1601084D1601089B0201089B0201085C
:100090009B0201089B0201089B0201089B020108C8
:1000A0009B020108C1DB01089B0201089B020108B9
:1000B0009B0201089B0201089B0201089B020108A8
:1000C0009B0201089B0201089B0201089B02010898
:1000D0009B020108D1EE010841EF0108B1EF0108D0
:1000E0009B0201089B0201089B0201089B02010878
:1000F0009B0201089B0201089B0201089B02010868
:100100009B0201089B0201089B0201089B02010857
:100110009B02010899E60108D1DB0108E9DB01082F
:100120005D1601086D1601089B0201089B0201087B
:100130009B0201089B0201089B0201089B02010827
:100140009B0201089B0201089B0201089B02010817
:100150009B0201089B0201089B0201089B02010807
:100160009B0201089B0201089B0201089B020108F7
:100170009B0201089B0201089B020108000000008D
:100180009B0201089B0201089B0201089B020108D7
:100190009B0201089B0201089B0201089B020108C7
:1001A0009B0201089B0201089B020108DFF80CD0AA
:1001B00000F0ECFB0048004705090208588B0120BD
:1001C0002C4B19680868B0E8F04F80F30988BFF33A
:1001D0006F8F4FF0000080F311887047000000001F
:1001E00008480068006880F308884FF0000080F33A
:1001F000148862B661B6BFF34F8FBFF36F8F00DF15
:1002000000BF00BF08ED00E0DFF80C00016841F41A
:1002100070010160704700BF88ED00E0EFF30980D6
:10022000BFF36F8F134B1A681EF0100F08BF20ED3D
:10023000108A20E9F04F106009B44FF0500080F3AD
:100240001188BFF34F8FBFF36F8F12F0C7F94FF0D4
:10025000000080F3118809BC19680868B0E8F04F05
:100260001EF0100F08BFB0EC108A80F30988BFF3AE
:100270006F8F704778050020EFF30580704700000E
:100280000648804706480047FEE7FEE7FEE7FEE730
:10029000FEE7FEE7FEE7FEE7FEE7FEE7C5D601085C
:1002A000AD0101082DE9F05F0546002092469B460E
:1002B00088460646814640241BE02846414647467C
:1002C000224600F076FA53465A46C01A914110D39E
:1002D00011461846224600F05DFA2D1A67EB010818
:1002E0004F4622460120002100F054FA17EB000986
:1002F0004E41201EA4F10104DFDC484631462A4667
:100300004346BDE8F09F40EA01039B0703D009E0A4
:1003100008C9121F08C0042AFAD203E011F8013BF1
:1003200000F8013B521EF9D27047D2B201E000F84A
:10033000012B491EFBD270470022F6E710B5134689
:100340000A4604461946FFF7F0FF204610BD10B5D7
:10035000044604E00B7800F8013B03B1491C521E2F
:10036000F8D2204610BD2DE9FE4F804681EA0300F9
:10037000C00F0C46009021F0004123F00045B8EB7F
:100380000200A94105D24046214690461C460B4634
:10039000024623F00040104347D0270DC7F30A0060
:1003A000C3F30A510290401A019040286BDAC3F35C
:1003B000130040F4801B0098924620B10023D2EB3A
:1003C000030A63EB0B0B01985946C0F140025046FB
:1003D00000F0E0F906460D4650465946019A00F0F5
:1003E000F8F910EB08006141002487EA115284EA11
:1003F000E7731A4340D0009A62B3019A012A4FEA88
:10040000075215DC001B61EB02014FF0004202EACB
:100410000752CDE90042001C41F5801132462B46BF
:1004200000F04DFA03B0BDE8F08F40462146F9E7F1
:10043000001B61EB0201001C41F5801300185B41B9
:100440002018A2F5001747EB030140EAD570B61952
:100450006D4111E06D084FEA360645EAC0754FEA76
:100460000752001B61EB0201001C41F58011490895
:100470004FEA30000019514132462B4603B0BDE827
:10048000F04F00F00DBA0098012240000023D0EB9D
:10049000020263EBE073009821464FEAE074B8EB88
:1004A000000061EB0401E9E783F000435BE781F0C2
:1004B000004158E72DE9FE4F81EA030404F00044AF
:1004C00021F0004100944FF0000B23F0004350EA6C
:1004D00001045ED052EA03045BD0C3F30A54C1F3B3
:1004E0000A552C44A4F2F3340194A0FB0254C1F346
:1004F000130141F48011C3F3130343F4801301FB90
:10050000024400FB034E840A970A44EA815447EAF6
:100510008357A4FB076802958D0A05FB07854FEA00
:10052000932C04FB0C542705029D4FEA065847EA1A
:100530001637B5EB08056EEB070C870E920E47EAEF
:10054000811742EA8312A7FB0201B6EB0B0164EBB1
:1005500000042B0D43EA0C335E1844EB1C50DA46C2
:100560005146E7FB0201C5F313044FEA0B3343EA9C
:1005700014534FEA0432019C43EA0603A4F10C042D
:100580000294009CCDE900B400F099F903B0BDE8F5
:10059000F08F00200146F9E72DE9F04D81EA0304D0
:1005A00004F0004B21F0004514464FF0000A23F000
:1005B000004150EA050220D054EA01021DD0C5F3E3
:1005C0000A570246C5F31303C1F31300C1F30A56D9
:1005D00040F4801543F48013A7EB0608101BD646A1
:1005E00008F2FD3873EB050002D308F1010801E0C1
:1005F00092185B41B8F1000F03DA00200146BDE814
:10060000F08D00204FF48011064684460EE0171B43
:1006100073EB050705D3121B63EB050306434CEA96
:10062000010C49084FEA300092185B4150EA01077B
:10063000EDD152EA030012D082EA040083EA0501F8
:10064000084305D0101BAB4106D20122002306E06F
:1006500000224FF0004302E06FF0010253101AEB4A
:1006600006004CEB085110EB0A0041EB0B01BDE812
:10067000F04D00F015B930B4044696230800214629
:1006800004D0B62330BC002200F0BEB820460021C2
:10069000F8E70EB540F2334202920022CDE9002283
:1006A000134600F00CF903B000BD00F0004230F03A
:1006B00000400AD0C10D01F56071C0F3160042EA96
:1006C0000151C2084007114370470020014670479E
:1006D00030B5041E71F1000404DB4FF000444042C9
:1006E00064EB0101141E73F1000405DB1C464FF09E
:1006F0000043524263EB04038B4208BF824230BD89
:1007000030B5041E71F1000404DB4FF00044404298
:1007100064EB0101141E73F1000405DB1C464FF06D
:100720000043524263EB0403994208BF904230BD3C
:1007300001F0004330B421F0004150EA010206D03C
:100740000A0DA2F56072C1F31301002A02DC30BC6D
:1007500000207047440F44EAC104C100E01830BCD7
:1007600000EBC25000F047B830B50B460146002000
:100770002022012409E021FA02F59D4205D303FA63
:1007800002F5491B04FA02F52844151EA2F10102E4
:10079000F1DC30BD202A04DB203A00FA02F100200F
:1007A00070479140C2F1200320FA03F319439040AF
:1007B0007047202A04DB203A21FA02F0002170471A
:1007C00021FA02F3D040C2F12002914008431946B9
:1007D0007047202A06DBCB17203A41FA02F043EAA1
:1007E000E07306E041FA02F3D040C2F120029140EA
:1007F0000843194670470029A8BF7047401C4900AC
:1008000008BF20F00100704710B4B0FA80FC00FA75
:100810000CF050EA010404BF10BC704749B1CCF1A0
:10082000200421FA04F411FA0CF118BF012121432C
:100830000843A3EB0C01CB1D4FEA00614FEA1020E7
:1008400042BF002010BC704700EBC3501044002989
:10085000A4BF10BC7047401C490008BF20F0010035
:1008600010BC704710B541000CD0C0F3C751962999
:1008700008DC7E2909DC06DB410204D000F00040E0
:1008800040F07E5010BD002010BDC1F19604C4F1AF
:10089000200100FA01F1E040FFF7ADFFA04010BDDC
:1008A00010B5141E73F1000408DA401C41F1000178
:1008B00092185B411A4301D120F0010010BD2DE9CF
:1008C000F04D92469B4611B1B1FA81F202E0B0FAC6
:1008D00080F220329046FFF75DFF04460F4640EA63
:1008E0000A0041EA0B0153465A46084313D0114609
:1008F00053EA010019D0C8F140025046FFF759FFF2
:1009000005460E46504659464246FFF743FF084308
:1009100005D0012004E020463946BDE8F08D0020D6
:10092000054346EAE0762C4337430A986305E40A18
:10093000A0EB08000022FD0A44EA47540A3002D521
:1009400000200146E9E7010510196941DDE9084584
:1009500000196941BDE8F04DA2E7C1F30A52C1F3A5
:10096000130140F2FF3341F480119A4202DA002071
:100970000146704740F233439A42A2F2334202DC0E
:100980005242FFF716BFFFF705BF0000064C074DA8
:1009900006E0E06840F0010394E80700984710344F
:1009A000AC42F6D3FFF706FC40AE020860AE020888
:1009B00070B58C1810F8015B15F0070301D110F821
:1009C000013B2A1106D110F8012B03E010F8016B4E
:1009D00001F8016B5B1EF9D12B0705D40023521ED1
:1009E0000DD401F8013BFAE710F8013BCB1A921C39
:1009F00003E013F8015B01F8015B521EF9D5A14237
:100A0000D8D3002070BD00002DE9F05F0446884671
:100A10004FF00009474620680AF06CF982462068CA
:100A20000AF040F98346BAF1000F02D1BBF1000F82
:100A30006ED02068C06800F0007000B3607E0128AE
:100A40001DD1207E01281AD101270FE031488145B0
:100A50000AD3A06D40F01000A065E06D40F00100E9
:100A6000E0650120BDE8F09F09F1010920680068F8
:100A7000C0F380100028E9D0402021680860022FD0
:100A800010D020680AF036F960B120680AF01EF92B
:100A900040B920688168204A114041F0100181600E
:100AA00000BF00BF012F10D020680AF0FBF860B132
:100AB00020680AF00BF940B920688168164A114095
:100AC00041F02001816000BF00BF022F03D0032F3F
:100AD00003D10C2503E0082501E0042500BF00BF79
:100AE00007F0B4FC06460EE007F0B0FC801B0528BA
:100AF00009D9A06D40F01000A065E06D40F0010044
:100B0000E0650120AEE72068806828400028EBD12E
:100B10000020A7E7000040A3C0FFFF7F70B5054697
:100B2000AC6AA06D00F0500098BBA06D40F400705E
:100B3000A0652068006800F00800A8B120680AF0ED
:100B4000E3F810B32068C06800F40050E8B9A06D65
:100B500020F48070A065A06D00F48050A8B9A06D4D
:100B600040F00100A06510E02068C06800F00200BD
:100B700058B9A06D20F48070A065A06D00F480507D
:100B800018B9A06D40F00100A065204606F09AFC5F
:100B90000CE0FFE7A06D00F0100018B1204606F051
:100BA000E1FC03E0206D416B2846884770BD70B5BD
:100BB0000546AC6AA06D40F04000A065E06D40F0D5
:100BC0000400E065204606F0CDFC70BD70B504461B
:100BD000A56A284606F09EFC70BD000070B504466C
:100BE00020680AF073F8064620680AF074F870B3BB
:100BF0006EBB2068806800F00D0001280AD12068D3
:100C00008168174A1140891C816000BF0320216858
:100C1000086009E0A06D40F01000A065E06D40F0B4
:100C20000100E065012070BD07F010FC05460FE0F3
:100C300007F00CFC401B02280AD9A06D40F0100000
:100C4000A065E06D40F00100E0650120EBE705E004
:100C50002068806800F001000028E9D10020E2E768
:100C6000C0FFFF7F70B5044620680AF034F888BBE7
:100C7000206880681849084048B1A06D40F0100015
:100C8000A065E06D40F00100E065012070BD2068C6
:100C900009F0E4FF07F0DAFB054615E020680AF0EA
:100CA0001AF810B9206809F0D9FF07F0CFFB401BF4
:100CB000022809D9A06D40F01000A065E06D40F059
:100CC0000100E0650120E1E72068006800F0010014
:100CD0000028E3D00020D9E73F0000802DED068BEF
:100CE00082B00020019000BF1B4806F02BF8642161
:100CF000194805F08BFF0121174805F067FF80B206
:100D00000190154806F0A2F8BDF8040000EE100AA4
:100D1000B8EE400A10EE100AFFF7C7FC41EC1A0BC0
:100D20009FED0E0B53EC102BFFF7C4FB41EC190B9E
:100D30009FED0C0B53EC102BFFF7BCFB41EC180B99
:100D4000FFF7F6FC00EE100A084880ED000A4FF4A9
:100D50007A700FF04AFEC7E73C070020B4D934E7A9
:100D60000C684A3F0000000000002440E802002018
:100D70002DED0E8B88B09FEDD20A8DED070A9FED09
:100D8000D00A8DED060A9FEDCE0A8DED050A9FED86
:100D9000CC0A8DED040A9FEDCA0A8DED030A9FED82
:100DA000C80A8DED020A00BF4FF0FF31C548006848
:100DB00012F072F8C4480078012828D100200021E0
:100DC0001CE0C24A32F8102000EE102AB8EE400AA9
:100DD000BF4A02EB810282ED000ABC4B421C33F891
:100DE000122000EE102AB8EE400ABA4A02EB810245
:100DF00082ED000A821C90B24A1C91B2B0F5007FCD
:100E0000DFDBB5480088401CB34908802BE0AE48C2
:100E10000078022827D1000200211CE0AB4A32F8FA
:100E2000102000EE102AB8EE400AA94A02EB810217
:100E300082ED000AA54B421C33F8122000EE102A66
:100E4000B8EE400AA34A02EB810282ED000A821C3E
:100E500090B24A1C91B2B0F5806FDFDB9F480088EA
:100E6000401C9E4908806A464FF4807198480FF0F4
:100E7000B7F94FF48073964A114699480FF00EF86F
:100E8000002000210DE0924A02EB800292ED000A60
:100E9000944A02EB810282ED000A021D90B24A1CC4
:100EA00091B2FF28EFDD40238E4A11468E480EF0A6
:100EB000F5FF40238B4A11468C480EF0EFFF07AA3E
:100EC000402188480FF08CF906AA4FF480718148C0
:100ED0000FF086F901AB03AA402182480FF097F882
:100EE00001AB05AA4FF480717A480FF090F801AB7E
:100EF00002AA40217B480FF01BF901AB04AA4FF472
:100F0000807174480FF014F900231A4607A9784835
:100F1000006811F0C9FD00231A4606A9754800684B
:100F200011F0C2FD74480068FFF7BFFB41EC190BDC
:100F300072480068FFF7B9FB41EC1B0B0398FFF701
:100F4000B4FB41EC1E0B9FED6E0B53EC102BFFF727
:100F5000B1FA41EC1D0B9FED6C0B53EC102BFFF71E
:100F60001BFB41EC1C0B53EC1B2BFFF7A3FA41ECD2
:100F70001A0B53EC192BFFF7F6F941EC180BFFF79E
:100F8000D7FB634908605C480068FFF78EFB41ECC3
:100F9000190B5A480068FFF788FB41EC1B0B0298BD
:100FA000FFF783FB41EC1E0B9FED550B53EC102B11
:100FB000FFF780FA41EC1D0B9FED530B53EC102B08
:100FC000FFF7EAFA41EC1C0B53EC1B2BFFF772FA0C
:100FD00041EC1A0B53EC192BFFF7C5F941EC180B38
:100FE000FFF7A6FB4B4908604B48D0ED000A9FED88
:100FF0004B1A80EE810A4648D0ED000A80EE801A36
:1010000080ED001A4448D0ED000A9FED441A80EEAE
:10101000810A0846D0ED000A80EE801A80ED001AA1
:1010200000231A4605A93E48006811F03DFD002343
:101030001A4604A93B48006811F036FD9DED000AF0
:10104000DFED390AB4EEE00AF1EE10FA03DD01201B
:101050003649087002E0002034490870344890EDA9
:10106000000ADDED060A334890ED001A00EE810A11
:1010700010EE101A0846FFF718FB41EC180B9FED15
:101080002E0B53EC102BFFF73BFB03D200202C4917
:10109000087002E001202A4908700E4810F0AEFEE8
:1010A00000231A4619462748006811F0FDFC00236A
:1010B0001A4619462448006811F0F6FC74E6000050
:1010C0000000000098000020B60300200008002067
:1010D0000010002000140020B8030020BA030020F4
:1010E0002C19002000180020001900205819002099
:1010F0003801002044010020D8010020D401002044
:10110000B4D934E70C684A3F393939393939E93FBC
:10111000DC010020E0010020D001002000007A4422
:10112000680100206C01002000007A45B401002015
:1011300014020020100200209A99999999990D4063
:101140000C0200209C000020A400002000BFFEE74D
:1011500000BF00BF6D48007800BB4FF400614FF046
:10116000904007F061F928B969480078401C684947
:10117000087013E06648007805280FDD01206549F6
:101180000870002064490870644908706449087058
:10119000644908805E490870634908705B480078BC
:1011A00000BB4FF48071614807F03EF928B96048F0
:1011B0000078401C5E49087014E05D4800780528FE
:1011C00010DD0020534908700120534908700020A9
:1011D00052490870524908705249088054490870B1
:1011E0005149087053480078F8B908214F4807F072
:1011F0001BF928B950480078401C4F49087014E08A
:101200004D480078052810DD002042490870424909
:101210000870012041490870002041490870414987
:10122000088045490870404908704248007800BB72
:101230004FF400713D4807F0F7F828B93F480078AF
:10124000401C3E49087014E03C480078052810DD39
:10125000002030490870304908703049087001207A
:101260002F49087000202F490880344908702E4902
:1012700008708021324807F0D7F8E8B9294800887B
:10128000401C284908800846008864283ADB2D481D
:101290000078B8BB00201F4908701F4908701F491B
:1012A00008701F49087028490870012027490870F4
:1012B00000201C49088025E01A48008802281ADD11
:1012C00018480088642816DA2048007898B91D4824
:1012D000007880B900200F4908700F4908700F4945
:1012E00008700F490870012017490870002017493D
:1012F00008700C49088013480078012802D10020AA
:10130000084908800A200FF070FB23E7B50300208E
:10131000FC0200200203002003030020040300203D
:1013200005030020000300203403002000040048CF
:10133000FD020020B4030020FE020020FF02002076
:1013400000080048B3030020060300200703002024
:101350002DED0A8B84B0002003909FED930A8DED54
:10136000020A00BF9FED900A10EE104A019000BFE4
:1013700000BF5E218D480EF0BBFF10EE104A8B4877
:10138000B0F8C20080B201908848B0F8B20058B9F5
:101390003E2186480EF0ACFF854880ED000A90EDB6
:1013A000000A844880ED000A8048B0F8B2000128A5
:1013B00026D12046FFF779F941EC1C0B53EC1C2B8E
:1013C0009FED7D0B51EC100BFFF7E6F841EC1A0B8B
:1013D0007B480068FFF769F941EC1B0B53EC1A2BB3
:1013E000FFF768F841EC190B9FED760B53EC102BCF
:1013F000FEF7B9FF41EC180BFFF79AF96D49086049
:101400006A48B0F8B200022805D1704890ED000A91
:10141000684880ED000A6548B0F8B200032830D172
:101420002046FFF742F941EC1C0B53EC1C2B9FEDBF
:10143000620B51EC100BFFF7AFF841EC1A0BBDF843
:10144000040000EB8000624A02EBC00090ED050A48
:1014500010EE101A0846FFF728F941EC1B0B53EC6D
:101460001A2BFFF727F841EC190B9FED560B53ECA5
:10147000102BFEF778FF41EC180BFFF759F94D4997
:1014800008604A48B0F8B20004286FD12046FFF740
:101490000CF941EC1A0B53EC1A2B9FED470B51EC56
:1014A000100BFFF779F841EC190B9FED4A0B53EC49
:1014B000102BFEF758FF41EC180BFFF739F93D49A7
:1014C0000860084690ED000ADFED440A60EE200A4D
:1014D000434890ED001A434890ED000A00EE810A5F
:1014E000BCEEC00A8DED030A002211463E48039B64
:1014F00006F074FB01200FF078FA2046FFF7D5F8CC
:1015000041EC1A0B53EC1A2B9FED2B0B51EC100BEB
:10151000FFF742F841EC190B9FED2A0B53EC102B0F
:10152000FEF721FF41EC180BFFF702F92149086093
:10153000084690ED000ADFED290A60EE200A2848EF
:1015400090ED001A274890ED000A00EE810ABCEEEB
:10155000C00A8DED030A002211462348039B06F0C2
:101560003DFB13200FF041FA03E7FFE7114890ED30
:10157000000ADFED1A0A60EE200A194890ED001A01
:10158000184890ED000A00EE810ABCEEC00A8DED0D
:10159000030A002211461448039B06F01FFB642037
:1015A0000FF023FAE5E6000000000000341A0020E6
:1015B000D8020020F80100200000000000003040A8
:1015C000C80100200000000000001040EC000020D6
:1015D000E0340020000000000000244000004C43E4
:1015E000DC020020E0020020EC07002010B50248D9
:1015F00006F094FB10BD0000A407002010B50248BF
:1016000006F08CFB10BD0000DC45002010B5024840
:1016100006F084FB10BD00009445002010B5024880
:1016200006F07CFB10BD0000BC44002010B5024851
:1016300006F074FB10BD00007444002010B5024891
:1016400006F06CFB10BD00000445002010B50248F8
:1016500006F064FB10BD00004C45002010B50248A8
:1016600006F05CFB10BD00002C44002010B50248C1
:1016700006F054FB10BD0000E443002030B590F8A4
:10168000444004F01C050124AC40056C6C60046807
:1016900063608468102C04D10468A2600468E1606F
:1016A00003E00468A1600468E26030BD2DED028BA8
:1016B00084B0002002909FEDFE0A8DED010A00BF6C
:1016C00003A8FC4991ED000A0EF007FEBDF80C00DE
:1016D00000B2F9490880BDF80E0000B24880F74812
:1016E0000078888203A8F64991ED000A0EF0F5FD16
:1016F000BDF80C0000B2F0498885BDF80E0000B2BC
:10170000C88503A8EF4991ED000A0EF0E6FDBDF88B
:101710000C0000B2E8490886BDF80E0000B2488609
:1017200003A8E94991ED000A0EF0D7FDBDF80C00C1
:1017300000B2E1498886BDF80E0000B2C886E348D1
:10174000008800B28887E14801680079020442EA13
:10175000114000B2D849C887DD48008800B2A1F81E
:10176000400003A8DB4991ED000A0EF0B6FDBDF87C
:101770000C0000B2D049A1F84800BDF80E0000B23C
:10178000A1F84A00D4480078A1F85C0003A8D34926
:1017900091ED000A0EF0A1FDBDF80C0000B2C649A3
:1017A000A1F86E00BDF80E0000B2A1F8700003A809
:1017B000CB4991ED000A0EF090FDBDF80C0000B28F
:1017C000BD49A1F87400BDF80E0000B2A1F8760082
:1017D000C348D0ED000AC34890ED001A70EEC10A6C
:1017E000B0EE600A03A80EF078FDBDF80C0000B260
:1017F000B149A1F87800BDF80E0000B2A1F87A0056
:10180000B948008800B2A1F88C00B848008800B23E
:10181000A1F88E00B6480078A1F8920003A8B54957
:1018200091ED000A0EF059FDBDF80C0000B2A2497E
:10183000A1F89400BDF80E0000B2A1F8960003A82C
:10184000AD4991ED000A0EF048FDBDF80C0000B264
:101850009949A1F89800BDF80E0000B2A1F89A00CD
:10186000A648D0E90020A649D1E90031D21A884122
:1018700012D2A348D0E90050A04C12CC6A1A60EBF7
:1018800004011046FEF7F7FE08EE100A03A8B0EEBA
:10189000480A0EF022FD04E003A89FED850A0EF031
:1018A0001CFDBDF80C0000B28349A1F89C00BDF8F6
:1018B0000E0000B2A1F89E009248008800B2A1F884
:1018C000A0009148008800B2A1F8A2008F480078DB
:1018D000A1F8A4008E480078A1F8A6008D480088E1
:1018E00000B2A1F8AE0003A88B4991ED000A0EF0FA
:1018F000F4FCBDF80C0000B26F49A1F8C400BDF8BB
:101900000E0000B2A1F8C60003A8844991ED000AB8
:101910000EF0E3FCBDF80C0000B26749A1F8CE0060
:10192000BDF80E0000B2A1F8D00003A89FED7C0A1C
:101930000EF0D3FCBDF80C0000B25F49A1F8D20054
:10194000BDF80E0000B2A1F8D4007648008800B2BD
:10195000A1F8F00003A8744991ED000A0EF0BDFC57
:10196000BDF80C0000B25449A1F8F400BDF80E0017
:1019700000B2A1F8F60003A86C4991ED000A0EF040
:10198000ACFCBDF80C0000B24B49A1F8F800BDF862
:101990000E0000B2A1F8FA0003A8654991ED000A13
:1019A0000EF09BFCBDF80C0000B24349A1F8FC000E
:1019B000BDF80E0000B2A1F8FE005B48D0ED000AB1
:1019C0005C4890ED001A70EEC10AB0EE600A03A800
:1019D0000EF083FCBDF80C0000B23749A1F80001FD
:1019E000BDF80E0000B2A1F802015048D0ED000A87
:1019F000514890ED001A70EEC10AB0EE600A03A8DB
:101A00000EF06BFCBDF80C0000B22B49A1F80401EC
:101A1000BDF80E0000B2A1F806014548D0ED000A5D
:101A2000464890ED001A70EEC10AB0EE600A03A8B5
:101A30000EF053FCBDF80C0000B21F49A1F80801DC
:101A4000BDF80E0000B2A1F80A0103A83C4991EDCF
:101A5000000A0EF042FCBDF80C0000B21649A1F8D5
:101A60001001BDF80E0000B2A1F81201354800784F
:101A700000286BD1002496E104EB840080009030B4
:101A80000D4911F8100004EB84012F4A02F83100CF
:101A900004EB840080009130074911F8100004EB3A
:101AA000840102EBC101487004EB840080004EE029
:101AB00000000000A0010020341A0020B401002022
:101AC000C4010020C8010020CC01002088020020B1
:101AD00098020020EC0000200C02002020020020D0
:101AE0007C01002078010020780200207A0200208A
:101AF0003202002058020020480200206802002024
:101B000060020020AE020020B0020020E6030020A8
:101B1000E70300201E030020E8020020440000200C
:101B200008ACB0409E010020DC010020E401002050
:101B3000EC010020E0010020E8010020F00100207D
:101B40008003002035030020E03400202EE1923095
:101B5000FE4931F8100004EB840102EBC1018880DA
:101B600004EB840080009330F84911F8100004EB76
:101B7000840102EBC101887004EB84008000943082
:101B8000F24911F8100004EB840102EBC1018871E5
:101B900004EB840080009530EC4931F8100004EB30
:101BA000840102EBC101088104EB840189009631B4
:101BB000E64A02EB410000210EF09AFB04EB8400A0
:101BC000E34901EBC00080ED030A04EB84018900C6
:101BD0009831DE4A02EB410000210EF089FB04EB54
:101BE0008400DB4901EBC00080ED040A04EB8400B3
:101BF00001EBC000807908BB04EB840001EBC0005E
:101C000090ED050ABDEEC00A10EE100A01B204EB19
:101C1000840080009A30CD4A22F8101004EB840032
:101C2000CB4901EBC00090ED050ABDEEC00A10EEF5
:101C3000100A00B26100C74A22F8110004EB8400C8
:101C4000C34901EBC0008079012806D004EB840071
:101C500001EBC000807904282DD104EB8400BC493D
:101C600001EBC000D0ED050AB0EE600A03A80EF04B
:101C700034FBBDF80C0001B204EB840080009A3004
:101C8000B24A22F81010BDF80E0001B204EB840035
:101C900080009B3022F81010BDF80C0000B26100EB
:101CA000AC4A22F81100BDF80E0000B2012101EB90
:101CB000440122F8110004EB8400A54901EBC000A7
:101CC0008079022806D004EB840001EBC000807903
:101CD000032822D104EB84009D4901EBC00090ED64
:101CE000050ABDEEC00A10EE100A01B204EB840032
:101CF00080009A30954A22F8101004EB8400944931
:101D000001EBC00090ED050ABDEEC00A10EE100A0E
:101D100000B261008F4A22F8110004EB84018900AF
:101D20009C318A4A02EB410000210EF0E1FA04EBFB
:101D30008400874901EBC00080ED080A04EB8401B0
:101D400089009E31814A02EB410000210EF0D0FA59
:101D500004EB84007E4901EBC00080ED090A04EB2E
:101D600084018900A031794A02EB410000210EF084
:101D7000BFFA04EB8400764901EBC00080ED060A4F
:101D800004EB84018900A231704A02EB410000217A
:101D90000EF0AEFA04EB84006D4901EBC00080ED5B
:101DA000070A601C84B2282CFFF666AE6748B0F9BB
:101DB000D60040F2E111884212D100206349A1F817
:101DC000D60010F005FA614810F0E4FC02900FF024
:101DD000FFF910F027FA00200EF0EAFC04F064FB93
:101DE0005A48B0F9D6005C4988427DD10020574955
:101DF000A1F8D60003A8594991ED000A0EF06DFA3A
:101E0000BDF80C0000B251494883BDF80E0000B285
:101E1000888303A8524991ED000A0EF05EFABDF8DE
:101E20000C0000B24949C883BDF80E0000B2088416
:101E300003A84C4991ED000A0EF04FFABDF80C00D2
:101E400000B242494884BDF80E0000B2888403A85D
:101E50004549097800EE101AB8EE400A0EF03DFA36
:101E6000BDF80C0000B23949C884BDF80E0000B2BC
:101E7000088503A83D4991ED000A0EF02EFABDF841
:101E80000C0000B23149A1F86600BDF80E0000B2A6
:101E9000A1F8680003A8364991ED000A0EF01DFA7A
:101EA000BDF80C0000B22949A1F86A00BDF80E0087
:101EB00000B2A1F86C000846B0F880002D490880F7
:101EC00003A82D4991ED000A0EF007FABDF80C00A9
:101ED00000B21E49A1F8B400BDF80E0000B2A1F88E
:101EE000B60003A8254900E01DE091ED000A0EF0C0
:101EF000F4F9BDF80C0000B21449A1F8B800BDF81F
:101F00000E0000B2A1F8BA0010F062F90F4810F00C
:101F100041FC02900FF05CF910F084F900200EF003
:101F200047FC04F0C1FA0948B0F9D80014498842C6
:101F300007D01448007800287DD113480088012874
:101F4000FAD100200149A1F8D8001FE0341A00207E
:101F5000E034002094210020CDABFFFFD001002011
:101F6000D4010020D8010020C00100201002002070
:101F7000140200205A030020DC020020E0020020AE
:101F8000BADCFFFF350300205603002000BF28E025
:101F90000D2819D00E2817D00F2815D0102813D0CF
:101FA000112811D012280FD033280DD034280BD08F
:101FB000352809D0362807D05A2805D05B2803D009
:101FC0005C2801D05D2806D1434931F81010424AFF
:101FD00022F8101003E000213F4A22F81010411CA3
:101FE00088B2B0F56C7FD3DB0A203B49A1F8C8006A
:101FF00044F62060A1F8DA0003A8B3EE060A0EF05A
:102000006CF9BDF80C0000B23349A1F8DC00BDF852
:102010000E0000B2A1F8DE0003A8B3EE0A0A0EF02B
:102020005CF9BDF80C0000B22B49A1F8E000BDF846
:102030000E0000B200E04AE0A1F8E20003A89FED24
:10204000270A0EF04AF9BDF80C0000B22249A1F8A7
:102050008200BDF80E0000B2A1F88400BDF80C00AB
:1020600000B2A1F88800BDF80E0000B2A1F88A0005
:10207000BDF80C0000B2A1F8CA00BDF80E0000B215
:10208000A1F8CC006420A1F8EE00084610F082FB15
:10209000029000BF00BF00BF00BF00BFBFF34F8F63
:1020A00000BF00BF00BF0E48006800F4E0600D49AB
:1020B0000843001D0A49086000BF00BF00BFBFF30E
:1020C0004F8F00BF00BF00BF00BF00BFFDE70A2069
:1020D0000EF08BFCFFF7F4BA341A00200000E14741
:1020E0000CED00E00000FA05704700002DED0E8BAE
:1020F00084B09FED5E0A8DED030A9FED5C0A8DEDC5
:10210000020A9FED5A0A8DED010A00BF4FF0FF3120
:102110005748006810F0C0FE40225649084608F0B3
:102120000DFD4023534A114653480DF0B7FE03AA54
:10213000402150480EF054F86B4602AA40214D4809
:102140000DF065FF6B4601AA40214A480DF0F0FFF3
:1021500000231A4603A94948006810F0A5FC484826
:102160000068FEF7A2FA41EC190B46480068FEF73A
:102170009CFA41EC1B0B0298FEF797FA41EC1E0B00
:102180009FED410B53EC102BFEF794F941EC1D0B26
:102190009FED3F0B53EC102BFEF7FEF941EC1C0BAF
:1021A00053EC1B2BFEF786F941EC1A0B53EC192B61
:1021B000FEF7D9F841EC180BFEF7BAFA3649086079
:1021C0002F480068FEF771FA41EC190B2D480068A2
:1021D000FEF76BFA41EC1B0B0198FEF766FA41EC37
:1021E0001E0B9FED290B53EC102BFEF763F941EC0E
:1021F0001D0B9FED270B53EC102BFEF7CDF941EC97
:102200001C0B53EC1B2BFEF755F941EC1A0B53EC4E
:10221000192BFEF7A8F841EC180BFEF789FA1F49B5
:1022200008601F48D0ED000A9FED1E1A80EE810A5B
:102230001948D0ED000A80EE801A80ED001A184887
:10224000D0ED000A9FED171A80EE810A0846D0ED06
:10225000000A80EE801A80ED001A00231A46194603
:102260001148006810F020FC50E70000000000005A
:10227000A000002000180020B0190020400100201C
:10228000D8010020D4010020B4D934E70C684A3FBB
:10229000393939393939E93FEC010020F0010020A2
:1022A000D001002000007A44AC0000208EB0012252
:1022B000D1034FF0904006F0C3F80FF027FB012048
:1022C0000FF014FB0DF0E8FF0FF090FBFE48B0F9A3
:1022D000DA00049000EBD070401003900EF085FB04
:1022E00001200EF065FA00BFF8480078012808D1F7
:1022F00000200FF0FBFA0EF0E5FA0FF077FB03F089
:102300007CBFF348007801283FD1F24800780128CB
:102310000BD0F0480078022807D0EE480078032858
:1023200003D0EC48007804282FD100200FF0DEFA0B
:10233000002108460FF054FB0123E74806C8E7A038
:102340000FF0FAFB0123E74806C8E7A00FF0F4FB03
:102350000F2100200FF044FB0123DF4806C8E3A053
:102360000FF0EAFB1E2100200FF03AFB0123DA48B0
:1023700006C8E0A00FF0E0FB0123DA4806C8DEA0A3
:102380000FF0DAFB0FF032FBB9E7D14800780128F3
:1023900013D1D048007805280FD100200FF0A6FAFD
:1023A0000F2100200FF01CFB0123CB4806C8D3A04F
:1023B0000FF0C2FB0FF01AFBA1E7D24800880128FA
:1023C00009D1D148007818B90920D049087002E035
:1023D0000620CE490870CB480088022809D1CA4897
:1023E000007818B90120C949087002E00820C749DF
:1023F0000870C4480088032809D1C348007818B978
:102400002820C249087002E00220C0490870BD4877
:102410000088042809D1BC48007818B90220BB49BB
:10242000087002E00420B9490870B6480088052801
:1024300001D1B6490870B3480088062802D10320AC
:10244000B2490870AF480088072802D10320AF497D
:102450000870AF480078012812D1AE4800880028E3
:102460000EDDAD48007858B9AA480088401EA94939
:1024700008800020A6490870A8490870A84908707B
:10248000A8480078012814D1A24800889F490978FB
:1024900088420EDAA048007858B99E480088401C4F
:1024A0009C49088000209F4908709C4908709C49FD
:1024B00008709D480078012836D19248008800288D
:1024C00032DD9648007878BB9348007860BB8D4831
:1024D0000088032811D18F48008870B19348008884
:1024E000002804DD91480088401E904908800020A3
:1024F0008D4908708A49087016E08D4800880028C8
:1025000004DD8B480088401E894908808948884935
:10251000098830F811007B49088000208249087042
:102520007C4908807E49087083480078012839D1A9
:102530007A480078B0BB7848007898BB714800882A
:10254000032815D17348008890B17848008828285E
:1025500008DA764800880C2804DA74480088401CA1
:10256000724908800020744908706D49087019E0AC
:1025700072480088401E6E490988884204DD6C4814
:102580000088401C6A4908806A486949098830F80F
:1025900011005C4908800020674908705D49088087
:1025A0005F4908705D48007801280ED159480088BD
:1025B00058B15948007808B9012000E00020564978
:1025C000087000205549087014E05D480078012823
:1025D00010D15048008868B94B48007808B90120EC
:1025E00000E000204849087000205549087001208B
:1025F0005449087046480078012813D146480078AD
:1026000001280FD146480078002805DD44480078AD
:10261000401E4349087002E0002041490870002034
:102620003B4908703F480078012813D13A480078A8
:1026300001280FD13A480078012805DA3848007897
:10264000401C3749087002E001203549087000201D
:10265000344908703A48007801280ED12D48008886
:1026600058B10EF0A1FF0020354908702B490870C1
:102670002549087001203349087033480088012833
:1026800041F015801F48008801281CD1214800888E
:102690000028FAD10FF02AF9002108460FF0A0F91E
:1026A0000123104806C829A00FF046FA28480078F0
:1026B00001287AD12748007820B90F2100200FF097
:1026C0008FF949E059E01CE2341A0020F0020020A2
:1026D0001C030020D903002018000020CEE1EDEEFD
:1026E000E2000000200000202D000000EBE5EDE8F6
:1026F000E5000000CFCE00002E2E2E00D3D1CFC596
:10270000D8CDCE000A0300205C0300204403002043
:10271000020300200E0300203503002006030020E2
:102720003603002003030020040300200C030020D4
:1027300008030020303D0020050300205203002044
:1027400007030020B3030020240300204943500066
:10275000B40100203C0300200123FE4806C8FEA06F
:102760000FF0EAF91E2100200FF03AF90123F94891
:1027700006C8FBA00FF0E0F905E00123FA4806C8FF
:10278000FAA00FF0D9F9FA480078012803D1002106
:1027900037200FF0BCFA00213C200FF0B8FA2B21B3
:1027A0003A200FF03DFAA7E1FFE7F1480078F0B9D1
:1027B00000200FF09BF8002108460FF011F90123CB
:1027C000E94806C8AFF27C000FF0B6F900211C20E2
:1027D0000FF006F900213C200FF099FA2B213A2046
:1027E0000FF01EFA0F2100200FF0FAF825E0E04864
:1027F0000078012821D100200FF078F80021084648
:102800000FF0EEF80123D84806C8AFF2C0000FF071
:1028100093F900211C200FF0E3F8002137200FF07E
:1028200076FA00213C200FF072FA2B213A200FF0AB
:10283000F7F90F2100200FF0D3F8CE4800880128C7
:102840001FD11222CCA106A8FDF781FD122106A8F6
:102850000FF088F9202100200FF0C2F8CB48006863
:10286000FDF723FFCDE90201C9A2CDE90001402116
:10287000C9480CF0E7FD0123BB4806C8C6480FF065
:102880005BF9BC48008802281FD11122C3A106A809
:10289000FDF75DFD112106A80FF064F9202100204D
:1028A0000FF09EF8C2480068FDF7FFFECDE9020177
:1028B000B7A2CDE900014021B7480CF0C3FD0123C8
:1028C000A94806C8B4480FF037F9AA480088032879
:1028D0001FD11422B7A106A8FDF739FD142106A8BF
:1028E0000FF040F9202100200FF07AF8B748006877
:1028F000FDF7DBFECDE90201A5A2CDE900014021F3
:10290000A5480CF09FFD0123974806C8A2480FF088
:1029100013F99848008804281FD11422ACA106A8F6
:10292000FDF715FD142106A80FF01CF92021002049
:102930000FF056F8AD480068FDF7B7FECDE902018B
:1029400093A2CDE90001402193480CF07BFD0123C7
:10295000854806C890480FF0EFF88648008805289B
:102960001FD11722A2A106A8FDF7F1FC172106A886
:102970000FF0F8F8202100200FF032F8A24800688C
:10298000FDF793FECDE9020181A2CDE900014021CE
:1029900081480CF057FD0123734806C87E480FF0AC
:1029A000CBF87448008806281FD1142297A106A8E6
:1029B000FDF7CDFC142106A80FF0D4F8202100204B
:1029C0000FF00EF898480068FDF76FFECDE90201A0
:1029D0006FA2CDE9000140216F480CF033FD0123C7
:1029E000614806C86C480FF0A7F8624800880728BD
:1029F00028D114228DA106A8FDF7A9FC142106A850
:102A00000FF0B0F8202100200EF0EAFF774890ED9B
:102A1000000A8C48D0ED000A30EE600A8DED010A04
:102A20000198FDF742FECDE9020159A2CDE900016E
:102A3000402159480CF006FD01234B4806C8564872
:102A40000FF07AF84B480088082828D114227EA17C
:102A500006A8FDF77CFC142106A80FF083F81E21C0
:102A600000200EF0BDFF684890ED000A7C48D0EDD4
:102A7000000A30EE600A8DED010A0198FDF715FE9F
:102A8000CDE9020142A2CDE90001402142480CF00B
:102A9000D9FC0123344806C83F480FF04DF83548AB
:102AA0000088092828D114226EA106A8FDF74FFC42
:102AB000142106A80FF056F8202100200EF090FFF8
:102AC000594890ED000A6D48D0ED000A30EE600ADA
:102AD0008DED010A0198FDF7E8FDCDE902012CA278
:102AE000CDE9000140212C480CF0ACFC01231E482C
:102AF00006C829480FF020F8002061490870614994
:102B0000087061480088012822D1604800880128A7
:102B10001ED117480078D8B900200EF0E7FE00213A
:102B200008460EF05DFF01230F4806C8AFF2E430FF
:102B30000FF002F800211C200EF052FF0021372078
:102B40000FF0AAF800213C200FF0E1F80F219FE0E0
:102B5000C8E0000018000020CEC1D0DBC200000099
:102B6000C4C0D2D7C8CAC000200000202000000086
:102B70005C03002058030020D1CAC720E2E8E1F03E
:102B8000EEF3F1EAEEF0E5EDE8FF0000C40100200D
:102B9000252E3031660000003E3D0020D1CAC720FE
:102BA000E2E8E1F0EEF1EAEEF0EEF1F2E80000002A
:102BB000C8010020D1CAC720E2E8E1F0EEEFE5F05D
:102BC000E5ECE5F9E5EDE8FF00000000CC010020B0
:102BD000C0ECEFEBE8F2F3E4E020E2E8E1F0EEF342
:102BE000F1EAEEF0E5EDE8FF00000000DC01002076
:102BF000C0ECEFEBE8F2F3E4E020E2E8E1F0EEF124
:102C0000EAEEF0EEF1F2E800E4010020C0ECEFEBB8
:102C1000E8F2F3E4E020E2E8E1F0EEEFE5F0E5ECE5
:102C2000E5F9E5EDE8FF0000EC010020D0E0E7EC7D
:102C3000E0F520E2E8E1F0EEF3F1EAEEF0E5EDE8B0
:102C4000FF000000E0010020D0E0E7ECE0F520E22A
:102C5000E8E1F0EEF1EAEEF0EEF1F2E8000000005B
:102C6000E8010020D0E0E7ECE0F520E2E8E1F0EE5A
:102C7000EFE5F0E5ECE5F9E5EDE8FF00F001002017
:102C800035030020B40300200A0300200E030020B7
:102C900000200EF0A5FE1222AFF2241106A8FDF7C7
:102CA00056FB122106A80EF05DFF202100200EF039
:102CB00097FEFE480068FDF7F8FCCDE90201FCA292
:102CC000CDE900014021FC480CF0BCFB0123FB488E
:102CD00006C8F9480EF030FF0020F94908700120BD
:102CE000F8490870F848008801284DD1F748008855
:102CF000022849D1F6480078E8BB00200EF0F6FD26
:102D0000002108460EF06CFE0123EC4806C8AFF225
:102D1000C4500EF011FF00211C200EF061FE0021B6
:102D200037200EF0B9FF00213C200EF0F0FF0F21FC
:102D300000200EF055FE1122AFF2A01106A8FDF7FB
:102D400006FB112106A80EF00DFF202100200EF039
:102D500047FEE0480068FDF7A8FCCDE90201D4A2D7
:102D6000CDE900014021D4480CF06CFB0123D3488D
:102D700006C8D14800E007E00EF0DEFE0020D04992
:102D800008700120CF490870CF48008801284DD134
:102D9000CE480088032849D1CD480078E8BB002000
:102DA0000EF0A4FD002108460EF01AFE0123C348D0
:102DB00006C8AFF268600EF0BFFE00211C200EF0C6
:102DC0000FFE002137200EF067FF00213C200EF09F
:102DD0009EFF0F2100200EF003FE1422AFF22C21E3
:102DE00006A8FDF7B4FA142106A80EF0BBFE2021B8
:102DF00000200EF0F5FDB8480068FDF756FCCDE95F
:102E00000201ABA2CDE900014021AB480CF01AFB56
:102E10000123AA4806C8A84800E007E00EF08CFE8F
:102E20000020A74908700120A6490870A64800881C
:102E3000012849D1A5480088042845D1A448007834
:102E4000F0BB00200EF052FD002108460EF0C8FD38
:102E500001239A4806C8AFF20C700EF06DFE0021F7
:102E600037200EF019FF00213C200EF050FF0F21FB
:102E700000200EF0B5FD1822AFF2AC2106A8FDF738
:102E800066FA182106A80EF06DFE202100200EF033
:102E9000A7FD92480068FDF708FCCDE9020184A275
:102EA000CDE90001402184480CF0CCFA012383488D
:102EB00006C881480EF040FE00208149087000E0FD
:102EC00002E001207F4908707F480088012849D12D
:102ED0007E480088052845D17D480078F0BB002059
:102EE0000EF004FD002108460EF07AFD0123734820
:102EF00006C8AFF2A8700EF01FFE002137200EF0BA
:102F0000CBFE00213C200EF002FF0F2100200EF02E
:102F100067FD1722AFF2283106A8FDF718FA17212E
:102F200006A80EF01FFE202100200EF059FD6C486F
:102F30000068FDF7BAFBCDE902015DA2CDE9000111
:102F400040215D480CF07EFA01235C4806C85A48CF
:102F50000EF0F2FD00205A49087000E002E0012066
:102F60005849087058480088012849D157480088B6
:102F7000062845D156480078F0BB00200EF0B6FC7C
:102F8000002108460EF02CFD01234C4806C8AFF680
:102F900044000EF0D1FD002137200EF07DFE00210F
:102FA0003C200EF0B4FE0F2100200EF019FD1A2275
:102FB000AFF2A83106A8FDF7CAF91A2106A80EF04B
:102FC000D1FD202100200EF00BFD46480068FDF7E2
:102FD0006CFBCDE9020136A2CDE900014021364863
:102FE0000CF030FA0123354806C833480EF0A4FD32
:102FF00000203349087000E002E0012031490870E8
:1030000031480088012873D13048008807286FD1E3
:103010002F480078F0BB00200EF068FC0021084625
:103020000EF0DEFC0123254806C8AFF6E0000EF0E6
:1030300083FD002137200EF02FFE00213C200EF0F2
:1030400066FE0F2100200EF0CBFC1522AFF22441CA
:1030500006A8FDF77CF9152106A80EF083FD2021B6
:1030600000200EF0BDFC1D4890ED000A1E48D0ED7A
:10307000000A30EE600A8DED010A0198FDF715FB9C
:10308000CDE902010AA2CDE9000140210A480CF075
:10309000D9F900E02CE00123084806C806480EF0E4
:1030A0004BFD00200649087001201FE0C4010020EC
:1030B000252E3033660000003E3D00202000002019
:1030C00035030020B40300200A0300200E03002073
:1030D0005C030020C8010020CC010020DC0100209E
:1030E000E4010020EC010020E0010020FE4908700E
:1030F000FE480088012853D1FD48008808284FD198
:10310000FC480078E8BB00200EF0F0FB00210846E8
:103110000EF066FC0123F84806C8AFF6D0100EF09A
:103120000BFD002137200EF0B7FD00213C200EF0F2
:10313000EEFD0F2100200EF053FC1422AFF2F841F7
:1031400006A8FDF704F9142106A80EF00BFD2021B6
:1031500000200EF045FCE94890ED000AE848D0ED6B
:10316000000A30EE600A8DED010A0198FDF79DFA24
:10317000CDE90201AFF2C802CDE900014021E148EA
:1031800000E00DE00CF05EF90123DB4806C8DD48E5
:103190000EF0D2FC0020DC4908700120D2490870F2
:1031A000D248008801284FD1D148008809284BD146
:1031B000D0480078F0BB00200EF098FB00210846B4
:1031C0000EF00EFC0123CC4806C8AFF680200EF0AE
:1031D000B3FC002137200EF05FFD0F2100200EF020
:1031E000FFFB1722AFF2845106A8FDF7B0F81721B4
:1031F00006A80EF0B7FC202100200EF0F1FBC3481A
:1032000090ED000AC248D0ED000A30EE600A8DED64
:10321000010A0198FDF749FACDE90201AFF27012F7
:10322000CDE900014021B7480CF00CF90123B24868
:1032300006C800E008E0B3480EF07EFC0020B2496A
:1032400008700120A8490870A848008801284ED1BC
:10325000A748008801284AD1A6480078012846D10D
:1032600000200EF043FB002108460EF0B9FB0123BD
:10327000A14806C8AFF62C300EF05EFC00213220CB
:103280000EF00AFD002137200EF041FD00213C2008
:103290000EF03DFD0F2100200EF0A2FB18229DA193
:1032A00006A8FDF754F8182106A80EF05BFC2021B3
:1032B00000200EF095FB94480078012806D19C4828
:1032C0000DF0FCF900208849087010E09848B0F92A
:1032D000003098A240218B480CF0B4F801238648B6
:1032E00006C888480EF028FC01207F4908707F48F6
:1032F0000088012854D17E480088022850D17D489A
:10330000007801284CD100200EF0F0FA0021084688
:103310000EF066FB0123784806C8AFF6D0300EF0F9
:103320000BFC002132200EF0B7FC002137200EF0FC
:10333000EEFC00213C200EF0EAFC0F2100200EF0F4
:103340004FFB19227CA106A8FDF701F8192106A858
:103350000EF008FC202100200EF042FB6A480078A5
:10336000012806D17B480CF0F1FF00205E4908706F
:1033700016E078480068FDF798F9CDE90201AFF250
:10338000F072CDE9000140215E480CF05BF80123AA
:10339000594806C85B480EF0CFFB0120524908701F
:1033A00052480088012854D151480088032850D140
:1033B0005048007801284CD100200EF097FA0021E7
:1033C00008460EF00DFB01234B4806C8AFF68440BB
:1033D0000EF0B2FB002132200EF05EFC00213720FF
:1033E0000EF095FC00213C200EF091FC0F210020F6
:1033F0000EF0F6FA112258A106A8FCF7A8FF112139
:1034000006A80EF0AFFB202100200EF0E9FA3E489E
:103410000078012806D155480CF098FF0020324969
:10342000087016E051480068FDF73FF9CDE9020148
:10343000AFF6A402CDE90001402132480CF002F8B9
:1034400001232D4806C82F480EF076FB012026499F
:10345000087026480088012842D1254800880428A1
:103460003ED12448007801283AD100200EF03EFADF
:10347000002108460EF0B4FA01231F4806C8AFF633
:1034800034500EF059FB002132200EF005FC0021D3
:1034900037200EF03CFC00213C200EF038FC0F21C0
:1034A00000200EF09DFA0D2231A106A8FCF74FFF77
:1034B0000D2106A80EF056FB202100200EF090FAF8
:1034C0002F4803781BA240210E480BF0BBFF0123BD
:1034D000094806C80B480EF02FFB0120024908706E
:1034E0000248008801284DE0B40300200A030020B0
:1034F0000E0300205C03002020000020E4010020D7
:10350000E80100203E3D002035030020EC010020B2
:10351000F0010020CFE0F0E0ECE5F2F020EDE0205B
:10352000E3EBE0E2EDEEEC20ECE5EDFE0000000068
:103530005803002025640000CFF0E5E4F3EFF0E548
:10354000E4E8F2E5EBFCEDE0FF20F3F1F2E0E2EA83
:10355000E0000000A8010020C0E2E0F0E8E9EDE0B2
:10356000FF20F3F1F2E0E2EAE0000000B001002009
:10357000D0E5E6E8EC20F4E8EBFCF2F0E000000037
:10358000C00100204BD1FE480088052847D1FD48E6
:103590000078012843D100200EF0A8F90021084648
:1035A0000EF01EFA0123F84806C8AFF660600EF070
:1035B000C3FA002132200EF06FFB002137200EF0FD
:1035C000A6FB00213C200EF0A2FB0F2100200EF0F4
:1035D00007FA1422EDA106A8FCF7B9FE142106A8EB
:1035E0000EF0C0FA202100200EF0FAF9ED48006834
:1035F000FDF75BF8CDE90201EBA2CDE90001402126
:10360000EB480BF01FFF0123DF4806C8E8480EF027
:1036100093FA0020E74908700120E7490870E7485D
:103620000088012843D1D648008806283FD1D548D4
:10363000007801283BD100200EF058F900210846FF
:103640000EF0CEF90123D04806C8AFF600700EF098
:1036500073FA002132200EF01FFB0F2100200EF024
:10366000BFF91422D6A106A8FCF771FE142106A802
:103670000EF078FA202100200EF0B2F9D64800684A
:10368000FDF713F8CDE90201C7A2CDE90001402101
:10369000C7480BF0D7FE0123BB4806C8C4480EF04C
:1036A0004BFA0020C34908700120C3490870CB4879
:1036B0000088012870D1C148008802286DD1B04827
:1036C0000088002869D10EF011F9002108460EF09B
:1036D00087F90123AC4806C8C1A00EF02DFAC248F4
:1036E0000078012800D100E00020BC4909880129A8
:1036F00000D100E000210840C8B3BC480078B0B950
:103700000F2100200EF06CF90123B94806C8AFF66E
:10371000B8300EF011FA1E2100200EF061F90123DD
:10372000B34806C8AFF6C8300EF006FA06E001232B
:10373000954806C8AFF6CC300EF0FEF991480078F7
:10374000012803D1002137200EF0E1FA00213C20AE
:103750000EF0DDFAA7480088012803D126213A207F
:103760000EF011FB2B213A200EF05AFA4FE0FFE742
:103770008448007890B900213C200EF0C8FA9D489A
:103780000088012803D126213A200EF0FCFA2B21D3
:103790003A200EF045FA15E0D0E33BE00021372057
:1037A0000EF0B5FA00213C200EF0B1FA91480088E5
:1037B000012803D126213A200EF0E5FA2B213A20E8
:1037C0000EF02EFA0F2100200EF00AF912228AA123
:1037D00006A8FCF7BCFD122106A80EF0C3F92021B3
:1037E00000200EF0FDF889480068FCF75EFFCDE987
:1037F0000201AFF24472CDE9000140216C480BF0A8
:1038000021FE0123604806C869480EF095F90020A2
:10381000694908706948008802283ED158480088E4
:1038200001283AD157480078B8BB00200EF05EF866
:10383000002108460EF0D4F80123534806C868A0BA
:103840000EF07AF9002137200EF026FA0F21002021
:103850000EF0C6F80123664806C86DA00EF06CF99C
:10386000202100200EF0BCF86A480068FCF71DFF1C
:10387000CDE9020168A2CDE9000140214C480BF0DE
:10388000E1FD0123404806C849480EF055F90020E3
:1038900048490870012048490870484800880228B3
:1038A00055D137480088012851D136480078012881
:1038B0004DD100200EF01AF8002108460EF090F8C5
:1038C0000123314806C846A00EF036F90021322007
:1038D0000EF0E2F9002137200EF019FA00213C2009
:1038E0000EF015FA0F2100200EF07AF825224CA1D7
:1038F00006A8FCF72CFD252106A80EF033F920219F
:1039000000200EF06DF82B480078012806D14E48B3
:103910000CF01CFD00202849087016E04A48006899
:10392000FCF7C3FECDE90201AFF69C52CDE90001E0
:1039300040211F480BF086FD0123134806C81C4890
:103940000EF0FAF801201C4908700EF04FF81B48E1
:103950000088022813D10A48008802280FD109489C
:10396000007801280BD100200DF0C0FF002108468F
:103970000EF036F80123044806C819A066E0A8E056
:103980000E0300205C03002020000020CAEEFDF49E
:10399000F4E8F6E8E5EDF220F3F1E8EBE5EDE8FF19
:1039A00000000000D4010020252E30356600000004
:1039B0003E3D002035030020B40300200A03002010
:1039C000CAEEFDF4F4E8F6E8E5EDF220F1ECE5F9F5
:1039D000E5EDE8FF00000000D801002026030020EC
:1039E000342D3230000000000C0200203C03002087
:1039F0001800002024030020D0E0F1F7E5F2EDEEFE
:103A0000E520E7EDE0F7E5EDE8E500002002002025
:103A1000D2EEEA00EC000020252E303266000000D5
:103A2000CDE8E6EDE8E920EFF0E5E4E5EB20E4E8B9
:103A3000E0EFE0E7EEEDE020E4EBFF20EFE5F0E57E
:103A4000F1F7E5F2E00000001C0200200EF074F82F
:103A5000002132200EF020F9002137200EF057F916
:103A600000213C200EF053F90F2100200DF0B8FF8B
:103A70002622FAA106A8FCF76AFC262106A80EF069
:103A800071F8202100200DF0ABFFFE4800780128DE
:103A900006D1FD480CF05AFC0020FC49087016E0E5
:103AA000F9480068FCF701FECDE90201AFF620728B
:103AB000CDE900014021F6480BF0C4FC0123F54894
:103AC00006C8F3480EF038F80120F04908700DF0F0
:103AD0008DFFF1480088022854D1F048008803285F
:103AE00050D1EF48007801284CD100200DF0FEFEA7
:103AF000002108460DF074FF0123E64806C8AFF226
:103B000020100EF019F8002132200EF0C5F8002127
:103B100037200EF0FCF800213C200EF0F8F80F21C1
:103B200000200DF05DFF2022DEA106A8FCF70FFCAF
:103B3000202106A80EF016F8202100200DF050FFDD
:103B4000D0480078012806D1DF480CF0FFFB0020A8
:103B5000CE49087016E0DC480068FCF7A6FDCDE908
:103B60000201AFF6D472CDE900014021C8480BF044
:103B700069FC0123C74806C8C5480DF0DDFF0120D8
:103B8000C2490870C4480088022853D1C34800883D
:103B900004284FD1C248007801284BD100200DF0F5
:103BA000A5FE002108460DF01BFF0123B94806C8F9
:103BB000AFF2D4100DF0C0FF002132200EF06CF8EF
:103BC000002137200EF0A3F800213C200EF09FF8D2
:103BD0000F2100200DF004FF1822BCA106A8FCF75D
:103BE000B6FB182106A80DF0BDFF202100200DF026
:103BF000F7FEA4480078012806D1BB480CF0A6FBCC
:103C00000020A249087015E0B7480068FCF74DFD98
:103C1000CDE90201B54ACDE9000140219C480BF0F5
:103C200011FC01239B4806C899480DF085FF01202F
:103C30009649087098480088022853D19748008810
:103C400005284FD19648007801284BD100200DF06F
:103C50004DFE002108460DF0C3FE01238D4806C825
:103C6000AFF284200DF068FF002132200EF014F82E
:103C7000002137200EF04BF800213C200EF047F8D1
:103C80000F2100200DF0ACFE212299A106A8FCF71F
:103C90005EFB212106A80DF065FF202100200DF01C
:103CA0009FFE78480078012806D19A480CF04EFB18
:103CB00000207649087015E096480068FCF7F5FC8E
:103CC000CDE90201894ACDE90001402170480BF09D
:103CD000B9FB01236F4806C86D480DF02DFF012088
:103CE0006A4908706C480088022853D16B480088E4
:103CF00006284FD16A48007801284BD100200DF0EA
:103D0000F5FD002108460DF06BFE0123614806C851
:103D1000AFF234300DF010FF002132200DF0BCFF67
:103D2000002137200DF0F3FF00213C200DF0EFFFC4
:103D30000F2100200DF054FE192277A106A8FCF7F0
:103D400006FB192106A80DF00DFF202100200DF023
:103D500047FE4C480078012806D176480CF0F6FA68
:103D600000204A49087015E072480068FCF79DFC85
:103D7000CDE902015D4ACDE90001402144480BF044
:103D800061FB0123434806C841480DF0D5FE0120E0
:103D90003E4908704048008802284DD13F480088BD
:103DA000072849D13E480078012845D100200DF070
:103DB0009DFD002108460DF013FE0123354806C87D
:103DC000AFF2E4300DF0B8FE002132200DF064FFB8
:103DD000002137200DF09BFF00213C200DF097FFC4
:103DE0000F2100200DF0FCFD1422AFF2604106A867
:103DF000FCF7ADFA142106A80DF0B4FE1E21002038
:103E00000DF0EEFD4C480068FCF74FFCCDE90201D7
:103E1000AFF26C42CDE9000140211D480BF012FBCE
:103E200001231C4806C81A480DF086FE00201549DB
:103E300008700120154908701748008802287DD1B4
:103E400016480088082879D115480078012875D1CE
:103E500000200DF04BFD0021084670E0C2E5F0F5B2
:103E6000EDE8E920EFF0E5E4E5EB20E4E8E0EFE061
:103E7000E7EEEDE020E4EBFF20EFE5F0E5F1F7E51C
:103E8000F2E000003503002018020020B4030020F7
:103E90003E3D0020200000200A0300200E030020E9
:103EA0005C030020D3F1F2E0E2EAE020EDE8E6ED89
:103EB000FFFF20EFF0E5E4F3EFF0E5E4E8F2E5EBF7
:103EC000FCEDE0FF00000000FC010020D3F1F2E077
:103ED000E2EAE020EDE8E6EDFFFF20E0E2E0F0E8D6
:103EE000E9EDE0FF0000000004020020902B010833
:103EF000D3F1F2E0E2EAE020E2E5F0F5EDFFFF20A9
:103F0000EFF0E5E4F3EFF0E5E4E8F2E5EBFCEDE0FB
:103F1000FF00000000020020D3F1F2E0E2EAE0201E
:103F2000E2E5F0F5EDFFFF20E0E2E0F0E8E9EDE0AA
:103F3000FF000000080200201002002038E00DF011
:103F40004FFD0123FE4806C8AFF26C500DF0F4FDA2
:103F5000002132200DF0A0FE0F2100200DF040FDC9
:103F60001422AFF2A45106A8FCF7F1F9142106A817
:103F70000DF0F8FD1E2100200DF032FDF148006823
:103F8000FCF793FBCDE90201AFF2E452CDE9000169
:103F90004021ED480BF056FA0123E94806C8EA48EB
:103FA0000DF0CAFD0020E94908700120E8490870B9
:103FB000E8480088012804D0E6480088022841F03B
:103FC0006381E5480088032875D1E448008800280B
:103FD000FAD10DF08BFC002108460DF001FD012304
:103FE000D74806C8DEA00DF0A7FDDA4800880228F1
:103FF00016D100200DF07AFC002108460DF0F0FCEF
:104000000123D84806C8D8A00DF096FD00211C2039
:104010000DF0E6FC0123D34806C8D4A00DF08CFDBA
:10402000D3480078A0B900213C200DF070FED148A3
:104030000088012803D0D0480088012803D1262118
:104040003A200DF0A0FE2B213A200DF0E9FD17E0FB
:10405000002137200DF05BFE00213C200DF057FEC3
:10406000C4480088012803D0C3480088012803D130
:1040700026213A200DF087FE2B213A200DF0D0FDAD
:10408000BE48007801281ED1BD480078A0B90F2194
:1040900000200DF0A5FC0123B24806C8B9A00DF020
:1040A0004BFD1E2100200DF09BFC0123AD4806C8EE
:1040B000B5A00DF041FD83E00123A14806C8B4A0DE
:1040C0000DF03AFD7CE00F2100200DF089FCA148A5
:1040D000008802281AD10922AEA106A8FCF737F9F8
:1040E000092106A80DF03EFD202100200DF078FCEE
:1040F000AB480388ABA2402193480BF0A3F90123FE
:104100008F4806C890480DF017FD59E01222A7A16C
:1041100006A8FCF71CF9AA48007802461221049070
:1041200006A80DF043FD202100200DF059FCA44805
:10413000B0F9000000EB8000A24901EBC0008079DB
:10414000012809D09E48B0F9000000EB800001EB87
:10415000C0008079042816D19948B0F9000000EB1E
:104160008000984901EBC00040690190FCF79DFA7E
:10417000CDE90201AFF26072CDE900014021724841
:104180000BF060F916E08E48B0F9000000EB8000FB
:104190008C4901EBC00090ED050ABDEEC00A10EE9F
:1041A000100A00B20346AFF67442402104906648FC
:1041B0000BF048F90123624806C863480DF0BCFCC7
:1041C0006B48007800287DD10490FCE362480088A9
:1041D000032847D1614801880498401C81427DD161
:1041E00079480088F0BB00200DF080FB00210846D4
:1041F0000DF0F6FB75A240215348049B0BF022F909
:1042000001234F4806C850480DF096FC0021372086
:104210000DF042FD0498272803D000213C200DF02A
:1042200076FD2B213A200DF0FBFC0F2100200DF034
:10423000D7FB12225DA106A8FCF789F8122106A877
:10424000049A0DF0B3FC202100200DF0C9FB049866
:1042500000EB80005B4901EBC0008079012809D0A8
:10426000049800E03AE000EB800001EBC0008079A8
:10427000042814D1049800EB8000524901EBC000DF
:1042800040690190FCF711FACDE90201AFF678021E
:10429000CDE9000140212C480BF0D4F815E004983A
:1042A00000EB8000474901EBC00090ED050ABDEE30
:1042B000C00A10EE100A00B2034645A24021039046
:1042C000214800E0FEE30BF0BDF801231C4806C8BE
:1042D0001D480DF031FC00201C4908701E48008864
:1042E000032877D11D4801880498401C814271D170
:1042F0003548008801286DD100200DF0F7FA002123
:1043000008460DF06DFB31A240210F48049B0BF0D5
:1043100099F801230A4806C80B480DF00DFC00214E
:1043200037200DF0B9FC0498272803D000213C2049
:104330000DF0EDFC26213A200DF025FD2B214AE061
:1043400020000020140200203E3D00203503002004
:10435000B4030020280300200A0300200E030020DD
:104360003438350018000020D2C8CA00C7D1CA00AE
:104370005C030020240300202603002032020020DA
:104380003C030020CDC5D200D1C2DFC7C800000069
:1043900020000000D1EEF1F2EEFFEDE8E5000000B4
:1043A000980200202564202525000000C7EDE0F7D5
:1043B000E5EDE8E520F0E5E3E8F1F2F0E0200000CB
:1043C0005A030020E03400200C030020343835204C
:1043D0002564000038E03A200DF022FC0F21002077
:1043E0000DF0FEFA1822F8A106A8FBF7B0FF18217D
:1043F00006A8049A0DF0DAFB202100200DF0F0FA57
:10440000F848007801280BD1049800EB8000800068
:104410009030F54901EB400003900CF04FF913E0A8
:10442000049800EB8000F14911F830000346AFF228
:10443000600240210390EE480BF004F80123ED48A0
:1044400006C8EB480DF078FBEB480088032867D1DD
:10445000EA4801880498401C814261D1E8480088FC
:1044600002285DD100200DF041FA002108460DF030
:10447000B7FAAFF2A8024021DD48049B0AF0E2FF40
:104480000123DC4806C8DA480DF056FB002137202E
:104490000DF002FC0498272803D000213C200DF0E9
:1044A00036FC26213A200DF06EFC2B213A200DF02F
:1044B000B7FB0F2100200DF093FA1A22D1A106A814
:1044C000FBF745FF1A2106A8049A0DF06FFB202187
:1044D00000200DF085FAC348007801280BD104981C
:1044E00000EB800080009130BF4901EB4000039059
:1044F0000CF0E4F814E0049800EB8000BB4901EBF9
:10450000C00040780346AFF2381240210390B8480B
:104510000AF098FF0123B74806C8B5480DF00CFB18
:10452000B5480088032867D1B44801880498401C26
:10453000814261D1B248008803285DD100200DF08E
:10454000D5F9002108460DF04BFAAFF28012402158
:10455000A748049B0AF076FF0123A64806C8A44892
:104560000DF0EAFA002137200DF096FB0498272879
:1045700003D000213C200DF0CAFB26213A200DF08B
:1045800002FC2B213A200DF04BFB0F2100200DF0F7
:1045900027FA0F22A2A106A8FBF7D9FE0F2106A831
:1045A000049A0DF003FB202100200DF019FA8D482C
:1045B000007801280BD1049800EB80008000923035
:1045C000894901EB400003900CF078F814E004985E
:1045D00000EB8000854901EBC00080880346AFF204
:1045E00010224021039082480AF02CFF01238148C9
:1045F00006C87F480DF0A0FA7F480088032867D1DD
:104600007E4801880498401C814261D17C48008822
:1046100004285DD100200DF069F9002108460DF055
:10462000DFF9AFF2582240217148049B0AF00AFFDB
:104630000123704806C86E480DF07EFA002137202D
:104640000DF02AFB0498272803D000213C200DF010
:104650005EFB26213A200DF096FB2B213A200DF02F
:10466000DFFA0F2100200DF0BBF91C2270A106A873
:10467000FBF76DFE1C2106A8049A0DF097FA202185
:1046800000200DF0ADF95748007801280BD10498AF
:1046900000EB800080009330534901EB4000039011
:1046A0000CF00CF814E0049800EB80004F4901EB8B
:1046B000C00080780346AFF2E822402103904C48C6
:1046C0000AF0C0FE01234B4806C849480DF034FAF1
:1046D00049480088032874D1484801880498401C40
:1046E00081426ED14648008805286AD100200DF02D
:1046F000FDF8002108460DF073F9AFF23032402189
:104700003B48049B0AF09EFE01233A4806C83848FD
:104710000DF012FA002137200DF0BEFA0498272878
:1047200003D000213C200DF0F2FA26213A200DF0B2
:104730002AFB2B213A200DF073FA0F2100200DF0F7
:104740004FF92A2242A106A8FBF701FE2A2106A85A
:10475000049A0DF02BFA202100200DF041F9214898
:10476000007801282ED1049800EB80001F4901EB4E
:10477000C000203003900BF0E9FD049800EB8000AE
:104780001A4901EBC00090ED080A8DED030A05A857
:104790009DED030A0BF0A1FDBDF8140001B20498D1
:1047A00000EB800080009C300F4A22F81010BDF80A
:1047B000160001B2049800EB800080009D3022F8C2
:1047C000101074E05AE00000C2EAEBFEF7E8F2FCD9
:1047D00020EEEFF0EEF120F0E5E3E8F1F2F0E0207A
:1047E0000000000035030020341A0020E0340020CF
:1047F0003E3D0020200000200A0300200E03002080
:104800000C030020C0E4F0E5F120F3F1F2F0EEE952
:10481000F1F2E2E020F0E5E3E8F1F2F0E020000060
:10482000C0E4F0E5F120F0E5E3E8F1F2F0E020008B
:10483000D4F3EDEAF6E8EEEDE0EBFCEDFBE920EA7F
:10484000EEE420F0E5E3E8F1F2F0E0200000000003
:10485000CDE8E6EDFFFF20EFF0E5E4F3EFF0E5E46F
:10486000E8F2E5EBFCEDE0FF20F3F1F2E0E2EAE054
:1048700020F0E5E3E8F1F2F0E0200000049800EB1E
:104880008000FE4901EBC000006A0190FBF70DFFBC
:10489000CDE90201FA4ACDE900014021F9480AF0C8
:1048A000D1FD0123F84806C8F6480DF045F9F74850
:1048B0000088032874D1F64801880498401C81427E
:1048C0006ED1F448008806286AD100200DF00EF859
:1048D000002108460DF084F8AFF210524021E9485B
:1048E000049B0AF0AFFD0123E74806C8E5480DF038
:1048F00023F9002137200DF0CFF90498272803D0A1
:1049000000213C200DF003FA26213A200DF03BFA5D
:104910002B213A200DF084F90F2100200DF060F8D2
:104920002222DDA106A8FBF712FD222106A8049A87
:104930000DF03CF9202100200DF052F8DF480078FE
:1049400001282ED1049800EB8000CC4901EBC00077
:10495000243003900BF0FAFC049800EB8000C74968
:1049600001EBC00090ED090A8DED030A05A89DED4D
:10497000030A0BF0B2FCBDF8140001B2049800EB7E
:10498000800080009E30CE4A22F81010BDF816003C
:1049900001B2049800EB800080009F3022F81010D4
:1049A0001AE0049800EB8000B44901EBC000406AB3
:1049B0000190FBF77AFECDE90201B14ACDE9000191
:1049C0004021B04800E07CE30AF03CFD0123AE4802
:1049D00006C8AC480DF0B0F8AC480088032872D186
:1049E000AB4801880498401C81426CD1A9480088DA
:1049F000072868D100200CF079FF002108460CF050
:104A0000EFFFAFF2386240219E48049B0AF01AFD86
:104A100001239D4806C89B480DF08EF800213720E1
:104A20000DF03AF90498272803D000213C200DF01E
:104A30006EF926213A200DF0A6F92B213A200DF02F
:104A4000EFF80F2100200CF0CBFF2B229DA106A830
:104A5000FBF77DFC2B2106A8049A0DF0A7F8202176
:104A600000200CF0BDFF95480078012831D1049852
:104A700000EB8000814901EBC000183003900BF07F
:104A800065FC049800EB80007C4901EBC00090EDD0
:104A9000060A8DED030A05A89DED030A0BF01DFC27
:104AA000BDF8140001B2049800EB80008000A03033
:104AB000834A22F81010BDF8160001B2049800EBEA
:104AC000800001E001E31DE08000A13022F8101019
:104AD00018E0049800EB8000684901EBC000806991
:104AE0000190FBF7E2FDCDE90201654ACDE9000145
:104AF000402164480AF0A6FC0123634806C86148C7
:104B00000DF01AF861480088032874D160480188C4
:104B10000498401C81426ED15E48008808286AD102
:104B200000200CF0E3FE002108460CF059FFAFF224
:104B3000647240215348049B0AF084FC01235248CC
:104B400006C850480CF0F8FF002137200DF0A4F8FB
:104B50000498272803D000213C200DF0D8F8262106
:104B60003A200DF010F92B213A200DF059F80F21C1
:104B700000200CF035FF23225DA106A8FBF7E7FB20
:104B8000232106A8049A0DF011F8202100200CF032
:104B900027FF4A48007801282ED1049800EB8000B6
:104BA000364901EBC0001C3003900BF0CFFB04989A
:104BB00000EB8000314901EBC00090ED070A8DED5C
:104BC000030A05A89DED030A0BF087FBBDF814004E
:104BD00001B2049800EB80008000A230384A22F82D
:104BE0001010BDF8160001B2049800EB80008000A0
:104BF000A33022F8101018E0049800EB80001F4941
:104C000001EBC000C0690190FBF74FFDCDE9020147
:104C10001B4ACDE9000140211A480AF013FC012388
:104C2000194806C817480CF087FF18480088032861
:104C300070D1174801880498401C81426AD11548F8
:104C40000088092866D100200CF050FE002108469B
:104C50000CF0C6FEAFF68C0240210A48049B0AF015
:104C6000F1FB0123084806C806480CF065FF002147
:104C700037200DF011F8049827284CE0E03400208C
:104C8000902B01083E3D0020200000200A03002058
:104C90000E0300200C030020CDE8E6EDFFFF20E02E
:104CA000E2E0F0E8E9EDE0FF20F3F1F2E0E2EAE033
:104CB00020F0E5E3E8F1F2F0E02000003503002009
:104CC000341A0020C2E5F0F5EDFFFF20EFF0E5E437
:104CD000F3EFF0E5E4E8F2E5EBFCEDE0FF20F3F1C3
:104CE000F2E0E2EAE020F0E5E3E8F1F2F0E02000B3
:104CF000C2E5F0F5EDFFFF20E0E2E0F0E8E9EDE0ED
:104D0000FF20F3F1F2E0E2EAE020F0E5E3E8F1F27F
:104D1000F0E020006AE003D000213C200CF0F7FF17
:104D200026213A200DF02FF82B213A200CF078FFA5
:104D30000F2100200CF054FE1722FEA106A8FBF75D
:104D400006FB172106A8049A0CF030FF2021002052
:104D50000CF046FEFD48007801282ED1049800EBA7
:104D60008001FB4800EBC1000C3003900BF0EEFA21
:104D7000049800EB8000F64901EBC00090ED030AB7
:104D80008DED030A05A89DED030A0BF0A6FABDF808
:104D9000140001B2049800EB800080009630ED4AC8
:104DA00022F81010BDF8160001B2049800EB800044
:104DB0008000973022F8101018E0049800EB800073
:104DC000E34901EBC000C0680190FBF76EFCCDE940
:104DD0000201E14ACDE900014021E0480AF032FB3E
:104DE0000123DF4806C8DD480CF0A6FEDD48008838
:104DF000032874D1DC4801880498401C81426ED19C
:104E0000DA4800880A286AD100200CF06FFD0021E2
:104E100008460CF0E5FDAFF64C224021CF48049B3C
:104E20000AF010FB0123CE4806C8CC480CF084FEE3
:104E3000002137200CF030FF0498272803D00021F0
:104E40003C200CF064FF26213A200CF09CFF2B2123
:104E50003A200CF0E5FE0F2100200CF0C1FD1722D6
:104E6000C3A106A8FBF773FA172106A8049A0CF051
:104E70009DFE202100200CF0B3FDB44800780128ED
:104E80002ED1049800EB8001B14800EBC100103036
:104E900003900BF05BFA049800EB8000AC4901EB47
:104EA000C00090ED040A8DED030A05A89DED030AEC
:104EB0000BF013FABDF8140001B2049800EB800067
:104EC00080009830A34A22F81010BDF8160001B2F5
:104ED000049800EB80008000993022F8101018E050
:104EE000049800EB80009A4901EBC0000069019032
:104EF000FBF7DBFBCDE90201974ACDE90001402138
:104F000096480AF09FFA0123954806C893480CF08A
:104F100013FE94480088032867D1934801880498B9
:104F2000401C814261D1914800880B285DD100204E
:104F30000CF0DCFC002108460CF052FDAFF6743298
:104F400040218648049B0AF07DFA0123844806C864
:104F500082480CF0F1FD002137200CF09DFE0498F2
:104F6000272803D000213C200CF0D1FE26213A2036
:104F70000CF009FF2B213A200CF052FE0F210020EB
:104F80000CF02EFD142280A106A8FBF7E0F91421F5
:104F900006A8049A0CF00AFE202100200CF020FD47
:104FA0006A48007801280BD1049800EB800080004B
:104FB0009430684901EB400003900BF07FFB14E054
:104FC000049800EB8000624901EBC0008079034641
:104FD000AFF604424021039060480AF033FA0123FF
:104FE0005F4806C85D480CF0A7FD5E4800880328AE
:104FF00063D15D4801880498401C81425DD15B48C3
:1050000000880C2859D100200CF070FC00210846C3
:105010000CF0E6FCAFF64C4240215048049B0AF0ED
:1050200011FA01234E4806C84C480CF085FD0021BA
:1050300037200CF031FE0498272803D000213C20B3
:105040000CF065FE26213A200CF09DFE0F21002079
:105050000CF0C6FC112252A106A8FBF778F9112129
:1050600006A8049A0CF0A2FD202100200CF0B8FC48
:105070003648007801280BD1049800EB80008000AE
:105080009530344901EB400003900BF017FB14E01E
:10509000049800EB80002E4901EBC0000089034614
:1050A000AFF6D442402103902C480AF0CBF90123FB
:1050B0002B4806C829480CF03FFD0498401CC0B29C
:1050C000049004982828FFF681A826480088032821
:1050D00074D125480088012870D13648007801280D
:1050E0006CD100200CF002FC002108460CF078FC8A
:1050F00001231B4806C8AFF698500CF01DFD002197
:1051000032200CF0C9FD002137200CF000FE0021F8
:105110003C200CF0FCFD0F2100200CF061FC18225B
:10512000254906A8FBF713F9182106A80CF01AFD6B
:10513000202144E0CAEEFDF4F4E8F6E8E5EDF220C3
:10514000C020F0E5E3E8F1F2F0E0200035030020B4
:10515000E0340020341A0020A83901083E3D002028
:10516000200000200A0300200E0300200C03002072
:10517000CAEEFDF4F4E8F6E8E5EDF220C220F0E531
:10518000E3E8F1F2F0E02000D2E8EF20E4E0EDED1A
:10519000FBF520F0E5E3E8F1F2F0E020000000008C
:1051A000D2E0E9ECE0F3F220F0E5E3E8F1F2F0E040
:1051B000200000005C0300201435010819E00020E5
:1051C0000CF00EFCFD480078012803D1FC480BF0E0
:1051D00075FA0EE0FA48B0F90030AFF60C624021E3
:1051E000F8480AF02FF90123F74806C8F5480CF0F3
:1051F000A3FCF6480088032846D1F5480088022819
:1052000042D1F448007801283ED100200CF06EFB1A
:10521000002108460CF0E4FB0123EB4806C8AFF67A
:10522000C0600CF089FC002132200CF035FD0F210C
:1052300000200CF0D5FB0822E7A106A8FBF787F8B1
:10524000082106A80CF08EFC202100200CF0C8FBE1
:10525000DA480078012804D1E249E3480BF092F9DA
:1052600012E0E1480068FBF720FACDE90201DFA275
:10527000CDE900014021D3480AF0E4F80123D248E7
:1052800006C8D0480CF058FCD0480088042878D1D3
:10529000CF480088F0BB00200CF028FB0021084616
:1052A0000CF09EFB0123D34806C8D3A00CF044FCAD
:1052B000C848007860B900213C200CF028FD262168
:1052C0003A200CF060FD2B213A200CF0A9FC0FE0F5
:1052D000002137200CF01BFD00213C200CF017FDB5
:1052E00026213A200CF04FFD2B213A200CF098FC9F
:1052F0000F2100200CF074FB0123BE4806C8C0A09B
:105300000CF01AFC0123B04806C8BFA00CF014FC36
:10531000102100E035E02A200CF062FBBB48037846
:10532000AFF654724021A7480AF08CF80123A64832
:1053300006C8A4480CF000FC202100200CF050FB13
:105340000123AC4806C8B2A00CF0F6FB01239E482E
:1053500006C8ADA00CF0F0FB21212A200CF040FB88
:10536000AD480378AFF69872402196480AF06AF883
:105370000123954806C893480CF0DEFB0020A7499E
:10538000087092480088042876D191480088012846
:1053900072D190480078E8BB00200CF0A7FA0021F9
:1053A00008460CF01DFB0123924806C892A00CF0A1
:1053B000C3FB002137200CF06FFC00213C200CF0D7
:1053C000A6FC97480088012825D10F2100200CF069
:1053D00007FB102293A106A8FAF7B9FF102106A82F
:1053E0000CF0C0FB0123784806C893A00CF0A4FB86
:1053F000202100200CF0F4FA9048038890A240216C
:1054000070480AF01FF801236F4806C86D480CF079
:1054100093FB2BE030E082480088022826D10F2140
:1054200000200CF0DDFA0D2287A106A8FAF78FFF05
:105430000D2106A80CF096FB0123634806C886A040
:105440000CF07AFB202100200CF0CAFA8448008876
:1054500080B203467AA2402104905A4809F0F2FF34
:105460000123594806C857480CF066FB00205349F1
:10547000087001206949087054480088042876D1D2
:1054800053480088022872D152480078C8BB0020D7
:105490000CF02CFA002108460CF0A2FA0123554822
:1054A00006C855A00CF048FB002137200CF0F4FB97
:1054B0005B480088012825D10F2100200CF090FACC
:1054C000102258A106A8FAF742FF102106A80CF0F6
:1054D00049FB01233C4806C862A00CF02DFB2021AB
:1054E00000200CF07DFA6048038855A24021354821
:1054F00009F0A8FF0123344806C832480CF01CFB11
:105500002FE034E04648008802282AD10F210020ED
:105510000CF066FA0D224CA106A8FAF718FF0D212F
:1055200006A80CF01FFB0123274806C84FA00CF06B
:1055300003FB202100200CF053FA49480168007950
:10554000020442EA114080B203463DA24021049089
:105550001C4809F077FF01231B4806C819480CF0C6
:10556000EBFA00201549087001202C4908701748F3
:10557000008804287ED11648008801287AD1154871
:105580000078012876D100200CF0B0F900210846FF
:105590000CF026FA0123174806C817A00CF0CCFA25
:1055A000002132200CF078FB002137200CF0AFFBFB
:1055B00000213C200CF0ABFB0F215CE03503002008
:1055C0005A0300203E3D0020200000200A03002056
:1055D0000E0300205C030020D1EAEEF0EEF1F2FCB5
:1055E000000000007CAA020818030020252E30309D
:1055F0006600000018000020D0E5EBE50000000088
:10560000CFF0E5E4000000002E000000A30200201F
:10561000C0E2E0F000000000A2020020B40300207D
:1056200028030020C0F2F2F0E8E1F3F220F1EEE10D
:10563000FBF2E8FF00000000203100001E03002004
:105640003078255800000000C1E8F220F1EEF1F2B8
:10565000EEFFEDE8FF00000028302D313529000075
:105660008802002020320000780200202831362DE8
:105670003331290030E000200CF0B2F90123F94861
:1056800006C8F9A00CF058FAC8200BF0AEF920219A
:1056900000200CF0A5F9F6480078012809D1F5485A
:1056A0000BF00CF80020F44908700120F349087051
:1056B00012E0F0480388F2A24021F24809F0C2FE4D
:1056C0000123F14806C8EF480CF036FA0120EA49F8
:1056D00008700020E9490870EC480088042853D17C
:1056E000EB48008802284FD1EA48007801284BD1C6
:1056F00000200CF0FBF8002108460CF071F90123A2
:10570000D84806C8AFF210100CF016FA002132206B
:105710000CF0C2FA002137200CF0F9FA00213C20ED
:105720000CF0F5FA0F2100200CF05AF91822DAA13A
:1057300006A8FAF70CFE182106A80CF013FA20218F
:1057400000200CF04DF9CA480078012809D1D94849
:105750000AF0B4FF0020C84908700120C74908704A
:1057600012E0D4480388C6A24021C64809F06AFE68
:105770000123C54806C8C3480CF0DEF90120BE4924
:1057800008700020BD490870C0480088042853D123
:10579000BF48008803284FD1BE48007801284BD16C
:1057A00000200CF0A3F8002108460CF019F90123A1
:1057B000AC4806C8AFF2C0100CF0BEF90021322090
:1057C0000CF06AFA002137200CF0A1FA00213C20ED
:1057D0000CF09DFA0F2100200CF002F92122B6A155
:1057E00006A8FAF7B4FD212106A80CF0BBF9202188
:1057F00000200CF0F5F89E480078012809D1B74840
:105800000AF05CFF00209C49087001209B49087049
:1058100012E0B24803889AA240219A4809F012FE89
:105820000123994806C897480CF086F9012092494F
:1058300008700020914908709448008804284BD1D2
:1058400093480088042847D192480078012843D122
:1058500000200CF04BF8002108460CF0C1F80123A1
:10586000804806C8AFF270200CF066F900213220A3
:105870000CF012FA0F2100200CF0B2F8092298A1C6
:1058800006A8FAF764FD092106A80CF06BF920219F
:1058900000200CF0A5F876480078012809D193483B
:1058A0000AF00CFF00207449087001207349087049
:1058B00012E08E48038872A24021724809F0C2FDAE
:1058C0000123714806C86F480CF036F901206A4977
:1058D00008700020694908706C480088052825D1A7
:1058E0006B48008810BB00200CF000F8002108462F
:1058F0000CF076F800213C200CF009FA26213A2021
:105900000CF041FA2B213A200CF08AF90F210020EB
:105910000CF066F8092276A106A8FAF718FD09210D
:1059200006A80CF01FF9002053490870574800885A
:10593000052851D15648008801284DD100200BF090
:10594000D5FF002108460CF04BF80123454806C856
:105950006AA00CF0F1F801234B4806C8AFF25830AA
:105960000CF0EAF8002137200CF096F900213C20D9
:105970000CF0CDF90F2100200CF032F8012339484A
:1059800006C860A00CF0D8F8C8200BF02EF8202133
:1059900000200CF025F836480078012809D15B4832
:1059A0000AF08CFE00203449087001203349087049
:1059B00012E05648038832A24021324809F042FDE5
:1059C0000123314806C82F480CF0B6F801202A49B7
:1059D00008700020294908702C48008805283FD10C
:1059E0002B48008802283BD100200BF07FFF0021CC
:1059F00008460BF0F5FF01231A4806C83FA00CF03B
:105A00009BF80123204806C8AFF204400CF094F83C
:105A1000002137200CF040F900213C200CF077F9F0
:105A20000F2100200BF0DCFF0822AFF2544106A842
:105A3000FAF78DFC082106A80CF094F8202100202C
:105A40000BF0CEFF0A480078012865D13049314873
:105A50000AF098FD002008490870012007490870E5
:105A600074E059E018000020D0E5E6E8EC00000002
:105A700035030020A4020020B4030020B503002059
:105A8000256400003E3D0020200000200A03002085
:105A90000E0300205C030020C7E0E4E5F0E6EAE046
:105AA00020EDE020F1F0E0E1E0F2FBE2E0EDE8E5FE
:105AB00000000000A8020020C7E0E4E5F0E6EAE00C
:105AC00020EDE020E2FBF5EEE420E8E720F1F0E055
:105AD000E1E0F2FBE2E0EDE8FF000000AA020020B6
