:020000040801F1
:100000002089012081020108A1A10108298A010893
:10001000719D0108090F0108B5C301080000000027
:10002000000000000000000000000000C101010805
:10003000B5180108000000001D020108E7A9010829
:100040009B0201089B0201089B0201089B02010818
:100050009B0201089B0201089B0201089B02010808
:100060009B0201089B0201089B0201083D12010846
:100070004912010855120108611201086D120108A8
:1000800079120108851201089B0201089B020108F0
:100090009B0201089B0201089B0201089B020108C8
:1000A0009B02010859AE01089B0201089B0201084E
:1000B0009B0201089B0201089B0201089B020108A8
:1000C0009B0201089B0201089B0201089B02010898
:1000D0009B020108D1C001082DC1010889C1010896
:1000E0009B0201089B0201089B0201089B02010878
:1000F0009B0201089B0201089B0201089B02010868
:100100009B0201089B0201089B0201089B02010857
:100110009B02010839BB010865AE010881AE0108E8
:10012000911201089D1201089B0201089B0201081F
:100130009B0201089B0201089B0201089B02010827
:100140009B0201089B0201089B0201089B02010817
:100150009B0201089B0201089B0201089B02010807
:100160009B0201089B0201089B0201089B020108F7
:100170009B0201089B0201089B020108000000008D
:100180009B0201089B0201089B0201089B020108D7
:100190009B0201089B0201089B0201089B020108C7
:1001A0009B0201089B0201089B020108DFF80CD0AA
:1001B00000F0E0FB00480047A1D60108208901209B
:1001C0002C4B19680868B0E8F04F80F30988BFF33A
:1001D0006F8F4FF0000080F311887047000000001F
:1001E00008480068006880F308884FF0000080F33A
:1001F000148862B661B6BFF34F8FBFF36F8F00DF15
:1002000000BF00BF08ED00E0DFF80C00016841F41A
:1002100070010160704700BF88ED00E0EFF30980D6
:10022000BFF36F8F134B1A681EF0100F08BF20ED3D
:10023000108A20E9F04F106009B44FF0500080F3AD
:100240001188BFF34F8FBFF36F8F0EF07FFD4FF01C
:10025000000080F3118809BC19680868B0E8F04F05
:100260001EF0100F08BFB0EC108A80F30988BFF3AE
:100270006F8F704794040020EFF3058070470000F3
:100280000648804706480047FEE7FEE7FEE7FEE730
:10029000FEE7FEE7FEE7FEE7FEE7FEE7A9AA0108A4
:1002A000AD0101082DE9F05F0546002092469B460E
:1002B00088460646814640241BE02846414647467C
:1002C000224600F053FA53465A46C01A914110D3C1
:1002D00011461846224600F03AFA2D1A67EB01083B
:1002E0004F4622460120002100F031FA17EB0009A9
:1002F0004E41201EA4F10104DFDC484631462A4667
:100300004346BDE8F09F40EA01039B0703D009E0A4
:1003100008C9121F08C0042AFAD203E011F8013BF1
:1003200000F8013B521EF9D27047D2B201E000F84A
:10033000012B491EFBD270470022F6E710B5134689
:100340000A4604461946FFF7F0FF204610BD10B5D7
:10035000044604E00B7800F8013B03B1491C521E2F
:10036000F8D2204610BD2DE9FE4F804681EA0300F9
:10037000C00F0C46009021F0004123F00045B8EB7F
:100380000200A94105D24046214690461C460B4634
:10039000024623F00040104347D0270DC7F30A0060
:1003A000C3F30A510290401A019040286BDAC3F35C
:1003B000130040F4801B0098924620B10023D2EB3A
:1003C000030A63EB0B0B01985946C0F140025046FB
:1003D00000F0BDF906460D4650465946019A00F018
:1003E000D5F910EB08006141002487EA115284EA34
:1003F000E7731A4340D0009A62B3019A012A4FEA88
:10040000075215DC001B61EB02014FF0004202EACB
:100410000752CDE90042001C41F5801132462B46BF
:1004200000F02AFA03B0BDE8F08F40462146F9E714
:10043000001B61EB0201001C41F5801300185B41B9
:100440002018A2F5001747EB030140EAD570B61952
:100450006D4111E06D084FEA360645EAC0754FEA76
:100460000752001B61EB0201001C41F58011490895
:100470004FEA30000019514132462B4603B0BDE827
:10048000F04F00F0EAB90098012240000023D0EBC1
:10049000020263EBE073009821464FEAE074B8EB88
:1004A000000061EB0401E9E783F000435BE781F0C2
:1004B000004158E72DE9FE4F81EA030404F00044AF
:1004C00021F0004100944FF0000B23F0004350EA6C
:1004D00001045ED052EA03045BD0C3F30A54C1F3B3
:1004E0000A552C44A4F2F3340194A0FB0254C1F346
:1004F000130141F48011C3F3130343F4801301FB90
:10050000024400FB034E840A970A44EA815447EAF6
:100510008357A4FB076802958D0A05FB07854FEA00
:10052000932C04FB0C542705029D4FEA065847EA1A
:100530001637B5EB08056EEB070C870E920E47EAEF
:10054000811742EA8312A7FB0201B6EB0B0164EBB1
:1005500000042B0D43EA0C335E1844EB1C50DA46C2
:100560005146E7FB0201C5F313044FEA0B3343EA9C
:1005700014534FEA0432019C43EA0603A4F10C042D
:100580000294009CCDE900B400F076F903B0BDE818
:10059000F08F00200146F9E72DE9F04D81EA0304D0
:1005A00004F0004B21F0004514464FF0000A23F000
:1005B000004150EA050220D054EA01021DD0C5F3E3
:1005C0000A570246C5F31303C1F31300C1F30A56D9
:1005D00040F4801543F48013A7EB0608101BD646A1
:1005E00008F2FD3873EB050002D308F1010801E0C1
:1005F00092185B41B8F1000F03DA00200146BDE814
:10060000F08D00204FF48011064684460EE0171B43
:1006100073EB050705D3121B63EB050306434CEA96
:10062000010C49084FEA300092185B4150EA01077B
:10063000EDD152EA030012D082EA040083EA0501F8
:10064000084305D0101BAB4106D20122002306E06F
:1006500000224FF0004302E06FF0010253101AEB4A
:1006600006004CEB085110EB0A0041EB0B01BDE812
:10067000F04D00F0F2B830B404469623080021464D
:1006800004D0B62330BC002200F09BB820460021E5
:10069000F8E70EB540F2334102910021CDE9001197
:1006A0000A460B4600F0E8F803B000BD0EB540F274
:1006B000334202920022CDE90022134600F0DCF81A
:1006C00003B000BD00F0004230F000400AD0C10D80
:1006D00001F56071C0F3160042EA0151C2084007FB
:1006E0001143704700200146704701F0004330B4C9
:1006F00021F0004150EA010206D00A0DA2F5607215
:10070000C1F31301002A02DC30BC00207047440F03
:1007100044EAC104C100E01830BC00EBC25000F054
:1007200047B830B50B46014600202022012409E0DD
:1007300021FA02F59D4205D303FA02F5491B04FA9A
:1007400002F52844151EA2F10102F1DC30BD202A79
:1007500004DB203A00FA02F1002070479140C2F118
:10076000200320FA03F3194390407047202A04DB4A
:10077000203A21FA02F00021704721FA02F3D0401A
:10078000C2F120029140084319467047202A06DB37
:10079000CB17203A41FA02F043EAE07306E041FA4F
:1007A00002F3D040C2F1200291400843194670473D
:1007B0000029A8BF7047401C490008BF20F0010075
:1007C000704710B4B0FA80FC00FA0CF050EA010453
:1007D00004BF10BC704749B1CCF1200421FA04F4E5
:1007E00011FA0CF118BF012121430843A3EB0C01BE
:1007F000CB1D4FEA00614FEA102042BF002010BC21
:10080000704700EBC35010440029A4BF10BC7047D0
:10081000401C490008BF20F0010010BC704710B513
:1008200041000CD0C0F3C751962908DC7E2909DCB1
:1008300006DB410204D000F0004040F07E5010BDC5
:10084000002010BDC1F19604C4F1200100FA01F1AD
:10085000E040FFF7ADFFA04010BD10B5141E73F1CE
:10086000000408DA401C41F1000192185B411A4370
:1008700001D120F0010010BD2DE9F04D92469B46BC
:1008800011B1B1FA81F202E0B0FA80F22032904662
:10089000FFF75DFF04460F4640EA0A0041EA0B01FC
:1008A00053465A46084313D0114653EA010019D063
:1008B000C8F140025046FFF759FF05460E46504624
:1008C00059464246FFF743FF084305D0012004E0A4
:1008D00020463946BDE8F08D0020054346EAE07623
:1008E0002C4337430A986305E40AA0EB0800002272
:1008F000FD0A44EA47540A3002D500200146E9E7E0
:10090000010510196941DDE9084500196941BDE893
:10091000F04DA2E7C1F30A52C1F3130140F2FF33D5
:1009200041F480119A4202DA00200146704740F2F9
:1009300033439A42A2F2334202DC5242FFF716BF1F
:10094000FFF705BF30B5041E71F1000404DB4FF062
:100950000044404264EB0101141E73F1000405DB06
:100960001C464FF00043524263EB0403994208BF18
:10097000904230BD064C074D06E0E06840F00103B0
:1009800094E8070098471034AC42F6D3FFF712FC06
:10099000B4180208D418020870B58C1810F8015B5E
:1009A00015F0070301D110F8013B2A1106D110F808
:1009B000012B03E010F8016B01F8016B5B1EF9D10C
:1009C0002B0705D40023521E0DD401F8013BFAE792
:1009D00010F8013BCB1A921C03E013F8015B01F8FD
:1009E000015B521EF9D5A142D8D3002070BD000092
:1009F0002DE9F041044600270D46006808F09AF8FA
:100A00000646206808F08EF8304359D02068C16847
:100A10002C4E890105D5617E012902D1217E012953
:100A20000BD0022D1DD0206808F084F8B8B12068E2
:100A30008168C1F3400169B111E00125224902E05A
:100A40008F422ED27F1C0268D2435206F8D4402136
:100A50000160E8E78168314041F010018160012DBB
:100A600011D0206808F05EF848B120688168C1F3B1
:100A7000400121B98168314041F020018160022D9F
:100A800008D0032D04D0042506F002F9064613E031
:100A90000C25F9E70825F7E706F0FAF8801B05288A
:100AA0000AD9A06D40F01000A065E06D40F0010093
:100AB000E0650120BDE8F081206880682842EBD124
:100AC0000020F7E7C0FFFF7F000040A310B5846A55
:100AD000A16D11F0500F06D0A16DC90625D5204695
:100AE00005F0CEFA10BDA06D40F40070A06520683E
:100AF0000168090716D508F025F878B12068C068A4
:100B0000800400280ADBA06D20F48070A065A06D31
:100B1000C00403D4A06D40F00100A065204605F09C
:100B20006BFA10BDC0688007EBE7216D496BBDE82B
:100B30001040084710B5806A816D41F04001816521
:100B4000C16D41F00401C16505F09AFA10BD10B500
:100B5000806A05F073FA10BD70B5044600688168BC
:100B60008268C1F3400112F0010F24D019BB8168E3
:100B700001F00D01012910D18168104A1140891C32
:100B8000816021680320086006F082F805460EE0C7
:100B900006F07EF8401B022809D9A06D40F0100035
:100BA000A065E06D40F00100E065012070BD2068A7
:100BB0008068C007ECD1002070BD0000C0FFFF7F3F
:100BC00070B504460068816811F0010F28D1816872
:100BD000144A114215D18168D5432940491C8160CE
:100BE00006F056F8064616E0816811F0010F03D1B1
:100BF00081682940491C816006F04AF8801B022860
:100C000009D9A06D40F01000A065E06D40F0010032
:100C1000E065012070BD20680168C943C907E3D1C0
:100C2000002070BD3F0000802DED048B82B00020BD
:100C3000ADF800009FED168B9FED179B184C4FF4FD
:100C40007A75184804F0B6FE6421164804F03AFE9E
:100C50000121144804F01EFEADF80000114804F014
:100C60001FFFBDF80000FFF714FD53EC182BFFF732
:100C700021FC53EC192BFFF71DFCFFF736FD00EEAE
:100C8000100A284684ED070A0CF072FDD9E700002F
:100C9000B4D934E70C684A3F00000000000024404B
:100CA00058010020580600208AB09FED8E0A8F4C14
:100CB0008DED030A8DED010A8DED040A8DED050A17
:100CC0008DED060ADFF820928DED000A4FF0000A44
:100CD000A4F180054FF0010B04F180064FF0FF31C5
:100CE000F06D0EF0BFFB95F82C00012802D0022811
:100CF00028D04FE07E4A002001464FF4007802F5EC
:100D000040634F4632F810C000EE10CA07EB810C6A
:100D1000B8EE400A8CED000A02EB400C801CBCF8D7
:100D200002C080B200EE10CA03EB810C491CB8EE81
:100D3000400A89B240458CED000AE3D36089401C2B
:100D4000608127E06A4A4FF40070002102F5406C90
:100D50004FF480684FEA090332F8107000EE107A01
:100D600003EB8107B8EE400A87ED000A02EB40076B
:100D7000801C7F8880B200EE107A0CEB8107491C42
:100D8000B8EE400A89B2404587ED000AE4D3A08955
:100D9000401CA0814FF4807707AA394652480CF0D6
:100DA000E7F9514A3B46114601F62C100CF08EF83B
:100DB0000020504B01464A4602EB800C001D9CED82
:100DC000000A03EB810C491C80B28CED000A89B249
:100DD000FF28F1D9474A4023114601F580700CF0F5
:100DE00075F8444A4023114601F5AC700CF06EF8DA
:100DF00003AA40213F480CF0BBF901AA39463E48FE
:100E00000CF0B6F902AB06AA40213A480CF0EEF815
:100E100002AB04AA394638480CF0E8F802AB6A463F
:100E2000402134480CF05AF902AB05AA3946324841
:100E30000CF054F9314F00231A4603A9F86D0EF057
:100E400077F900231A4601A9B86E0EF071F994EDF6
:100E5000100ADDED061AD4ED0F0AB0EE401A803705
:100E600001EEA01A00231A4604A984ED111A9DED83
:100E7000001A01EE200A84ED120A78680EF058F983
:100E800000231A4605A9B8680EF052F91C490798C4
:100E9000884202DD85F802B001E085F802A094EDF9
:100EA0001D0ADDED010A94ED1C1A164900EE810AB7
:100EB00010EE100A884202DB85F804A001E085F8F4
:100EC00004B00D480DF06EFC00231A461946306E32
:100ED0000EF02EF900231A461946B06E0EF028F9CE
:100EE000FCE6000000000000200F0020D8000020D9
:100EF000200700202017002020130020D801002008
:100F000000007A45CDCC6C40FEE700004C4FDFF886
:100F1000348101264C4C002594F82B0058BB4FF42B
:100F200000614FF0904005F0A5FE0028E07C0DD058
:100F3000052807D9E67525766576A576A4F8685064
:100F4000E574A57794F82B0018B114E0401CE07408
:100F5000F8E74FF48071384605F08CFE0028207DBC
:100F60000DD0052807D9E57526766576A576A4F80F
:100F700068502575A57794F82A0018B12CE0401C1C
:100F80002075F8E70821384605F074FE0028607DDA
:100F90000DD0052807D9E57525766676A576A4F8DF
:100FA00068506575A57794F82A0018B114E0401CC4
:100FB0006075F8E74FF40071384605F05BFE0028D5
:100FC000A07D17D0052807D9E57525766576A67624
:100FD000A4F86850A575A5778021404605F04AFE23
:100FE0000028B4F8680008D0C01E612818D2207FFD
:100FF00098B115E0401CA075EEE7401C80B2A4F843
:101000006800642818D394F82900A8B9E5752576F6
:101010006576A576E57626770CE094F8290020B170
:1010200094F82900012805D006E0E5752576657657
:10103000A576E676A4F868500A200CF099FB6BE7D9
:101040000004004800080048580000202DED088BDF
:1010500084B000209FED6D0A00908DED000AADF880
:1010600004006B4E9FED6B9B9FED6CAB6D4DA5F13E
:101070008004DFED6D8A5E2165480CF0DAF8B6F881
:10108000C200B0EE408AADF80400B6F8B20038B93C
:101090003E215F480CF0CDF885ED040A84ED170A77
:1010A000B6F9B200012806D0022814D0032817D0C0
:1010B000042852D037E018EE100AFFF703FB41EC8A
:1010C000100B51EC190B53EC102BFFF765FA41ECA8
:1010D0001B0B606B1AE094ED060A84ED170A22E000
:1010E00018EE100AFFF7EEFA41EC100B51EC190B59
:1010F00053EC102BFFF750FA41EC1B0BBDF804002A
:101100004A4900EB800001EBC0004069FFF7DAFAC2
:1011100053EC1B2BFFF7CEF953EC1A2BFFF723F9F7
:10112000FFF7E3FAE06594ED170A95ED051A002242
:1011300060EE280A95ED060A11463D4800EE810A48
:10114000BCEEC00A8DED000A10EE103A05F03EFA32
:101150005FF064000CF00CFB8DE718EE100AFFF74F
:10116000B1FA41EC100B51EC190B53EC102BFFF7BB
:1011700013FA9FED301B53EC112BFFF7F4F8FFF738
:10118000B4FA00EE100A002284ED170A60EE280A75
:1011900095ED051A95ED060A1146254800EE810ADF
:1011A000BCEEC00A8DED000A10EE103A05F00EFA02
:1011B00001200CF0DDFA18EE100AFFF783FA41EC7B
:1011C000100B51EC190B53EC102BFFF7E5F953EC16
:1011D0001A2BFFF7C8F8FFF788FA00EE100A002272
:1011E00084ED170A60EE280A95ED051A95ED060ABA
:1011F00011460F4800EE810ABCEEC00A8DED000AD0
:1012000010EE103A05F0E2F91320A3E70000000009
:10121000FC1800200000000000003040000000002A
:10122000000010405801002000004C43AC32002068
:10123000080700200000000000002440014805F0DD
:1012400042BA0000C0060020014805F03CBA000088
:10125000A4430020014805F036BA00005C4300209A
:10126000014805F030BA000084420020014805F032
:101270002ABA00003C420020014805F024BA0000D0
:10128000CC420020014805F01EBA000014430020A3
:10129000014805F018BA0000F4410020014805F0AB
:1012A00012BA0000AC41002030B590F8444004F080
:1012B0001C050124AC40056C6C60046863608368A5
:1012C000102B036803D099600068C26030BD9A603B
:1012D0000068C16030BD00002DED028B82B04FF080
:1012E000000B8DF804B09FEDFE8A8DED018ADFEDD5
:1012F000FD8ADFF8F4A3FD4FFB4C6846803C94ED7B
:10130000090A0BF08EFFBDF8000027F85C0BBDF852
:101310000200A4F1800527F85A0CA87827F8480C99
:10132000684694ED0C0A0BF07CFFBDF8000027F82E
:10133000300CBDF8020027F82E0C684694ED0D0A1B
:101340000BF06FFFBDF8000027F82C0CBDF8020071
:1013500027F82A0C684694ED0E0A0BF062FFBDF8E0
:10136000000027F8280CBDF8020027F8260C04F529
:1013700000708046006A98F8241027F8200C000CB2
:1013800040EA014027F81E0CB5F8460027F81C0C6F
:10139000684694ED060A0BF044FFBDF8000027F8FC
:1013A000140CBDF8020027F8120C28793880684622
:1013B000D14656469AED000A0BF033FFBDF8000007
:1013C0007882BDF80200B882684694ED080A0BF0F6
:1013D00028FFBDF800003883BDF80200788394ED43
:1013E000080AD4ED070A684630EE600A0BF019FFD0
:1013F000BDF80000B883BDF80200F8832088B884E7
:10140000B5F842003886B5F8440078866879F886E1
:10141000684696ED030A0BF004FFBDF8000038871C
:10142000BDF802007887684696ED020A0BF0F9FED7
:10143000BDF80000B887BDF80200F887D8E9062398
:10144000D8E904015C3F161A73EB010608D2801A32
:1014500061EB0301FFF70FF900EE100A684602E0A6
:101460006846B0EE480A0BF0DCFEBDF8000027F835
:101470009C0FBDF802007880B5F85600B880B5F82A
:101480005800F880287A3881E8797881B5F87200B8
:1014900027F8120FA8466846CA464E4699ED070A35
:1014A0000BF0BFFEBDF80000F882BDF802009049C5
:1014B0003883684691ED000A0BF0B3FEBDF80000DA
:1014C0003884BDF8020078846846B0EE680A0BF0F4
:1014D000A8FEBDF80000B884BDF80200F884E88FCB
:1014E000A7F842006846A14694ED110A1E370BF09A
:1014F00098FEBDF800003885BDF802007885684682
:1015000094ED130A0BF08DFEBDF80000B885BDF810
:101510000200F885684694ED150A0BF082FEBDF8CE
:1015200000003886BDF80200788694ED110AD4EDEB
:10153000120A684630EE600A0BF073FEBDF8000038
:10154000B886BDF80200F88694ED130AD4ED140AAB
:10155000684630EE600A0BF064FEBDF80000388784
:10156000BDF80200788794ED150AD4ED160A684696
:1015700030EE600A0BF055FEBDF80000B887BDF8EC
:101580000200F887684696ED0E0A0BF04AFEBDF899
:101590000000A7F84400BDF80200A7F84600E87F65
:1015A000CC3F002875D1002606EB860207EBC2046B
:1015B000504894F8201100EBC20500F8321094F85E
:1015C00022116970B4F82401A88094F82601A8704B
:1015D00094F82801A871B4F82A01288104F59670BE
:1015E00000210BF026FE85ED030A04F5987000211A
:1015F0000BF01FFE85ED040AA87920B1012810D058
:1016000004280ED020E095ED050A3B49BDEEC00A46
:1016100010EE100AA4F8340110EE100A21F826008A
:1016200017E095ED050A68460BF0FBFDBDF80020BC
:10163000A4F834213048BDF80210A4F8361120F87F
:10164000262000EB86004180A8790228DBD0032801
:10165000D9D004F59C7000210BF0EBFD85ED080A54
:1016600004F59E7000210BF0E4FD85ED090A04F5F8
:10167000A07000210BF0DDFD85ED060A04F5A270D7
:1016800000210BF0D6FD761CB6B285ED070A282E98
:101690008AD3B7F9D600A0F58071E13911D1A7F846
:1016A000D6B00DF0D7F911480DF002FC8DF804000A
:1016B0000CF03EFB0DF0EEF900200BF075FF03F08F
:1016C00013FEB7F9D61045F23340C1427BD1A7F8DB
:1016D000D6B068464C4699ED0F0A0BF0A2FD0DE01E
:1016E00000000000A470AD4058010020FC1800204C
:1016F00024000020AC3200205C200020BDF8000057
:10170000F883BDF802003884684694ED100A0BF0A7
:1017100088FDBDF800007884BDF80200B88498F810
:101720000310684600EE101AB8EE400A0BF079FD7F
:10173000BDF80000F884BDF802003885684694EDD5
:101740001C0A0BF06EFDBDF80000A7F86600BDF89E
:101750000200A7F86800684694ED1D0A0BF061FDD1
:10176000BDF80000A7F86A00BDF80200A7F86C00F9
:10177000684654469AED050A0BF053FDBDF800008B
:10178000A7F8B400BDF80200A7F8B600684694EDCB
:10179000060A0BF046FDBDF80000A7F8B800BDF83A
:1017A0000200A7F8BA000DF055F93E480DF080FB95
:1017B0008DF804000CF0BCFA0DF06CF900200BF071
:1017C000F3FE03F091FDB7F9D80042F24631C8426A
:1017D0000AD098F81F1019B9B8F87C00012803D076
:1017E0000A200BF0C5FF87E559463C46A7F8D8B05C
:1017F00000204FF46C720BE00F280BD0112809D099
:10180000332807D0352805D05A2803D05C2801D0CA
:1018100024F81010401C80B29042EDD30A2024F826
:10182000C80F44F6206060826846B3EE060A0BF0EB
:10183000F8FCBDF80000A082BDF80200E082684616
:10184000B3EE0A0A0BF0EDFCBDF800002083BDF8F2
:101850000200608368469FED140A0BF0E2FCBDF8BD
:10186000000024F8460CBDF8021024F8441C24F8AB
:10187000400C24F83E1C6080A1806420E08409486C
:101880000DF016FB8DF80400BFF34F8F0748016879
:10189000074A01F4E06111430160BFF34F8F00BFBD
:1018A000FDE70000FC1800200000E1470CED00E01F
:1018B0000400FA05704700001FB59FED270A274D69
:1018C0008DED010A8DED020A8DED000A4FF0FF3714
:1018D00005F18006A5F180043946686E0DF0C2FD61
:1018E0001F494022084607F0A1F81D4A402311462F
:1018F00001F5D8700BF0EAFA01AA402118480BF064
:1019000037FC03AB02AA402115480BF06FFB03AB79
:101910006A46402112480BF0E1FB00231A4601A958
:10192000706E0DF005FC94ED100ADDED021AD4ED99
:101930000F0AB0EE401A002301EEA01A1A4619460B
:1019400084ED151A9DED001A01EE200A84ED160AA9
:10195000286F0DF0EDFBBFE70000000058010020EC
:10196000201700208CB00122D1034FF0904005F0E9
:101970008AF90CF0B5FC01200CF0A2FC0BF032FC53
:101980000CF020FDDFF80C84B8F9DA0000EBD07021
:1019900040100BF0EDFE01200BF006FEDFF8F8938F
:1019A000DFF8F8B3FE4FFF4D4FF0000AA87C012886
:1019B00003D0687F012806D011E000200CF080FCE5
:1019C0000BF050FE56E095F82E00012818D00228A2
:1019D00016D0032814D0042812D005283DD0B5F81D
:1019E0006C0001284AD002284FD0032854D0042884
:1019F00057D0052858D006285FD007285DD058E07A
:101A000000200CF05DFC002108460CF0D5FC5C4683
:101A10000123D4E90012E4A00CF072FDD7E9001212
:101A20000123E3A00CF06CFD0F2100200CF0C4FC9E
:101A3000D4E900120123DFA00CF062FD1E2100207A
:101A40000CF0BAFCD4E900120123DCA00CF058FD24
:101A5000D7E900120123DAA00AE000200CF030FCE4
:101A60000F2100200CF0A8FCDBE900120123D5A017
:101A70000CF046FD0CF0A6FC03F010BB95F8251009
:101A800009B1062113E0092111E095F8251009B1EB
:101A900008210CE001210AE095F8251031B9282130
:101AA00005E095F8251009B1042100E0022185F830
:101AB0002210E97D012902D00FE00321F7E7B5F8F4
:101AC000701051B1EA7F42B9491EA5F8701085F82F
:101AD00017A085F81BA085F820A0297E012910D128
:101AE000B5F8701095F8222091420AD2EA7F42B9E7
:101AF000491CA5F8701085F818A085F81BA085F87A
:101B000020A0697E012927D130B3E97E21BBE97F7E
:101B100011BB03280CD1B5F8700048B1B5F86E00C0
:101B200010B1401EA5F86E00504685F819A011E0CE
:101B3000B5F86A0010B1401EA5F86A00A348B5F8D0
:101B40006A1030F81100A5F86C0085F819A050460D
:101B5000A5F870A085F82000A87E012801D1E87EB4
:101B600018B1E87E01282FD03AE0E87F58BBB5F8DD
:101B70006C0003280FD1B5F8700060B1B5F86E00A5
:101B8000282804D20C2802D2401CA5F86E0050462A
:101B900085F81AA015E0B5F87A10B5F86A00491E64
:101BA000884202DA401CA5F86A008848B5F86A1035
:101BB00030F81100A5F86C0085F81AA05046A5F879
:101BC00070A085F820000BE0B5F8700040B1E87F08
:101BD00020B10020E87785F81BA012E00120F9E78A
:101BE000287F01280DD1B5F8700050B995F825006F
:101BF00058B1002085F8250085F81CA0012085F843
:101C00002900E87D012802D00CE00120F2E7E87FFE
:101C1000012807D195F8200010B1401E85F820005A
:101C200085F817A0287E012809D1E87F012806D170
:101C300095F82000012085F8200085F818A0287F5D
:101C400001280DD1B5F8700050B10CF02FFA85F8CD
:101C50001CA085F81BA085F825A0012085F8290087
:101C6000B5F8740001287DD1B5F86C000128FAD1CF
:101C7000B5F87000002876D10CF022FB0021084650
:101C80000CF09AFBD7E90012012351A00CF038FCAC
:101C9000A878012805D095F8250088B3012842D0FE
:101CA00065E095F8210050B1D7E90012012349A061
:101CB0000CF026FC95F82500012814D017E00F2120
:101CC00000200CF079FB5C460123D4E9001242A00D
:101CD0000CF016FC1E2100200CF06EFBD4E9001263
:101CE00001233FA0E4E7002137200CF0EAFC0021AB
:101CF0003C200CF0E6FC2B213A200CF071FCB3E107
:101D0000FFE700200CF0DCFA002108460CF054FB41
:101D1000D7E9001201232EA00CF0F2FB00211C20B9
:101D20000CF04AFB14E000200CF0CAFA002108462F
:101D30000CF042FBD7E90012012325A00CF0E0FBD8
:101D400000211C200CF038FB002137200CF0B9FCDE
:101D500000213C200CF0B5FC2B213A200CF040FC7B
:101D60000F2101E006E287E100200CF025FBB5F829
:101D70007E00012853D112221BA102A8FEF7E7FA28
:101D8000122102A80CF0D2FB202100200CF014FB41
:101D9000044833E0FC180020AC3200200000002092
:101DA0000800002058000020CEE1EDEEE200000027
:101DB0002D000000EBE5EDE8E5000000CFCE0000CF
:101DC0002E2E2E00D3D1CFC5D8CDCE00F83A00208C
:101DD0004943500020000000CEC1D0DBC20000000B
:101DE000C4C0D2D7C8CAC000D1CAC720E2E8E1F057
:101DF000EEF3F1EAEEF0E5EDE8FF00008030006B75
:101E0000FEF760FCCDE90001FDA24021FE480AF08A
:101E100031FBD7E900120123FB480CF071FBB5F848
:101E20007E0002281DD11122F8A102A8FEF78FFA28
:101E3000112102A80CF07AFB202100200CF0BCFA42
:101E4000F748406BFEF73EFCCDE90001ECA24021D3
:101E5000ED480AF00FFBD7E900120123EA480CF025
:101E60004FFBB5F87E0003281DD11422EDA102A876
:101E7000FEF76DFA142102A80CF058FB2021002077
:101E80000CF09AFAE648806BFEF71CFCCDE90001E5
:101E9000DBA24021DC480AF0EDFAD7E90012012369
:101EA000D9480CF02DFBB5F87E0004281DD1142272
:101EB000E2A102A8FEF74BFA142102A80CF036FBAF
:101EC000202100200CF078FAD548406CFEF7FAFB90
:101ED000CDE90001CAA24021CB480AF0CBFAD7E9EC
:101EE00000120123C8480CF00BFBB5F87E00052852
:101EF0001DD11722D8A102A8FEF729FA172102A89E
:101F00000CF014FB202100200CF056FAC448C06CE1
:101F1000FEF7D8FBCDE90001B9A24021BA480AF08A
:101F2000A9FAD7E900120123B7480CF0E9FAB5F88D
:101F30007E0006281DD11422CDA102A8FEF707FAC3
:101F4000142102A80CF0F2FA202100200CF034FA3F
:101F5000B348406DFEF7B6FBCDE90001A8A24021D1
:101F6000A9480AF087FAD7E900120123A6480CF025
:101F7000C7FAB5F87E00072824D11422C3A102A80D
:101F8000FEF7E5F9142102A80CF0D0FA2021002078
:101F90000CF012FAA24890ED110AD0ED120A30EEC0
:101FA000600A10EE100AFEF78DFBCDE9000194A245
:101FB000402195480AF05EFAD7E9001201239248C1
:101FC0000CF09EFAB5F87E00082824D11422B5A1A1
:101FD00002A8FEF7BCF9142102A80CF0A7FA1E21F2
:101FE00000200CF0E9F98E4890ED130AD0ED140AA8
:101FF00030EE600A10EE100AFEF764FBCDE9000136
:102000007FA2402180480AF035FAD7E90012012367
:102010007D480CF075FAB5F87E00092824D1142209
:10202000A6A102A8FEF793F9142102A80CF07EFAEB
:10203000202100200CF0C0F9794890ED150AD0ED70
:10204000160A30EE600A10EE100AFEF73BFBCDE9EF
:1020500000016BA240216C480AF00CFAD7E900128B
:10206000012369480CF04CFA85F81FA085F82AA0D6
:10207000B5F86C0001287DD1B5F87000012848D171
:1020800095F82500002876D10CF01AF900210846B1
:102090000CF092F90123AFF2C820D7E900120CF03E
:1020A0002FFA00211C200CF087F9002137200CF0BA
:1020B000D0FA00213C200CF004FB0F2100200CF092
:1020C0007BF91222AFF2E02102A8FEF740F91221BB
:1020D00002A80CF02BFA202100200CF06DF95048DA
:1020E000006BFEF7EFFACDE900017AA240214648E5
:1020F0000AF0C0F9D7E90012012343480CF000FAB6
:1021000085F81FA0012085F82A00B5F86C00012889
:10211000B1D1B5F8700002284AD195F82500002801
:102120006AD10CF0CDF8002108460CF045F90123E6
:10213000AFF26430D7E900120CF0E2F900211C2064
:102140000CF03AF9002137200CF083FA00213C20F2
:102150000CF0B7FA0F2100200CF02EF911222BA160
:1021600002A8FEF7F4F8112102A80CF0DFF92021F3
:10217000002001E05BE1B4E20CF01EF92848406B5E
:10218000FEF7A0FACDE9000152A240211E480AF054
:1021900071F9D7E9001201231B480CF0B1F985F859
:1021A0001FA0012085F82A00B5F86C000128AFD1E6
:1021B000B5F87000032820D195F8250000281DD11E
:1021C0000CF07EF8002108460CF0F6F80123AFF27F
:1021D0000040D7E900120CF093F900211C200CF00C
:1021E000EBF8002137200CF034FA00213C200CF0F1
:1021F00068FA0F21002071E0CBE29AE022E30000B0
:10220000252E303166000000063B0020D1CAC720D1
:10221000E2E8E1F0EEF1EAEEF0EEF1F2E8000000C3
:10222000D8000020D1CAC720E2E8E1F0EEEFE5F0E7
:10223000E5ECE5F9E5EDE8FF00000000C0ECEFEBB0
:10224000E8F2F3E4E020E2E8E1F0EEF3F1EAEEF0A8
:10225000E5EDE8FF00000000C0ECEFEBE8F2F3E48E
:10226000E020E2E8E1F0EEF1EAEEF0EEF1F2E80073
:10227000C0ECEFEBE8F2F3E4E020E2E8E1F0EEEFAF
:10228000E5F0E5ECE5F9E5EDE8FF0000D0E0E7EC8E
:10229000E0F520E2E8E1F0EEF3F1EAEEF0E5EDE85A
:1022A000FF000000D0E0E7ECE0F520E2E8E1F0EE2E
:1022B000F1EAEEF0EEF1F2E800000000D0E0E7EC29
:1022C000E0F520E2E8E1F0EEEFE5F0E5ECE5F9E538
:1022D000EDE8FF00252E3033660000000CF06CF8AE
:1022E0001422AFF2C00102A8FEF731F8142102A8AF
:1022F0000CF01CF9202100200CF05EF8FE48806BE9
:10230000FEF7E0F9AFF23402CDE900014021FB48CD
:102310000AF0B0F8D7E900120123F8480CF0F0F801
:1023200085F81FA0012085F82A00B5F86C00012867
:102330007DD1B5F87000042845D195F82500002816
:1023400076D10BF0BDFF002108460CF035F80123D3
:10235000AFF28450D7E900120CF0D2F800213720F8
:102360000CF077F900213C200CF0ABF90F21002094
:102370000CF022F81822AFF23C1102A8FDF7E7FF9B
:10238000182102A80CF0D2F8202100200CF014F83B
:10239000D948406CFEF796F9AFF2C802CDE90001CA
:1023A0004021D6480AF066F8D7E900120123D34845
:1023B0000CF0A6F885F81FA0012085F82A00B5F8D2
:1023C0006C000128B4D1B5F87000052848D195F803
:1023D000250000287ED10BF073FF002108460BF08A
:1023E000EBFF0123AFF21860D7E900120CF088F878
:1023F000002137200CF02DF900213C200CF061F970
:102400000F2100200BF0D8FF1722AFF2B41102A861
:10241000FDF79DFF172102A80CF088F8202100206D
:102420000BF0CAFFB448C06CFEF74CF901E055E26E
:1024300060E2AFF26012CDE900014021AF480AF03E
:1024400019F8D7E900120123AC480CF059F885F8C7
:102450001FA0012085F82A00B5F86C000128B1D131
:10246000B5F87000062847D195F8250000287CD1E2
:102470000BF026FF002108460BF09EFF0123AFF270
:10248000B060D7E900120CF03BF8002137200CF0C7
:10249000E0F800213C200CF014F90F2100200BF093
:1024A0008BFF1A22AFF2382102A8FDF750FF1A2144
:1024B00002A80CF03BF8202100200BF07DFF8E4895
:1024C000406DFEF7FFF8AFF2F412CDE900014021B4
:1024D0008A4800E054E209F0CDFFD7E90012012359
:1024E00086480CF00DF885F81FA0012085F82A0019
:1024F000B5F86C000128B2D1B5F8700007284ED1AC
:1025000095F825000028AAD10BF0DAFE0021084634
:102510000BF052FF0123AFF24870D7E900120BF025
:10252000EFFF002137200CF094F800213C200CF044
:10253000C8F80F2100200BF03FFF1522AFF2B421A5
:1025400002A8FDF704FF152102A80BF0EFFF2021E0
:1025500000200BF031FF684890ED110AD0ED120A0F
:1025600030EE600A10EE100A00E059E2FEF7AAF819
:10257000AFF2A022CDE900014021604809F07AFFC6
:10258000D7E9001201235D480BF0BAFF85F81FA0C0
:10259000012085F82A00B5F86C000128ABD1B5F808
:1025A000700008284CD195F825000028A3D10BF025
:1025B00087FE002108460BF0FFFE0123AFF2F0700A
:1025C000D7E900120BF09CFF002137200CF041F8F6
:1025D00000213C200CF075F80F2100200BF0ECFEE0
:1025E0001422AFF2403102A8FDF7B1FE142102A877
:1025F0000BF09CFF202100200BF0DEFE3E4890ED0A
:10260000130AD0ED140A30EE600A10EE100AFEF73D
:1026100059F8AFF24032CDE900014021374809F0C6
:1026200029FFD7E90012012334480BF069FF85F830
:102630001FA0012085F82A00B5F86C000128ADD153
:10264000B5F87000092848D195F825000028A5D1D3
:102650000BF036FE002108460BF0AEFE0123AFF66C
:102660009000D7E900120BF04BFF002137200BF050
:10267000F0FF0F2100200BF09FFE1722AFF2C431B4
:1026800002A8FDF764FE172102A80BF04FFF2021DE
:1026900000200BF091FE184890ED150AD0ED160AB7
:1026A00030EE600A10EE100AFEF70CF8AFF2DC32E2
:1026B000CDE900014021114809F0DCFED7E9001204
:1026C00001230E480BF01CFF85F81FA0012085F8A0
:1026D0002A00B5F86C000128B1D1B5F870000128C6
:1026E00053D195F825000128A9D100200BF0E8FD71
:1026F0000021084604E00000D8000020063B00202E
:102700000BF05AFE0123AFF63810D7E900120BF098
:10271000F7FE002132200BF09CFF002137200BF048
:10272000D0FF00213C200BF0CCFF0F2100200BF04C
:1027300043FE1822FAA102A8FDF709FE182102A8FB
:102740000BF0F4FE202100200BF036FEE87F01287C
:1027500015D0B5F97E30F9A24021F94809F08AFE7A
:10276000D7E900120123F6480BF0CAFE012085F8D4
:102770002A0000BFB5F86C00012806D08EE1F148B0
:102780000AF0B2FE85F82AA0F4E7B5F87000022836
:1027900054D195F825000128F0D100200BF090FDD0
:1027A000002108460BF008FE0123AFF6DC10D7E944
:1027B00000120BF0A5FE002132200BF04AFF002191
:1027C00037200BF07EFF00213C200BF07AFF0F2119
:1027D00000200BF0F1FD1922DBA102A8FDF7B7FDE7
:1027E000192102A80BF0A2FE202100200BF0E4FD2D
:1027F000E87F01281BD0D348801C806AFDF762FF68
:10280000AFF20462CDE900014021CD4809F032FE6B
:10281000D7E900120123CA480BF072FE012085F8A7
:102820002A0000BFB5F86C00012807D036E1C54882
:102830002A300AF029FD85F82AA0F3E7B5F87000E0
:10284000032853D195F82500012897D100200BF0DB
:1028500037FD002108460BF0AFFD0123AFF69020B5
:10286000D7E900120BF04CFE002132200BF0F1FEF4
:10287000002137200BF025FF00213C200BF021FF29
:102880000F2100200BF098FD1122B6A102A8FDF740
:102890005EFD112102A80BF049FE202100200BF063
:1028A0008BFDE87F01281AD0A648801CC06AFDF77E
:1028B00009FFAFF2B462CDE900014021A04809F060
:1028C000D9FDD7E9001201239D480BF019FE012024
:1028D00085F82A00B5F86C00012807D0DEE0994899
:1028E0002E300AF0D1FC85F82AA0F3E7B5F8700085
:1028F000042841D195F8250001287DD100200BF056
:10290000DFFC002108460BF057FD0123AFF64030F5
:10291000D7E900120BF0F4FD002132200BF099FEF4
:10292000002137200BF0CDFE00213C200BF0C9FE2A
:102930000F2100200BF040FD0D228FA102A8FDF712
:1029400006FD0D2102A80BF0F1FD202100200BF067
:1029500033FDEB7879A24021794809F08BFDD7E966
:102960000012012376480BF0CBFD012085F82A00E8
:10297000B5F86C0001283FD1B5F8700005284BD19F
:1029800095F82500012837D100200BF099FC002193
:1029900008460BF011FD0123AFF6CC30D7E9001249
:1029A0000BF0AEFD002132200BF053FE002137204A
:1029B0000BF087FE00213C200BF083FE0F2100204E
:1029C0000BF0FAFC142270A102A8FDF7C0FC142140
:1029D00002A80BF0ABFD202100200BF0EDFC5948C4
:1029E000801CC06BFDF76EFECDE900016CA240219A
:1029F000534809F03FFD00E050E0D7E90012012301
:102A00004F480BF07DFD85F81FA0012085F82A00B6
:102A1000B5F86C00012841D1B5F8700006283DD109
:102A200095F82500012839D100200BF049FC002140
:102A300008460BF0C1FC0123AFF66C40D7E9001249
:102A40000BF05EFD002132200BF003FE0F21002071
:102A50000BF0B2FC142254A102A8FDF778FC14215B
:102A600002A80BF063FD202100200BF0A5FC3548E7
:102A7000801C006CFDF726FECDE9000148A2402134
:102A80002F4809F0F7FCD7E9001201232C480BF07E
:102A900037FD85F81FA0012085F82A00B5F87600DB
:102AA00001283CD1B5F86C000228FAD1B5F87000C5
:102AB00098BB00200BF004FC002108460BF07CFCC6
:102AC000D7E9001201233EA00BF01AFD2879012856
:102AD00003D1B5F8760001280FD095F8250018B17C
:102AE000002137200BF0EDFD00213C200BF0E9FD2B
:102AF000B5F87400012867D097E095F8210068B117
:102B00000123AFF63050D7E9001200BF0BF0F8FCFC
:102B100095F8250001286FD072E0B3E055E02FE171
:102B2000CFE0F0E0ECE5F2F020EDE020E3EBE0E2D6
:102B3000EDEEEC20ECE5EDFE000000002564000069
:102B4000063B0020D6000020CFF0E5E4F3EFF0E5EF
:102B5000E4E8F2E5EBFCEDE0FF20F3F1F2E0E2EA7D
:102B6000E0000000C0E2E0F0E8E9EDE0FF20F3F172
:102B7000F2E0E2EAE0000000D0E5E6E8EC20F4E86C
:102B8000EBFCF2F0E0000000CAEEFDF4F4E8F6E839
:102B9000E5EDF220F3F1E8EBE5EDE8FF00000000E1
:102BA000252E303566000000CAEEFDF4F4E8F6E8A4
:102BB000E5EDF220F1ECE5F9E5EDE8FF00000000BD
:102BC000342D3230000000002BE00F2100200BF0EC
:102BD000F3FB01235C46AFF60060D4E900120BF072
:102BE0008FFC1E2100200BF0E7FB0123AFF61060E5
:102BF000D4E900128AE7FFE7002137200BF061FDDE
:102C000000213C200BF05DFDB5F87400012803D1D4
:102C100026213A200BF08EFD2B213A200BF0E0FC10
:102C20002AE026213A200BF085FD2B213A200BF0DB
:102C3000D7FC0F2100200BF0BFFB1222FEA102A83F
:102C4000FDF785FB122102A80BF070FC202100206B
:102C50000BF0B2FBFD480068FDF734FDAFF68C12B7
:102C6000CDE900014021FA4809F004FCD7E900123F
:102C70000123F7480BF044FC85F82AA0B5F86C0056
:102C800002287DD1B5F8700001287AD195F8250089
:102C9000F0BB00200BF014FB002108460BF08CFB6E
:102CA0000123AFF2E400D7E900120BF029FC002168
:102CB00037200BF0CEFC0F2100200BF07DFBDBE971
:102CC00000120123E3A00BF01BFC202100200BF0DD
:102CD00073FBDE4880388069FDF7F4FCCDE9000124
:102CE000DDA24021DA4809F0C5FBD7E90012012333
:102CF000D7480BF005FC85F81FA0012085F82A00B5
:102D0000B5F86C000228BCD1B5F87000012800E0CD
:102D100000E059D195F825000128B2D100200BF030
:102D2000CFFA002108460BF047FB0123AFF27010E9
:102D3000D7E900120BF0E4FB002132200BF089FCF4
:102D4000002137200BF0BDFC00213C200BF0B9FC2A
:102D50000F2100200BF030FB2522C1A102A8FDF7B6
:102D6000F6FA252102A80BF0E1FB202100200BF050
:102D700023FBE87F012820D0B4488038C06F01E0F1
:102D800044E221E0FDF79EFCAFF68C32CDE9000174
:102D90004021AF4809F06EFBD7E900120123AC488F
:102DA0000BF0AEFB012085F82A0000BF0BF00AFBF8
:102DB000B5F86C00022807D0C4E2A448001F0AF04E
:102DC00063FA85F82AA0F1E7B5F87000022855D11A
:102DD00095F825000128EFD100200BF071FA0021B1
:102DE00008460BF0E9FA0123AFF22C20D7E90012D4
:102DF0000BF086FB002132200BF02BFC002137204A
:102E00000BF05FFC00213C200BF05BFC0F2100204D
:102E10000BF0D2FA26229CA102A8FDF798FA2621EF
:102E200002A80BF083FB202100200BF0C5FAE87FFD
:102E300001281CD085488038806FFDF743FCAFF631
:102E40004042CDE900014021814809F013FBD7E958
:102E5000001201237E480BF053FB012085F82A0065
:102E60000BF0B0FAB5F86C00022807D06AE2774898
:102E700008380AF009FA85F82AA0F1E7B5F87000D9
:102E8000032853D195F82500012895D100200BF097
:102E900017FA002108460BF08FFA0123AFF2E02069
:102EA000D7E900120BF02CFB002132200BF0D1FBF4
:102EB000002137200BF005FC00213C200BF001FC29
:102EC0000F2100200BF078FA202279A102A8FDF74B
:102ED0003EFA202102A80BF029FB202100200BF054
:102EE0006BFAE87F01281AD058488038006EFDF749
:102EF000E9FBAFF6F442CDE900014021544809F066
:102F0000B9FAD7E90012012351480BF0F9FA012070
:102F100085F82A00B5F86C00022807D012E24B4869
:102F200020380AF0B1F985F82AA0F3E7B5F8700067
:102F3000042853D195F82500012897D100200BF0E3
:102F4000BFF9002108460BF037FA0123AFF29030A9
:102F5000D7E900120BF0D4FA002132200BF079FBF4
:102F6000002137200BF0ADFB00213C200BF0A9FB2A
:102F70000F2100200BF020FA182256A102A8FDF71D
:102F8000E6F9182102A80BF0D1FA202100200BF05D
:102F900013FAE87F01281AD02C488038806EFDF79C
:102FA00091FBAFF6A452CDE900014021284809F079
:102FB00061FAD7E90012012325480BF0A1FA01209C
:102FC00085F82A00B5F86C00022807D0BAE11F483E
:102FD00018380AF059F985F82AA0F3E7B5F8700017
:102FE000052827D195F82500012897D100200BF05E
:102FF00067F9002108460BF0DFF90123AFF24040EA
:10300000D7E900120BF07CFA002132200BF021FBF3
:10301000002137200BF055FB00213C200BF051FB29
:103020000F2100200BF0C8F9212231A102A8FDF7E1
:103030008EF96FE09AE00000D0E0F1F7E5F2EDEEF6
:10304000E520E7EDE0F7E5EDE8E5000058010020B8
:10305000063B0020D2EEEA00252E3032660000004A
:10306000CDE8E6EDE8E920EFF0E5E4E5EB20E4E883
:10307000E0EFE0E7EEEDE020E4EBFF20EFE5F0E548
:10308000F1F7E5F2E0000000C2E5F0F5EDE8E92037
:10309000EFF0E5E4E5EB20E4E8E0EFE0E7EEEDE07B
:1030A00020E4EBFF20EFE5F0E5F1F7E5F2E00000CA
:1030B000D3F1F2E0E2EAE020EDE8E6EDFFFF20EFF9
:1030C000F0E5E4F3EFF0E5E4E8F2E5EBFCEDE0FF3A
:1030D00000000000D3F1F2E0E2EAE020EDE8E6EDE6
:1030E000FFFF20E0E2E0F0E8E9EDE0FF0000000093
:1030F000D3F1F2E0E2EAE020E2E5F0F5EDFFFF20B7
:10310000EFF0E5E4F3EFF0E5E4E8F2E5EBFCEDE009
:10311000FF000000212102A80BF008FA2021002066
:103120000BF04AF9E87F012819D0FE48406EFDF700
:10313000C9FAAFF63472CDE900014021FA4809F02E
:1031400099F9D7E900120123F7480BF0D9F90120CA
:1031500085F82A00B5F86C00022807D0F2E0F148A3
:1031600064300AF091F885F82AA0F3E7B5F870000A
:10317000062853D195F82500012847D100200BF0EF
:103180009FF8002108460BF017F90123AFF2D05049
:10319000D7E900120BF0B4F9002132200BF059FAF4
:1031A000002137200BF08DFA00213C200BF089FA2A
:1031B0000F2100200BF000F91922DCA102A8FDF775
:1031C000C6F8192102A80BF0B1F9202100200BF05C
:1031D000F3F8E87F01281AD0D248C06EFDF772FAE2
:1031E000AFF6E472CDE900014021CF4809F042F981
:1031F000D7E900120123CC480BF082F9012085F8B1
:103200002A0000BFB5F86C00022807D09AE0C54834
:103210006C300AF039F885F82AA0F3E7B5F87000A9
:1032200007284AD195F8250001287DD100200BF010
:1032300047F8002108460BF0BFF80123AFF2806089
:10324000D7E900120BF05CF9002132200BF001FAF3
:10325000002137200BF035FA00213C200BF031FA29
:103260000F2100200BF0A8F81422AFF2E46102A8AD
:10327000FDF76DF8142102A80BF058F91E2100206B
:103280000BF09AF8A748006FFDF71CFAAFF2F06256
:10329000CDE900014021A44809F0ECF8D7E900127B
:1032A0000123A1480BF02CF985F81FA0012085F817
:1032B0002A00B5F86C00022844D1B5F8700008283F
:1032C00040D195F8250001283CD100200AF0F8FFF4
:1032D000002108460BF070F80123AFF21C70D7E90B
:1032E00000120BF00DF9002132200BF0B2F90F2182
:1032F00000200BF061F81422AFF2547102A8FDF720
:1033000026F8142102A80BF011F91E2100200BF061
:1033100053F88448406FFDF7D5F9AFF27C72CDE9E0
:1033200000014021804800E00CE009F0A3F8D7E953
:10333000001201237C480BF0E3F885F81FA0012060
:1033400085F82A00B5F87800012801D002287BD141
:10335000B5F86C00032841D1B5F87000F0BB00202F
:103360000AF0AEFF002108460BF026F8D7E900125C
:10337000012375A00BF0C4F8B5F87800022817D126
:1033800000200AF09DFF002108460BF015F85C466E
:103390000123D4E900126DA00BF0B2F800211C202B
:1033A0000BF00AF8D4E90012012369A00BF0A8F889
:1033B00095F8250018B1002137200BF082F9002183
:1033C0003C200BF07EF9B5F87400012803D0B5F865
:1033D0007600012805D126213A2000E040E00BF0DC
:1033E000A9F92B213A200BF0FBF8687901283BD092
:1033F0000F2100200AF0E0FFB5F8780002284DD038
:10340000122254A102A8FCF7A2FF464C122102A8E6
:1034100022780BF0ADF8202100200AF0CDFFB4F99E
:10342000000000EB800109EBC1018879012846D03A
:10343000042844D091ED050ABDEEC00A10EE100A32
:1034400003B2AFF6081200E0FEE34021364809F06F
:1034500011F83548012300BFD7E900120BF050F8EE
:1034600095F82500B8B3F0E395F8210010B10123D9
:103470003DA0F1E70F2100200AF09EFF5C460123EA
:10348000D4E9001239A00BF03BF81E2100200AF00D
:1034900093FFD4E90012012335A0DFE7092236A10A
:1034A00002A8FCF754FF092102A80BF03FF82021E5
:1034B00000200AF081FFB5F8463032A2C3E7486920
:1034C000FDF700F9AFF27042CDE900014021164846
:1034D00008F0D0FFBDE7FFE75FF00004B5F86C002F
:1034E00003287DD1B5F87000661CB04218D1B5F83C
:1034F0006E00A8B900200AF0E3FE002108460AF099
:103500005BFF234621A24021074808F0B3FFD7E91B
:103510000012012304480AF0F3FF0021372039E0AC
:1035200088E00000D8000020063B0020D3F1F2E044
:10353000E2EAE020E2E5F0F5EDFFFF20E0E2E0F076
:10354000E8E9EDE0FF00000034383500D2C8CA00D9
:10355000C7D1CA00C7EDE0F7E5EDE8E520F0E5E307
:10356000E8F1F2F0E020000020000000CDC5D2001C
:10357000D1C2DFC7C8000000D1EEF1F2EEFFEDE8E6
:10358000E5000000256420252500000034383520A2
:10359000256400000BF05DF8272C03D000213C20AF
:1035A0000BF08FF82B213A200BF01AF80F21002096
:1035B0000AF002FF1222AFF2640102A8FCF7C7FE74
:1035C0002246122102A80AF0D3FF202100200AF08F
:1035D000F3FE04EB840109EBC1018879012800E0C6
:1035E00004E21BD0042819D091ED050ABDEEC00AF3
:1035F00010EE100A03B2AFF268024021FC4808F056
:1036000039FFD7E900120123F9480AF079FF85F85C
:103610001FA0B5F86C0003280CD0E7E14869FDF75E
:1036200051F8AFF2CC52CDE900014021F04808F04A
:1036300021FFE6E7B5F87000B0425BD1B5F86E0047
:10364000012857D100200AF03BFE002108460AF06D
:10365000B3FE2346AFF2CC024021E54808F00AFF52
:10366000D7E900120123E2480AF04AFF002137207F
:103670000AF0EFFF272C03D000213C200BF021F8AB
:1036800026213A200BF056F82B213A200AF0A8FF09
:103690000F2100200AF090FE1822D6A102A8FCF704
:1036A00056FE2246182102A80AF062FF20210020BF
:1036B0000AF082FEE87F04EB8401012813D019F898
:1036C0003130AFF234124021C94808F0D3FED7E9B7
:1036D00000120123C6480AF013FF00BFB5F86C00C2
:1036E000032807D082E108EBC10000F5907009F0D3
:1036F000FBFEF3E7B5F87000B0425BD1B5F86E00A1
:10370000022857D100200AF0DBFD002108460AF00C
:1037100053FE2346AFF28C124021B54808F0AAFEB2
:10372000D7E900120123B2480AF0EAFE002137204F
:103730000AF08FFF272C03D000213C200AF0C1FFA4
:1037400026213A200AF0F6FF2B213A200AF048FF02
:103750000F2100200AF030FE1A22ADA102A8FCF7CA
:10376000F6FD22461A2102A80AF002FF20210020BD
:103770000AF022FEE87F04EB8401012813D009EB54
:10378000C1004378AFF2F8124021994808F072FE68
:10379000D7E90012012396480AF0B2FEB5F86C0092
:1037A000032807D022E108EBC10000F5917009F071
:1037B0009BFEF3E7B5F87000B0425BD1B5F86E0040
:1037C000032857D100200AF07BFD002108460AF0AB
:1037D000F3FD2346AFF24C224021854808F04AFE13
:1037E000D7E90012012382480AF08AFE002137201F
:1037F0000AF02FFF272C03D000213C200AF061FFA4
:1038000026213A200AF096FF2B213A200AF0E8FE02
:103810000F2100200AF0D0FD0F2284A102A8FCF79E
:1038200096FD22460F2102A80AF0A2FE20210020C8
:103830000AF0C2FDE87F04EB8401012813D009EBF4
:10384000C1008388AFF2B8224021694808F012FE17
:10385000D7E90012012366480AF052FEB5F86C0061
:10386000032807D0C2E008EBC10000F5927009F010
:103870003BFEF3E7B5F87000B0425BD1B5F86E00DF
:10388000042857D100200AF01BFD002108460AF049
:1038900093FD2346AFF20C324021554808F0EAFD73
:1038A000D7E90012012352480AF02AFE00213720EE
:1038B0000AF0CFFE272C03D000213C200AF001FFA4
:1038C00026213A200AF036FF2B213A200AF088FE02
:1038D0000F2100200AF070FD1C2258A102A8FCF75D
:1038E00036FD22461C2102A80AF042FE20210020BB
:1038F0000AF062FDE87F04EB8401012813D009EB94
:10390000C1008378AFF278324021394808F0B2FD27
:10391000D7E90012012336480AF0F2FDB5F86C0031
:10392000032807D062E008EBC10000F5937009F0AE
:10393000DBFDF3E7B5F87000B04258D1B5F86E0082
:10394000052854D100200AF0BBFC002108460AF0EB
:1039500033FD2346AFF2CC324021254808F08AFDE2
:10396000D7E90012012322480AF0CAFD00213720BE
:103970000AF06FFE272C03D000213C200AF0A1FEA4
:1039800026213A200AF0D6FE2B213A200AF028FE02
:103990000F2100200AF010FD2A2230A102A8FCF716
:1039A000D6FC22462A2102A80AF0E2FD20210020AE
:1039B0000AF002FDE87F012869D004EB840109EBDD
:1039C000C100006AFCF77EFECDE900012E4A4021CD
:1039D000074808F04FFDD7E90012012304480AF018
:1039E0008FFD00BFB5F86C0003286BD0C4E369E01D
:1039F000063B0020C2EAEBFEF7E8F2FC20EEEFF017
:103A0000EEF120F0E5E3E8F1F2F0E0200000000044
:103A1000C0E4F0E5F120F3F1F2F0EEE9F1F2E2E0DA
:103A200020F0E5E3E8F1F2F0E0200000C0E4F0E58A
:103A3000F120F0E5E3E8F1F2F0E02000D4F3EDEA64
:103A4000F6E8EEEDE0EBFCEDFBE920EAEEE420F039
:103A5000E5E3E8F1F2F0E02000000000CDE8E6ED5B
:103A6000FFFF20EFF0E5E4F3EFF0E5E4E8F2E5EB4B
:103A7000FCEDE0FF20F3F1F2E0E2EAE020F0E5E324
:103A8000E8F1F2F0E020000000220108FFE704EB7B
:103A900084000B9009EBC0000090203009F0F4FB8B
:103AA000009890ED080A0AA809F0BBFB0B98BDF836
:103AB000282008EBC000A0F83821BDF82A10A0F893
:103AC0003A118FE7B5F87000B04274D1B5F86E00C6
:103AD000062870D100200AF0F3FB002108460AF006
:103AE0006BFC2346AFF25C524021FE4808F0C2FC5A
:103AF000D7E900120123FB480AF002FD002137201C
:103B00000AF0A7FD272C03D000213C200AF0D9FDA4
:103B100026213A200AF00EFE2B213A200AF060FD01
:103B20000F2100200AF048FC2222EFA102A8FCF796
:103B30000EFC2246222102A80AF01AFD20210020B4
:103B40000AF03AFCE87F012819D004EB840109EB64
:103B5000C100406AFCF7B6FDCDE90001EB4A402107
:103B6000E04808F087FCD7E900120123DD480AF09D
:103B7000C7FC00BFB5F86C0003281CD0FCE204EBC6
:103B800084000B9009EBC0000090243009F07CFB0E
:103B9000009890ED090A0AA809F043FB0B98BDF8BC
:103BA000282008EBC000A0F83C21BDF82A10A0F89E
:103BB0003E11DFE7FFE7B5F87000B04277D1B5F806
:103BC0006E00072873D100200AF07AFB0021084616
:103BD0000AF0F2FB2346AFF24C624021C14808F0E4
:103BE00049FCD7E900120123BE480AF089FC0021F4
:103BF00037200AF02EFD272C03D000213C200AF0AC
:103C000060FD26213A200AF095FD2B213A200AF08A
:103C1000E7FC0F2100200AF0CFFB2B22BCA102A859
:103C2000FCF795FB22462B2102A80AF0A1FC2021DB
:103C300000200AF0C1FBE87F01281CD004EB8401BE
:103C400009EBC100806901E09FE29AE2FCF73AFDCE
:103C5000CDE90001AD4A4021A24808F00BFCD7E9AC
:103C6000001201239F480AF04BFC00BFB5F86C001E
:103C700003281CD080E204EB84000B9009EBC00009
:103C80000090183009F000FB009890ED060A0AA891
:103C900009F0C7FA0B98BDF8282008EBC000A0F87F
:103CA0004021BDF82A10A0F84211DFE7FFE7B5F880
:103CB0007000B04273D1B5F86E0008286FD10020B3
:103CC0000AF0FEFA002108460AF076FB2346AFF21E
:103CD00044724021834808F0CDFBD7E9001201234C
:103CE00080480AF00DFC002137200AF0B2FC272C96
:103CF00003D000213C200AF0E4FC26213A200AF0FF
:103D000019FD2B213A200AF06BFC0F2100200AF04C
:103D100053FB232289A102A8FCF719FB2246232189
:103D200002A80AF025FC202100200AF045FBE87FCC
:103D3000012818D004EB840109EBC100C069FCF72D
:103D4000C1FCCDE90001714A4021664808F092FBB0
:103D5000D7E90012012363480AF0D2FBB5F86C00E2
:103D600003281CD008E204EB84000B9009EBC00090
:103D700000901C3009F088FA009890ED070A0AA814
:103D800009F04FFA0B98BDF8282008EBC000A0F806
:103D90004421BDF82A10A0F84611DFE7FFE7B5F887
:103DA0007000B04273D1B5F86E0009286FD10020C1
:103DB0000AF086FA002108460AF0FEFA2346AFF61A
:103DC00034024021474808F055FBD7E9001201238F
:103DD00044480AF095FB002137200AF03AFC272CD2
:103DE00003D000213C200AF06CFC26213A200AF086
:103DF000A1FC2B213A200AF0F3FB0F2100200AF04E
:103E0000DBFA172256A102A8FCF7A1FA22461721D5
:103E100002A80AF0ADFB202100200AF0CDFAE87FCD
:103E2000012818D004EB840109EBC100C068FCF73D
:103E300049FCCDE90001504A40212A4808F01AFB0C
:103E4000D7E90012012327480AF05AFBB5F86C00A5
:103E500003281CD090E104EB84000B9009EBC00018
:103E600000900C3009F010FA009890ED030A0AA8AF
:103E700009F0D7F90B98BDF8282008EBC000A0F88E
:103E80002C21BDF82A10A0F82E11DFE7FFE7B5F8C6
:103E90007000B04272D1B5F86E000A286ED10020D1
:103EA0000AF00EFA002108460AF086FA2346AFF619
:103EB000241240210B4808F0DDFAD7E90012012353
:103EC00008480AF01DFB002137200AF0C2FB272C0E
:103ED00003D000213C200AF0F4FB26213A200AF00E
:103EE00029FC4CE0063B0020CDE8E6EDFFFF20E09A
:103EF000E2E0F0E8E9EDE0FF20F3F1F2E0E2EAE0F1
:103F000020F0E5E3E8F1F2F0E020000000220108F3
:103F1000C2E5F0F5EDFFFF20EFF0E5E4F3EFF0E5AB
:103F2000E4E8F2E5EBFCEDE0FF20F3F1F2E0E2EA99
:103F3000E020F0E5E3E8F1F2F0E02000C2E5F0F582
:103F4000EDFFFF20E0E2E0F0E8E9EDE0FF20F3F133
:103F5000F2E0E2EAE020F0E5E3E8F1F2F0E0200050
:103F6000CAEEFDF4F4E8F6E8E5EDF220C020F0E555
:103F7000E3E8F1F2F0E02000A02B01084CE02B2157
:103F80003A200AF02DFB0F2100200AF015FA172223
:103F9000FEA102A8FCF7DBF92246172102A80AF0CD
:103FA000E7FA202100200AF007FAE87F012818D05C
:103FB00004EB840109EBC1000069FCF783FBCDE948
:103FC0000001F84A4021F84808F054FAD7E90012F5
:103FD0000123F5480AF094FAB5F86C0003281BD0C9
:103FE000CAE004EB84000B9009EBC0000090103095
:103FF00009F04AF9009890ED040A0AA809F011F9AD
:104000000B98BDF8282008EBC000A0F83021BDF8BF
:104010002A10A0F83211DFE7B5F87000B0425BD18A
:10402000B5F86E000B2857D100200AF049F900219D
:1040300008460AF0C1F92346AFF6B0224021DA481B
:1040400008F018FAD7E900120123D7480AF058FA05
:10405000002137200AF0FDFA272C03D000213C2054
:104060000AF02FFB26213A200AF064FB2B213A208C
:104070000AF0B6FA0F2100200AF09EF91422CBA113
:1040800002A8FCF764F92246142102A80AF070FA8B
:10409000202100200AF090F9E87F04EB8401012838
:1040A00013D009EBC1008379AFF61C324021BE4822
:1040B00008F0E0F9D7E900120123BB480AF020FA22
:1040C000B5F86C00032807D056E008EBC10000F5F6
:1040D000947009F009FAF3E7B5F87000B0424BD1DB
:1040E000B5F86E000C2847D100200AF0E9F800214D
:1040F00008460AF061F92346AFF670324021AA481B
:1041000008F0B8F9D7E900120123A7480AF0F8F936
:10411000002137200AF09DFA272C03D000213C20F3
:104120000AF0CFFA26213A200AF004FB0F210020E2
:104130000AF042F91122A3A102A8FCF708F92246CD
:10414000112102A80AF014FA202100200AF034F903
:10415000E87F04EB8401012818D009EBC100038932
:10416000AFF6D4324021904808F084F9D7E9001224
:1041700001238D480AF0C4F9641CE4B2282CFFF432
:10418000ADA9B5F86C00032807D097E008EBC10093
:1041900000F5957009F0A8F9EEE7B5F87000012870
:1041A0004AD195F8250001287ED100200AF088F830
:1041B000002108460AF000F90123AFF67440D7E960
:1041C00000120AF09DF9002132200AF042FA002183
:1041D00037200AF076FA00213C200AF072FA0F210B
:1041E00000200AF0E9F86F491822803902A8FCF78C
:1041F000AEF8182102A80AF099F9202100200AF04F
:10420000DBF8E87F0128744813D0B0F90030AFF62E
:1042100080424021644808F02DF9D7E900120123BB
:1042200061480AF06DF900BFB5F86C00032803D0AF
:1042300044E009F059F9F7E7B5F870000228B3D166
:1042400095F825000128AFD100200AF039F80021A7
:1042500008460AF0B1F80123AFF61450D7E900126E
:104260000AF04EF9002132200AF0F3F90F21002064
:104270000AF0A2F8082259A102A8FCF768F8082160
:1042800002A80AF053F9202100200AF095F8E87FEF
:10429000012818D050488030C06AFCF713FACDE9E5
:1042A000000151A2402100E020E23F4808F0E2F87E
:1042B000D7E9001201233C480AF022F9B5F86C0056
:1042C000042806D02BE344484949AC3009F096F85D
:1042D000F4E7B5F87000E8BB002009F0F1FF002119
:1042E00008460AF069F85C460123D4E9001241A0AF
:1042F0000AF006F995F8250018B1002137200AF0D8
:10430000E0F900213C200AF0DCF926213A200AF0ED
:1043100011FA2B213A200AF063F90F2100200AF04C
:104320004BF8D4E90012012334A00AF0E9F8D7E9E8
:104330000012012333A00AF0E3F810212A200AF02A
:104340003BF82B7AAFF6B8524021174808F092F8A4
:10435000012300E06EE0D7E9001213480AF0D0F81C
:10436000202100200AF028F8D4E90012012326A019
:104370000AF0C6F8D7E90012012322A00AF0C0F81B
:1043800021212A200AF018F8EB7941E0CAEEFDF469
:10439000F4E8F6E8E5EDF220C220F0E5E3E8F1F21A
:1043A000F0E02000A02B0108063B0020D2E8EF201F
:1043B000E4E0EDEDFBF520F0E5E3E8F1F2F0E020DC
:1043C00000000000D2E0E9ECE0F3F220F0E5E3E8E1
:1043D000F1F2F0E020000000D8000020D1EAEEF079
:1043E000EEF1F2FC00000000252E303066000000E7
:1043F000F0140208D0E5EBE500000000CFF0E5E4A2
:10440000000000002E000000C0E2E0F0000000000C
:10441000AFF684624021FA4808F02CF8D7E9001280
:104420000123F7480AF06CF885F82AA0B5F86C006B
:1044300004287CD1B5F87000012868D195F82500D2
:10444000B0BB002009F03CFF0021084609F0B4FF92
:104450000123AFF26000DBE900120AF051F80021FD
:1044600037200AF0F6F800213C200AF02AF9B5F8C6
:104470007800012802D002281BD03FE00F21002045
:1044800009F09AFF1022DFA102A8FBF760FF1021BC
:1044900002A80AF04BF8D7E900120123DEA00AF0C7
:1044A0002FF82021002009F087FFB5F872301AE0BC
:1044B000A1E00F21002009F07FFF0D22D7A102A863
:1044C000FBF745FF0D2102A80AF030F8D7E90012EA
:1044D0000123D6A00AF014F82021002009F06CFF77
:1044E000D448008C83B2D4A24021C54807F0C2FF53
:1044F000D7E900120123C2480AF002F885F81FA08C
:10450000012085F82A00B5F86C0004280FD1B5F811
:10451000700002286BD195F82500A0BB002009F09F
:10452000CFFE0021084609F047FF012300E0ABE081
:10453000AFF24010DBE9001209F0E2FF0021372062
:104540000AF087F8B5F87800012802D002281BD0BD
:1045500044E00F21002009F02FFF1022A9A102A89A
:10456000FBF7F5FE102102A809F0E0FFD7E90012E1
:104570000123B3A009F0C4FF2021002009F01CFF93
:10458000B5F842301FE08DE00F21002009F014FF44
:104590000D22A2A102A8FBF7DAFE0D2102A809F064
:1045A000C5FFD7E900120123A6A009F0A9FF202129
:1045B000002009F001FF9F49086A91F82410000CBF
:1045C00040EA014083B29CA240218D4807F052FF8F
:1045D000D7E9001201238A4809F092FF85F81FA04D
:1045E000012085F82A00B5F86C0004284CD1B5F8F4
:1045F0007000012852D195F82500012876D10020BD
:1046000009F05EFE0021084609F0D6FE01235C4653
:10461000AFF22020D4E9001209F072FF002132200D
:104620000AF017F8002137200AF04BF800213C204F
:104630000AF047F80F21002009F0BEFED4E900126D
:10464000012382A009F05CFFC82009F091F8202125
:10465000002009F0B1FEE87F012816D0B5F85030EF
:104660007CA24021664807F005FFD7E9001201232C
:10467000634809F045FF012085F82A0085F82BA042
:10468000B5F86C00042809D049E1734808F02CFF04
:1046900085F82AA0012085F82B00F1E7B5F8700015
:1046A000022854D195F825000128A7D1002009F04F
:1046B00007FE0021084609F07FFE0123AFF2CC205F
:1046C000DBE9001209F01CFF0021322009F0C1FFD4
:1046D0000021372009F0F5FF00213C2009F0F1FF0F
:1046E0000F21002009F068FE182200E058E15BA1CC
:1046F00002A8FBF72CFE182102A809F017FF2021C1
:10470000002009F059FEE87F012816D0B5F8523094
:1047100050A240213A4807F0ADFED7E9001201232C
:10472000374809F0EDFE012085F82A0085F82BA016
:10473000B5F86C0004280AD0F1E04748801C08F066
:10474000D3FE85F82AA0012085F82B00F0E7B5F804
:104750007000032853D195F825000128A5D1002029
:1047600009F0AEFD0021084609F026FE0123AFF254
:104770007C30DBE9001209F0C3FE0021322009F091
:1047800068FF0021372009F09CFF00213C2009F040
:1047900098FF0F21002009F00FFE212236A102A868
:1047A000FBF7D5FD212102A809F0C0FE2021002041
:1047B00009F002FEE87F012817D0B5F8543025A291
:1047C00040210F4807F056FED7E9001201230C489C
:1047D00009F096FE012085F82A0085F82BA000BF7D
:1047E000B5F86C00042859D099E01B48001D08F06A
:1047F0007BFE85F82AA0012085F82B00F0E74DE02C
:10480000063B0020C0F2F2F0E8E1F3F220F1EEE125
:10481000FBF2E8FF0000000020310000C1E8F220B8
:10482000F1EEF1F2EEFFEDE8FF00000028302D314F
:1048300035290000D80200203078255800000000FB
:10484000203200002831362D33312900D0E5E6E84A
:10485000EC00000025640000A8000020C7E0E4E5AB
:10486000F0E6EAE020EDE020F1F0E0E1E0F2FBE24A
:10487000E0EDE8E500000000C7E0E4E5F0E6EAE08E
:1048800020EDE020E2FBF5EEE420E8E720F1F0E0A7
:10489000E1E0F2FBE2E0EDE8FF000000B5F87000B7
:1048A00004287DD195F825000128FAD1002009F0CF
:1048B00007FD0021084609F07FFD0123AFF2CC403F
:1048C000DBE9001209F01CFE0021322009F0C1FED4
:1048D0000F21002009F070FD0922FEA102A8FBF7BC
:1048E00036FD092102A809F021FE2021002009F04F
:1048F00063FDE87F012817D0B5F85A30AFF2AC025B
:104900004021F74807F0B6FDD7E900120123F4482B
:1049100009F0F6FD012085F82A0085F82BA0B5F8EE
:104920006C00052809D07FE1EE4808F0DDFD85F830
:104930002AA0012085F82B00F1E7B5F8700028BB0C
:10494000002009F0BDFC0021084609F035FD0021DA
:104950003C2009F0B6FE26213A2009F0EBFE2B217F
:104960003A2009F03DFE0F21002009F025FD092223
:10497000DDA102A8FBF7EBFC092102A809F0D6FD96
:1049800085F82AA0B5F86C0005284DD1B5F870005F
:10499000012854D1002009F093FC0021084600E0D2
:1049A00083E109F009FD5C460123D4E90012D1A09E
:1049B00009F0A6FD0123AFF2B450D7E9001209F0C7
:1049C0009FFD0021372009F044FE00213C2009F022
:1049D00078FE0F21002009F0EFFCD4E9001201233A
:1049E000C6A009F08DFDC82008F0C2FE20210020DD
:1049F00009F0E2FCE87F012817D0B5F86430AFF287
:104A0000AC124021B64807F035FDD7E9001201236A
:104A1000B34809F075FD012085F82A0085F82BA020
:104A2000B5F86C0005280AD0FEE0AE480A3008F060
:104A30005BFD85F82AA0012085F82B00F0E7B5F88A
:104A40007000022858D1002009F03AFC00210846E5
:104A500009F0B2FCDBE900120123A6A009F050FD29
:104A60000123AFF26060D7E9001209F049FD00218F
:104A7000372009F0EEFD00213C2009F022FE0F2135
:104A8000002009F099FC0822AFF2B06102A8FBF700
:104A90005EFC082102A809F049FD2021002009F050
:104AA0008BFCE87F01281CD08E48A630806AFBF77B
:104AB00009FEAFF2CC62CDE900014021884807F041
:104AC000D9FCD7E900120123854809F019FD01201E
:104AD00085F82A0085F82BA0B5F86C0005280BD0C6
:104AE000A2E080488749CE3008F088FC85F82AA0EB
:104AF000012085F82B00EFE7B5F87000032852D1AC
:104B0000002009F0DDFB0021084609F055FCDBE937
:104B10000012012377A009F0F3FC0123AFF21C700F
:104B2000D7E9001209F0ECFC0021372009F091FDD3
:104B300000213C2009F0C5FD0F21002009F03CFCBC
:104B40000E2271A102A8FBF702FC0E2102A809F0B7
:104B5000EDFC2021002009F02FFCE87F012818D06F
:104B6000B5F86630AFF2143240215D4807F082FCA0
:104B7000D7E9001201235A4809F0C2FC012085F848
:104B80002A0085F82BA000BFB5F86C0005280AD0D4
:104B90004AE054480C3008F0A7FC85F82AA0012010
:104BA00085F82B00F0E7B5F8700004287DD10020CF
:104BB00009F086FB0021084609F0FEFBDBE9001244
:104BC00001234CA009F09CFC0123AFF2C870D7E987
:104BD000001209F095FC0021372009F03AFD0F2161
:104BE000002009F0E9FB0E224BA102A8FBF7AFFB66
:104BF0000E2102A809F09AFC2021002009F0DCFB1C
:104C0000E87F012815D0B5F87C30AFF2B8324021EA
:104C1000334807F02FFCD7E900120123304809F090
:104C20006FFC012085F82A00B5F86C00062807D033
:104C300038E12C48223008F057FC85F82AA0F3E729
:104C4000B5F8700008BB002009F03AFB00210846C7
:104C500009F0B2FB00213C2009F033FD26213A2067
:104C600009F068FD0F21002009F0A6FB0A222EA101
:104C700002A8FBF76CFB0A2102A809F057FC85F893
:104C80002AA0B5F86C0006287DD1B5F8700001287F
:104C90007FD1002009F014FB0021084609F08CFBAD
:104CA000DBE90012012323A000E03DE109F028FC2C
:104CB0000123AFF6B000D7E9001209F021FC002172
:104CC000372009F0C6FC00213C2009F0FAFC0F2136
:104CD000002031E0D2E5F1F220F0E5EBE500000044
:104CE000063B0020B2000020CDE0F1F2F0EEE9EA50
:104CF000E8000000CDE0F1F2F0000000C0E4F0E5D3
:104D0000F1000000F0140208C2F0E5ECFF20EFF023
:104D1000EEE3F0E5E2E00000D1E1F0EEF120EDE0BD
:104D2000F1F2F0EEE5EA0000C8EDF4EEF0ECE0F6AA
:104D3000E8FF0000C8EDF40009F03EFB1222DDA1FF
:104D400002A8FBF704FB122102A809F0EFFB2021C7
:104D5000002009F031FBDC4890ED070A10EE100A44
:104D6000FBF7B0FCCDE90001D84A4021D84807F054
:104D700081FBD7E900120123D54809F0C1FB0120CE
:104D800085F82A0001E083E003E0B5F86C0006280E
:104D90007ED1B5F87000022843D1002009F090FAC6
:104DA0000021084609F008FB0123AFF27800DBE997
:104DB000001209F0A5FB0123AFF6B810D7E90012E5
:104DC00009F09EFB0021372009F043FC00213C2024
:104DD00009F077FC0F21002009F0EEFA0922BDA1AD
:104DE00002A8FBF7B4FA092102A809F09FFB2021D1
:104DF000002009F0E1FA9FEDBA0BBB4A8DED000BE4
:104E00004021B34807F036FBD7E900120123B04830
:104E100009F076FB012085F82A00B5F86C00062819
:104E200040D1B5F8700003287ED1002009F048FA7F
:104E30000021084609F0C0FA0123AFF20810DBE9AF
:104E4000001209F05DFB0123AFF64820D7E90012FC
:104E500009F056FB0021372009F0FBFB0F21002051
:104E600009F0AAFAD7E900120123A0A009F048FB33
:104E70002021002009F0A0FA93488068FBF722FC6B
:104E8000CDE90001914A4021914807F0F3FA00E092
:104E900008E0D7E9001201238D4809F031FB012019
:104EA00085F82A00B5F86C0007283DD1B5F87000E8
:104EB000D8B995F82300012836D1002009F000FA6E
:104EC0000221372009F0FDFB0F21002009F074FAC0
:104ED0000C2288A102A8FBF73AFA0C2102A809F0DB
:104EE00025FBB5F86C0007281ED1B5F87000012825
:104EF00046D1002009F0E4F90021084609F05CFAE7
:104F0000DBE9001201237FA009F0FAFA0123AFF6D2
:104F10000C30D7E9001209F0F3FA0221302009F031
:104F200098FB0221372000E0AFE009F0CAFB0F2117
:104F3000002009F041FAD7E900120123734809F073
:104F4000DFFA2021002009F037FAE87F012812D08B
:104F5000B5F87430AFF2047240215D4807F08AFA68
:104F6000D7E9001201235A4809F0CAFAB5F86C00D3
:104F7000072805D089E054488C3808F0B5FAF5E7E1
:104F8000B5F87000022845D1002009F099F90021F8
:104F9000084609F011FADBE90012012359A009F0D3
:104FA000AFFA0123AFF6A430D7E9001209F0A8FA4E
:104FB0000221302009F04DFB0221372009F081FB4E
:104FC0000F21002009F0F8F9D7E900120123504819
:104FD00009F096FA2021002009F0EEF9E87F012877
:104FE00013D0B5F87630AFF294724021384807F00C
:104FF00041FAD7E900120123354809F081FA00BFD0
:10500000B5F86C00072805D03FE02F488A3808F033
:105010006BFAF5E7B5F87000032836D1002009F0E7
:105020004FF90021084609F0C7F9DBE90012012316
:1050300034A009F065FA0123AFF63840D7E9001231
:1050400009F05EFA0221302009F003FB0F21002055
:1050500009F0B2F9D7E9001201232E4809F050FAFD
:105060002021002009F0A8F9E87F01281BD0B5F81D
:105070007830AFF620024021154807F0FBF9D7E958
:1050800000120123124809F03BFA09F09BF995F848
:10509000210068B15FF0000085F82100642008F06D
:1050A00067FBFCF783BC0848883808F01DFAECE77A
:1050B0000120F1E7CDE0EFF0FFE6E5EDE8E520EFD8
:1050C000E8F2E0EDE8FF00005801002000220108AE
:1050D000063B0020C2E5F0F1E8FF20CFCE00000043
:1050E000AE47E17A14AE1540583001084D4D544595
:1050F00000000000CACECDD4C8C3D3D0C0D6C8DF0C
:1051000000000000CAEEEDF400000000D01D010810
:10511000C02B010848350108184F0026DFF860B0A1
:1051200086B04FF008084FF0180A4FF08009A7F535
:10513000C07401254FF0FF31B86A0AF093F9607F1F
:105140000128F7D101AA0496009682E82005CBF841
:10515000109001F09FFC04F82F0F032008F008FBCB
:1051600004A9684601F0C8FB207001F037FC14F870
:105170002F090028DED184F82E50DBE7D80100206B
:1051800000200240124A117F1248012901D0032950
:105190000BD1036843F400630360036823F40063E6
:1051A0000360036843F400730360022901D00329FC
:1051B0000BD1016841F480510160016821F48051F4
:1051C0000160016841F48061016000201077704740
:1051D0004C040020002002400849C20703D04A695D
:1051E00042F004024A61800703D5486940F4004058
:1051F0004861486940F480304861704700200240AF
:10520000CA070B494A6902D022F4006201E042F465
:1052100000624A614A6960F3CA024A61486940F023
:1052200002004861486940F48030486170470000DE
:1052300000200240044910B54C6944F001044C615F
:105240000260436010BD000000200240074B10B513
:105250005C69402244F480245C6172B608C908C0CD
:10526000521E12F0FF02F9D162B610BD00200240BA
:1052700070B5054601F00CFD0646184C08E0681CA8
:1052800006D001F005FD801BA84201D3032070BDAC
:105290002069C043C003F2D5216911480140A069CB
:1052A00000F00040084311D00E494A6802434A60AA
:1052B000810F04D0A16900F040421143A161810037
:1052C00002D020F040402061012070BD2069C04321
:1052D000C00701D101202061002070BD00200240E4
:1052E000FAC302004C040020294810B5C078A0B3CE
:1052F000012840D0022828D3264B274A0221A3F1B7
:105300000C0007F068FE234B234A84332148022116
:10531000783007F060FE1F4B1F4AB0330221A3F123
:105320000C0007F058FE1B4B1B4A2C33A03A0221FD
:10533000A3F10C0007F04FFE164B174A5833783A8A
:105340000221A3F10C0007F046FE16489FED130B57
:1053500080ED0A0B80ED0C0B10BDFFE70D4B0E4AE4
:105360000221503AA3F10C0007F035FE094B0A4A1E
:105370008433503ACAE7074B074A0221283AA3F17F
:105380000C0007F028FE034B034A8433283ABDE79C
:10539000580000202C180020F80300200000000016
:1053A00000000000D802002010B504460AF0E8F919
:1053B000014614B108F0F2F82060C86C10BD00007E
:1053C0002DE9F84F4FF000080446CDF800800D4657
:1053D00094F85420DFF80894216947464046012A92
:1053E0000AD00126FF4A84F8546041B1A969012915
:1053F00005D0636EEBB129E00220BDE8F88F686844
:10540000082838D1296A4FF4F85041B12B6801F0CF
:105410003C0100EA93400843696A084302E02968B6
:1054200000EA91402368D96C11400143D964206699
:1054300021E0C4E91871296AA86931B101F03C0181
:10544000401E0843696A084300E0401E29682B7922
:10545000C1F3846103F01F0399400143606E401E55
:105460006066236E43EA0103236604D12068C16CA1
:1054700011401943C164206803F058FB48B9687FA4
:1054800090B12068C168AA7F21F4401141EA4251DD
:10549000C160206803F052FB8246206803F046FB9F
:1054A0005AEA00000BD0DDE0A87F297F400540EAE2
:1054B00001512068C26822F440121143E8E7286ACB
:1054C00028B1686A18B1687F012845D002E0687F7A
:1054D000012804D02068C16821F0007103E0206831
:1054E000C16841F00071C16095F8280001283AD0E8
:1054F0002068016921F002010161AA682968206819
:10550000B2F1004F20D003F034FB2068416921F054
:105510000041416120686969C268C2F3C10252005A
:1055200091402A69042A2AD000EB82002B68DFF818
:10553000B8C2026E03F0F84302EA0C020B431A43AE
:1055400042F0004101668DE0002203F012FB20686A
:10555000416941F00041DCE7A06D40F02000A0650A
:105560004FF00108C0E7D5E90B01084321680A693B
:1055700022F4FF7242F0020210430861BDE70021ED
:1055800003F0CAFA400320684FF0000172D003F024
:10559000C3FA90FAA0F0B0FA80F1286842036ED006
:1055A00090FAA0F0B0FA80F0814204D100221146B6
:1055B000206803F0F5FA0121206803F0ADFA4003FA
:1055C00020684FF001015DD003F0A6FA90FAA0F038
:1055D000B0FA80F12868420359D090FAA0F0B0FAEE
:1055E00080F0814204D100220121206803F0D8FA22
:1055F0000221206803F090FA400320684FF0020176
:1056000048D003F089FA90FAA0F0B0FA80F1286847
:10561000420344D090FAA0F0B0FA80F0814204D165
:1056200000220221206803F0BBFA0321206803F066
:1056300073FA400320684FF0030133D003F06CFA93
:1056400090FAA0F0B0FA80F1286842032FD090FAC7
:10565000A0F0B0FA80F0814204D10022032120683A
:1056600003F09EFA2068816811F0010F22D0ABE0B0
:1056700000E004E003F050FAC0F384618DE7C0F36A
:10568000846091E703F048FAC0F38461A2E7C0F3B5
:105690008460A6E703F040FAC0F38461B7E7C0F383
:1056A0008460BBE703F038FAC0F38461CCE7C0F351
:1056B0008460D0E72B7B296850F8B02FC1F3120C1F
:1056C00022EA0C0203F0180C484B23FA0CF30B40AF
:1056D0001A430260E968494576D1286841031BD026
:1056E00090FAA0F1B1FA81F1491C01F01F010929DA
:1056F0004FEA403131D8002911D090FAA0F1B1FA27
:1057000081F100BF01F1010101F01F0106FA01F66C
:1057100008D1C0F3846109E0C0F38461E4E7C0F319
:105720008461EFE790FAA0F1B1FA81F101F1010192
:1057300001F01F0146EA816102D1C0F3846003E0F9
:1057400090FAA0F0B0FA80F000F1010000F01F0024
:1057500000EB400041EA005132E000290ED090FAFF
:10576000A0F1B1FA81F100BF01F1010101F01F01C7
:1057700006FA01F605D1C0F3846106E0C0F3846146
:10578000F2E790FAA0F1B1FA81F101F1010101F023
:105790001F0146EA816102D1C0F3846003E090FA00
:1057A000A0F0B0FA80F000F1010000F01F00104AF4
:1057B00000EB400002EB005041EA000141F00071B3
:1057C000AA68206803F0D5F90A482A68024256D030
:1057D00009488168094E01F0E071094B094D13E059
:1057E00000007F400020088200F0FF03FFFF070059
:1057F000000020FE0000088000030450000052C793
:105800000000045000020450B2421BD10E0219D411
:1058100022689A4201D0AA4231D1826841F4000143
:1058200022F0E0720A438260174818490068B0FB12
:10583000F1F000EB4000800000E0401E00900028E6
:10584000FBD11CE0124EB24209D1CE0107D422682E
:105850009A4201D0AA4212D141F080710AE06FF061
:105860000045EA420BD14A0209D422689A4206D185
:1058700041F48001826822F0E0720A43826084F879
:1058800054704046B9E500006C040020400D030050
:10589000000084CB0068B1F5877F0FD0B1F5057F9C
:1058A00009D0A1F540711A3902D0D0F880007047B4
:1058B000D0F88C007047D0F888007047D0F884008A
:1058C000704700002DE9F041044637480F468068D4
:1058D00000F01F066069082804D0202501F0D8F9DF
:1058E00080460AE04025F9E7781C06D001F0D0F99F
:1058F000A0EB0800B84215D8A7B12068006828427C
:10590000F2D02168C86C10F0C00F15D00022C86812
:1059100010F4406F12D00023244F2548B9420FD114
:1059200084460EE0A06D40F00400A065002084F8DD
:1059300054000320BDE8F0810122E8E70123EBE7F2
:105940008C468C450ED06EB1062E0BD0072E09D09A
:10595000B94200D00846C068A66D46F40056A66558
:105960003AB901E0C868F7E7820112D48BB182042A
:105970000FD40A6852060CD582020AD4A26D22F412
:105980008052A265A26DD20503D4A26D42F001023D
:10599000A265402D01D0202002E0400401D4602007
:1059A00008600020C6E70000000304500001045016
:1059B000000004502DE9F04104463548806800F0AD
:1059C0001F05206803F0B2F808BB2068C168C06CEE
:1059D00001F0004100F0C000084312D094F85400D8
:1059E000012814D0012084F854002046FBF7E8F881
:1059F00002004FF000030CD084F854301046BDE88C
:105A0000F081A06D40F02000A0650120F7E70220A2
:105A1000F5E7A06DC00504D5E06D20F00800E06555
:105A200000E0E365A06D42F20101884340F480503C
:105A3000A065184F2168184EB94201D1304600E0E8
:105A40000846884200D01DB9A06D20F48010A065E2
:105A50006020086084F854302068B84200D00646C0
:105A6000864209D045B1062D06D0072D04D0A06D81
:105A700040F48010A065C1E7C16811F0007FBDD17E
:105A80008168064B194041F008018160B6E70000CB
:105A9000000304500001045000000450C0FFFF7FC9
:105AA00070B5044690F85400012809D0012084F80C
:105AB000540002212046FAF79BFF050002D014E0B3
:105AC000022070BD206803F039F818B1A06D20F4F1
:105AD000805009E02046FBF73FF8050005D1A06D96
