:020000040801F1
:100000002088012081020108E5A301086D8C010808
:10001000B59F0108AD0F01081DC1010800000000D7
:10002000000000000000000000000000C101010805
:1000300095190108000000001D0201081BAD010810
:100040009B0201089B0201089B0201089B02010818
:100050009B0201089B0201089B0201089B02010808
:100060009B0201089B0201089B020108E1120108A2
:10007000ED120108F9120108051301081113010816
:100080001D130108291301089B0201089B020108A6
:100090009B0201089B0201089B0201089B020108C8
:1000A0009B0201088DB101089B0201089B02010817
:1000B0009B0201089B0201089B0201089B020108A8
:1000C0009B0201089B0201089B0201089B02010898
:1000D0009B02010839BE010895BE0108F1BE010866
:1000E0009B0201089B0201089B0201089B02010878
:1000F0009B0201089B0201089B0201089B02010868
:100100009B0201089B0201089B0201089B02010857
:100110009B020108A1B8010899B10108B5B1010815
:1001200035130108411301089B0201089B020108D5
:100130009B0201089B0201089B0201089B02010827
:100140009B0201089B0201089B0201089B02010817
:100150009B0201089B0201089B0201089B02010807
:100160009B0201089B0201089B0201089B020108F7
:100170009B0201089B0201089B020108000000008D
:100180009B0201089B0201089B0201089B020108D7
:100190009B0201089B0201089B0201089B020108C7
:1001A0009B0201089B0201089B020108DFF80CD0AA
:1001B00000F0E0FB00480047ADD401082088012092
:1001C0002C4B19680868B0E8F04F80F30988BFF33A
:1001D0006F8F4FF0000080F311887047000000001F
:1001E00008480068006880F308884FF0000080F33A
:1001F000148862B661B6BFF34F8FBFF36F8F00DF15
:1002000000BF00BF08ED00E0DFF80C00016841F41A
:1002100070010160704700BF88ED00E0EFF30980D6
:10022000BFF36F8F134B1A681EF0100F08BF20ED3D
:10023000108A20E9F04F106009B44FF0500080F3AD
:100240001188BFF34F8FBFF36F8F0EF087FC4FF015
:10025000000080F3118809BC19680868B0E8F04F05
:100260001EF0100F08BFB0EC108A80F30988BFF3AE
:100270006F8F704794040020EFF3058070470000F3
:100280000648804706480047FEE7FEE7FEE7FEE730
:10029000FEE7FEE7FEE7FEE7FEE7FEE7DDAD01086D
:1002A000AD0101082DE9F05F0546002092469B460E
:1002B00088460646814640241BE02846414647467C
:1002C000224600F053FA53465A46C01A914110D3C1
:1002D00011461846224600F03AFA2D1A67EB01083B
:1002E0004F4622460120002100F031FA17EB0009A9
:1002F0004E41201EA4F10104DFDC484631462A4667
:100300004346BDE8F09F40EA01039B0703D009E0A4
:1003100008C9121F08C0042AFAD203E011F8013BF1
:1003200000F8013B521EF9D27047D2B201E000F84A
:10033000012B491EFBD270470022F6E710B5134689
:100340000A4604461946FFF7F0FF204610BD10B5D7
:10035000044604E00B7800F8013B03B1491C521E2F
:10036000F8D2204610BD2DE9FE4F804681EA0300F9
:10037000C00F0C46009021F0004123F00045B8EB7F
:100380000200A94105D24046214690461C460B4634
:10039000024623F00040104347D0270DC7F30A0060
:1003A000C3F30A510290401A019040286BDAC3F35C
:1003B000130040F4801B0098924620B10023D2EB3A
:1003C000030A63EB0B0B01985946C0F140025046FB
:1003D00000F0BDF906460D4650465946019A00F018
:1003E000D5F910EB08006141002487EA115284EA34
:1003F000E7731A4340D0009A62B3019A012A4FEA88
:10040000075215DC001B61EB02014FF0004202EACB
:100410000752CDE90042001C41F5801132462B46BF
:1004200000F02AFA03B0BDE8F08F40462146F9E714
:10043000001B61EB0201001C41F5801300185B41B9
:100440002018A2F5001747EB030140EAD570B61952
:100450006D4111E06D084FEA360645EAC0754FEA76
:100460000752001B61EB0201001C41F58011490895
:100470004FEA30000019514132462B4603B0BDE827
:10048000F04F00F0EAB90098012240000023D0EBC1
:10049000020263EBE073009821464FEAE074B8EB88
:1004A000000061EB0401E9E783F000435BE781F0C2
:1004B000004158E72DE9FE4F81EA030404F00044AF
:1004C00021F0004100944FF0000B23F0004350EA6C
:1004D00001045ED052EA03045BD0C3F30A54C1F3B3
:1004E0000A552C44A4F2F3340194A0FB0254C1F346
:1004F000130141F48011C3F3130343F4801301FB90
:10050000024400FB034E840A970A44EA815447EAF6
:100510008357A4FB076802958D0A05FB07854FEA00
:10052000932C04FB0C542705029D4FEA065847EA1A
:100530001637B5EB08056EEB070C870E920E47EAEF
:10054000811742EA8312A7FB0201B6EB0B0164EBB1
:1005500000042B0D43EA0C335E1844EB1C50DA46C2
:100560005146E7FB0201C5F313044FEA0B3343EA9C
:1005700014534FEA0432019C43EA0603A4F10C042D
:100580000294009CCDE900B400F076F903B0BDE818
:10059000F08F00200146F9E72DE9F04D81EA0304D0
:1005A00004F0004B21F0004514464FF0000A23F000
:1005B000004150EA050220D054EA01021DD0C5F3E3
:1005C0000A570246C5F31303C1F31300C1F30A56D9
:1005D00040F4801543F48013A7EB0608101BD646A1
:1005E00008F2FD3873EB050002D308F1010801E0C1
:1005F00092185B41B8F1000F03DA00200146BDE814
:10060000F08D00204FF48011064684460EE0171B43
:1006100073EB050705D3121B63EB050306434CEA96
:10062000010C49084FEA300092185B4150EA01077B
:10063000EDD152EA030012D082EA040083EA0501F8
:10064000084305D0101BAB4106D20122002306E06F
:1006500000224FF0004302E06FF0010253101AEB4A
:1006600006004CEB085110EB0A0041EB0B01BDE812
:10067000F04D00F0F2B830B404469623080021464D
:1006800004D0B62330BC002200F09BB820460021E5
:10069000F8E70EB540F2334102910021CDE9001197
:1006A0000A460B4600F0E8F803B000BD0EB540F274
:1006B000334202920022CDE90022134600F0DCF81A
:1006C00003B000BD00F0004230F000400AD0C10D80
:1006D00001F56071C0F3160042EA0151C2084007FB
:1006E0001143704700200146704701F0004330B4C9
:1006F00021F0004150EA010206D00A0DA2F5607215
:10070000C1F31301002A02DC30BC00207047440F03
:1007100044EAC104C100E01830BC00EBC25000F054
:1007200047B830B50B46014600202022012409E0DD
:1007300021FA02F59D4205D303FA02F5491B04FA9A
:1007400002F52844151EA2F10102F1DC30BD202A79
:1007500004DB203A00FA02F1002070479140C2F118
:10076000200320FA03F3194390407047202A04DB4A
:10077000203A21FA02F00021704721FA02F3D0401A
:10078000C2F120029140084319467047202A06DB37
:10079000CB17203A41FA02F043EAE07306E041FA4F
:1007A00002F3D040C2F1200291400843194670473D
:1007B0000029A8BF7047401C490008BF20F0010075
:1007C000704710B4B0FA80FC00FA0CF050EA010453
:1007D00004BF10BC704749B1CCF1200421FA04F4E5
:1007E00011FA0CF118BF012121430843A3EB0C01BE
:1007F000CB1D4FEA00614FEA102042BF002010BC21
:10080000704700EBC35010440029A4BF10BC7047D0
:10081000401C490008BF20F0010010BC704710B513
:1008200041000CD0C0F3C751962908DC7E2909DCB1
:1008300006DB410204D000F0004040F07E5010BDC5
:10084000002010BDC1F19604C4F1200100FA01F1AD
:10085000E040FFF7ADFFA04010BD10B5141E73F1CE
:10086000000408DA401C41F1000192185B411A4370
:1008700001D120F0010010BD2DE9F04D92469B46BC
:1008800011B1B1FA81F202E0B0FA80F22032904662
:10089000FFF75DFF04460F4640EA0A0041EA0B01FC
:1008A00053465A46084313D0114653EA010019D063
:1008B000C8F140025046FFF759FF05460E46504624
:1008C00059464246FFF743FF084305D0012004E0A4
:1008D00020463946BDE8F08D0020054346EAE07623
:1008E0002C4337430A986305E40AA0EB0800002272
:1008F000FD0A44EA47540A3002D500200146E9E7E0
:10090000010510196941DDE9084500196941BDE893
:10091000F04DA2E7C1F30A52C1F3130140F2FF33D5
:1009200041F480119A4202DA00200146704740F2F9
:1009300033439A42A2F2334202DC5242FFF716BF1F
:10094000FFF705BF30B5041E71F1000404DB4FF062
:100950000044404264EB0101141E73F1000405DB06
:100960001C464FF00043524263EB0403994208BF18
:10097000904230BD064C074D06E0E06840F00103B0
:1009800094E8070098471034AC42F6D3FFF712FC06
:10099000C4160208E416020870B58C1810F8015B42
:1009A00015F0070301D110F8013B2A1106D110F808
:1009B000012B03E010F8016B01F8016B5B1EF9D10C
:1009C0002B0705D40023521E0DD401F8013BFAE792
:1009D00010F8013BCB1A921C03E013F8015B01F8FD
:1009E000015B521EF9D5A142D8D3002070BD000092
:1009F0002DE9F041044600270D46006808F0BCF9D7
:100A00000646206808F0B0F9304359D02068C16824
:100A10002C4E890105D5617E012902D1217E012953
:100A20000BD0022D1DD0206808F0A6F9B8B12068BF
:100A30008168C1F3400169B111E00125224902E05A
:100A40008F422ED27F1C0268D2435206F8D4402136
:100A50000160E8E78168314041F010018160012DBB
:100A600011D0206808F080F948B120688168C1F38E
:100A7000400121B98168314041F020018160022D9F
:100A800008D0032D04D0042506F024FA064613E00E
:100A90000C25F9E70825F7E706F01CFA801B052866
:100AA0000AD9A06D40F01000A065E06D40F0010093
:100AB000E0650120BDE8F081206880682842EBD124
:100AC0000020F7E7C0FFFF7F000040A310B5846A55
:100AD000A16D11F0500F06D0A16DC90625D5204695
:100AE00005F0F0FB10BDA06D40F40070A06520681B
:100AF0000168090716D508F047F978B12068C06881
:100B0000800400280ADBA06D20F48070A065A06D31
:100B1000C00403D4A06D40F00100A065204605F09C
:100B20008DFB10BDC0688007EBE7216D496BBDE808
:100B30001040084710B5806A816D41F04001816521
:100B4000C16D41F00401C16505F0BCFB10BD10B5DD
:100B5000806A05F095FB10BD70B504460068816899
:100B60008268C1F3400112F0010F24D019BB8168E3
:100B700001F00D01012910D18168104A1140891C32
:100B8000816021680320086006F0A4F905460EE0A4
:100B900006F0A0F9401B022809D9A06D40F0100012
:100BA000A065E06D40F00100E065012070BD2068A7
:100BB0008068C007ECD1002070BD0000C0FFFF7F3F
:100BC00070B504460068816811F0010F28D1816872
:100BD000144A114215D18168D5432940491C8160CE
:100BE00006F078F9064616E0816811F0010F03D18E
:100BF00081682940491C816006F06CF9801B02283D
:100C000009D9A06D40F01000A065E06D40F0010032
:100C1000E065012070BD20680168C943C907E3D1C0
:100C2000002070BD3F0000802DED048B82B00020BD
:100C3000ADF800009FED168B9FED179B184C4FF4FD
:100C40007A75184804F0D8FF6421164804F05CFF58
:100C50000121144804F040FFADF80000114805F0F0
:100C600041F8BDF80000FFF714FD53EC182BFFF717
:100C700021FC53EC192BFFF71DFCFFF736FD00EEAE
:100C8000100A284684ED080A0CF078FCD9E7000029
:100C9000B4D934E70C684A3F00000000000024404B
:100CA00058010020580600202DED0A8B90B09FEDD2
:100CB000B10AB24C8DED0B0A8DED000A8DED060ADE
:100CC0008DED070A8DED010ADFF8AC928DED040A77
:100CD0004FF0000AA4F180054FF0010B04F18008E9
:100CE0004FF0FF31D8F85C000EF0C4FA95F82C00F4
:100CF000012802D0022828D04EE0A14A0020014657
:100D00004FF4007C02F540634FEA090632F8107098
:100D100000EE107A06EB8107B8EE400A87ED000A74
:100D200002EB4007801C7F8880B200EE107A03EB54
:100D30008107491CB8EE400A89B2604587ED000A78
:100D4000E4D36089401C608126E08D4A4FF4007036
:100D5000002102F540634FF4806C4E4632F810706B
:100D600000EE107A06EB8107B8EE400A87ED000A24
:100D700002EB4007801C7F8880B200EE107A03EB04
:100D80008107491CB8EE400A89B2604587ED000A28
:100D9000E4D3A089401CA0814FF4807605AA314697
:100DA00075480CF0EBF8744A3346114601F62C10E6
:100DB0000BF092FF0020734B01464A4602EB80077E
:100DC000001D97ED000A03EB8107491C80B287EDF7
:100DD000000A89B2FF28F1D96A4A4023114601F579
:100DE00080700BF079FF674A4023114601F5AC7023
:100DF0000BF072FF0BAA402162480CF0BFF86A4664
:100E0000314661480CF0BAF80AAB01AA40215D48AE
:100E10000BF0F2FF0AAB06AA31465B480BF0ECFF81
:100E20000AAB04AA402157480CF05EF80AAB07AAA7
:100E3000314655480CF058F8544E00231A460BA979
:100E4000F06D0EF07DF800231A466946B06E0EF084
:100E500077F8606C0746FFF735FC41EC180B206C07
:100E60000646FFF72FFC41EC190B0198FFF72AFC0F
:100E70009FED47BB53EC1B2BFFF71CFB9FED46CBB5
:100E800053EC1C2BFFF788FB53EC192BFFF712FBDD
:100E900053EC182BFFF767FAFFF727FC08EE100A50
:100EA0003846FFF70FFC41EC190B3046FFF70AFC00
:100EB00041EC1A0B0498FFF705FC53EC1B2BFFF7D2
:100EC000F9FA53EC1C2BFFF767FB53EC1A2BFFF7D7
:100ED000F1FA53EC192BFFF746FAFFF706FCD4EDB5
:100EE0000F1A9FED2F1A00EE100A284EC1EE810A4C
:100EF000803600231A4606A988EE201A84ED121ABD
:100F000080EE201A84ED131A70680EF019F8002391
:100F10001A4607A9B0680EF013F8224905988842CE
:100F200002DD85F802B001E085F802A094ED1E0A0A
:100F3000DDED000A94ED1D1A1B4900EE810A10EE4A
:100F4000100A884202DB85F804A001E085F804B0AD
:100F50000D480DF02FFB00231A4619464646D8F8D7
:100F600060000DF0EDFF00231A461946B06E0DF03B
:100F7000E7FFB5E600000000200F0020D8000020A9
:100F8000200700202017002020130020D801002077
:100F9000B4D934E70C684A3F393939393939E93F2E
:100FA00000007A4400007A45CDCC6C40FEE700009A
:100FB0004C4FDFF8348101264C4C002594F82B006F
:100FC00058BB4FF400614FF0904005F075FF0028CA
:100FD000E07C0DD0052807D9E67525766576A576DF
:100FE000A4F86850E574A57794F82B0018B114E0C4
:100FF000401CE074F8E74FF48071384605F05CFF60
:101000000028207D0DD0052807D9E5752676657660
:10101000A576A4F868502575A57794F82A0018B12C
:101020002CE0401C2075F8E70821384605F044FF05
:101030000028607D0DD0052807D9E57525766676F0
:10104000A576A4F868506575A57794F82A0018B1BC
:1010500014E0401C6075F8E74FF40071384605F065
:101060002BFF0028A07D17D0052807D9E575257628
:101070006576A676A4F86850A575A57780214046C8
:1010800005F01AFF0028B4F8680008D0C01E6128D7
:1010900018D2207F98B115E0401CA075EEE7401CE7
:1010A00080B2A4F86800642818D394F82900A8B97D
:1010B000E57525766576A576E57626770CE094F8D5
:1010C000290020B194F82900012805D006E0E57533
:1010D00025766576A576E676A4F868500A200CF0A9
:1010E0004DFA6BE700040048000800485800002053
:1010F0002DED088B84B000209FED6D0A00908DEDE2
:10110000000AADF804006B4E9FED6B9B9FED6CAB3E
:101110006D4DA5F18004DFED6D8A5E2165480BF011
:101120008EFFB6F8C200B0EE408AADF80400B6F803
:10113000B20038B93E215F480BF081FF85ED050A0A
:1011400084ED180AB6F9B200012806D0022814D09E
:10115000032817D0042852D037E018EE100AFFF702
:10116000B1FA41EC100B51EC190B53EC102BFFF7BB
:1011700013FA41EC1B0B606B1AE094ED060A84ED48
:10118000180A22E018EE100AFFF79CFA41EC100B47
:1011900051EC190B53EC102BFFF7FEF941EC1B0B34
:1011A000BDF804004A4900EB800001EBC000406933
:1011B000FFF788FA53EC1B2BFFF77CF953EC1A2B43
:1011C000FFF7D1F8FFF791FA206694ED180A95ED34
:1011D000061A002260EE280A95ED070A11463D48DE
:1011E00000EE810ABCEEC00A8DED000A10EE103A46
:1011F00005F00EFB5FF064000CF0C0F98DE718EE0F
:10120000100AFFF75FFA41EC100B51EC190B53EC8D
:10121000102BFFF7C1F99FED301B53EC112BFFF79B
:10122000A2F8FFF762FA00EE100A002284ED180A15
:1012300060EE280A95ED061A95ED070A1146254835
:1012400000EE810ABCEEC00A8DED000A10EE103AE5
:1012500005F0DEFA01200CF091F918EE100AFFF704
:1012600031FA41EC100B51EC190B53EC102BFFF73A
:1012700093F953EC1A2BFFF776F8FFF736FA00EEE6
:10128000100A002284ED180A60EE280A95ED061A6D
:1012900095ED070A11460F4800EE810ABCEEC00A20
:1012A0008DED000A10EE103A05F0B2FA1320A3E714
:1012B00000000000FC18002000000000000030408A
:1012C00000000000000010405801002000004C43C6
:1012D000A832002008070020000000000000244081
:1012E000014805F012BB0000C0060020014805F0CF
:1012F0000CBB0000A4420020014805F006BB000022
:101300005C420020014805F000BB00008441002041
:10131000014805F0FABA00003C410020014805F000
:10132000F4BA0000CC410020014805F0EEBA0000FC
:1013300014420020014805F0E8BA0000F440002003
:10134000014805F0E2BA0000AC40002030B590F84A
:10135000444004F01C050124AC40056C6C6004683A
:1013600063608368102B036803D099600068C260D3
:1013700030BD9A600068C16030BD00002DED028B69
:1013800082B04FF0000B8DF804B09FEDFE8ADFF8BD
:10139000FCA3DFEDFD8AFE4F8DED018A0AF1800985
:1013A000684654469AED090A0BF041FEBDF800006C
:1013B000F64D27F85C0BBDF80200803D27F85A0C6B
:1013C000A87827F8480C684694ED0C0A0BF02FFE1D
:1013D000BDF8000027F8300CBDF8020027F82E0CED
:1013E000684694ED0D0A0BF022FEBDF8000027F8C8
:1013F0002C0CBDF8020027F82A0C684694ED0E0A62
:101400000BF015FEBDF8000027F8280CBDF802000F
:1014100027F8260C05F520708046006A98F82410FD
:1014200027F8200C000C40EA014027F81E0CB5F804
:10143000480027F81C0C684694ED060A0BF0F7FDEF
:10144000BDF8000027F8140CBDF8020027F8120CB4
:101450002879388068464E4699ED010A0BF0E7FD81
:10146000BDF800007882BDF80200B882684694EDAD
:10147000080A0BF0DCFDBDF800003883BDF802005F
:10148000788394ED080AD4ED070A684630EE600AC6
:101490000BF0CDFDBDF80000B883BDF80200F88365
:1014A000B5F844003886B5F8460078866879F8863D
:1014B000684696ED040A0BF0BAFDBDF800003887C7
:1014C000BDF802007887684696ED030A0BF0AFFD81
:1014D000BDF80000B887BDF80200F887D8E90623F8
:1014E000D8E904015C3F161A73EB010608D2801A92
:1014F00061EB0301FFF7BFF800EE100A684602E057
:101500006846B0EE480A0BF092FDBDF8000027F8DF
:101510009C0FBDF802007880B5F85600B880B5F889
:101520005800F880287A3881E8797881B5F8720017
:1015300027F8120FA84668464E4699ED080A0BF0A8
:1015400076FDBDF80000F882BDF8020091493883AD
:10155000684691ED000A0BF06AFDBDF80000388482
:10156000BDF8020078846846B0EE680A0BF05FFDB3
:10157000BDF80000B884BDF80200F884B5F840005A
:10158000A7F842006846A24694ED120A1E370BF0F7
:101590004EFDBDF800003885BDF80200788568462C
:1015A00094ED140A0BF043FDBDF80000B885BDF8BA
:1015B0000200F885684694ED160A0BF038FDBDF878
:1015C00000003886BDF80200788694ED120AD4ED4A
:1015D000130A684630EE600A0BF029FDBDF80000E2
:1015E000B886BDF80200F88694ED140AD4ED150A09
:1015F000684630EE600A0BF01AFDBDF8000038872F
:10160000BDF80200788794ED160AD4ED170A6846F3
:1016100030EE600A0BF00BFDBDF80000B887BDF896
:101620000200F887684696ED0F0A0BF000FDBDF842
:101630000000A7F84400BDF80200A7F84600E87FC4
:10164000CC3F002875D1002606EB860207EBC204CA
:10165000514894F8201100EBC20500F8321094F8BC
:1016600022116970B4F82401A88094F82601A870AA
:1016700094F82801A871B4F82A01288104F596701D
:1016800000210BF0DCFC85ED030A04F598700021C5
:101690000BF0D5FC85ED040AA87920B1012810D003
:1016A00004280ED020E095ED050A3C49BDEEC00AA5
:1016B00010EE100AA4F8340110EE100A21F82600EA
:1016C00017E095ED050A68460BF0B1FCBDF8000087
:1016D000A4F834013149BDF80220A4F8362121F8DC
:1016E000260001EB86004280A8790228DBD003287F
:1016F000D9D004F59C7000210BF0A1FC85ED080AFF
:1017000004F59E7000210BF09AFC85ED090A04F5A2
:10171000A07000210BF093FC85ED060A04F5A27081
:1017200000210BF08CFC761CB6B285ED070A282E42
:101730008AD3B7F9D600A0F58071E13911D1A7F8A5
:10174000D6B00DF08FF812480DF0BAFA8DF80400FB
:101750000CF0F4F90DF0A6F800200BF02BFE03F0CE
:10176000E5FEB7F9D60045F23341C8427DD1A7F86E
:10177000D6B0684654469AED0F0A0BF058FCBDF8F7
:1017800000000DE00000000014AEAF40D8000020C3
:10179000FC18002024000020A83200205C2000203B
:1017A0007883BDF80200B883684694ED100A0BF008
:1017B0003EFCBDF80000F883BDF80200388468469E
:1017C00094ED110A0BF033FCBDF800007884BDF8ED
:1017D0000200B88498F80310684600EE101AB8EEBC
:1017E000400A0BF024FCBDF80000F884BDF80200AC
:1017F0003885684694ED1D0A0BF019FCBDF8000011
:10180000A7F86600BDF80200A7F86800684694EDE6
:101810001E0A0BF00CFCBDF80000A7F86A00BDF82A
:101820000200A7F86C00B7F88000208068464C469C
:1018300099ED060A0BF0FBFBBDF80000A7F8B40019
:10184000BDF80200A7F8B600684694ED070A0BF051
:10185000EEFBBDF80000A7F8B800BDF80200A7F83D
:10186000BA000CF0FFFF474800E00CE00DF028FA4A
:101870008DF804000CF062F90DF014F800200BF064
:1018800099FD03F053FEB7F9D80042F24631C84241
:101890000AD098F81F1019B9B8F87C00012803D0B5
:1018A0000A200BF06BFE7BE559463C46A7F8D8B002
:1018B00000204FF46C721BE00D281BD00E2819D0AD
:1018C0000F2817D0102815D0112813D0122811D0A6
:1018D00033280FD034280DD035280BD0362809D026
:1018E0005A2807D05B2805D05C2803D05D2801D09A
:1018F00024F81010401C80B29042DDD30A2024F856
:10190000C80F44F6206060826846B3EE060A0BF00A
:101910008EFBBDF80000A082BDF80200E0826846A0
:10192000B3EE0A0A0BF083FBBDF800002083BDF87C
:101930000200608368469FED140A0BF078FBBDF847
:10194000001024F8461CBDF8020024F8440C24F8CA
:10195000401C24F83E0C6180A0806420E08409488B
:101960000DF0AEF98DF80400BFF34F8F0748016802
:10197000074A01F4E06111430160BFF34F8F00BFDC
:10198000FDE70000FC1800200000E1470CED00E03E
:101990000400FA05704700002DED0C8B8CB09FED14
:1019A0004A0A4A4F8DED050A8DED000A8DED010AB8
:1019B0004FF0FF3907F18008A7F180049FED449BA9
:1019C0009FED45AB9FED46DA4946786E0DF052FC2F
:1019D00044494022084607F04BF9424A4023114649
:1019E00001F5D8700BF078F905AA40213D480BF0BD
:1019F000C5FA08AB6A4640213A480BF0FDF908AB3E
:101A000001AA402137480BF06FFA00231A4605A9B6
:101A1000D8F864000DF094FA606C0646FEF752FEAA
:101A200041EC1B0B206C0546FEF74CFE41EC180BFD
:101A30000098FEF747FE53EC192BFEF73BFD53ECE5
:101A40001A2BFEF7A9FD53EC182BFEF733FD53ECD0
:101A50001B2BFEF788FCFEF748FE08EE100A304606
:101A6000FEF730FE41EC1C0B2846FEF72BFE41EC46
:101A70001B0B0198FEF726FE53EC192BFEF71AFDFF
:101A800053EC1A2BFEF788FD53EC1B2BFEF712FDCF
:101A900053EC1C2BFEF767FCFEF727FE94ED0F1AA4
:101AA00000EE100A0023C1EE0D0A1A46194688EE10
:101AB000201A84ED161A80EE201A84ED171A386F5A
:101AC0000DF03EFA80E70000000000005801002001
:101AD000B4D934E70C684A3F393939393939E93FE3
:101AE00000007A44201700208CB00122D1034FF06F
:101AF000904005F0EAF90CF0FBFA01200CF0E8FA4E
:101B00000BF076FA0CF066FBDFF80C84B8F9DA001B
:101B100000EBD07040100BF031FD01200BF04AFCBF
:101B2000DFF8F893DFF8F8B3FE4FFF4D4FF0000AEF
:101B3000A87C012803D0687F012806D011E000208E
:101B40000CF0C6FA0BF094FC56E095F82E00012834
:101B500018D0022816D0032814D0042812D0052843
:101B60003DD0B5F86C0001284AD002284FD0032898
:101B700054D0042857D005285CD0062861D0072807
:101B80005FD05AE000200CF0A3FA002108460CF0C8
:101B90001BFB5C460123D4E90012E4A00CF0B8FB67
:101BA000D7E900120123E3A00CF0B2FB0F210020C3
:101BB0000CF00AFBD4E900120123DFA00CF0A8FB13
:101BC0001E2100200CF000FBD4E900120123DCA050
:101BD0000CF09EFBD7E900120123DAA00AE00020F6
:101BE0000CF076FA0F2100200CF0EEFADBE900127F
:101BF0000123D5A00CF08CFB0CF0ECFA03F0A1BB98
:101C000095F8251009B1062115E0092113E095F892
:101C1000251009B108210EE001210CE095F82510EE
:101C200031B9282107E095F8251009B1042102E017
:101C3000022100E0052185F82210E97D012902D06A
:101C40000FE00321F7E7B5F8701051B1EA7F42B910
:101C5000491EA5F8701085F817A085F81BA085F817
:101C600020A0297E012910D1B5F8701095F8222006
:101C700091420AD2EA7F42B9491CA5F8701085F852
:101C800018A085F81BA085F820A0697E012927D11E
:101C900030B3E97E21BBE97F11BB03280CD1B5F835
:101CA000700048B1B5F86E0010B1401EA5F86E0086
:101CB000504685F819A011E0B5F86A0010B1401E31
:101CC000A5F86A00A248B5F86A1030F81100A5F826
:101CD0006C0085F819A05046A5F870A085F8200082
:101CE000A87E012801D1E87E18B1E87E01282FD016
:101CF0003AE0E87F58BBB5F86C0003280FD1B5F87F
:101D0000700060B1B5F86E00282804D20C2802D209
:101D1000401CA5F86E00504685F81AA015E0B5F8ED
:101D20007A10B5F86A00491E884202DA401CA5F80C
:101D30006A008748B5F86A1030F81100A5F86C0001
:101D400085F81AA05046A5F870A085F820000BE091
:101D5000B5F8700040B1E87F20B10020E87785F841
:101D60001BA012E00120F9E7287F01280DD1B5F86A
:101D7000700050B995F8250058B1002085F825006D
:101D800085F81CA0012085F82900E87D012802D0F3
:101D90000CE00120F2E7E87F012807D195F8200048
:101DA00010B1401E85F8200085F817A0287E012874
:101DB00009D1E87F012806D195F82000012085F897
:101DC000200085F818A0287F01280DD1B5F87000F3
:101DD00050B10CF07BF885F81CA085F81BA085F8A5
:101DE00025A0012085F82900B5F8740001287DD1CF
:101DF000B5F86C000128FAD1B5F87000002876D14A
:101E00000CF066F9002108460CF0DEF9D7E9001263
:101E1000012350A00CF07CFAA878012805D095F891
:101E2000250088B3012842D065E095F8210050B123
:101E3000D7E90012012348A00CF06AFA95F82500B2
:101E4000012814D017E00F2100200CF0BDF95C46EA
:101E50000123D4E9001241A00CF05AFA1E210020FF
:101E60000CF0B2F9D4E9001201233EA0E4E700210E
:101E700037200CF02EFB00213C200CF02AFB2B21FC
:101E80003A200CF0B5FAB3E1FFE700200CF020F99E
:101E9000002108460CF098F9D7E9001201232DA083
:101EA0000CF036FA00211C200CF08EF914E0002012
:101EB0000CF00EF9002108460CF086F9D7E9001263
:101EC000012324A00CF024FA00211C200CF07CF942
:101ED000002137200CF0FDFA00213C200CF0F9FA2B
:101EE0002B213A200CF084FA0F2101E006E287E171
:101EF00000200CF069F9B5F87E00012853D11222B8
:101F00001AA102A8FEF723FA122102A80CF016FA71
:101F10002021002034E00000FC180020A83200201E
:101F2000000000200800002058000020CEE1EDEE67
:101F3000E20000002D000000EBE5EDE8E500000008
:101F4000CFCE00002E2E2E00D3D1CFC5D8CDCE00BF
:101F5000F83900204943500020000000CEC1D0DBFA
:101F6000C2000000C4C0D2D7C8CAC000D1CAC720AE
:101F7000E2E8E1F0EEF3F1EAEEF0E5EDE8FF000073
:101F80000CF022F9FE48006BFEF79CFBCDE9000146
:101F9000FCA24021FD480AF073F9D7E900120123A1
:101FA000FA480CF0B5F9B5F87E0002281DD11122CF
:101FB000F7A102A8FEF7CBF9112102A80CF0BEF997
:101FC000202100200CF000F9ED48406BFEF77AFB71
:101FD000CDE90001EBA24021EC480AF051F9D7E924
:101FE00000120123E9480CF093F9B5F87E000328AC
:101FF0001DD11422EBA102A8FEF7A9F9142102A811
:102000000CF09CF9202100200CF0DEF8DC48806BFD
:10201000FEF758FBCDE90001DAA24021DB480AF0C7
:102020002FF9D7E900120123D8480CF071F9B5F85F
:102030007E0004281DD11422E0A102A8FEF787F932
:10204000142102A80CF07AF9202100200CF0BCF831
:10205000CB48806CFEF736FBCDE90001C9A24021D8
:10206000CA480AF00DF9D7E900120123C7480CF05D
:102070004FF9B5F87E0005281DD11722D6A102A878
:10208000FEF765F9172102A80CF058F9202100206D
:102090000CF09AF8BA48006DFEF714FBCDE9000188
:1020A000B8A24021B9480AF0EBF8D7E900120123A1
:1020B000B6480CF02DF9B5F87E0006281DD1142283
:1020C000CBA102A8FEF743F9142102A80CF036F9BF
:1020D000202100200CF078F8A948806DFEF7F2FA74
:1020E000CDE90001A7A24021A8480AF0C9F8D7E924
:1020F00000120123A5480CF00BF9B5F87E00072863
:1021000024D11422C1A102A8FEF721F9142102A8AA
:102110000CF014F9202100200CF056F8984890EDAE
:10212000120AD0ED130A30EE600A10EE100AFEF724
:10213000C9FACDE9000193A2402194480AF0A0F821
:10214000D7E90012012391480CF0E2F8B5F87E00BF
:10215000082824D11422B3A102A8FEF7F8F814210C
:1021600002A80CF0EBF81E2100200CF02DF884489A
:1021700090ED140AD0ED150A30EE600A10EE100A48
:10218000FEF7A0FACDE900017EA240217F480AF0C7
:1021900077F8D7E9001201237C480CF0B9F8B5F8BC
:1021A0007E00092824D11422A4A102A8FEF7CFF8AA
:1021B000142102A80CF0C2F8202100200CF004F831
:1021C0006F4890ED160AD0ED170A30EE600A10EE57
:1021D000100AFEF777FACDE900016AA240216B48A8
:1021E0000AF04EF8D7E90012012368480CF090F885
:1021F00085F81FA085F82AA0B5F86C0001287DD1CC
:10220000B5F87000012848D195F82500002876D14E
:102210000BF05EFF002108460BF0D6FF0123AFF262
:10222000CC20D7E900120CF073F800211C200BF031
:10223000CBFF002137200CF014F900213C200CF0DA
:1022400048F90F2100200BF0BFFF1222AFF2E4216A
:1022500002A8FEF77CF8122102A80CF06FF82021EA
:1022600000200BF0B1FF4648006BFEF72BFACDE9DA
:10227000000178A2402145480AF002F8D7E900128F
:10228000012342480CF044F885F81FA0012085F88E
:102290002A00B5F86C000128B1D1B5F87000022809
:1022A0004AD195F82500002866D10BF011FF0021D6
:1022B00008460BF089FF0123AFF26830D7E900121E
:1022C0000CF026F800211C200BF07EFF00213720A7
:1022D0000CF0C7F800213C200CF0FBF80F21002087
:1022E0000BF072FF11222AA102A8FEF730F811218B
:1022F00002A80CF023F82021002001E05BE1B4E209
:102300000BF062FF1E48406BFEF7DCF9CDE90001DF
:1023100050A240211D4809F0B3FFD7E90012012364
:102320001A480BF0F5FF85F81FA0012085F82A0058
:10233000B5F86C000128AFD1B5F8700003281CD1A6
:1023400095F82500002819D10BF0C2FE002108469F
:102350000BF03AFF0123AFF20440D7E900120BF073
:10236000D7FF00211C200BF02FFF002137200CF09D
:1023700078F800213C2071E0CFE29EE026E30000E7
:10238000D8000020252E303166000000063A0020DB
:10239000D1CAC720E2E8E1F0EEF1EAEEF0EEF1F2A8
:1023A000E8000000D1CAC720E2E8E1F0EEEFE5F076
:1023B000E5ECE5F9E5EDE8FF00000000C0ECEFEB2F
:1023C000E8F2F3E4E020E2E8E1F0EEF3F1EAEEF027
:1023D000E5EDE8FF00000000C0ECEFEBE8F2F3E40D
:1023E000E020E2E8E1F0EEF1EAEEF0EEF1F2E800F2
:1023F000C0ECEFEBE8F2F3E4E020E2E8E1F0EEEF2E
:10240000E5F0E5ECE5F9E5EDE8FF0000D0E0E7EC0C
:10241000E0F520E2E8E1F0EEF3F1EAEEF0E5EDE8D8
:10242000FF000000D0E0E7ECE0F520E2E8E1F0EEAC
:10243000F1EAEEF0EEF1F2E800000000D0E0E7ECA7
:10244000E0F520E2E8E1F0EEEFE5F0E5ECE5F9E5B6
:10245000EDE8FF00252E3033660000000CF039F85F
:102460000F2100200BF0B0FE1422AFF2C80102A829
:10247000FDF76DFF142102A80BF060FF2021002062
:102480000BF0A2FEFE48806BFEF71CF9AFF23C0297
:10249000CDE900014021FB4809F0F2FED7E9001226
:1024A0000123F8480BF034FF85F81FA0012085F8C0
:1024B0002A00B5F86C0001287DD1B5F87000042819
:1024C00045D195F82500002876D10BF001FE0021BA
:1024D00008460BF079FE0123AFF28850D7E90012CD
:1024E0000BF016FF002137200BF0BBFF00213C2032
:1024F0000BF0EFFF0F2100200BF066FE1822AFF269
:10250000441102A8FDF723FF182102A80BF016FFC3
:10251000202100200BF058FED948806CFEF7D2F83D
:10252000AFF2D002CDE900014021D64809F0A8FE63
:10253000D7E900120123D3480BF0EAFE85F81FA06B
:10254000012085F82A00B5F86C000128B4D1B5F84F
:102550007000052848D195F8250000287ED10BF0A1
:10256000B7FD002108460BF02FFE0123AFF21C60DF
:10257000D7E900120BF0CCFE002137200BF071FFE1
:1025800000213C200BF0A5FF0F2100200BF01CFECA
:102590001722AFF2BC1102A8FDF7D9FE172102A83D
:1025A0000BF0CCFE202100200BF00EFEB448006D95
:1025B000FEF788F801E055E260E2AFF26812CDE97B
:1025C00000014021AF4809F05BFED7E9001201236A
:1025D000AC480BF09DFE85F81FA0012085F82A006D
:1025E000B5F86C000128B1D1B5F87000062847D1C4
:1025F00095F8250000287CD10BF06AFD00210846E3
:102600000BF0E2FD0123AFF2B460D7E900120BF04A
:102610007FFE002137200BF024FF00213C200BF02F
:1026200058FF0F2100200BF0CFFD1A22AFF24021FE
:1026300002A8FDF78CFE1A2102A80BF07FFE2021D4
:1026400000200BF0C1FD8E48806DFEF73BF8AFF225
:10265000FC12CDE9000140218A4800E054E209F073
:102660000FFED7E90012012386480BF051FE85F8D2
:102670001FA0012085F82A00B5F86C000128B2D10E
:10268000B5F8700007284ED195F825000028AAD18A
:102690000BF01EFD002108460BF096FD0123AFF262
:1026A0004C70D7E900120BF033FE002137200BF0FD
:1026B000D8FE00213C200BF00CFF0F2100200BF076
:1026C00083FD1522AFF2BC2102A8FDF740FE1521C3
:1026D00002A80BF033FE202100200BF075FD6848A6
:1026E00090ED120AD0ED130A30EE600A10EE100AD7
:1026F00000E059E2FDF7E6FFAFF2A822CDE90001C4
:102700004021604809F0BCFDD7E9001201235D4873
:102710000BF0FEFD85F81FA0012085F82A00B5F812
:102720006C000128ABD1B5F8700008284CD195F8A1
:1027300025000028A3D10BF0CBFC002108460BF0AC
:1027400043FD0123AFF2F470D7E900120BF0E0FD76
:10275000002137200BF085FE00213C200BF0B9FE54
:102760000F2100200BF030FD1422AFF2483102A8F7
:10277000FDF7EDFD142102A80BF0E0FD2021002063
:102780000BF022FD3E4890ED140AD0ED150A30EE14
:10279000600A10EE100AFDF795FFAFF24832CDE95E
:1027A00000014021374809F06BFDD7E900120123F1
:1027B00034480BF0ADFD85F81FA0012085F82A00F4
:1027C000B5F86C000128ADD1B5F87000092848D1E2
:1027D00095F825000028A5D10BF07AFC00210846C9
:1027E0000BF0F2FC0123AFF69400D7E900120BF0D6
:1027F0008FFD002137200BF034FE0F2100200BF05D
:10280000E3FC1722AFF2CC3102A8FDF7A0FD17219F
:1028100002A80BF093FD202100200BF0D5FC1848F6
:1028200090ED160AD0ED170A30EE600A10EE100A8D
:10283000FDF748FFAFF2E432CDE900014021114835
:1028400009F01EFDD7E9001201230E480BF060FDD0
:1028500085F81FA0012085F82A00B5F86C00012832
:10286000B1D1B5F87000012853D195F825000128A1
:10287000A9D100200BF02CFC0021084604E0000048
:10288000D8000020063A00200BF09EFC0123AFF692
:102890003C10D7E900120BF03BFD002132200BF079
:1028A000E0FD002137200BF014FE00213C200BF04E
:1028B00010FE0F2100200BF087FC1822FAA102A8BD
:1028C000FDF745FD182102A80BF038FD202100205E
:1028D0000BF07AFCE87F012815D0B5F97E30F9A21B
:1028E0004021F94809F0CCFCD7E900120123F64851
:1028F0000BF00EFD012085F82A0000BFB5F86C0032
:10290000012806D08EE1F1480AF0F4FC85F82AA0EF
:10291000F4E7B5F87000022854D195F82500012895
:10292000F0D100200BF0D4FB002108460BF04CFC4A
:102930000123AFF6E010D7E900120BF0E9FC00210B
:1029400032200BF08EFD002137200BF0C2FD00215C
:102950003C200BF0BEFD0F2100200BF035FC1922AE
:10296000DBA102A8FDF7F3FC192102A80BF0E6FC9D
:10297000202100200BF028FCE87F01281BD0D34841
:10298000801C806AFDF79EFEAFF20862CDE900016F
:102990004021CD4809F074FCD7E900120123CA4850
:1029A0000BF0B6FC012085F82A0000BFB5F86C00DA
:1029B000012807D036E1C5482A300AF06BFB85F8BC
:1029C0002AA0F3E7B5F87000032853D195F8250045
:1029D000012897D100200BF07BFB002108460BF06B
:1029E000F3FB0123AFF69420D7E900120BF090FC23
:1029F000002132200BF035FD002137200BF069FD5E
:102A000000213C200BF065FD0F2100200BF0DCFBCA
:102A10001122B6A102A8FDF79AFC112102A80BF021
:102A20008DFC202100200BF0CFFBE87F01281AD07D
:102A3000A648801CC06AFDF745FEAFF2B862CDE93A
:102A400000014021A04809F01BFCD7E90012012336
:102A50009D480BF05DFC012085F82A00B5F86C005C
:102A6000012807D0DEE099482E300AF013FB85F8E4
:102A70002AA0F3E7B5F87000042841D195F82500A5
:102A800001287DD100200BF023FB002108460BF02C
:102A90009BFB0123AFF64430D7E900120BF038FC62
:102AA000002132200BF0DDFC002137200BF011FD5E
:102AB00000213C200BF00DFD0F2100200BF084FBCA
:102AC0000D228FA102A8FDF742FC0D2102A80BF0F8
:102AD00035FC202100200BF077FBEB7879A2402118
:102AE000794809F0CDFBD7E90012012376480BF0B5
:102AF0000FFC012085F82A00B5F86C0001283FD1B1
:102B0000B5F8700005284BD195F82500012837D17C
:102B100000200BF0DDFA002108460BF055FB0123E5
:102B2000AFF6D030D7E900120BF0F2FB00213220D3
:102B30000BF097FC002137200BF0CBFC00213C2050
:102B40000BF0C7FC0F2100200BF03EFB142270A1FC
:102B500002A8FDF7FCFB142102A80BF0EFFB2021DB
:102B600000200BF031FB5948801C006CFDF7AAFDDA
:102B7000CDE900016CA24021534809F081FB00E03F
:102B800050E0D7E9001201234F480BF0C1FB85F854
:102B90001FA0012085F82A00B5F86C00012841D15A
:102BA000B5F8700006283DD195F82500012839D1E7
:102BB00000200BF08DFA002108460BF005FB0123E5
:102BC000AFF67040D7E900120BF0A2FB00213220D3
:102BD0000BF047FC0F2100200BF0F6FA142254A151
:102BE00002A8FDF7B4FB142102A80BF0A7FB2021DB
:102BF00000200BF0E9FA3548801C406CFDF762FDBF
:102C0000CDE9000148A240212F4809F039FBD7E95E
:102C1000001201232C480BF07BFB85F81FA001203C
:102C200085F82A00B5F8760001283CD1B5F86C008B
:102C30000228FAD1B5F8700098BB00200BF048FAD2
:102C4000002108460BF0C0FAD7E9001201233EA08C
:102C50000BF05EFB2879012803D1B5F87600012836
:102C60000FD095F8250018B1002137200BF031FC6A
:102C700000213C200BF02DFCB5F87400012867D032
:102C800097E095F8210068B10123AFF63450D7E9F9
:102C9000001200BF0BF03CFB95F8250001286FD017
:102CA00072E0B3E055E02EE1CFE0F0E0ECE5F2F0C9
:102CB00020EDE020E3EBE0E2EDEEEC20ECE5EDFED4
:102CC0000000000025640000063A0020D600002025
:102CD000CFF0E5E4F3EFF0E5E4E8F2E5EBFCEDE05E
:102CE000FF20F3F1F2E0E2EAE0000000C0E2E0F0F1
:102CF000E8E9EDE0FF20F3F1F2E0E2EAE0000000B5
:102D0000D0E5E6E8EC20F4E8EBFCF2F0E0000000AF
:102D1000CAEEFDF4F4E8F6E8E5EDF220F3F1E8EBB5
:102D2000E5EDE8FF00000000252E303566000000CC
:102D3000CAEEFDF4F4E8F6E8E5EDF220F1ECE5F991
:102D4000E5EDE8FF00000000342D32300000000007
:102D50002BE00F2100200BF037FA01235C46AFF681
:102D60000460D4E900120BF0D3FA1E2100200BF00E
:102D70002BFA0123AFF61460D4E900128AE7FFE7CB
:102D8000002137200BF0A5FB00213C200BF0A1FB1C
:102D9000B5F87400012803D126213A200BF0D2FBAC
:102DA0002B213A200BF024FB2AE026213A200BF0BD
:102DB000C9FB2B213A200BF01BFB0F2100200BF04D
:102DC00003FA1222FEA102A8FDF7C1FA122102A8FD
:102DD0000BF0B4FA202100200BF0F6F9FD48406812
:102DE000FDF770FCAFF69412CDE900014021FA48DE
:102DF00009F046FAD7E900120123F7480BF088FAE8
:102E000085F82AA0B5F86C0002287CD1B5F87000CE
:102E1000012879D195F82500F0BB00200BF058F976
:102E2000002108460BF0D0F90123AFF2E400D7E906
:102E300000120BF06DFA002137200BF012FB0F216E
:102E400000200BF0C1F9DBE900120123E3A00BF035
:102E50005FFA202100200BF0B7F9DE488038806946
:102E6000FDF730FCCDE90001DDA24021DA4809F090
:102E700007FAD7E900120123D7480BF049FA85F881
:102E80001FA0012085F82A00B5F86C000228BCD1EB
:102E9000B5F87000012800E000E055D195F8250054
:102EA0000128B2D100200BF013F9002108460BF0E5
:102EB0008BF90123AFF27010D7E900120BF028FA5A
:102EC000002132200BF0CDFA002137200BF001FB5E
:102ED00000213C200BF0FDFA0F2100200BF074F9CB
:102EE0002522C1A102A8FDF732FA252102A80BF084
:102EF00025FA202100200BF067F9E87F0128B5486A
:102F00001DD0006801E041E21EE0FDF7DBFBAFF6FB
:102F10008C32CDE900014021AF4809F0B1F9D7E981
:102F200000120123AC480BF0F3F9012085F82A00C8
:102F30000BF050F9B5F86C00022805D0C2E20AF097
:102F4000A9F885F82AA0F3E7B5F87000022855D152
:102F500095F825000128F1D100200BF0B9F80021E7
:102F600008460BF031F90123AFF22420D7E9001213
:102F70000BF0CEF9002132200BF073FA002137203C
:102F80000BF0A7FA00213C200BF0A3FA0F21002040
:102F90000BF01AF926229EA102A8FDF7D8F92621E6
:102FA00002A80BF0CBF9202100200BF00DF9E87FEF
:102FB00001281CD087488038C06FFDF783FBAFF62F
:102FC0003C42CDE900014021834809F059F9D7E995
:102FD0000012012380480BF09BF9012085F82A009C
:102FE0000BF0F8F8B5F86C00022807D06AE27948CF
:102FF000001F0AF04FF885F82AA0F1E7B5F8700035
:10300000032853D195F82500012897D100200BF013
:103010005FF8002108460BF0D7F80123AFF2D82063
:10302000D7E900120BF074F9002132200BF019FAE5
:10303000002137200BF04DFA00213C200BF049FA1B
:103040000F2100200BF0C0F820227BA102A8FDF781
:103050007EF9202102A80BF071F9202100200BF04D
:10306000B3F8E87F01281AD05A488038406EFDF73F
:1030700029FBAFF6F042CDE900014021564809F0A6
:10308000FFF8D7E90012012353480BF041F9012062
:1030900085F82A00B5F86C00022807D012E24D48E6
:1030A0001C3809F0F7FF85F82AA0F3E7B5F870009F
:1030B000042853D195F82500012897D100200BF062
:1030C00007F8002108460BF07FF80123AFF28830A3
:1030D000D7E900120BF01CF9002132200BF0C1F9E6
:1030E000002137200BF0F5F900213C200BF0F1F91D
:1030F0000F2100200BF068F8182258A102A8FDF754
:1031000026F9182102A80BF019F9202100200BF054
:103110005BF8E87F01281AD02E488038C06EFDF792
:10312000D1FAAFF6A052CDE9000140212A4809F0BA
:10313000A7F8D7E90012012327480BF0E9F801208E
:1031400085F82A00B5F86C00022807D0BAE12148BA
:10315000143809F09FFF85F82AA0F3E7B5F870004E
:1031600005282BD195F82500012897D100200AF0D9
:10317000AFFF002108460BF027F80123AFF23840DB
:10318000D7E900120BF0C4F8002132200BF069F9E6
:10319000002137200BF09DF900213C200BF099F91C
:1031A0000F2100200BF010F8212233A102A8FDF717
:1031B000CEF8212102A80BF0C1F86FE096E00000E4
:1031C000D0E0F1F7E5F2EDEEE520E7EDE0F7E5ED33
:1031D000E8E5000058010020063A0020D2EEEA009F
:1031E000252E303266000000CDE8E6EDE8E920EF5C
:1031F000F0E5E4E5EB20E4E8E0EFE0E7EEEDE020E9
:10320000E4EBFF20EFE5F0E5F1F7E5F2E000000088
:10321000C2E5F0F5EDE8E920EFF0E5E4E5EB20E4C8
:10322000E8E0EFE0E7EEEDE020E4EBFF20EFE5F093
:10323000E5F1F7E5F2E00000D3F1F2E0E2EAE020A8
:10324000EDE8E6EDFFFF20EFF0E5E4F3EFF0E5E475
:10325000E8F2E5EBFCEDE0FF00000000D3F1F2E066
:10326000E2EAE020EDE8E6EDFFFF20E0E2E0F0E852
:10327000E9EDE0FF00000000D3F1F2E0E2EAE02037
:10328000E2E5F0F5EDFFFF20EFF0E5E4F3EFF0E528
:10329000E4E8F2E5EBFCEDE0FF0000002021002077
:1032A0000AF092FFE87F012819D0FE48806EFDF7F2
:1032B00009FAAFF63072CDE900014021FA4808F072
:1032C000DFFFD7E900120123F7480BF021F80120B6
:1032D00085F82A00B5F86C00022807D0F2E0F14822
:1032E000683009F0D7FE85F82AA0F3E7B5F870003A
:1032F000062853D195F82500012847D100200AF06F
:10330000E7FE002108460AF05FFF0123AFF2C85034
:10331000D7E900120AF0FCFF002132200BF0A1F8DF
:10332000002137200BF0D5F800213C200BF0D1F81C
:103330000F2100200AF048FF1922DCA102A8FDF7A6
:1033400006F8192102A80AF0F9FF202100200AF04E
:103350003BFFE87F01281AD0D248006FFDF7B2F991
:10336000AFF6E072CDE900014021CF4808F088FFB8
:10337000D7E900120123CC480AF0CAFF012085F8E2
:103380002A0000BFB5F86C00022807D09AE0C548B3
:10339000703009F07FFE85F82AA0F3E7B5F87000D9
:1033A00007284AD195F8250001287DD100200AF090
:1033B0008FFE002108460AF007FF0123AFF2786074
:1033C000D7E900120AF0A4FF002132200BF049F8DF
:1033D000002137200BF07DF800213C200BF079F81C
:1033E0000F2100200AF0F0FE1422AFF2DC6102A8E7
:1033F000FCF7ADFF142102A80AF0A0FF1E21002057
:103400000AF0E2FEA748406FFDF75CF9AFF2E86210
:10341000CDE900014021A44808F032FFD7E90012AD
:103420000123A1480AF074FF85F81FA0012085F848
:103430002A00B5F86C00022844D1B5F870000828BD
:1034400040D195F8250001283CD100200AF040FE2B
:10345000002108460AF0B8FE0123AFF21470D7E944
:1034600000120AF055FF002132200AF0FAFF0F2166
:1034700000200AF0A9FE1422AFF24C7102A8FCF75A
:1034800066FF142102A80AF059FF1E2100200AF04D
:103490009BFE8448806FFDF715F9AFF27472CDE999
:1034A00000014021804800E00CE008F0E9FED7E987
:1034B000001201237C480AF02BFF85F81FA0012091
:1034C00085F82A00B5F87800012801D002287BD1C0
:1034D000B5F86C00032841D1B5F87000F0BB0020AE
:1034E0000AF0F6FD002108460AF06EFED7E9001248
:1034F000012375A00AF00CFFB5F87800022817D157
:1035000000200AF0E5FD002108460AF05DFE5C4659
:103510000123D4E900126DA00AF0FAFE00211C205C
:103520000AF052FED4E90012012369A00AF0F0FE6D
:1035300095F8250018B1002137200AF0CAFF0021B4
:103540003C200AF0C6FFB5F87400012803D0B5F896
:103550007600012805D126213A2000E040E00AF05B
:10356000F1FF2B213A200AF043FF687901283BD074
:103570000F2100200AF028FEB5F8780002284DD06F
:10358000122254A102A8FCF7E2FE464C122102A826
:1035900022780AF0F5FE202100200AF015FEB4F989
:1035A000000000EB800109EBC1018879012846D0B9
:1035B000042844D091ED050ABDEEC00A10EE100AB1
:1035C00003B2AFF6001200E0FEE34021364808F0F7
:1035D00057FE3548012300BFD7E900120AF098FED4
:1035E00095F82500B8B3F0E395F8210010B1012358
:1035F0003DA0F1E70F2100200AF0E6FD5C46012323
:10360000D4E9001239A00AF083FE1E2100200AF03E
:10361000DBFDD4E90012012335A0DFE7092236A142
:1036200002A8FCF794FE092102A80AF087FE2021D7
:1036300000200AF0C9FDB5F8483032A2C3E7486956
:10364000FDF740F8AFF26842CDE90001402116488D
:1036500008F016FEBDE7FFE75FF00004B5F86C0068
:1036600003287DD1B5F87000661CB04218D1B5F8BA
:103670006E00A8B900200AF02BFD002108460AF0D0
:10368000A3FD234621A24021074808F0F9FDD7E910
:103690000012012304480AF03BFE0021372039E0E4
:1036A00088E00000D8000020063A0020D3F1F2E0C4
:1036B000E2EAE020E2E5F0F5EDFFFF20E0E2E0F0F5
:1036C000E8E9EDE0FF00000034383500D2C8CA0058
:1036D000C7D1CA00C7EDE0F7E5EDE8E520F0E5E386
:1036E000E8F1F2F0E020000020000000CDC5D2009B
:1036F000D1C2DFC7C8000000D1EEF1F2EEFFEDE865
:10370000E500000025642025250000003438352020
:10371000256400000AF0A5FE272C03D000213C20E0
:103720000AF0D7FE2B213A200AF062FE0F2100207A
:103730000AF04AFD1222AFF2640102A8FCF707FE6C
:103740002246122102A80AF01BFE202100200AF0C6
:103750003BFD04EB840109EBC1018879012800E0FD
:1037600004E21BD0042819D091ED050ABDEEC00A71
:1037700010EE100A03B2AFF268024021FC4808F0D4
:103780007FFDD7E900120123F9480AF0C1FD85F851
:103790001FA0B5F86C0003280CD0E7E14869FCF7DE
:1037A00091FFAFF2C452CDE900014021F04808F08A
:1037B00067FDE6E7B5F87000B0425BD1B5F86E0082
:1037C000012857D100200AF083FC002108460AF0A6
:1037D000FBFC2346AFF2CC024021E54808F050FD47
:1037E000D7E900120123E2480AF092FD00213720B8
:1037F0000AF037FE272C03D000213C200AF069FE96
:1038000026213A200AF09EFE2B213A200AF0F0FDF4
:103810000F2100200AF0D8FC1822D6A102A8FCF73C
:1038200096FD2246182102A80AF0AAFD20210020B8
:103830000AF0CAFCE87F04EB8401012813D019F8D0
:103840003130AFF234124021C94808F019FDD7E9F0
:1038500000120123C6480AF05BFD00BFB5F86C00FA
:10386000032807D082E108EBC10000F5907009F051
:1038700041FDF3E7B5F87000B0425BD1B5F86E00DA
:10388000022857D100200AF023FC002108460AF044
:103890009BFC2346AFF28C124021B54808F0F0FCA7
:1038A000D7E900120123B2480AF032FD0021372087
:1038B0000AF0D7FD272C03D000213C200AF009FE96
:1038C00026213A200AF03EFE2B213A200AF090FDF4
:1038D0000F2100200AF078FC1A22ADA102A8FCF703
:1038E00036FD22461A2102A80AF04AFD20210020B6
:1038F0000AF06AFCE87F04EB8401012813D009EB8D
:10390000C1004378AFF2F8124021994808F0B8FCA2
:10391000D7E90012012396480AF0FAFCB5F86C00CA
:10392000032807D022E108EBC10000F5917009F0EF
:10393000E1FCF3E7B5F87000B0425BD1B5F86E007A
:10394000032857D100200AF0C3FB002108460AF0E3
:103950003BFC2346AFF24C224021854808F090FC06
:10396000D7E90012012382480AF0D2FC0021372057
:103970000AF077FD272C03D000213C200AF0A9FD96
:1039800026213A200AF0DEFD2B213A200AF030FDF4
:103990000F2100200AF018FC0F2284A102A8FCF7D6
:1039A000D6FC22460F2102A80AF0EAFC20210020C2
:1039B0000AF00AFCE87F04EB8401012813D009EB2C
:1039C000C1008388AFF2B8224021694808F058FC52
:1039D000D7E90012012366480AF09AFCB5F86C009A
:1039E000032807D0C2E008EBC10000F5927009F08F
:1039F00081FCF3E7B5F87000B0425BD1B5F86E001A
:103A0000042857D100200AF063FB002108460AF081
:103A1000DBFB2346AFF20C324021554808F030FC66
:103A2000D7E90012012352480AF072FC0021372026
:103A30000AF017FD272C03D000213C200AF049FD95
:103A400026213A200AF07EFD2B213A200AF0D0FCF4
:103A50000F2100200AF0B8FB1C2258A102A8FCF795
:103A600076FC22461C2102A80AF08AFC20210020B4
:103A70000AF0AAFBE87F04EB8401012813D009EBCC
:103A8000C1008378AFF278324021394808F0F8FB62
:103A9000D7E90012012336480AF03AFCB5F86C0069
:103AA000032807D062E008EBC10000F5937009F02D
:103AB00021FCF3E7B5F87000B04258D1B5F86E00BC
:103AC000052854D100200AF003FB002108460AF023
:103AD0007BFB2346AFF2CC324021254808F0D0FBD7
:103AE000D7E90012012322480AF012FC00213720F6
:103AF0000AF0B7FC272C03D000213C200AF0E9FC97
:103B000026213A200AF01EFD2B213A200AF070FCF3
:103B10000F2100200AF058FB2A2230A102A8FCF74E
:103B200016FC22462A2102A80AF02AFC20210020A5
:103B30000AF04AFBE87F012869D004EB840109EB15
:103B4000C100006AFCF7BEFDCDE900012E4A40210C
:103B5000074808F095FBD7E90012012304480AF052
:103B6000D7FB00BFB5F86C0003286BD0C4E369E055
:103B7000063A0020C2EAEBFEF7E8F2FC20EEEFF096
:103B8000EEF120F0E5E3E8F1F2F0E02000000000C3
:103B9000C0E4F0E5F120F3F1F2F0EEE9F1F2E2E059
:103BA00020F0E5E3E8F1F2F0E0200000C0E4F0E509
:103BB000F120F0E5E3E8F1F2F0E02000D4F3EDEAE3
:103BC000F6E8EEEDE0EBFCEDFBE920EAEEE420F0B8
:103BD000E5E3E8F1F2F0E02000000000CDE8E6EDDA
:103BE000FFFF20EFF0E5E4F3EFF0E5E4E8F2E5EBCA
:103BF000FCEDE0FF20F3F1F2E0E2EAE020F0E5E3A3
:103C0000E8F1F2F0E020000084230108FFE704EB74
:103C100084000B9009EBC0000090203009F03AFAC4
:103C2000009890ED080A0AA809F001FA0B98BDF86F
:103C3000282008EBC000A0F83821BDF82A10A0F811
:103C40003A118FE7B5F87000B04274D1B5F86E0044
:103C5000062870D100200AF03BFA002108460AF03D
:103C6000B3FA2346AFF25C524021FE4808F008FB4D
:103C7000D7E900120123FB480AF04AFB0021372054
:103C80000AF0EFFB272C03D000213C200AF021FC96
:103C900026213A200AF056FC2B213A200AF0A8FBF4
:103CA0000F2100200AF090FA2222EFA102A8FCF7CF
:103CB0004EFB2246222102A80AF062FB20210020AE
:103CC0000AF082FAE87F012819D004EB840109EB9D
:103CD000C100406AFCF7F6FCCDE90001EB4A402147
:103CE000E04808F0CDFAD7E900120123DD480AF0D8
:103CF0000FFB00BFB5F86C0003281CD0FCE204EBFE
:103D000084000B9009EBC0000090243009F0C2F948
:103D1000009890ED090A0AA809F089F90B98BDF8F6
:103D2000282008EBC000A0F83C21BDF82A10A0F81C
:103D30003E11DFE7FFE7B5F87000B04277D1B5F884
:103D40006E00072873D100200AF0C2F9002108464E
:103D50000AF03AFA2346AFF24C624021C14808F01B
:103D60008FFAD7E900120123BE480AF0D1FA0021E8
:103D700037200AF076FB272C03D000213C200AF0E4
:103D8000A8FB26213A200AF0DDFB2B213A200AF07D
:103D90002FFB0F2100200AF017FA2B22BCA102A84A
:103DA000FCF7D5FA22462B2102A80AF0E9FA2021D5
:103DB00000200AF009FAE87F01281CD004EB8401F6
:103DC00009EBC100806901E09FE29AE2FCF77AFC0E
:103DD000CDE90001AD4A4021A24808F051FAD7E9E7
:103DE000001201239F480AF093FA00BFB5F86C0057
:103DF00003281CD080E204EB84000B9009EBC00088
:103E00000090183009F046F9009890ED060A0AA8CB
:103E100009F00DF90B98BDF8282008EBC000A0F8B8
:103E20004021BDF82A10A0F84211DFE7FFE7B5F8FE
:103E30007000B04273D1B5F86E0008286FD1002031
:103E40000AF046F9002108460AF0BEF92346AFF20F
:103E500044724021834808F013FAD7E90012012385
:103E600080480AF055FA002137200AF0FAFA272C88
:103E700003D000213C200AF02CFB26213A200AF036
:103E800061FB2B213A200AF0B3FA0F2100200AF03F
:103E90009BF9232289A102A8FCF759FA2246232183
:103EA00002A80AF06DFA202100200AF08DF9E87FBF
:103EB000012818D004EB840109EBC100C069FCF7AC
:103EC00001FCCDE90001714A4021664808F0D8F9AB
:103ED000D7E90012012363480AF01AFAB5F86C001A
:103EE00003281CD008E204EB84000B9009EBC0000F
:103EF00000901C3009F0CEF8009890ED070A0AA84F
:103F000009F095F80B98BDF8282008EBC000A0F840
:103F10004421BDF82A10A0F84611DFE7FFE7B5F805
:103F20007000B04273D1B5F86E0009286FD100203F
:103F30000AF0CEF8002108460AF046F92346AFF60B
:103F400034024021474808F09BF9D7E900120123C9
:103F500044480AF0DDF9002137200AF082FA272CC4
:103F600003D000213C200AF0B4FA26213A200AF0BE
:103F7000E9FA2B213A200AF03BFA0F2100200AF03F
:103F800023F9172256A102A8FCF7E1F922461721CE
:103F900002A80AF0F5F9202100200AF015F9E87FBF
:103FA000012818D004EB840109EBC100C068FCF7BC
:103FB00089FBCDE90001504A40212A4808F060F908
:103FC000D7E90012012327480AF0A2F9B5F86C00DE
:103FD00003281CD090E104EB84000B9009EBC00097
:103FE00000900C3009F056F8009890ED030A0AA8EA
:103FF00009F01DF80B98BDF8282008EBC000A0F8C8
:104000002C21BDF82A10A0F82E11DFE7FFE7B5F844
:104010007000B04272D1B5F86E000A286ED100204F
:104020000AF056F8002108460AF0CEF82346AFF60B
:10403000241240210B4808F023F9D7E9001201238C
:1040400008480AF065F9002137200AF00AFA272CFF
:1040500003D000213C200AF03CFA26213A200AF045
:1040600071FA4CE0063A0020CDE8E6EDFFFF20E0D3
:10407000E2E0F0E8E9EDE0FF20F3F1F2E0E2EAE06F
:1040800020F0E5E3E8F1F2F0E020000084230108ED
:10409000C2E5F0F5EDFFFF20EFF0E5E4F3EFF0E52A
:1040A000E4E8F2E5EBFCEDE0FF20F3F1F2E0E2EA18
:1040B000E020F0E5E3E8F1F2F0E02000C2E5F0F501
:1040C000EDFFFF20E0E2E0F0E8E9EDE0FF20F3F1B2
:1040D000F2E0E2EAE020F0E5E3E8F1F2F0E02000CF
:1040E000CAEEFDF4F4E8F6E8E5EDF220C020F0E5D4
:1040F000E3E8F1F2F0E02000282D01084CE02B214C
:104100003A200AF075F90F2100200AF05DF8172215
:10411000FEA102A8FCF71BF92246172102A80AF00B
:104120002FF9202100200AF04FF8E87F012818D04D
:1041300004EB840109EBC1000069FCF7C3FACDE987
:104140000001F84A4021F84808F09AF8D7E900122F
:104150000123F5480AF0DCF8B5F86C0003281BD001
:10416000CAE004EB84000B9009EBC0000090103013
:1041700008F090FF009890ED040A0AA808F057FF95
:104180000B98BDF8282008EBC000A0F83021BDF83E
:104190002A10A0F83211DFE7B5F87000B0425BD109
:1041A000B5F86E000B2857D1002009F091FF0021CF
:1041B00008460AF009F82346AFF6B0224021DA4853
:1041C00008F05EF8D7E900120123D7480AF0A0F8FA
:1041D000002137200AF045F9272C03D000213C208C
:1041E0000AF077F926213A200AF0ACF92B213A207F
:1041F0000AF0FEF80F21002009F0E6FF1422CBA1FF
:1042000002A8FCF7A4F82246142102A80AF0B8F884
:104210002021002009F0D8FFE87F04EB8401012869
:1042200013D009EBC1008379AFF61C324021BE48A0
:1042300008F026F8D7E900120123BB480AF068F815
:10424000B5F86C00032807D056E008EBC10000F574
:10425000947009F04FF8F3E7B5F87000B0424BD115
:10426000B5F86E000C2847D1002009F031FF00217D
:10427000084609F0A9FF2346AFF670324021AA484C
:1042800007F0FEFFD7E900120123A7480AF040F823
:10429000002137200AF0E5F8272C03D000213C202C
:1042A0000AF017F926213A200AF04CF90F210020D4
:1042B00009F08AFF1122A3A102A8FCF748F82246C0
:1042C000112102A80AF05CF82021002009F07CFFEF
:1042D000E87F04EB8401012818D009EBC1000389B1
:1042E000AFF6D4324021904807F0CAFFD7E9001258
:1042F00001238D480AF00CF8641CE4B2282CFFF46A
:10430000ADA9B5F86C00032807D097E008EBC10011
:1043100000F5957008F0EEFFEEE7B5F870000128A3
:104320004AD195F8250001287ED1002009F0D0FE61
:104330000021084609F048FF0123AFF67440D7E991
:10434000001209F0E5FF002132200AF08AF800216E
:1043500037200AF0BEF800213C200AF0BAF80F21FD
:10436000002009F031FF6F491822803902A8FBF7BD
:10437000EEFF182102A809F0E1FF2021002009F03A
:1043800023FFE87F0128744813D0B0F90030AFF65E
:1043900080424021644807F073FFD7E900120123EF
:1043A000614809F0B5FF00BFB5F86C00032803D0E1
:1043B00044E008F09FFFF7E7B5F870000228B3D19A
:1043C00095F825000128AFD1002009F081FE0021D9
:1043D000084609F0F9FE0123AFF61450D7E90012A0
:1043E00009F096FF002132200AF03BF80F2100204F
:1043F00009F0EAFE082259A102A8FBF7A8FF08214C
:1044000002A809F09BFF2021002009F0DDFEE87FD3
:10441000012818D050488030006BFCF753F9CDE9E3
:10442000000151A2402100E020E23F4807F028FFB0
:10443000D7E9001201233C4809F06AFFB5F86C0087
:10444000042806D02BE344484949B03008F0DCFE8C
:10445000F4E7B5F87000E8BB002009F039FE002150
:10446000084609F0B1FE5C460123D4E9001241A0E0
:1044700009F04EFF95F8250018B1002137200AF009
:1044800028F800213C200AF024F826213A200AF0DE
:1044900059F82B213A2009F0ABFF0F21002009F039
:1044A00093FED4E90012012334A009F031FFD7E9CB
:1044B0000012012333A009F02BFF10212A2009F05C
:1044C00083FE2B7AAFF6B8524021174807F0D8FE8A
:1044D000012300E06EE0D7E90012134809F018FF4D
:1044E0002021002009F070FED4E90012012326A04B
:1044F00009F00EFFD7E90012012322A009F008FFFE
:1045000021212A2009F060FEEB7941E0CAEEFDF49A
:10451000F4E8F6E8E5EDF220C220F0E5E3E8F1F298
:10452000F0E02000282D0108063A0020D2E8EF2014
:10453000E4E0EDEDFBF520F0E5E3E8F1F2F0E0205A
:1045400000000000D2E0E9ECE0F3F220F0E5E3E85F
:10455000F1F2F0E020000000D8000020D1EAEEF0F7
:10456000EEF1F2FC00000000252E30306600000065
:1045700000130208D0E5EBE500000000CFF0E5E411
:10458000000000002E000000C0E2E0F0000000008B
:10459000AFF684624021FA4807F072FED7E90012B4
:1045A0000123F74809F0B4FE85F82AA0B5F86C009D
:1045B00004287CD1B5F87000012868D195F8250051
:1045C000B0BB002009F084FD0021084609F0FCFD85
:1045D0000123AFF26000DBE9001209F099FE00212F
:1045E000372009F03EFF00213C2009F072FFB5F8AA
:1045F0007800012802D002281BD03FE00F210020C4
:1046000009F0E2FD1022DFA102A8FBF7A0FE1021B5
:1046100002A809F093FED7E900120123DEA009F0F9
:1046200077FE2021002009F0CFFDB5F872301AE0A6
:10463000A1E00F21002009F0C7FD0D22D7A102A89B
:10464000FBF785FE0D2102A809F078FED7E90012DC
:104650000123D6A009F05CFE2021002009F0B4FD62
:10466000D448008C83B2D4A24021C54807F008FE8C
:10467000D7E900120123C24809F04AFE85F81FA0BD
:10468000012085F82A00B5F86C0004280FD1B5F890
:10469000700002286BD195F82500A0BB002009F01E
:1046A00017FD0021084609F08FFD012300E0ABE073
:1046B000AFF24010DBE9001209F02AFE002137209A
:1046C00009F0CFFEB5F87800012802D002281BD0EF
:1046D00044E00F21002009F077FD1022A9A102A8D3
:1046E000FBF735FE102102A809F028FED7E90012D9
:1046F0000123B3A009F00CFE2021002009F064FD85
:10470000B5F844301FE08DE00F21002009F05CFD7A
:104710000D22A2A102A8FBF71AFE0D2102A809F0A2
:104720000DFED7E900120123A6A009F0F1FD20211A
:10473000002009F049FD9F49086A91F82410000CF7
:1047400040EA014083B29CA240218D4807F098FDC9
:10475000D7E9001201238A4809F0DAFD85F81FA085
:10476000012085F82A00B5F86C0004284CD1B5F872
:104770007000012852D195F82500012876D100203B
:1047800009F0A6FC0021084609F01EFD01235C4645
:10479000AFF22020D4E9001209F0BAFD0021322046
:1047A00009F05FFE0021372009F093FE00213C2034
:1047B00009F08FFE0F21002009F006FDD4E9001258
:1047C000012382A009F0A4FDC82008F0D7FE202113
:1047D000002009F0F9FCE87F012816D0B5F8503028
:1047E0007CA24021664807F04BFDD7E90012012367
:1047F000634809F08DFD012085F82A0085F82BA07B
:10480000B5F86C00042809D049E1734808F072FD3E
:1048100085F82AA0012085F82B00F1E7B5F8700093
:10482000022854D195F825000128A7D1002009F0CD
:104830004FFC0021084609F0C7FC0123AFF2CC2051
:10484000DBE9001209F064FD0021322009F009FEC5
:104850000021372009F03DFE00213C2009F039FEFF
:104860000F21002009F0B0FC182200E058E15BA104
:1048700002A8FBF76CFD182102A809F05FFD2021BA
:10488000002009F0A1FCE87F012816D0B5F85230CD
:1048900050A240213A4807F0F3FCD7E90012012367
:1048A000374809F035FD012085F82A0085F82BA04E
:1048B000B5F86C0004280AD0F1E04748801C08F0E5
:1048C00019FD85F82AA0012085F82B00F0E7B5F83E
:1048D0007000032853D195F825000128A5D10020A8
:1048E00009F0F6FB0021084609F06EFC0123AFF247
:1048F0007C30DBE9001209F00BFD0021322009F0C9
:10490000B0FD0021372009F0E4FD00213C2009F032
:10491000E0FD0F21002009F057FC212236A102A85A
:10492000FBF715FD212102A809F008FD2021002038
:1049300009F04AFCE87F012817D0B5F8543025A2C9
:1049400040210F4807F09CFCD7E9001201230C48D6
:1049500009F0DEFC012085F82A0085F82BA000BFB5
:10496000B5F86C00042859D099E01B48001D08F0E8
:10497000C1FC85F82AA0012085F82B00F0E74DE066
:10498000063A0020C0F2F2F0E8E1F3F220F1EEE1A5
:10499000FBF2E8FF0000000020310000C1E8F22037
:1049A000F1EEF1F2EEFFEDE8FF00000028302D31CE
:1049B00035290000D802002030782558000000007A
:1049C000203200002831362D33312900D0E5E6E8C9
:1049D000EC00000025640000A8000020C7E0E4E52A
:1049E000F0E6EAE020EDE020F1F0E0E1E0F2FBE2C9
:1049F000E0EDE8E500000000C7E0E4E5F0E6EAE00D
:104A000020EDE020E2FBF5EEE420E8E720F1F0E025
:104A1000E1E0F2FBE2E0EDE8FF000000B5F8700035
:104A200004287DD195F825000128FAD1002009F04D
:104A30004FFB0021084609F0C7FB0123AFF2CC4031
:104A4000DBE9001209F064FC0021322009F009FDC5
:104A50000F21002009F0B8FB0922FEA102A8FBF7F4
:104A600076FC092102A809F069FC2021002009F048
:104A7000ABFBE87F012817D0B5F85A30AFF2AC0293
:104A80004021F74807F0FCFBD7E900120123F44866
:104A900009F03EFC012085F82A0085F82BA0B5F826
:104AA0006C00052809D00FE2EE4808F023FC85F8D9
:104AB0002AA0012085F82B00F1E7B5F8700028BB8B
:104AC000002009F005FB0021084609F07DFB0021CC
:104AD0003C2009F0FEFC26213A2009F033FD2B2171
:104AE0003A2009F085FC0F21002009F06DFB092216
:104AF000DDA102A8FBF72BFC092102A809F01EFC8E
:104B000085F82AA0B5F86C0005284DD1B5F87000DD
:104B1000012854D1002009F0DBFA0021084600E00A
:104B2000CAE109F051FB5C460123D4E90012D1A08F
:104B300009F0EEFB0123AFF2B450D7E9001209F0FF
:104B4000E7FB0021372009F08CFC00213C2009F014
:104B5000C0FC0F21002009F037FBD4E9001201232B
:104B6000C6A009F0D5FBC82008F008FD20210020D0
:104B700009F02AFBE87F012817D0B5F86430AFF2BE
:104B8000AC124021B64807F07BFBD7E900120123A5
:104B9000B34809F0BDFB012085F82A0085F82BA059
:104BA000B5F86C0005280AD08EE1AE480A3008F04E
:104BB000A1FB85F82AA0012085F82B00F0E7B5F8C5
:104BC0007000022858D1002009F082FA002108461E
:104BD00009F0FAFADBE900120123A6A009F098FB1C
:104BE0000123AFF26060D7E9001209F091FB0021C8
:104BF000372009F036FC00213C2009F06AFC0F2127
:104C0000002009F0E1FA0822AFF2B06102A8FBF738
:104C10009EFB082102A809F091FB2021002009F049
:104C2000D3FAE87F01281CD08E48A630C06AFBF773
:104C300049FDAFF2CC62CDE900014021884807F080
:104C40001FFBD7E900120123854809F061FB012011
:104C500085F82A0085F82BA0B5F86C0005280BD044
:104C600032E180488749D23008F0CEFA85F82AA090
:104C7000012085F82B00EFE7B5F87000032857D125
:104C8000002009F025FA0021084609F09DFADBE929
:104C90000012012377A009F03BFB0123AFF21C7047
:104CA000D7E9001209F034FB0021372009F0D9FBC5
:104CB00000213C2009F00DFC0F21002009F084FAAE
:104CC0000D2271A102A8FBF742FB0D2102A809F0F9
:104CD00035FB2021002009F077FAE87F01281CD05D
:104CE0006048A630006BFBF7EDFCAFF28472CDE9B3
:104CF000000140215A4807F0C3FAD7E90012012306
:104D0000574809F005FB012085F82A0085F82BA0FB
:104D1000B5F86C0005280BD0D6E052485949D6307A
:104D200008F072FA85F82AA0012085F82B00EFE739
:104D3000B5F87000042852D1002009F0C9F900210B
:104D4000084609F041FADBE90012012349A009F005
:104D5000DFFA0123AFF2D470D7E9001209F0D8FAD4
:104D60000021372009F07DFB00213C2009F0B1FB38
:104D70000F21002009F028FA0E2247A102A8FBF714
:104D8000E6FA0E2102A809F0D9FA2021002009F044
:104D90001BFAE87F012818D0B5F86630AFF2CC32A4
:104DA00040212F4807F06CFAD7E9001201232C4864
:104DB00009F0AEFA012085F82A0085F82BA000BF83
:104DC000B5F86C0005280AD07EE026480C3008F0C3
:104DD00091FA85F82AA0012085F82B00F0E7B5F8B4
:104DE0007000052868D1002009F072F900210846FA
:104DF00009F0EAF9DBE9001201231EA009F088FAA4
:104E00000123AFF68000D7E9001209F081FA0021F2
:104E1000372009F026FB0F21002009F0D5F90E22DA
:104E200021A102A8FBF793FA0E2102A809F086FA45
:104E30002021002009F0C8F9E87F012849D0B5F801
:104E40007C30AFF270424021054807F019FA012387
:104E5000034832E0D2E5F1F220F0E5EBE500000096
:104E6000063A0020B2000020CDE0F1F2F0EEE9EACF
:104E7000E8000000CDE0F1F2F0000000C0E4F0E551
:104E8000F100000000130208D1EAEEF0EEF1F2FCAE
:104E900020F8E8EDE0000000C2F0E5ECFF20EFF0C4
:104EA000EEE3F0E5E2E00000D1E1F0EEF120EDE02C
:104EB000F1F2F0EEE5EA00004DE1D7E9001209F069
:104EC00027FA012085F82A00B5F86C00062806D0DC
:104ED000FFE0FD4808F00EFA85F82AA0F4E7B5F8DF
:104EE000700008BB002009F0F3F80021084609F023
:104EF0006BF900213C2009F0ECFA26213A2009F058
:104F000021FB0F21002009F05FF90A22EFA102A87E
:104F1000FBF71DFA0A2102A809F010FA85F82AA069
:104F2000B5F86C0006287CD1B5F87000012848D18E
:104F3000002009F0CDF80021084609F045F9DBE929
:104F400000120123E4A009F0E3F90123AFF6CC102D
:104F5000D7E9001209F0DCF90021372009F081FAC5
:104F600000213C2009F0B5FA0F21002009F02CF9AE
:104F70001222DAA102A8FBF7EAF9122102A809F02D
:104F8000DDF92021002009F01FF9CF48843090ED91
:104F9000080A10EE100AFBF795FBCDE90001D44A90
:104FA0004021D44807F06CF9D7E900120123D14819
:104FB00009F0AEF9012085F82A00B5F86C00062842
:104FC0002FD1B5F87000022844D1002009F080F8F4
:104FD0000021084609F0F8F8DBE900120123BEA021
:104FE00009F096F90123AFF66420D7E9001209F021
:104FF0008FF90021372009F034FA00213C2009F014
:1050000068FA0F21002009F0DFF80922BAA102A8EE
:10501000FBF79DF9092102A809F090F92021002051
:1050200000E056E009F0D0F89FEDB60BB74A8DEDE1
:10503000000B4021AF4807F023F9D7E90012012304
:10504000AC4809F065F9012085F82A00B5F86C0034
:1050500006283ED1B5F8700003287CD1002009F065
:1050600037F80021084609F0AFF8DBE90012012308
:1050700099A009F04DF90123AFF6F820D7E9001205
:1050800009F046F90021372009F0EBF90F21002043
:1050900009F09AF8D7E9001201239DA009F038F928
:1050A0002021002009F090F887488430C068FBF781
:1050B00009FBCDE900018E4A40218E4807F0E0F857
:1050C000D7E9001201238B4809F022F9012085F865
:1050D0002A00B5F86C0007283DD1B5F87000D8B9A2
:1050E00095F82300012836D1002008F0F1FF0221B5
:1050F000372009F0EEF90F21002009F065F80C22A5
:1051000085A102A8FBF723F90C2102A809F016F9E2
:10511000B5F86C0007281ED1B5F87000012847D1FA
:10512000002008F0D5FF0021084609F04DF8DBE922
:10513000001201237CA009F0EBF80123AFF6BC308C
:10514000D7E9001209F0E4F80221302009F089F9CA
:105150000221372000E0B0E009F0BBF90F21002068
:1051600009F032F8D7E900120123714809F0D0F8AC
:105170002021002009F028F8E87F012813D0B5F895
:105180007430AFF2B07240215A4807F079F8D7E98D
:1051900000120123574809F0BBF800BFB5F86C00B6
:1051A000072805D089E04848083808F0A3F8F5E753
:1051B000B5F87000022845D1002008F089FF0021D1
:1051C000084609F001F8DBE90012012356A009F0B6
:1051D0009FF80123AFF65440D7E9001209F098F880
:1051E0000221302009F03DF90221372009F071F940
:1051F0000F21002008F0E8FFD7E9001201234D48F5
:1052000009F086F82021002008F0DEFFE87F012861
:1052100013D0B5F87630AFF644024021354807F098
:105220002FF8D7E900120123324809F071F800BFC6
:10523000B5F86C00072805D03FE02348801F08F030
:1052400059F8F5E7B5F87000032836D1002008F0CA
:105250003FFF0021084608F0B7FFDBE900120123F9
:1052600031A009F055F80123AFF6E840D7E9001264
:1052700009F04EF80221302009F0F3F80F21002048
:1052800008F0A2FFD7E9001201232B4809F040F8EB
:105290002021002008F098FFE87F012856D0B5F8BB
:1052A0007830AFF6D0024021124806F0E9FFD7E986
:1052B000001201230F4809F02BF808F08BFF95F836
:1052C0002100D8B300203AE0D4000020C8EDF4EE6D
:1052D000F0ECE0F6E8FF0000C8EDF400CDE0EFF000
:1052E000FFE6E5EDE8E520EFE8F2E0EDE8FF00009D
:1052F00084230108063A0020C2E5F0F1E8FF20CF40
:10530000CE000000F6285C8FC2F51540E0310108A0
:105310004D4D544500000000CACECDD4C8C3D3D0F3
:10532000C0D6C8DF00000000CAEEEDF400000000A7
:10533000541F0108482D0108C83601080AE085F805
:105340002100642008F01AF9FCF7F2BB024807F0CC
:10535000D1FFB2E70120B6E7D0000020184F0026A9
:10536000DFF860B086B04FF008084FF0180A4FF031
:105370008009A7F5C07401254FF0FF31B86A09F024
:1053800079FF607F0128F7D101AA0496009682E890
:105390002005CBF8109001F09FFC04F82F0F03209C
:1053A00008F0ECF804A9684601F0C8FB207001F091
:1053B00037FC14F82F090028DED184F82E50DBE7E3
:1053C000D801002000200240124A117F1248012912
:1053D00001D003290BD1036843F400630360036821
:1053E00023F400630360036843F40073036002293D
:1053F00001D003290BD1016841F48051016001689B
:1054000021F480510160016841F480610160002055
:10541000107770474C040020002002400849C20762
:1054200003D04A6942F004024A61800703D5486903
:1054300040F400404861486940F48030486170475A
:1054400000200240CA070B494A6902D022F40062D8
:1054500001E042F400624A614A6960F3CA024A61AB
:10546000486940F002004861486940F48030486172
:105470007047000000200240044910B54C6944F018
:1054800001044C610260436010BD00000020024036
:10549000074B10B55C69402244F480245C6172B60D
:1054A00008C908C0521E12F0FF02F9D162B610BD41
:1054B0000020024070B5054601F00CFD0646184C70
:1054C00008E0681C06D001F005FD801BA84201D34E
:1054D000032070BD2069C043C003F2D52169114883
:1054E0000140A06900F00040084311D00E494A680D
:1054F00002434A60810F04D0A16900F04042114389
:10550000A161810002D020F040402061012070BDE7
:105510002069C043C00701D101202061002070BD77
:1055200000200240FAC302004C040020294810B5B4
:10553000C078A0B3012840D0022828D3264B274AA0
:105540000221A3F10C0007F04CFC234B234A8433C7
:1055500021480221783007F044FC1F4B1F4AB0332A
:105560000221A3F10C0007F03CFC1B4B1B4A2C331F
:10557000A03A0221A3F10C0007F033FC164B174AA6
:105580005833783A0221A3F10C0007F02AFC1648A0
:105590009FED130B80ED0A0B80ED0C0B10BDFFE7A8
:1055A0000D4B0E4A0221503AA3F10C0007F019FCF2
:1055B000094B0A4A8433503ACAE7074B074A02218B
:1055C000283AA3F10C0007F00CFC034B034A843388
:1055D000283ABDE7580000202C180020F8030020CE
:1055E0000000000000000000D802002010B50446B2
:1055F00009F0CEFF014614B107F0D6FE2060C86C5A
:1056000010BD00002DE9F84F4FF000080446CDF81A
:1056100000800D4694F85420DFF80894216947462D
:105620004046012A0AD00126FF4A84F8546041B15D
:10563000A969012905D0636EEBB129E00220BDE81C
:10564000F88F6868082838D1296A4FF4F85041B1BA
:105650002B6801F03C0100EA93400843696A084363
:1056600002E0296800EA91402368D96C11400143A7
:10567000D964206621E0C4E91871296AA86931B1AA
:1056800001F03C01401E0843696A084300E0401EE7
:1056900029682B79C1F3846103F01F03994001430A
:1056A000606E401E6066236E43EA0103236604D1E8
:1056B0002068C16C11401943C164206803F058FB95
:1056C00048B9687F90B12068C168AA7F21F4401171
:1056D00041EA4251C160206803F052FB82462068D3
:1056E00003F046FB5AEA00000BD0DDE0A87F297FDB
:1056F000400540EA01512068C26822F4401211437B
:10570000E8E7286A28B1686A18B1687F012845D09F
:1057100002E0687F012804D02068C16821F0007190
:1057200003E02068C16841F00071C16095F828006D
:1057300001283AD02068016921F002010161AA68BC
:1057400029682068B2F1004F20D003F034FB2068B4
:10575000416921F00041416120686969C268C2F372
:10576000C102520091402A69042A2AD000EB82002B
:105770002B68DFF8B8C2026E03F0F84302EA0C02AD
:105780000B431A4342F0004101668DE0002203F012
:1057900012FB2068416941F00041DCE7A06D40F058
:1057A0002000A0654FF00108C0E7D5E90B010843D0
:1057B00021680A6922F4FF7242F002021043086174
:1057C000BDE7002103F0CAFA400320684FF0000152
:1057D00072D003F0C3FA90FAA0F0B0FA80F1286812
:1057E00042036ED090FAA0F0B0FA80F0814204D16A
:1057F00000221146206803F0F5FA0121206803F029
:10580000ADFA400320684FF001015DD003F0A6FA25
:1058100090FAA0F0B0FA80F12868420359D090FACB
:10582000A0F0B0FA80F0814204D10022012120686A
:1058300003F0D8FA0221206803F090FA40032068B0
:105840004FF0020148D003F089FA90FAA0F0B0FAC4
:1058500080F12868420344D090FAA0F0B0FA80F0BA
:10586000814204D100220221206803F0BBFA032107
:10587000206803F073FA400320684FF0030133D02F
:1058800003F06CFA90FAA0F0B0FA80F128684203B5
:105890002FD090FAA0F0B0FA80F0814204D100221B
:1058A0000321206803F09EFA2068816811F0010F3F
:1058B00022D0ABE000E004E003F050FAC0F38461D2
:1058C0008DE7C0F3846091E703F048FAC0F3846188
:1058D000A2E7C0F38460A6E703F040FAC0F3846156
:1058E000B7E7C0F38460BBE703F038FAC0F3846124
:1058F000CCE7C0F38460D0E72B7B296850F8B02F49
:10590000C1F3120C22EA0C0203F0180C484B23FAE4
:105910000CF30B401A430260E968494576D12868C8
:1059200041031BD090FAA0F1B1FA81F1491C01F0BA
:105930001F0109294FEA403131D8002911D090FACE
:10594000A0F1B1FA81F100BF01F1010101F01F01E5
:1059500006FA01F608D1C0F3846109E0C0F384615E
:10596000E4E7C0F38461EFE790FAA0F1B1FA81F1C6
:1059700001F1010101F01F0146EA816102D1C0F38A
:10598000846003E090FAA0F0B0FA80F000F101002A
:1059900000F01F0000EB400041EA005132E0002916
:1059A0000ED090FAA0F1B1FA81F100BF01F101012E
:1059B00001F01F0106FA01F605D1C0F3846106E08B
:1059C000C0F38461F2E790FAA0F1B1FA81F101F13C
:1059D000010101F01F0146EA816102D1C0F3846038
:1059E00003E090FAA0F0B0FA80F000F1010000F0BE
:1059F0001F00104A00EB400002EB005041EA00019A
:105A000041F00071AA68206803F0D5F90A482A68B5
:105A1000024256D009488168094E01F0E071094BF5
:105A2000094D13E000007F400020088200F0FF03D2
:105A3000FFFF0700000020FE000008800003045064
:105A4000000052C70000045000020450B2421BD1B3
:105A50000E0219D422689A4201D0AA4231D182683A
:105A600041F4000122F0E0720A43826017481849AD
:105A70000068B0FBF1F000EB4000800000E0401E49
:105A800000900028FBD11CE0124EB24209D1CE0199
:105A900007D422689A4201D0AA4212D141F0807103
:105AA0000AE06FF00045EA420BD14A0209D42268AD
:105AB0009A4206D141F48001826822F0E0720A43E2
:105AC000826084F854704046B9E500006C04002000
:105AD000400D0300000084CB0068B1F5877F0FD034
