:020000040801F1
:10000000D08801208102010879A10108AD8A010888
:10001000919D01080D0F0108E5C2010800000000D4
:10002000000000000000000000000000C101010805
:1000300069190108000000001D020108BBA90108A0
:100040009B0201089B0201089B0201089B02010818
:100050009B0201089B0201089B0201089B02010808
:100060009B0201089B0201089B0201084112010842
:100070004D12010859120108651201087112010898
:100080007D120108891201089B0201089B020108E8
:100090009B0201089B0201089B0201089B020108C8
:1000A0009B0201082DAE01089B0201089B0201087A
:1000B0009B0201089B0201089B0201089B020108A8
:1000C0009B0201089B0201089B0201089B02010898
:1000D0009B020108E5BF010841C001089DC001085D
:1000E0009B0201089B0201089B0201089B02010878
:1000F0009B0201089B0201089B0201089B02010868
:100100009B0201089B0201089B0201089B02010857
:100110009B0201084DBA010839AE010855AE01082D
:1001200095120108A11201089B0201089B02010817
:100130009B0201089B0201089B0201089B02010827
:100140009B0201089B0201089B0201089B02010817
:100150009B0201089B0201089B0201089B02010807
:100160009B0201089B0201089B0201089B020108F7
:100170009B0201089B0201089B020108000000008D
:100180009B0201089B0201089B0201089B020108D7
:100190009B0201089B0201089B0201089B020108C7
:1001A0009B0201089B0201089B020108DFF80CD0AA
:1001B00000F0E0FB0048004701D60108D08801208C
:1001C0002C4B19680868B0E8F04F80F30988BFF33A
:1001D0006F8F4FF0000080F311887047000000001F
:1001E00008480068006880F308884FF0000080F33A
:1001F000148862B661B6BFF34F8FBFF36F8F00DF15
:1002000000BF00BF08ED00E0DFF80C00016841F41A
:1002100070010160704700BF88ED00E0EFF30980D6
:10022000BFF36F8F134B1A681EF0100F08BF20ED3D
:10023000108A20E9F04F106009B44FF0500080F3AD
:100240001188BFF34F8FBFF36F8F0EF041FD4FF05A
:10025000000080F3118809BC19680868B0E8F04F05
:100260001EF0100F08BFB0EC108A80F30988BFF3AE
:100270006F8F704794040020EFF3058070470000F3
:100280000648804706480047FEE7FEE7FEE7FEE730
:10029000FEE7FEE7FEE7FEE7FEE7FEE77DAA0108D0
:1002A000AD0101082DE9F05F0546002092469B460E
:1002B00088460646814640241BE02846414647467C
:1002C000224600F053FA53465A46C01A914110D3C1
:1002D00011461846224600F03AFA2D1A67EB01083B
:1002E0004F4622460120002100F031FA17EB0009A9
:1002F0004E41201EA4F10104DFDC484631462A4667
:100300004346BDE8F09F40EA01039B0703D009E0A4
:1003100008C9121F08C0042AFAD203E011F8013BF1
:1003200000F8013B521EF9D27047D2B201E000F84A
:10033000012B491EFBD270470022F6E710B5134689
:100340000A4604461946FFF7F0FF204610BD10B5D7
:10035000044604E00B7800F8013B03B1491C521E2F
:10036000F8D2204610BD2DE9FE4F804681EA0300F9
:10037000C00F0C46009021F0004123F00045B8EB7F
:100380000200A94105D24046214690461C460B4634
:10039000024623F00040104347D0270DC7F30A0060
:1003A000C3F30A510290401A019040286BDAC3F35C
:1003B000130040F4801B0098924620B10023D2EB3A
:1003C000030A63EB0B0B01985946C0F140025046FB
:1003D00000F0BDF906460D4650465946019A00F018
:1003E000D5F910EB08006141002487EA115284EA34
:1003F000E7731A4340D0009A62B3019A012A4FEA88
:10040000075215DC001B61EB02014FF0004202EACB
:100410000752CDE90042001C41F5801132462B46BF
:1004200000F02AFA03B0BDE8F08F40462146F9E714
:10043000001B61EB0201001C41F5801300185B41B9
:100440002018A2F5001747EB030140EAD570B61952
:100450006D4111E06D084FEA360645EAC0754FEA76
:100460000752001B61EB0201001C41F58011490895
:100470004FEA30000019514132462B4603B0BDE827
:10048000F04F00F0EAB90098012240000023D0EBC1
:10049000020263EBE073009821464FEAE074B8EB88
:1004A000000061EB0401E9E783F000435BE781F0C2
:1004B000004158E72DE9FE4F81EA030404F00044AF
:1004C00021F0004100944FF0000B23F0004350EA6C
:1004D00001045ED052EA03045BD0C3F30A54C1F3B3
:1004E0000A552C44A4F2F3340194A0FB0254C1F346
:1004F000130141F48011C3F3130343F4801301FB90
:10050000024400FB034E840A970A44EA815447EAF6
:100510008357A4FB076802958D0A05FB07854FEA00
:10052000932C04FB0C542705029D4FEA065847EA1A
:100530001637B5EB08056EEB070C870E920E47EAEF
:10054000811742EA8312A7FB0201B6EB0B0164EBB1
:1005500000042B0D43EA0C335E1844EB1C50DA46C2
:100560005146E7FB0201C5F313044FEA0B3343EA9C
:1005700014534FEA0432019C43EA0603A4F10C042D
:100580000294009CCDE900B400F076F903B0BDE818
:10059000F08F00200146F9E72DE9F04D81EA0304D0
:1005A00004F0004B21F0004514464FF0000A23F000
:1005B000004150EA050220D054EA01021DD0C5F3E3
:1005C0000A570246C5F31303C1F31300C1F30A56D9
:1005D00040F4801543F48013A7EB0608101BD646A1
:1005E00008F2FD3873EB050002D308F1010801E0C1
:1005F00092185B41B8F1000F03DA00200146BDE814
:10060000F08D00204FF48011064684460EE0171B43
:1006100073EB050705D3121B63EB050306434CEA96
:10062000010C49084FEA300092185B4150EA01077B
:10063000EDD152EA030012D082EA040083EA0501F8
:10064000084305D0101BAB4106D20122002306E06F
:1006500000224FF0004302E06FF0010253101AEB4A
:1006600006004CEB085110EB0A0041EB0B01BDE812
:10067000F04D00F0F2B830B404469623080021464D
:1006800004D0B62330BC002200F09BB820460021E5
:10069000F8E70EB540F2334102910021CDE9001197
:1006A0000A460B4600F0E8F803B000BD0EB540F274
:1006B000334202920022CDE90022134600F0DCF81A
:1006C00003B000BD00F0004230F000400AD0C10D80
:1006D00001F56071C0F3160042EA0151C2084007FB
:1006E0001143704700200146704701F0004330B4C9
:1006F00021F0004150EA010206D00A0DA2F5607215
:10070000C1F31301002A02DC30BC00207047440F03
:1007100044EAC104C100E01830BC00EBC25000F054
:1007200047B830B50B46014600202022012409E0DD
:1007300021FA02F59D4205D303FA02F5491B04FA9A
:1007400002F52844151EA2F10102F1DC30BD202A79
:1007500004DB203A00FA02F1002070479140C2F118
:10076000200320FA03F3194390407047202A04DB4A
:10077000203A21FA02F00021704721FA02F3D0401A
:10078000C2F120029140084319467047202A06DB37
:10079000CB17203A41FA02F043EAE07306E041FA4F
:1007A00002F3D040C2F1200291400843194670473D
:1007B0000029A8BF7047401C490008BF20F0010075
:1007C000704710B4B0FA80FC00FA0CF050EA010453
:1007D00004BF10BC704749B1CCF1200421FA04F4E5
:1007E00011FA0CF118BF012121430843A3EB0C01BE
:1007F000CB1D4FEA00614FEA102042BF002010BC21
:10080000704700EBC35010440029A4BF10BC7047D0
:10081000401C490008BF20F0010010BC704710B513
:1008200041000CD0C0F3C751962908DC7E2909DCB1
:1008300006DB410204D000F0004040F07E5010BDC5
:10084000002010BDC1F19604C4F1200100FA01F1AD
:10085000E040FFF7ADFFA04010BD10B5141E73F1CE
:10086000000408DA401C41F1000192185B411A4370
:1008700001D120F0010010BD2DE9F04D92469B46BC
:1008800011B1B1FA81F202E0B0FA80F22032904662
:10089000FFF75DFF04460F4640EA0A0041EA0B01FC
:1008A00053465A46084313D0114653EA010019D063
:1008B000C8F140025046FFF759FF05460E46504624
:1008C00059464246FFF743FF084305D0012004E0A4
:1008D00020463946BDE8F08D0020054346EAE07623
:1008E0002C4337430A986305E40AA0EB0800002272
:1008F000FD0A44EA47540A3002D500200146E9E7E0
:10090000010510196941DDE9084500196941BDE893
:10091000F04DA2E7C1F30A52C1F3130140F2FF33D5
:1009200041F480119A4202DA00200146704740F2F9
:1009300033439A42A2F2334202DC5242FFF716BF1F
:10094000FFF705BF30B5041E71F1000404DB4FF062
:100950000044404264EB0101141E73F1000405DB06
:100960001C464FF00043524263EB0403994208BF18
:10097000904230BD064C074D06E0E06840F00103B0
:1009800094E8070098471034AC42F6D3FFF712FC06
:10099000381802085818020870B58C1810F8015B56
:1009A00015F0070301D110F8013B2A1106D110F808
:1009B000012B03E010F8016B01F8016B5B1EF9D10C
:1009C0002B0705D40023521E0DD401F8013BFAE792
:1009D00010F8013BCB1A921C03E013F8015B01F8FD
:1009E000015B521EF9D5A142D8D3002070BD000092
:1009F0002DE9F041044600270D46006808F0DCF8B8
:100A00000646206808F0D0F8304359D02068C16805
:100A10002C4E890105D5617E012902D1217E012953
:100A20000BD0022D1DD0206808F0C6F8B8B12068A0
:100A30008168C1F3400169B111E00125224902E05A
:100A40008F422ED27F1C0268D2435206F8D4402136
:100A50000160E8E78168314041F010018160012DBB
:100A600011D0206808F0A0F848B120688168C1F36F
:100A7000400121B98168314041F020018160022D9F
:100A800008D0032D04D0042506F044F9064613E0EF
:100A90000C25F9E70825F7E706F03CF9801B052847
:100AA0000AD9A06D40F01000A065E06D40F0010093
:100AB000E0650120BDE8F081206880682842EBD124
:100AC0000020F7E7C0FFFF7F000040A310B5846A55
:100AD000A16D11F0500F06D0A16DC90625D5204695
:100AE00005F010FB10BDA06D40F40070A0652068FB
:100AF0000168090716D508F067F878B12068C06862
:100B0000800400280ADBA06D20F48070A065A06D31
:100B1000C00403D4A06D40F00100A065204605F09C
:100B2000ADFA10BDC0688007EBE7216D496BBDE8E9
:100B30001040084710B5806A816D41F04001816521
:100B4000C16D41F00401C16505F0DCFA10BD10B5BE
:100B5000806A05F0B5FA10BD70B50446006881687A
:100B60008268C1F3400112F0010F24D019BB8168E3
:100B700001F00D01012910D18168104A1140891C32
:100B8000816021680320086006F0C4F805460EE085
:100B900006F0C0F8401B022809D9A06D40F01000F3
:100BA000A065E06D40F00100E065012070BD2068A7
:100BB0008068C007ECD1002070BD0000C0FFFF7F3F
:100BC00070B504460068816811F0010F28D1816872
:100BD000144A114215D18168D5432940491C8160CE
:100BE00006F098F8064616E0816811F0010F03D16F
:100BF00081682940491C816006F08CF8801B02281E
:100C000009D9A06D40F01000A065E06D40F0010032
:100C1000E065012070BD20680168C943C907E3D1C0
:100C2000002070BD3F0000802DED048B82B00020BD
:100C3000ADF800009FED168B9FED179B184C4FF4FD
:100C40007A75184804F0F8FE6421164804F07CFE1A
:100C50000121144804F060FEADF80000114804F0D2
:100C600061FFBDF80000FFF714FD53EC182BFFF7F0
:100C700021FC53EC192BFFF71DFCFFF736FD00EEAE
:100C8000100A284684ED080A0CF022FDD9E700007E
:100C9000B4D934E70C684A3F00000000000024404B
:100CA00058010020580600208AB09FED8F0A904D11
:100CB0008DED030A8DED010A8DED040A8DED050A17
:100CC0008DED060ADFF82492A5F180048DED000A6F
:100CD0004FF0000A4FF0010B04F580764FF0FF3122
:100CE000306E0EF081FB94F82C00012804D094F8AB
:100CF0002C00022828D04FE07E4A002001464FF405
:100D0000007802F540634F4632F810C000EE10CA7A
:100D100007EB810CB8EE400A8CED000A02EB400CA8
:100D2000801CBCF802C080B200EE10CA03EB810C3C
:100D3000491CB8EE400A89B240458CED000AE3D365
:100D4000A888401CA88027E06A4A4FF40070002160
:100D500002F5406C4FF480684FEA090332F81070D6
:100D600000EE107A03EB8107B8EE400A87ED000A27
:100D700002EB4007801C7F8880B200EE107A0CEBFB
:100D80008107491CB8EE400A89B2404587ED000A48
:100D9000E4D3E888401CE8804FF4807707AA3946FE
:100DA00052480CF07DF9514A3B46114601F62C1091
:100DB0000CF024F80020504B01464A4602EB800C10
:100DC000001D9CED000A03EB810C491C80B28CEDE8
:100DD000000A89B2FF28F1D9474A4023114601F59C
:100DE00080700CF00BF8444A4023114601F5AC70BA
:100DF0000CF004F803AA40213F480CF051F901AA75
:100E000039463E480CF04CF902AB06AA40213A485C
:100E10000CF084F802AB04AA394638480CF07EF88E
:100E200002AB6A46402134480CF0F0F802AB05AA48
:100E3000394632480CF0EAF8314F00231A4603A92C
:100E4000386E0EF037F900231A4601A9F86E0EF03D
:100E500031F995ED0E0ADDED061AD5ED0D0AB0EE6D
:100E6000401A803701EEA01A00231A4604A985ED26
:100E70000F1A9DED001A01EE200A85ED100AB868E0
:100E80000EF018F900231A4605A9F8680EF012F9B9
:100E90001C490798884202DD84F802B001E084F81A
:100EA00002A095ED1B0ADDED010A95ED1A1A16490F
:100EB00000EE810A10EE100A884202DB84F804A0DA
:100EC00001E084F804B00D480DF01CFC00231A4624
:100ED0001946706E0EF0EEF800231A461946F06EB1
:100EE0000EF0E8F8FAE6000000000000200F0020F5
:100EF000D800002020070020201700202013002009
:100F0000D801002000007A45CDCC6C40FEE70000FF
:100F10004C4FDFF8348101264C4C002594F82B000F
:100F200090B94FF400614FF0904005F0E5FE0028C5
:100F3000E07C0DD0052807D9E67525766576A5767F
:100F4000A4F86250E574A57794F82B0018B114E06A
:100F5000401CE074F8E74FF48071384605F0CCFE91
:100F60000028207D0DD0052807D9E5752676657601
:100F7000A576A4F862502575A57794F82A0018B1D3
:100F800013E0401C2075F8E70821384605F0B4FE50
:100F90000028607D0DD0052807D9E5752576667691
:100FA000A576A4F862506575A57794F82A0018B163
:100FB00014E0401C6075F8E74FF40071384605F006
:100FC0009BFE0028A07D17D0052807D9E57525765A
:100FD0006576A676A4F86250A575A577802140466F
:100FE00005F08AFE0028B4F8620008D0C01E61280F
:100FF00018D2207F98B115E0401CA075EEE7401C88
:1010000080B2A4F86200642818D394F82900A8B923
:10101000E57525766576A576E57626770CE094F875
:10102000290020B194F82900012805D006E0E575D3
:1010300025766576A576E676A4F862500A200CF04F
:1010400047FB6BE7000400480008004858000020F8
:101050002DED088B84B000209FED6D0A00908DED82
:10106000000AADF804006B4E9FED6B9B9FED6CABDF
:101070006D4DA5F18004DFED6D8A5E2165480CF0B1
:1010800070F8B6F8C200B0EE408AADF80400B6F8C9
:10109000B20038B93E215F480CF063F885ED050ACF
:1010A00084ED150AB6F9B200012806D0022814D042
:1010B000032817D0042852D037E018EE100AFFF7A3
:1010C00001FB41EC100B51EC190B53EC102BFFF70B
:1010D00063FA41EC1B0BE06A1AE094ED040A84ED1C
:1010E000150A22E018EE100AFFF7ECFA41EC100B9B
:1010F00051EC190B53EC102BFFF74EFA41EC1B0B84
:10110000BDF804004A4900EB800001EBC0004069D3
:10111000FFF7D8FA53EC1B2BFFF7CCF953EC1A2B43
:10112000FFF721F9FFF7E1FA606594ED150A95EDF7
:10113000061A002260EE280A95ED070A11463D487E
:1011400000EE810ABCEEC00A8DED000A10EE103AE6
:1011500005F07EFA5FF064000CF0BAFA8DE718EE45
:10116000100AFFF7AFFA41EC100B51EC190B53ECDE
:10117000102BFFF711FA9FED301B53EC112BFFF7EB
:10118000F2F8FFF7B2FA00EE100A002284ED150A19
:1011900060EE280A95ED061A95ED070A11462548D6
:1011A00000EE810ABCEEC00A8DED000A10EE103A86
:1011B00005F04EFA01200CF08BFA18EE100AFFF73A
:1011C00081FA41EC100B51EC190B53EC102BFFF78B
:1011D000E3F953EC1A2BFFF7C6F8FFF786FA00EE97
:1011E000100A002284ED150A60EE280A95ED061A11
:1011F00095ED070A11460F4800EE810ABCEEC00AC1
:101200008DED000A10EE103A05F022FA1320A3E744
:1012100000000000FC18002000000000000030402A
:1012200000000000000010405801002000004C4366
:101230005832002008070020000000000000244071
:10124000014805F082BA0000C0060020014805F000
:101250007CBA000054430020014805F076BA000033
:101260000C430020014805F070BA00003442002011
:10127000014805F06ABA0000EC410020014805F081
:1012800064BA00007C420020014805F05EBA00000C
:10129000C4420020014805F058BA0000A4410020D3
:1012A000014805F052BA00005C41002030B590F8CA
:1012B000444004F01C050124AC40056C6C600468DB
:1012C00063608368102B036803D099600068C26074
:1012D00030BD9A600068C16030BD00002DED028B0A
:1012E00082B04FF0000B8DF804B09FEDF88ADFF864
:1012F000E4A3DFEDF78A0AF18009F74F8DED018A4B
:10130000A9F58078684654469AED070A0BF021FF4C
:10131000BDF8000027F85C0BBDF8020027F85A0C56
:1013200098F8020027F8480C4546684694ED0A0AEA
:101330000BF00FFFBDF8000027F8300CBDF80200DD
:1013400027F82E0C684694ED0B0A0BF002FFBDF84F
:10135000000027F82C0CBDF8020027F82A0C68467C
:1013600094ED0C0A0BF0F5FEBDF8000027F8280CF0
:10137000DA4EBDF8020027F8260C96F82410306AE1
:1013800027F8200C000C40EA014027F81E0CB5F8A5
:10139000460027F81C0C684694ED040A0BF0D9FEB1
:1013A000BDF8000027F8140CBDF8020027F8120C55
:1013B00028793880684694ED1E0A0BF0CAFEBDF805
:1013C00000007882BDF80200B882684694ED060AF3
:1013D0000BF0BFFEBDF800003883BDF80200788333
:1013E000D4ED060A94ED050A684630EEC00A0BF00B
:1013F000B0FEBDF80000B883BDF80200F883B5F870
:101400007A00B884B5F842003886B5F8440078868A
:101410006879F88668464D4699ED010A0BF099FE09
:10142000BDF800003887BDF802007887684695ED62
:10143000000A0BF08EFEBDF80000B887BDF8020070
:10144000F887D6E9051033695C3FF269C51A72EB7B
:10145000010508D2181A61EB0201FFF70CF900EE42
:10146000100A684602E06846B0EE480A0BF071FECA
:10147000BDF8000027F89C0FBDF802007880B8F88E
:101480005000B880B8F85200F88098F80800388109
:1014900098F807007881B8F86C0027F8120F4546D5
:1014A00068464E4699ED080A0BF053FEBDF8000061
:1014B000F882BDF802008A493883684691ED000A37
:1014C0000BF047FEBDF800003884BDF802007884B8
:1014D0006846B0EE680A0BF03CFEBDF80000B88428
:1014E000BDF80200F884E88FA7F842006846A246DB
:1014F00094ED0F0A1E370BF02CFEBDF80000388566
:10150000BDF802007885684694ED110A0BF021FEC3
:10151000BDF80000B885BDF80200F885684694ED76
:10152000130A0BF016FEBDF800003886BDF8020065
:10153000788694ED0F0AD4ED100A684630EE600A02
:101540000BF007FEBDF80000B886BDF80200F88673
:1015500094ED110AD4ED120A684630EE600A0BF0E1
:10156000F8FDBDF800003887BDF80200788794EDDB
:10157000130AD4ED140A684630EE600A0BF0E9FD58
:10158000BDF80000B887BDF80200F887684696ED00
:101590000F0A0BF0DEFDBDF80000A7F84400BDF80F
:1015A0000200A7F84600E87FCC3F00287ED1002645
:1015B00098F8121089BBB8F87200022847D10F2E94
:1015C00045D289ED158A0120BAF80E10431F454A0D
:1015D0000CE000BF52F8264004EB800595ED000AB0
:1015E00003EB80052C44401C84ED000A8842F1DBAB
:1015F0003D4806EB860100EBC104BAF80E5052F8E4
:10160000261003EB850394ED050A19444B4681ED42
:10161000000A0021BAF80E0013E018E052F8265034
:1016200000EE100A05EB8105491CB8EE400AD5ED25
:10163000000A80EE801A93ED150A31EE000A83ED60
:10164000150A8142EADB99ED150A84ED050A06EBDD
:10165000860207EBC204244894F8201100EBC2056F
:1016600000F8321094F822116970B4F82401A880AF
:1016700094F82601A87094F82801A871B4F82A01FA
:10168000288104F5967000210BF06BFD85ED030AAF
:1016900004F5987000210BF064FD85ED040AA8792B
:1016A00028B1012824D0042822D034E059E095ED57
:1016B000050A0E49FDEEC00A10EE900AA4F83401A6
:1016C00010EE900A21F826002AE000000000000039
:1016D000CDCCAC40D8000020FC180020D80200205F
:1016E00024000020783D0020583200205C2000209B
:1016F00095ED050A68460BF02CFDBDF80000A4F836
:101700003401944ABDF80210A4F8361122F82600DC
:1017100002EB86004180A8790228C8D00328C6D0F1
:1017200004F59C7000210BF01CFD85ED080A04F502
:101730009E7000210BF015FD85ED090A04F5A070DF
:1017400000210BF00EFD85ED060A04F5A2700021C4
:101750000BF007FD761CB6B285ED070A282EFFF4C4
:1017600027AFB7F9D600A0F58071E13911D1A7F8FC
:10177000D6B00DF031F978480DF05CFB8DF804001F
:101780000CF086FA0DF048F900200BF0A5FE03F0EE
:10179000EDFDB7F9D60045F23341C8426CD1A7F848
:1017A000D6B0684654469AED0D0A0BF0D2FCBDF84F
:1017B0000000F883BDF802003884684694ED0E0AF4
:1017C0000BF0C7FCBDF800007884BDF80200B884B7
:1017D00098F80310684600EE101AB8EE400A0BF0B5
:1017E000B8FCBDF80000F884BDF8020038856846F2
:1017F00094ED1A0A0BF0ADFCBDF80000A7F86600E6
:10180000BDF80200A7F86800684694ED1B0A0BF0CB
:10181000A0FCBDF80000A7F86A00BDF80200A7F818
:101820006C0068464C4699ED060A0BF092FCBDF838
:101830000000A7F8B400BDF80200A7F8B60068469B
:1018400094ED070A0BF085FCBDF80000A7F8B8007E
:10185000BDF80200A7F8BA000DF0BEF83E480DF042
:10186000E9FA8DF804000CF013FA0DF0D5F8002019
:101870000BF032FE03F07AFDB7F9D81042F2463091
:10188000C1420AD098F81F1019B9B8F8760001289B
:1018900003D00A200BF01CFF34E55946A7F8D8B056
:1018A00000204FF46C720BE00F280BD0112809D0E8
:1018B000332807D0352805D05A2803D05C2801D01A
:1018C00027F81010401C80B29042EDD30A2027F870
:1018D000C80F44F6206078826846B3EE060A0BF023
:1018E00038FCBDF80000B882BDF80200F8826846F6
:1018F000B3EE0A0A0BF02DFCBDF800003883BDF8EA
:101900000200788368469FED150A0BF022FCBDF8B3
:10191000001027F8461CBDF8020027F8440C27F8F1
:10192000401C27F83E0C7980B8806420F8840A486F
:101930000DF080FA8DF80400BFF34F8F084801685E
:10194000084A01F4E06111430160BFF34F8F00BF0B
:10195000FDE700005C200020FC1800200000E147AB
:101960000CED00E00400FA05704700001FB59FED84
:10197000270A274D8DED010A8DED020A8DED000A33
:101980004FF0FF3705F18006A5F180043946A86EB7
:101990000DF02AFD1F494022084607F089F81D4A2C
:1019A0004023114601F5D8700BF028FA01AA402116
:1019B00018480BF075FB03AB02AA402115480BF049
:1019C000ADFA03AB6A46402112480BF01FFB00231F
:1019D0001A4601A9B06E0DF06DFB94ED0E0ADDED17
:1019E000021AD4ED0D0AB0EE401A002301EEA01A3F
:1019F0001A46194684ED131A9DED001A01EE200ACD
:101A000084ED140A686F0DF055FBBFE7000000007D
:101A100058010020201700208CB00122D1034FF084
:101A2000904005F072F90CF00BFC01200CF0F8FB73
:101A30000BF070FB0CF076FCDFF80C84B8F9DA00E0
:101A400000EBD07040100BF043FE01200BF044FD82
:101A5000DFF8F893DFF8F8B3FE4FFF4D4FF0000AC0
:101A6000A87C012803D0687F012806D019E0002057
:101A70000CF0D6FB0BF0A6FD5EE095F82E000128D9
:101A800020D095F82E0002281CD095F82E000328AF
:101A900018D095F82E00042814D095F82E000528AB
:101AA0003DD0B5F8660001284AD002284FD003285F
:101AB00054D0042857D0052858D006285FD00728CE
:101AC0005DD058E000200CF0ABFB002108460CF084
:101AD00023FC5C460123D4E90012E0A00CF0C0FC1A
:101AE000D7E900120123DFA00CF0BAFC0F2100207F
:101AF0000CF012FCD4E900120123DBA00CF0B0FCC6
:101B00001E2100200CF008FCD4E900120123D8A00B
:101B10000CF0A6FCD7E900120123D6A00AE00020B1
:101B20000CF07EFB0F2100200CF0F6FBDBE900122D
:101B30000123D1A00CF094FC0CF0F4FB03F01CBBCF
:101B400095F8251009B1062113E0092111E095F857
:101B5000251009B108210CE001210AE095F82510B3
:101B600031B9282105E095F8251009B1042100E0DC
:101B7000022185F82210E97D012902D00FE003211E
:101B8000F7E7B5F86A2052B1E97F41B9521EA5F8CE
:101B90006A2085F817A085F81BA085F820A0297E6B
:101BA000012910D1B5F86A1095F8222091420AD285
:101BB000EA7F42B9491CA5F86A1085F818A085F893
:101BC0001BA085F820A0697E012927D130B3E97ECA
:101BD00021BBE97F11BB03280CD1B5F86A0048B1DD
:101BE000B5F8680010B1401EA5F86800504685F8A9
:101BF00019A011E0B5F8640010B1401EA5F864000A
:101C00009F48B5F8641030F81100A5F8660085F813
:101C100019A05046A5F86AA085F82000A87E0128E2
:101C200001D1E87E18B1E87E01282FD03AE0E87FA4
:101C300058BBB5F8660003280FD1B5F86A0060B14B
:101C4000B5F86800282804D20C2802D2401CA5F858
:101C50006800504685F81AA015E0B5F86400B5F89C
:101C60007410491E884202DA401CA5F864008448BA
:101C7000B5F8641030F81100A5F8660085F81AA0D0
:101C80005046A5F86AA085F820000BE0B5F86A0078
:101C900040B1E87F20B10020E87785F81BA012E072
:101CA0000120F9E7287F01280DD1B5F86A0050B965
:101CB00095F8250058B1002085F8250085F81CA06E
:101CC000012085F82900E87D012802D00CE00120E0
:101CD000F2E7E87F012807D195F8200010B1401EF7
:101CE00085F8200085F817A0287E012809D1E87F13
:101CF000012806D195F82000012085F8200085F8FC
:101D000018A0287F01280DD1B5F86A0050B10CF059
:101D10007DF985F81CA085F81BA085F825A0012079
:101D200085F82900B5F86E0001287DD1B5F8660068
:101D30000128FAD1B5F86A00002876D10CF070FAC3
:101D4000002108460CF0E8FAD7E9001201234DA063
:101D50000CF086FBA878012805D095F8250088B3FB
:101D6000012842D065E095F8210050B1D7E9001272
:101D7000012345A00CF074FB95F82500012814D030
:101D800017E00F2100200CF0C7FA5C460123D4E9CC
:101D900000123EA00CF064FB1E2100200CF0BCFAE7
:101DA000D4E9001201233BA0E4E7002137200CF026
:101DB00038FC00213C200CF034FC2B213A200CF0A4
:101DC000BFFBB2E1FFE700200CF02AFA0021084631
:101DD0000CF0A2FAD7E9001201232AA00CF040FB74
:101DE00000211C200CF098FA14E000200CF018FAE6
:101DF000002108460CF090FAD7E90012012321A037
:101E00000CF02EFB00211C200CF086FA002137205C
:101E10000CF007FC00213C200CF003FC2B213A20A5
:101E20000CF08EFB0F2101E005E286E100200CF0B2
:101E300073FAB5F87800012852D1122217A102A82E
:101E4000FEF785FA122133E0FC18002058320020FA
:101E5000000000200800002058000020CEE1EDEE38
:101E6000E20000002D000000EBE5EDE8E5000000D9
:101E7000CFCE00002E2E2E00D3D1CFC5D8CDCE0090
:101E8000A83A00204943500020000000CEC1D0DB1A
:101E9000C2000000C4C0D2D7C8CAC000D1CAC7207F
:101EA000E2E8E1F0EEF3F1EAEEF0E5EDE8FF000044
:101EB00002A80CF0EBFA202100200CF02DFAFE48CD
:101EC000806AFEF7FFFBCDE90001FCA24021FD483E
:101ED0000AF068FAD7E900120123FA480CF0C0FAB8
:101EE000B5F8780002281DD11122F7A102A8FEF74B
:101EF0002EFA112102A80CF0C9FA202100200CF0C2
:101F00000BFAED48C06AFEF7DDFBCDE90001EBA25C
:101F10004021EC480AF046FAD7E900120123E948CB
:101F20000CF09EFAB5F8780003281DD11422EBA11D
:101F300002A8FEF70CFA142102A80CF0A7FA20213F
:101F400000200CF0E9F9DC48006BFEF7BBFBCDE9A3
:101F50000001DAA24021DB480AF024FAD7E9001296
:101F60000123D8480CF07CFAB5F8780004281DD17C
:101F70001422E0A102A8FEF7EAF9142102A80CF04D
:101F800085FA202100200CF0C7F9CB48C06BFEF782
:101F900099FBCDE90001C9A24021CA480AF002FA22
:101FA000D7E900120123C7480CF05AFAB5F87800B7
:101FB00005281DD11722D6A102A8FEF7C8F91721BE
:101FC00002A80CF063FA202100200CF0A5F9BA4811
:101FD000406CFEF777FBCDE90001B8A24021B9487B
:101FE0000AF0E0F9D7E900120123B6480CF038FAFC
:101FF000B5F8780006281DD11422CBA102A8FEF75F
:10200000A6F9142102A80CF041FA202100200CF0BE
:1020100083F9A948C06CFEF755FBCDE90001A7A2E2
:102020004021A8480AF0BEF9D7E900120123A548CB
:102030000CF016FAB5F87800072824D11422C1A1B3
:1020400002A8FEF784F9142102A80CF01FFA20213F
:1020500000200CF061F9984890ED0F0AD0ED100ABD
:1020600030EE600A10EE100AFEF72CFBCDE90001FD
:1020700092A2402193480AF095F9D7E90012012372
:1020800090480CF0EDF9B5F87800082824D1142216
:10209000B2A102A8FEF75BF9142102A80CF0F6F930
:1020A0001E2100200CF038F9834890ED110AD0ED84
:1020B000120A30EE600A10EE100AFEF703FBCDE9BB
:1020C00000017EA240217F480AF06CF9D7E9001296
:1020D00001237C480CF0C4F9B5F87800092824D114
:1020E0001422A4A102A8FEF732F9142102A80CF0D0
:1020F000CDF9202100200CF00FF96F4890ED130A64
:10210000D0ED140A30EE600A10EE100AFEF7DAFA8B
:10211000CDE9000169A240216A480AF043F9D7E9F4
:102120000012012367480CF09BF985F81FA085F881
:102130002AA0B5F8660001287DD1B5F86A0001280B
:1021400048D195F82500002876D10CF069F80021D7
:1021500008460CF0E1F80123AFF2D820D7E90012CD
:102160000CF07EF900211C200CF0D6F8002137205D
:102170000CF01FFA00213C200CF053FA0F21002034
:102180000CF0CAF81222AFF2EC2102A8FEF7DFF839
:10219000122102A80CF07AF9202100200CF0BCF8E2
:1021A0004548806AFEF78EFACDE9000177A240210A
:1021B00044480AF0F7F8D7E90012012341480CF02F
:1021C0004FF985F81FA0012085F82A00B5F86600B0
:1021D0000128B1D1B5F86A0002284AD195F8250046
:1021E000002865D10CF01CF8002108460CF094F88A
:1021F0000123AFF27030D7E900120CF031F9002161
:102200001C200CF089F8002137200CF0D2F90021B5
:102210003C200CF006FA0F2100200CF07DF8112272
:1022200029A102A8FEF793F8112102A80CF02EF9BB
:102230002021002001E05BE1B4E20CF06DF81E48C3
:10224000C06AFEF73FFACDE9000150A240211D48C7
:102250000AF0A8F8D7E9001201231A480CF000F997
:1022600085F81FA0012085F82A00B5F8660001282E
:10227000AFD1B5F86A0003281BD195F825000028D6
:1022800018D10BF0CDFF002108460CF045F80123D2
:10229000AFF21040D7E900120CF0E2F800211C2048
:1022A0000CF03AF8002137200CF083F9002171E09E
:1022B000CEE29FE023E30000D8000020252E30313D
:1022C00066000000B63A0020D1CAC720E2E8E1F07B
:1022D000EEF1EAEEF0EEF1F2E8000000D1CAC7201C
:1022E000E2E8E1F0EEEFE5F0E5ECE5F9E5EDE8FF39
:1022F00000000000C0ECEFEBE8F2F3E4E020E2E8DD
:10230000E1F0EEF3F1EAEEF0E5EDE8FF00000000A9
:10231000C0ECEFEBE8F2F3E4E020E2E8E1F0EEF10C
:10232000EAEEF0EEF1F2E800C0ECEFEBE8F2F3E4F5
:10233000E020E2E8E1F0EEEFE5F0E5ECE5F9E5EDCF
:10234000E8FF0000D0E0E7ECE0F520E2E8E1F0EEA5
:10235000F3F1EAEEF0E5EDE8FF000000D0E0E7EC95
:10236000E0F520E2E8E1F0EEF1EAEEF0EEF1F2E87D
:1023700000000000D0E0E7ECE0F520E2E8E1F0EE5C
:10238000EFE5F0E5ECE5F9E5EDE8FF00252E30336B
:10239000660000003C200CF044F90F2100200BF0F7
:1023A000BBFF1422AFF2CC0102A8FDF7D0FF14212D
:1023B00002A80CF06BF8202100200BF0ADFFFE48C6
:1023C000006BFEF77FF9AFF23C02CDE9000140213E
:1023D000FA4809F0E7FFD7E900120123F7480CF0AB
:1023E0003FF885F81FA0012085F82A00B5F866009F
:1023F00001287DD1B5F86A00042845D195F825005B
:10240000002876D10BF00CFF002108460BF084FF6A
:102410000123AFF29050D7E900120CF021F800210F
:1024200037200CF0C6F800213C200CF0FAF80F2100
:1024300000200BF071FF1822AFF2481102A8FDF73F
:1024400086FF182102A80CF021F8202100200BF0B3
:1024500063FFD948C06BFEF735F9AFF2D002CDE982
:1024600000014021D54809F09DFFD7E90012012362
:10247000D2480BF0F5FF85F81FA0012085F82A004F
:10248000B5F866000128B4D1B5F86A00052848D12E
:1024900095F8250000287DD10BF0C2FE00210846EA
:1024A0000BF03AFF0123AFF22460D7E900120BF0E2
:1024B000D7FF002137200CF07CF800213C200CF0E5
:1024C000B0F80F2100200BF027FF1722AFF2C01148
:1024D00002A8FDF73CFF172102A80BF0D7FF20212F
:1024E00000200BF019FFB448406CFEF7EBF801E058
:1024F00052E25CE2AFF26C12CDE900014021AF483C
:1025000009F050FFD7E900120123AC480BF0A8FFF7
:1025100085F81FA0012085F82A00B5F8660001287B
:10252000B1D1B5F86A00062847D195F825000028F2
:102530007ED10BF075FE002108460BF0EDFE012365
:10254000AFF2C060D7E900120BF08AFF00213720FC
:102550000CF02FF800213C200CF063F80F21002034
:102560000BF0DAFE1A22AFF2402102A8FDF7EFFECF
:102570001A2102A80BF08AFF202100200BF0CCFECC
:102580008D48C06CFEF79EF8AFF20022CDE9000145
:10259000402100E051E2894809F004FFD7E9001228
:1025A000012386480BF05CFF85F81FA0012085F809
:1025B0002A00B5F866000128B2D1B5F86A000728EC
:1025C0004ED195F825000028AAD10BF029FE002154
:1025D00008460BF0A1FE0123AFF25870D7E90012B4
:1025E0000BF03EFF002137200BF0E3FF00213C20E1
:1025F0000CF017F80F2100200BF08EFE1522AFF221
:10260000BC2102A8FDF7A3FE152102A80BF03EFF96
:10261000202100200BF080FE674890ED0F0AD0EDDE
:10262000100A30EE600A10EE100AFEF74BF800E0D8
:1026300053E2AFF2A822CDE9000140215F4809F042
:10264000B1FED7E9001201235C480BF009FF85F8C1
:102650001FA0012085F82A00B5F866000128ABD13B
:10266000B5F86A0008284CD195F825000028A3D1B8
:102670000BF0D6FD002108460BF04EFE0123AFF211
:10268000FC70D7E900120BF0EBFE002137200BF0B5
:1026900090FF00213C200BF0C4FF0F2100200BF025
:1026A0003BFE1422AFF24C3102A8FDF750FE14217C
:1026B00002A80BF0EBFE202100200BF02DFE3E487F
:1026C00090ED110AD0ED120A30EE600A10EE100AF9
:1026D000FDF7F8FFAFF24C32CDE900014021374859
:1026E00009F060FED7E90012012334480BF0B8FE70
:1026F00085F81FA0012085F82A00B5F8660001289A
:10270000ADD1B5F86A00092848D195F82500002810
:10271000A5D10BF085FD002108460BF0FDFD01233E
:10272000AFF6A000D7E900120BF09AFE0021372087
:102730000BF03FFF0F2100200BF0EEFD1722AFF250
:10274000CC3102A8FDF703FE172102A80BF09EFE74
:10275000202100200BF0E0FD174890ED130AD0ED8A
:10276000140A30EE600A10EE100AFDF7ABFFAFF26C
:10277000E432CDE900014021104809F013FED7E909
:10278000001201230D480BF06BFE85F81FA00120FD
:1027900085F82A00B5F866000128B1D1B5F86A00BD
:1027A000012851D195F825000128A9D100200BF06E
:1027B00037FD0021084603E0D8000020B63A00208B
:1027C0000BF0AAFD0123AFF64410D7E900120BF07D
:1027D00047FE002132200BF0ECFE002137200BF0E9
:1027E00020FF00213C200BF01CFF0F2100200BF0EC
:1027F00093FD1822F8A102A8FDF7A9FD182102A84F
:102800000BF044FE202100200BF086FDE87F01281C
:1028100015D0B5F97830F7A24021F74809F0C2FD8C
:10282000D7E900120123F4480BF01AFE5FF0010013
:1028300085F82A00B5F86600012805D08BE1EF483D
:102840000AF0EAFD5046F3E7B5F86A00022852D1D3
:1028500095F825000128F1D100200BF0E1FC0021C2
:1028600008460BF059FD0123AFF6E810D7E9001236
:102870000BF0F6FD002132200BF09BFE00213720EB
:102880000BF0CFFE00213C200BF0CBFE0F210020EF
:102890000BF042FD1922DAA102A8FDF758FD19211B
:1028A00002A80BF0F3FD202100200BF035FDE87F9E
:1028B00001281AD0D1480830006AFDF703FFAFF2B3
:1028C0000462CDE900014021CB4809F06BFDD7E956
:1028D00000120123C8480BF0C3FD012085F82A002F
:1028E000B5F86600012806D035E1C44828300AF062
:1028F00063FC5046F2E7B5F86A00032853D195F817
:10290000250001289AD100200BF08AFC00210846FE
:102910000BF002FD0123AFF69420D7E900120BF073
:102920009FFD002132200BF044FE002137200BF0E8
:1029300078FE00213C200BF074FE0F2100200BF0EC
:10294000EBFC1122B5A102A8FDF701FD112102A89F
:102950000BF09CFD202100200BF0DEFCE87F01281D
:102960001BD0A6480830406AFDF7ACFEAFF2B46257
:10297000CDE900014021A04809F014FDD7E900127B
:1029800001239D480BF06CFD5FF0010085F82A00E3
:10299000B5F86600012806D0DDE098482C300AF032
:1029A0000BFC5046F2E7B5F86A00042841D195F8CF
:1029B000250001287ED100200BF032FC00210846C2
:1029C0000BF0AAFC0123AFF64430D7E900120BF05C
:1029D00047FD002132200BF0ECFD002137200BF0E9
:1029E00020FE00213C200BF01CFE0F2100200BF0EC
:1029F00093FC0D228EA102A8FDF7A9FC0D2102A8CF
:102A00000BF044FD202100200BF086FCEB7879A22E
:102A10004021794809F0C6FCD7E900120123764825
:102A20000BF01EFD012085F82A00B5F8660001288C
:102A300040D1B5F86A0005284BD195F8250001284A
:102A400038D100200BF0ECFB002108460BF064FCB1
:102A50000123AFF6D030D7E900120BF001FD0021C1
:102A600032200BF0A6FD002137200BF0DAFD00210B
:102A70003C200BF0D6FD0F2100200BF04DFC142262
:102A80006FA102A8FDF763FC142102A80BF0FEFC65
:102A9000202100200BF040FC58480830406BFDF727
:102AA00011FECDE900016CA24021534809F07AFCE7
:102AB000012300E04FE0D7E900124F480BF0D0FCB3
:102AC00085F81FA0012085F82A00B5F866000128C6
:102AD00041D1B5F86A0006283DD195F825000128B6
:102AE00039D100200BF09CFB002108460BF014FCB0
:102AF0000123AFF67040D7E900120BF0B1FC0021C2
:102B000032200BF056FD0F2100200BF005FC1422A3
:102B100053A102A8FDF71BFC142102A80BF0B6FC80
:102B2000202100200BF0F8FB34480830806BFDF7C3
:102B3000C9FDCDE9000148A240212F4809F032FC2F
:102B4000D7E9001201232C480BF08AFC85F81FA05E
:102B5000012085F82A00B5F8700001283BD1B5F8AE
:102B600066000228FAD1B5F86A0090BB00200BF08D
:102B700057FB002108460BF0CFFBD7E900120123D9
:102B80003DA00BF06DFC2879012803D1B5F8700049
:102B900001280FD095F8250018B1002137200BF03F
:102BA00040FD00213C200BF03CFDB5F86E000128F3
:102BB0007CD096E095F8210060B10123AFF6385043
:102BC000D7E900120BF04CFC95F8250001286FD0D6
:102BD00072E0B3E054E02FE1CFE0F0E0ECE5F2F09A
:102BE00020EDE020E3EBE0E2EDEEEC20ECE5EDFEA5
:102BF0000000000025640000B63A0020D00000204C
:102C0000CFF0E5E4F3EFF0E5E4E8F2E5EBFCEDE02E
:102C1000FF20F3F1F2E0E2EAE0000000C0E2E0F0C1
:102C2000E8E9EDE0FF20F3F1F2E0E2EAE000000085
:102C3000D0E5E6E8EC20F4E8EBFCF2F0E000000080
:102C4000CAEEFDF4F4E8F6E8E5EDF220F3F1E8EB86
:102C5000E5EDE8FF00000000252E3035660000009D
:102C6000CAEEFDF4F4E8F6E8E5EDF220F1ECE5F962
:102C7000E5EDE8FF00000000342D323000000000D8
:102C80000F2100200BF048FB01235C46AFF60460E7
:102C9000D4E900120BF0E4FB1E2100200BF03CFBFA
:102CA0000123AFF61060D4E900128BE715E0FFE7CF
:102CB000002137200BF0B5FC00213C200BF0B1FCCB
:102CC000B5F86E00012803D126213A200BF0E2FC72
:102CD0002B213A200BF034FC2AE026213A200BF07D
:102CE000D9FC2B213A200BF02BFC0F2100200BF0FC
:102CF00013FB1222F6A102A8FDF729FB122102A85C
:102D00000BF0C4FB202100200BF006FBF548806F80
:102D1000FDF7D8FCAFF68C12CDE900014021F24856
:102D200009F040FBD7E900120123EF480BF098FBB4
:102D300085F82AA0B5F8660002287DD1B5F86A00AA
:102D400001287AD195F82500E8BB00200BF068FA3D
:102D5000002108460BF0E0FA0123AFF2E400D7E9C6
:102D600000120BF07DFB002137200BF022FC0F211D
:102D700000200BF0D1FADBE900120123DBA00BF0FD
:102D80006FFB202100200BF0C7FAD6480069FDF741
:102D900099FCCDE90001D6A24021D34809F002FBFD
:102DA000D7E900120123D0480BF05AFB85F81FA089
:102DB000012085F82A00B5F866000228BDD1B5F8D3
:102DC0006A00012857D195F825000128B5D10020C7
:102DD0000BF026FA002108460BF09EFA0123AFF211
:102DE0006810D7E900120BF03BFB002132200BF0FA
:102DF000E0FB002137200BF014FC00213C200BF0FD
:102E000010FC0F2100200BF087FA2522BAA102A89E
:102E1000FDF79DFA252102A80BF038FB20210020A8
:102E20000BF07AFAE87F01281FD0AE48406FFDF71B
:102E300049FCAFF6783201E024E21CE0CDE9000164
:102E40004021A94809F0AEFAD7E900120123A648AB
:102E50000BF006FB5FF0010085F82A000BF062FA28
:102E6000B5F86600022806D0A7E29E4874300AF042
:102E7000A3F95046F0E7B5F86A00022853D195F857
:102E800025000128F0D100200BF0CAF900210846E6
:102E90000BF042FA0123AFF22020D7E900120BF029
:102EA000DFFA002132200BF084FB002137200BF0E9
:102EB000B8FB00213C200BF0B4FB0F2100200BF0ED
:102EC0002BFA262296A102A8FDF741FA262102A894
:102ED0000BF0DCFA202100200BF01EFAE87F01281D
:102EE0001BD08048006FFDF7EDFBAFF63042CDE917
:102EF000000140217C4809F055FAD7E9001201236E
:102F000079480BF0ADFA012085F82A000BF00AFA97
:102F1000B5F86600022806D04FE2724870300AF019
:102F20004BF95046F0E7B5F86A00032851D195F8FF
:102F30002500012898D100200BF072F900210846E5
:102F40000BF0EAF90123AFF2D020D7E900120BF021
:102F500087FA002132200BF02CFB002137200BF0E8
:102F600060FB00213C200BF05CFB0F2100200BF0EC
:102F7000D3F9202274A102A8FDF7E9F9202102A8C3
:102F80000BF084FA202100200BF0C6F9E87F01281D
:102F900019D05448806DFDF795FBAFF6E042CDE9BE
:102FA00000014021504809F0FDF9D7E90012012342
:102FB0004D480BF055FA012085F82A00B5F8660057
:102FC000022806D0F9E1474858300AF0F5F8504693
:102FD000F2E7B5F86A00042851D195F825000128D8
:102FE0009AD100200BF01CF9002108460BF094F94F
:102FF0000123AFF27C30D7E900120BF031FA002147
:1030000032200BF0D6FA002137200BF00AFB00210A
:103010003C200BF006FB0F2100200BF07DF918225D
:1030200052A102A8FDF793F9182102A80BF02EFA7D
:10303000202100200BF070F9E87F012819D02948E1
:10304000006EFDF73FFBAFF68C52CDE90001402149
:10305000254809F0A7F9D7E90012012322480BF00F
:10306000FFF9012085F82A00B5F86600022806D08D
:10307000A3E11C4860300AF09FF85046F2E7B5F82B
:103080006A00052823D195F8250001289AD100204F
:103090000BF0C6F8002108460BF03EF90123AFF211
:1030A0002840D7E900120BF0DBF9002132200BF0A9
:1030B00080FA002137200BF0B4FA00213C200BF0FD
:1030C000B0FA0F2100200BF027F921225CE08AE002
:1030D000D0E0F1F7E5F2EDEEE520E7EDE0F7E5ED24
:1030E000E8E50000D8000020B63A0020D2EEEA0061
:1030F000252E303266000000CDE8E6EDE8E920EF4D
:10310000F0E5E4E5EB20E4E8E0EFE0E7EEEDE020D9
:10311000E4EBFF20EFE5F0E5F1F7E5F2E000000079
:10312000C2E5F0F5EDE8E920EFF0E5E4E5EB20E4B9
:10313000E8E0EFE0E7EEEDE020E4EBFF20EFE5F084
:10314000E5F1F7E5F2E00000D3F1F2E0E2EAE02099
:10315000EDE8E6EDFFFF20EFF0E5E4F3EFF0E5E466
:10316000E8F2E5EBFCEDE0FF00000000D3F1F2E057
:10317000E2EAE020EDE8E6EDFFFF20E0E2E0F0E843
:10318000E9EDE0FF00000000FCA102A8FDF7DFF878
:10319000212102A80BF07AF9202100200BF0BCF8C5
:1031A000E87F012819D0FE48C06DFDF78BFAAFF615
:1031B000F462CDE900014021FA4809F0F3F8D7E9BB
:1031C00000120123F7480BF04BF9012085F82A0083
:1031D000B5F86600022806D0EFE0F1485C3009F04F
:1031E000EBFF5046F2E7B5F86A00062851D195F892
:1031F0002500012846D100200BF012F800210846D6
:103200000BF08AF80123AFF29050D7E900120BF0CF
:1032100027F9002132200BF0CCF9002137200BF0E8
:1032200000FA00213C200BF0FCF90F2100200BF0EC
:1032300073F81922DCA102A8FDF789F8192102A868
:103240000BF024F9202100200BF066F8E87F01281C
:1032500019D0D348406EFDF735FAAFF6A072CDE92C
:1032600000014021CF4809F09DF8D7E90012012361
:10327000CC480BF0F5F8012085F82A00B5F8660077
:10328000022806D099E0C648643009F095FF504600
:10329000F2E7B5F86A0007284AD195F82500012819
:1032A0007DD100200AF0BCFF002108460BF034F865
:1032B0000123AFF23C60D7E900120BF0D1F80021F6
:1032C00032200BF076F9002137200BF0AAF900210B
:1032D0003C200BF0A6F90F2100200BF01DF8142262
:1032E000AFF2A46102A8FDF732F8142102A80BF096
:1032F000CDF81E2100200BF00FF8A948806EFDF7D5
:10330000E1F9AFF2AC62CDE900014021A54809F036
:1033100049F8D7E900120123A2480BF0A1F885F87B
:103320001FA0012085F82A00B5F86600022844D1C4
:10333000B5F86A00082840D195F8250001283CD14D
:1033400000200AF06DFF002108460AF0E5FF012386
:10335000AFF2DC60D7E900120BF082F800213220D6
:103360000BF027F90F2100200AF0D6FF1422AFF24C
:10337000107102A8FCF7EBFF142102A80BF086F8ED
:103380001E2100200AF0C8FF8548C06EFDF79AF99B
:10339000AFF23C72CDE900014021824800E00CE030
:1033A00009F000F8D7E9001201237E480BF058F825
:1033B00085F81FA0012085F82A00B5F872000128C1
:1033C00001D002287DD1B5F86600032840D1B5F8B8
:1033D0006A00E8BB00200AF023FF002108460AF03B
:1033E0009BFFD7E90012012376A00BF039F8B5F85E
:1033F0007200022817D100200AF012FF00210846AF
:103400000AF08AFF5C460123D4E900126EA00BF09B
:1034100027F800211C200AF07FFFD4E900120123C5
:103420006AA00BF01DF895F8250018B1002137208F
:103430000BF0F7F800213C200BF0F3F8B5F86E0024
:10344000012803D0B5F87000012805D1262100E03D
:1034500040E03A200BF01EF92B213A200BF070F8D7
:10346000687901283AD00F2100200AF055FFB5F8FD
:10347000720002284CD0122255A102A8FCF767FF67
:1034800095F87A20122102A80BF022F820210020C2
:103490000AF042FFB5F97A0000EB800109EBC101A7
:1034A0008879012845D0042843D091ED050ABDEE66
:1034B000C00A10EE100A03B2AFF6C8024021394824
:1034C00000E0FDE308F06EFF36480123D7E9001263
:1034D0000AF0C6FF95F82500B8B3F2E395F821008D
:1034E00010B101233FA0F1E70F2100200AF014FFE3
:1034F0005C460123D4E900123BA00AF0B1FF1E2173
:1035000000200AF009FFD4E90012012337A0DFE709
:10351000092238A102A8FCF71AFF092102A80AF023
:10352000B5FF202100200AF0F7FEB5F8463034A29E
:10353000C4E74869FDF7C6F8AFF24C42CDE9000197
:103540004021184808F02EFFBEE7FFE75FF00004B7
:10355000B5F8660003287DD1B5F86A00661CB04254
:103560000AD1B5F8680038B900200AF059FE0021E8
:1035700008460AF0D1FE47E0A3E00000D3F1F2E0F4
:10358000E2EAE020E2E5F0F5EDFFFF20EFF0E5E410
:10359000F3EFF0E5E4E8F2E5EBFCEDE0FF0000001E
:1035A000D8000020B63A0020D3F1F2E0E2EAE020B1
:1035B000E2E5F0F5EDFFFF20E0E2E0F0E8E9EDE024
:1035C000FF00000034383500D2C8CA00C7D1CA0095
:1035D000C7EDE0F7E5EDE8E520F0E5E3E8F1F2F02E
:1035E000E020000020000000CDC5D200D1C2DFC71E
:1035F000C8000000D1EEF1F2EEFFEDE8E5000000BA
:1036000025642025250000002346FDA24021FE4818
:1036100008F0C8FED7E900120123FB480AF020FF9A
:10362000002137200AF0C5FF272C03D000213C20C1
:103630000AF0F7FF2B213A200AF082FF0F21002029
:103640000AF06AFE1222AFF2780102A8FCF77FFEB0
:10365000224600E044E2122102A80AF039FF2021AC
:1036600000200AF059FE04EB840109EBC1018879BE
:1036700001281AD0042818D091ED050AE1A24021B2
:10368000BDEEC00A10EE100A03B2DF4808F08AFE51
:10369000D7E900120123DC480AF0E2FE85F81FA0FA
:1036A000B5F8660003280CD01AE24869FDF70AF85D
:1036B000AFF2C452CDE900014021D34808F072FEB8
:1036C000E6E7B5F86A00B04258D1B5F868000128BD
:1036D00054D100200AF0A4FD002108460AF01CFE87
:1036E0002346C7A24021C84808F05CFED7E9001273
:1036F0000123C5480AF0B4FE002137200AF059FF23
:10370000272C03D000213C200AF08BFF26213A20F1
:103710000AF0C0FF2B213A200AF012FF0F210020EF
:103720000AF0FAFD1822B9A102A8FCF710FE224601
:10373000182102A80AF0CCFE202100200AF0ECFD9E
:10374000E87F04EB8401012811D019F83130ADA2D3
:103750004021AD4808F026FED7E900120123AA480F
:103760000AF07EFEB5F86600032807D0B8E108EB42
:10377000C10000F5907009F04FFEF3E7B5F86A005C
:10378000B04259D1B5F86800022855D100200AF09E
:1037900047FD002108460AF0BFFD234698A24021BC
:1037A000994808F0FFFDD7E90012012396480AF076
:1037B00057FE002137200AF0FCFE272C03D0002101
:1037C0003C200AF02EFF26213A200AF063FF2B212D
:1037D0003A200AF0B5FE0F2100200AF09DFD1A22C2
:1037E00091A102A8FCF7B3FD22461A2102A80AF013
:1037F0006FFE202100200AF08FFDE87F04EB84019A
:10380000012812D009EBC1007EA2437840217E48F6
:1038100008F0C8FDD7E9001201237B480AF020FE1A
:10382000B5F86600032807D05AE108EBC10000F59F
:10383000917009F0F1FDF3E7B5F86A00B04259D193
:10384000B5F86800032855D100200AF0E9FC0021F2
:1038500008460AF061FD234669A240216A4808F043
:10386000A1FDD7E90012012367480AF0F9FD002104
:1038700037200AF09EFE272C03D000213C200AF0BE
:10388000D0FE26213A200AF005FF2B213A200AF02B
:1038900057FE0F2100200AF03FFD0F2269A102A868
:1038A000FCF755FD22460F2102A80AF011FE202147
:1038B00000200AF031FDE87F04EB8401012812D0DA
:1038C00009EBC1004FA2838840214F4808F06AFDF0
:1038D000D7E9001201234C480AF0C2FDB5F8660092
:1038E000032807D0FCE008EBC10000F5927009F056
:1038F00093FDF3E7B5F86A00B04259D1B5F8680016
:10390000042855D100200AF08BFC002108460AF05B
:1039100003FD23463AA240213B4808F043FDD7E986
:103920000012012338480AF09BFD002137200AF0DD
:1039300040FE272C03D000213C200AF072FE2621F5
:103940003A200AF0A7FE2B213A200AF0F9FD0F21B8
:1039500000200AF0E1FC1C223EA102A8FCF7F7FCC3
:1039600022461C2102A80AF0B3FD202100200AF003
:10397000D3FCE87F04EB8401012812D009EBC100DD
:1039800020A283784021204808F00CFDD7E90012DE
:1039900001231D480AF064FDB5F86600032807D02E
:1039A0009EE008EBC10000F5937009F035FDF3E7E8
:1039B000B5F86A00B0427DD1B5F86800052879D124
:1039C00000200AF02DFC002108460AF0A5FC234641
:1039D0000BA240210C4808F0E5FCD7E900120123B6
:1039E00009480AF03DFD002137200AF0E2FD272CAE
:1039F00003D000213C200AF014FE26213A2039E0B1
:103A00003438352025640000B63A0020C2EAEBFEC7
:103A1000F7E8F2FC20EEEFF0EEF120F0E5E3E8F15C
:103A2000F2F0E02000000000C0E4F0E5F120F3F146
:103A3000F2F0EEE9F1F2E2E020F0E5E3E8F1F2F095
:103A4000E0200000C0E4F0E5F120F0E5E3E8F1F269
:103A5000F0E02000D4F3EDEAF6E8EEEDE0EBFCED6B
:103A6000FBE920EAEEE420F0E5E3E8F1F2F0E02003
:103A7000000000000AF00EFE2B213A200AF060FD43
:103A80000F2100200AF048FC2A22FDA102A8FCF721
:103A90005EFC22462A2102A80AF01AFD20210020FD
:103AA0000AF03AFCE87F01281BD004EB840109EB03
:103AB000C10000E030E0006AFCF704FECDE900013F
:103AC000FA4A4021FA4808F06DFCD7E900120123B8
:103AD000F7480AF0C5FC00BFB5F8660003281BD004
:103AE0008AE304EB84000B9009EBC00000902030C7
:103AF00009F062FB009890ED080A0AA809F029FB7A
:103B00000B98BDF8282008EBC000A0F83821BDF8BC
:103B10002A10A0F83A11DFE7B5F86A00B04274D174
:103B2000B5F86800062870D100200AF079FB002162
:103B300008460AF0F1FB2346AFF23C124021DC4874
:103B400008F030FCD7E900120123D9480AF088FCBC
:103B5000002137200AF02DFD272C03D000213C2026
:103B60000AF05FFD26213A200AF094FD2B213A202D
:103B70000AF0E6FC0F2100200AF0CEFB2222CDA1A4
:103B800002A8FCF7E4FB2246222102A80AF0A0FCCE
:103B9000202100200AF0C0FBE87F012819D004EBA7
:103BA000840109EBC100406AFCF78CFDCDE90001FE
:103BB000BE4A4021BE4808F0F5FBD7E900120123B8
:103BC000BB480AF04DFC00BFB5F8660003281CD0C6
:103BD00012E304EB84000B9009EBC000009024304A
:103BE00009F0EAFA009890ED090A0AA809F0B1FA7A
:103BF0000B98BDF8282008EBC000A0F83C21BDF8C8
:103C00002A10A0F83E11DFE7FFE7B5F86A00B042DE
:103C100076D1B5F86800072872D100200AF000FBC1
:103C2000002108460AF078FB2346AFF22C224021FF
:103C30009F4808F0B7FBD7E9001201239C480AF01F
:103C40000FFC002137200AF0B4FC272C03D0002100
:103C50003C200AF0E6FC26213A200AF01BFD2B212D
:103C60003A200AF06DFC0F2100200AF055FB2B22B0
:103C700099A102A8FCF76BFB22462B2102A80AF0AF
:103C800027FC202100200AF047FBE87F01281BD0F9
:103C900004EB840109EBC1008069FCF713FDCDE959
:103CA0000001824A4021824808F07CFBD7E90012DB
:103CB00001237F480AF0D4FBB5F86600032801E031
:103CC000A3E29EE21CD097E204EB84000B9009EB88
:103CD000C0000090183009F06FFA009890ED060AC5
:103CE0000AA809F036FA0B98BDF8282008EBC000A6
:103CF000A0F84021BDF82A10A0F84211DCE7FFE748
:103D0000B5F86A00B04274D1B5F86800082870D1DF
:103D100000200AF085FA002108460AF0FDFA234641
:103D2000AFF224324021624808F03CFBD7E9001290
:103D300001235F480AF094FB002137200AF039FC88
:103D4000272C03D000213C200AF06BFC26213A20CE
:103D50000AF0A0FC2B213A200AF0F2FB0F210020F0
:103D60000AF0DAFA232267A102A8FCF7F0FA224649
:103D7000232102A80AF0ACFB202100200AF0CCFA93
:103D8000E87F012819D004EB840109EBC100C06968
:103D9000FCF798FCCDE90001444A4021444808F072
:103DA00001FBD7E90012012341480AF059FB00BF8B
:103DB000B5F8660003281CD01EE204EB84000B90CB
:103DC00009EBC00000901C3009F0F6F9009890ED66
:103DD000070A0AA809F0BDF90B98BDF8282008EBDE
:103DE000C000A0F84421BDF82A10A0F84611DFE772
:103DF000FFE7B5F86A00B04241D1B5F8680009287C
:103E00003DD100200AF00CFA002108460AF084FA9D
:103E10002346AFF214424021254808F0C3FAD7E9FF
:103E20000012012322480AF01BFB002137200AF070
:103E3000C0FB272C03D000213C200AF0F2FB2621F6
:103E40003A200AF027FC2B213A200AF079FB0F21B7
:103E500000200AF061FA172233A102A8FCF777FAD2
:103E60002246172102A80AF033FB202100200AF085
:103E700053FAE87F01287BD004EB840160E092E0F4
:103E8000CDE8E6EDFFFF20EFF0E5E4F3EFF0E5E449
:103E9000E8F2E5EBFCEDE0FF20F3F1F2E0E2EAE02E
:103EA00020F0E5E3E8F1F2F0E0200000BC22010898
:103EB000B63A0020CDE8E6EDFFFF20E0E2E0F0E8D2
:103EC000E9EDE0FF20F3F1F2E0E2EAE020F0E5E3E3
:103ED000E8F1F2F0E0200000C2E5F0F5EDFFFF2090
:103EE000EFF0E5E4F3EFF0E5E4E8F2E5EBFCEDE01C
:103EF000FF20F3F1F2E0E2EAE020F0E5E3E8F1F29E
:103F0000F0E02000C2E5F0F5EDFFFF20E0E2E0F098
:103F1000E8E9EDE0FF20F3F1F2E0E2EAE020F0E58D
:103F2000E3E8F1F2F0E02000CAEEFDF4F4E8F6E890
:103F3000E5EDF220C020F0E5E3E8F1F2F0E020004A
:103F400009EBC100C068FCF7BDFBCDE90001FD4AEB
:103F50004021FD4808F026FAD7E900120123FA486B
:103F60000AF07EFAB5F8660003281CD044E1FFE7AA
:103F700004EB84000B9009EBC00000900C3009F0BA
:103F80001BF9009890ED030A0AA809F0E2F80B98D3
:103F9000BDF8282008EBC000A0F82C21BDF82A109D
:103FA000A0F82E11DEE7B5F86A00B04273D1B5F87B
:103FB00068000A286FD100200AF032F90021084673
:103FC0000AF0AAF92346AFF2C8524021DE4808F0B1
:103FD000E9F9D7E900120123DB480AF041FA002190
:103FE00037200AF0E6FA272C03D000213C200AF003
:103FF00018FB26213A200AF04DFB2B213A200AF02B
:104000009FFA0F2100200AF087F91722CFA102A8FA
:10401000FCF79DF92246172102A80AF059FA20213F
:1040200000200AF079F9E87F012818D004EB840118
:1040300009EBC1000069FCF745FBCDE90001C14A6D
:104040004021C14808F0AEF9D7E900120123BE486B
:104050000AF006FAB5F8660003281CD0CCE004EBA1
:1040600084000B9009EBC0000090103009F0A4F818
:10407000009890ED040A0AA809F06BF80B98BDF8B7
:10408000282008EBC000A0F83021BDF82A10A0F8C5
:104090003211DFE7FFE7B5F86A00B0425CD1B5F84E
:1040A00068000B2858D100200AF0BAF80021084611
:1040B0000AF032F92346AFF2B8624021A24808F074
:1040C00071F9D7E9001201239F480AF0C9F90021CC
:1040D00037200AF06EFA272C03D000213C200AF08A
:1040E000A0FA26213A200AF0D5FA2B213A200AF02C
:1040F00027FA0F2100200AF00FF9142299A102A833
:10410000FCF725F92246142102A80AF0E1F9202142
:1041100000200AF001F9E87F04EB8401012814D0A3
:1041200009EBC1008379AFF224724021864808F080
:1041300039F9D7E90012012383480AF091F900BF49
:10414000B5F86600032807D056E008EBC10000F57B
:10415000947009F061F9F3E7B5F86A00B0424BD109
:10416000B5F868000C2847D100200AF059F8002162
:1041700008460AF0D1F82346AFF27C72402172481B
:1041800008F010F9D7E9001201236F480AF068F926
:10419000002137200AF00DFA272C03D000213C2003
:1041A0000AF03FFA26213A200AF074FA0F21002083
:1041B0000AF0B2F8112271A102A8FCF7C8F8224651
:1041C000112102A80AF084F9202100200AF0A4F8A5
:1041D000E87F04EB8401012818D009EBC1000389B2
:1041E000AFF2E0724021584808F0DCF8D7E900123D
:1041F000012355480AF034F9641CE4B2282CFFF47A
:10420000A7A9B5F86600032807D096E008EBC1001F
:1042100000F5957009F000F9EEE7B5F86A0001289D
:1042200049D195F8250001287ED1002009F0F8FF3A
:10423000002108460AF070F80123AFF67840D7E96C
:1042400000120AF00DF9002132200AF0B2F9002123
:1042500037200AF0E6F900213C200AF0E2F90F21AC
:1042600000200AF059F837491822803902A8FCF7D3
:104270006EF8182102A80AF009F9202100200AF09E
:104280004BF8E87F012812D0B5F97A30AFF68C02EE
:1042900040212D4808F086F8D7E9001201232A486A
:1042A0000AF0DEF8B5F86600032804D045E0384887
:1042B00009F0B2F8F6E7B5F86A000228B4D195F82B
:1042C00025000128B0D1002009F0AAFF00210846EE
:1042D0000AF022F80123AFF61450D7E900120AF0D1
:1042E000BFF8002132200AF064F90F2100200AF003
:1042F00013F8082227A102A8FCF729F8082102A830
:104300000AF0C4F8202100200AF006F8E87F01280E
:104310004AD01F488630006BFCF7D4F9CDE9000184
:104320001FA24021084800E00CE208F03BF8D7E962
:104330000012012304480AF093F8B5F86600042837
:1043400037D01AE3582C0108B63A0020CAEEFDF423
:10435000F4E8F6E8E5EDF220C220F0E5E3E8F1F25A
:10436000F0E02000D2E8EF20E4E0EDEDFBF520F0F6
:10437000E5E3E8F1F2F0E02000000000D2E0E9EC33
:10438000E0F3F220F0E5E3E8F1F2F0E020000000D5
:10439000D2000020D1EAEEF0EEF1F2FC00000000C5
:1043A000252E303066000000FB49FC4808F0BEFFB7
:1043B000C3E7B5F86A00E8BB002009F031FF00212F
:1043C000084609F0A9FF5C460123D4E90012F4A0D5
:1043D0000AF046F895F8250018B1002137200AF0B8
:1043E00020F900213C200AF01CF926213A200AF08D
:1043F00051F92B213A200AF0A3F80F21002009F0EF
:104400008BFFD4E900120123E7A00AF029F8D7E9CD
:1044100000120123E6A00AF023F810212A2009F057
:104420007BFF2B7AAFF624224021E24807F0BAFF47
:10443000012300E02BE0D7E90012DE480AF010F873
:104440002021002009F068FFD4E900120123DAA03E
:104450000AF006F8D7E900120123D5A00AF000F807
:1044600021212A2009F058FFEB79AFF6682240217C
:10447000D04807F097FFD7E900120123CD4809F093
:10448000EFFF85F82AA0B5F8660004287ED1B5F8BC
:104490006A00012867D195F82500A8BB002009F023
:1044A000BFFE0021084609F037FFDBE900120123B7
:1044B000BBA009F0D5FF002137200AF07AF80021CF
:1044C0003C200AF0AEF8B5F87200012802D00228AC
:1044D0001BD03FE00F21002009F01EFF1022B8A1E1
:1044E00002A8FBF734FF102102A809F0CFFFD7E99B
:1044F00000120123B7A009F0B3FF2021002009F02A
:104500000BFFB5F86C301AE0A0E00F21002009F095
:1045100003FF0D22B0A102A8FBF719FF0D2102A88D
:1045200009F0B4FFD7E900120123AFA009F098FF0A
:104530002021002009F0F0FEAD48008C83B2ADA22E
:1045400040219C4807F02EFFD7E90012012399482B
:1045500009F086FF85F81FA0012085F82A00B5F82C
:104560006600042812D1B5F86A0002286AD195F8CD
:10457000250098BB002009F053FE0021084609F0F1
:10458000CBFEDBE90012012385A000E0A8E009F0E2
:1045900067FF002137200AF00CF8B5F872000128F7
:1045A00002D002281BD044E00F21002009F0B4FE05
:1045B000102283A102A8FBF7CAFE102102A809F06D
:1045C00065FFD7E9001201238CA009F049FF2021E3
:1045D000002009F0A1FEB5F842301FE08FE00F2166
:1045E000002009F099FE0D227BA102A8FBF7AFFE87
:1045F0000D2102A809F04AFFD7E90012012380A08B
:1046000009F02EFF2021002009F086FE7849086A73
:1046100091F82410000C40EA014083B275A24021B9
:10462000644807F0BFFED7E900120123614809F092
:1046300017FF85F81FA0012085F82A00B5F866004D
:1046400004284DD1B5F86A00012854D195F8250009
:10465000012877D1002009F0E3FD0021084609F088
:104660005BFE5C460123D4E900124DA009F0F8FE80
:104670000021322009F09DFF0021372009F0D1FFF1
:1046800000213C2009F0CDFF0F21002009F044FE5D
:10469000D4E9001201235CA009F0E2FEC82009F071
:1046A00017F82021002009F037FEE87F012818D0F4
:1046B000B5F84A30AFF6B44240213E482A3507F0FB
:1046C00071FED7E9001201233A4809F0C9FE012022
:1046D00005F8010B05F82BA9B5F8660004280AD0E7
:1046E0004BE12E48E63808F097FE85F82AA0012015
:1046F00085F82B00F0E7B5F86A0002284BD195F851
:1047000025000128A5D1002009F08AFD00210846D6
:1047100009F002FEDBE90012012321A009F0A0FE4E
:104720000021322009F045FF0021372009F079FFF0
:1047300000213C2009F075FF0F21002009F0ECFD5D
:10474000182200E002E132A102A8FBF700FE1821C6
:1047500002A809F09BFE2021002009F0DDFDE87F82
:10476000012863D0B5F84C30AFF6685240211148AB
:104770002A3507F017FED7E9001201230D4809F08A
:104780006FFE012005F8010B05F82BA9B5F86600AE
:10479000042854D0F1E052E074140208880100208B
:1047A000D0E5EBE500000000CFF0E5E400000000FC
:1047B0002E000000B63A0020C0E2E0F00000000049
:1047C000C0F2F2F0E8E1F3F220F1EEE1FBF2E8FFF3
:1047D0000000000020310000C1E8F220F1EEF1F20B
:1047E000EEFFEDE8FF00000028302D3135290000F4
:1047F000D802002030782558000000002032000048
:104800002831362D33312900D0E5E6E8EC000000F0
:10481000C7E0E4E5F0E6EAE020EDE020F1F0E0E1D9
:10482000E0F2FBE2E0EDE8E500000000FE4808F001
:10483000F3FD85F82AA0012085F82B00A6E7B5F83E
:104840006A00032855D195F8250001287ED1002063
:1048500009F0E6FC0021084609F05EFD0123AFF2F5
:10486000C000DBE9001209F0FBFD0021322009F055
:10487000A0FE0021372009F0D4FE00213C2009F0E1
:10488000D0FE0F21002009F047FD2122E7A102A858
:10489000FBF75DFD212102A809F0F8FD2021002091
:1048A00009F03AFDE87F012819D0B5F84E30AFF68F
:1048B000AC624021E6482A3507F074FDD7E90012C2
:1048C0000123E34809F0CCFD012005F8010B05F8B0
:1048D0002BA900BFB5F8660004280AD04DE0D248E5
:1048E000801C08F099FD85F82AA0012085F82B008E
:1048F000F0E7B5F86A000428A8D195F8250001284A
:10490000A4D1002009F08CFC0021084609F004FD28
:104910000123AFF27410DBE9001209F0A1FD0021C0
:10492000322009F046FE0F21002009F0F5FC092293
:10493000C8A102A8FBF70BFD092102A809F0A6FDFA
:104940002021002009F0E8FCE87F00E0D7E1012801
:1049500018D0B5F85430AFF654724021BC482A350F
:1049600007F020FDD7E900120123B94809F078FDCE
:10497000012005F8010B05F82BA9B5F866000528FC
:104980000AD0B7E1A848083008F046FD85F82AA00B
:10499000012085F82B00F0E7B5F86A0028BB00205D
:1049A00009F03EFC0021084609F0B6FC00213C203D
:1049B00009F037FE26213A2009F06CFE2B213A201F
:1049C00009F0BEFD0F21002009F0A6FC0922A4A1D8
:1049D00002A8FBF7BCFC092102A809F057FD85F8E5
:1049E0002AA0B5F8660005284CD1B5F86A00012860
:1049F00053D1002009F014FC0021084609F08CFC7A
:104A00005C460123D4E9001298A009F029FD012396
:104A1000AFF26420D7E9001209F022FD002137200F
:104A200009F0C7FD00213C2009F0FBFD0F2100200B
:104A300009F072FCD4E9001201238EA009F010FDE8
:104A4000C82008F045FE2021002009F065FCE87F21
:104A5000012818D0B5F85E3088A240217C482A355C
:104A600007F0A0FCD7E900120123794809F0F8FC0F
:104A7000012005F8010B05F82BA900BFB5F8660069
:104A800005280AD036E16848123008F0C5FC85F8E0
:104A90002AA0012085F82B00F0E7B5F86A0002286B
:104AA00058D1002009F0BCFB0021084609F034FC75
:104AB000DBE9001201236DA009F0D2FC0123AFF263
:104AC0001030D7E9001209F0CBFC0021372009F0A3
:104AD00070FD00213C2009F0A4FD0F21002009F009
:104AE0001BFC0822AFF2547102A8FBF730FC08212E
:104AF00002A809F0CBFC2021002009F00DFCE87F82
:104B000001281ED04848B430C06AFBF7DBFDAFF285
:104B10007072CDE9000140214D4807F043FCD7E910
:104B2000001201234A4809F09BFC012085F82A0065
:104B30004FEA0A0085F82B00B5F86600052809D071
:104B4000D8E039484E49E03008F0F0FB85F82AA05B
:104B50000120EFE7B5F86A00032852D1002009F0E0
:104B60005FFB0021084609F0D7FBDBE900120123B7
:104B70003EA009F075FC0123AFF2CC30D7E900125A
:104B800009F06EFC0021372009F013FD00213C20C4
:104B900009F047FD0F21002009F0BEFB0E2239A1CC
:104BA00002A8FBF7D4FB0E2102A809F06FFC20211C
:104BB000002009F0B1FBE87F012818D0B5F860307B
:104BC0002EA2402122482A3507F0ECFBD7E900123B
:104BD00001231F4809F044FC012005F8010B05F8EA
:104BE0002BA900BFB5F8660005280AD082E00E4860
:104BF000143008F011FC85F82AA0012085F82B005C
:104C0000F0E7B5F86A00042879D1002009F008FB24
:104C10000021084609F080FBDBE90012012313A004
:104C200009F01EFC012335E0A4000020C7E0E4E504
:104C3000F0E6EAE020EDE020E2FBF5EEE420E8E734
:104C400020F1F0E0E1E0F2FBE2E0EDE8FF0000003F
:104C5000B63A0020D2E5F1F220F0E5EBE5000000E5
:104C6000CDE0F1F2F0EEE9EAE8000000CDE0F1F28B
:104C7000F0000000C0E4F0E5F10000002564000051
:104C800074140208C2F0E5ECFF20EFF0EEE3F0E56B
:104C9000E2E00000AFF2E840D7E9001209F0E0FBE3
:104CA0000021372009F085FC0F21002009F034FB9A
:104CB0000E22FEA102A8FBF74AFB0E2102A809F072
:104CC000E5FB2021002009F027FBE87F012817D011
:104CD000B5F87630AFF25C024021F84807F062FB8D
:104CE000D7E900120123F54809F0BAFB5FF0010093
:104CF00085F82A00B5F86600062806D0FFE040E1F6
:104D0000EF4808F089FB5046F2E7B5F86A0008BBA7
:104D1000002009F085FA0021084609F0FDFA00217B
:104D20003C2009F07EFC26213A2009F0B3FC0F213B
:104D3000002009F0F1FA0A22E2A102A8FBF707FB22
:104D40000A2102A809F0A2FB85F82AA0B5F866009E
:104D500006287CD1B5F86A00012848D1002009F066
:104D60005FFA0021084609F0D7FADBE900120123B7
:104D7000D7A009F075FB0123AFF2CC50D7E90012A0
:104D800009F06EFB0021372009F013FC00213C20C4
:104D900009F047FC0F21002009F0BEFA1222CDA134
:104DA00002A8FBF7D4FA122102A809F06FFB202118
:104DB000002009F0B1FAC2488A3090ED080A10EEDE
:104DC000100AFBF77FFCCDE90001C74A4021BB4830
:104DD00007F0E8FAD7E900120123B84809F040FBD0
:104DE000012085F82A00B5F8660006282FD1B5F80D
:104DF0006A00022844D1002009F012FA0021084676
:104E000009F08AFADBE900120123B1A009F028FBBE
:104E10000123AFF26460D7E9001209F021FB002101
:104E2000372009F0C6FB00213C2009F0FAFB0F21D6
:104E3000002009F071FA0922ACA102A8FBF787FA59
:104E4000092102A809F022FB2021002000E056E001
:104E500009F062FA9FEDA80BA94A8DED000B4021E5
:104E6000964807F09FFAD7E900120123934809F00A
:104E7000F7FA012085F82A00B5F8660006283ED129
:104E8000B5F86A0003287CD1002009F0C9F9002197
:104E9000084609F041FADBE9001201238CA009F071
:104EA000DFFA0123AFF2F860D7E9001209F0D8FA6F
:104EB0000021372009F07DFB0F21002009F02CFA9A
:104EC000D7E9001201238FA009F0CAFA202100209F
:104ED00009F022FA7A488A300068FBF7F3FBCDE943
:104EE0000001814A4021754807F05CFAD7E90012B9
:104EF0000123724809F0B4FA012085F82A00B5F8B8
:104F0000660007283DD1B5F86A00D8B995F82300A6
:104F1000012836D1002009F083F90221372009F059
:104F200080FB0F21002009F0F7F90C2277A102A8DD
:104F3000FBF70DFA0C2102A809F0A8FAB5F86600F3
:104F400007281ED1B5F86A00012847D1002009F0D2
:104F500067F90021084609F0DFF9DBE900120123B7
:104F60006EA009F07DFA0123AFF2BC70D7E9001200
:104F700009F076FA0221302009F01BFB02213720CC
:104F800000E0F1E009F04DFB0F21002009F0C4F929
:104F9000D7E900120123634809F062FA20210020BA
:104FA00009F0BAF9E87F012813D0B5F86E30AFF2F6
:104FB00034324021414807F0F5F9D7E900120123C6
:104FC0003E4809F04DFA00BFB5F86600072805D045
:104FD000CAE03B48083808F01FFAF5E7B5F86A0060
:104FE000022845D1002009F01BF90021084609F0EC
:104FF00093F9DBE90012012348A009F031FA0123FB
:10500000AFF65400D7E9001209F02AFA0221302045
:1050100009F0CFFA0221372009F003FB0F2100200D
:1050200009F07AF9D7E9001201233F4809F018FA8C
:105030002021002009F070F9E87F012813D0B5F88D
:105040007030AFF2C83240211C4807F0ABF9D7E905
:1050500000120123194809F003FA00BFB5F86600F1
:10506000072805D080E01648801F08F0D5F9F5E73D
:10507000B5F86A00032877D1002009F0D1F80021A3
:10508000084609F049F9DBE90012012323A009F0E1
:10509000E7F90123AFF6E800D7E9001209F0E0F9DB
:1050A0000221302009F085FA0F213FE0D1E1F0EE36
:1050B000F120EDE0F1F2F0EEE5EA0000B63A002072
:1050C000CE000020C8EDF4EEF0ECE0F6E8FF0000C2
:1050D000C8EDF400CDE0EFF0FFE6E5EDE8E520EF08
:1050E000E8F2E0EDE8FF0000BC220108C2E5F0F1C3
:1050F000E8FF20CFCE0000009A9999999999154020
:10510000F03001084D4D544500000000CACECDD40A
:10511000C8C3D3D0C0D6C8DF00000000CAEEEDF48B
:1051200000000000841E0108782C0108002009F00E
:10513000F3F8D7E900120123154809F091F920216D
:10514000002009F0E9F8E87F01281AD0B5F872309C
:10515000AFF2D84240210F4807F024F9D7E90012F6
:1051600001230C4809F07CF909F0DCF895F82100DE
:1051700058B1002085F82100642008F0A9FAFCF756
:105180006FBC054808F048F9EEE70120F2E700009F
:10519000C4350108B63A0020CA000020184F002686
:1051A000DFF860B086B04FF008084FF0180A4FF0F3
:1051B0008009A7F5C07401254FF0FF31F86A0AF0A5
:1051C00013F9607F0128F7D101AA0496009682E8BE
:1051D0002005CBF8109001F09FFC04F82F0F03205E
:1051E00008F076FA04A9684601F0C8FB207001F0C7
:1051F00037FC14F82F090028DED184F82E50DBE7A5
:10520000D801002000200240124A117F12480129D3
:1052100001D003290BD1036843F4006303600368E2
:1052200023F400630360036843F4007303600229FE
:1052300001D003290BD1016841F48051016001685C
:1052400021F480510160016841F480610160002017
:10525000107770474C040020002002400849C20724
:1052600003D04A6942F004024A61800703D54869C5
:1052700040F400404861486940F48030486170471C
:1052800000200240CA070B494A6902D022F400629A
:1052900001E042F400624A614A6960F3CA024A616D
:1052A000486940F002004861486940F48030486134
:1052B0007047000000200240044910B54C6944F0DA
:1052C00001044C610260436010BD000000200240F8
:1052D000074B10B55C69402244F480245C6172B6CF
:1052E00008C908C0521E12F0FF02F9D162B610BD03
:1052F0000020024070B5054601F00CFD0646184C32
:1053000008E0681C06D001F005FD801BA84201D30F
:10531000032070BD2069C043C003F2D52169114844
:105320000140A06900F00040084311D00E494A68CE
:1053300002434A60810F04D0A16900F0404211434A
:10534000A161810002D020F040402061012070BDA9
:105350002069C043C00701D101202061002070BD39
:1053600000200240FAC302004C040020294810B576
:10537000C078A0B3012840D0022828D3264B274A62
:105380000221A3F10C0007F0BEFD234B234A843316
:1053900021480221783007F0B6FD1F4B1F4AB03379
:1053A0000221A3F10C0007F0AEFD1B4B1B4A2C336E
:1053B000A03A0221A3F10C0007F0A5FD164B174AF5
:1053C0005833783A0221A3F10C0007F09CFD1648EF
:1053D0009FED130B80ED0A0B80ED0C0B10BDFFE76A
:1053E0000D4B0E4A0221503AA3F10C0007F08BFD41
:1053F000094B0A4A8433503ACAE7074B074A02214D
:10540000283AA3F10C0007F07EFD034B034A8433D6
:10541000283ABDE7580000202C180020F80300208F
:105420000000000000000000D802002010B5044673
:105430000AF068F9014614B108F048F82060C86C19
:1054400010BD00002DE9F84F4FF000080446CDF8DC
:1054500000800D4694F85420DFF8089421694746EF
:105460004046012A0AD00126FF4A84F8546041B11F
:10547000A969012905D0636EEBB129E00220BDE8DE
:10548000F88F6868082838D1296A4FF4F85041B17C
:105490002B6801F03C0100EA93400843696A084325
:1054A00002E0296800EA91402368D96C1140014369
:1054B000D964206621E0C4E91871296AA86931B16C
:1054C00001F03C01401E0843696A084300E0401EA9
:1054D00029682B79C1F3846103F01F0399400143CC
:1054E000606E401E6066236E43EA0103236604D1AA
:1054F0002068C16C11401943C164206803F058FB57
:1055000048B9687F90B12068C168AA7F21F4401132
:1055100041EA4251C160206803F052FB8246206894
:1055200003F046FB5AEA00000BD0DDE0A87F297F9C
:10553000400540EA01512068C26822F4401211433C
:10554000E8E7286A28B1686A18B1687F012845D061
:1055500002E0687F012804D02068C16821F0007152
:1055600003E02068C16841F00071C16095F828002F
:1055700001283AD02068016921F002010161AA687E
:1055800029682068B2F1004F20D003F034FB206876
:10559000416921F00041416120686969C268C2F334
:1055A000C102520091402A69042A2AD000EB8200ED
:1055B0002B68DFF8B8C2026E03F0F84302EA0C026F
:1055C0000B431A4342F0004101668DE0002203F0D4
:1055D00012FB2068416941F00041DCE7A06D40F01A
:1055E0002000A0654FF00108C0E7D5E90B01084392
:1055F00021680A6922F4FF7242F002021043086136
:10560000BDE7002103F0CAFA400320684FF0000113
:1056100072D003F0C3FA90FAA0F0B0FA80F12868D3
:1056200042036ED090FAA0F0B0FA80F0814204D12B
:1056300000221146206803F0F5FA0121206803F0EA
:10564000ADFA400320684FF001015DD003F0A6FAE7
:1056500090FAA0F0B0FA80F12868420359D090FA8D
:10566000A0F0B0FA80F0814204D10022012120682C
:1056700003F0D8FA0221206803F090FA4003206872
:105680004FF0020148D003F089FA90FAA0F0B0FA86
:1056900080F12868420344D090FAA0F0B0FA80F07C
:1056A000814204D100220221206803F0BBFA0321C9
:1056B000206803F073FA400320684FF0030133D0F1
:1056C00003F06CFA90FAA0F0B0FA80F12868420377
:1056D0002FD090FAA0F0B0FA80F0814204D10022DD
:1056E0000321206803F09EFA2068816811F0010F01
:1056F00022D0ABE000E004E003F050FAC0F3846194
:105700008DE7C0F3846091E703F048FAC0F3846149
:10571000A2E7C0F38460A6E703F040FAC0F3846117
:10572000B7E7C0F38460BBE703F038FAC0F38461E5
:10573000CCE7C0F38460D0E72B7B296850F8B02F0A
:10574000C1F3120C22EA0C0203F0180C484B23FAA6
:105750000CF30B401A430260E968494576D128688A
:1057600041031BD090FAA0F1B1FA81F1491C01F07C
:105770001F0109294FEA403131D8002911D090FA90
:10578000A0F1B1FA81F100BF01F1010101F01F01A7
:1057900006FA01F608D1C0F3846109E0C0F3846120
:1057A000E4E7C0F38461EFE790FAA0F1B1FA81F188
:1057B00001F1010101F01F0146EA816102D1C0F34C
:1057C000846003E090FAA0F0B0FA80F000F10100EC
:1057D00000F01F0000EB400041EA005132E00029D8
:1057E0000ED090FAA0F1B1FA81F100BF01F10101F0
:1057F00001F01F0106FA01F605D1C0F3846106E04D
:10580000C0F38461F2E790FAA0F1B1FA81F101F1FD
:10581000010101F01F0146EA816102D1C0F38460F9
:1058200003E090FAA0F0B0FA80F000F1010000F07F
:105830001F00104A00EB400002EB005041EA00015B
:1058400041F00071AA68206803F0D5F90A482A6877
:10585000024256D009488168094E01F0E071094BB7
:10586000094D13E000007F400020088200F0FF0394
:10587000FFFF0700000020FE000008800003045026
:10588000000052C70000045000020450B2421BD175
:105890000E0219D422689A4201D0AA4231D18268FC
:1058A00041F4000122F0E0720A438260174818496F
:1058B0000068B0FBF1F000EB4000800000E0401E0B
:1058C00000900028FBD11CE0124EB24209D1CE015B
:1058D00007D422689A4201D0AA4212D141F08071C5
:1058E0000AE06FF00045EA420BD14A0209D422686F
:1058F0009A4206D141F48001826822F0E0720A43A4
:10590000826084F854704046B9E500006C040020C1
:10591000400D0300000084CB0068B1F5877F0FD0F5
:10592000B1F5057F09D0A1F540711A3902D0D0F840
:1059300080007047D0F88C007047D0F8880070471E
:10594000D0F88400704700002DE9F0410446374844
:105950000F46806800F01F066069082804D02025E3
:1059600001F0D8F980460AE04025F9E7781C06D016
:1059700001F0D0F9A0EB0800B84215D8A7B1206813
:1059800000682842F2D02168C86C10F0C00F15D012
:105990000022C86810F4406F12D00023244F25481D
:1059A000B9420FD184460EE0A06D40F00400A0651E
:1059B000002084F854000320BDE8F0810122E8E7CC
:1059C0000123EBE78C468C450ED06EB1062E0BD032
:1059D000072E09D0B94200D00846C068A66D46F42B
:1059E0000056A6653AB901E0C868F7E7820112D40B
:1059F0008BB182040FD40A6852060CD582020AD4F5
:105A0000A26D22F48052A265A26DD20503D4A26DCC
:105A100042F00102A265402D01D0202002E04004A6
:105A200001D4602008600020C6E700000003045095
:105A300000010450000004502DE9F04104463548AF
:105A4000806800F01F05206803F0B2F808BB2068EA
:105A5000C168C06C01F0004100F0C000084312D0E2
:105A600094F85400012814D0012084F854002046F2
:105A7000FBF7A6F802004FF000030CD084F8543076
:105A80001046BDE8F081A06D40F02000A065012027
:105A9000F7E70220F5E7A06DC00504D5E06D20F022
:105AA0000800E06500E0E365A06D42F20101884373
:105AB00040F48050A065184F2168184EB94201D1BA
:105AC000304600E00846884200D01DB9A06D20F4A1
:105AD0008010A0656020086084F854302068B842C7
