:020000040801F1
:10000000208901208102010879A30108058C0108DB
:10001000499F0108AD0F0108C5C601080000000096
:10002000000000000000000000000000C101010805
:100030005D190108000000001D020108AFAC0108B5
:100040009B0201089B0201089B0201089B02010818
:100050009B0201089B0201089B0201089B02010808
:100060009B0201089B0201089B020108E1120108A2
:10007000ED120108F9120108051301081113010816
:100080001D130108291301089B0201089B020108A6
:100090009B0201089B0201089B0201089B020108C8
:1000A0009B02010821B101089B0201089B02010883
:1000B0009B0201089B0201089B0201089B020108A8
:1000C0009B0201089B0201089B0201089B02010898
:1000D0009B020108E1C301083DC4010899C401085D
:1000E0009B0201089B0201089B0201089B02010878
:1000F0009B0201089B0201089B0201089B02010868
:100100009B0201089B0201089B0201089B02010857
:100110009B02010849BE01082DB1010849B101083F
:1001200035130108411301089B0201089B020108D5
:100130009B0201089B0201089B0201089B02010827
:100140009B0201089B0201089B0201089B02010817
:100150009B0201089B0201089B0201089B02010807
:100160009B0201089B0201089B0201089B020108F7
:100170009B0201089B0201089B020108000000008D
:100180009B0201089B0201089B0201089B020108D7
:100190009B0201089B0201089B0201089B020108C7
:1001A0009B0201089B0201089B020108DFF80CD0AA
:1001B00000F0E0FB0048004755DA010820890120E3
:1001C0002C4B19680868B0E8F04F80F30988BFF33A
:1001D0006F8F4FF0000080F311887047000000001F
:1001E00008480068006880F308884FF0000080F33A
:1001F000148862B661B6BFF34F8FBFF36F8F00DF15
:1002000000BF00BF08ED00E0DFF80C00016841F41A
:1002100070010160704700BF88ED00E0EFF30980D6
:10022000BFF36F8F134B1A681EF0100F08BF20ED3D
:10023000108A20E9F04F106009B44FF0500080F3AD
:100240001188BFF34F8FBFF36F8F0EF065FF4FF034
:10025000000080F3118809BC19680868B0E8F04F05
:100260001EF0100F08BFB0EC108A80F30988BFF3AE
:100270006F8F704794040020EFF3058070470000F3
:100280000648804706480047FEE7FEE7FEE7FEE730
:10029000FEE7FEE7FEE7FEE7FEE7FEE771AD0108D9
:1002A000AD0101082DE9F05F0546002092469B460E
:1002B00088460646814640241BE02846414647467C
:1002C000224600F053FA53465A46C01A914110D3C1
:1002D00011461846224600F03AFA2D1A67EB01083B
:1002E0004F4622460120002100F031FA17EB0009A9
:1002F0004E41201EA4F10104DFDC484631462A4667
:100300004346BDE8F09F40EA01039B0703D009E0A4
:1003100008C9121F08C0042AFAD203E011F8013BF1
:1003200000F8013B521EF9D27047D2B201E000F84A
:10033000012B491EFBD270470022F6E710B5134689
:100340000A4604461946FFF7F0FF204610BD10B5D7
:10035000044604E00B7800F8013B03B1491C521E2F
:10036000F8D2204610BD2DE9FE4F804681EA0300F9
:10037000C00F0C46009021F0004123F00045B8EB7F
:100380000200A94105D24046214690461C460B4634
:10039000024623F00040104347D0270DC7F30A0060
:1003A000C3F30A510290401A019040286BDAC3F35C
:1003B000130040F4801B0098924620B10023D2EB3A
:1003C000030A63EB0B0B01985946C0F140025046FB
:1003D00000F0BDF906460D4650465946019A00F018
:1003E000D5F910EB08006141002487EA115284EA34
:1003F000E7731A4340D0009A62B3019A012A4FEA88
:10040000075215DC001B61EB02014FF0004202EACB
:100410000752CDE90042001C41F5801132462B46BF
:1004200000F02AFA03B0BDE8F08F40462146F9E714
:10043000001B61EB0201001C41F5801300185B41B9
:100440002018A2F5001747EB030140EAD570B61952
:100450006D4111E06D084FEA360645EAC0754FEA76
:100460000752001B61EB0201001C41F58011490895
:100470004FEA30000019514132462B4603B0BDE827
:10048000F04F00F0EAB90098012240000023D0EBC1
:10049000020263EBE073009821464FEAE074B8EB88
:1004A000000061EB0401E9E783F000435BE781F0C2
:1004B000004158E72DE9FE4F81EA030404F00044AF
:1004C00021F0004100944FF0000B23F0004350EA6C
:1004D00001045ED052EA03045BD0C3F30A54C1F3B3
:1004E0000A552C44A4F2F3340194A0FB0254C1F346
:1004F000130141F48011C3F3130343F4801301FB90
:10050000024400FB034E840A970A44EA815447EAF6
:100510008357A4FB076802958D0A05FB07854FEA00
:10052000932C04FB0C542705029D4FEA065847EA1A
:100530001637B5EB08056EEB070C870E920E47EAEF
:10054000811742EA8312A7FB0201B6EB0B0164EBB1
:1005500000042B0D43EA0C335E1844EB1C50DA46C2
:100560005146E7FB0201C5F313044FEA0B3343EA9C
:1005700014534FEA0432019C43EA0603A4F10C042D
:100580000294009CCDE900B400F076F903B0BDE818
:10059000F08F00200146F9E72DE9F04D81EA0304D0
:1005A00004F0004B21F0004514464FF0000A23F000
:1005B000004150EA050220D054EA01021DD0C5F3E3
:1005C0000A570246C5F31303C1F31300C1F30A56D9
:1005D00040F4801543F48013A7EB0608101BD646A1
:1005E00008F2FD3873EB050002D308F1010801E0C1
:1005F00092185B41B8F1000F03DA00200146BDE814
:10060000F08D00204FF48011064684460EE0171B43
:1006100073EB050705D3121B63EB050306434CEA96
:10062000010C49084FEA300092185B4150EA01077B
:10063000EDD152EA030012D082EA040083EA0501F8
:10064000084305D0101BAB4106D20122002306E06F
:1006500000224FF0004302E06FF0010253101AEB4A
:1006600006004CEB085110EB0A0041EB0B01BDE812
:10067000F04D00F0F2B830B404469623080021464D
:1006800004D0B62330BC002200F09BB820460021E5
:10069000F8E70EB540F2334102910021CDE9001197
:1006A0000A460B4600F0E8F803B000BD0EB540F274
:1006B000334202920022CDE90022134600F0DCF81A
:1006C00003B000BD00F0004230F000400AD0C10D80
:1006D00001F56071C0F3160042EA0151C2084007FB
:1006E0001143704700200146704701F0004330B4C9
:1006F00021F0004150EA010206D00A0DA2F5607215
:10070000C1F31301002A02DC30BC00207047440F03
:1007100044EAC104C100E01830BC00EBC25000F054
:1007200047B830B50B46014600202022012409E0DD
:1007300021FA02F59D4205D303FA02F5491B04FA9A
:1007400002F52844151EA2F10102F1DC30BD202A79
:1007500004DB203A00FA02F1002070479140C2F118
:10076000200320FA03F3194390407047202A04DB4A
:10077000203A21FA02F00021704721FA02F3D0401A
:10078000C2F120029140084319467047202A06DB37
:10079000CB17203A41FA02F043EAE07306E041FA4F
:1007A00002F3D040C2F1200291400843194670473D
:1007B0000029A8BF7047401C490008BF20F0010075
:1007C000704710B4B0FA80FC00FA0CF050EA010453
:1007D00004BF10BC704749B1CCF1200421FA04F4E5
:1007E00011FA0CF118BF012121430843A3EB0C01BE
:1007F000CB1D4FEA00614FEA102042BF002010BC21
:10080000704700EBC35010440029A4BF10BC7047D0
:10081000401C490008BF20F0010010BC704710B513
:1008200041000CD0C0F3C751962908DC7E2909DCB1
:1008300006DB410204D000F0004040F07E5010BDC5
:10084000002010BDC1F19604C4F1200100FA01F1AD
:10085000E040FFF7ADFFA04010BD10B5141E73F1CE
:10086000000408DA401C41F1000192185B411A4370
:1008700001D120F0010010BD2DE9F04D92469B46BC
:1008800011B1B1FA81F202E0B0FA80F22032904662
:10089000FFF75DFF04460F4640EA0A0041EA0B01FC
:1008A00053465A46084313D0114653EA010019D063
:1008B000C8F140025046FFF759FF05460E46504624
:1008C00059464246FFF743FF084305D0012004E0A4
:1008D00020463946BDE8F08D0020054346EAE07623
:1008E0002C4337430A986305E40AA0EB0800002272
:1008F000FD0A44EA47540A3002D500200146E9E7E0
:10090000010510196941DDE9084500196941BDE893
:10091000F04DA2E7C1F30A52C1F3130140F2FF33D5
:1009200041F480119A4202DA00200146704740F2F9
:1009300033439A42A2F2334202DC5242FFF716BF1F
:10094000FFF705BF30B5041E71F1000404DB4FF062
:100950000044404264EB0101141E73F1000405DB06
:100960001C464FF00043524263EB0403994208BF18
:10097000904230BD064C074D06E0E06840F00103B0
:1009800094E8070098471034AC42F6D3FFF712FC06
:10099000801C0208A01C020870B58C1810F8015BBE
:1009A00015F0070301D110F8013B2A1106D110F808
:1009B000012B03E010F8016B01F8016B5B1EF9D10C
:1009C0002B0705D40023521E0DD401F8013BFAE792
:1009D00010F8013BCB1A921C03E013F8015B01F8FD
:1009E000015B521EF9D5A142D8D3002070BD000092
:1009F0002DE9F041044600270D46006808F088F90B
:100A00000646206808F07CF9304359D02068C16858
:100A10002C4E890105D5617E012902D1217E012953
:100A20000BD0022D1DD0206808F072F9B8B12068F3
:100A30008168C1F3400169B111E00125224902E05A
:100A40008F422ED27F1C0268D2435206F8D4402136
:100A50000160E8E78168314041F010018160012DBB
:100A600011D0206808F04CF948B120688168C1F3C2
:100A7000400121B98168314041F020018160022D9F
:100A800008D0032D04D0042506F0F0F9064613E043
:100A90000C25F9E70825F7E706F0E8F9801B05289B
:100AA0000AD9A06D40F01000A065E06D40F0010093
:100AB000E0650120BDE8F081206880682842EBD124
:100AC0000020F7E7C0FFFF7F000040A310B5846A55
:100AD000A16D11F0500F06D0A16DC90625D5204695
:100AE00005F0BCFB10BDA06D40F40070A06520684F
:100AF0000168090716D508F013F978B12068C068B5
:100B0000800400280ADBA06D20F48070A065A06D31
:100B1000C00403D4A06D40F00100A065204605F09C
:100B200059FB10BDC0688007EBE7216D496BBDE83C
:100B30001040084710B5806A816D41F04001816521
:100B4000C16D41F00401C16505F088FB10BD10B511
:100B5000806A05F061FB10BD70B5044600688168CD
:100B60008268C1F3400112F0010F24D019BB8168E3
:100B700001F00D01012910D18168104A1140891C32
:100B8000816021680320086006F070F905460EE0D8
:100B900006F06CF9401B022809D9A06D40F0100046
:100BA000A065E06D40F00100E065012070BD2068A7
:100BB0008068C007ECD1002070BD0000C0FFFF7F3F
:100BC00070B504460068816811F0010F28D1816872
:100BD000144A114215D18168D5432940491C8160CE
:100BE00006F044F9064616E0816811F0010F03D1C2
:100BF00081682940491C816006F038F9801B022871
:100C000009D9A06D40F01000A065E06D40F0010032
:100C1000E065012070BD20680168C943C907E3D1C0
:100C2000002070BD3F0000802DED048B82B00020BD
:100C3000ADF800009FED168B9FED179B184C4FF4FD
:100C40007A75184804F0A4FF6421164804F028FFC0
:100C50000121144804F00CFFADF80000114805F024
:100C60000DF8BDF80000FFF714FD53EC182BFFF74B
:100C700021FC53EC192BFFF71DFCFFF736FD00EEAE
:100C8000100A284684ED080A0CF04CFFD9E7000052
:100C9000B4D934E70C684A3F00000000000024404B
:100CA00058010020580600202DED0A8B90B09FEDD2
:100CB000B10AB24C8DED0B0A8DED000A8DED060ADE
:100CC0008DED070A8DED010ADFF8AC928DED040A77
:100CD0004FF0000AA4F180054FF0010B04F18008E9
:100CE0004FF0FF31D8F860000EF0A2FD95F82C000F
:100CF000012802D0022828D04EE0A14A0020014657
:100D00004FF4007C02F540634FEA090632F8107098
:100D100000EE107A06EB8107B8EE400A87ED000A74
:100D200002EB4007801C7F8880B200EE107A03EB54
:100D30008107491CB8EE400A89B2604587ED000A78
:100D4000E4D3A089401CA08126E08D4A4FF40070B6
:100D5000002102F540634FF4806C4E4632F810706B
:100D600000EE107A06EB8107B8EE400A87ED000A24
:100D700002EB4007801C7F8880B200EE107A03EB04
:100D80008107491CB8EE400A89B2604587ED000A28
:100D9000E4D3E089401CE0814FF4807605AA314617
:100DA00075480CF0BFFB744A3346114601F62C100F
:100DB0000CF066FA0020734B01464A4602EB8007AE
:100DC000001D97ED000A03EB8107491C80B287EDF7
:100DD000000A89B2FF28F1D96A4A4023114601F579
:100DE00080700CF04DFA674A4023114601F5AC7053
:100DF0000CF046FA0BAA402162480CF093FB6A46BD
:100E0000314661480CF08EFB0AAB01AA40215D48D7
:100E10000CF0C6FA0AAB06AA31465B480CF0C0FAE1
:100E20000AAB04AA402157480CF032FB0AAB07AAD0
:100E3000314655480CF02CFB544E00231A460BA9A2
:100E4000306E0EF05BFB00231A466946F06E0EF022
:100E500055FB606C0746FFF735FC41EC180B206C26
:100E60000646FFF72FFC41EC190B0198FFF72AFC0F
:100E70009FED47BB53EC1B2BFFF71CFB9FED46CBB5
:100E800053EC1C2BFFF788FB53EC192BFFF712FBDD
:100E900053EC182BFFF767FAFFF727FC08EE100A50
:100EA0003846FFF70FFC41EC190B3046FFF70AFC00
:100EB00041EC1A0B0498FFF705FC53EC1B2BFFF7D2
:100EC000F9FA53EC1C2BFFF767FB53EC1A2BFFF7D7
:100ED000F1FA53EC192BFFF746FAFFF706FCD4EDB5
:100EE0000F1A9FED2F1A00EE100A284EC1EE810A4C
:100EF000803600231A4606A988EE201A84ED121ABD
:100F000080EE201A84ED131AB0680EF0F7FA002371
:100F10001A4607A9F0680EF0F1FA224905988842AE
:100F200002DD85F802B001E085F802A094ED1E0A0A
:100F3000DDED000A94ED1D1A1B4900EE810A10EE4A
:100F4000100A884202DB85F804A001E085F804B0AD
:100F50000D480DF00DFE00231A4619464646D8F8F6
:100F600064000EF0CBFA00231A461946F06E0EF01C
:100F7000C5FAB5E600000000200F0020D8000020D0
:100F8000200700202017002020130020D801002077
:100F9000B4D934E70C684A3F393939393939E93F2E
:100FA00000007A4400007A45CDCC6C40FEE700009A
:100FB0004C4FDFF8348101264C4C002594F82B006F
:100FC00058BB4FF400614FF0904005F041FF0028FE
:100FD000E07C0DD0052807D9E67525766576A576DF
:100FE000A4F86A50E574A57794F82B0018B114E0C2
:100FF000401CE074F8E74FF48071384605F028FF94
:101000000028207D0DD0052807D9E5752676657660
:10101000A576A4F86A502575A57794F82A0018B12A
:101020002CE0401C2075F8E70821384605F010FF39
:101030000028607D0DD0052807D9E57525766676F0
:10104000A576A4F86A506575A57794F82A0018B1BA
:1010500014E0401C6075F8E74FF40071384605F065
:10106000F7FE0028A07D17D0052807D9E57525765D
:101070006576A676A4F86A50A575A57780214046C6
:1010800005F0E6FE0028B4F86A0008D0C01E61280A
:1010900018D2207F98B115E0401CA075EEE7401CE7
:1010A00080B2A4F86A00642818D394F82900A8B97B
:1010B000E57525766576A576E57626770CE094F8D5
:1010C000290020B194F82900012805D006E0E57533
:1010D00025766576A576E676A4F86A500A200CF0A7
:1010E00021FD6BE70004004800080048580000207C
:1010F0002DED088B84B000209FED6D0A00908DEDE2
:10110000000AADF804006B4E9FED6B9B9FED6CAB3E
:101110006D4DA5F18004DFED6D8A5E2165480CF010
:1011200062FAB6F8C200B0EE408AADF80400B6F834
:10113000B20038B93E215F480CF055FA85ED050A3A
:1011400084ED180AB6F9B200012806D0022814D09E
:10115000032817D0042852D037E018EE100AFFF702
:10116000B1FA41EC100B51EC190B53EC102BFFF7BB
:1011700013FA41EC1B0B606B1AE094ED060A84ED48
:10118000180A22E018EE100AFFF79CFA41EC100B47
:1011900051EC190B53EC102BFFF7FEF941EC1B0B34
:1011A000BDF804004A4900EB800001EBC000406933
:1011B000FFF788FA53EC1B2BFFF77CF953EC1A2B43
:1011C000FFF7D1F8FFF791FA206694ED180A95ED34
:1011D000061A002260EE280A95ED070A11463D48DE
:1011E00000EE810ABCEEC00A8DED000A10EE103A46
:1011F00005F0DAFA5FF064000CF094FC8DE718EE6D
:10120000100AFFF75FFA41EC100B51EC190B53EC8D
:10121000102BFFF7C1F99FED301B53EC112BFFF79B
:10122000A2F8FFF762FA00EE100A002284ED180A15
:1012300060EE280A95ED061A95ED070A1146254835
:1012400000EE810ABCEEC00A8DED000A10EE103AE5
:1012500005F0AAFA01200CF065FC18EE100AFFF761
:1012600031FA41EC100B51EC190B53EC102BFFF73A
:1012700093F953EC1A2BFFF776F8FFF736FA00EEE6
:10128000100A002284ED180A60EE280A95ED061A6D
:1012900095ED070A11460F4800EE810ABCEEC00A20
:1012A0008DED000A10EE103A05F07EFA1320A3E748
:1012B00000000000FC18002000000000000030408A
:1012C00000000000000010405801002000004C43C6
:1012D000A832002008070020000000000000244081
:1012E000014805F0DEBA0000C0060020014805F004
:1012F000D8BA0000A4430020014805F0D2BA00008B
:101300005C430020014805F0CCBA00008442002074
:10131000014805F0C6BA00003C420020014805F033
:10132000C0BA0000CC420020014805F0BABA000063
:1013300014430020014805F0B4BA0000F441002035
:10134000014805F0AEBA0000AC41002030B590F87D
:10135000444004F01C050124AC40056C6C6004683A
:1013600063608368102B036803D099600068C260D3
:1013700030BD9A600068C16030BD00002DED028B69
:1013800082B04FF0000B8DF804B09FEDFE8A8DED1A
:10139000018ADFEDFD8ADFF8F4A3FD4FFB4C6846C0
:1013A000803C94ED090A0CF016F9BDF8000027F80E
:1013B0005C0BBDF80200A4F1800527F85A0CA87850
:1013C00027F8480C684694ED0C0A0CF004F9BDF8B7
:1013D000000027F8300CBDF8020027F82E0C6846F4
:1013E00094ED0D0A0CF0F7F8BDF8000027F82C0C6E
:1013F000BDF8020027F82A0C684694ED0E0A0CF09E
:10140000EAF8BDF8000027F8280CBDF8020027F81C
:10141000260C04F500708046006A98F8241027F81E
:10142000200C000C40EA014027F81E0CB5F84800DB
:1014300027F81C0C684694ED060A0CF0CCF8BDF8B1
:10144000000027F8140CBDF8020027F8120C2879C8
:1014500038806846D14656469AED010A0CF0BBF832
:10146000BDF800007882BDF80200B882684694EDAD
:10147000080A0CF0B0F8BDF800003883BDF802008F
:10148000788394ED080AD4ED070A684630EE600AC6
:101490000CF0A1F8BDF80000B883BDF80200F88395
:1014A0006088B884B5F844003886B5F84600788678
:1014B0006879F886684696ED040A0CF08CF8BDF859
:1014C00000003887BDF802007887684696ED030A69
:1014D0000CF081F8BDF80000B887BDF80200F8876D
:1014E000D8E90623D8E904015C3F161A73EB01061C
:1014F00008D2801A61EB0301FFF7BDF800EE100A75
:10150000684602E06846B0EE480A0CF064F8BDF8A0
:10151000000027F89C0FBDF802007880B5F858004D
:10152000B880B5F85A00F880287A3881E87978814F
:10153000B5F8740027F8120FA8466846CA464E460A
:1015400099ED080A0CF047F8BDF80000F882BDF8E4
:10155000020090493883684691ED000A0CF03BF890
:10156000BDF800003884BDF8020078846846B0EE0B
:10157000680A0CF030F8BDF80000B884BDF802002D
:10158000F884B5F84000A7F842006846A14694EDFB
:10159000120A1E370CF01FF8BDF800003885BDF8A0
:1015A00002007885684694ED140A0CF014F8BDF832
:1015B0000000B885BDF80200F885684694ED160A6B
:1015C0000CF009F8BDF800003886BDF802007886F6
:1015D00094ED120AD4ED130A684630EE600A0BF05F
:1015E000FAFFBDF80000B886BDF80200F88694ED59
:1015F000140AD4ED150A684630EE600A0BF0EBFFD2
:10160000BDF800003887BDF80200788794ED160A0F
:10161000D4ED170A684630EE600A0BF0DCFFBDF827
:101620000000B887BDF80200F887684696ED0F0AFB
:101630000BF0D1FFBDF80000A7F84400BDF8020090
:10164000A7F84600E87FCC3F002876D15FF000067F
:1016500006EB860207EBC2044F4894F8201100EB1A
:10166000C20500F8321094F822116970B4F8240110
:10167000A88094F82601A87094F82801A871B4F8FD
:101680002A01288104F5967000210BF0ACFF85ED4E
:10169000030A04F5987000210BF0A5FF85ED040AFC
:1016A000A87920B1012810D004280ED020E095EDB3
:1016B000050A3A49BDEEC00A10EE100AA4F834013A
:1016C00010EE100A21F8260017E095ED050A68468D
:1016D0000BF081FFBDF80020A4F834212F48BDF89D
:1016E0000210A4F8361120F8262000EB8600418075
:1016F000A8790228DBD00328D9D004F59C700021FA
:101700000BF071FF85ED080A04F59E7000210BF0C7
:101710006AFF85ED090A04F5A07000210BF063FF54
:1017200085ED060A04F5A27000210BF05CFF761C23
:10173000B6B285ED070A282E8AD3B7F9D600A0F5F0
:101740008071E13911D1A7F8D6B00DF069FB1048CE
:101750000DF094FD8DF804000CF0C4FC0DF080FB3E
:1017600000200CF0FBF803F0ADFEB7F9D61045F2FF
:101770003340C1427BD1A7F8D6B068464C4699EDBC
:10178000100A0DE00000000083C0AE4058010020A8
:10179000FC18002024000020A83200205C2000203B
:1017A0000BF019FFBDF80000F883BDF80200388483
:1017B000684694ED110A0BF00EFFBDF80000788426
:1017C000BDF80200B88498F80310684600EE101ABD
:1017D000B8EE400A0BF0FFFEBDF80000F884BDF83B
:1017E00002003885684694ED1D0A0BF0F4FEBDF842
:1017F0000000A7F86600BDF80200A7F86800684678
:1018000094ED1E0A0BF0E7FEBDF80000A7F86A0091
:10181000BDF80200A7F86C00684654469AED060A27
:101820000BF0D9FEBDF80000A7F8B400BDF8020027
:10183000A7F8B600684694ED070A0BF0CCFEBDF899
:101840000000A7F8B800BDF80200A7F8BA000DF034
:10185000E7FA3E480DF012FD8DF804000CF042FC52
:101860000DF0FEFA00200CF079F803F02BFEB7F92A
:10187000D80042F24631C8420AD098F81F1019B970
:10188000B8F87E00012803D00A200CF04BF985E55A
:1018900059463C46A7F8D8B000204FF46C720BE0D4
:1018A0000F280BD0112809D0332807D0352805D0B0
:1018B0005A2803D05C2801D024F81010401C80B2B4
:1018C0009042EDD30A2024F8C80F44F620606082CD
:1018D0006846B3EE060A0BF07EFEBDF80000A0825B
:1018E000BDF80200E0826846B3EE0A0A0BF073FE10
:1018F000BDF800002083BDF80200608368469FEDBC
:10190000140A0BF068FEBDF8000024F8460CBDF880
:10191000021024F8441C24F8400C24F83E1C60807B
:10192000A1806420E08409480DF0A8FC8DF8040033
:10193000BFF34F8F07480168074A01F4E061114384
:101940000160BFF34F8F00BFFDE70000FC180020CF
:101950000000E1470CED00E00400FA0570470000CC
:101960002DED0C8B8CB09FED4A0A4A4F8DED050A88
:101970008DED000A8DED010A4FF0FF3907F1800867
:10198000A7F180049FED449B9FED45AB9FED46DAA8
:101990004946B86E0DF04CFF44494022084607F016
:1019A00033F9424A4023114601F5D8700BF068FC28
:1019B00005AA40213D480BF0B5FD08AB6A46402121
:1019C0003A480BF0EDFC08AB01AA402137480BF078
:1019D0005FFD00231A4605A9D8F868000DF08EFDBA
:1019E000606C0646FEF76EFE41EC1B0B206C054654
:1019F000FEF768FE41EC180B0098FEF763FE53EC0F
:101A0000192BFEF757FD53EC1A2BFEF7C5FD53ECCF
:101A1000182BFEF74FFD53EC1B2BFEF7A4FCFEF733
:101A200064FE08EE100A3046FEF74CFE41EC1C0B3B
:101A30002846FEF747FE41EC1B0B0198FEF742FEDD
:101A400053EC192BFEF736FD53EC1A2BFEF7A4FDD1
:101A500053EC1B2BFEF72EFD53EC1C2BFEF783FCE7
:101A6000FEF743FE94ED0F1A00EE100A0023C1EEBC
:101A70000D0A1A46194688EE201A84ED161A80EED1
:101A8000201A84ED171A786F0DF038FD80E70000FA
:101A90000000000058010020B4D934E70C684A3F28
:101AA000393939393939E93F00007A4420170020A3
:101AB0008CB00122D1034FF0904005F0D2F90CF028
:101AC000F5FD01200CF0E2FD0BF066FD0CF060FE70
:101AD000DFF80C84B8F9DA0000EBD07040100CF09D
:101AE00021F801200BF03AFFDFF8F893DFF8F8B3A4
:101AF000FE4FFF4D4FF0000AA87C012803D0687FFD
:101B0000012806D011E000200CF0C0FD0BF084FF8E
:101B100056E095F82E00012818D0022816D0032888
:101B200014D0042812D005283DD0B5F86E00012845
:101B30004AD002284FD0032854D0042857D0052873
:101B40005CD0062861D007285FD05AE000200CF056
:101B50009DFD002108460CF015FE5C460123D4E9EA
:101B60000012E4A00CF0B2FED7E900120123E3A0BA
:101B70000CF0ACFE0F2100200CF004FED4E90012A2
:101B80000123DFA00CF0A2FE1E2100200CF0FAFDC4
:101B9000D4E900120123DCA00CF098FED7E9001272
:101BA0000123DAA00AE000200CF070FD0F210020D4
:101BB0000CF0E8FDDBE900120123D5A00CF086FE55
:101BC0000CF0E6FD03F082BB95F8251009B1062163
:101BD00015E0092113E095F8251009B108210EE060
:101BE00001210CE095F8251031B9282107E095F87E
:101BF000251009B1042102E0022100E0052185F849
:101C00002210E97D012902D00FE00321F7E7B5F8A2
:101C1000721051B1EA7F42B9491EA5F8721085F8D9
:101C200017A085F81BA085F820A0297E012910D1D6
:101C3000B5F8721095F8222091420AD2EA7F42B993
:101C4000491CA5F8721085F818A085F81BA085F826
:101C500020A0697E012927D130B3E97E21BBE97F2D
:101C600011BB03280CD1B5F8720048B1B5F870006B
:101C700010B1401EA5F87000504685F819A011E07B
:101C8000B5F86C0010B1401EA5F86C00A248B5F87C
:101C90006C1030F81100A5F86E0085F819A05046B8
:101CA000A5F872A085F82000A87E012801D1E87E61
:101CB00018B1E87E01282FD03AE0E87F58BBB5F88C
:101CC0006E0003280FD1B5F8720060B1B5F870004E
:101CD000282804D20C2802D2401CA5F870005046D7
:101CE00085F81AA015E0B5F87C10B5F86C00491E0F
:101CF000884202DA401CA5F86C008748B5F86C10E1
:101D000030F81100A5F86E0085F81AA05046A5F825
:101D100072A085F820000BE0B5F8720040B1E87FB2
:101D200020B10020E87785F81BA012E00120F9E738
:101D3000287F01280DD1B5F8720050B995F825001B
:101D400058B1002085F8250085F81CA0012085F8F1
:101D50002900E87D012802D00CE00120F2E7E87FAD
:101D6000012807D195F8200010B1401E85F8200009
:101D700085F817A0287E012809D1E87F012806D11F
:101D800095F82000012085F8200085F818A0287F0C
:101D900001280DD1B5F8720050B10CF06BFB85F83D
:101DA0001CA085F81BA085F825A0012085F8290036
:101DB000B5F8760001287DD1B5F86E000128FAD17A
:101DC000B5F87200002876D10CF060FC00210846BE
:101DD0000CF0D8FCD7E90012012350A00CF076FDDE
:101DE000A878012805D095F8250088B3012842D0AD
:101DF00065E095F8210050B1D7E90012012348A011
:101E00000CF064FD95F82500012814D017E00F218F
:101E100000200CF0B7FC5C460123D4E9001241A07D
:101E20000CF054FD1E2100200CF0ACFCD4E9001293
:101E300001233EA0E4E7002137200CF028FE00211A
:101E40003C200CF024FE2B213A200CF0AFFDA2E147
:101E5000FFE700200CF01AFC002108460CF092FC71
:101E6000D7E9001201232DA00CF030FD00211C2029
:101E70000CF088FC14E000200CF008FC002108465F
:101E80000CF080FCD7E90012012324A00CF01EFD09
:101E900000211C200CF076FC002137200CF0F7FD0F
:101EA00000213C200CF0F3FD2B213A200CF07EFDAC
:101EB0000F2101E0F5E176E100200CF063FC0C4C11
:101EC00080342088012851D112221AA102A8FEF7DD
:101ED0003EFA122102A80CF00FFD2021002033E071
:101EE000FC180020A832002000000020080000207C
:101EF00058000020CEE1EDEEE20000002D000000D1
:101F0000EBE5EDE8E5000000CFCE00002E2E2E0020
:101F1000D3D1CFC5D8CDCE00F83A002049435000E8
:101F200020000000CEC1D0DBC2000000C4C0D2D768
:101F3000C8CAC000D1CAC720E2E8E1F0EEF3F1EA76
:101F4000EEF0E5EDE8FF00000CF01CFC206BFEF766
:101F5000B9FBCDE90001FDA24021FE480AF064FC76
:101F6000D7E900120123FB480CF0B0FC20880228BE
:101F70001CD11122F8A102A8FEF7E9F9112102A84B
:101F80000CF0BAFC202100200CF0FCFB606BFEF78B
:101F900099FBCDE90001EDA24021EE480AF044FC96
:101FA000D7E900120123EB480CF090FC20880328AD
:101FB0001CD11422EDA102A8FEF7C9F9142102A830
:101FC0000CF09AFC202100200CF0DCFBA06BFEF74B
:101FD00079FBCDE90001DDA24021DE480AF024FCB6
:101FE000D7E900120123DB480CF070FC208804289C
:101FF0001CD11422E3A102A8FEF7A9F9142102A81A
:102000000CF07AFC202100200CF0BCFBA06CFEF749
:1020100059FBCDE90001CDA24021CE480AF004FCD5
:10202000D7E900120123CB480CF050FC208805288A
:102030001CD11722DAA102A8FEF789F9172102A8FC
:102040000CF05AFC202100200CF09CFB206DFEF7C8
:1020500039FBCDE90001BDA24021BE480AF0E4FBF6
:10206000D7E900120123BB480CF030FC2088062879
:102070001CD11422D0A102A8FEF769F9142102A8EC
:102080000CF03AFC202100200CF07CFBA06DFEF748
:1020900019FBCDE90001ADA24021AE480AF0C4FB16
:1020A000D7E900120123AB480CF010FC2088072868
:1020B00023D11422C7A102A8FEF749F9142102A8CE
:1020C0000CF01AFC202100200CF05CFB94ED120AAD
:1020D000D4ED130A30EE600A10EE100AFEF7F2FAA1
:1020E000CDE9000199A240219A480AF09DFBD7E969
:1020F0000012012397480CF0E9FB2088082823D11F
:102100001422BAA102A8FEF722F9142102A80CF0A9
:10211000F3FB1E2100200CF035FB94ED140AD4EDE6
:10212000150A30EE600A10EE100AFEF7CBFACDE980
:10213000000186A2402187480AF076FBD7E9001209
:10214000012384480CF0C2FB2088092823D11422E3
:10215000ACA102A8FEF7FBF8142102A80CF0CCFBFE
:10216000202100200CF00EFB94ED160AD4ED170A86
:1021700030EE600A10EE100AFEF7A4FACDE9000175
:1021800072A2402173480AF04FFBD7E900120123E5
:1021900070480CF09BFB85F81FA085F82AA0B5F8C5
:1021A0006E0001287DD1B5F87200012848D195F85C
:1021B0002500002876D10CF069FA002108460CF0C1
:1021C000E1FA0123AFF2AC20D7E900120CF07EFB5C
:1021D00000211C200CF0D6FA002137200CF01FFC47
:1021E00000213C200CF053FC0F2100200CF0CAFA17
:1021F0001222AFF2C02102A8FEF7A9F8122102A80C
:102200000CF07AFB202100200CF0BCFA8348006B14
:10221000FEF758FACDE9000181A240214D480AF0AD
:1022200003FBD7E9001201234A480CF04FFB85F865
:102230001FA0012085F82A00B5F86E000128B1D151
:10224000B5F8720002284AD195F82500002879D106
:102250000CF01CFA002108460CF094FA0123AFF2AE
:102260004430D7E900120CF031FB00211C200CF0A7
:1022700089FA002137200CF0D2FB00213C200CF021
:1022800006FC0F2100200CF07DFA112232A102A8D9
:10229000FEF75DF8112102A80CF02EFB2021002092
:1022A00001E05AE1B3E20CF06DFA5C48406BFEF7D6
:1022B00009FACDE900015AA2402126480AF0B4FAF1
:1022C000D7E90012012323480CF000FB85F81FA07A
:1022D000012085F82A00B5F86E000128AFD1B5F8C5
:1022E000720003282FD195F8250000282CD10CF07E
:1022F000CDF9002108460CF045FA0123AFF2E43095
:10230000D7E900120CF0E2FA00211C200CF03AFA96
:10231000002137200CF083FB00213C200CF0B7FBA0
:102320000F2100200CF02EFA142210A102A8FEF7B3
:102330000EF8142102A80CF0DFFA202100200CF086
:1023400021FA71E0BAE28AE010E30000252E303174
:1023500066000000063B0020D1CAC720E2E8E1F099
:10236000EEF1EAEEF0EEF1F2E8000000D1CAC7208B
:10237000E2E8E1F0EEEFE5F0E5ECE5F9E5EDE8FFA8
:1023800000000000C0ECEFEBE8F2F3E4E020E2E84C
:10239000E1F0EEF3F1EAEEF0E5EDE8FF0000000019
:1023A000C0ECEFEBE8F2F3E4E020E2E8E1F0EEF17C
:1023B000EAEEF0EEF1F2E800C0ECEFEBE8F2F3E465
:1023C000E020E2E8E1F0EEEFE5F0E5ECE5F9E5ED3F
:1023D000E8FF0000D0E0E7ECE0F520E2E8E1F0EE15
:1023E000F3F1EAEEF0E5EDE8FF000000D0E0E7EC05
:1023F000E0F520E2E8E1F0EEF1EAEEF0EEF1F2E8ED
:1024000000000000D0E0E7ECE0F520E2E8E1F0EECB
:10241000EFE5F0E5ECE5F9E5EDE8FF00D800002098
:10242000252E303366000000FE48806BFEF74AF927
:10243000AFF21402CDE900014021FB480AF0F4F9A3
:10244000D7E900120123F8480CF040FA85F81FA0E4
:10245000012085F82A00B5F86E0001287DD1B5F875
:102460007200042845D195F82500002876D10CF09B
:102470000DF9002108460CF085F90123AFF26450F4
:10248000D7E900120CF022FA002137200CF0C7FA2D
:1024900000213C200CF0FBFA0F2100200CF072F917
:1024A0001822AFF2201102A8FDF751FF182102A84F
:1024B0000CF022FA202100200CF064F9D948806C3D
:1024C000FEF700F9AFF2A802CDE900014021D6489D
:1024D0000AF0AAF9D7E900120123D3480CF0F6F963
:1024E00085F81FA0012085F82A00B5F86E000128A4
:1024F000B4D1B5F87200052848D195F82500002818
:102500007ED10CF0C3F8002108460CF03BF9012302
:10251000AFF2F850D7E900120CF0D8F900213720BB
:102520000CF07DFA00213C200CF0B1FA0F210020C4
:102530000CF028F91722AFF2981102A8FDF707FF57
:10254000172102A80CF0D8F9202100200CF01AF96C
:10255000B448006DFEF7B6F801E053E25EE2AFF278
:102560004012CDE900014021AF480AF05DF9D7E9FA
:1025700000120123AC480CF0A9F985F81FA0012036
:1025800085F82A00B5F86E000128B1D1B5F87200BF
:10259000062847D195F8250000287CD10CF076F864
:1025A000002108460CF0EEF80123AFF29060D7E965
:1025B00000120CF08BF9002137200CF030FA0021CA
:1025C0003C200CF064FA0F2100200CF0DBF81A22FA
:1025D000AFF21C2102A8FDF7BAFE1A2102A80CF0E6
:1025E0008BF9202100200CF0CDF88E48806DFEF78D
:1025F00069F8AFF2D412CDE9000140218A4800E029
:1026000052E20AF011F9D7E90012012386480CF0D2
:102610005DF985F81FA0012085F82A00B5F86E0045
:102620000128B2D1B5F8720007284ED195F82500DF
:102630000028AAD10CF02AF8002108460CF0A2F8D4
:102640000123AFF22870D7E900120CF03FF9002106
:1026500037200CF0E4F900213C200CF018FA0F218F
:1026600000200CF08FF81522AFF2982102A8FDF798
:102670006EFE152102A80CF03FF9202100200CF07D
:1026800081F8684890ED120AD0ED130A30EE600A26
:1026900010EE100A00E056E2FEF714F8AFF28022C6
:1026A000CDE90001402160480AF0BEF8D7E90012E8
:1026B00001235D480CF00AF985F81FA0012085F878
:1026C0002A00B5F86E000128ABD1B5F872000828D1
:1026D0004CD195F825000028A3D10BF0D7FF00219D
:1026E00008460CF04FF80123AFF2D070D7E9001282
:1026F0000CF0ECF8002137200CF091F900213C207F
:102700000CF0C5F90F2100200CF03CF81422AFF2B8
:10271000243102A8FDF71BFE142102A80CF0ECF8EE
:10272000202100200CF02EF83E4890ED140AD0ED48
:10273000150A30EE600A10EE100AFDF7C3FFAFF283
:102740002032CDE90001402137480AF06DF8D7E981
:102750000012012334480CF0B9F885F81FA00120BD
:1027600085F82A00B5F86E000128ADD1B5F87200E1
:10277000092848D195F825000028A5D10BF086FF3F
:10278000002108460BF0FEFF0123AFF67000D7E9E9
:1027900000120CF09BF8002137200CF040F90F21BB
:1027A00000200BF0EFFF1722AFF2A83102A8FDF7CF
:1027B000CEFD172102A80CF09FF8202100200BF07D
:1027C000E1FF184890ED160AD0ED170A30EE600AC6
:1027D00010EE100AFDF776FFAFF2BC32CDE9000132
:1027E000402111480AF020F8D7E9001201230E48D1
:1027F0000CF06CF885F81FA0012085F82A00B5F8C8
:102800006E000128B1D1B5F87200012852D195F8B7
:1028100025000128A9D100200BF038FF002108462F
:1028200004E00000D8000020063B00200BF0AAFFC7
:102830000123AFF61810D7E900120CF047F8002179
:1028400032200CF0ECF8002137200CF020F90021A8
:102850003C200CF01CF90F2100200BF093FF1822F4
:10286000F8A102A8FDF773FD182102A80CF044F8A6
:10287000202100200BF086FFE87F0128F84814D0C3
:10288000B0F90030F7A24021F74809F0CDFFD7E9B1
:1028900000120123F4480CF019F8012085F82A00F1
:1028A000B5F86E00012805D08AE10AF0F7FF85F837
:1028B0002AA0F5E7B5F87200022853D195F8250053
:1028C0000128F1D100200BF0E1FE002108460BF0B9
:1028D00059FF0123AFF6BC10D7E900120BF0F6FF49
:1028E000002132200CF09BF8002137200CF0CFF8AB
:1028F00000213C200CF0CBF80F2100200BF042FF10
:102900001922DAA102A8FDF722FD192102A80BF075
:10291000F3FF202100200BF035FFE87F01281AD0BB
:10292000CF48806AFDF7CEFEAFF2E052CDE900015C
:102930004021CD4809F078FFD7E900120123CA48A9
:102940000BF0C4FF012085F82A0000BFB5F86E0027
:10295000012807D034E1C24828300AF06FFE85F81C
:102960002AA0F3E7B5F87200032853D195F82500A3
:10297000012899D100200BF089FE002108460BF0B8
:1029800001FF0123AFF66C20D7E900120BF09EFF88
:10299000002132200CF043F8002137200CF077F8AA
:1029A00000213C200CF073F80F2100200BF0EAFE10
:1029B0001122B5A102A8FDF7CAFC112102A80BF053
:1029C0009BFF202100200BF0DDFEE87F01281AD0BC
:1029D000A348C06AFDF776FEAFF29062CDE9000130
:1029E0004021A14809F020FFD7E9001201239E48A9
:1029F0000BF06CFF012085F82A0000BFB5F86E00CF
:102A0000012807D0DCE096482C300AF017FE85F844
:102A10002AA0F3E7B5F87200042841D195F8250003
:102A200001287DD100200BF031FE002108460BF07B
:102A3000A9FE0123AFF61C30D7E900120BF046FFC8
:102A4000002132200BF0EBFF002137200CF01FF8A3
:102A500000213C200CF01BF80F2100200BF092FE0F
:102A60000D228EA102A8FDF772FC0D2102A80BF029
:102A700043FF202100200BF085FEEB7879A2402156
:102A8000794809F0D1FED7E90012012376480BF00E
:102A90001DFF012085F82A00B5F86E0001283FD1FE
:102AA000B5F8720005284AD195F82500012837D1DC
:102AB00000200BF0EBFD002108460BF063FE012324
:102AC000AFF6A830D7E900120BF000FF002132204A
:102AD0000BF0A5FF002137200BF0D9FF00213C208F
:102AE0000BF0D5FF0F2100200BF04CFE14226FA13C
:102AF00002A8FDF72CFC142102A80BF0FDFE2021FA
:102B000000200BF03FFE5648006CFDF7DBFDCDE9E1
:102B100000016CA24021544809F086FE012300E028
:102B20004EE0D7E9001250480BF0D0FE85F81FA008
:102B3000012085F82A00B5F86E00012840D1B5F8CB
:102B4000720006283CD195F82500012838D10020D4
:102B50000BF09CFD002108460BF014FE0123AFF69C
:102B60004440D7E900120BF0B1FE002132200BF0F7
:102B700056FF0F2100200BF005FE142253A102A8DE
:102B8000FDF7E5FB142102A80BF0B6FE2021002082
:102B90000BF0F8FD3248406CFDF794FDCDE90001E3
:102BA00048A24021304809F03FFED7E90012012336
:102BB0002D480BF08BFE85F81FA0012085F82A0018
:102BC000B5F8780001283CD1B5F86E000228FAD19A
:102BD000B5F8720098BB00200BF058FD00210846A4
:102BE0000BF0D0FDD7E9001201233EA00BF06EFEE2
:102BF0002879012803D1B5F8780001280FD095F87D
:102C0000250018B1002137200BF041FF00213C20A6
:102C10000BF03DFFB5F87600012867D097E095F8F6
:102C2000210068B10123AFF60850D7E9001200BFB8
:102C30000BF04CFE95F8250001286FD072E0B3E050
:102C400055E02EE1CFE0F0E0ECE5F2F020EDE02001
:102C5000E3EBE0E2EDEEEC20ECE5EDFE0000000041
:102C6000D800002025640000063B0020CFF0E5E4FA
:102C7000F3EFF0E5E4E8F2E5EBFCEDE0FF20F3F143
:102C8000F2E0E2EAE0000000C0E2E0F0E8E9EDE0B6
:102C9000FF20F3F1F2E0E2EAE0000000D0E5E6E830
:102CA000EC20F4E8EBFCF2F0E0000000CAEEFDF4EA
:102CB000F4E8F6E8E5EDF220F3F1E8EBE5EDE8FF06
:102CC00000000000252E303566000000CAEEFDF43D
:102CD000F4E8F6E8E5EDF220F1ECE5F9E5EDE8FFE2
:102CE00000000000342D3230000000002BE00F21E6
:102CF00000200BF047FD01235C46AFF6D850D4E925
:102D000000120BF0E3FD1E2100200BF03BFD012320
:102D1000AFF6E850D4E900128AE7FFE70021372038
:102D20000BF0B5FE00213C200BF0B1FEB5F87600AB
:102D3000012803D126213A200BF0E2FE2B213A2074
:102D40000BF034FE2AE026213A200BF0D9FE2B218D
:102D50003A200BF02BFE0F2100200BF013FD122266
:102D6000F9A102A8FDF7F3FA122102A80BF0C4FDA5
:102D7000202100200BF006FDF8484068FDF7A2FC7A
:102D8000AFF66412CDE900014021F54809F04CFD91
:102D9000D7E900120123F2480BF098FD85F82AA02C
:102DA000B5F86E0002287CD1B5F87200012879D1FF
:102DB00095F82500F0BB00200BF068FC00210846C8
:102DC0000BF0E0FC0123AFF2E400D7E900120BF0B6
:102DD0007DFD002137200BF022FE0F2100200BF09B
:102DE000D1FCDBE900120123DEA00BF06FFD2021F6
:102DF00000200BF0C7FCD94880388069FDF762FCE1
:102E0000CDE90001D8A24021D54809F00DFDD7E950
:102E100000120123D2480BF059FD85F81FA00120B4
:102E200085F82A00B5F86E000228BCD1B5F872000A
:102E3000012800E000E055D195F825000128B2D125
:102E400000200BF023FC002108460BF09BFC012323
:102E5000AFF27010D7E900120BF038FD00213220DC
:102E60000BF0DDFD002137200BF011FE00213C208E
:102E70000BF00DFE0F2100200BF084FC2522BCA1DD
:102E800002A8FDF764FA252102A80BF035FD2021E8
:102E900000200BF077FCE87F0128B0481DD00068C7
:102EA00001E02FE21EE0FDF70DFCAFF66032CDE948
:102EB00000014021AA4809F0B7FCD7E9001201231C
:102EC000A7480BF003FD012085F82A000BF060FCF9
:102ED000B5F86E00022805D0B0E20AF0AFFB85F825
:102EE0002AA0F3E7B5F87200022855D195F825001D
:102EF0000128F1D100200BF0C9FB002108460BF09E
:102F000041FC0123AFF22420D7E900120BF0DEFCD4
:102F1000002132200BF083FD002137200BF0B7FD9C
:102F200000213C200BF0B3FD0F2100200BF02AFC08
:102F3000262299A102A8FDF70AFA262102A80BF081
:102F4000DBFC202100200BF01DFCE87F01281CD0B9
:102F500082488038C06FFDF7B5FBAFF61042CDE96F
:102F6000000140217E4809F05FFCD7E900120123EF
:102F70007B480BF0ABFC012085F82A000BF008FC25
:102F8000B5F86E00022807D058E27448001F0AF016
:102F900055FB85F82AA0F1E7B5F87200032853D154
:102FA00095F82500012897D100200BF06FFB002138
:102FB00008460BF0E7FB0123AFF2D820D7E9001257
:102FC0000BF084FC002132200BF029FD002137207A
:102FD0000BF05DFD00213C200BF059FD0F2100207E
:102FE0000BF0D0FB202276A102A8FDF7B0F920213A
:102FF00002A80BF081FC202100200BF0C3FBE87F2E
:1030000001281AD055488038406EFDF75BFBAFF6BB
:10301000C442CDE900014021514809F005FCD7E93F
:10302000001201234E480BF051FC012085F82A00C4
:10303000B5F86E00022807D000E248481C380AF0B4
:10304000FDFA85F82AA0F3E7B5F87200042853D1F9
:1030500095F82500012897D100200BF017FB0021DF
:1030600008460BF08FFB0123AFF28830D7E900123E
:103070000BF02CFC002132200BF0D1FC002137207A
:103080000BF005FD00213C200BF001FD0F2100207D
:103090000BF078FB182253A102A8FDF758F918216C
:1030A00002A80BF029FC202100200BF06BFBE87F2D
:1030B00001281AD029488038C06EFDF703FBAFF60F
:1030C0007452CDE900014021254809F0ADFBD7E954
:1030D0000012012322480BF0F9FB012085F82A0099
:1030E000B5F86E00022807D0A8E11C4814380AF091
:1030F000A5FA85F82AA0F3E7B5F8720005287FD174
:1031000095F82500012897D100200BF0BFFA002187
:1031100008460BF037FB0123AFF23840D7E9001225
:103120000BF0D4FB002132200BF079FC002137207A
:103130000BF0ADFC00213C200BF0A9FC0F2100207E
:103140000BF020FB21225CE0D0E0F1F7E5F2EDEEA0
:10315000E520E7EDE0F7E5EDE8E5000058010020A7
:10316000063B0020D2EEEA00252E30326600000039
:10317000CDE8E6EDE8E920EFF0E5E4E5EB20E4E872
:10318000E0EFE0E7EEEDE020E4EBFF20EFE5F0E537
:10319000F1F7E5F2E0000000C2E5F0F5EDE8E92026
:1031A000EFF0E5E4E5EB20E4E8E0EFE0E7EEEDE06A
:1031B00020E4EBFF20EFE5F0E5F1F7E5F2E00000B9
:1031C000D3F1F2E0E2EAE020EDE8E6EDFFFF20EFE8
:1031D000F0E5E4F3EFF0E5E4E8F2E5EBFCEDE0FF29
:1031E00000000000D3F1F2E0E2EAE020EDE8E6EDD5
:1031F000FFFF20E0E2E0F0E8E9EDE0FF0000000082
:1032000030E0FDA102A8FDF7A2F8212102A80BF0F1
:1032100073FB202100200BF0B5FAE87F01281AD0BB
:10322000FE48806EFDF74EFAAFF6E062CDE9000190
:103230004021FB4809F0F8FAD7E900120123F848C9
:103240000BF044FB012085F82A0000BFB5F86E00A2
:10325000022807D0F2E0F14868300AF0EFF985F86B
:103260002AA0F3E7B5F87200062853D195F8250097
:10327000012847D100200BF009FA002108460BF085
:1032800081FA0123AFF2A450D7E900120BF01EFB24
:10329000002132200BF0C3FB002137200BF0F7FB9D
:1032A00000213C200BF0F3FB0F2100200BF06AFA09
:1032B0001922DCA102A8FDF74AF8192102A80BF097
:1032C0001BFB202100200BF05DFAE87F01281AD0BB
:1032D000D248006FFDF7F6F9AFF69072CDE9000124
:1032E0004021CF4809F0A0FAD7E900120123CC48C9
:1032F0000BF0ECFA012085F82A0000BFB5F86E004B
:10330000022807D09AE0C54870300AF097F985F88E
:103310002AA0F3E7B5F8720007284AD195F82500EE
:1033200001287DD100200BF0B1F9002108460BF0F7
:1033300029FA0123AFF25460D7E900120BF0C6FA64
:10334000002132200BF06BFB002137200BF09FFB9C
:1033500000213C200BF09BFB0F2100200BF012FA08
:103360001422AFF2B86102A8FCF7F1FF142102A801
:103370000BF0C2FA1E2100200BF004FAA748406FA0
:10338000FDF7A0F9AFF2C462CDE900014021A448E5
:1033900009F04AFAD7E900120123A1480BF096FA86
:1033A00085F81FA0012085F82A00B5F86E000228D4
:1033B00044D1B5F87200082840D195F825000128BD
:1033C0003CD100200BF062F9002108460BF0DAF93D
:1033D0000123AFF2F060D7E900120BF077FA002179
:1033E00032200BF01CFB0F2100200BF0CBF9142234
:1033F000AFF2287102A8FCF7AAFF142102A80BF073
:103400007BFA1E2100200BF0BDF98448806FFDF788
:1034100059F9AFF25072CDE900014021804800E037
:103420000CE009F001FAD7E9001201237C480BF007
:103430004DFA85F81FA0012085F82A00B5F87A001A
:10344000012801D002287BD1B5F86E00032841D1B4
:10345000B5F87200F0BB00200BF018F90021084607
:103460000BF090F9D7E90012012375A00BF02EFAAA
:10347000B5F87A00022817D100200BF007F90021D7
:1034800008460BF07FF95C460123D4E900126DA0D9
:103490000BF01CFA00211C200BF074F9D4E9001287
:1034A000012369A00BF012FA95F8250018B100214C
:1034B00037200BF0ECFA00213C200BF0E8FAB5F8CD
:1034C0007600012803D0B5F87800012805D126211F
:1034D0003A2000E040E00BF013FB2B213A200BF0E8
:1034E00065FA687901283BD00F2100200BF04AF9DA
:1034F000B5F87A0002284DD0122254A102A8FCF798
:1035000026FF464C122102A8A2780BF017FA2021C0
:1035100000200BF037F9B4F9020000EB800109EB51
:10352000C1008179012946D0042944D090ED050AD3
:10353000BDEEC00A10EE100A03B2AFF6D80200E0EA
:10354000FDE34021364809F06FF93548012300BFFB
:10355000D7E900120BF0BAF995F82500B8B3EFE3FC
:1035600095F8210010B101233DA0F1E70F210020C3
:103570000BF008F95C460123D4E9001239A00BF0E6
:10358000A5F91E2100200BF0FDF8D4E9001201235B
:1035900035A0DFE7092236A102A8FCF7D8FE0921F1
:1035A00002A80BF0A9F9202100200BF0EBF8B5F8E8
:1035B000483032A2C3E74069FDF784F8AFF25842C1
:1035C000CDE900014021164809F02EF9BDE7FFE7DB
:1035D0005FF00004B5F86E0003287DD1B5F87200E5
:1035E000661CB04206D1B5F8700018B900200BF087
:1035F0004DF847E0A7E00000D3F1F2E0E2EAE02076
:10360000E2E5F0F5EDFFFF20EFF0E5E4F3EFF0E5A4
:10361000E4E8F2E5EBFCEDE0FF000000D80000205C
:10362000063B0020D3F1F2E0E2EAE020E2E5F0F52B
:10363000EDFFFF20E0E2E0F0E8E9EDE0FF00000050
:1036400034383500D2C8CA00C7D1CA00C7EDE0F788
:10365000E5EDE8E520F0E5E3E8F1F2F0E020000038
:1036600020000000CDC5D200D1C2DFC7C8000000D5
:10367000D1EEF1F2EEFFEDE8E50000002564202533
:1036800025000000002108460BF07CF82346FDA22F
:103690004021FE4809F0C8F8D7E900120123FB4891
:1036A0000BF014F9002137200BF0B9F9272C03D0C7
:1036B00000213C200BF0EBF92B213A200BF076F99E
:1036C0000F2100200BF05EF81222AFF2800102A859
:1036D000FCF73DFE224600E044E2122102A80BF076
:1036E0002DF9202100200BF04DF804EB840109EBAB
:1036F000C101887901281AD0042818D091ED050A53
:10370000E1A24021BDEEC00A10EE100A03B2DF486C
:1037100009F08AF8D7E900120123DC480BF0D6F84B
:1037200085F81FA0B5F86E0003280CD01AE248698E
:10373000FCF7C8FFAFF2D052CDE900014021D348D9
:1037400009F072F8E6E7B5F87200B04258D1B5F862
:103750007000012854D100200AF098FF002108468B
:103760000BF010F82346C7A24021C84809F05CF8C6
:10377000D7E900120123C5480BF0A8F80021372033
:103780000BF04DF9272C03D000213C200BF07FF9E2
:1037900026213A200BF0B4F92B213A200BF006F940
:1037A0000F2100200AF0EEFF1822B9A102A8FCF7B1
:1037B000CEFD2246182102A80BF0C0F820210020DF
:1037C0000AF0E0FFE87F04EB8401012811D019F82A
:1037D0003130ADA24021AD4809F026F8D7E90012FA
:1037E0000123AA480BF072F8B5F86E00032807D041
:1037F000B8E108EBC10000F590700AF04FF8F3E76C
:10380000B5F87200B04259D1B5F87000022855D110
:1038100000200AF03BFF002108460AF0B3FF2346D0
:1038200098A24021994808F0FFFFD7E90012012330
:1038300096480BF04BF8002137200BF0F0F8272CBE
:1038400003D000213C200BF022F926213A200BF076
:1038500057F92B213A200BF0A9F80F2100200AF08C
:1038600091FF1A2291A102A8FCF771FD22461A21AC
:1038700002A80BF063F8202100200AF083FFE87F04
:1038800004EB8401012812D009EBC1007EA2437829
:1038900040217E4808F0C8FFD7E9001201237B4889
:1038A0000BF014F8B5F86E00032807D05AE108EBC6
:1038B000C10000F5917009F0F1FFF3E7B5F872006F
:1038C000B04259D1B5F87000032855D100200AF054
:1038D000DDFE002108460AF055FF234669A240217B
:1038E0006A4808F0A1FFD7E90012012367480AF0EF
:1038F000EDFF002137200BF092F8272C03D0002198
:103900003C200BF0C4F826213A200BF0F9F82B21CB
:103910003A200BF04BF80F2100200AF033FF0F2262
:1039200069A102A8FCF713FD22460F2102A80BF0A3
:1039300005F8202100200AF025FFE87F04EB840130
:10394000012812D009EBC1004FA2838840214F48C3
:1039500008F06AFFD7E9001201234C480AF0B6FFCD
:10396000B5F86E00032807D0FCE008EBC10000F5B5
:10397000927009F093FFF3E7B5F87200B04259D1A5
:10398000B5F87000042855D100200AF07FFE002110
:1039900008460AF0F7FE23463AA240213B4808F0C9
:1039A00043FFD7E90012012338480AF08FFF0021B6
:1039B00037200BF034F8272C03D000213C200BF0EB
:1039C00066F826213A200BF09BF82B213A200AF0CA
:1039D000EDFF0F2100200AF0D5FE1C223EA102A817
:1039E000FCF7B5FC22461C2102A80AF0A7FF202103
:1039F00000200AF0C7FEE87F04EB8401012812D002
:103A000009EBC10020A283784021204808F00CFF78
:103A1000D7E9001201231D480AF058FFB5F86E00DF
:103A2000032807D09EE008EBC10000F5937009F071
:103A300035FFF3E7B5F87200B0427DD1B5F87000FC
:103A4000052879D100200AF021FE002108460AF05D
:103A500099FE23460BA240210C4808F0E5FED7E969
:103A60000012012309480AF031FF002137200AF033
:103A7000D6FF272C03D000213C200BF008F826218C
:103A80003A2039E03438352025640000063B002018
:103A9000C2EAEBFEF7E8F2FC20EEEFF0EEF120F0E8
:103AA000E5E3E8F1F2F0E02000000000C0E4F0E51A
:103AB000F120F3F1F2F0EEE9F1F2E2E020F0E5E3DB
:103AC000E8F1F2F0E0200000C0E4F0E5F120F0E5DC
:103AD000E3E8F1F2F0E02000D4F3EDEAF6E8EEEDF1
:103AE000E0EBFCEDFBE920EAEEE420F0E5E3E8F1B1
:103AF000F2F0E020000000000BF002F82B213A2049
:103B00000AF054FF0F2100200AF03CFE2A22FDA1FA
:103B100002A8FCF71CFC22462A2102A80AF00EFF8C
:103B2000202100200AF02EFEE87F01281BD004EBA4
:103B3000840109EBC10000E030E0006AFCF7C2FD3F
:103B4000CDE90001FA4A4021FA4808F06DFED7E9B4
:103B500000120123F7480AF0B9FE00BFB5F86E0065
:103B600003281BD08AE304EB84000B9009EBC00010
:103B70000090203009F062FD009890ED080A0AA834
:103B800009F029FD0B98BDF8282008EBC000A0F82B
:103B90003821BDF82A10A0F83A11DFE7B5F8720015
:103BA000B04274D1B5F87000062870D100200AF038
:103BB0006DFD002108460AF0E5FD2346AFF23C12F8
:103BC0004021DC4808F030FED7E900120123D94833
:103BD0000AF07CFE002137200AF021FF272C03D0B9
:103BE00000213C200AF053FF26213A200AF088FFEA
:103BF0002B213A200AF0DAFE0F2100200AF0C2FD44
:103C00002222CDA102A8FCF7A2FB2246222102A873
:103C10000AF094FE202100200AF0B4FDE87F01287C
:103C200019D004EB840109EBC100406AFCF74AFD9E
:103C3000CDE90001BE4A4021BE4808F0F5FDD7E9B4
:103C400000120123BB480AF041FE00BFB5F86E0028
:103C500003281CD012E304EB84000B9009EBC00096
:103C60000090243009F0EAFC009890ED090A0AA8B7
:103C700009F0B1FC0B98BDF8282008EBC000A0F8B3
:103C80003C21BDF82A10A0F83E11DFE7FFE7B5F8A8
:103C90007200B04276D1B5F87000072872D10020CA
:103CA0000AF0F4FC002108460AF06CFD2346AFF24E
:103CB0002C2240219F4808F0B7FDD7E900120123CC
:103CC0009C480AF003FE002137200AF0A8FE272CAA
:103CD00003D000213C200AF0DAFE26213A200AF027
:103CE0000FFF2B213A200AF061FE0F2100200AF07D
:103CF00049FD2B2299A102A8FCF729FB22462B2182
:103D000002A80AF01BFE202100200AF03BFDE87FFC
:103D100001281BD004EB840109EBC1008069FCF78A
:103D2000D1FCCDE90001824A4021824808F07CFDA7
:103D3000D7E9001201237F480AF0C8FD01E0A6E29E
:103D4000A1E2B5F86E0003281CD097E204EB8400D2
:103D50000B9009EBC0000090183009F06FFC009840
:103D600090ED060A0AA809F036FC0B98BDF8282049
:103D700008EBC000A0F84021BDF82A10A0F84211BD
:103D8000DCE7FFE7B5F87200B04274D1B5F8700017
:103D9000082870D100200AF079FC002108460AF0BA
:103DA000F1FC2346AFF224324021624808F03CFD8A
:103DB000D7E9001201235F480AF088FD002137206F
:103DC0000AF02DFE272C03D000213C200AF05FFED4
:103DD00026213A200AF094FE2B213A200AF0E6FD33
:103DE0000F2100200AF0CEFC232267A102A8FCF7D5
:103DF000AEFA2246232102A80AF0A0FD20210020CD
:103E00000AF0C0FCE87F012819D004EB840109EB1B
:103E1000C100C069FCF756FCCDE90001444A4021CD
:103E2000444808F001FDD7E90012012341480AF097
:103E30004DFD00BFB5F86E0003281CD01EE204EB58
:103E400084000B9009EBC00000901C3009F0F6FBD9
:103E5000009890ED070A0AA809F0BDFB0B98BDF881
:103E6000282008EBC000A0F84421BDF82A10A0F8D3
:103E70004611DFE7FFE7B5F87200B04241D1B5F86F
:103E8000700009283DD100200AF000FC00210846FE
:103E90000AF078FC2346AFF214424021254808F08E
:103EA000C3FCD7E90012012322480AF00FFD0021CC
:103EB00037200AF0B4FD272C03D000213C200AF063
:103EC000E6FD26213A200AF01BFE2B213A200AF0BB
:103ED0006DFD0F2100200AF055FC172233A102A826
:103EE000FCF735FA2246172102A80AF027FD202107
:103EF00000200AF047FCE87F01287BD004EB840116
:103F000060E092E0CDE8E6EDFFFF20EFF0E5E4F3BE
:103F1000EFF0E5E4E8F2E5EBFCEDE0FF20F3F1F291
:103F2000E0E2EAE020F0E5E3E8F1F2F0E020000072
:103F30004C230108063B0020CDE8E6EDFFFF20E022
:103F4000E2E0F0E8E9EDE0FF20F3F1F2E0E2EAE0A0
:103F500020F0E5E3E8F1F2F0E0200000C2E5F0F542
:103F6000EDFFFF20EFF0E5E4F3EFF0E5E4E8F2E544
:103F7000EBFCEDE0FF20F3F1F2E0E2EAE020F0E517
:103F8000E3E8F1F2F0E02000C2E5F0F5EDFFFF20FC
:103F9000E0E2E0F0E8E9EDE0FF20F3F1F2E0E2EA50
:103FA000E020F0E5E3E8F1F2F0E02000CAEEFDF4F5
:103FB000F4E8F6E8E5EDF220C020F0E5E3E8F1F200
:103FC000F0E0200009EBC100C068FCF77BFBCDE905
:103FD0000001FD4A4021FD4808F026FCD7E9001207
:103FE0000123FA480AF072FCB5F86E0003281CD0D1
:103FF00044E1FFE704EB84000B9009EBC000009064
:104000000C3009F01BFB009890ED030A0AA809F098
:10401000E2FA0B98BDF8282008EBC000A0F82C218C
:10402000BDF82A10A0F82E11DEE7B5F87200B042F4
:1040300073D1B5F870000A286FD100200AF026FB72
:10404000002108460AF09EFB2346AFF2C8524021E9
:10405000DE4808F0E9FBD7E900120123DB480AF04B
:1040600035FC002137200AF0DAFC272C03D0002190
:104070003C200AF00CFD26213A200AF041FD2B21BC
:104080003A200AF093FC0F2100200AF07BFB172254
:10409000CFA102A8FCF75BF92246172102A80AF07B
:1040A0004DFC202100200AF06DFBE87F012818D08C
:1040B00004EB840109EBC1000069FCF703FBCDE9C7
:1040C0000001C14A4021C14808F0AEFBD7E9001207
:1040D0000123BE480AF0FAFBB5F86E0003281CD095
:1040E000CCE004EB84000B9009EBC0000090103092
:1040F00009F0A4FA009890ED040A0AA809F06BFAF6
:104100000B98BDF8282008EBC000A0F83021BDF8BE
:104110002A10A0F83211DFE7FFE7B5F87200B042CD
:104120005CD1B5F870000B2858D100200AF0AEFA27
:10413000002108460AF026FB2346AFF2B862402170
:10414000A24808F071FBD7E9001201239F480AF04A
:10415000BDFB002137200AF062FC272C03D0002190
:104160003C200AF094FC26213A200AF0C9FC2B21BD
:104170003A200AF01BFC0F2100200AF003FB142256
:1041800099A102A8FCF7E3F82246142102A80AF03C
:10419000D5FB202100200AF0F5FAE87F04EB84012A
:1041A000012814D009EBC1008379AFF224724021B9
:1041B000864808F039FBD7E90012012383480AF04A
:1041C00085FB00BFB5F86E00032807D056E008EB6A
:1041D000C10000F5947009F061FBF3E7B5F87200D7
:1041E000B0424BD1B5F870000C2847D100200AF03E
:1041F0004DFA002108460AF0C5FA2346AFF27C7258
:104200004021724808F010FBD7E9001201236F48E3
:104210000AF05CFB002137200AF001FC272C03D0B8
:1042200000213C200AF033FC26213A200AF068FCE9
:104230000F2100200AF0A6FA112271A102A8FCF7B2
:1042400086F82246112102A80AF078FB20210020DE
:104250000AF098FAE87F04EB8401012818D009EBF2
:10426000C1000389AFF2E0724021584808F0DCFA3F
:10427000D7E90012012355480AF028FB641CE4B278
:10428000282CFFF4A7A9B5F86E00032807D099E001
:1042900008EBC10000F5957009F000FBEEE7B5F8FA
:1042A000720001284CD195F8250001287CD100200E
:1042B0000AF0ECF9002108460AF064FA0123AFF68F
:1042C0008040D7E900120AF001FB002132200AF0F9
:1042D000A6FB002137200AF0DAFB00213C200AF07F
:1042E000D6FB0F2100200AF04DFA374918228039F9
:1042F00002A8FCF72CF8182102A80AF0FDFA2021E8
:1043000000200AF03FFAE87F012814D04148B0F9B4
:104310000230AFF68C0240212C4808F085FAD7E92C
:104320000012012329480AF0D1FA00BFB5F86E0047
:10433000032805D046E03748801C09F0AFFAF5E7BE
:10434000B5F872000228B1D195F825000128ADD149
:1043500000200AF09BF9002108460AF013FA012315
:10436000AFF62450D7E900120AF0B0FA002132204B
:104370000AF055FB0F2100200AF004FA082226A1BA
:1043800002A8FBF7E4FF082102A80AF0B5FA2021F1
:1043900000200AF0F7F9E87F01284CD01D48803052
:1043A000006BFCF78FF900E018E2CDE900011DA2D7
:1043B0004021064808F038FAD7E9001201230348E3
:1043C0000AF084FA32E00000C42C0108063B002009
:1043D000CAEEFDF4F4E8F6E8E5EDF220C220F0E5DF
:1043E000E3E8F1F2F0E02000D2E8EF20E4E0EDEDC8
:1043F000FBF520F0E5E3E8F1F2F0E020000000003A
:10440000D2E0E9ECE0F3F220F0E5E3E8F1F2F0E0ED
:1044100020000000D8000020D1EAEEF0EEF1F2FC1E
:1044200000000000252E303066000000B5F86E0058
:10443000042805D0E4E2FB49FB4809F0B9F9C1E7DB
:10444000B5F87200F0BB00200AF020F90021084600
:104450000AF098F95C460123D4E90012F3A00AF0AF
:1044600035FA95F8250018B1002137200AF00FFB26
:1044700000213C200AF00BFB26213A200AF040FBE9
:104480002B213A200AF092FA0F2100200AF07AF943
:10449000D4E900120123E7A00AF018FAD7E90012C4
:1044A0000123E6A00AF012FA10212A200AF06AF984
:1044B0002B7AAFF62C224021E14808F0B5F9012310
:1044C000DF4800E02AE0D7E900120AF0FFF92021D6
:1044D00000200AF057F9D4E900120123D9A00AF00C
:1044E000F5F9D7E900120123D4A00AF0EFF9212150
:1044F0002A200AF047F9EB79AFF674224021D04820
:1045000008F092F9D7E900120123CD480AF0DEF94C
:1045100085F82AA0B5F86E0004288BD1B5F8720092
:10452000012867D195F82500A8BB00200AF0AEF855
:10453000002108460AF026F9DBE900120123BBA09E
:104540000AF0C4F9002137200AF069FA00213C2062
:104550000AF09DFAB5F87A00012802D002281BD093
:104560003FE00F2100200AF00DF91022B7A102A8A8
:10457000FBF7EDFE102102A80AF0BEF9D7E9001200
:104580000123B7A00AF0A2F9202100200AF0FAF8CE
:10459000B5F874301AE09EE00F2100200AF0F2F81E
:1045A0000D22B0A102A8FBF7D2FE0D2102A80AF04D
:1045B000A3F9D7E900120123AEA00AF087F9202160
:1045C00000200AF0DFF8AD48008C83B2ACA2402195
:1045D0009B4808F029F9D7E90012012398480AF00E
:1045E00075F985F81FA0012085F82A00B5F86E003E
:1045F00004287DD1B5F87200022868D195F825000D
:1046000088BB00200AF042F8002108460AF0BAF8F8
:10461000DBE90012012385A00AF058F900213720B8
:104620000AF0FDF9B5F87A00012802D002281BD063
:1046300044E00F2100200AF0A5F8102283A102A86F
:10464000FBF785FE102102A80AF056F9D7E90012FF
:1046500001238DA00AF03AF9202100200AF092F8F7
:10466000B5F844301FE090E00F2100200AF08AF8EE
:104670000D227CA102A8FBF76AFE0D2102A80AF018
:104680003BF9D7E90012012380A00AF01FF920218D
:1046900000200AF077F87949086A91F82410000C94
:1046A00040EA014083B276A24021654808F0BCF898
:1046B000D7E90012012362480AF008F985F81FA023
:1046C000012085F82A00B5F86E00042810D1B5F84D
:1046D0007200012855D195F8250001287ED10020CF
:1046E00009F0D4FF002108460AF04CF8012300E04D
:1046F00086E15C464DA0D4E900120AF0E7F80021FB
:1047000032200AF08CF9002137200AF0C0F900218C
:104710003C200AF0BCF90F2100200AF033F8D4E95C
:10472000001201235BA00AF0D1F8C82009F0FAF9C1
:10473000202100200AF026F8E87F012817D0B5F8DC
:104740005230AFF6BC4240213D4808F06DF8D7E941
:10475000001201233A480AF0B9F8012085F82A002E
:1047600085F82BA0B5F86E0004280AD048E12E4841
:10477000DE3809F093F885F82AA0012085F82B008F
:10478000F0E7B5F8720002284BD195F82500012812
:10479000A4D1002009F07AFF0021084609F0F2FFB9
:1047A000DBE90012012321A00AF090F80021322059
:1047B0000AF035F9002137200AF069F900213C2080
:1047C0000AF065F90F21002009F0DCFF182233A15F
:1047D00002A8FBF7BCFD182102A800E0FCE00AF0EB
:1047E0008BF82021002009F0CDFFE87F012863D05D
:1047F000B5F85430AFF670524021114808F014F863
:10480000D7E9001201230E480AF060F8012085F86C
:104810002A0085F82BA000BFB5F86E00042854D0FC
:10482000EEE052E0BC18020888010020D0E5EBE57C
:1048300000000000CFF0E5E4000000002E000000C2
:10484000063B0020C0E2E0F000000000C0F2F2F001
:10485000E8E1F3F220F1EEE1FBF2E8FF00000000F6
:1048600020310000C1E8F220F1EEF1F2EEFFEDE8B8
:10487000FF00000028302D3135290000D80200202B
:104880003078255800000000203200002831362DF5
:1048900033312900D0E5E6E8EC000000C7E0E4E5AC
:1048A000F0E6EAE020EDE020F1F0E0E1E0F2FBE20A
:1048B000E0EDE8E500000000FE4808F0EFFF85F8B5
:1048C0002AA0012085F82B00A6E7B5F8720003287E
:1048D00053D195F8250001287ED1002009F0D6FE9D
:1048E0000021084609F04EFF0123AFF2C000DBE9CA
:1048F000001209F0EBFF002132200AF090F80021AD
:1049000037200AF0C4F800213C200AF0C0F80F213B
:10491000002009F037FF2122E7A102A8FBF717FDCD
:10492000212102A809F0E8FF2021002009F02AFF38
:10493000E87F012817D0B5F85630AFF6B4624021B1
:10494000E64807F071FFD7E900120123E34809F0B8
:10495000BDFF012085F82A0085F82BA0B5F86E0070
:1049600004280AD04CE0D348801C08F097FF85F853
:104970002AA0012085F82B00F0E7B5F87200042882
:10498000AAD195F825000128A6D1002009F07EFEC5
:104990000021084609F0F6FE0123AFF27010DBE9B2
:1049A000001209F093FF002132200AF038F80F219D
:1049B000002009F0E7FE0922C9A102A8FBF7C7FC05
:1049C000092102A809F098FF2021002009F0DAFE51
:1049D000E87F012819D000E069E2B5F85C30AFF655
:1049E00058724021BD4807F01FFFD7E9001201238C
:1049F000BA4809F06BFF012085F82A0085F82BA042
:104A0000B5F86E0005280AD012E2AA48083008F06E
:104A100045FF85F82AA0012085F82B00F0E7B5F8BE
:104A2000720028BB002009F031FE0021084609F081
:104A3000A9FE00213C200AF02AF826213A200AF09B
:104A40005FF82B213A2009F0B1FF0F21002009F077
:104A500099FE0922A5A102A8FBF779FC092102A869
:104A600009F04AFF85F82AA0B5F86E0005284BD159
:104A7000B5F87200012852D1002009F007FE00218C
:104A8000084609F07FFE5C460123D4E900129AA093
:104A900009F01CFF0123AFF25C20D7E9001209F0F6
:104AA00015FF0021372009F0BAFF00213C2009F052
:104AB000EEFF0F21002009F065FED4E9001201236A
:104AC0008FA009F003FFC82009F02CF82021002056
:104AD00009F058FEE87F012817D0B5F866308AA2A1
:104AE00040217E4807F0A0FED7E9001201237B4851
:104AF00009F0ECFE012085F82A0085F82BA000BF04
:104B0000B5F86E0005280AD092E16A48123008F024
:104B1000C5FE85F82AA0012085F82B00F0E7B5F83E
:104B20007200022858D1002009F0B0FD002108468B
:104B300009F028FEDBE9001201236FA009F0C6FE90
:104B40000123AFF20830D7E9001209F0BFFE0021BF
:104B5000372009F064FF00213C2009F098FF0F2165
:104B6000002009F00FFE0822AFF2547102A8FBF7F3
:104B7000EEFB082102A809F0BFFE2021002009F069
:104B800001FEE87F01281CD04A48AC30C06AFBF720
:104B900099FDAFF27072CDE9000140214F4807F056
:104BA00043FED7E9001201234C4809F08FFE012093
:104BB00085F82A0085F82BA0B5F86E0005280BD0E3
:104BC00036E13C485149D83008F0F2FD85F82AA07A
:104BD000012085F82B00EFE7B5F87200032857D1C4
:104BE000002009F053FD0021084609F0CBFDDBE968
:104BF0000012012340A009F069FE0123AFF2C43086
:104C0000D7E9001209F062FE0021372009F007FF02
:104C100000213C2009F03BFF0F21002009F0B2FDEC
:104C20000D223BA102A8FBF792FB0D2102A809F07F
:104C300063FE2021002009F0A5FDE87F01281CD09B
:104C40001C48AC30006BFBF73DFDAFF62802CDE908
:104C500000014021214807F0E7FDD7E900120123B8
:104C60001E4809F033FE012085F82A0085F82BA0A4
:104C7000B5F86E0005280BD0DAE00E482349DC3089
:104C800008F096FD85F82AA0012085F82B00EFE7B3
:104C9000B5F8720004287DD1002009F0F7FC00214E
:104CA000084609F06FFDDBE90012012312A009F0AC
:104CB0000DFE35E0AC000020C7E0E4E5F0E6EAE0F8
:104CC00020EDE020E2FBF5EEE420E8E720F1F0E063
:104CD000E1E0F2FBE2E0EDE8FF000000063B00202F
:104CE000D2E5F1F220F0E5EBE5000000CDE0F1F2D5
:104CF000F0EEE9EAE8000000CDE0F1F2F00000009B
:104D0000C0E4F0E5F100000025640000BC180208D2
:104D1000D1EAEEF0EEF1F2FC20F8E8EDE000000060
:104D20000123AFF2E840D7E9001209F0CFFD0021DE
:104D3000372009F074FE00213C2009F0A8FE0F2165
:104D4000002009F01FFD0E22FEA102A8FBF7FFFACA
:104D50000E2102A809F0D0FD2021002009F012FD4B
:104D6000E87F012819D0B5F86830AFF2640240211D
:104D7000F84807F059FDD7E900120123F54809F07A
:104D8000A5FD012085F82A0085F82BA0B5F86E0056
:104D9000052800E00AE009D04AE0EF4808F07EFD6F
:104DA00085F82AA0012085F82B00EFE7B5F87200FE
:104DB00005287CD1002009F069FC0021084609F093
:104DC000E1FC0123AFF2D000DBE9001209F07EFD27
:104DD0000123AFF29850D7E9001209F077FD0021C6
:104DE000372009F01CFE0F21002009F0CBFC0E2219
:104DF000DAA102A8FBF7ABFA0E2102A809F07CFDAC
:104E00002021002009F0BEFCE87F012815D0B5F86C
:104E10007E30AFF20C124021CE4807F005FDD7E9F5
:104E200000120123CB4809F051FD012085F82A002A
:104E3000B5F86E00062807D002E1C748163008F022
:104E40002DFD85F82AA0F3E7B5F8720008BB002015
:104E500009F01CFC0021084609F094FC00213C20CC
:104E600009F015FE26213A2009F04AFE0F21002004
:104E700009F088FC0A22BDA102A8FBF768FA0A2102
:104E800002A809F039FD85F82AA0B5F86E000628B9
:104E90007ED1B5F8720001284AD1002009F0F6FB56
:104EA0000021084609F06EFC0123B3A000E00BE1ED
:104EB000DBE9001209F00AFD0123AFF28060D7E9B7
:104EC000001209F003FD0021372009F0A8FD0021A0
:104ED0003C2009F0DCFD0F21002009F053FC1222D8
:104EE000A6A102A8FBF733FA122102A809F004FDDB
:104EF0002021002009F046FC9748983090ED080AE0
:104F000010EE100AFBF7DEFBCDE90001A04A4021BC
:104F1000904807F089FCD7E9001201238D4809F079
:104F2000D5FC012085F82A00B5F86E0006282FD19F
:104F3000B5F87200022844D1002009F0A7FB002137
:104F4000084609F01FFCDBE9001201238AA009F0E2
:104F5000BDFC0123AFF21C70D7E9001209F0B6FCCA
:104F60000021372009F05BFD00213C2009F08FFD76
:104F70000F21002009F006FC092286A102A8FBF7F8
:104F8000E6F9092102A809F0B7FC2021002000E081
:104F900056E009F0F7FB9FED820B834A8DED000B85
:104FA00040216C4807F040FCD7E900120123694812
:104FB00009F08CFC012085F82A00B5F86E0006285F
:104FC0003ED1B5F8720003287ED1002009F05EFBC7
:104FD0000021084609F0D6FBDBE90012012366A098
:104FE00009F074FC0123AFF2AC70D7E9001209F0AC
:104FF0006DFC0021372009F012FD0F21002009F07F
:10500000C1FBD7E90012012368A009F05FFC202151
:10501000002009F0B7FB50489830C068FBF752FBFE
:10502000CDE900015A4A40214A4807F0FDFBD7E983
:1050300000120123474809F049FC012085F82A00A5
:10504000B5F86E0007283FD1B5F87200D8B995F8C9
:105050002300012838D1002009F018FB0221372055
:1050600009F015FD0F21002009F08CFB0C2251A145
:1050700002A8FBF76CF90C2102A809F03DFCB5F879
:105080006E00072820D1B5F87200012846D1002013
:1050900009F0FCFA0021084609F074FBDBE9001274
:1050A000012348A009F012FC0123AFF67000D7E9F4
:1050B000001209F00BFC0221302009F0B0FC0221A3
:1050C000372009F0E4FC00E0F7E00F21002009F0B0
:1050D00059FBD7E9001201233C4809F0F7FB2021D6
:1050E000002009F04FFBE87F012812D0B5F8763098
:1050F000AFF2EC324021174807F096FBD7E90012D7
:105100000123144809F0E2FBB5F86E00072805D02A
:10511000D3E011480E3008F0C1FBF5E7B5F8720096
:1051200002287DD1002009F0B1FA0021084609F0DB
:1051300029FBDBE90012012322A009F0C7FB0123B0
:1051400046E00000C2F0E5ECFF20EFF0EEE3F0E512
:10515000E2E00000063B0020C0000020D1E1F0EEBC
:10516000F120EDE0F1F2F0EEE5EA0000C8EDF4EE3A
:10517000F0ECE0F6E8FF0000C8EDF400CDE0EFF061
:10518000FFE6E5EDE8E520EFE8F2E0EDE8FF0000FE
:105190004C230108C2E5F0F1E8FF20CFCE0000006B
:1051A000F2D24D6210D81540683101084D4D54457A
:1051B00000000000CACECDD4C8C3D3D0C0D6C8DF4B
:1051C00000000000CAEEEDF4000000001C1F010802
:1051D000AFF69810D7E9001209F078FB02213020D1
:1051E00009F01DFC0221372009F051FC0F2100209D
:1051F00009F0C8FAD7E9001201233A4809F066FB22
:105200002021002009F0BEFAE87F012815D0B5F86A
:105210007830AFF20C524021334807F005FB00E034
:105220000FE0D7E9001201232F4809F04FFB00BF20
:10523000B5F86E00072804D03FE02C4808F02EFB9C
:10524000F6E7B5F87200032837D1002009F01EFAFE
:105250000021084609F096FA0123AFF29800DBE935
:10526000001209F033FB0123AFF63020D7E900121A
:1052700009F02CFB0221302009F0D1FB0F21002086
:1052800009F080FAD7E900120123194809F01EFB42
:105290002021002009F076FAE87F01281BD0B5F81C
:1052A0007A30AFF29C5240210F4807F0BDFAD7E99F
:1052B000001201230C4809F009FB09F069FA95F87E
:1052C000210068B15FF0000085F82100642008F03B
:1052D00029FCFCF711BC0548801C08F0DFFAECE75C
:1052E0000120F1E7E42C0108063B0020D00000205B
:1052F00040360108184F0026DFF860B086B04FF046
:1053000008084FF0180A4FF08009A7F5C07401256E
:105310004FF0FF31F86A0AF08BFA607F0128F7D16D
:1053200001AA0496009682E82005CBF8109001F0BF
:105330009FFC04F82F0F032008F0F4FB04A9684633
:1053400001F0C8FB207001F037FC14F82F09002889
:10535000DED184F82E50DBE7D80100200020024087
:10536000124A117F1248012901D003290BD1036889
:1053700043F400630360036823F40063036003687D
:1053800043F400730360022901D003290BD10168A3
:1053900041F480510160016821F48051016001688D
:1053A00041F4806101600020107770474C040020B8
:1053B000002002400849C20703D04A6942F00402B3
:1053C0004A61800703D5486940F400404861486954
:1053D00040F480304861704700200240CA070B4902
:1053E0004A6902D022F4006201E042F400624A619C
:1053F0004A6960F3CA024A61486940F002004861A4
:10540000486940F480304861704700000020024045
:10541000044910B54C6944F001044C6102604360DA
:1054200010BD000000200240074B10B55C6940220F
:1054300044F480245C6172B608C908C0521E12F0A0
:10544000FF02F9D162B610BD0020024070B50546DA
:1054500001F00CFD0646184C08E0681C06D001F06F
:1054600005FD801BA84201D3032070BD2069C04305
:10547000C003F2D5216911480140A06900F0004045
:10548000084311D00E494A6802434A60810F04D094
:10549000A16900F040421143A161810002D020F0D7
:1054A00040402061012070BD2069C043C00701D188
:1054B00001202061002070BD00200240FAC30200DC
:1054C0004C040020294810B5C078A0B3012840D072
:1054D000022828D3264B274A0221A3F10C0007F00B
:1054E00054FF234B234A843321480221783007F0AC
:1054F0004CFF1F4B1F4AB0330221A3F10C0007F0F1
:1055000044FF1B4B1B4A2C33A03A0221A3F10C0091
:1055100007F03BFF164B174A5833783A0221A3F1A4
:105520000C0007F032FF16489FED130B80ED0A0BBD
:1055300080ED0C0B10BDFFE70D4B0E4A0221503AD7
:10554000A3F10C0007F021FF094B0A4A8433503ABB
:10555000CAE7074B074A0221283AA3F10C0007F0DB
:1055600014FF034B034A8433283ABDE75800002058
:105570002C180020F80300200000000000000000AC
:10558000D802002010B504460AF0E0FA014614B132
:1055900008F0DEF92060C86C10BD00002DE9F84F5E
:1055A0004FF000080446CDF800800D4694F85420D2
:1055B000DFF80894216947464046012A0AD00126AF
:1055C000FF4A84F8546041B1A969012905D0636E8E
:1055D000EBB129E00220BDE8F88F6868082838D1CF
:1055E000296A4FF4F85041B12B6801F03C0100EA00
:1055F00093400843696A084302E0296800EA914041
:105600002368D96C11400143D964206621E0C4E9C4
:105610001871296AA86931B101F03C01401E0843A4
:10562000696A084300E0401E29682B79C1F3846150
:1056300003F01F0399400143606E401E6066236EB5
:1056400043EA0103236604D12068C16C1140194369
:10565000C164206803F058FB48B9687F90B12068A6
:10566000C168AA7F21F4401141EA4251C16020681B
:1056700003F052FB8246206803F046FB5AEA000022
:105680000BD0DDE0A87F297F400540EA015120686A
:10569000C26822F440121143E8E7286A28B1686A18
:1056A00018B1687F012845D002E0687F012804D046
:1056B0002068C16821F0007103E02068C16841F0F2
:1056C0000071C16095F8280001283AD0206801696E
:1056D00021F002010161AA6829682068B2F1004F37
:1056E00020D003F034FB2068416921F00041416182
:1056F00020686969C268C2F3C102520091402A69F8
:10570000042A2AD000EB82002B68DFF8B8C2026EB0
:1057100003F0F84302EA0C020B431A4342F0004143
:1057200001668DE0002203F012FB2068416941F020
:105730000041DCE7A06D40F02000A0654FF00108BB
:10574000C0E7D5E90B01084321680A6922F4FF721A
:1057500042F0020210430861BDE7002103F0CAFADB
:10576000400320684FF0000172D003F0C3FA90FAB2
:10577000A0F0B0FA80F1286842036ED090FAA0F051
:10578000B0FA80F0814204D100221146206803F073
:10579000F5FA0121206803F0ADFA400320684FF0CC
:1057A00001015DD003F0A6FA90FAA0F0B0FA80F102
:1057B0002868420359D090FAA0F0B0FA80F08142F4
:1057C00004D100220121206803F0D8FA02212068C8
:1057D00003F090FA400320684FF0020148D003F034
:1057E00089FA90FAA0F0B0FA80F12868420344D018
:1057F00090FAA0F0B0FA80F0814204D10022022198
:10580000206803F0BBFA0321206803F073FA400319
:1058100020684FF0030133D003F06CFA90FAA0F047
:10582000B0FA80F1286842032FD090FAA0F0B0FAC5
:1058300080F0814204D100220321206803F09EFA07
:105840002068816811F0010F22D0ABE000E004E095
:1058500003F050FAC0F384618DE7C0F3846091E7F0
:1058600003F048FAC0F38461A2E7C0F38460A6E7BE
:1058700003F040FAC0F38461B7E7C0F38460BBE78C
:1058800003F038FAC0F38461CCE7C0F38460D0E75A
:105890002B7B296850F8B02FC1F3120C22EA0C02BE
:1058A00003F0180C484B23FA0CF30B401A43026028
:1058B000E968494576D1286841031BD090FAA0F1E8
:1058C000B1FA81F1491C01F01F0109294FEA403169
:1058D00031D8002911D090FAA0F1B1FA81F100BFBE
:1058E00001F1010101F01F0106FA01F608D1C0F330
:1058F000846109E0C0F38461E4E7C0F38461EFE709
:1059000090FAA0F1B1FA81F101F1010101F01F015A
:1059100046EA816102D1C0F3846003E090FAA0F00E
:10592000B0FA80F000F1010000F01F0000EB400031
:1059300041EA005132E000290ED090FAA0F1B1FA0C
:1059400081F100BF01F1010101F01F0106FA01F62A
:1059500005D1C0F3846106E0C0F38461F2E790FAF8
:10596000A0F1B1FA81F101F1010101F01F0146EA54
:10597000816102D1C0F3846003E090FAA0F0B0FA34
:1059800080F000F1010000F01F00104A00EB400021
:1059900002EB005041EA000141F00071AA68206862
:1059A00003F0D5F90A482A68024256D009488168AE
:1059B000094E01F0E071094B094D13E000007F40F2
:1059C0000020088200F0FF03FFFF0700000020FE18
:1059D0000000088000030450000052C7000004507B
:1059E00000020450B2421BD10E0219D422689A421E
:1059F00001D0AA4231D1826841F4000122F0E07264
:105A00000A438260174818490068B0FBF1F000EBC8
:105A10004000800000E0401E00900028FBD11CE008
:105A2000124EB24209D1CE0107D422689A4201D067
:105A3000AA4212D141F080710AE06FF00045EA42BB
:105A40000BD14A0209D422689A4206D141F480015E
:105A5000826822F0E0720A43826084F85470404603
:105A6000B9E500006C040020400D0300000084CB69
:105A70000068B1F5877F0FD0B1F5057F09D0A1F59A
:105A800040711A3902D0D0F880007047D0F88C00ED
:105A90007047D0F888007047D0F884007047000045
:105AA0002DE9F041044637480F46806800F01F0694
:105AB0006069082804D0202501F0D8F980460AE062
:105AC0004025F9E7781C06D001F0D0F9A0EB0800DA
:105AD000B84215D8A7B1206800682842F2D02168E2
