:020000040801F1
:100000002089012081020108B1A301083D8C01086B
:10001000819F0108AD0F0108FDC601080000000026
:10002000000000000000000000000000C101010805
:1000300095190108000000001D020108E7AC010845
:100040009B0201089B0201089B0201089B02010818
:100050009B0201089B0201089B0201089B02010808
:100060009B0201089B0201089B020108E1120108A2
:10007000ED120108F9120108051301081113010816
:100080001D130108291301089B0201089B020108A6
:100090009B0201089B0201089B0201089B020108C8
:1000A0009B02010859B101089B0201089B0201084B
:1000B0009B0201089B0201089B0201089B020108A8
:1000C0009B0201089B0201089B0201089B02010898
:1000D0009B02010819C4010875C40108D1C40108B4
:1000E0009B0201089B0201089B0201089B02010878
:1000F0009B0201089B0201089B0201089B02010868
:100100009B0201089B0201089B0201089B02010857
:100110009B02010881BE010865B1010881B1010897
:1001200035130108411301089B0201089B020108D5
:100130009B0201089B0201089B0201089B02010827
:100140009B0201089B0201089B0201089B02010817
:100150009B0201089B0201089B0201089B02010807
:100160009B0201089B0201089B0201089B020108F7
:100170009B0201089B0201089B020108000000008D
:100180009B0201089B0201089B0201089B020108D7
:100190009B0201089B0201089B0201089B020108C7
:1001A0009B0201089B0201089B020108DFF80CD0AA
:1001B00000F0E0FB004800478DDA010820890120AB
:1001C0002C4B19680868B0E8F04F80F30988BFF33A
:1001D0006F8F4FF0000080F311887047000000001F
:1001E00008480068006880F308884FF0000080F33A
:1001F000148862B661B6BFF34F8FBFF36F8F00DF15
:1002000000BF00BF08ED00E0DFF80C00016841F41A
:1002100070010160704700BF88ED00E0EFF30980D6
:10022000BFF36F8F134B1A681EF0100F08BF20ED3D
:10023000108A20E9F04F106009B44FF0500080F3AD
:100240001188BFF34F8FBFF36F8F0EF077FF4FF022
:10025000000080F3118809BC19680868B0E8F04F05
:100260001EF0100F08BFB0EC108A80F30988BFF3AE
:100270006F8F704794040020EFF3058070470000F3
:100280000648804706480047FEE7FEE7FEE7FEE730
:10029000FEE7FEE7FEE7FEE7FEE7FEE7A9AD0108A1
:1002A000AD0101082DE9F05F0546002092469B460E
:1002B00088460646814640241BE02846414647467C
:1002C000224600F053FA53465A46C01A914110D3C1
:1002D00011461846224600F03AFA2D1A67EB01083B
:1002E0004F4622460120002100F031FA17EB0009A9
:1002F0004E41201EA4F10104DFDC484631462A4667
:100300004346BDE8F09F40EA01039B0703D009E0A4
:1003100008C9121F08C0042AFAD203E011F8013BF1
:1003200000F8013B521EF9D27047D2B201E000F84A
:10033000012B491EFBD270470022F6E710B5134689
:100340000A4604461946FFF7F0FF204610BD10B5D7
:10035000044604E00B7800F8013B03B1491C521E2F
:10036000F8D2204610BD2DE9FE4F804681EA0300F9
:10037000C00F0C46009021F0004123F00045B8EB7F
:100380000200A94105D24046214690461C460B4634
:10039000024623F00040104347D0270DC7F30A0060
:1003A000C3F30A510290401A019040286BDAC3F35C
:1003B000130040F4801B0098924620B10023D2EB3A
:1003C000030A63EB0B0B01985946C0F140025046FB
:1003D00000F0BDF906460D4650465946019A00F018
:1003E000D5F910EB08006141002487EA115284EA34
:1003F000E7731A4340D0009A62B3019A012A4FEA88
:10040000075215DC001B61EB02014FF0004202EACB
:100410000752CDE90042001C41F5801132462B46BF
:1004200000F02AFA03B0BDE8F08F40462146F9E714
:10043000001B61EB0201001C41F5801300185B41B9
:100440002018A2F5001747EB030140EAD570B61952
:100450006D4111E06D084FEA360645EAC0754FEA76
:100460000752001B61EB0201001C41F58011490895
:100470004FEA30000019514132462B4603B0BDE827
:10048000F04F00F0EAB90098012240000023D0EBC1
:10049000020263EBE073009821464FEAE074B8EB88
:1004A000000061EB0401E9E783F000435BE781F0C2
:1004B000004158E72DE9FE4F81EA030404F00044AF
:1004C00021F0004100944FF0000B23F0004350EA6C
:1004D00001045ED052EA03045BD0C3F30A54C1F3B3
:1004E0000A552C44A4F2F3340194A0FB0254C1F346
:1004F000130141F48011C3F3130343F4801301FB90
:10050000024400FB034E840A970A44EA815447EAF6
:100510008357A4FB076802958D0A05FB07854FEA00
:10052000932C04FB0C542705029D4FEA065847EA1A
:100530001637B5EB08056EEB070C870E920E47EAEF
:10054000811742EA8312A7FB0201B6EB0B0164EBB1
:1005500000042B0D43EA0C335E1844EB1C50DA46C2
:100560005146E7FB0201C5F313044FEA0B3343EA9C
:1005700014534FEA0432019C43EA0603A4F10C042D
:100580000294009CCDE900B400F076F903B0BDE818
:10059000F08F00200146F9E72DE9F04D81EA0304D0
:1005A00004F0004B21F0004514464FF0000A23F000
:1005B000004150EA050220D054EA01021DD0C5F3E3
:1005C0000A570246C5F31303C1F31300C1F30A56D9
:1005D00040F4801543F48013A7EB0608101BD646A1
:1005E00008F2FD3873EB050002D308F1010801E0C1
:1005F00092185B41B8F1000F03DA00200146BDE814
:10060000F08D00204FF48011064684460EE0171B43
:1006100073EB050705D3121B63EB050306434CEA96
:10062000010C49084FEA300092185B4150EA01077B
:10063000EDD152EA030012D082EA040083EA0501F8
:10064000084305D0101BAB4106D20122002306E06F
:1006500000224FF0004302E06FF0010253101AEB4A
:1006600006004CEB085110EB0A0041EB0B01BDE812
:10067000F04D00F0F2B830B404469623080021464D
:1006800004D0B62330BC002200F09BB820460021E5
:10069000F8E70EB540F2334102910021CDE9001197
:1006A0000A460B4600F0E8F803B000BD0EB540F274
:1006B000334202920022CDE90022134600F0DCF81A
:1006C00003B000BD00F0004230F000400AD0C10D80
:1006D00001F56071C0F3160042EA0151C2084007FB
:1006E0001143704700200146704701F0004330B4C9
:1006F00021F0004150EA010206D00A0DA2F5607215
:10070000C1F31301002A02DC30BC00207047440F03
:1007100044EAC104C100E01830BC00EBC25000F054
:1007200047B830B50B46014600202022012409E0DD
:1007300021FA02F59D4205D303FA02F5491B04FA9A
:1007400002F52844151EA2F10102F1DC30BD202A79
:1007500004DB203A00FA02F1002070479140C2F118
:10076000200320FA03F3194390407047202A04DB4A
:10077000203A21FA02F00021704721FA02F3D0401A
:10078000C2F120029140084319467047202A06DB37
:10079000CB17203A41FA02F043EAE07306E041FA4F
:1007A00002F3D040C2F1200291400843194670473D
:1007B0000029A8BF7047401C490008BF20F0010075
:1007C000704710B4B0FA80FC00FA0CF050EA010453
:1007D00004BF10BC704749B1CCF1200421FA04F4E5
:1007E00011FA0CF118BF012121430843A3EB0C01BE
:1007F000CB1D4FEA00614FEA102042BF002010BC21
:10080000704700EBC35010440029A4BF10BC7047D0
:10081000401C490008BF20F0010010BC704710B513
:1008200041000CD0C0F3C751962908DC7E2909DCB1
:1008300006DB410204D000F0004040F07E5010BDC5
:10084000002010BDC1F19604C4F1200100FA01F1AD
:10085000E040FFF7ADFFA04010BD10B5141E73F1CE
:10086000000408DA401C41F1000192185B411A4370
:1008700001D120F0010010BD2DE9F04D92469B46BC
:1008800011B1B1FA81F202E0B0FA80F22032904662
:10089000FFF75DFF04460F4640EA0A0041EA0B01FC
:1008A00053465A46084313D0114653EA010019D063
:1008B000C8F140025046FFF759FF05460E46504624
:1008C00059464246FFF743FF084305D0012004E0A4
:1008D00020463946BDE8F08D0020054346EAE07623
:1008E0002C4337430A986305E40AA0EB0800002272
:1008F000FD0A44EA47540A3002D500200146E9E7E0
:10090000010510196941DDE9084500196941BDE893
:10091000F04DA2E7C1F30A52C1F3130140F2FF33D5
:1009200041F480119A4202DA00200146704740F2F9
:1009300033439A42A2F2334202DC5242FFF716BF1F
:10094000FFF705BF30B5041E71F1000404DB4FF062
:100950000044404264EB0101141E73F1000405DB06
:100960001C464FF00043524263EB0403994208BF18
:10097000904230BD064C074D06E0E06840F00103B0
:1009800094E8070098471034AC42F6D3FFF712FC06
:10099000A41C0208C41C020870B58C1810F8015B76
:1009A00015F0070301D110F8013B2A1106D110F808
:1009B000012B03E010F8016B01F8016B5B1EF9D10C
:1009C0002B0705D40023521E0DD401F8013BFAE792
:1009D00010F8013BCB1A921C03E013F8015B01F8FD
:1009E000015B521EF9D5A142D8D3002070BD000092
:1009F0002DE9F041044600270D46006808F0A4F9EF
:100A00000646206808F098F9304359D02068C1683C
:100A10002C4E890105D5617E012902D1217E012953
:100A20000BD0022D1DD0206808F08EF9B8B12068D7
:100A30008168C1F3400169B111E00125224902E05A
:100A40008F422ED27F1C0268D2435206F8D4402136
:100A50000160E8E78168314041F010018160012DBB
:100A600011D0206808F068F948B120688168C1F3A6
:100A7000400121B98168314041F020018160022D9F
:100A800008D0032D04D0042506F00CFA064613E026
:100A90000C25F9E70825F7E706F004FA801B05287E
:100AA0000AD9A06D40F01000A065E06D40F0010093
:100AB000E0650120BDE8F081206880682842EBD124
:100AC0000020F7E7C0FFFF7F000040A310B5846A55
:100AD000A16D11F0500F06D0A16DC90625D5204695
:100AE00005F0D8FB10BDA06D40F40070A065206833
:100AF0000168090716D508F02FF978B12068C06899
:100B0000800400280ADBA06D20F48070A065A06D31
:100B1000C00403D4A06D40F00100A065204605F09C
:100B200075FB10BDC0688007EBE7216D496BBDE820
:100B30001040084710B5806A816D41F04001816521
:100B4000C16D41F00401C16505F0A4FB10BD10B5F5
:100B5000806A05F07DFB10BD70B5044600688168B1
:100B60008268C1F3400112F0010F24D019BB8168E3
:100B700001F00D01012910D18168104A1140891C32
:100B8000816021680320086006F08CF905460EE0BC
:100B900006F088F9401B022809D9A06D40F010002A
:100BA000A065E06D40F00100E065012070BD2068A7
:100BB0008068C007ECD1002070BD0000C0FFFF7F3F
:100BC00070B504460068816811F0010F28D1816872
:100BD000144A114215D18168D5432940491C8160CE
:100BE00006F060F9064616E0816811F0010F03D1A6
:100BF00081682940491C816006F054F9801B022855
:100C000009D9A06D40F01000A065E06D40F0010032
:100C1000E065012070BD20680168C943C907E3D1C0
:100C2000002070BD3F0000802DED048B82B00020BD
:100C3000ADF800009FED168B9FED179B184C4FF4FD
:100C40007A75184804F0C0FF6421164804F044FF88
:100C50000121144804F028FFADF80000114805F008
:100C600029F8BDF80000FFF714FD53EC182BFFF72F
:100C700021FC53EC192BFFF71DFCFFF736FD00EEAE
:100C8000100A284684ED080A0CF068FFD9E7000036
:100C9000B4D934E70C684A3F00000000000024404B
:100CA00058010020580600202DED0A8B90B09FEDD2
:100CB000B10AB24C8DED0B0A8DED000A8DED060ADE
:100CC0008DED070A8DED010ADFF8AC928DED040A77
:100CD0004FF0000AA4F180054FF0010B04F18008E9
:100CE0004FF0FF31D8F860000EF0B4FD95F82C00FD
:100CF000012802D0022828D04EE0A14A0020014657
:100D00004FF4007C02F540634FEA090632F8107098
:100D100000EE107A06EB8107B8EE400A87ED000A74
:100D200002EB4007801C7F8880B200EE107A03EB54
:100D30008107491CB8EE400A89B2604587ED000A78
:100D4000E4D3A089401CA08126E08D4A4FF40070B6
:100D5000002102F540634FF4806C4E4632F810706B
:100D600000EE107A06EB8107B8EE400A87ED000A24
:100D700002EB4007801C7F8880B200EE107A03EB04
:100D80008107491CB8EE400A89B2604587ED000A28
:100D9000E4D3E089401CE0814FF4807605AA314617
:100DA00075480CF0DBFB744A3346114601F62C10F3
:100DB0000CF082FA0020734B01464A4602EB800792
:100DC000001D97ED000A03EB8107491C80B287EDF7
:100DD000000A89B2FF28F1D96A4A4023114601F579
:100DE00080700CF069FA674A4023114601F5AC7037
:100DF0000CF062FA0BAA402162480CF0AFFB6A4685
:100E0000314661480CF0AAFB0AAB01AA40215D48BB
:100E10000CF0E2FA0AAB06AA31465B480CF0DCFAA9
:100E20000AAB04AA402157480CF04EFB0AAB07AAB4
:100E3000314655480CF048FB544E00231A460BA986
:100E4000306E0EF06DFB00231A466946F06E0EF010
:100E500067FB606C0746FFF735FC41EC180B206C14
:100E60000646FFF72FFC41EC190B0198FFF72AFC0F
:100E70009FED47BB53EC1B2BFFF71CFB9FED46CBB5
:100E800053EC1C2BFFF788FB53EC192BFFF712FBDD
:100E900053EC182BFFF767FAFFF727FC08EE100A50
:100EA0003846FFF70FFC41EC190B3046FFF70AFC00
:100EB00041EC1A0B0498FFF705FC53EC1B2BFFF7D2
:100EC000F9FA53EC1C2BFFF767FB53EC1A2BFFF7D7
:100ED000F1FA53EC192BFFF746FAFFF706FCD4EDB5
:100EE0000F1A9FED2F1A00EE100A284EC1EE810A4C
:100EF000803600231A4606A988EE201A84ED121ABD
:100F000080EE201A84ED131AB0680EF009FB00235E
:100F10001A4607A9F0680EF003FB2249059888429B
:100F200002DD85F802B001E085F802A094ED1E0A0A
:100F3000DDED000A94ED1D1A1B4900EE810A10EE4A
:100F4000100A884202DB85F804A001E085F804B0AD
:100F50000D480DF01FFE00231A4619464646D8F8E4
:100F600064000EF0DDFA00231A461946F06E0EF00A
:100F7000D7FAB5E600000000200F0020D8000020BE
:100F8000200700202017002020130020D801002077
:100F9000B4D934E70C684A3F393939393939E93F2E
:100FA00000007A4400007A45CDCC6C40FEE700009A
:100FB0004C4FDFF8348101264C4C002594F82B006F
:100FC00058BB4FF400614FF0904005F05DFF0028E2
:100FD000E07C0DD0052807D9E67525766576A576DF
:100FE000A4F86A50E574A57794F82B0018B114E0C2
:100FF000401CE074F8E74FF48071384605F044FF78
:101000000028207D0DD0052807D9E5752676657660
:10101000A576A4F86A502575A57794F82A0018B12A
:101020002CE0401C2075F8E70821384605F02CFF1D
:101030000028607D0DD0052807D9E57525766676F0
:10104000A576A4F86A506575A57794F82A0018B1BA
:1010500014E0401C6075F8E74FF40071384605F065
:1010600013FF0028A07D17D0052807D9E575257640
:101070006576A676A4F86A50A575A57780214046C6
:1010800005F002FF0028B4F86A0008D0C01E6128ED
:1010900018D2207F98B115E0401CA075EEE7401CE7
:1010A00080B2A4F86A00642818D394F82900A8B97B
:1010B000E57525766576A576E57626770CE094F8D5
:1010C000290020B194F82900012805D006E0E57533
:1010D00025766576A576E676A4F86A500A200CF0A7
:1010E0003DFD6BE700040048000800485800002060
:1010F0002DED088B84B000209FED6D0A00908DEDE2
:10110000000AADF804006B4E9FED6B9B9FED6CAB3E
:101110006D4DA5F18004DFED6D8A5E2165480CF010
:101120007EFAB6F8C200B0EE408AADF80400B6F818
:10113000B20038B93E215F480CF071FA85ED050A1E
:1011400084ED180AB6F9B200012806D0022814D09E
:10115000032817D0042852D037E018EE100AFFF702
:10116000B1FA41EC100B51EC190B53EC102BFFF7BB
:1011700013FA41EC1B0B606B1AE094ED060A84ED48
:10118000180A22E018EE100AFFF79CFA41EC100B47
:1011900051EC190B53EC102BFFF7FEF941EC1B0B34
:1011A000BDF804004A4900EB800001EBC000406933
:1011B000FFF788FA53EC1B2BFFF77CF953EC1A2B43
:1011C000FFF7D1F8FFF791FA206694ED180A95ED34
:1011D000061A002260EE280A95ED070A11463D48DE
:1011E00000EE810ABCEEC00A8DED000A10EE103A46
:1011F00005F0F6FA5FF064000CF0B0FC8DE718EE35
:10120000100AFFF75FFA41EC100B51EC190B53EC8D
:10121000102BFFF7C1F99FED301B53EC112BFFF79B
:10122000A2F8FFF762FA00EE100A002284ED180A15
:1012300060EE280A95ED061A95ED070A1146254835
:1012400000EE810ABCEEC00A8DED000A10EE103AE5
:1012500005F0C6FA01200CF081FC18EE100AFFF729
:1012600031FA41EC100B51EC190B53EC102BFFF73A
:1012700093F953EC1A2BFFF776F8FFF736FA00EEE6
:10128000100A002284ED180A60EE280A95ED061A6D
:1012900095ED070A11460F4800EE810ABCEEC00A20
:1012A0008DED000A10EE103A05F09AFA1320A3E72C
:1012B00000000000FC18002000000000000030408A
:1012C00000000000000010405801002000004C43C6
:1012D000A832002008070020000000000000244081
:1012E000014805F0FABA0000C0060020014805F0E8
:1012F000F4BA0000A4430020014805F0EEBA000053
:101300005C430020014805F0E8BA00008442002058
:10131000014805F0E2BA00003C420020014805F017
:10132000DCBA0000CC420020014805F0D6BA00002B
:1013300014430020014805F0D0BA0000F441002019
:10134000014805F0CABA0000AC41002030B590F861
:10135000444004F01C050124AC40056C6C6004683A
:1013600063608368102B036803D099600068C260D3
:1013700030BD9A600068C16030BD00002DED028B69
:1013800082B04FF0000B8DF804B09FEDFE8ADFF8BD
:10139000FCA3DFEDFD8AFE4F8DED018A0AF1800985
:1013A000684654469AED090A0CF031F9BDF8000080
:1013B000F64D27F85C0BBDF80200803D27F85A0C6B
:1013C000A87827F8480C684694ED0C0A0CF01FF931
:1013D000BDF8000027F8300CBDF8020027F82E0CED
:1013E000684694ED0D0A0CF012F9BDF8000027F8DC
:1013F0002C0CBDF8020027F82A0C684694ED0E0A62
:101400000CF005F9BDF8000027F8280CBDF8020023
:1014100027F8260C05F520708046006A98F82410FD
:1014200027F8200C000C40EA014027F81E0CB5F804
:10143000480027F81C0C684694ED060A0CF0E7F803
:10144000BDF8000027F8140CBDF8020027F8120CB4
:101450002879388068464E4699ED010A0CF0D7F895
:10146000BDF800007882BDF80200B882684694EDAD
:10147000080A0CF0CCF8BDF800003883BDF8020073
:10148000788394ED080AD4ED070A684630EE600AC6
:101490000CF0BDF8BDF80000B883BDF80200F88379
:1014A000B5F844003886B5F8460078866879F8863D
:1014B000684696ED040A0CF0AAF8BDF800003887DB
:1014C000BDF802007887684696ED030A0CF09FF895
:1014D000BDF80000B887BDF80200F887D8E90623F8
:1014E000D8E904015C3F161A73EB010608D2801A92
:1014F00061EB0301FFF7BFF800EE100A684602E057
:101500006846B0EE480A0CF082F8BDF8000027F8F3
:101510009C0FBDF802007880B5F85800B880B5F887
:101520005A00F880287A3881E8797881B5F8740013
:1015300027F8120FA84668464E4699ED080A0CF0A7
:1015400066F8BDF80000F882BDF8020091493883C2
:10155000684691ED000A0CF05AF8BDF80000388496
:10156000BDF8020078846846B0EE680A0CF04FF8C7
:10157000BDF80000B884BDF80200F884B5F840005A
:10158000A7F842006846A24694ED120A1E370CF0F6
:101590003EF8BDF800003885BDF802007885684641
:1015A00094ED140A0CF033F8BDF80000B885BDF8CE
:1015B0000200F885684694ED160A0CF028F8BDF88C
:1015C00000003886BDF80200788694ED120AD4ED4A
:1015D000130A684630EE600A0CF019F8BDF80000F6
:1015E000B886BDF80200F88694ED140AD4ED150A09
:1015F000684630EE600A0CF00AF8BDF80000388743
:10160000BDF80200788794ED160AD4ED170A6846F3
:1016100030EE600A0BF0FBFFBDF80000B887BDF8A4
:101620000200F887684696ED0F0A0BF0F0FFBDF850
:101630000000A7F84400BDF80200A7F84600E87FC4
:10164000CC3F002875D1002606EB860207EBC204CA
:10165000514894F8201100EBC20500F8321094F8BC
:1016600022116970B4F82401A88094F82601A870AA
:1016700094F82801A871B4F82A01288104F596701D
:1016800000210BF0CCFF85ED030A04F598700021D2
:101690000BF0C5FF85ED040AA87920B1012810D010
:1016A00004280ED020E095ED050A3C49BDEEC00AA5
:1016B00010EE100AA4F8340110EE100A21F82600EA
:1016C00017E095ED050A68460BF0A1FFBDF8000094
:1016D000A4F834013149BDF80220A4F8362121F8DC
:1016E000260001EB86004280A8790228DBD003287F
:1016F000D9D004F59C7000210BF091FF85ED080A0C
:1017000004F59E7000210BF08AFF85ED090A04F5AF
:10171000A07000210BF083FF85ED060A04F5A2708E
:1017200000210BF07CFF761CB6B285ED070A282E4F
:101730008AD3B7F9D600A0F58071E13911D1A7F8A5
:10174000D6B00DF07FFB12480DF0AAFD8DF8040015
:101750000CF0E4FC0DF096FB00200CF01BF903F0FC
:10176000CDFEB7F9D60045F23341C8427DD1A7F886
:10177000D6B0684654469AED0F0A0BF048FFBDF804
:1017800000000DE0000000003D0AAF40D80000203E
:10179000FC18002024000020A83200205C2000203B
:1017A0007883BDF80200B883684694ED100A0BF008
:1017B0002EFFBDF80000F883BDF8020038846846AB
:1017C00094ED110A0BF023FFBDF800007884BDF8FA
:1017D0000200B88498F80310684600EE101AB8EEBC
:1017E000400A0BF014FFBDF80000F884BDF80200B9
:1017F0003885684694ED1D0A0BF009FFBDF800001E
:10180000A7F86600BDF80200A7F86800684694EDE6
:101810001E0A0BF0FCFEBDF80000A7F86A00BDF838
:101820000200A7F86C00B7F88000608068464C465C
:1018300099ED060A0BF0EBFEBDF80000A7F8B40026
:10184000BDF80200A7F8B600684694ED070A0BF051
:10185000DEFEBDF80000A7F8B800BDF80200A7F84A
:10186000BA000DF0EFFA474800E00CE00DF018FD6B
:101870008DF804000CF052FC0DF004FB00200CF07D
:1018800089F803F03BFEB7F9D80042F24631C8426E
:101890000AD098F81F1019B9B8F87E00012803D0B3
:1018A0000A200CF05BF97BE559463C46A7F8D8B016
:1018B00000204FF46C721BE00D281BD00E2819D0AD
:1018C0000F2817D0102815D0112813D0122811D0A6
:1018D00033280FD034280DD035280BD0362809D026
:1018E0005A2807D05B2805D05C2803D05D2801D09A
:1018F00024F81010401C80B29042DDD30A2024F856
:10190000C80F44F6206060826846B3EE060A0BF00A
:101910007EFEBDF80000A082BDF80200E0826846AD
:10192000B3EE0A0A0BF073FEBDF800002083BDF889
:101930000200608368469FED140A0BF068FEBDF854
:10194000001024F8461CBDF8020024F8440C24F8CA
:10195000401C24F83E0C6180A0806420E08409488B
:101960000DF09EFC8DF80400BFF34F8F074801680F
:10197000074A01F4E06111430160BFF34F8F00BFDC
:10198000FDE70000FC1800200000E1470CED00E03E
:101990000400FA05704700002DED0C8B8CB09FED14
:1019A0004A0A4A4F8DED050A8DED000A8DED010AB8
:1019B0004FF0FF3907F18008A7F180049FED449BA9
:1019C0009FED45AB9FED46DA4946B86E0DF042FFFC
:1019D00044494022084607F033F9424A4023114661
:1019E00001F5D8700BF068FC05AA40213D480BF0CA
:1019F000B5FD08AB6A4640213A480BF0EDFC08AB58
:101A000001AA402137480BF05FFD00231A4605A9C3
:101A1000D8F868000DF084FD606C0646FEF752FEB3
:101A200041EC1B0B206C0546FEF74CFE41EC180BFD
:101A30000098FEF747FE53EC192BFEF73BFD53ECE5
:101A40001A2BFEF7A9FD53EC182BFEF733FD53ECD0
:101A50001B2BFEF788FCFEF748FE08EE100A304606
:101A6000FEF730FE41EC1C0B2846FEF72BFE41EC46
:101A70001B0B0198FEF726FE53EC192BFEF71AFDFF
:101A800053EC1A2BFEF788FD53EC1B2BFEF712FDCF
:101A900053EC1C2BFEF767FCFEF727FE94ED0F1AA4
:101AA00000EE100A0023C1EE0D0A1A46194688EE10
:101AB000201A84ED161A80EE201A84ED171A786F1A
:101AC0000DF02EFD80E7000000000000580100200E
:101AD000B4D934E70C684A3F393939393939E93FE3
:101AE00000007A44201700208CB00122D1034FF06F
:101AF000904005F0D2F90CF0EBFD01200CF0D8FD80
:101B00000BF066FD0CF056FEDFF80C84B8F9DA0035
:101B100000EBD07040100CF021F801200BF03AFFE0
:101B2000DFF8F893DFF8F8B3FE4FFF4D4FF0000AEF
:101B3000A87C012803D0687F012806D011E000208E
:101B40000CF0B6FD0BF084FF56E095F82E0001284E
:101B500018D0022816D0032814D0042812D0052843
:101B60003DD0B5F86E0001284AD002284FD0032896
:101B700054D0042857D005285CD0062861D0072807
:101B80005FD05AE000200CF093FD002108460CF0D5
:101B90000BFE5C460123D4E90012E4A00CF0A8FE81
:101BA000D7E900120123E3A00CF0A2FE0F210020D0
:101BB0000CF0FAFDD4E900120123DFA00CF098FE2E
:101BC0001E2100200CF0F0FDD4E900120123DCA05E
:101BD0000CF08EFED7E900120123DAA00AE0002003
:101BE0000CF066FD0F2100200CF0DEFDDBE9001299
:101BF0000123D5A00CF07CFE0CF0DCFD03F082BBD1
:101C000095F8251009B1062115E0092113E095F892
:101C1000251009B108210EE001210CE095F82510EE
:101C200031B9282107E095F8251009B1042102E017
:101C3000022100E0052185F82210E97D012902D06A
:101C40000FE00321F7E7B5F8721051B1EA7F42B90E
:101C5000491EA5F8721085F817A085F81BA085F815
:101C600020A0297E012910D1B5F8721095F8222004
:101C700091420AD2EA7F42B9491CA5F8721085F850
:101C800018A085F81BA085F820A0697E012927D11E
:101C900030B3E97E21BBE97F11BB03280CD1B5F835
:101CA000720048B1B5F8700010B1401EA5F8700080
:101CB000504685F819A011E0B5F86C0010B1401E2F
:101CC000A5F86C00A248B5F86C1030F81100A5F822
:101CD0006E0085F819A05046A5F872A085F820007E
:101CE000A87E012801D1E87E18B1E87E01282FD016
:101CF0003AE0E87F58BBB5F86E0003280FD1B5F87D
:101D0000720060B1B5F87000282804D20C2802D205
:101D1000401CA5F87000504685F81AA015E0B5F8EB
:101D20007C10B5F86C00491E884202DA401CA5F808
:101D30006C008748B5F86C1030F81100A5F86E00FB
:101D400085F81AA05046A5F872A085F820000BE08F
:101D5000B5F8720040B1E87F20B10020E87785F83F
:101D60001BA012E00120F9E7287F01280DD1B5F86A
:101D7000720050B995F8250058B1002085F825006B
:101D800085F81CA0012085F82900E87D012802D0F3
:101D90000CE00120F2E7E87F012807D195F8200048
:101DA00010B1401E85F8200085F817A0287E012874
:101DB00009D1E87F012806D195F82000012085F897
:101DC000200085F818A0287F01280DD1B5F87200F1
:101DD00050B10CF06BFB85F81CA085F81BA085F8B2
:101DE00025A0012085F82900B5F8760001287DD1CD
:101DF000B5F86E000128FAD1B5F87200002876D146
:101E00000CF056FC002108460CF0CEFCD7E900127D
:101E1000012350A00CF06CFDA878012805D095F89E
:101E2000250088B3012842D065E095F8210050B123
:101E3000D7E90012012348A00CF05AFD95F82500BF
:101E4000012814D017E00F2100200CF0ADFC5C46F7
:101E50000123D4E9001241A00CF04AFD1E2100200C
:101E60000CF0A2FCD4E9001201233EA0E4E700211B
:101E700037200CF01EFE00213C200CF01AFE2B2116
:101E80003A200CF0A5FDA2E1FFE700200CF010FCC9
:101E9000002108460CF088FCD7E9001201232DA090
:101EA0000CF026FD00211C200CF07EFC14E000202C
:101EB0000CF0FEFB002108460CF076FCD7E900127E
:101EC000012324A00CF014FD00211C200CF06CFC5C
:101ED000002137200CF0EDFD00213C200CF0E9FD45
:101EE0002B213A200CF074FD0F2101E0F5E176E1A1
:101EF00000200CF059FC0C4C80342088012851D172
:101F000012221AA102A8FEF722FA122102A80CF04E
:101F100005FD2021002033E0FC180020A83200201D
:101F2000000000200800002058000020CEE1EDEE67
:101F3000E20000002D000000EBE5EDE8E500000008
:101F4000CFCE00002E2E2E00D3D1CFC5D8CDCE00BF
:101F5000F83A00204943500020000000CEC1D0DBF9
:101F6000C2000000C4C0D2D7C8CAC000D1CAC720AE
:101F7000E2E8E1F0EEF3F1EAEEF0E5EDE8FF000073
:101F80000CF012FC206BFEF79DFBCDE90001FDA2D9
:101F90004021FE480AF064FCD7E900120123FB4807
:101FA0000CF0A6FC208802281CD11122F8A102A85E
:101FB000FEF7CDF9112102A80CF0B0FC2021002081
:101FC0000CF0F2FB606BFEF77DFBCDE90001EDA2AA
:101FD0004021EE480AF044FCD7E900120123EB4807
:101FE0000CF086FC208803281CD11422EDA102A845
:101FF000FEF7ADF9142102A80CF090FC202100207E
:102000000CF0D2FBA06BFEF75DFBCDE90001DDA279
:102010004021DE480AF024FCD7E900120123DB4806
:102020000CF066FC208804281CD11422E3A102A82D
:10203000FEF78DF9142102A80CF070FC202100207D
:102040000CF0B2FBA06CFEF73DFBCDE90001CDA288
:102050004021CE480AF004FCD7E900120123CB4806
:102060000CF046FC208805281CD11722DAA102A812
:10207000FEF76DF9172102A80CF050FC202100207A
:102080000CF092FB206DFEF71DFBCDE90001BDA217
:102090004021BE480AF0E4FBD7E900120123BB4807
:1020A0000CF026FC208806281CD11422D0A102A8FE
:1020B000FEF74DF9142102A80CF030FC202100207D
:1020C0000CF072FBA06DFEF7FDFACDE90001ADA2A8
:1020D0004021AE480AF0C4FBD7E900120123AB4807
:1020E0000CF006FC2088072823D11422C7A102A8DF
:1020F000FEF72DF9142102A80CF010FC202100207D
:102100000CF052FB94ED120AD4ED130A30EE600A83
:1021100010EE100AFEF7D6FACDE9000199A240218F
:102120009A480AF09DFBD7E90012012397480CF06A
:10213000DFFB2088082823D11422BAA102A8FEF7C9
:1021400006F9142102A80CF0E9FB1E2100200CF076
:102150002BFB94ED140AD4ED150A30EE600A10EE54
:10216000100AFEF7AFFACDE9000186A240218748A8
:102170000AF076FBD7E90012012384480CF0B8FB83
:102180002088092823D11422ACA102A8FEF7DFF889
:10219000142102A80CF0C2FB202100200CF004FB4B
:1021A00094ED160AD4ED170A30EE600A10EE100A0C
:1021B000FEF788FACDE9000172A2402173480AF0C7
:1021C0004FFBD7E90012012370480CF091FB85F812
:1021D0001FA085F82AA0B5F86E0001287DD1B5F8BA
:1021E0007200012848D195F82500002876D10CF01E
:1021F0005FFA002108460CF0D7FA0123AFF2AC20B9
:10220000D7E900120CF074FB00211C200CF0CCFA72
:10221000002137200CF015FC00213C200CF049FC7B
:102220000F2100200CF0C0FA1222AFF2C02102A848
:10223000FEF78DF8122102A80CF070FB202100207F
:102240000CF0B2FA8348006BFEF73CFACDE90001CE
:1022500081A240214D480AF003FBD7E90012012377
:102260004A480CF045FB85F81FA0012085F82A009C
:10227000B5F86E000128B1D1B5F8720002284AD134
:1022800095F82500002879D10CF012FA00210846B3
:102290000CF08AFA0123AFF24430D7E900120CF0B7
:1022A00027FB00211C200CF07FFA002137200CF0C6
:1022B000C8FB00213C200CF0FCFB0F2100200CF09F
:1022C00073FA112232A102A8FEF741F8112102A8E7
:1022D0000CF024FB2021002001E05AE1B3E20CF0D5
:1022E00063FA5C48406BFEF7EDF9CDE900015AA2B4
:1022F000402126480AF0B4FAD7E900120123234806
:102300000CF0F6FA85F81FA0012085F82A00B5F830
:102310006E000128AFD1B5F8720003282FD195F8CF
:10232000250000282CD10CF0C3F9002108460CF040
:102330003BFA0123AFF2E430D7E900120CF0D8FAEF
:1023400000211C200CF030FA002137200CF079FB22
:1023500000213C200CF0ADFB0F2100200CF024FAF2
:10236000142210A102A8FDF7F2FF142102A80CF01C
:10237000D5FA202100200CF017FA71E0BAE28AE0C9
:1023800010E30000252E303166000000063B0020DF
:10239000D1CAC720E2E8E1F0EEF1EAEEF0EEF1F2A8
:1023A000E8000000D1CAC720E2E8E1F0EEEFE5F076
:1023B000E5ECE5F9E5EDE8FF00000000C0ECEFEB2F
:1023C000E8F2F3E4E020E2E8E1F0EEF3F1EAEEF027
:1023D000E5EDE8FF00000000C0ECEFEBE8F2F3E40D
:1023E000E020E2E8E1F0EEF1EAEEF0EEF1F2E800F2
:1023F000C0ECEFEBE8F2F3E4E020E2E8E1F0EEEF2E
:10240000E5F0E5ECE5F9E5EDE8FF0000D0E0E7EC0C
:10241000E0F520E2E8E1F0EEF3F1EAEEF0E5EDE8D8
:10242000FF000000D0E0E7ECE0F520E2E8E1F0EEAC
:10243000F1EAEEF0EEF1F2E800000000D0E0E7ECA7
:10244000E0F520E2E8E1F0EEEFE5F0E5ECE5F9E5B6
:10245000EDE8FF00D8000020252E30336600000094
:10246000FE48806BFEF72EF9AFF21402CDE90001B1
:102470004021FB480AF0F4F9D7E900120123F8489B
:102480000CF036FA85F81FA0012085F82A00B5F86F
:102490006E0001287DD1B5F87200042845D195F869
:1024A0002500002876D10CF003F9002108460CF035
:1024B0007BF90123AFF26450D7E900120CF018FA4F
:1024C000002137200CF0BDFA00213C200CF0F1FA7D
:1024D0000F2100200CF068F91822AFF2201102A899
:1024E000FDF735FF182102A80CF018FA2021002072
:1024F0000CF05AF9D948806CFEF7E4F8AFF2A80264
:10250000CDE900014021D6480AF0AAF9D7E9001226
:102510000123D3480CF0ECF985F81FA0012085F8C1
:102520002A00B5F86E000128B4D1B5F8720005286C
:1025300048D195F8250000287ED10CF0B9F800218B
:1025400008460CF031F90123AFF2F850D7E9001238
:102550000CF0CEF9002137200CF073FA00213C205A
:102560000CF0A7FA0F2100200CF01EF91722AFF291
:10257000981102A8FDF7EBFE172102A80CF0CEF986
:10258000202100200CF010F9B448006DFEF79AF8F5
:1025900001E053E25EE2AFF24012CDE900014021DA
:1025A000AF480AF05DF9D7E900120123AC480CF0FE
:1025B0009FF985F81FA0012085F82A00B5F86E0064
:1025C0000128B1D1B5F87200062847D195F8250049
:1025D00000287CD10CF06CF8002108460CF0E4F8DF
:1025E0000123AFF29060D7E900120CF081F90021CD
:1025F00037200CF026FA00213C200CF05AFA0F216B
:1026000000200CF0D1F81A22AFF21C2102A8FDF72D
:102610009EFE1A2102A80CF081F9202100200CF066
:10262000C3F88E48806DFEF74DF8AFF2D412CDE9B5
:10263000000140218A4800E052E20AF011F9D7E98E
:102640000012012386480CF053F985F81FA00120E1
:1026500085F82A00B5F86E000128B2D1B5F87200ED
:1026600007284ED195F825000028AAD10CF020F8B3
:10267000002108460CF098F80123AFF22870D7E942
:1026800000120CF035F9002137200CF0DAF90021A6
:102690003C200CF00EFA0F2100200CF085F81522DA
:1026A000AFF2982102A8FDF752FE152102A80CF006
:1026B00035F9202100200CF077F8684890ED120AD7
:1026C000D0ED130A30EE600A10EE100A00E056E278
:1026D000FDF7F8FFAFF28022CDE90001402160480C
:1026E0000AF0BEF8D7E9001201235D480CF000F9AA
:1026F00085F81FA0012085F82A00B5F86E00012892
:10270000ABD1B5F8720008284CD195F82500002807
:10271000A3D10BF0CDFF002108460CF045F80123B2
:10272000AFF2D070D7E900120CF0E2F800213720A8
:102730000CF087F900213C200CF0BBF90F210020A0
:102740000CF032F81422AFF2243102A8FDF7FFFD9D
:10275000142102A80CF0E2F8202100200CF024F84B
:102760003E4890ED140AD0ED150A30EE600A10EEE6
:10277000100AFDF7A7FFAFF22032CDE9000140219A
:1027800037480AF06DF8D7E90012012334480CF0FD
:10279000AFF885F81FA0012085F82A00B5F86E0073
:1027A0000128ADD1B5F87200092848D195F8250067
:1027B0000028A5D10BF07CFF002108460BF0F4FFA8
:1027C0000123AFF67000D7E900120CF091F8002158
:1027D00037200CF036F90F2100200BF0E5FF17220F
:1027E000AFF2A83102A8FDF7B2FD172102A80CF044
:1027F00095F8202100200BF0D7FF184890ED160A1D
:10280000D0ED170A30EE600A10EE100AFDF75AFFFD
:10281000AFF2BC32CDE90001402111480AF020F8A6
:10282000D7E9001201230E480CF062F885F81FA0CA
:10283000012085F82A00B5F86E000128B1D1B5F85D
:102840007200012852D195F825000128A9D1002055
:102850000BF02EFF0021084604E00000D800002005
:10286000063B00200BF0A0FF0123AFF61810D7E9BC
:1028700000120CF03DF8002132200CF0E2F80021AB
:1028800037200CF016F900213C200CF012F90F2132
:1028900000200BF089FF1822F8A102A8FDF757FDD0
:1028A000182102A80CF03AF8202100200BF07CFF40
:1028B000E87F0128F84814D0B0F90030F7A2402191
:1028C000F74809F0CDFFD7E900120123F4480CF0D6
:1028D0000FF8012085F82A00B5F86E00012805D010
:1028E0008AE10AF0F7FF85F82AA0F5E7B5F872004B
:1028F000022853D195F825000128F1D100200BF0D2
:10290000D7FE002108460BF04FFF0123AFF6BC10A5
:10291000D7E900120BF0ECFF002132200CF091F807
:10292000002137200CF0C5F800213C200CF0C1F844
:102930000F2100200BF038FF1922DAA102A8FDF7C1
:1029400006FD192102A80BF0E9FF202100200BF061
:102950002BFFE87F01281AD0CF48806AFDF7B2FE2E
:10296000AFF2E052CDE900014021CD4809F078FFF7
:10297000D7E900120123CA480BF0BAFF012085F8FD
:102980002A0000BFB5F86E00012807D034E1C24824
:1029900028300AF06FFE85F82AA0F3E7B5F8720038
:1029A000032853D195F82500012899D100200BF078
:1029B0007FFE002108460BF0F7FE0123AFF66C20E6
:1029C000D7E900120BF094FF002132200CF039F807
:1029D000002137200CF06DF800213C200CF069F844
:1029E0000F2100200BF0E0FE1122B5A102A8FDF797
:1029F000AEFC112102A80BF091FF202100200BF06A
:102A0000D3FEE87F01281AD0A348C06AFDF75AFE1A
:102A1000AFF29062CDE900014021A14809F020FF0A
:102A2000D7E9001201239E480BF062FF012085F8D0
:102A30002A0000BFB5F86E00012807D0DCE09648F8
:102A40002C300AF017FE85F82AA0F3E7B5F87200DB
:102A5000042841D195F8250001287DD100200BF0F4
:102A600027FE002108460BF09FFE0123AFF61C3025
:102A7000D7E900120BF03CFF002132200BF0E1FF00
:102A8000002137200CF015F800213C200CF011F843
:102A90000F2100200BF088FE0D228EA102A8FDF769
:102AA00056FC0D2102A80BF039FF202100200BF06D
:102AB0007BFEEB7879A24021794809F0D1FED7E975
:102AC0000012012376480BF013FF012085F82A003D
:102AD000B5F86E0001283FD1B5F8720005284AD13B
:102AE00095F82500012837D100200BF0E1FD0021E9
:102AF00008460BF059FE0123AFF6A830D7E90012C3
:102B00000BF0F6FE002132200BF09BFF0021372056
:102B10000BF0CFFF00213C200BF0CBFF0F2100205A
:102B20000BF042FE14226FA102A8FDF710FC142145
:102B300002A80BF0F3FE202100200BF035FE5648D2
:102B4000006CFDF7BFFDCDE900016CA240215448A7
:102B500009F086FE012300E04EE0D7E9001250485C
:102B60000BF0C6FE85F81FA0012085F82A00B5F8F5
:102B70006E00012840D1B5F8720006283CD195F8C6
:102B80002500012838D100200BF092FD00210846D5
:102B90000BF00AFE0123AFF64440D7E900120BF018
:102BA000A7FE002132200BF04CFF0F2100200BF07C
:102BB000FBFD142253A102A8FDF7C9FB142102A8B2
:102BC0000BF0ACFE202100200BF0EEFD3248406CF3
:102BD000FDF778FDCDE9000148A24021304809F019
:102BE0003FFED7E9001201232D480BF081FE85F846
:102BF0001FA0012085F82A00B5F8780001283CD1F3
:102C0000B5F86E000228FAD1B5F8720098BB002022
:102C10000BF04EFD002108460BF0C6FDD7E900126F
:102C200001233EA00BF064FE2879012803D1B5F8FA
:102C3000780001280FD095F8250018B10021372021
:102C40000BF037FF00213C200BF033FFB5F8760086
:102C5000012867D097E095F8210068B10123AFF60D
:102C60000850D7E9001200BF0BF042FE95F825008E
:102C700001286FD072E0B3E055E02EE1CFE0F0E044
:102C8000ECE5F2F020EDE020E3EBE0E2EDEEEC200D
:102C9000ECE5EDFE00000000D800002025640000F7
:102CA000063B0020CFF0E5E4F3EFF0E5E4E8F2E5E1
:102CB000EBFCEDE0FF20F3F1F2E0E2EAE0000000DF
:102CC000C0E2E0F0E8E9EDE0FF20F3F1F2E0E2EA53
:102CD000E0000000D0E5E6E8EC20F4E8EBFCF2F0E0
:102CE000E0000000CAEEFDF4F4E8F6E8E5EDF220BD
:102CF000F3F1E8EBE5EDE8FF00000000252E3035AC
:102D000066000000CAEEFDF4F4E8F6E8E5EDF22016
:102D1000F1ECE5F9E5EDE8FF00000000342D32307C
:102D2000000000002BE00F2100200BF03DFD0123EF
:102D30005C46AFF6D850D4E900120BF0D9FD1E2145
:102D400000200BF031FD0123AFF6E850D4E900126A
:102D50008AE7FFE7002137200BF0ABFE00213C2083
:102D60000BF0A7FEB5F87600012803D126213A2002
:102D70000BF0D8FE2B213A200BF02AFE2AE0262168
:102D80003A200BF0CFFE2B213A200BF021FE0F2131
:102D900000200BF009FD1222F9A102A8FDF7D7FAD5
:102DA000122102A80BF0BAFD202100200BF0FCFC40
:102DB000F8484068FDF786FCAFF66412CDE90001E3
:102DC0004021F54809F04CFDD7E900120123F248F3
:102DD0000BF08EFD85F82AA0B5F86E0002287CD194
:102DE000B5F87200012879D195F82500F0BB0020D4
:102DF0000BF05EFC002108460BF0D6FC0123AFF27D
:102E0000E400D7E900120BF073FD002137200BF02E
:102E100018FE0F2100200BF0C7FCDBE90012012394
:102E2000DEA00BF065FD202100200BF0BDFCD94891
:102E300080388069FDF746FCCDE90001D8A2402129
:102E4000D54809F00DFDD7E900120123D2480BF057
:102E50004FFD85F81FA0012085F82A00B5F86E0007
:102E60000228BCD1B5F87200012800E000E055D17D
:102E700095F825000128B2D100200BF019FC0021A3
:102E800008460BF091FC0123AFF27010D7E9001255
:102E90000BF02EFD002132200BF0D3FD0021372056
:102EA0000BF007FE00213C200BF003FE0F21002059
:102EB0000BF07AFC2522BCA102A8FDF748FA2521D7
:102EC00002A80BF02BFD202100200BF06DFCE87F09
:102ED0000128B0481DD0006801E02FE21EE0FDF798
:102EE000F1FBAFF66032CDE900014021AA4809F0BC
:102EF000B7FCD7E900120123A7480BF0F9FC012029
:102F000085F82A000BF056FCB5F86E00022805D0B3
:102F1000B0E20AF0AFFB85F82AA0F3E7B5F872003B
:102F2000022855D195F825000128F1D100200BF099
:102F3000BFFB002108460BF037FC0123AFF2242031
:102F4000D7E900120BF0D4FC002132200BF079FD00
:102F5000002137200BF0ADFD00213C200BF0A9FD36
:102F60000F2100200BF020FC262299A102A8FDF7DA
:102F7000EEF9262102A80BF0D1FC202100200BF055
:102F800013FCE87F01281CD082488038C06FFDF711
:102F900099FBAFF61042CDE9000140217E4809F0CF
:102FA0005FFCD7E9001201237B480BF0A1FC012054
:102FB00085F82A000BF0FEFBB5F86E00022807D05A
:102FC00058E27448001F0AF055FB85F82AA0F1E783
:102FD000B5F87200032853D195F82500012897D140
:102FE00000200BF065FB002108460BF0DDFB012300
:102FF000AFF2D820D7E900120BF07AFC0021322082
:103000000BF01FFD002137200BF053FD00213C2069
:103010000BF04FFD0F2100200BF0C6FB202276A104
:1030200002A8FDF794F9202102A80BF077FC2021DB
:1030300000200BF0B9FBE87F01281AD055488038F2
:10304000406EFDF73FFBAFF6C442CDE900014021E1
:10305000514809F005FCD7E9001201234E480BF056
:1030600047FC012085F82A00B5F86E00022807D039
:1030700000E248481C380AF0FDFA85F82AA0F3E778
:10308000B5F87200042853D195F82500012897D18E
:1030900000200BF00DFB002108460BF085FB0123FF
:1030A000AFF28830D7E900120BF022FC0021322069
:1030B0000BF0C7FC002137200BF0FBFC00213C206B
:1030C0000BF0F7FC0F2100200BF06EFB182253A130
:1030D00002A8FDF73CF9182102A80BF01FFC2021E3
:1030E00000200BF061FBE87F01281AD029488038C6
:1030F000C06EFDF7E7FAAFF67452CDE9000140214A
:10310000254809F0ADFBD7E90012012322480BF056
:10311000EFFB012085F82A00B5F86E00022807D0E1
:10312000A8E11C4814380AF0A5FA85F82AA0F3E7AC
:10313000B5F8720005287FD195F82500012897D1B0
:1031400000200BF0B5FA002108460BF02DFB0123FF
:10315000AFF23840D7E900120BF0CAFB0021322051
:103160000BF06FFC002137200BF0A3FC00213C206A
:103170000BF09FFC0F2100200BF016FB21225CE0DE
:10318000D0E0F1F7E5F2EDEEE520E7EDE0F7E5ED73
:10319000E8E5000058010020063B0020D2EEEA00DE
:1031A000252E303266000000CDE8E6EDE8E920EF9C
:1031B000F0E5E4E5EB20E4E8E0EFE0E7EEEDE02029
:1031C000E4EBFF20EFE5F0E5F1F7E5F2E0000000C9
:1031D000C2E5F0F5EDE8E920EFF0E5E4E5EB20E409
:1031E000E8E0EFE0E7EEEDE020E4EBFF20EFE5F0D4
:1031F000E5F1F7E5F2E00000D3F1F2E0E2EAE020E9
:10320000EDE8E6EDFFFF20EFF0E5E4F3EFF0E5E4B5
:10321000E8F2E5EBFCEDE0FF00000000D3F1F2E0A6
:10322000E2EAE020EDE8E6EDFFFF20E0E2E0F0E892
:10323000E9EDE0FF0000000030E0FDA102A8FDF78D
:1032400086F8212102A80BF069FB202100200BF059
:10325000ABFAE87F01281AD0FE48806EFDF732FAFB
:10326000AFF6E062CDE900014021FB4809F0F8FA31
:10327000D7E900120123F8480BF03AFB012085F84A
:103280002A0000BFB5F86E00022807D0F2E0F1482E
:1032900068300AF0EFF985F82AA0F3E7B5F8720074
:1032A000062853D195F82500012847D100200BF0BE
:1032B000FFF9002108460BF077FA0123AFF2A45082
:1032C000D7E900120BF014FB002132200BF0B9FB00
:1032D000002137200BF0EDFB00213C200BF0E9FB37
:1032E0000F2100200BF060FA1922DCA102A8FDF7E3
:1032F0002EF8192102A80BF011FB202100200BF061
:1033000053FAE87F01281AD0D248006FFDF7DAF9A6
:10331000AFF69072CDE900014021CF4809F0A0FA44
:10332000D7E900120123CC480BF0E2FA012085F81E
:103330002A0000BFB5F86E00022807D09AE0C54801
:1033400070300AF097F985F82AA0F3E7B5F8720013
:1033500007284AD195F8250001287DD100200BF0DF
:10336000A7F9002108460BF01FFA0123AFF25460C1
:10337000D7E900120BF0BCFA002132200BF061FB00
:10338000002137200BF095FB00213C200BF091FB36
:103390000F2100200BF008FA1422AFF2B86102A846
:1033A000FCF7D5FF142102A80BF0B8FA1E2100206B
:1033B0000BF0FAF9A748406FFDF784F9AFF2C46249
:1033C000CDE900014021A44809F04AFAD7E90012EA
:1033D0000123A1480BF08CFA85F81FA0012085F885
:1033E0002A00B5F86E00022844D1B5F8720008280A
:1033F00040D195F8250001283CD100200BF058F968
:10340000002108460BF0D0F90123AFF2F060D7E9B4
:1034100000120BF06DFA002132200BF012FB0F218D
:1034200000200BF0C1F91422AFF2287102A8FCF7BA
:103430008EFF142102A80BF071FA1E2100200BF060
:10344000B3F98448806FFDF73DF9AFF25072CDE9D2
:1034500000014021804800E00CE009F001FAD7E9C2
:10346000001201237C480BF043FA85F81FA00120CD
:1034700085F82A00B5F87A00012801D002287BD10E
:10348000B5F86E00032841D1B5F87200F0BB0020FA
:103490000BF00EF9002108460BF086F9D7E900126F
:1034A000012375A00BF024FAB5F87A00022817D191
:1034B00000200BF0FDF8002108460BF075F95C4682
:1034C0000123D4E900126DA00BF012FA00211C2098
:1034D0000BF06AF9D4E90012012369A00BF008FA95
:1034E00095F8250018B1002137200BF0E2FA0021F1
:1034F0003C200BF0DEFAB5F87600012803D0B5F8D1
:103500007800012805D126213A2000E040E00BF0A8
:1035100009FB2B213A200BF05BFA687901283BD09C
:103520000F2100200BF040F9B5F87A0002284DD0A9
:10353000122254A102A8FCF70AFF464C122102A84D
:10354000A2780BF00DFA202100200BF02DF9B4F930
:10355000020000EB800109EBC1008179012946D00E
:10356000042944D090ED050ABDEEC00A10EE100A01
:1035700003B2AFF6D80200E0FDE34021364809F07F
:103580006FF93548012300BFD7E900120BF0B0F9FD
:1035900095F82500B8B3EFE395F8210010B10123A9
:1035A0003DA0F1E70F2100200BF0FEF85C4601235F
:1035B000D4E9001239A00BF09BF91E2100200BF07A
:1035C000F3F8D4E90012012335A0DFE7092236A180
:1035D00002A8FCF7BCFE092102A80BF09FF92021EC
:1035E00000200BF0E1F8B5F8483032A2C3E740699B
:1035F000FDF768F8AFF25842CDE9000140211648C6
:1036000009F02EF9BDE7FFE75FF00004B5F86E00A2
:1036100003287DD1B5F87200661CB04206D1B5F81A
:10362000700018B900200BF043F847E0A7E0000055
:10363000D3F1F2E0E2EAE020E2E5F0F5EDFFFF2071
:10364000EFF0E5E4F3EFF0E5E4E8F2E5EBFCEDE0C4
:10365000FF000000D8000020063B0020D3F1F2E07C
:10366000E2EAE020E2E5F0F5EDFFFF20E0E2E0F045
:10367000E8E9EDE0FF00000034383500D2C8CA00A8
:10368000C7D1CA00C7EDE0F7E5EDE8E520F0E5E3D6
:10369000E8F1F2F0E020000020000000CDC5D200EB
:1036A000D1C2DFC7C8000000D1EEF1F2EEFFEDE8B5
:1036B000E5000000256420252500000000210846C3
:1036C0000BF072F82346FDA24021FE4809F0C8F82D
:1036D000D7E900120123FB480BF00AF9002137203B
:1036E0000BF0AFF9272C03D000213C200BF0E1F9BF
:1036F0002B213A200BF06CF90F2100200BF054F82D
:103700001222AFF2800102A8FCF721FE224600E05F
:1037100044E2122102A80BF023F9202100200BF033
:1037200043F804EB840109EBC101887901281AD020
:10373000042818D091ED050AE1A24021BDEEC00A8F
:1037400010EE100A03B2DF4809F08AF8D7E9001238
:103750000123DC480BF0CCF885F81FA0B5F86E000B
:1037600003280CD01AE24869FCF7ACFFAFF2D05244
:10377000CDE900014021D34809F072F8E6E7B5F839
:103780007200B04258D1B5F87000012854D1002021
:103790000AF08EFF002108460BF006F82346C7A268
:1037A0004021C84809F05CF8D7E900120123C54858
:1037B0000BF09EF8002137200BF043F9272C03D0A3
:1037C00000213C200BF075F926213A200BF0AAF9D4
:1037D0002B213A200BF0FCF80F2100200AF0E4FF27
:1037E0001822B9A102A8FCF7B2FD2246182102A8AE
:1037F0000BF0B6F8202100200AF0D6FFE87F04EB9A
:103800008401012811D019F83130ADA24021AD4812
:1038100009F026F8D7E900120123AA480BF068F84E
:10382000B5F86E00032807D0B8E108EBC10000F539
:1038300090700AF04FF8F3E7B5F87200B04259D132
:10384000B5F87000022855D100200AF031FF0021A0
:1038500008460AF0A9FF234698A24021994808F09B
:10386000FFFFD7E90012012396480BF041F8002131
:1038700037200BF0E6F8272C03D000213C200BF07A
:1038800018F926213A200BF04DF92B213A200BF0A4
:103890009FF80F2100200AF087FF1A2291A102A8A9
:1038A000FCF755FD22461A2102A80BF059F82021F9
:1038B00000200AF079FFE87F04EB8401012812D090
:1038C00009EBC1007EA2437840217E4808F0C8FF82
:1038D000D7E9001201237B480BF00AF8B5F86E0017
:1038E000032807D05AE108EBC10000F5917009F0F8
:1038F000F1FFF3E7B5F87200B04259D1B5F87000A6
:10390000032855D100200AF0D3FE002108460AF012
:103910004BFF234669A240216A4808F0A1FFD7E97E
:103920000012012367480AF0E3FF002137200BF063
:1039300088F8272C03D000213C200BF0BAF8262170
:103940003A200BF0EFF82B213A200BF041F80F2131
:1039500000200AF029FF0F2269A102A8FCF7F7FC5A
:1039600022460F2102A80AF0FBFF202100200AF0C6
:103970001BFFE87F04EB8401012812D009EBC10092
:103980004FA2838840214F4808F06AFFD7E9001210
:1039900001234C480AF0ACFFB5F86E00032807D0AD
:1039A000FCE008EBC10000F5927009F093FFF3E72B
:1039B000B5F87200B04259D1B5F87000042855D15D
:1039C00000200AF075FE002108460AF0EDFE2346AD
:1039D0003AA240213B4808F043FFD7E900120123F7
:1039E00038480AF085FF002137200BF02AF8272CF1
:1039F00003D000213C200BF05CF826213A200BF08C
:103A000091F82B213A200AF0E3FF0F2100200AF061
:103A1000CBFE1C223EA102A8FCF799FC22461C21E9
:103A200002A80AF09DFF202100200AF0BDFEE87FD9
:103A300004EB8401012812D009EBC10020A2837895
:103A40004021204808F00CFFD7E9001201231D484F
:103A50000AF04EFFB5F86E00032807D09EE008EB91
:103A6000C10000F5937009F035FFF3E7B5F8720077
:103A7000B0427DD1B5F87000052879D100200AF058
:103A800017FE002108460AF08FFE23460BA24021B4
:103A90000C4808F0E5FED7E90012012309480AF0B6
:103AA00027FF002137200AF0CCFF272C03D000216C
:103AB0003C200AF0FEFF26213A2039E03438352038
:103AC00025640000063B0020C2EAEBFEF7E8F2FCAA
:103AD00020EEEFF0EEF120F0E5E3E8F1F2F0E02087
:103AE00000000000C0E4F0E5F120F3F1F2F0EEE9AF
:103AF000F1F2E2E020F0E5E3E8F1F2F0E02000008E
:103B0000C0E4F0E5F120F0E5E3E8F1F2F0E02000B8
:103B1000D4F3EDEAF6E8EEEDE0EBFCEDFBE920EAAC
:103B2000EEE420F0E5E3E8F1F2F0E0200000000030
:103B30000AF0F8FF2B213A200AF04AFF0F2100205B
:103B40000AF032FE2A22FDA102A8FCF700FC224660
:103B50002A2102A80AF004FF202100200AF024FEF6
:103B6000E87F01281BD004EB840109EBC10000E0D1
:103B700030E0006AFCF7A6FDCDE90001FA4A4021D9
:103B8000FA4808F06DFED7E900120123F7480AF061
:103B9000AFFE00BFB5F86E0003281BD08AE304EB2C
:103BA00084000B9009EBC0000090203009F062FD0A
:103BB000009890ED080A0AA809F029FD0B98BDF8B5
:103BC000282008EBC000A0F83821BDF82A10A0F882
:103BD0003A11DFE7B5F87200B04274D1B5F8700061
:103BE000062870D100200AF063FD002108460AF083
:103BF000DBFD2346AFF23C124021DC4808F030FEEA
:103C0000D7E900120123D9480AF072FE00213720BB
:103C10000AF017FF272C03D000213C200AF049FFAF
:103C200026213A200AF07EFF2B213A200AF0D0FE0E
:103C30000F2100200AF0B8FD2222CDA102A8FCF736
:103C400086FB2246222102A80AF08AFE20210020BB
:103C50000AF0AAFDE87F012819D004EB840109EBE2
:103C6000C100406AFCF72EFDCDE90001BE4A4021AB
:103C7000BE4808F0F5FDD7E900120123BB480AF061
:103C800037FE00BFB5F86E0003281CD012E304EB2A
:103C900084000B9009EBC0000090243009F0EAFC8E
:103CA000009890ED090A0AA809F0B1FC0B98BDF83C
:103CB000282008EBC000A0F83C21BDF82A10A0F88D
:103CC0003E11DFE7FFE7B5F87200B04276D1B5F8F4
:103CD0007000072872D100200AF0EAFC0021084693
:103CE0000AF062FD2346AFF22C2240219F4808F0E3
:103CF000B7FDD7E9001201239C480AF0F9FD002125
:103D000037200AF09EFE272C03D000213C200AF029
:103D1000D0FE26213A200AF005FF2B213A200AF096
:103D200057FE0F2100200AF03FFD2B2299A102A887
:103D3000FCF70DFB22462B2102A80AF011FE2021E0
:103D400000200AF031FDE87F01281BD004EB84013C
:103D500009EBC1008069FCF7B5FCCDE90001824A9E
:103D60004021824808F07CFDD7E9001201237F48FA
:103D70000AF0BEFD01E0A6E2A1E2B5F86E0003285C
:103D80001CD097E204EB84000B9009EBC00000907C
:103D9000183009F06FFC009890ED060A0AA809F0A7
:103DA00036FC0B98BDF8282008EBC000A0F8402195
:103DB000BDF82A10A0F84211DCE7FFE7B5F8720061
:103DC000B04274D1B5F87000082870D100200AF014
:103DD0006FFC002108460AF0E7FC2346AFF22432CC
:103DE0004021624808F03CFDD7E9001201235F48FA
:103DF0000AF07EFD002137200AF023FE272C03D095
:103E000000213C200AF055FE26213A200AF08AFEC5
:103E10002B213A200AF0DCFD0F2100200AF0C4FC1F
:103E2000232267A102A8FCF792FA2246232102A8C6
:103E30000AF096FD202100200AF0B6FCE87F012858
:103E400019D004EB840109EBC100C069FCF73AFC0E
:103E5000CDE90001444A4021444808F001FDD7E97A
:103E60000012012341480AF043FD00BFB5F86E007F
:103E700003281CD01EE204EB84000B9009EBC00069
:103E800000901C3009F0F6FB009890ED070A0AA894
:103E900009F0BDFB0B98BDF8282008EBC000A0F886
:103EA0004421BDF82A10A0F84611DFE7FFE7B5F876
:103EB0007200B04241D1B5F8700009283DD1002010
:103EC0000AF0F6FB002108460AF06EFC2346AFF22A
:103ED00014424021254808F0C3FCD7E90012012311
:103EE00022480AF005FD002137200AF0AAFD272C00
:103EF00003D000213C200AF0DCFD26213A200AF004
:103F000011FE2B213A200AF063FD0F2100200AF058
:103F10004BFC172233A102A8FCF719FA22461721FD
:103F200002A80AF01DFD202100200AF03DFCE87FD8
:103F300001287BD004EB840160E092E0CDE8E6ED5F
:103F4000FFFF20EFF0E5E4F3EFF0E5E4E8F2E5EB66
:103F5000FCEDE0FF20F3F1F2E0E2EAE020F0E5E33F
:103F6000E8F1F2F0E020000084230108063B002085
:103F7000CDE8E6EDFFFF20E0E2E0F0E8E9EDE0FF6C
:103F800020F3F1F2E0E2EAE020F0E5E3E8F1F2F01C
:103F9000E0200000C2E5F0F5EDFFFF20EFF0E5E4E2
:103FA000F3EFF0E5E4E8F2E5EBFCEDE0FF20F3F100
:103FB000F2E0E2EAE020F0E5E3E8F1F2F0E02000F0
:103FC000C2E5F0F5EDFFFF20E0E2E0F0E8E9EDE02A
:103FD000FF20F3F1F2E0E2EAE020F0E5E3E8F1F2BD
:103FE000F0E02000CAEEFDF4F4E8F6E8E5EDF2209A
:103FF000C020F0E5E3E8F1F2F0E0200009EBC100B9
:10400000C068FCF75FFBCDE90001FD4A4021FD4897
:1040100008F026FCD7E900120123FA480AF068FCF0
:10402000B5F86E0003281CD044E1FFE704EB8400E0
:104030000B9009EBC00000900C3009F01BFB0098BE
:1040400090ED030A0AA809F0E2FA0B98BDF82820BF
:1040500008EBC000A0F82C21BDF82A10A0F82E1102
:10406000DEE7B5F87200B04273D1B5F870000A28E7
:104070006FD100200AF01CFB002108460AF094FBD7
:104080002346AFF2C8524021DE4808F0E9FBD7E9E9
:1040900000120123DB480AF02BFC002137200AF034
:1040A000D0FC272C03D000213C200AF002FD262161
:1040B0003A200AF037FD2B213A200AF089FC0F2123
:1040C00000200AF071FB1722CFA102A8FCF73FF9EC
:1040D0002246172102A80AF043FC202100200AF002
:1040E00063FBE87F012818D004EB840109EBC100D1
:1040F0000069FCF7E7FACDE90001C14A4021C14857
:1041000008F0AEFBD7E900120123BE480AF0F0FB2D
:10411000B5F86E0003281CD0CCE004EB84000B90B3
:1041200009EBC0000090103009F0A4FA009890ED5F
:10413000040A0AA809F06BFA0B98BDF8282008EBCE
:10414000C000A0F83021BDF82A10A0F83211DFE736
:10415000FFE7B5F87200B0425CD1B5F870000B28EB
:1041600058D100200AF0A4FA002108460AF01CFBEE
:104170002346AFF2B8624021A24808F071FBD7E9AC
:10418000001201239F480AF0B3FB002137200AF0F8
:1041900058FC272C03D000213C200AF08AFC262161
:1041A0003A200AF0BFFC2B213A200AF011FC0F2123
:1041B00000200AF0F9FA142299A102A8FCF7C7F826
:1041C0002246142102A80AF0CBFB202100200AF08D
:1041D000EBFAE87F04EB8401012814D009EBC1005D
:1041E0008379AFF224724021864808F039FBD7E981
:1041F0000012012383480AF07BFB00BFB5F86E0074
:10420000032807D056E008EBC10000F5947009F0D0
:1042100061FBF3E7B5F87200B0424BD1B5F870001E
:104220000C2847D100200AF043FA002108460AF082
:10423000BBFA2346AFF27C724021724808F010FBB3
:10424000D7E9001201236F480AF052FB0021372002
:104250000AF0F7FB272C03D000213C200AF029FCB0
:1042600026213A200AF05EFC0F2100200AF09CFA79
:10427000112271A102A8FCF76AF82246112102A8B6
:104280000AF06EFB202100200AF08EFAE87F04EB92
:104290008401012818D009EBC1000389AFF2E07254
:1042A0004021584808F0DCFAD7E9001201235548AC
:1042B0000AF01EFB641CE4B2282CFFF4A7A9B5F891
:1042C0006E00032807D099E008EBC10000F5957057
:1042D00009F000FBEEE7B5F8720001284CD195F823
:1042E000250001287CD100200AF0E2F900210846CF
:1042F0000AF05AFA0123AFF68040D7E900120AF01B
:10430000F7FA002132200AF09CFB002137200AF046
:10431000D0FB00213C200AF0CCFB0F2100200AF04A
:1043200043FA37491822803902A8FCF710F81821FF
:1043300002A80AF0F3FA202100200AF035FAE87FFB
:10434000012814D04148B0F90230AFF68C02402168
:104350002C4808F085FAD7E90012012329480AF011
:10436000C7FA00BFB5F86E00032805D046E037480D
:10437000801C09F0AFFAF5E7B5F872000228B1D158
:1043800095F825000128ADD100200AF091F900210F
:1043900008460AF009FA0123AFF62450D7E90012C3
:1043A0000AF0A6FA002132200AF04BFB0F21002070
:1043B0000AF0FAF9082226A102A8FBF7C8FF082193
:1043C00002A80AF0ABFA202100200AF0EDF9E87FFC
:1043D00001284CD01D488030006BFCF773F900E0D9
:1043E00018E2CDE900011DA24021064808F038FA84
:1043F000D7E90012012303480AF07AFA32E00000FC
:10440000FC2C0108063B0020CAEEFDF4F4E8F6E8B7
:10441000E5EDF220C220F0E5E3E8F1F2F0E0200063
:10442000D2E8EF20E4E0EDEDFBF520F0E5E3E8F184
:10443000F2F0E02000000000D2E0E9ECE0F3F2202E
:10444000F0E5E3E8F1F2F0E020000000D800002001
:10445000D1EAEEF0EEF1F2FC00000000252E303043
:1044600066000000B5F86E00042805D0E4E2FB49C0
:10447000FB4809F0B9F9C1E7B5F87200F0BB0020BC
:104480000AF016F9002108460AF08EF95C4601236D
:10449000D4E90012F3A00AF02BFA95F8250018B120
:1044A000002137200AF005FB00213C200AF001FB27
:1044B00026213A200AF036FB2B213A200AF088FA0E
:1044C0000F2100200AF070F9D4E900120123E7A0BF
:1044D0000AF00EFAD7E900120123E6A00AF008FA62
:1044E00010212A200AF060F92B7AAFF62C22402105
:1044F000E14808F0B5F90123DF4800E02AE0D7E9F8
:1045000000120AF0F5F9202100200AF04DF9D4E953
:1045100000120123D9A00AF0EBF9D7E90012012318
:10452000D4A00AF0E5F921212A200AF03DF9EB791F
:10453000AFF674224021D04808F092F9D7E9001272
:104540000123CD480AF0D4F985F82AA0B5F86E0009
:1045500004288BD1B5F87200012867D195F82500A1
:10456000A8BB00200AF0A4F8002108460AF01CF9B4
:10457000DBE900120123BBA00AF0BAF900213720C1
:104580000AF05FFA00213C200AF093FAB5F87A00AD
:10459000012802D002281BD03FE00F2100200AF0A2
:1045A00003F91022B7A102A8FBF7D1FE102102A83F
:1045B0000AF0B4F9D7E900120123B7A00AF098F97C
:1045C000202100200AF0F0F8B5F874301AE09EE0DF
:1045D0000F2100200AF0E8F80D22B0A102A8FBF795
:1045E000B6FE0D2102A80AF099F9D7E900120123BD
:1045F000AEA00AF07DF9202100200AF0D5F8AD48E0
:10460000008C83B2ACA240219B4808F029F9D7E97D
:104610000012012398480AF06BF985F81FA00120C9
:1046200085F82A00B5F86E0004287DD1B5F872002F
:10463000022868D195F8250088BB00200AF038F8D8
:10464000002108460AF0B0F8DBE90012012385A03A
:104650000AF04EF9002137200AF0F3F9B5F87A0094
:10466000012802D002281BD044E00F2100200AF0CC
:104670009BF8102283A102A8FBF769FE102102A873
:104680000AF04CF9D7E9001201238DA00AF030F9A5
:10469000202100200AF088F8B5F844301FE090E0AF
:1046A0000F2100200AF080F80D227CA102A8FBF760
:1046B0004EFE0D2102A80AF031F9D7E900120123BC
:1046C00080A00AF015F9202100200AF06DF8794940
:1046D000086A91F82410000C40EA014083B276A2E7
:1046E0004021654808F0BCF8D7E900120123624870
:1046F0000AF0FEF885F81FA0012085F82A00B5F819
:104700006E00042810D1B5F87200012855D195F833
:10471000250001287ED1002009F0CAFF00210846AB
:104720000AF042F8012300E086E15C464DA0D4E99E
:1047300000120AF0DDF8002132200AF082F900218F
:1047400037200AF0B6F900213C200AF0B2F90F2117
:1047500000200AF029F8D4E9001201235BA00AF036
:10476000C7F8C82009F0FAF9202100200AF01CF847
:10477000E87F012817D0B5F85230AFF6BC4240218F
:104780003D4808F06DF8D7E9001201233A480AF0D5
:10479000AFF8012085F82A0085F82BA0B5F86E0047
:1047A00004280AD048E12E48DE3809F093F885F84D
:1047B0002AA0012085F82B00F0E7B5F87200022846
:1047C0004BD195F825000128A4D1002009F070FFF5
:1047D0000021084609F0E8FFDBE90012012321A0CF
:1047E0000AF086F8002132200AF02BF90021372048
:1047F0000AF05FF900213C200AF05BF90F2100204C
:1048000009F0D2FF182233A102A8FBF7A0FD18215E
:1048100002A800E0FCE00AF081F82021002009F065
:10482000C3FFE87F012863D0B5F85430AFF670526B
:104830004021114808F014F8D7E9001201230E486E
:104840000AF056F8012085F82A0085F82BA000BF51
:10485000B5F86E00042854D0EEE052E0E0180208EB
:1048600088010020D0E5EBE500000000CFF0E5E492
:10487000000000002E000000063B0020C0E2E0F037
:1048800000000000C0F2F2F0E8E1F3F220F1EEE106
:10489000FBF2E8FF0000000020310000C1E8F22038
:1048A000F1EEF1F2EEFFEDE8FF00000028302D31CF
:1048B00035290000D802002030782558000000007B
:1048C000203200002831362D33312900D0E5E6E8CA
:1048D000EC000000C7E0E4E5F0E6EAE020EDE020CF
:1048E000F1F0E0E1E0F2FBE2E0EDE8E500000000DD
:1048F000FE4808F0EFFF85F82AA0012085F82B007C
:10490000A6E7B5F87200032853D195F825000128D1
:104910007ED1002009F0CCFE0021084609F044FFBA
:104920000123AFF2C000DBE9001209F0E1FF002132
:1049300032200AF086F8002137200AF0BAF8002168
:104940003C200AF0B6F80F21002009F02DFF2122AB
:10495000E7A102A8FBF7FBFC212102A809F0DEFF7A
:104960002021002009F020FFE87F012817D0B5F8AA
:104970005630AFF6B4624021E64807F071FFD7E940
:1049800000120123E34809F0B3FF012085F82A0053
:1049900085F82BA0B5F86E0004280AD04CE0D34867
:1049A000801C08F097FF85F82AA0012085F82B00CD
:1049B000F0E7B5F872000428AAD195F8250001287F
:1049C000A6D1002009F074FE0021084609F0ECFE93
:1049D0000123AFF27010DBE9001209F089FF00211A
:1049E00032200AF02EF80F21002009F0DDFE092206
:1049F000C9A102A8FBF7ABFC092102A809F08EFFB0
:104A00002021002009F0D0FEE87F012819D000E025
:104A100069E2B5F85C30AFF658724021BD4807F046
:104A20001FFFD7E900120123BA4809F061FF0120F6
:104A300085F82A0085F82BA0B5F86E0005280AD065
:104A400012E2AA48083008F045FF85F82AA00120A4
:104A500085F82B00F0E7B5F8720028BB002009F0BC
:104A600027FE0021084609F09FFE00213C200AF0A5
:104A700020F826213A200AF055F82B213A2009F097
:104A8000A7FF0F21002009F08FFE0922A5A102A88F
:104A9000FBF75DFC092102A809F040FF85F82AA078
:104AA000B5F86E0005284BD1B5F87200012852D137
:104AB000002009F0FDFD0021084609F075FE5C4666
:104AC0000123D4E900129AA009F012FF0123AFF2EA
:104AD0005C20D7E9001209F00BFF0021372009F014
:104AE000B0FF00213C2009F0E4FF0F21002009F075
:104AF0005BFED4E9001201238FA009F0F9FEC82063
:104B000009F02CF82021002009F04EFEE87F012852
:104B100017D0B5F866308AA240217E4807F0A0FE83
:104B2000D7E9001201237B4809F0E2FE012085F855
:104B30002A0085F82BA000BFB5F86E0005280AD022
:104B400092E16A48123008F0C5FE85F82AA00120DB
:104B500085F82B00F0E7B5F87200022858D1002044
:104B600009F0A6FD0021084609F01EFEDBE900124F
:104B700001236FA009F0BCFE0123AFF20830D7E992
:104B8000001209F0B5FE0021372009F05AFF00217C
:104B90003C2009F08EFF0F21002009F005FE0822BD
:104BA000AFF2547102A8FBF7D2FB082102A809F06A
:104BB000B5FE2021002009F0F7FDE87F01281CD078
:104BC0004A48AC30C06AFBF77DFDAFF27072CDE9A8
:104BD000000140214F4807F043FED7E900120123AE
:104BE0004C4809F085FE012085F82A0085F82BA0A5
:104BF000B5F86E0005280BD036E13C485149D83055
:104C000008F0F2FD85F82AA0012085F82B00EFE7D7
:104C1000B5F87200032857D1002009F049FD0021A2
:104C2000084609F0C1FDDBE90012012340A009F0AC
:104C30005FFE0123AFF2C430D7E9001209F058FE3D
:104C40000021372009F0FDFE00213C2009F031FF52
:104C50000F21002009F0A8FD0D223BA102A8FBF7BF
:104C600076FB0D2102A809F059FE2021002009F051
:104C70009BFDE87F01281CD01C48AC30006BFBF783
:104C800021FDAFF62802CDE900014021214807F0BF
:104C9000E7FDD7E9001201231E4809F029FE012093
:104CA00085F82A0085F82BA0B5F86E0005280BD0F2
:104CB000DAE00E482349DC3008F096FD85F82AA09A
:104CC000012085F82B00EFE7B5F8720004287DD1AC
:104CD000002009F0EDFC0021084609F065FDDBE944
:104CE0000012012312A009F003FE35E0AC00002001
:104CF000C7E0E4E5F0E6EAE020EDE020E2FBF5EED7
:104D0000E420E8E720F1F0E0E1E0F2FBE2E0EDE8AA
:104D1000FF000000063B0020D2E5F1F220F0E5EBB9
:104D2000E5000000CDE0F1F2F0EEE9EAE800000075
:104D3000CDE0F1F2F0000000C0E4F0E5F100000089
:104D400025640000E0180208D1EAEEF0EEF1F2FC72
:104D500020F8E8EDE00000000123AFF2E840D7E9D9
:104D6000001209F0C5FD0021372009F06AFE00217C
:104D70003C2009F09EFE0F21002009F015FD0E22B7
:104D8000FEA102A8FBF7E3FA0E2102A809F0C6FD76
:104D90002021002009F008FDE87F012819D0B5F88E
:104DA0006830AFF264024021F84807F059FDD7E9B6
:104DB00000120123F54809F09BFD012085F82A0027
:104DC00085F82BA0B5F86E00052800E00AE009D0B0
:104DD0004AE0EF4808F07EFD85F82AA0012085F81A
:104DE0002B00EFE7B5F8720005287CD1002009F010
:104DF0005FFC0021084609F0D7FC0123AFF2D00088
:104E0000DBE9001209F074FD0123AFF29850D7E9F5
:104E1000001209F06DFD0021372009F012FE0F216C
:104E2000002009F0C1FC0E22DAA102A8FBF78FFADC
:104E30000E2102A809F072FD2021002009F0B4FC27
:104E4000E87F012815D0B5F87E30AFF20C12402172
:104E5000CE4807F005FDD7E900120123CB4809F041
:104E600047FD012085F82A00B5F86E00062807D016
:104E700002E1C748163008F02DFD85F82AA0F3E7B7
:104E8000B5F8720008BB002009F012FC00210846AA
:104E900009F08AFC00213C2009F00BFE26213A2073
:104EA00009F040FE0F21002009F07EFC0A22BDA17E
:104EB00002A8FBF74CFA0A2102A809F02FFD85F899
:104EC0002AA0B5F86E0006287ED1B5F87200012838
:104ED0004AD1002009F0ECFB0021084609F064FCEF
:104EE0000123B3A000E00BE1DBE9001209F000FDB3
:104EF0000123AFF28060D7E9001209F0F9FC00212C
:104F0000372009F09EFD00213C2009F0D2FD0F2141
:104F1000002009F049FC1222A6A102A8FBF717FA0B
:104F2000122102A809F0FAFC2021002009F03CFC23
:104F30009748983090ED080A10EE100AFBF7C2FB74
:104F4000CDE90001A04A4021904807F089FCD7E94B
:104F5000001201238D4809F0CBFC012085F82A00BE
:104F6000B5F86E0006282FD1B5F87200022844D19A
:104F7000002009F09DFB0021084609F015FCDBE943
:104F8000001201238AA009F0B3FC0123AFF21C70C8
:104F9000D7E9001209F0ACFC0021372009F051FDDF
:104FA00000213C2009F085FD0F21002009F0FCFBC9
:104FB000092286A102A8FBF7CAF9092102A809F073
:104FC000ADFC2021002000E056E009F0EDFB9FED54
:104FD000820B834A8DED000B40216C4807F040FCAA
:104FE000D7E900120123694809F082FC012085F805
:104FF0002A00B5F86E0006283ED1B5F872000328E5
:105000007ED1002009F054FB0021084609F0CCFBBA
:10501000DBE90012012366A009F06AFC0123AFF26C
:10502000AC70D7E9001209F063FC0021372009F0C9
:1050300008FD0F21002009F0B7FBD7E9001201237A
:1050400068A009F055FC2021002009F0ADFB504874
:105050009830C068FBF736FBCDE900015A4A402181
:105060004A4807F0FDFBD7E900120123474809F041
:105070003FFC012085F82A00B5F86E0007283FD1D3
:10508000B5F87200D8B995F82300012838D100206E
:1050900009F00EFB0221372009F00BFD0F21002043
:1050A00009F082FB0C2251A102A8FBF750F90C2158
:1050B00002A809F033FCB5F86E00072820D1B5F836
:1050C0007200012846D1002009F0F2FA00210846BA
:1050D00009F06AFBDBE90012012348A009F008FC93
:1050E0000123AFF67000D7E9001209F001FC02219C
:1050F000302009F0A6FC0221372009F0DAFC00E09C
:10510000F7E00F21002009F04FFBD7E9001201233F
:105110003C4809F0EDFB2021002009F045FBE87F29
:10512000012812D0B5F87630AFF2EC3240211748A2
:1051300007F096FBD7E900120123144809F0D8FBC9
:10514000B5F86E00072805D0D3E011480E3008F0FE
:10515000C1FBF5E7B5F8720002287DD1002009F007
:10516000A7FA0021084609F01FFBDBE90012012322
:1051700022A009F0BDFB012346E00000C2F0E5ECEF
:10518000FF20EFF0EEE3F0E5E2E00000063B002058
:10519000C0000020D1E1F0EEF120EDE0F1F2F0EE00
:1051A000E5EA0000C8EDF4EEF0ECE0F6E8FF000000
:1051B000C8EDF400CDE0EFF0FFE6E5EDE8E520EF27
:1051C000E8F2E0EDE8FF000084230108C2E5F0F119
:1051D000E8FF20CFCE000000E17A14AE47E1154091
:1051E000A03101084D4D544500000000CACECDD479
:1051F000C8C3D3D0C0D6C8DF00000000CAEEEDF4AB
:1052000000000000541F0108AFF69810D7E9001203
:1052100009F06EFB0221302009F013FC0221372037
:1052200009F047FC0F21002009F0BEFAD7E900126F
:1052300001233A4809F05CFB2021002009F0B4FA70
:10524000E87F012815D0B5F87830AFF20C52402134
:10525000334807F005FB00E00FE0D7E90012012317
:105260002F4809F045FB00BFB5F86E00072804D0B1
:105270003FE02C4808F02EFBF6E7B5F87200032853
:1052800037D1002009F014FA0021084609F08CFA01
:105290000123AFF29800DBE9001209F029FB01239A
:1052A000AFF63020D7E9001209F022FB02213020AE
:1052B00009F0C7FB0F21002009F076FAD7E90012A8
:1052C0000123194809F014FB2021002009F06CFA91
:1052D000E87F01281BD0B5F87A30AFF29C5240210C
:1052E0000F4807F0BDFAD7E9001201230C4809F076
:1052F000FFFA09F05FFA95F8210068B15FF000004D
:1053000085F82100642008F029FCFCF711BC054851
:10531000801C08F0DFFAECE70120F1E71C2D010802
:10532000063B0020D000002078360108184F0026E8
:10533000DFF860B086B04FF008084FF0180A4FF061
:105340008009A7F5C07401254FF0FF31F86A0AF013
:1053500081FA607F0128F7D101AA0496009682E8BD
:105360002005CBF8109001F09FFC04F82F0F0320CC
:1053700008F0F4FB04A9684601F0C8FB207001F0B6
:1053800037FC14F82F090028DED184F82E50DBE713
:10539000D801002000200240124A117F1248012942
:1053A00001D003290BD1036843F400630360036851
:1053B00023F400630360036843F40073036002296D
:1053C00001D003290BD1016841F4805101600168CB
:1053D00021F480510160016841F480610160002086
:1053E000107770474C040020002002400849C20793
:1053F00003D04A6942F004024A61800703D5486934
:1054000040F400404861486940F48030486170478A
:1054100000200240CA070B494A6902D022F4006208
:1054200001E042F400624A614A6960F3CA024A61DB
:10543000486940F002004861486940F480304861A2
:105440007047000000200240044910B54C6944F048
:1054500001044C610260436010BD00000020024066
:10546000074B10B55C69402244F480245C6172B63D
:1054700008C908C0521E12F0FF02F9D162B610BD71
:105480000020024070B5054601F00CFD0646184CA0
:1054900008E0681C06D001F005FD801BA84201D37E
:1054A000032070BD2069C043C003F2D521691148B3
:1054B0000140A06900F00040084311D00E494A683D
:1054C00002434A60810F04D0A16900F040421143B9
:1054D000A161810002D020F040402061012070BD18
:1054E0002069C043C00701D101202061002070BDA8
:1054F00000200240FAC302004C040020294810B5E5
:10550000C078A0B3012840D0022828D3264B274AD0
:105510000221A3F10C0007F054FF234B234A8433EC
:1055200021480221783007F04CFF1F4B1F4AB0334F
:105530000221A3F10C0007F044FF1B4B1B4A2C3344
:10554000A03A0221A3F10C0007F03BFF164B174ACB
:105550005833783A0221A3F10C0007F032FF1648C5
:105560009FED130B80ED0A0B80ED0C0B10BDFFE7D8
:105570000D4B0E4A0221503AA3F10C0007F021FF17
:10558000094B0A4A8433503ACAE7074B074A0221BB
:10559000283AA3F10C0007F014FF034B034A8433AD
:1055A000283ABDE7580000202C180020F8030020FE
:1055B0000000000000000000D802002010B50446E2
:1055C0000AF0D6FA014614B108F0DEF92060C86C82
:1055D00010BD00002DE9F84F4FF000080446CDF84B
:1055E00000800D4694F85420DFF80894216947465E
:1055F0004046012A0AD00126FF4A84F8546041B18E
:10560000A969012905D0636EEBB129E00220BDE84C
:10561000F88F6868082838D1296A4FF4F85041B1EA
:105620002B6801F03C0100EA93400843696A084393
:1056300002E0296800EA91402368D96C11400143D7
:10564000D964206621E0C4E91871296AA86931B1DA
:1056500001F03C01401E0843696A084300E0401E17
:1056600029682B79C1F3846103F01F03994001433A
:10567000606E401E6066236E43EA0103236604D118
:105680002068C16C11401943C164206803F058FBC5
:1056900048B9687F90B12068C168AA7F21F44011A1
:1056A00041EA4251C160206803F052FB8246206803
:1056B00003F046FB5AEA00000BD0DDE0A87F297F0B
:1056C000400540EA01512068C26822F440121143AB
:1056D000E8E7286A28B1686A18B1687F012845D0D0
:1056E00002E0687F012804D02068C16821F00071C1
:1056F00003E02068C16841F00071C16095F828009E
:1057000001283AD02068016921F002010161AA68EC
:1057100029682068B2F1004F20D003F034FB2068E4
:10572000416921F00041416120686969C268C2F3A2
:10573000C102520091402A69042A2AD000EB82005B
:105740002B68DFF8B8C2026E03F0F84302EA0C02DD
:105750000B431A4342F0004101668DE0002203F042
:1057600012FB2068416941F00041DCE7A06D40F088
:105770002000A0654FF00108C0E7D5E90B01084300
:1057800021680A6922F4FF7242F0020210430861A4
:10579000BDE7002103F0CAFA400320684FF0000182
:1057A00072D003F0C3FA90FAA0F0B0FA80F1286842
:1057B00042036ED090FAA0F0B0FA80F0814204D19A
:1057C00000221146206803F0F5FA0121206803F059
:1057D000ADFA400320684FF001015DD003F0A6FA56
:1057E00090FAA0F0B0FA80F12868420359D090FAFC
:1057F000A0F0B0FA80F0814204D10022012120689B
:1058000003F0D8FA0221206803F090FA40032068E0
:105810004FF0020148D003F089FA90FAA0F0B0FAF4
:1058200080F12868420344D090FAA0F0B0FA80F0EA
:10583000814204D100220221206803F0BBFA032137
:10584000206803F073FA400320684FF0030133D05F
:1058500003F06CFA90FAA0F0B0FA80F128684203E5
:105860002FD090FAA0F0B0FA80F0814204D100224B
:105870000321206803F09EFA2068816811F0010F6F
:1058800022D0ABE000E004E003F050FAC0F3846102
:105890008DE7C0F3846091E703F048FAC0F38461B8
:1058A000A2E7C0F38460A6E703F040FAC0F3846186
:1058B000B7E7C0F38460BBE703F038FAC0F3846154
:1058C000CCE7C0F38460D0E72B7B296850F8B02F79
:1058D000C1F3120C22EA0C0203F0180C484B23FA15
:1058E0000CF30B401A430260E968494576D12868F9
:1058F00041031BD090FAA0F1B1FA81F1491C01F0EB
:105900001F0109294FEA403131D8002911D090FAFE
:10591000A0F1B1FA81F100BF01F1010101F01F0115
:1059200006FA01F608D1C0F3846109E0C0F384618E
:10593000E4E7C0F38461EFE790FAA0F1B1FA81F1F6
:1059400001F1010101F01F0146EA816102D1C0F3BA
:10595000846003E090FAA0F0B0FA80F000F101005A
:1059600000F01F0000EB400041EA005132E0002946
:105970000ED090FAA0F1B1FA81F100BF01F101015E
:1059800001F01F0106FA01F605D1C0F3846106E0BB
:10599000C0F38461F2E790FAA0F1B1FA81F101F16C
:1059A000010101F01F0146EA816102D1C0F3846068
:1059B00003E090FAA0F0B0FA80F000F1010000F0EE
:1059C0001F00104A00EB400002EB005041EA0001CA
:1059D00041F00071AA68206803F0D5F90A482A68E6
:1059E000024256D009488168094E01F0E071094B26
:1059F000094D13E000007F400020088200F0FF0303
:105A0000FFFF0700000020FE000008800003045094
:105A1000000052C70000045000020450B2421BD1E3
:105A20000E0219D422689A4201D0AA4231D182686A
:105A300041F4000122F0E0720A43826017481849DD
:105A40000068B0FBF1F000EB4000800000E0401E79
:105A500000900028FBD11CE0124EB24209D1CE01C9
:105A600007D422689A4201D0AA4212D141F0807133
:105A70000AE06FF00045EA420BD14A0209D42268DD
:105A80009A4206D141F48001826822F0E0720A4312
:105A9000826084F854704046B9E500006C04002030
:105AA000400D0300000084CB0068B1F5877F0FD064
:105AB000B1F5057F09D0A1F540711A3902D0D0F8AF
:105AC00080007047D0F88C007047D0F8880070478D
:105AD000D0F88400704700002DE9F04104463748B3
