:020000040801F1
:10000000208901208102010865A10108ED8901080C
:10001000359D0108090F0108D9C30108000000003F
:10002000000000000000000000000000C101010805
:10003000B9180108000000001D020108ABA9010861
:100040009B0201089B0201089B0201089B02010818
:100050009B0201089B0201089B0201089B02010808
:100060009B0201089B0201089B0201083D12010846
:100070004912010855120108611201086D120108A8
:1000800079120108851201089B0201089B020108F0
:100090009B0201089B0201089B0201089B020108C8
:1000A0009B0201081DAE01089B0201089B0201088A
:1000B0009B0201089B0201089B0201089B020108A8
:1000C0009B0201089B0201089B0201089B02010898
:1000D0009B020108F5C0010851C10108ADC101082A
:1000E0009B0201089B0201089B0201089B02010878
:1000F0009B0201089B0201089B0201089B02010868
:100100009B0201089B0201089B0201089B02010857
:100110009B0201085DBB010829AE010845AE01083C
:10012000911201089D1201089B0201089B0201081F
:100130009B0201089B0201089B0201089B02010827
:100140009B0201089B0201089B0201089B02010817
:100150009B0201089B0201089B0201089B02010807
:100160009B0201089B0201089B0201089B020108F7
:100170009B0201089B0201089B020108000000008D
:100180009B0201089B0201089B0201089B020108D7
:100190009B0201089B0201089B0201089B020108C7
:1001A0009B0201089B0201089B020108DFF80CD0AA
:1001B00000F0E0FB00480047C5D601082089012077
:1001C0002C4B19680868B0E8F04F80F30988BFF33A
:1001D0006F8F4FF0000080F311887047000000001F
:1001E00008480068006880F308884FF0000080F33A
:1001F000148862B661B6BFF34F8FBFF36F8F00DF15
:1002000000BF00BF08ED00E0DFF80C00016841F41A
:1002100070010160704700BF88ED00E0EFF30980D6
:10022000BFF36F8F134B1A681EF0100F08BF20ED3D
:10023000108A20E9F04F106009B44FF0500080F3AD
:100240001188BFF34F8FBFF36F8F0EF091FD4FF00A
:10025000000080F3118809BC19680868B0E8F04F05
:100260001EF0100F08BFB0EC108A80F30988BFF3AE
:100270006F8F704794040020EFF3058070470000F3
:100280000648804706480047FEE7FEE7FEE7FEE730
:10029000FEE7FEE7FEE7FEE7FEE7FEE76DAA0108E0
:1002A000AD0101082DE9F05F0546002092469B460E
:1002B00088460646814640241BE02846414647467C
:1002C000224600F053FA53465A46C01A914110D3C1
:1002D00011461846224600F03AFA2D1A67EB01083B
:1002E0004F4622460120002100F031FA17EB0009A9
:1002F0004E41201EA4F10104DFDC484631462A4667
:100300004346BDE8F09F40EA01039B0703D009E0A4
:1003100008C9121F08C0042AFAD203E011F8013BF1
:1003200000F8013B521EF9D27047D2B201E000F84A
:10033000012B491EFBD270470022F6E710B5134689
:100340000A4604461946FFF7F0FF204610BD10B5D7
:10035000044604E00B7800F8013B03B1491C521E2F
:10036000F8D2204610BD2DE9FE4F804681EA0300F9
:10037000C00F0C46009021F0004123F00045B8EB7F
:100380000200A94105D24046214690461C460B4634
:10039000024623F00040104347D0270DC7F30A0060
:1003A000C3F30A510290401A019040286BDAC3F35C
:1003B000130040F4801B0098924620B10023D2EB3A
:1003C000030A63EB0B0B01985946C0F140025046FB
:1003D00000F0BDF906460D4650465946019A00F018
:1003E000D5F910EB08006141002487EA115284EA34
:1003F000E7731A4340D0009A62B3019A012A4FEA88
:10040000075215DC001B61EB02014FF0004202EACB
:100410000752CDE90042001C41F5801132462B46BF
:1004200000F02AFA03B0BDE8F08F40462146F9E714
:10043000001B61EB0201001C41F5801300185B41B9
:100440002018A2F5001747EB030140EAD570B61952
:100450006D4111E06D084FEA360645EAC0754FEA76
:100460000752001B61EB0201001C41F58011490895
:100470004FEA30000019514132462B4603B0BDE827
:10048000F04F00F0EAB90098012240000023D0EBC1
:10049000020263EBE073009821464FEAE074B8EB88
:1004A000000061EB0401E9E783F000435BE781F0C2
:1004B000004158E72DE9FE4F81EA030404F00044AF
:1004C00021F0004100944FF0000B23F0004350EA6C
:1004D00001045ED052EA03045BD0C3F30A54C1F3B3
:1004E0000A552C44A4F2F3340194A0FB0254C1F346
:1004F000130141F48011C3F3130343F4801301FB90
:10050000024400FB034E840A970A44EA815447EAF6
:100510008357A4FB076802958D0A05FB07854FEA00
:10052000932C04FB0C542705029D4FEA065847EA1A
:100530001637B5EB08056EEB070C870E920E47EAEF
:10054000811742EA8312A7FB0201B6EB0B0164EBB1
:1005500000042B0D43EA0C335E1844EB1C50DA46C2
:100560005146E7FB0201C5F313044FEA0B3343EA9C
:1005700014534FEA0432019C43EA0603A4F10C042D
:100580000294009CCDE900B400F076F903B0BDE818
:10059000F08F00200146F9E72DE9F04D81EA0304D0
:1005A00004F0004B21F0004514464FF0000A23F000
:1005B000004150EA050220D054EA01021DD0C5F3E3
:1005C0000A570246C5F31303C1F31300C1F30A56D9
:1005D00040F4801543F48013A7EB0608101BD646A1
:1005E00008F2FD3873EB050002D308F1010801E0C1
:1005F00092185B41B8F1000F03DA00200146BDE814
:10060000F08D00204FF48011064684460EE0171B43
:1006100073EB050705D3121B63EB050306434CEA96
:10062000010C49084FEA300092185B4150EA01077B
:10063000EDD152EA030012D082EA040083EA0501F8
:10064000084305D0101BAB4106D20122002306E06F
:1006500000224FF0004302E06FF0010253101AEB4A
:1006600006004CEB085110EB0A0041EB0B01BDE812
:10067000F04D00F0F2B830B404469623080021464D
:1006800004D0B62330BC002200F09BB820460021E5
:10069000F8E70EB540F2334102910021CDE9001197
:1006A0000A460B4600F0E8F803B000BD0EB540F274
:1006B000334202920022CDE90022134600F0DCF81A
:1006C00003B000BD00F0004230F000400AD0C10D80
:1006D00001F56071C0F3160042EA0151C2084007FB
:1006E0001143704700200146704701F0004330B4C9
:1006F00021F0004150EA010206D00A0DA2F5607215
:10070000C1F31301002A02DC30BC00207047440F03
:1007100044EAC104C100E01830BC00EBC25000F054
:1007200047B830B50B46014600202022012409E0DD
:1007300021FA02F59D4205D303FA02F5491B04FA9A
:1007400002F52844151EA2F10102F1DC30BD202A79
:1007500004DB203A00FA02F1002070479140C2F118
:10076000200320FA03F3194390407047202A04DB4A
:10077000203A21FA02F00021704721FA02F3D0401A
:10078000C2F120029140084319467047202A06DB37
:10079000CB17203A41FA02F043EAE07306E041FA4F
:1007A00002F3D040C2F1200291400843194670473D
:1007B0000029A8BF7047401C490008BF20F0010075
:1007C000704710B4B0FA80FC00FA0CF050EA010453
:1007D00004BF10BC704749B1CCF1200421FA04F4E5
:1007E00011FA0CF118BF012121430843A3EB0C01BE
:1007F000CB1D4FEA00614FEA102042BF002010BC21
:10080000704700EBC35010440029A4BF10BC7047D0
:10081000401C490008BF20F0010010BC704710B513
:1008200041000CD0C0F3C751962908DC7E2909DCB1
:1008300006DB410204D000F0004040F07E5010BDC5
:10084000002010BDC1F19604C4F1200100FA01F1AD
:10085000E040FFF7ADFFA04010BD10B5141E73F1CE
:10086000000408DA401C41F1000192185B411A4370
:1008700001D120F0010010BD2DE9F04D92469B46BC
:1008800011B1B1FA81F202E0B0FA80F22032904662
:10089000FFF75DFF04460F4640EA0A0041EA0B01FC
:1008A00053465A46084313D0114653EA010019D063
:1008B000C8F140025046FFF759FF05460E46504624
:1008C00059464246FFF743FF084305D0012004E0A4
:1008D00020463946BDE8F08D0020054346EAE07623
:1008E0002C4337430A986305E40AA0EB0800002272
:1008F000FD0A44EA47540A3002D500200146E9E7E0
:10090000010510196941DDE9084500196941BDE893
:10091000F04DA2E7C1F30A52C1F3130140F2FF33D5
:1009200041F480119A4202DA00200146704740F2F9
:1009300033439A42A2F2334202DC5242FFF716BF1F
:10094000FFF705BF30B5041E71F1000404DB4FF062
:100950000044404264EB0101141E73F1000405DB06
:100960001C464FF00043524263EB0403994208BF18
:10097000904230BD064C074D06E0E06840F00103B0
:1009800094E8070098471034AC42F6D3FFF712FC06
:10099000D8180208F818020870B58C1810F8015B16
:1009A00015F0070301D110F8013B2A1106D110F808
:1009B000012B03E010F8016B01F8016B5B1EF9D10C
:1009C0002B0705D40023521E0DD401F8013BFAE792
:1009D00010F8013BCB1A921C03E013F8015B01F8FD
:1009E000015B521EF9D5A142D8D3002070BD000092
:1009F0002DE9F041044600270D46006808F07CF818
:100A00000646206808F070F8304359D02068C16865
:100A10002C4E890105D5617E012902D1217E012953
:100A20000BD0022D1DD0206808F066F8B8B1206800
:100A30008168C1F3400169B111E00125224902E05A
:100A40008F422ED27F1C0268D2435206F8D4402136
:100A50000160E8E78168314041F010018160012DBB
:100A600011D0206808F040F848B120688168C1F3CF
:100A7000400121B98168314041F020018160022D9F
:100A800008D0032D04D0042506F0E4F8064613E050
:100A90000C25F9E70825F7E706F0DCF8801B0528A8
:100AA0000AD9A06D40F01000A065E06D40F0010093
:100AB000E0650120BDE8F081206880682842EBD124
:100AC0000020F7E7C0FFFF7F000040A310B5846A55
:100AD000A16D11F0500F06D0A16DC90625D5204695
:100AE00005F0B0FA10BDA06D40F40070A06520685C
:100AF0000168090716D508F007F878B12068C068C2
:100B0000800400280ADBA06D20F48070A065A06D31
:100B1000C00403D4A06D40F00100A065204605F09C
:100B20004DFA10BDC0688007EBE7216D496BBDE849
:100B30001040084710B5806A816D41F04001816521
:100B4000C16D41F00401C16505F07CFA10BD10B51E
:100B5000806A05F055FA10BD70B5044600688168DA
:100B60008268C1F3400112F0010F24D019BB8168E3
:100B700001F00D01012910D18168104A1140891C32
:100B8000816021680320086006F064F805460EE0E5
:100B900006F060F8401B022809D9A06D40F0100053
:100BA000A065E06D40F00100E065012070BD2068A7
:100BB0008068C007ECD1002070BD0000C0FFFF7F3F
:100BC00070B504460068816811F0010F28D1816872
:100BD000144A114215D18168D5432940491C8160CE
:100BE00006F038F8064616E0816811F0010F03D1CF
:100BF00081682940491C816006F02CF8801B02287E
:100C000009D9A06D40F01000A065E06D40F0010032
:100C1000E065012070BD20680168C943C907E3D1C0
:100C2000002070BD3F0000802DED048B82B00020BD
:100C3000ADF800009FED168B9FED179B184C4FF4FD
:100C40007A75184804F098FE6421164804F01CFEDA
:100C50000121144804F000FEADF80000114804F032
:100C600001FFBDF80000FFF714FD53EC182BFFF750
:100C700021FC53EC192BFFF71DFCFFF736FD00EEAE
:100C8000100A284684ED070A0CF084FDD9E700001D
:100C9000B4D934E70C684A3F00000000000024404B
:100CA00058010020580600208AB09FED8E0A8F4C14
:100CB0008DED030A8DED010A8DED040A8DED050A17
:100CC0008DED060ADFF820928DED000A4FF0000A44
:100CD000A4F180054FF0010B04F180064FF0FF31C5
:100CE000F06D0EF0D1FB95F82C00012802D00228FF
:100CF00028D04FE07E4A002001464FF4007802F5EC
:100D000040634F4632F810C000EE10CA07EB810C6A
:100D1000B8EE400A8CED000A02EB400C801CBCF8D7
:100D200002C080B200EE10CA03EB810C491CB8EE81
:100D3000400A89B240458CED000AE3D3A089401CEB
:100D4000A08127E06A4A4FF40070002102F5406C50
:100D50004FF480684FEA090332F8107000EE107A01
:100D600003EB8107B8EE400A87ED000A02EB40076B
:100D7000801C7F8880B200EE107A0CEB8107491C42
:100D8000B8EE400A89B2404587ED000AE4D3E08915
:100D9000401CE0814FF4807707AA394652480CF096
:100DA000F9F9514A3B46114601F62C100CF0A0F817
:100DB0000020504B01464A4602EB800C001D9CED82
:100DC000000A03EB810C491C80B28CED000A89B249
:100DD000FF28F1D9474A4023114601F580700CF0F5
:100DE00087F8444A4023114601F5AC700CF080F8B6
:100DF00003AA40213F480CF0CDF901AA39463E48EC
:100E00000CF0C8F902AB06AA40213A480CF000F9F0
:100E100002AB04AA394638480CF0FAF802AB6A462D
:100E2000402134480CF06CF902AB05AA394632482F
:100E30000CF066F9314F00231A4603A9F86D0EF045
:100E400089F900231A4601A9B86E0EF083F994EDD2
:100E5000100ADDED061AD4ED0F0AB0EE401A803705
:100E600001EEA01A00231A4604A984ED111A9DED83
:100E7000001A01EE200A84ED120A78680EF06AF971
:100E800000231A4605A9B8680EF064F91C490798B2
:100E9000884202DD85F802B001E085F802A094EDF9
:100EA0001D0ADDED010A94ED1C1A164900EE810AB7
:100EB00010EE100A884202DB85F804A001E085F8F4
:100EC00004B00D480DF080FC00231A461946306E20
:100ED0000EF040F900231A461946B06E0EF03AF9AA
:100EE000FCE6000000000000200F0020D8000020D9
:100EF000200700202017002020130020D801002008
:100F000000007A45CDCC6C40FEE700004C4FDFF886
:100F1000348101264C4C002594F82B0058BB4FF42B
:100F200000614FF0904005F087FE0028E07C0DD076
:100F3000052807D9E67525766576A576A4F86A5062
:100F4000E574A57794F82B0018B114E0401CE07408
:100F5000F8E74FF48071384605F06EFE0028207DDA
:100F60000DD0052807D9E57526766576A576A4F80F
:100F70006A502575A57794F82A0018B12CE0401C1A
:100F80002075F8E70821384605F056FE0028607DF8
:100F90000DD0052807D9E57525766676A576A4F8DF
:100FA0006A506575A57794F82A0018B114E0401CC2
:100FB0006075F8E74FF40071384605F03DFE0028F3
:100FC000A07D17D0052807D9E57525766576A67624
:100FD000A4F86A50A575A5778021404605F02CFE3F
:100FE0000028B4F86A0008D0C01E612818D2207FFB
:100FF00098B115E0401CA075EEE7401C80B2A4F843
:101000006A00642818D394F82900A8B9E5752576F4
:101010006576A576E57626770CE094F8290020B170
:1010200094F82900012805D006E0E5752576657657
:10103000A576E676A4F86A500A200CF0ABFB6BE7C5
:101040000004004800080048580000202DED088BDF
:1010500084B000209FED6D0A00908DED000AADF880
:1010600004006B4E9FED6B9B9FED6CAB6D4DA5F13E
:101070008004DFED6D8A5E2165480CF0ECF8B6F86F
:10108000C200B0EE408AADF80400B6F8B20038B93C
:101090003E215F480CF0DFF885ED040A84ED170A65
:1010A000B6F9B200012806D0022814D0032817D0C0
:1010B000042852D037E018EE100AFFF703FB41EC8A
:1010C000100B51EC190B53EC102BFFF765FA41ECA8
:1010D0001B0B606B1AE094ED060A84ED170A22E000
:1010E00018EE100AFFF7EEFA41EC100B51EC190B59
:1010F00053EC102BFFF750FA41EC1B0BBDF804002A
:101100004A4900EB800001EBC0004069FFF7DAFAC2
:1011100053EC1B2BFFF7CEF953EC1A2BFFF723F9F7
:10112000FFF7E3FAE06594ED170A95ED051A002242
:1011300060EE280A95ED060A11463D4800EE810A48
:10114000BCEEC00A8DED000A10EE103A05F020FA50
:101150005FF064000CF01EFB8DE718EE100AFFF73D
:10116000B1FA41EC100B51EC190B53EC102BFFF7BB
:1011700013FA9FED301B53EC112BFFF7F4F8FFF738
:10118000B4FA00EE100A002284ED170A60EE280A75
:1011900095ED051A95ED060A1146254800EE810ADF
:1011A000BCEEC00A8DED000A10EE103A05F0F0F921
:1011B00001200CF0EFFA18EE100AFFF783FA41EC69
:1011C000100B51EC190B53EC102BFFF7E5F953EC16
:1011D0001A2BFFF7C8F8FFF788FA00EE100A002272
:1011E00084ED170A60EE280A95ED051A95ED060ABA
:1011F00011460F4800EE810ABCEEC00A8DED000AD0
:1012000010EE103A05F0C4F91320A3E70000000027
:10121000FC1800200000000000003040000000002A
:10122000000010405801002000004C43A83200206C
:10123000080700200000000000002440014805F0DD
:1012400024BA0000C0060020014805F01EBA0000C4
:10125000A4430020014805F018BA00005C430020B8
:10126000014805F012BA000084420020014805F050
:101270000CBA00003C420020014805F006BA00000C
:10128000CC420020014805F000BA000014430020C1
:10129000014805F0FAB90000F4410020014805F0CA
:1012A000F4B90000AC41002030B590F8444004F09F
:1012B0001C050124AC40056C6C60046863608368A5
:1012C000102B036803D099600068C26030BD9A603B
:1012D0000068C16030BD00002DED028B82B04FF080
:1012E000000B8DF804B09FEDFE8A8DED018ADFEDD5
:1012F000FD8ADFF8F4A3FD4FFB4C6846803C94ED7B
:10130000090A0BF0A0FFBDF8000027F85C0BBDF840
:101310000200A4F1800527F85A0CA87827F8480C99
:10132000684694ED0C0A0BF08EFFBDF8000027F81C
:10133000300CBDF8020027F82E0C684694ED0D0A1B
:101340000BF081FFBDF8000027F82C0CBDF802005F
:1013500027F82A0C684694ED0E0A0BF074FFBDF8CE
:10136000000027F8280CBDF8020027F8260C04F529
:1013700000708046006A98F8241027F8200C000CB2
:1013800040EA014027F81E0CB5F8480027F81C0C6D
:10139000684694ED060A0BF056FFBDF8000027F8EA
:1013A000140CBDF8020027F8120C28793880684622
:1013B000D14656469AED000A0BF045FFBDF80000F5
:1013C0007882BDF80200B882684694ED080A0BF0F6
:1013D0003AFFBDF800003883BDF80200788394ED31
:1013E000080AD4ED070A684630EE600A0BF02BFFBE
:1013F000BDF80000B883BDF80200F8836088B884A7
:10140000B5F844003886B5F8460078866879F886DD
:10141000684696ED030A0BF016FFBDF8000038870A
:10142000BDF802007887684696ED020A0BF00BFFC4
:10143000BDF80000B887BDF80200F887D8E9062398
:10144000D8E904015C3F161A73EB010608D2801A32
:1014500061EB0301FFF70FF900EE100A684602E0A6
:101460006846B0EE480A0BF0EEFEBDF8000027F823
:101470009C0FBDF802007880B5F85800B880B5F828
:101480005A00F880287A3881E8797881B5F87400B4
:1014900027F8120FA8466846CA464E4699ED070A35
:1014A0000BF0D1FEBDF80000F882BDF802009049B3
:1014B0003883684691ED000A0BF0C5FEBDF80000C8
:1014C0003884BDF8020078846846B0EE680A0BF0F4
:1014D000BAFEBDF80000B884BDF80200F884B5F883
:1014E0004000A7F842006846A14694ED110A1E3755
:1014F0000BF0A9FEBDF800003885BDF80200788524
:10150000684694ED130A0BF09EFEBDF80000B88506
:10151000BDF80200F885684694ED150A0BF093FEBD
:10152000BDF800003886BDF80200788694ED110AF7
:10153000D4ED120A684630EE600A0BF084FEBDF866
:101540000000B886BDF80200F88694ED130AD4EDC9
:10155000140A684630EE600A0BF075FEBDF8000014
:101560003887BDF80200788794ED150AD4ED160A85
:10157000684630EE600A0BF066FEBDF80000B887E2
:10158000BDF80200F887684696ED0E0A0BF05BFE88
:10159000BDF80000A7F84400BDF80200A7F8460017
:1015A000E87FCC3F002876D15FF0000606EB86028C
:1015B00007EBC2044F4894F8201100EBC20500F875
:1015C000321094F822116970B4F82401A88094F8BC
:1015D0002601A87094F82801A871B4F82A0128817E
:1015E00004F5967000210BF036FE85ED030A04F534
:1015F000987000210BF02FFE85ED040AA87920B128
:10160000012810D004280ED020E095ED050A3A49B3
:10161000BDEEC00A10EE100AA4F8340110EE100A54
:1016200021F8260017E095ED050A68460BF00BFE41
:10163000BDF80020A4F834212F48BDF80210A4F80A
:10164000361120F8262000EB86004180A879022878
:10165000DBD00328D9D004F59C7000210BF0FBFDF2
:1016600085ED080A04F59E7000210BF0F4FD85ED70
:10167000090A04F5A07000210BF0EDFD85ED060AC6
:1016800004F5A27000210BF0E6FD761CB6B285EDE4
:10169000070A282E8AD3B7F9D600A0F58071E13960
:1016A00011D1A7F8D6B00DF0E7F910480DF012FCF3
:1016B0008DF804000CF04EFB0DF0FEF900200BF04D
:1016C00085FF03F0F3FDB7F9D61045F23340C14270
:1016D0007BD1A7F8D6B068464C4699ED0F0A0DE0CD
:1016E00000000000D578AD4058010020FC18002013
:1016F00024000020A83200205C2000200BF0A3FD75
:10170000BDF80000F883BDF802003884684694ED07
:10171000100A0BF098FDBDF800007884BDF80200B7
:10172000B88498F80310684600EE101AB8EE400A24
:101730000BF089FDBDF80000F884BDF80200388583
:10174000684694ED1C0A0BF07EFDBDF80000A7F87A
:101750006600BDF80200A7F86800684694ED1D0A0F
:101760000BF071FDBDF80000A7F86A00BDF802009B
:10177000A7F86C00684654469AED050A0BF063FD25
:10178000BDF80000A7F8B400BDF80200A7F8B60045
:10179000684694ED060A0BF056FDBDF80000A7F868
:1017A000B800BDF80200A7F8BA000DF065F93E4890
:1017B0000DF090FB8DF804000CF0CCFA0DF07CF9E4
:1017C00000200BF003FF03F071FDB7F9D80042F2DF
:1017D0004631C8420AD098F81F1019B9B8F87E00EF
:1017E000012803D00A200BF0D5FF85E559463C4679
:1017F000A7F8D8B000204FF46C720BE00F280BD084
:10180000112809D0332807D0352805D05A2803D00D
:101810005C2801D024F81010401C80B29042EDD317
:101820000A2024F8C80F44F6206060826846B3EEB0
:10183000060A0BF008FDBDF80000A082BDF802000A
:10184000E0826846B3EE0A0A0BF0FDFCBDF800002A
:101850002083BDF80200608368469FED140A0BF0F8
:10186000F2FCBDF8000024F8460CBDF8021024F884
:10187000441C24F8400C24F83E1C6080A1806420A5
:10188000E08409480DF026FB8DF80400BFF34F8F6C
:1018900007480168074A01F4E06111430160BFF3A2
:1018A0004F8F00BFFDE70000FC1800200000E1475B
:1018B0000CED00E00400FA05704700001FB59FED35
:1018C000270A274D8DED010A8DED020A8DED000AE4
:1018D0004FF0FF3705F18006A5F180043946686EA8
:1018E0000DF0D2FD1F494022084607F081F81D4A3D
:1018F0004023114601F5D8700BF0FAFA01AA4021F5
:1019000018480BF047FC03AB02AA402115480BF026
:101910007FFB03AB6A46402112480BF0F1FB00232A
:101920001A4601A9706E0DF015FC94ED100ADDED5C
:10193000021AD4ED0F0AB0EE401A002301EEA01AED
:101940001A46194684ED151A9DED001A01EE200A7B
:1019500084ED160A286F0DF0FDFBBFE700000000C4
:1019600058010020201700208CB00122D1034FF035
:10197000904005F06AF90CF0C5FC01200CF0B2FCB7
:101980000BF042FC0CF030FDDFF80C84B8F9DA0003
:1019900000EBD07040100BF0FDFE01200BF016FEA6
:1019A000DFF8F893DFF8F8B3FE4FFF4D4FF0000A71
:1019B000A87C012803D0687F012806D011E0002010
:1019C0000CF090FC0BF060FE56E095F82E0001281C
:1019D00018D0022816D0032814D0042812D00528C5
:1019E0003DD0B5F86E0001284AD002284FD0032818
:1019F00054D0042857D0052858D006285FD007288F
:101A00005DD058E000200CF06DFC002108460CF081
:101A1000E5FC5C460123D4E90012E4A00CF082FD51
:101A2000D7E900120123E3A00CF07CFD0F21002078
:101A30000CF0D4FCD4E900120123DFA00CF072FDFD
:101A40001E2100200CF0CAFCD4E900120123DCA006
:101A50000CF068FDD7E900120123DAA00AE00020AB
:101A60000CF040FC0F2100200CF0B8FCDBE9001268
:101A70000123D5A00CF056FD0CF0B6FC03F01CBB06
:101A800095F8251009B1062113E0092111E095F818
:101A9000251009B108210CE001210AE095F8251074
:101AA00031B9282105E095F8251009B1042100E09D
:101AB000022185F82210E97D012902D00FE00321DF
:101AC000F7E7B5F8721051B1EA7F42B9491EA5F89F
:101AD000721085F817A085F81BA085F820A0297E34
:101AE000012910D1B5F8721095F8222091420AD23E
:101AF000EA7F42B9491CA5F8721085F818A085F84C
:101B00001BA085F820A0697E012927D130B3E97E8A
:101B100021BBE97F11BB03280CD1B5F8720048B195
:101B2000B5F8700010B1401EA5F87000504685F859
:101B300019A011E0B5F86C0010B1401EA5F86C00BA
:101B4000A348B5F86C1030F81100A5F86E0085F8C0
:101B500019A05046A5F872A085F82000A87E01289B
:101B600001D1E87E18B1E87E01282FD03AE0E87F65
:101B700058BBB5F86E0003280FD1B5F8720060B1FC
:101B8000B5F87000282804D20C2802D2401CA5F811
:101B90007000504685F81AA015E0B5F87C10B5F82D
:101BA0006C00491E884202DA401CA5F86C00884887
:101BB000B5F86C1030F81100A5F86E0085F81AA081
:101BC0005046A5F872A085F820000BE0B5F8720029
:101BD00040B1E87F20B10020E87785F81BA012E033
:101BE0000120F9E7287F01280DD1B5F8720050B91E
:101BF00095F8250058B1002085F8250085F81CA02F
:101C0000012085F82900E87D012802D00CE00120A0
:101C1000F2E7E87F012807D195F8200010B1401EB7
:101C200085F8200085F817A0287E012809D1E87FD3
:101C3000012806D195F82000012085F8200085F8BC
:101C400018A0287F01280DD1B5F8720050B10CF012
:101C50003FFA85F81CA085F81BA085F825A0012077
:101C600085F82900B5F8760001287DD1B5F86E0019
:101C70000128FAD1B5F87200002876D10CF032FBB9
:101C8000002108460CF0AAFBD7E90012012351A05D
:101C90000CF048FCA878012805D095F8250088B3F9
:101CA000012842D065E095F8210050B1D7E9001233
:101CB000012349A00CF036FC95F82500012814D02A
:101CC00017E00F2100200CF089FB5C460123D4E9CA
:101CD000001242A00CF026FC1E2100200CF07EFB1E
:101CE000D4E9001201233FA0E4E7002137200CF0E3
:101CF000FAFC00213C200CF0F6FC2B213A200CF0E1
:101D000081FCA2E1FFE700200CF0ECFA002108467C
:101D10000CF064FBD7E9001201232EA00CF002FCAA
:101D200000211C200CF05AFB14E000200CF0DAFA21
:101D3000002108460CF052FBD7E90012012325A030
:101D40000CF0F0FB00211C200CF048FB0021372098
:101D50000CF0C9FC00213C200CF0C5FC2B213A20E2
:101D60000CF050FC0F2101E0F5E176E100200CF0D1
:101D700035FB0D4C80342088012851D112221BA143
:101D800002A8FEF7E4FA122102A80CF0E1FB2021E0
:101D900000200CF023FB33E0FC180020A8320020C8
:101DA000000000200800002058000020CEE1EDEEE9
:101DB000E20000002D000000EBE5EDE8E50000008A
:101DC000CFCE00002E2E2E00D3D1CFC5D8CDCE0041
:101DD000F83A00204943500020000000CEC1D0DB7B
:101DE000C2000000C4C0D2D7C8CAC000D1CAC72030
:101DF000E2E8E1F0EEF3F1EAEEF0E5EDE8FF0000F5
:101E0000206BFEF75FFCCDE90001FDA24021FE48FA
:101E10000AF042FBD7E900120123FB480CF082FBD9
:101E2000208802281CD11122F8A102A8FEF78FFAFF
:101E3000112102A80CF08CFB202100200CF0CEFA1E
:101E4000606BFEF73FFCCDE90001EDA24021EE48BA
:101E50000AF022FBD7E900120123EB480CF062FBE9
:101E6000208803281CD11422EDA102A8FEF76FFAE6
:101E7000142102A80CF06CFB202100200CF0AEFA1B
:101E8000A06BFEF71FFCCDE90001DDA24021DE487A
:101E90000AF002FBD7E900120123DB480CF042FBF9
:101EA000208804281CD11422E3A102A8FEF74FFACF
:101EB000142102A80CF04CFB202100200CF08EFA1B
:101EC000606CFEF7FFFBCDE90001CDA24021CE48BA
:101ED0000AF0E2FAD7E900120123CB480CF022FB0A
:101EE000208805281CD11722DAA102A8FEF72FFAB4
:101EF000172102A80CF02CFB202100200CF06EFA18
:101F0000E06CFEF7DFFBCDE90001BDA24021BE4839
:101F10000AF0C2FAD7E900120123BB480CF002FB19
:101F2000208806281CD11422D0A102A8FEF70FFA9F
:101F3000142102A80CF00CFB202100200CF04EFA1A
:101F4000606DFEF7BFFBCDE90001ADA24021AE48B8
:101F50000AF0A2FAD7E900120123AB480CF0E2FA2A
:101F60002088072823D11422C7A102A8FEF7EFF981
:101F7000142102A80CF0ECFA202100200CF02EFA1B
:101F800094ED110AD4ED120A30EE600A10EE100A38
:101F9000FEF798FBCDE9000199A240219A480AF08A
:101FA0007BFAD7E90012012397480CF0BBFA20888E
:101FB000082823D11422BAA102A8FEF7C8F91421D7
:101FC00002A80CF0C5FA1E2100200CF007FA94EDCF
:101FD000130AD4ED140A30EE600A10EE100AFEF770
:101FE00071FBCDE9000186A2402187480AF054FA2E
:101FF000D7E90012012384480CF094FA20880928BC
:1020000023D11422ACA102A8FEF7A1F9142102A841
:102010000CF09EFA202100200CF0E0F994ED150A56
:10202000D4ED160A30EE600A10EE100AFEF74AFBF5
:10203000CDE9000172A2402173480AF02DFAD7E9D8
:102040000012012370480CF06DFA85F81FA085F886
:102050002AA0B5F86E0001287DD1B5F872000128DC
:1020600048D195F82500002876D10CF03BF90021E5
:1020700008460CF0B3F90123AFF2A820D7E900120B
:102080000CF050FA00211C200CF0A8F90021372098
:102090000CF0F1FA00213C200CF025FB0F21002070
:1020A0000CF09CF91222AFF2BC2102A8FEF74FF906
:1020B000122102A80CF04CFA202100200CF08EF91D
:1020C0008348006BFEF7FEFACDE9000181A24021B2
:1020D0004D480AF0E1F9D7E9001201234A480CF013
:1020E00021FA85F81FA0012085F82A00B5F86E00B6
:1020F0000128B1D1B5F8720002284AD195F825001F
:10210000002879D10CF0EEF8002108460CF066F9B1
:102110000123AFF24030D7E900120CF003FA00219E
:102120001C200CF05BF9002137200CF0A4FA0021F0
:102130003C200CF0D8FA0F2100200CF04FF91122AE
:1021400032A102A8FEF703F9112102A80CF000FA4F
:102150002021002001E05AE1B3E20CF03FF95C4895
:10216000406BFEF7AFFACDE900015AA240212648A4
:102170000AF092F9D7E90012012323480CF0D2F9B2
:1021800085F81FA0012085F82A00B5F86E00012807
:10219000AFD1B5F8720003282FD195F8250000289B
:1021A0002CD10CF09FF8002108460CF017F9012300
:1021B000AFF2E030D7E900120CF0B4F900211C2096
:1021C0000CF00CF9002137200CF055FA00213C20CE
:1021D0000CF089FA0F2100200CF000F9142210A154
:1021E00002A8FEF7B4F8142102A80CF0B1F92021DE
:1021F00000200CF0F3F871E0BAE28AE010E300008E
:10220000252E303166000000063B0020D1CAC720D1
:10221000E2E8E1F0EEF1EAEEF0EEF1F2E8000000C3
:10222000D1CAC720E2E8E1F0EEEFE5F0E5ECE5F930
:10223000E5EDE8FF00000000C0ECEFEBE8F2F3E4AE
:10224000E020E2E8E1F0EEF3F1EAEEF0E5EDE8FFA0
:1022500000000000C0ECEFEBE8F2F3E4E020E2E87D
:10226000E1F0EEF1EAEEF0EEF1F2E800C0ECEFEBB7
:10227000E8F2F3E4E020E2E8E1F0EEEFE5F0E5EC8F
:10228000E5F9E5EDE8FF0000D0E0E7ECE0F520E25D
:10229000E8E1F0EEF3F1EAEEF0E5EDE8FF00000032
:1022A000D0E0E7ECE0F520E2E8E1F0EEF1EAEEF074
:1022B000EEF1F2E800000000D0E0E7ECE0F520E20B
:1022C000E8E1F0EEEFE5F0E5ECE5F9E5EDE8FF003B
:1022D000D8000020252E303366000000FE48806BB9
:1022E000FEF7F0F9AFF21402CDE900014021FB48FE
:1022F0000AF0D2F8D7E900120123F8480CF012F9DD
:1023000085F81FA0012085F82A00B5F86E00012885
:102310007DD1B5F87200042845D195F82500002834
:1023200076D10BF0DFFF002108460CF057F80123AF
:10233000AFF26050D7E900120CF0F4F8002137201A
:102340000CF099F900213C200CF0CDF90F21002070
:102350000CF044F81822AFF2201102A8FDF7F7FFA5
:10236000182102A80CF0F4F8202100200CF036F817
:10237000D948406CFEF7A6F9AFF2A802CDE90001FA
:102380004021D6480AF088F8D7E900120123D34843
:102390000CF0C8F885F81FA0012085F82A00B5F8D0
:1023A0006E000128B4D1B5F87200052848D195F81F
:1023B000250000287ED10BF095FF002108460CF087
:1023C0000DF80123AFF2F450D7E900120CF0AAF88F
:1023D000002137200CF04FF900213C200CF083F94C
:1023E0000F2100200BF0FAFF1722AFF2981102A87C
:1023F000FDF7ADFF172102A80CF0AAF8202100205C
:102400000BF0ECFFB448C06CFEF75CF901E053E25E
:102410005EE2AFF24012CDE900014021AF480AF080
:102420003BF8D7E900120123AC480CF07BF885F8A3
:102430001FA0012085F82A00B5F86E000128B1D14F
:10244000B5F87200062847D195F8250000287CD100
:102450000BF048FF002108460BF0C0FF0123AFF24C
:102460008C60D7E900120CF05DF8002137200CF0E9
:1024700002F900213C200CF036F90F2100200BF06E
:10248000ADFF1A22AFF21C2102A8FDF760FF1A214E
:1024900002A80CF05DF8202100200BF09FFF8E4871
:1024A000406DFEF70FF9AFF2D412CDE900014021E3
:1024B0008A4800E052E209F0EFFFD7E90012012359
:1024C00086480CF02FF885F81FA0012085F82A0017
:1024D000B5F86E000128B2D1B5F8720007284ED1C8
:1024E00095F825000028AAD10BF0FCFE0021084633
:1024F0000BF074FF0123AFF22470D7E900120CF047
:1025000011F8002137200CF0B6F800213C200CF027
:10251000EAF80F2100200BF061FF1522AFF298219D
:1025200002A8FDF714FF152102A80CF011F82021D4
:1025300000200BF053FF684890ED110AD0ED120A0D
:1025400030EE600A10EE100A00E056E2FEF7BAF82C
:10255000AFF28022CDE900014021604809F09CFFE4
:10256000D7E9001201235D480BF0DCFF85F81FA0BE
:10257000012085F82A00B5F86E000128ABD1B5F826
:10258000720008284CD195F825000028A3D10BF043
:10259000A9FE002108460BF021FF0123AFF2CC7009
:1025A000D7E900120BF0BEFF002137200CF063F8D2
:1025B00000213C200CF097F80F2100200BF00EFFBB
:1025C0001422AFF2243102A8FDF7C1FE142102A8A3
:1025D0000BF0BEFF202100200BF000FF3E4890EDE5
:1025E000130AD0ED140A30EE600A10EE100AFEF75E
:1025F00069F8AFF22032CDE900014021374809F0F7
:102600004BFFD7E90012012334480BF08BFF85F80C
:102610001FA0012085F82A00B5F86E000128ADD171
:10262000B5F87200092848D195F825000028A5D1F1
:102630000BF058FE002108460BF0D0FE0123AFF648
:102640006C00D7E900120BF06DFF002137200CF071
:1026500012F80F2100200BF0C1FE1722AFF2A831B3
:1026600002A8FDF774FE172102A80BF071FF2021CC
:1026700000200BF0B3FE184890ED150AD0ED160AB5
:1026800030EE600A10EE100AFEF71CF8AFF2BC3212
:10269000CDE900014021114809F0FEFED7E9001202
:1026A00001230E480BF03EFF85F81FA0012085F89E
:1026B0002A00B5F86E000128B1D1B5F872000128E2
:1026C00052D195F825000128A9D100200BF00AFE6F
:1026D0000021084604E00000D8000020063B00204E
:1026E0000BF07CFE0123AFF61410D7E900120BF0BB
:1026F00019FF002132200BF0BEFF002137200BF024
:10270000F2FF00213C200BF0EEFF0F2100200BF028
:1027100065FE1822F8A102A8FDF719FE182102A8EB
:102720000BF016FF202100200BF058FEE87F012857
:10273000F84814D0B0F90030F7A24021F74809F06A
:10274000ABFED7E900120123F4480BF0EBFE0120A9
:1027500085F82A00B5F86E00012805D08AE10AF054
:10276000D5FE85F82AA0F5E7B5F87200022853D106
:1027700095F825000128F1D100200BF0B3FD0021D0
:1027800008460BF02BFE0123AFF6B810D7E9001274
:102790000BF0C8FE002132200BF06DFF0021372026
:1027A0000BF0A1FF00213C200BF09DFF0F2100202A
:1027B0000BF014FE1922DAA102A8FDF7C8FD1921B9
:1027C00002A80BF0C5FE202100200BF007FEE87FD9
:1027D00001281AD0CF48806AFDF774FFAFF2E052AB
:1027E000CDE900014021CD4809F056FED7E900129D
:1027F0000123CA480BF096FE012085F82A0000BF8D
:10280000B5F86E00012807D034E1C24828300AF03C
:102810004DFD85F82AA0F3E7B5F87200032853D1DF
:1028200095F82500012899D100200BF05BFD0021CF
:1028300008460BF0D3FD0123AFF66820D7E900125C
:102840000BF070FE002132200BF015FF0021372025
:102850000BF049FF00213C200BF045FF0F21002029
:102860000BF0BCFD1122B5A102A8FDF770FD1121EE
:1028700002A80BF06DFE202100200BF0AFFDE87FD9
:1028800001281AD0A348C06AFDF71CFFAFF290627E
:10289000CDE900014021A14809F0FEFDD7E9001271
:1028A00001239E480BF03EFE012085F82A0000BF60
:1028B000B5F86E00012807D0DCE096482C300AF00D
:1028C000F5FC85F82AA0F3E7B5F87200042841D199
:1028D00095F8250001287DD100200BF003FD002193
:1028E00008460BF07BFD0123AFF61830D7E9001244
:1028F0000BF018FE002132200BF0BDFE0021372026
:102900000BF0F1FE00213C200BF0EDFE0F2100202A
:102910000BF064FD0D228EA102A8FDF718FD0D211C
:1029200002A80BF015FE202100200BF057FDEB78DC
:1029300079A24021794809F0AFFDD7E900120123BF
:1029400076480BF0EFFD012085F82A00B5F86E00FF
:1029500001283FD1B5F8720005284AD195F8250025
:10296000012837D100200BF0BDFC002108460BF0F8
:1029700035FD0123AFF6A430D7E900120BF0D2FDEC
:10298000002132200BF077FE002137200BF0ABFE48
:1029900000213C200BF0A7FE0F2100200BF01EFDB4
:1029A00014226FA102A8FDF7D2FC142102A80BF09B
:1029B000CFFD202100200BF011FD5648C06BFDF724
:1029C00081FECDE900016CA24021544809F064FD6C
:1029D000012300E04EE0D7E9001250480BF0A2FDC1
:1029E00085F81FA0012085F82A00B5F86E0001289F
:1029F00040D1B5F8720006283CD195F82500012891
:102A000038D100200BF06EFC002108460BF0E6FCEC
:102A10000123AFF64040D7E900120BF083FD0021FF
:102A200032200BF028FE0F2100200BF0D7FC1422DF
:102A300053A102A8FDF78BFC142102A80BF088FD1E
:102A4000202100200BF0CAFC3248006CFDF73AFE52
:102A5000CDE9000148A24021304809F01DFDD7E929
:102A6000001201232D480BF05DFD85F81FA0012009
:102A700085F82A00B5F8780001283CD1B5F86E0039
:102A80000228FAD1B5F8720098BB00200BF02AFC9E
:102A9000002108460BF0A2FCD7E9001201233EA05A
:102AA0000BF040FD2879012803D1B5F87800012802
:102AB0000FD095F8250018B1002137200BF013FE38
:102AC00000213C200BF00FFEB5F87600012867D0FE
:102AD00097E095F8210068B10123AFF60450D7E9DB
:102AE000001200BF0BF01EFD95F8250001286FD0E5
:102AF00072E0B3E055E02FE1CFE0F0E0ECE5F2F07A
:102B000020EDE020E3EBE0E2EDEEEC20ECE5EDFE85
:102B100000000000D800002025640000063B0020D3
:102B2000CFF0E5E4F3EFF0E5E4E8F2E5EBFCEDE00F
:102B3000FF20F3F1F2E0E2EAE0000000C0E2E0F0A2
:102B4000E8E9EDE0FF20F3F1F2E0E2EAE000000066
:102B5000D0E5E6E8EC20F4E8EBFCF2F0E000000061
:102B6000CAEEFDF4F4E8F6E8E5EDF220F3F1E8EB67
:102B7000E5EDE8FF00000000252E3035660000007E
:102B8000CAEEFDF4F4E8F6E8E5EDF220F1ECE5F943
:102B9000E5EDE8FF00000000342D323000000000B9
:102BA0002BE00F2100200BF019FC01235C46AFF64F
:102BB000D450D4E900120BF0B5FC1E2100200BF01C
:102BC0000DFC0123AFF6E450D4E900128AE7FFE7D9
:102BD000002137200BF087FD00213C200BF083FD06
:102BE000B5F87600012803D126213A200BF0B4FD78
:102BF0002B213A200BF006FD2AE026213A200BF08B
:102C0000ABFD2B213A200BF0FDFC0F2100200BF037
:102C1000E5FB1222FBA102A8FDF799FB122102A8F5
:102C20000BF096FC202100200BF0D8FBFA4800683E
:102C3000FDF748FDAFF66412CDE900014021F748E9
:102C400009F02AFCD7E900120123F4480BF06AFCD2
:102C500085F82AA0B5F86E0002287DD1B5F872007B
:102C600001287AD195F82500F0BB00200BF03AFB43
:102C7000002108460BF0B2FB0123AFF2E400D7E9D4
:102C800000120BF04FFC002137200BF0F4FC0F2159
:102C900000200BF0A3FBDBE900120123E0A00BF006
:102CA00041FC202100200BF099FBDB488038806933
:102CB000FDF708FDCDE90001DAA24021D74809F06F
:102CC000EBFBD7E900120123D4480BF02BFC85F86D
:102CD0001FA0012085F82A00B5F86E000228BCD19B
:102CE000B5F87200012800E000E059D195F8250000
:102CF0000128B2D100200BF0F5FA002108460BF0B4
:102D00006DFB0123AFF27010D7E900120BF00AFC43
:102D1000002132200BF0AFFC002137200BF0E3FC48
:102D200000213C200BF0DFFC0F2100200BF056FBB4
:102D30002522BEA102A8FDF70AFB252102A80BF05F
:102D400007FC202100200BF049FBE87F012820D060
:102D5000B1488038C06F01E032E221E0FDF7B2FCFB
:102D6000AFF66432CDE900014021AC4809F094FB94
:102D7000D7E900120123A9480BF0D4FB012085F804
:102D80002A0000BF0BF030FBB5F86E00022807D018
:102D9000B2E2A148001F0AF089FA85F82AA0F1E7FB
:102DA000B5F87200022855D195F825000128EFD119
:102DB00000200BF097FA002108460BF00FFB0123CF
:102DC000AFF22C20D7E900120BF0ACFB002132202F
:102DD0000BF051FC002137200BF085FC00213C203A
:102DE0000BF081FC0F2100200BF0F8FA262299A1AC
:102DF00002A8FDF7ACFA262102A80BF0A9FB2021BE
:102E000000200BF0EBFAE87F01281CD082488038C4
:102E1000806FFDF757FCAFF61842CDE90001402165
:102E20007E4809F039FBD7E9001201237B480BF0FB
:102E300079FB012085F82A000BF0D6FAB5F86E0070
:102E4000022807D058E2744808380AF02FFA85F8AB
:102E50002AA0F1E7B5F87200032853D195F82500B0
:102E6000012895D100200BF03DFA002108460BF017
:102E7000B5FA0123AFF2E020D7E900120BF052FBC4
:102E8000002132200BF0F7FB002137200BF02BFC48
:102E900000213C200BF027FC0F2100200BF09EFAB4
:102EA000202276A102A8FDF752FA202102A80BF0F9
:102EB0004FFB202100200BF091FAE87F01281AD067
:102EC00055488038006EFDF7FDFBAFF6CC42CDE9EA
:102ED00000014021514809F0DFFAD7E9001201232F
:102EE0004E480BF01FFB012085F82A00B5F86E0054
:102EF000022807D000E2484820380AF0D7F985F8C0
:102F00002AA0F3E7B5F87200042853D195F82500FC
:102F1000012897D100200BF0E5F9002108460BF0BD
:102F20005DFA0123AFF29030D7E900120BF0FAFA04
:102F3000002132200BF09FFB002137200BF0D3FB48
:102F400000213C200BF0CFFB0F2100200BF046FAB4
:102F5000182253A102A8FDF7FAF9182102A80BF0D4
:102F6000F7FA202100200BF039FAE87F01281AD067
:102F700029488038806EFDF7A5FBAFF67C52CDE97D
:102F800000014021254809F087FAD7E90012012302
:102F900022480BF0C7FA012085F82A00B5F86E0028
:102FA000022807D0A8E11C4818380AF07FF985F8F4
:102FB0002AA0F3E7B5F8720005287FD195F825001F
:102FC000012897D100200BF08DF9002108460BF065
:102FD00005FA0123AFF24040D7E900120BF0A2FA44
:102FE000002132200BF047FB002137200BF07BFB48
:102FF00000213C200BF077FB0F2100200BF0EEF9B5
:1030000021225CE0D0E0F1F7E5F2EDEEE520E7ED1E
:10301000E0F7E5EDE8E5000058010020063B002060
:10302000D2EEEA00252E303266000000CDE8E6ED53
:10303000E8E920EFF0E5E4E5EB20E4E8E0EFE0E7A5
:10304000EEEDE020E4EBFF20EFE5F0E5F1F7E5F24F
:10305000E0000000C2E5F0F5EDE8E920EFF0E5E47E
:10306000E5EB20E4E8E0EFE0E7EEEDE020E4EBFF65
:1030700020EFE5F0E5F1F7E5F2E00000D3F1F2E052
:10308000E2EAE020EDE8E6EDFFFF20EFF0E5E4F313
:10309000EFF0E5E4E8F2E5EBFCEDE0FF0000000016
:1030A000D3F1F2E0E2EAE020EDE8E6EDFFFF20E018
:1030B000E2E0F0E8E9EDE0FF0000000030E0FDA113
:1030C00002A8FDF744F9212102A80BF041FA2021C2
:1030D00000200BF083F9E87F01281AD0FE48406EEB
:1030E000FDF7F0FAAFF6E862CDE900014021FB48B8
:1030F00009F0D2F9D7E900120123F8480BF012FACF
:10310000012085F82A0000BFB5F86E00022807D01C
:10311000F2E0F14864300AF0C9F885F82AA0F3E734
:10312000B5F87200062853D195F82500012847D13B
:1031300000200BF0D7F8002108460BF04FF90123CF
:10314000AFF2AC50D7E900120BF0ECF900213220BD
:103150000BF091FA002137200BF0C5FA00213C203A
:103160000BF0C1FA0F2100200BF038F91922DCA175
:1031700002A8FDF7ECF8192102A80BF0E9F92021CB
:1031800000200BF02BF9E87F01281AD0D248C06E3E
:10319000FDF798FAAFF69872CDE900014021CF48CB
:1031A00009F07AF9D7E900120123CC480BF0BAF9FB
:1031B000012085F82A0000BFB5F86E00022807D06C
:1031C0009AE0C5486C300AF071F885F82AA0F3E758
:1031D000B5F8720007284AD195F8250001287DD15D
:1031E00000200BF07FF8002108460BF0F7F80123D0
:1031F000AFF25C60D7E900120BF094F900213220A5
:103200000BF039FA002137200BF06DFA00213C2039
:103210000BF069FA0F2100200BF0E0F81422AFF256
:10322000C06102A8FDF793F8142102A80BF090F9F1
:103230001E2100200BF0D2F8A748006FFDF742FADC
:10324000AFF2CC62CDE900014021A44809F024F995
:10325000D7E900120123A1480BF064F985F81FA0FB
:10326000012085F82A00B5F86E00022844D1B5F88F
:103270007200082840D195F8250001283CD1002093
:103280000BF030F8002108460BF0A8F80123AFF24C
:10329000F860D7E900120BF045F9002132200BF05D
:1032A000EAF90F2100200BF099F81422AFF23071E7
:1032B00002A8FDF74CF8142102A80BF049F91E21D1
:1032C00000200BF08BF88448406FFDF7FBF9AFF25C
:1032D0005872CDE900014021804800E00CE009F07F
:1032E000DBF8D7E9001201237C480BF01BF985F8C5
:1032F0001FA0012085F82A00B5F87A00012801D026
:1033000002287BD1B5F86E00032841D1B5F87200D0
:10331000F0BB00200AF0E6FF002108460BF05EF843
:10332000D7E90012012375A00BF0FCF8B5F87A007C
:10333000022817D100200AF0D5FF002108460BF023
:103340004DF85C460123D4E900126DA00BF0EAF8B9
:1033500000211C200BF042F8D4E90012012369A0DF
:103360000BF0E0F895F8250018B1002137200BF09C
:10337000BAF900213C200BF0B6F9B5F87600012827
:1033800003D0B5F87800012805D126213A2000E0C5
:1033900040E00BF0E1F92B213A200BF033F968798A
:1033A00001283BD00F2100200BF018F8B5F87A0067
:1033B00002284DD0122254A102A8FCF7C8FF464CA7
:1033C000122102A8A2780BF0E5F8202100200BF0D2
:1033D00005F8B4F9020000EB800109EBC100817926
:1033E000012946D0042944D090ED050ABDEEC00A5B
:1033F00010EE100A03B2AFF6E00200E0FDE3402158
:10340000364809F049F83548012300BFD7E90012D2
:103410000BF088F895F82500B8B3EFE395F8210094
:1034200010B101233DA0F1E70F2100200AF0D6FFE3
:103430005C460123D4E9001239A00BF073F81E2179
:1034400000200AF0CBFFD4E90012012335A0DFE70A
:10345000092236A102A8FCF77AFF092102A80BF085
:1034600077F8202100200AF0B9FFB5F8483032A2E1
:10347000C3E74069FDF726F9AFF25842CDE90001F4
:103480004021164809F008F8BDE7FFE75FF00004A7
:10349000B5F86E0003287DD1B5F87200661CB04205
:1034A00006D1B5F8700018B900200AF01BFF47E0FC
:1034B000A7E00000D3F1F2E0E2EAE020E2E5F0F577
:1034C000EDFFFF20EFF0E5E4F3EFF0E5E4E8F2E5EF
:1034D000EBFCEDE0FF000000D8000020063B0020E0
:1034E000D3F1F2E0E2EAE020E2E5F0F5EDFFFF20C3
:1034F000E0E2E0F0E8E9EDE0FF00000034383500FC
:10350000D2C8CA00C7D1CA00C7EDE0F7E5EDE8E5CB
:1035100020F0E5E3E8F1F2F0E020000020000000F8
:10352000CDC5D200D1C2DFC7C8000000D1EEF1F294
:10353000EEFFEDE8E50000002564202525000000F1
:10354000002108460AF04AFF2346FDA24021FE481A
:1035500008F0A2FFD7E900120123FB480AF0E2FFBE
:10356000002137200BF087F8272C03D000213C20C6
:103570000BF0B9F82B213A200BF044F80F21002072
:103580000AF02CFF1222AFF2800102A8FCF7DFFE46
:10359000224600E044E2122102A80AF0FBFF2021AB
:1035A00000200AF01BFF04EB840109EBC1018879BC
:1035B00001281AD0042818D091ED050AE1A2402173
:1035C000BDEEC00A10EE100A03B2DF4808F064FF37
:1035D000D7E900120123DC480AF0A4FF85F81FA0F8
:1035E000B5F86E0003280CD01AE24869FDF76AF8B6
:1035F000AFF2D052CDE900014021D34808F04CFF92
:10360000E6E7B5F87200B04258D1B5F8700001286D
:1036100054D100200AF066FE002108460AF0DEFEC2
:103620002346C7A24021C84808F036FFD7E9001258
:103630000123C5480AF076FF002137200BF01BF864
:10364000272C03D000213C200BF04DF826213A20F6
:103650000BF082F82B213A200AF0D4FF0F21002032
:103660000AF0BCFE1822B9A102A8FCF770FE22469F
:10367000182102A80AF08EFF202100200AF0AEFED9
:10368000E87F04EB8401012811D019F83130ADA294
:103690004021AD4808F000FFD7E900120123AA48F5
:1036A0000AF040FFB5F86E00032807D0B8E108EB38
:1036B000C10000F5907009F029FFF3E7B5F872003A
:1036C000B04259D1B5F87000022855D100200AF057
:1036D00009FE002108460AF081FE234698A24021F7
:1036E000994808F0D9FED7E90012012396480AF05C
:1036F00019FF002137200AF0BEFF272C03D000213C
:103700003C200AF0F0FF26213A200BF025F82B216F
:103710003A200AF077FF0F2100200AF05FFE1A22FC
:1037200091A102A8FCF713FE22461A2102A80AF072
:1037300031FF202100200AF051FEE87F04EB8401D4
:10374000012812D009EBC1007EA2437840217E48B7
:1037500008F0A2FED7E9001201237B480AF0E2FE3E
:10376000B5F86E00032807D05AE108EBC10000F558
:10377000917009F0CBFEF3E7B5F87200B04259D171
:10378000B5F87000032855D100200AF0ABFD0021E8
:1037900008460AF023FE234669A240216A4808F041
:1037A0007BFED7E90012012367480AF0BBFE002127
:1037B00037200AF060FF272C03D000213C200AF0BC
:1037C00092FF26213A200AF0C7FF2B213A200AF067
:1037D00019FF0F2100200AF001FE0F2269A102A8A3
:1037E000FCF7B5FD22460F2102A80AF0D3FE2021E6
:1037F00000200AF0F3FDE87F04EB8401012812D0D9
:1038000009EBC1004FA2838840214F4808F044FED5
:10381000D7E9001201234C480AF084FEB5F86E0087
:10382000032807D0FCE008EBC10000F5927009F016
:103830006DFEF3E7B5F87200B04259D1B5F87000EB
:10384000042855D100200AF04DFD002108460AF059
:10385000C5FD23463AA240213B4808F01DFED7E9AA
:103860000012012338480AF05DFE002137200AF0DB
:1038700002FF272C03D000213C200AF034FF262130
:103880003A200AF069FF2B213A200AF0BBFE0F21F3
:1038900000200AF0A3FD1C223EA102A8FCF757FD60
:1038A00022461C2102A80AF075FE202100200AF001
:1038B00095FDE87F04EB8401012812D009EBC100DB
:1038C00020A283784021204808F0E6FDD7E90012C5
:1038D00001231D480AF026FEB5F86E00032807D024
:1038E0009EE008EBC10000F5937009F00FFEF3E7CE
:1038F000B5F87200B04269D1B5F87000052865D1FD
:1039000000200AF0EFFC002108460AF067FD23467C
:103910000BA240210C4808F0BFFDD7E9001201239B
:1039200009480AF0FFFD002137200AF0A4FE272CE9
:1039300003D000213C200AF0D6FE26213A2039E0AF
:103940003438352025640000063B0020C2EAEBFE37
:10395000F7E8F2FC20EEEFF0EEF120F0E5E3E8F11D
:10396000F2F0E02000000000C0E4F0E5F120F3F107
:10397000F2F0EEE9F1F2E2E020F0E5E3E8F1F2F056
:10398000E0200000C0E4F0E5F120F0E5E3E8F1F22A
:10399000F0E02000D4F3EDEAF6E8EEEDE0EBFCED2C
:1039A000FBE920EAEEE420F0E5E3E8F1F2F0E020C4
:1039B000000000000AF0D0FE2B213A200AF022FE7F
:1039C0000F2100200AF00AFD2A2200E044E0FEA1B7
:1039D00002A8FCF7BCFC22462A2102A80AF0DAFD64
:1039E000202100200AF0FAFCE87F012819D004EB1E
:1039F000840109EBC100006AFCF764FECDE9000117
:103A0000FC4A4021FC4808F047FDD7E90012012399
:103A1000F9480AF087FD00BFB5F86E0003281BD0F7
:103A20008CE304EB84000B9009EBC0000090203085
:103A300009F03CFC009890ED080A0AA809F003FC84
:103A40000B98BDF8282008EBC000A0F83821BDF87D
:103A50002A10A0F83A11DFE7B5F87200B04274D12D
:103A6000B5F87000062870D100200AF03BFC002158
:103A700008460AF0B3FC2346AFF23C124021DE4870
:103A800008F00AFDD7E900120123DB480AF04AFDDD
:103A9000002137200AF0EFFD272C03D000213C2025
:103AA0000AF021FE26213A200AF056FE2B213A2068
:103AB0000AF0A8FD0F2100200AF090FC2222CFA1DD
:103AC00002A8FCF744FC2246222102A80AF062FD6B
:103AD000202100200AF082FCE87F012819D004EBA5
:103AE000840109EBC100406AFCF7ECFDCDE900015F
:103AF000C04A4021C04808F0CFFCD7E9001201239A
:103B0000BD480AF00FFD00BFB5F86E0003281CD0B9
:103B100014E304EB84000B9009EBC0000090243008
:103B200009F0C4FB009890ED090A0AA809F08BFB84
:103B30000B98BDF8282008EBC000A0F83C21BDF888
:103B40002A10A0F83E11DFE7FFE7B5F87200B04297
:103B500076D1B5F87000072872D100200AF0C2FBB8
:103B6000002108460AF03AFC2346AFF22C224021FD
:103B7000A14808F091FCD7E9001201239E480AF001
:103B8000D1FC002137200AF076FD272C03D000213C
:103B90003C200AF0A8FD26213A200AF0DDFD2B2169
:103BA0003A200AF02FFD0F2100200AF017FC2B22EB
:103BB0009BA102A8FCF7CBFB22462B2102A80AF00E
:103BC000E9FC202100200AF009FCE87F01281BD035
:103BD00004EB840109EBC1008069FCF773FDCDE9BA
:103BE0000001844A4021844808F056FCD7E90012BD
:103BF000012381480AF096FC01E0A8E2A3E2B5F8AF
:103C00006E0003281CD099E204EB84000B9009EBB2
:103C1000C0000090183009F049FB009890ED060AAA
:103C20000AA809F010FB0B98BDF8282008EBC0008B
:103C3000A0F84021BDF82A10A0F84211DCE7FFE708
:103C4000B5F87200B04274D1B5F87000082870D190
:103C500000200AF047FB002108460AF0BFFB23467C
:103C6000AFF224324021644808F016FCD7E9001274
:103C7000012361480AF056FC002137200AF0FBFCC2
:103C8000272C03D000213C200AF02DFD26213A20CC
:103C90000AF062FD2B213A200AF0B4FC0F2100202B
:103CA0000AF09CFB232269A102A8FCF750FB2246E4
:103CB000232102A80AF06EFC202100200AF08EFBCE
:103CC000E87F012819D004EB840109EBC100C06929
:103CD000FCF7F8FCCDE90001464A4021464808F0CF
:103CE000DBFBD7E90012012343480AF01BFC00BFAD
:103CF000B5F86E0003281CD020E204EB84000B9082
:103D000009EBC00000901C3009F0D0FA009890ED4B
:103D1000070A0AA809F097FA0B98BDF8282008EBC3
:103D2000C000A0F84421BDF82A10A0F84611DFE732
:103D3000FFE7B5F87200B04244D1B5F87000092829
:103D400040D100200AF0CEFA002108460AF046FBD6
:103D50002346AFF214424021274808F09DFBD7E9E3
:103D60000012012324480AF0DDFB002137200AF06D
:103D700082FC272C03D000213C200AF0B4FC262131
:103D80003A200AF0E9FC2B213A200AF03BFC0F21F3
:103D900000200AF023FB172235A102A8FCF7D7FA6E
:103DA0002246172102A80AF0F5FB202100200AF084
:103DB00015FBE87F01287CD004EB840109EBC100EE
:103DC000C06861E090E074E0CDE8E6EDFFFF20EF31
:103DD000F0E5E4F3EFF0E5E4E8F2E5EBFCEDE0FF1D
:103DE00020F3F1F2E0E2EAE020F0E5E3E8F1F2F0BE
:103DF000E020000000220108063B0020CDE8E6EDAF
:103E0000FFFF20E0E2E0F0E8E9EDE0FF20F3F1F26F
:103E1000E0E2EAE020F0E5E3E8F1F2F0E020000083
:103E2000C2E5F0F5EDFFFF20EFF0E5E4F3EFF0E59C
:103E3000E4E8F2E5EBFCEDE0FF20F3F1F2E0E2EA8A
:103E4000E020F0E5E3E8F1F2F0E02000C2E5F0F573
:103E5000EDFFFF20E0E2E0F0E8E9EDE0FF20F3F124
:103E6000F2E0E2EAE020F0E5E3E8F1F2F0E0200041
:103E7000CAEEFDF4F4E8F6E8E5EDF220C020F0E546
:103E8000E3E8F1F2F0E02000FCF71CFCCDE90001D2
:103E9000FD4A4021FD4808F0FFFAD7E9001201234E
:103EA000FA480AF03FFB00BFB5F86E0003281BD0AC
:103EB00044E104EB84000B9009EBC00000900C304F
:103EC00009F0F4F9009890ED030A0AA809F0BBF98B
:103ED0000B98BDF8282008EBC000A0F82C21BDF8F5
:103EE0002A10A0F82E11DFE7B5F87200B04274D1A5
:103EF000B5F870000A2870D100200AF0F3F900210B
:103F000008460AF06BFA2346AFF2CC524021DF4854
:103F100008F0C2FAD7E900120123DC480AF002FBDC
:103F2000002137200AF0A7FB272C03D000213C20DA
:103F30000AF0D9FB26213A200AF00EFC2B213A2068
:103F40000AF060FB0F2100200AF048FA1722D0A1E6
:103F500002A8FCF7FCF92246172102A80AF01AFB76
:103F6000202100200AF03AFAE87F012819D004EB5A
:103F7000840109EBC1000069FCF7A4FBCDE9000155
:103F8000C14A4021C14808F087FAD7E9001201234D
:103F9000BE480AF0C7FA00BFB5F86E0003281CD06F
:103FA000CCE004EB84000B9009EBC00000901030D3
:103FB00009F07CF9009890ED040A0AA809F043F989
:103FC0000B98BDF8282008EBC000A0F83021BDF800
:103FD0002A10A0F83211DFE7FFE7B5F87200B0420F
:103FE0005CD1B5F870000B2858D100200AF07AF99E
:103FF000002108460AF0F2F92346AFF2BC624021E4
:10400000A24808F049FAD7E9001201239F480AF0B4
:1040100089FA002137200AF02EFB272C03D000213B
:104020003C200AF060FB26213A200AF095FB2B2168
:104030003A200AF0E7FA0F2100200AF0CFF9142203
:1040400099A102A8FCF783F92246142102A80AF0DC
:10405000A1FA202100200AF0C1F9E87F04EB8401D5
:10406000012814D009EBC1008379AFF228724021F6
:10407000864808F011FAD7E90012012383480AF0B4
:1040800051FA00BFB5F86E00032807D056E008EBE0
:10409000C10000F5947009F039FAF3E7B5F8720041
:1040A000B0424BD1B5F870000C2847D100200AF07F
:1040B00019F9002108460AF091F92346AFF28072FF
:1040C0004021724808F0E8F9D7E9001201236F484F
:1040D0000AF028FA002137200AF0CDFA272C03D065
:1040E00000213C200AF0FFFA26213A200AF034FB96
:1040F0000F2100200AF072F9112271A102A8FCF729
:1041000026F92246112102A80AF044FA20210020B3
:104110000AF064F9E87F04EB8401012818D009EB68
:10412000C1000389AFF2E4724021584808F0B4F9A5
:10413000D7E90012012355480AF0F4F9641CE4B2EF
:10414000282CFFF4A5A9B5F86E00032807D099E044
:1041500008EBC10000F5957009F0D8F9EEE7B5F865
:10416000720001284CD195F8250001287CD100204F
:104170000AF0B8F8002108460AF030F90123AFF63A
:104180008440D7E900120AF0CDF9002132200AF06C
:1041900072FA002137200AF0A6FA00213C200AF02A
:1041A000A2FA0F2100200AF019F9374918228039A4
:1041B00002A8FCF7CCF8182102A80AF0C9F92021BE
:1041C00000200AF00BF9E87F012814D04148B0F92B
:1041D0000230AFF6900240212C4808F05DF9D7E993
:1041E0000012012329480AF09DF900BFB5F86E00BE
:1041F000032805D046E03748801C09F087F9F5E729
:10420000B5F872000228B1D195F825000128ADD18A
:1042100000200AF067F8002108460AF0DFF80123C1
:10422000AFF62850D7E900120AF07CF900213220BD
:104230000AF021FA0F2100200AF0D0F8082226A166
:1042400002A8FCF784F8082102A80AF081F92021CD
:1042500000200AF0C3F8E87F01284CD01D488030C8
:10426000C06AFCF72FFA00E012E2CDE900011DA2BE
:104270004021064808F010F9D7E90012012303484D
:104280000AF050F932E00000782B0108063B0020CC
:10429000CAEEFDF4F4E8F6E8E5EDF220C220F0E520
:1042A000E3E8F1F2F0E02000D2E8EF20E4E0EDED09
:1042B000FBF520F0E5E3E8F1F2F0E020000000007B
:1042C000D2E0E9ECE0F3F220F0E5E3E8F1F2F0E02F
:1042D00020000000D8000020D1EAEEF0EEF1F2FC60
:1042E00000000000252E303066000000B5F86E009A
:1042F000042805D0E4E2FB49FB4809F091F8C1E746
:10430000B5F87200F0BB002009F0ECFF0021084670
:104310000AF064F85C460123D4E90012F3A00AF025
:1043200001F995F8250018B1002137200AF0DBF9D2
:1043300000213C200AF0D7F926213A200AF00CFA95
:104340002B213A200AF05EF90F2100200AF046F8EE
:10435000D4E900120123E7A00AF0E4F8D7E900123B
:104360000123E6A00AF0DEF810212A200AF036F830
:104370002B7AAFF630224021E14808F08DF8012376
:10438000DF4800E02AE0D7E900120AF0CBF820214C
:1043900000200AF023F8D4E900120123D9A00AF082
:1043A000C1F8D7E900120123D4A00AF0BBF82121FB
:1043B0002A200AF013F8EB79AFF678224021D04892
:1043C00008F06AF8D7E900120123CD480AF0AAF8EC
:1043D00085F82AA0B5F86E0004288BD1B5F87200D4
:1043E000012867D195F82500A8BB002009F07AFFC5
:1043F0000021084609F0F2FFDBE900120123BBA00F
:104400000AF090F8002137200AF035F900213C200D
:104410000AF069F9B5F87A00012802D002281BD009
:104420003FE00F21002009F0D9FF1022B7A102A818
:10443000FBF78DFF102102A80AF08AF8D7E90012D5
:104440000123B7A00AF06EF82021002009F0C6FF72
:10445000B5F874301AE09EE00F21002009F0BEFF8D
:104460000D22B0A102A8FBF772FF0D2102A80AF0ED
:104470006FF8D7E900120123AEA00AF053F820210B
:10448000002009F0ABFFAD48008C83B2ACA2402104
:104490009B4808F001F8D7E90012012398480AF078
:1044A00041F885F81FA0012085F82A00B5F86E00B4
:1044B00004287DD1B5F87200022868D195F825004E
:1044C00088BB002009F00EFF0021084609F086FF96
:1044D000DBE90012012385A00AF024F8002137202F
:1044E0000AF0C9F8B5F87A00012802D002281BD0DA
:1044F00044E00F21002009F071FF102283A102A8DF
:10450000FBF725FF102102A80AF022F8D7E90012D4
:1045100001238DA00AF006F82021002009F05EFF9B
:10452000B5F844301FE090E00F21002009F056FF5D
:104530000D227CA102A8FBF70AFF0D2102A80AF0B8
:1045400007F8D7E90012012380A009F0EBFF202132
:10455000002009F043FF7949086A91F82410000C03
:1045600040EA014083B276A24021654807F094FFFB
:10457000D7E900120123624809F0D4FF85F81FA093
:10458000012085F82A00B5F86E00042810D1B5F88E
:104590007200012855D195F82500012878D1002016
:1045A00009F0A0FE0021084609F018FF012300E0F1
:1045B00086E15C464DA0D4E9001209F0B3FF00216A
:1045C00032200AF058F8002137200AF08CF8002138
:1045D0003C200AF088F80F21002009F0FFFED4E902
:1045E000001201235BA009F09DFFC82009F0D2F85A
:1045F0002021002009F0F2FEE87F012817D0B5F84D
:104600005230AFF6C04240213D4807F045FFD7E9A0
:10461000001201233A4809F085FF012085F82A009D
:1046200085F82BA0B5F86E0004280AD048E12E4882
:10463000DA3808F06BFF85F82AA0012085F82B00F6
:10464000F0E7B5F8720002284BD195F82500012853
:10465000A4D1002009F046FE0021084609F0BEFE64
:10466000DBE90012012321A009F05CFF00213220C8
:104670000AF001F8002137200AF035F800213C202B
:104680000AF031F80F21002009F0A8FE182200E0FE
:1046900002E132A102A8FBF75AFE182102A809F094
:1046A00057FF2021002009F099FEE87F012863D000
:1046B000B5F85430AFF674524021114807F0ECFEC3
:1046C000D7E9001201230E4809F02CFF012085F8DC
:1046D0002A0085F82BA000BFB5F86E00042854D03E
:1046E000EEE052E01415020884010020D0E5EBE56D
:1046F00000000000CFF0E5E4000000002E00000004
:10470000063B0020C0E2E0F000000000C0F2F2F042
:10471000E8E1F3F220F1EEE1FBF2E8FF0000000037
:1047200020310000C1E8F220F1EEF1F2EEFFEDE8F9
:10473000FF00000028302D3135290000D80200206C
:104740003078255800000000203200002831362D36
:1047500033312900D0E5E6E8EC000000C7E0E4E5ED
:10476000F0E6EAE020EDE020F1F0E0E1E0F2FBE24B
:10477000E0EDE8E500000000FE4808F0C7FE85F81F
:104780002AA0012085F82B00A6E7B5F872000328BF
:1047900053D195F8250001287ED1002009F0A2FD13
:1047A0000021084609F01AFE0123AFF2C000DBE940
:1047B000001209F0B7FE0021322009F05CFF002151
:1047C000372009F090FF00213C2009F08CFF0F21D9
:1047D000002009F003FE2122E7A102A8FBF7B7FDA4
:1047E000212102A809F0B4FE2021002009F0F6FDE5
:1047F000E87F012817D0B5F85630AFF6B8624021EF
:10480000E64807F049FED7E900120123E34809F022
:1048100089FE012085F82A0085F82BA0B5F86E00E6
:1048200004280AD04CE0D348801C08F06FFE85F8BD
:104830002AA0012085F82B00F0E7B5F872000428C3
:10484000AAD195F825000128A6D1002009F04AFD3B
:104850000021084609F0C2FD0123AFF27010DBE928
:10486000001209F05FFE0021322009F004FF0F2141
:10487000002009F0B3FD0922C9A102A8FBF767FDDA
:10488000092102A809F064FE2021002009F0A6FDFC
:10489000E87F012819D000E0D0E1B5F85C30AFF630
:1048A0005C724021BD4807F0F7FDD7E900120123F3
:1048B000BA4809F037FE012085F82A0085F82BA0B8
:1048C000B5F86E0005280AD0B3E1AA48083008F010
:1048D0001DFE85F82AA0012085F82B00F0E7B5F829
:1048E000720028BB002009F0FDFC0021084609F0F9
:1048F00075FD00213C2009F0F6FE26213A2009F042
:104900002BFF2B213A2009F07DFE0F21002009F01A
:1049100065FD0922A5A102A8FBF719FD092102A83E
:1049200009F016FE85F82AA0B5F86E0005284BD1CF
:10493000B5F87200012852D1002009F0D3FC002103
:10494000084609F04BFD5C460123D4E900129AA009
:1049500009F0E8FD0123AFF25C20D7E9001209F06D
:10496000E1FD0021372009F086FE00213C2009F0FE
:10497000BAFE0F21002009F031FDD4E90012012315
:104980008FA009F0CFFDC82008F004FF20210020EF
:1049900009F024FDE87F012817D0B5F866308AA217
:1049A00040217E4807F078FDD7E9001201237B48BB
:1049B00009F0B8FD012085F82A0085F82BA000BF7A
:1049C000B5F86E0005280AD033E16A48123008F0C5
:1049D0009DFD85F82AA0012085F82B00F0E7B5F8A9
:1049E0007200022858D1002009F07CFC0021084602
:1049F00009F0F4FCDBE9001201236FA009F092FD3D
:104A00000123AFF20830D7E9001209F08BFD002135
:104A1000372009F030FE00213C2009F064FE0F2110
:104A2000002009F0DBFC0822AFF2547102A8FBF76A
:104A30008EFC082102A809F08BFD2021002009F03E
:104A4000CDFCE87F01281CD04A48AC30806AFBF7D7
:104A500039FEAFF27072CDE9000140214F4807F0F6
:104A60001BFDD7E9001201234C4809F05BFD012032
:104A700085F82A0085F82BA0B5F86E0005280BD024
:104A8000D7E03C485149D43008F0CAFC85F82AA048
:104A9000012085F82B00EFE7B5F87200032850D10C
:104AA000002009F01FFC0021084609F097FCDBE913
:104AB0000012012340A009F035FD0123AFF2C430FC
:104AC000D7E9001209F02EFD0021372009F0D3FDAF
:104AD00000213C2009F007FE0F21002009F07EFC98
:104AE0000E223BA102A8FBF732FC0E2102A809F01E
:104AF0002FFD2021002009F071FCE87F012816D04D
:104B0000B5F8683030A24021244807F0C5FCD7E949
:104B100000120123214809F005FD012085F82A0033
:104B200085F82BA0B5F86E0005280AD081E0114861
:104B3000143008F0EBFC85F82AA0012085F82B0042
:104B4000F0E7B5F87200042878D1002009F0CAFB1C
:104B50000021084609F042FCDBE90012012316A0FF
:104B600009F0E0FC0123AFF26C40D7E9001209F034
:104B7000D9FC35E0AC000020C7E0E4E5F0E6EAE06F
:104B800020EDE020E2FBF5EEE420E8E720F1F0E0A4
:104B9000E1E0F2FBE2E0EDE8FF000000063B002070
:104BA000D2E5F1F220F0E5EBE5000000CDE0F1F216
:104BB000F0EEE9EAE8000000CDE0F1F2F0000000DC
:104BC000C0E4F0E5F10000002564000014150208BF
:104BD000C2F0E5ECFF20EFF0EEE3F0E5E2E00000EC
:104BE0000021372009F047FD0F21002009F0F6FBD6
:104BF0000E22FEA102A8FBF7AAFB0E2102A809F0D3
:104C0000A7FC2021002009F0E9FBE87F012816D04D
:104C1000B5F87E30AFF250024021F84807F03CFC76
:104C2000D7E900120123F54809F07CFC012085F842
:104C30002A00B5F86E00062807D000E141E1F048EF
:104C400008F064FC85F82AA0F3E7B5F8720008BB09
:104C5000002009F047FB0021084609F0BFFB0021B6
:104C60003C2009F040FD26213A2009F075FD0F2176
:104C7000002009F0B3FB0A22E2A102A8FBF767FBC0
:104C80000A2102A809F064FC85F82AA0B5F86E0094
:104C900006287CD1B5F87200012848D1002009F01F
:104CA00021FB0021084609F099FBDBE900120123F2
:104CB000D7A009F037FC0123AFF2C050D7E90012AA
:104CC00009F030FC0021372009F0D5FC00213C2000
:104CD00009F009FD0F21002009F080FB1222CDA16F
:104CE00002A8FBF734FB122102A809F031FC2021B5
:104CF000002009F073FBC248823090ED070A10EEE5
:104D0000100AFBF7DFFCCDE90001C74A4021BB4890
:104D100007F0C2FBD7E900120123B84809F002FCF2
:104D2000012085F82A00B5F86E0006282FD1B5F8C5
:104D30007200022844D1002009F0D4FA002108466C
:104D400009F04CFBDBE900120123B1A009F0EAFBFA
:104D50000123AFF25860D7E9001209F0E3FB00210C
:104D6000372009F088FC00213C2009F0BCFC0F2111
:104D7000002009F033FB0922ACA102A8FBF7E7FAF7
:104D8000092102A809F0E4FB2021002000E056E000
:104D900009F024FB9FEDA80BA94A8DED000B4021E3
:104DA000964807F079FBD7E900120123934809F0F0
:104DB000B9FB012085F82A00B5F86E0006283ED11F
:104DC000B5F8720003287CD1002009F08BFA00218D
:104DD000084609F003FBDBE9001201238CA009F06F
:104DE000A1FB0123AFF2EC60D7E9001209F09AFBB6
:104DF0000021372009F03FFC0F21002009F0EEFAD6
:104E0000D7E9001201238FA009F08CFB202100209C
:104E100009F0E4FA7A4882308068FBF753FCCDE968
:104E20000001814A4021754807F036FBD7E900129E
:104E30000123724809F076FB012085F82A00B5F8B5
:104E40006E0007283DD1B5F87200D8B995F8230057
:104E5000012836D1002009F045FA0221372009F057
:104E600042FC0F21002009F0B9FA0C2277A102A818
:104E7000FBF76DFA0C2102A809F06AFBB5F86E0089
:104E800007281ED1B5F87200012847D1002009F08B
:104E900029FA0021084609F0A1FADBE900120123F2
:104EA0006EA009F03FFB0123AFF2B070D7E900120A
:104EB00009F038FB0221302009F0DDFB0221372008
:104EC00000E0F1E009F00FFC0F21002009F086FA64
:104ED000D7E900120123634809F024FB20210020B8
:104EE00009F07CFAE87F012813D0B5F87630AFF2EC
:104EF00028324021414807F0CFFAD7E900120123B8
:104F00003E4809F00FFB00BFB5F86E00072805D03A
:104F1000CAE03B48083808F0F9FAF5E7B5F872003E
:104F2000022845D1002009F0DDF90021084609F0EA
:104F300055FADBE90012012348A009F0F3FA012336
:104F4000AFF64800D7E9001209F0ECFA0221302050
:104F500009F091FB0221372009F0C5FB0F21002049
:104F600009F03CFAD7E9001201233F4809F0DAFAC8
:104F70002021002009F032FAE87F012813D0B5F88B
:104F80007830AFF2BC3240211C4807F085FAD7E9EF
:104F900000120123194809F0C5FA00BFB5F86E00E8
:104FA000072805D080E01648801F08F0AFFAF5E723
:104FB000B5F87200032877D1002009F093F9002199
:104FC000084609F00BFADBE90012012323A009F0DF
:104FD000A9FA0123AFF6DC00D7E9001209F0A2FA22
:104FE0000221302009F047FB0F213FE0D1E1F0EE34
:104FF000F120EDE0F1F2F0EEE5EA0000063B0020E2
:10500000D6000020C8EDF4EEF0ECE0F6E8FF00007A
:10501000C8EDF400CDE0EFF0FFE6E5EDE8E520EFC8
:10502000E8F2E0EDE8FF000000220108C2E5F0F13F
:10503000E8FF20CFCE000000C976BE9F1AAF154012
:10504000243001084D4D544500000000CACECDD497
:10505000C8C3D3D0C0D6C8DF00000000CAEEEDF44C
:1050600000000000D41D0108982B0108002009F061
:10507000B5F9D7E900120123154809F053FA2021A8
:10508000002009F0ABF9E87F01281AD0B5F87A3092
:10509000AFF2CC4240210F4807F0FEF9D7E90012E9
:1050A00001230C4809F03EFA09F09EF995F8210019
:1050B00058B1002085F82100642008F06BFBFCF754
:1050C00077BC054808F022FAEEE70120F2E700007D
:1050D000FC340108063B0020D2000020184F0026B7
:1050E000DFF860B086B04FF008084FF0180A4FF0B4
:1050F0008009A7F5C07401254FF0FF31B86A0AF0A6
:10510000C3F9607F0128F7D101AA0496009682E8CE
:105110002005CBF8109001F09FFC04F82F0F03201E
:1051200008F038FB04A9684601F0C8FB207001F0C4
:1051300037FC14F82F090028DED184F82E50DBE765
:10514000D801002000200240124A117F1248012994
:1051500001D003290BD1036843F4006303600368A3
:1051600023F400630360036843F4007303600229BF
:1051700001D003290BD1016841F48051016001681D
:1051800021F480510160016841F4806101600020D8
:10519000107770474C040020002002400849C207E5
:1051A00003D04A6942F004024A61800703D5486986
:1051B00040F400404861486940F4803048617047DD
:1051C00000200240CA070B494A6902D022F400625B
:1051D00001E042F400624A614A6960F3CA024A612E
:1051E000486940F002004861486940F480304861F5
:1051F0007047000000200240044910B54C6944F09B
:1052000001044C610260436010BD000000200240B8
:10521000074B10B55C69402244F480245C6172B68F
:1052200008C908C0521E12F0FF02F9D162B610BDC3
:105230000020024070B5054601F00CFD0646184CF2
:1052400008E0681C06D001F005FD801BA84201D3D0
:10525000032070BD2069C043C003F2D52169114805
:105260000140A06900F00040084311D00E494A688F
:1052700002434A60810F04D0A16900F0404211430B
:10528000A161810002D020F040402061012070BD6A
:105290002069C043C00701D101202061002070BDFA
:1052A00000200240FAC302004C040020294810B537
:1052B000C078A0B3012840D0022828D3264B274A23
:1052C0000221A3F10C0007F098FE234B234A8433FC
:1052D00021480221783007F090FE1F4B1F4AB0335F
:1052E0000221A3F10C0007F088FE1B4B1B4A2C3354
:1052F000A03A0221A3F10C0007F07FFE164B174ADB
:105300005833783A0221A3F10C0007F076FE1648D4
:105310009FED130B80ED0A0B80ED0C0B10BDFFE72A
:105320000D4B0E4A0221503AA3F10C0007F065FE26
:10533000094B0A4A8433503ACAE7074B074A02210D
:10534000283AA3F10C0007F058FE034B034A8433BC
:10535000283ABDE7580000202C180020F803002050
:105360000000000000000000D802002010B5044634
:105370000AF018FA014614B108F022F92060C86C4E
:1053800010BD00002DE9F84F4FF000080446CDF89D
:1053900000800D4694F85420DFF8089421694746B0
:1053A0004046012A0AD00126FF4A84F8546041B1E0
:1053B000A969012905D0636EEBB129E00220BDE89F
:1053C000F88F6868082838D1296A4FF4F85041B13D
:1053D0002B6801F03C0100EA93400843696A0843E6
:1053E00002E0296800EA91402368D96C114001432A
:1053F000D964206621E0C4E91871296AA86931B12D
:1054000001F03C01401E0843696A084300E0401E69
:1054100029682B79C1F3846103F01F03994001438C
:10542000606E401E6066236E43EA0103236604D16A
:105430002068C16C11401943C164206803F058FB17
:1054400048B9687F90B12068C168AA7F21F44011F3
:1054500041EA4251C160206803F052FB8246206855
:1054600003F046FB5AEA00000BD0DDE0A87F297F5D
:10547000400540EA01512068C26822F440121143FD
:10548000E8E7286A28B1686A18B1687F012845D022
:1054900002E0687F012804D02068C16821F0007113
:1054A00003E02068C16841F00071C16095F82800F0
:1054B00001283AD02068016921F002010161AA683F
:1054C00029682068B2F1004F20D003F034FB206837
:1054D000416921F00041416120686969C268C2F3F5
:1054E000C102520091402A69042A2AD000EB8200AE
:1054F0002B68DFF8B8C2026E03F0F84302EA0C0230
:105500000B431A4342F0004101668DE0002203F094
:1055100012FB2068416941F00041DCE7A06D40F0DA
:105520002000A0654FF00108C0E7D5E90B01084352
:1055300021680A6922F4FF7242F0020210430861F6
:10554000BDE7002103F0CAFA400320684FF00001D4
:1055500072D003F0C3FA90FAA0F0B0FA80F1286894
:1055600042036ED090FAA0F0B0FA80F0814204D1EC
:1055700000221146206803F0F5FA0121206803F0AB
:10558000ADFA400320684FF001015DD003F0A6FAA8
:1055900090FAA0F0B0FA80F12868420359D090FA4E
:1055A000A0F0B0FA80F0814204D1002201212068ED
:1055B00003F0D8FA0221206803F090FA4003206833
:1055C0004FF0020148D003F089FA90FAA0F0B0FA47
:1055D00080F12868420344D090FAA0F0B0FA80F03D
:1055E000814204D100220221206803F0BBFA03218A
:1055F000206803F073FA400320684FF0030133D0B2
:1056000003F06CFA90FAA0F0B0FA80F12868420337
:105610002FD090FAA0F0B0FA80F0814204D100229D
:105620000321206803F09EFA2068816811F0010FC1
:1056300022D0ABE000E004E003F050FAC0F3846154
:105640008DE7C0F3846091E703F048FAC0F384610A
:10565000A2E7C0F38460A6E703F040FAC0F38461D8
:10566000B7E7C0F38460BBE703F038FAC0F38461A6
:10567000CCE7C0F38460D0E72B7B296850F8B02FCB
:10568000C1F3120C22EA0C0203F0180C484B23FA67
:105690000CF30B401A430260E968494576D128684B
:1056A00041031BD090FAA0F1B1FA81F1491C01F03D
:1056B0001F0109294FEA403131D8002911D090FA51
:1056C000A0F1B1FA81F100BF01F1010101F01F0168
:1056D00006FA01F608D1C0F3846109E0C0F38461E1
:1056E000E4E7C0F38461EFE790FAA0F1B1FA81F149
:1056F00001F1010101F01F0146EA816102D1C0F30D
:10570000846003E090FAA0F0B0FA80F000F10100AC
:1057100000F01F0000EB400041EA005132E0002998
:105720000ED090FAA0F1B1FA81F100BF01F10101B0
:1057300001F01F0106FA01F605D1C0F3846106E00D
:10574000C0F38461F2E790FAA0F1B1FA81F101F1BE
:10575000010101F01F0146EA816102D1C0F38460BA
:1057600003E090FAA0F0B0FA80F000F1010000F040
:105770001F00104A00EB400002EB005041EA00011C
:1057800041F00071AA68206803F0D5F90A482A6838
:10579000024256D009488168094E01F0E071094B78
:1057A000094D13E000007F400020088200F0FF0355
:1057B000FFFF0700000020FE0000088000030450E7
:1057C000000052C70000045000020450B2421BD136
:1057D0000E0219D422689A4201D0AA4231D18268BD
:1057E00041F4000122F0E0720A4382601748184930
:1057F0000068B0FBF1F000EB4000800000E0401ECC
:1058000000900028FBD11CE0124EB24209D1CE011B
:1058100007D422689A4201D0AA4212D141F0807185
:105820000AE06FF00045EA420BD14A0209D422682F
:105830009A4206D141F48001826822F0E0720A4364
:10584000826084F854704046B9E500006C04002082
:10585000400D0300000084CB0068B1F5877F0FD0B6
:10586000B1F5057F09D0A1F540711A3902D0D0F801
:1058700080007047D0F88C007047D0F888007047DF
:10588000D0F88400704700002DE9F0410446374805
:105890000F46806800F01F066069082804D02025A4
:1058A00001F0D8F980460AE04025F9E7781C06D0D7
:1058B00001F0D0F9A0EB0800B84215D8A7B12068D4
:1058C00000682842F2D02168C86C10F0C00F15D0D3
:1058D0000022C86810F4406F12D00023244F2548DE
:1058E000B9420FD184460EE0A06D40F00400A065DF
:1058F000002084F854000320BDE8F0810122E8E78D
:105900000123EBE78C468C450ED06EB1062E0BD0F2
:10591000072E09D0B94200D00846C068A66D46F4EB
:105920000056A6653AB901E0C868F7E7820112D4CB
:105930008BB182040FD40A6852060CD582020AD4B5
:10594000A26D22F48052A265A26DD20503D4A26D8D
:1059500042F00102A265402D01D0202002E0400467
:1059600001D4602008600020C6E700000003045056
:1059700000010450000004502DE9F0410446354870
:10598000806800F01F05206803F0B2F808BB2068AB
:10599000C168C06C01F0004100F0C000084312D0A3
:1059A00094F85400012814D0012084F854002046B3
:1059B000FBF706F902004FF000030CD084F85430D6
:1059C0001046BDE8F081A06D40F02000A0650120E8
:1059D000F7E70220F5E7A06DC00504D5E06D20F0E3
:1059E0000800E06500E0E365A06D42F20101884334
:1059F00040F48050A065184F2168184EB94201D17B
:105A0000304600E00846884200D01DB9A06D20F461
:105A10008010A0656020086084F854302068B84287
:105A200000D00646864209D045B1062D06D0072D86
:105A300004D0A06D40F48010A065C1E7C16811F0EA
:105A4000007FBDD18168064B194041F0080181609B
:105A5000B6E70000000304500001045000000450A9
:105A6000C0FFFF7F70B5044690F85400012809D0AC
:105A7000012084F8540002212046FAF7B9FF0500FE
:105A800002D014E0022070BD206803F039F818B18C
:105A9000A06D20F4805009E02046FBF75DF805007A
:105AA00005D1A06D20F4885040F00100A0650020D1
:105AB00084F85400284670BD2DE9F047044690F85C
:105AC00054009AB00D464FF00008012820D0012064
:105AD00084F854002F4E20684FF00009B04219D1CD
