:020000040801F1
:100000002089012081020108BDA20108498B010855
:100010008D9E0108AD0F010809C60108000000000F
:10002000000000000000000000000000C101010805
:100030005D190108000000001D020108F3AB010872
:100040009B0201089B0201089B0201089B02010818
:100050009B0201089B0201089B0201089B02010808
:100060009B0201089B0201089B020108E1120108A2
:10007000ED120108F9120108051301081113010816
:100080001D130108291301089B0201089B020108A6
:100090009B0201089B0201089B0201089B020108C8
:1000A0009B02010865B001089B0201089B02010840
:1000B0009B0201089B0201089B0201089B020108A8
:1000C0009B0201089B0201089B0201089B02010898
:1000D0009B02010825C3010881C30108DDC3010893
:1000E0009B0201089B0201089B0201089B02010878
:1000F0009B0201089B0201089B0201089B02010868
:100100009B0201089B0201089B0201089B02010857
:100110009B0201088DBD010871B001088DB0010876
:1001200035130108411301089B0201089B020108D5
:100130009B0201089B0201089B0201089B02010827
:100140009B0201089B0201089B0201089B02010817
:100150009B0201089B0201089B0201089B02010807
:100160009B0201089B0201089B0201089B020108F7
:100170009B0201089B0201089B020108000000008D
:100180009B0201089B0201089B0201089B020108D7
:100190009B0201089B0201089B0201089B020108C7
:1001A0009B0201089B0201089B020108DFF80CD0AA
:1001B00000F0E0FB0048004799D9010820890120A0
:1001C0002C4B19680868B0E8F04F80F30988BFF33A
:1001D0006F8F4FF0000080F311887047000000001F
:1001E00008480068006880F308884FF0000080F33A
:1001F000148862B661B6BFF34F8FBFF36F8F00DF15
:1002000000BF00BF08ED00E0DFF80C00016841F41A
:1002100070010160704700BF88ED00E0EFF30980D6
:10022000BFF36F8F134B1A681EF0100F08BF20ED3D
:10023000108A20E9F04F106009B44FF0500080F3AD
:100240001188BFF34F8FBFF36F8F0EF007FF4FF092
:10025000000080F3118809BC19680868B0E8F04F05
:100260001EF0100F08BFB0EC108A80F30988BFF3AE
:100270006F8F704794040020EFF3058070470000F3
:100280000648804706480047FEE7FEE7FEE7FEE730
:10029000FEE7FEE7FEE7FEE7FEE7FEE7B5AC010896
:1002A000AD0101082DE9F05F0546002092469B460E
:1002B00088460646814640241BE02846414647467C
:1002C000224600F053FA53465A46C01A914110D3C1
:1002D00011461846224600F03AFA2D1A67EB01083B
:1002E0004F4622460120002100F031FA17EB0009A9
:1002F0004E41201EA4F10104DFDC484631462A4667
:100300004346BDE8F09F40EA01039B0703D009E0A4
:1003100008C9121F08C0042AFAD203E011F8013BF1
:1003200000F8013B521EF9D27047D2B201E000F84A
:10033000012B491EFBD270470022F6E710B5134689
:100340000A4604461946FFF7F0FF204610BD10B5D7
:10035000044604E00B7800F8013B03B1491C521E2F
:10036000F8D2204610BD2DE9FE4F804681EA0300F9
:10037000C00F0C46009021F0004123F00045B8EB7F
:100380000200A94105D24046214690461C460B4634
:10039000024623F00040104347D0270DC7F30A0060
:1003A000C3F30A510290401A019040286BDAC3F35C
:1003B000130040F4801B0098924620B10023D2EB3A
:1003C000030A63EB0B0B01985946C0F140025046FB
:1003D00000F0BDF906460D4650465946019A00F018
:1003E000D5F910EB08006141002487EA115284EA34
:1003F000E7731A4340D0009A62B3019A012A4FEA88
:10040000075215DC001B61EB02014FF0004202EACB
:100410000752CDE90042001C41F5801132462B46BF
:1004200000F02AFA03B0BDE8F08F40462146F9E714
:10043000001B61EB0201001C41F5801300185B41B9
:100440002018A2F5001747EB030140EAD570B61952
:100450006D4111E06D084FEA360645EAC0754FEA76
:100460000752001B61EB0201001C41F58011490895
:100470004FEA30000019514132462B4603B0BDE827
:10048000F04F00F0EAB90098012240000023D0EBC1
:10049000020263EBE073009821464FEAE074B8EB88
:1004A000000061EB0401E9E783F000435BE781F0C2
:1004B000004158E72DE9FE4F81EA030404F00044AF
:1004C00021F0004100944FF0000B23F0004350EA6C
:1004D00001045ED052EA03045BD0C3F30A54C1F3B3
:1004E0000A552C44A4F2F3340194A0FB0254C1F346
:1004F000130141F48011C3F3130343F4801301FB90
:10050000024400FB034E840A970A44EA815447EAF6
:100510008357A4FB076802958D0A05FB07854FEA00
:10052000932C04FB0C542705029D4FEA065847EA1A
:100530001637B5EB08056EEB070C870E920E47EAEF
:10054000811742EA8312A7FB0201B6EB0B0164EBB1
:1005500000042B0D43EA0C335E1844EB1C50DA46C2
:100560005146E7FB0201C5F313044FEA0B3343EA9C
:1005700014534FEA0432019C43EA0603A4F10C042D
:100580000294009CCDE900B400F076F903B0BDE818
:10059000F08F00200146F9E72DE9F04D81EA0304D0
:1005A00004F0004B21F0004514464FF0000A23F000
:1005B000004150EA050220D054EA01021DD0C5F3E3
:1005C0000A570246C5F31303C1F31300C1F30A56D9
:1005D00040F4801543F48013A7EB0608101BD646A1
:1005E00008F2FD3873EB050002D308F1010801E0C1
:1005F00092185B41B8F1000F03DA00200146BDE814
:10060000F08D00204FF48011064684460EE0171B43
:1006100073EB050705D3121B63EB050306434CEA96
:10062000010C49084FEA300092185B4150EA01077B
:10063000EDD152EA030012D082EA040083EA0501F8
:10064000084305D0101BAB4106D20122002306E06F
:1006500000224FF0004302E06FF0010253101AEB4A
:1006600006004CEB085110EB0A0041EB0B01BDE812
:10067000F04D00F0F2B830B404469623080021464D
:1006800004D0B62330BC002200F09BB820460021E5
:10069000F8E70EB540F2334102910021CDE9001197
:1006A0000A460B4600F0E8F803B000BD0EB540F274
:1006B000334202920022CDE90022134600F0DCF81A
:1006C00003B000BD00F0004230F000400AD0C10D80
:1006D00001F56071C0F3160042EA0151C2084007FB
:1006E0001143704700200146704701F0004330B4C9
:1006F00021F0004150EA010206D00A0DA2F5607215
:10070000C1F31301002A02DC30BC00207047440F03
:1007100044EAC104C100E01830BC00EBC25000F054
:1007200047B830B50B46014600202022012409E0DD
:1007300021FA02F59D4205D303FA02F5491B04FA9A
:1007400002F52844151EA2F10102F1DC30BD202A79
:1007500004DB203A00FA02F1002070479140C2F118
:10076000200320FA03F3194390407047202A04DB4A
:10077000203A21FA02F00021704721FA02F3D0401A
:10078000C2F120029140084319467047202A06DB37
:10079000CB17203A41FA02F043EAE07306E041FA4F
:1007A00002F3D040C2F1200291400843194670473D
:1007B0000029A8BF7047401C490008BF20F0010075
:1007C000704710B4B0FA80FC00FA0CF050EA010453
:1007D00004BF10BC704749B1CCF1200421FA04F4E5
:1007E00011FA0CF118BF012121430843A3EB0C01BE
:1007F000CB1D4FEA00614FEA102042BF002010BC21
:10080000704700EBC35010440029A4BF10BC7047D0
:10081000401C490008BF20F0010010BC704710B513
:1008200041000CD0C0F3C751962908DC7E2909DCB1
:1008300006DB410204D000F0004040F07E5010BDC5
:10084000002010BDC1F19604C4F1200100FA01F1AD
:10085000E040FFF7ADFFA04010BD10B5141E73F1CE
:10086000000408DA401C41F1000192185B411A4370
:1008700001D120F0010010BD2DE9F04D92469B46BC
:1008800011B1B1FA81F202E0B0FA80F22032904662
:10089000FFF75DFF04460F4640EA0A0041EA0B01FC
:1008A00053465A46084313D0114653EA010019D063
:1008B000C8F140025046FFF759FF05460E46504624
:1008C00059464246FFF743FF084305D0012004E0A4
:1008D00020463946BDE8F08D0020054346EAE07623
:1008E0002C4337430A986305E40AA0EB0800002272
:1008F000FD0A44EA47540A3002D500200146E9E7E0
:10090000010510196941DDE9084500196941BDE893
:10091000F04DA2E7C1F30A52C1F3130140F2FF33D5
:1009200041F480119A4202DA00200146704740F2F9
:1009300033439A42A2F2334202DC5242FFF716BF1F
:10094000FFF705BF30B5041E71F1000404DB4FF062
:100950000044404264EB0101141E73F1000405DB06
:100960001C464FF00043524263EB0403994208BF18
:10097000904230BD064C074D06E0E06840F00103B0
:1009800094E8070098471034AC42F6D3FFF712FC06
:10099000C41B0208E41B020870B58C1810F8015B38
:1009A00015F0070301D110F8013B2A1106D110F808
:1009B000012B03E010F8016B01F8016B5B1EF9D10C
:1009C0002B0705D40023521E0DD401F8013BFAE792
:1009D00010F8013BCB1A921C03E013F8015B01F8FD
:1009E000015B521EF9D5A142D8D3002070BD000092
:1009F0002DE9F041044600270D46006808F02AF969
:100A00000646206808F01EF9304359D02068C168B6
:100A10002C4E890105D5617E012902D1217E012953
:100A20000BD0022D1DD0206808F014F9B8B1206851
:100A30008168C1F3400169B111E00125224902E05A
:100A40008F422ED27F1C0268D2435206F8D4402136
:100A50000160E8E78168314041F010018160012DBB
:100A600011D0206808F0EEF848B120688168C1F321
:100A7000400121B98168314041F020018160022D9F
:100A800008D0032D04D0042506F092F9064613E0A1
:100A90000C25F9E70825F7E706F08AF9801B0528F9
:100AA0000AD9A06D40F01000A065E06D40F0010093
:100AB000E0650120BDE8F081206880682842EBD124
:100AC0000020F7E7C0FFFF7F000040A310B5846A55
:100AD000A16D11F0500F06D0A16DC90625D5204695
:100AE00005F05EFB10BDA06D40F40070A0652068AD
:100AF0000168090716D508F0B5F878B12068C06814
:100B0000800400280ADBA06D20F48070A065A06D31
:100B1000C00403D4A06D40F00100A065204605F09C
:100B2000FBFA10BDC0688007EBE7216D496BBDE89B
:100B30001040084710B5806A816D41F04001816521
:100B4000C16D41F00401C16505F02AFB10BD10B56F
:100B5000806A05F003FB10BD70B50446006881682B
:100B60008268C1F3400112F0010F24D019BB8168E3
:100B700001F00D01012910D18168104A1140891C32
:100B8000816021680320086006F012F905460EE036
:100B900006F00EF9401B022809D9A06D40F01000A4
:100BA000A065E06D40F00100E065012070BD2068A7
:100BB0008068C007ECD1002070BD0000C0FFFF7F3F
:100BC00070B504460068816811F0010F28D1816872
:100BD000144A114215D18168D5432940491C8160CE
:100BE00006F0E6F8064616E0816811F0010F03D121
:100BF00081682940491C816006F0DAF8801B0228D0
:100C000009D9A06D40F01000A065E06D40F0010032
:100C1000E065012070BD20680168C943C907E3D1C0
:100C2000002070BD3F0000802DED048B82B00020BD
:100C3000ADF800009FED168B9FED179B184C4FF4FD
:100C40007A75184804F046FF6421164804F0CAFE7D
:100C50000121144804F0AEFEADF80000114804F084
:100C6000AFFFBDF80000FFF714FD53EC182BFFF7A2
:100C700021FC53EC192BFFF71DFCFFF736FD00EEAE
:100C8000100A284684ED080A0CF0EEFED9E70000B1
:100C9000B4D934E70C684A3F00000000000024404B
:100CA00058010020580600202DED0A8B90B09FEDD2
:100CB000B10AB24C8DED0B0A8DED000A8DED060ADE
:100CC0008DED070A8DED010ADFF8AC928DED040A77
:100CD0004FF0000AA4F180054FF0010B04F18008E9
:100CE0004FF0FF31D8F860000EF044FD95F82C006D
:100CF000012802D0022828D04EE0A14A0020014657
:100D00004FF4007C02F540634FEA090632F8107098
:100D100000EE107A06EB8107B8EE400A87ED000A74
:100D200002EB4007801C7F8880B200EE107A03EB54
:100D30008107491CB8EE400A89B2604587ED000A78
:100D4000E4D3A089401CA08126E08D4A4FF40070B6
:100D5000002102F540634FF4806C4E4632F810706B
:100D600000EE107A06EB8107B8EE400A87ED000A24
:100D700002EB4007801C7F8880B200EE107A03EB04
:100D80008107491CB8EE400A89B2604587ED000A28
:100D9000E4D3E089401CE0814FF4807605AA314617
:100DA00075480CF061FB744A3346114601F62C106D
:100DB0000CF008FA0020734B01464A4602EB80070C
:100DC000001D97ED000A03EB8107491C80B287EDF7
:100DD000000A89B2FF28F1D96A4A4023114601F579
:100DE00080700CF0EFF9674A4023114601F5AC70B2
:100DF0000CF0E8F90BAA402162480CF035FB6A467A
:100E0000314661480CF030FB0AAB01AA40215D4835
:100E10000CF068FA0AAB06AA31465B480CF062FA9D
:100E20000AAB04AA402157480CF0D4FA0AAB07AA2F
:100E3000314655480CF0CEFA544E00231A460BA901
:100E4000306E0EF0FDFA00231A466946F06E0EF081
:100E5000F7FA606C0746FFF735FC41EC180B206C85
:100E60000646FFF72FFC41EC190B0198FFF72AFC0F
:100E70009FED47BB53EC1B2BFFF71CFB9FED46CBB5
:100E800053EC1C2BFFF788FB53EC192BFFF712FBDD
:100E900053EC182BFFF767FAFFF727FC08EE100A50
:100EA0003846FFF70FFC41EC190B3046FFF70AFC00
:100EB00041EC1A0B0498FFF705FC53EC1B2BFFF7D2
:100EC000F9FA53EC1C2BFFF767FB53EC1A2BFFF7D7
:100ED000F1FA53EC192BFFF746FAFFF706FCD4EDB5
:100EE0000F1A9FED2F1A00EE100A284EC1EE810A4C
:100EF000803600231A4606A988EE201A84ED121ABD
:100F000080EE201A84ED131AB0680EF099FA0023CF
:100F10001A4607A9F0680EF093FA2249059888420C
:100F200002DD85F802B001E085F802A094ED1E0A0A
:100F3000DDED000A94ED1D1A1B4900EE810A10EE4A
:100F4000100A884202DB85F804A001E085F804B0AD
:100F50000D480DF0AFFD00231A4619464646D8F855
:100F600064000EF06DFA00231A461946F06E0EF07A
:100F700067FAB5E600000000200F0020D80000202E
:100F8000200700202017002020130020D801002077
:100F9000B4D934E70C684A3F393939393939E93F2E
:100FA00000007A4400007A45CDCC6C40FEE700009A
:100FB0004C4FDFF8348101264C4C002594F82B006F
:100FC00058BB4FF400614FF0904005F0E3FE00285D
:100FD000E07C0DD0052807D9E67525766576A576DF
:100FE000A4F86A50E574A57794F82B0018B114E0C2
:100FF000401CE074F8E74FF48071384605F0CAFEF3
:101000000028207D0DD0052807D9E5752676657660
:10101000A576A4F86A502575A57794F82A0018B12A
:101020002CE0401C2075F8E70821384605F0B2FE98
:101030000028607D0DD0052807D9E57525766676F0
:10104000A576A4F86A506575A57794F82A0018B1BA
:1010500014E0401C6075F8E74FF40071384605F065
:1010600099FE0028A07D17D0052807D9E5752576BB
:101070006576A676A4F86A50A575A57780214046C6
:1010800005F088FE0028B4F86A0008D0C01E612868
:1010900018D2207F98B115E0401CA075EEE7401CE7
:1010A00080B2A4F86A00642818D394F82900A8B97B
:1010B000E57525766576A576E57626770CE094F8D5
:1010C000290020B194F82900012805D006E0E57533
:1010D00025766576A576E676A4F86A500A200CF0A7
:1010E000C3FC6BE7000400480008004858000020DB
:1010F0002DED088B84B000209FED6D0A00908DEDE2
:10110000000AADF804006B4E9FED6B9B9FED6CAB3E
:101110006D4DA5F18004DFED6D8A5E2165480CF010
:1011200004FAB6F8C200B0EE408AADF80400B6F892
:10113000B20038B93E215F480CF0F7F985ED050A99
:1011400084ED180AB6F9B200012806D0022814D09E
:10115000032817D0042852D037E018EE100AFFF702
:10116000B1FA41EC100B51EC190B53EC102BFFF7BB
:1011700013FA41EC1B0B606B1AE094ED060A84ED48
:10118000180A22E018EE100AFFF79CFA41EC100B47
:1011900051EC190B53EC102BFFF7FEF941EC1B0B34
:1011A000BDF804004A4900EB800001EBC000406933
:1011B000FFF788FA53EC1B2BFFF77CF953EC1A2B43
:1011C000FFF7D1F8FFF791FA206694ED180A95ED34
:1011D000061A002260EE280A95ED070A11463D48DE
:1011E00000EE810ABCEEC00A8DED000A10EE103A46
:1011F00005F07CFA5FF064000CF036FC8DE718EE29
:10120000100AFFF75FFA41EC100B51EC190B53EC8D
:10121000102BFFF7C1F99FED301B53EC112BFFF79B
:10122000A2F8FFF762FA00EE100A002284ED180A15
:1012300060EE280A95ED061A95ED070A1146254835
:1012400000EE810ABCEEC00A8DED000A10EE103AE5
:1012500005F04CFA01200CF007FC18EE100AFFF71D
:1012600031FA41EC100B51EC190B53EC102BFFF73A
:1012700093F953EC1A2BFFF776F8FFF736FA00EEE6
:10128000100A002284ED180A60EE280A95ED061A6D
:1012900095ED070A11460F4800EE810ABCEEC00A20
:1012A0008DED000A10EE103A05F020FA1320A3E7A6
:1012B00000000000FC18002000000000000030408A
:1012C00000000000000010405801002000004C43C6
:1012D000A832002008070020000000000000244081
:1012E000014805F080BA0000C0060020014805F062
:1012F0007ABA0000A4430020014805F074BA000047
:101300005C430020014805F06EBA000084420020D2
:10131000014805F068BA00003C420020014805F091
:1013200062BA0000CC420020014805F05CBA00001F
:1013300014430020014805F056BA0000F441002093
:10134000014805F050BA0000AC41002030B590F8DB
:10135000444004F01C050124AC40056C6C6004683A
:1013600063608368102B036803D099600068C260D3
:1013700030BD9A600068C16030BD00002DED028B69
:1013800082B04FF0000B8DF804B09FEDFE8A8DED1A
:10139000018ADFEDFD8ADFF8F4A3FD4FFB4C6846C0
:1013A000803C94ED090A0CF0B8F8BDF8000027F86D
:1013B0005C0BBDF80200A4F1800527F85A0CA87850
:1013C00027F8480C684694ED0C0A0CF0A6F8BDF816
:1013D000000027F8300CBDF8020027F82E0C6846F4
:1013E00094ED0D0A0CF099F8BDF8000027F82C0CCC
:1013F000BDF8020027F82A0C684694ED0E0A0CF09E
:101400008CF8BDF8000027F8280CBDF8020027F87A
:10141000260C04F500708046006A98F8241027F81E
:10142000200C000C40EA014027F81E0CB5F84800DB
:1014300027F81C0C684694ED060A0CF06EF8BDF80F
:10144000000027F8140CBDF8020027F8120C2879C8
:1014500038806846D14656469AED010A0CF05DF890
:10146000BDF800007882BDF80200B882684694EDAD
:10147000080A0CF052F8BDF800003883BDF80200ED
:10148000788394ED080AD4ED070A684630EE600AC6
:101490000CF043F8BDF80000B883BDF80200F883F3
:1014A0006088B884B5F844003886B5F84600788678
:1014B0006879F886684696ED040A0CF02EF8BDF8B7
:1014C00000003887BDF802007887684696ED030A69
:1014D0000CF023F8BDF80000B887BDF80200F887CB
:1014E000D8E90623D8E904015C3F161A73EB01061C
:1014F00008D2801A61EB0301FFF7BDF800EE100A75
:10150000684602E06846B0EE480A0CF006F8BDF8FE
:10151000000027F89C0FBDF802007880B5F858004D
:10152000B880B5F85A00F880287A3881E87978814F
:10153000B5F8740027F8120FA8466846CA464E460A
:1015400099ED080A0BF0E9FFBDF80000F882BDF83C
:10155000020090493883684691ED000A0BF0DDFFE8
:10156000BDF800003884BDF8020078846846B0EE0B
:10157000680A0BF0D2FFBDF80000B884BDF8020085
:10158000F884B5F84000A7F842006846A14694EDFB
:10159000120A1E370BF0C1FFBDF800003885BDF8F8
:1015A00002007885684694ED140A0BF0B6FFBDF88A
:1015B0000000B885BDF80200F885684694ED160A6B
:1015C0000BF0ABFFBDF800003886BDF8020078864E
:1015D00094ED120AD4ED130A684630EE600A0BF05F
:1015E0009CFFBDF80000B886BDF80200F88694EDB7
:1015F000140AD4ED150A684630EE600A0BF08DFF30
:10160000BDF800003887BDF80200788794ED160A0F
:10161000D4ED170A684630EE600A0BF07EFFBDF885
:101620000000B887BDF80200F887684696ED0F0AFB
:101630000BF073FFBDF80000A7F84400BDF80200EE
:10164000A7F84600E87FCC3F002876D15FF000067F
:1016500006EB860207EBC2044F4894F8201100EB1A
:10166000C20500F8321094F822116970B4F8240110
:10167000A88094F82601A87094F82801A871B4F8FD
:101680002A01288104F5967000210BF04EFF85EDAC
:10169000030A04F5987000210BF047FF85ED040A5A
:1016A000A87920B1012810D004280ED020E095EDB3
:1016B000050A3A49BDEEC00A10EE100AA4F834013A
:1016C00010EE100A21F8260017E095ED050A68468D
:1016D0000BF023FFBDF80020A4F834212F48BDF8FB
:1016E0000210A4F8361120F8262000EB8600418075
:1016F000A8790228DBD00328D9D004F59C700021FA
:101700000BF013FF85ED080A04F59E7000210BF025
:101710000CFF85ED090A04F5A07000210BF005FF10
:1017200085ED060A04F5A27000210BF0FEFE761C82
:10173000B6B285ED070A282E8AD3B7F9D600A0F5F0
:101740008071E13911D1A7F8D6B00DF00BFB10482C
:101750000DF036FD8DF804000CF066FC0DF022FB58
:1017600000200CF09DF803F04FFEB7F9D61045F2BB
:101770003340C1427BD1A7F8D6B068464C4699EDBC
:10178000100A0DE00000000052B8AE4058010020E1
:10179000FC18002024000020A83200205C2000203B
:1017A0000BF0BBFEBDF80000F883BDF802003884E2
:1017B000684694ED110A0BF0B0FEBDF80000788485
:1017C000BDF80200B88498F80310684600EE101ABD
:1017D000B8EE400A0BF0A1FEBDF80000F884BDF899
:1017E00002003885684694ED1D0A0BF096FEBDF8A0
:1017F0000000A7F86600BDF80200A7F86800684678
:1018000094ED1E0A0BF089FEBDF80000A7F86A00EF
:10181000BDF80200A7F86C00684654469AED060A27
:101820000BF07BFEBDF80000A7F8B400BDF8020085
:10183000A7F8B600684694ED070A0BF06EFEBDF8F7
:101840000000A7F8B800BDF80200A7F8BA000DF034
:1018500089FA3E480DF0B4FC8DF804000CF0E4FB6E
:101860000DF0A0FA00200CF01BF803F0CDFDB7F945
:10187000D80042F24631C8420AD098F81F1019B970
:10188000B8F87E00012803D00A200CF0EDF885E5B9
:1018900059463C46A7F8D8B000204FF46C720BE0D4
:1018A0000F280BD0112809D0332807D0352805D0B0
:1018B0005A2803D05C2801D024F81010401C80B2B4
:1018C0009042EDD30A2024F8C80F44F620606082CD
:1018D0006846B3EE060A0BF020FEBDF80000A082B9
:1018E000BDF80200E0826846B3EE0A0A0BF015FE6E
:1018F000BDF800002083BDF80200608368469FEDBC
:10190000140A0BF00AFEBDF8000024F8460CBDF8DE
:10191000021024F8441C24F8400C24F83E1C60807B
:10192000A1806420E08409480DF04AFC8DF8040091
:10193000BFF34F8F07480168074A01F4E061114384
:101940000160BFF34F8F00BFFDE70000FC180020CF
:101950000000E1470CED00E00400FA0570470000CC
:101960002DED0C8B8CB09FED4A0A4A4F8DED050A88
:101970008DED000A8DED010A4FF0FF3907F1800867
:10198000A7F180049FED449B9FED45AB9FED46DAA8
:101990004946B86E0DF0EEFE44494022084607F075
:1019A000D5F8424A4023114601F5D8700BF00AFCE5
:1019B00005AA40213D480BF057FD08AB6A4640217F
:1019C0003A480BF08FFC08AB01AA402137480BF0D6
:1019D00001FD00231A4605A9D8F868000DF030FD76
:1019E000606C0646FEF76EFE41EC1B0B206C054654
:1019F000FEF768FE41EC180B0098FEF763FE53EC0F
:101A0000192BFEF757FD53EC1A2BFEF7C5FD53ECCF
:101A1000182BFEF74FFD53EC1B2BFEF7A4FCFEF733
:101A200064FE08EE100A3046FEF74CFE41EC1C0B3B
:101A30002846FEF747FE41EC1B0B0198FEF742FEDD
:101A400053EC192BFEF736FD53EC1A2BFEF7A4FDD1
:101A500053EC1B2BFEF72EFD53EC1C2BFEF783FCE7
:101A6000FEF743FE94ED0F1A00EE100A0023C1EEBC
:101A70000D0A1A46194688EE201A84ED161A80EED1
:101A8000201A84ED171A786F0DF0DAFC80E7000059
:101A90000000000058010020B4D934E70C684A3F28
:101AA000393939393939E93F00007A4420170020A3
:101AB0008CB00122D1034FF0904005F074F90CF086
:101AC00097FD01200CF084FD0BF008FD0CF002FEE8
:101AD000DFF80C84B8F9DA0000EBD07040100BF09E
:101AE000C3FF01200BF0DCFEDFF8F893DFF8F8B35A
:101AF000FE4FFF4D4FF0000AA87C012803D0687FFD
:101B0000012806D011E000200CF062FD0BF026FF4A
:101B100056E095F82E00012818D0022816D0032888
:101B200014D0042812D005283DD0B5F86E00012845
:101B30004AD002284FD0032854D0042857D0052873
:101B400058D006285FD007285DD058E000200CF060
:101B50003FFD002108460CF0B7FD5C460123D4E9A7
:101B60000012E4A00CF054FED7E900120123E3A018
:101B70000CF04EFE0F2100200CF0A6FDD4E900125F
:101B80000123DFA00CF044FE1E2100200CF09CFD80
:101B9000D4E900120123DCA00CF03AFED7E90012D0
:101BA0000123DAA00AE000200CF012FD0F21002032
:101BB0000CF08AFDDBE900120123D5A00CF028FE11
:101BC0000CF088FD03F0FABA95F8251009B106214A
:101BD00013E0092111E095F8251009B108210CE066
:101BE00001210AE095F8251031B9282105E095F882
:101BF000251009B1042100E0022185F82210E97DB9
:101C0000012902D00FE00321F7E7B5F8721051B1B6
:101C1000EA7F42B9491EA5F8721085F817A085F829
:101C20001BA085F820A0297E012910D1B5F87210DB
:101C300095F8222091420AD2EA7F42B9491CA5F8C0
:101C4000721085F818A085F81BA085F820A0697E81
:101C5000012927D130B3E97E21BBE97F11BB0328DD
:101C60000CD1B5F8720048B1B5F8700010B1401E43
:101C7000A5F87000504685F819A011E0B5F86C0081
:101C800010B1401EA5F86C00A348B5F86C1030F8F0
:101C90001100A5F86E0085F819A05046A5F872A0AD
:101CA00085F82000A87E012801D1E87E18B1E87EE1
:101CB00001282FD03AE0E87F58BBB5F86E00032822
:101CC0000FD1B5F8720060B1B5F87000282804D2C1
:101CD0000C2802D2401CA5F87000504685F81AA0C6
:101CE00015E0B5F87C10B5F86C00491E884202DAA0
:101CF000401CA5F86C008848B5F86C1030F811004D
:101D0000A5F86E0085F81AA05046A5F872A085F8CF
:101D100020000BE0B5F8720040B1E87F20B1002050
:101D2000E87785F81BA012E00120F9E7287F012859
:101D30000DD1B5F8720050B995F8250058B10020C2
:101D400085F8250085F81CA0012085F82900E87D8C
:101D5000012802D00CE00120F2E7E87F012807D13A
:101D600095F8200010B1401E85F8200085F817A0D6
:101D7000287E012809D1E87F012806D195F82000A6
:101D8000012085F8200085F818A0287F01280DD1B2
:101D9000B5F8720050B10CF00FFB85F81CA085F867
:101DA0001BA085F825A0012085F82900B5F876004C
:101DB00001287DD1B5F86E000128FAD1B5F872007E
:101DC000002876D10CF004FC002108460CF07CFCC5
:101DD000D7E90012012351A00CF01AFDA8780128C0
:101DE00005D095F8250088B3012842D065E095F824
:101DF000210050B1D7E90012012349A00CF008FDE1
:101E000095F82500012814D017E00F2100200CF0D0
:101E10005BFC5C460123D4E9001242A00CF0F8FC04
:101E20001E2100200CF050FCD4E9001201233FA039
:101E3000E4E7002137200CF0CCFD00213C200CF021
:101E4000C8FD2B213A200CF053FDA2E1FFE7002052
:101E50000CF0BEFB002108460CF036FCD7E900125E
:101E600001232EA00CF0D4FC00211C200CF02CFC33
:101E700014E000200CF0ACFB002108460CF024FC20
:101E8000D7E90012012325A00CF0C2FC00211C2080
:101E90000CF01AFC002137200CF09BFD00213C20A7
:101EA0000CF097FD2B213A200CF022FD0F2101E0D0
:101EB000F5E176E100200CF007FC0D4C8034208821
:101EC000012851D112221BA102A8FEF740FA1221CB
:101ED00002A80CF0B3FC202100200CF0F5FB33E04D
:101EE000FC180020A832002000000020080000207C
:101EF00058000020CEE1EDEEE20000002D000000D1
:101F0000EBE5EDE8E5000000CFCE00002E2E2E0020
:101F1000D3D1CFC5D8CDCE00F83A002049435000E8
:101F200020000000CEC1D0DBC2000000C4C0D2D768
:101F3000C8CAC000D1CAC720E2E8E1F0EEF3F1EA76
:101F4000EEF0E5EDE8FF0000206BFEF7BBFBCDE90E
:101F50000001FDA24021FE480AF008FCD7E900126A
:101F60000123FB480CF054FC208802281CD11122CC
:101F7000F8A102A8FEF7EBF9112102A80CF05EFC13
:101F8000202100200CF0A0FB606BFEF79BFBCDE94D
:101F90000001EDA24021EE480AF0E8FBD7E900126B
:101FA0000123EB480CF034FC208803281CD11422B8
:101FB000EDA102A8FEF7CBF9142102A80CF03EFC1B
:101FC000202100200CF080FBA06BFEF77BFBCDE90D
:101FD0000001DDA24021DE480AF0C8FBD7E900126B
:101FE0000123DB480CF014FC208804281CD11422A7
:101FF000E3A102A8FEF7ABF9142102A80CF01EFC25
:10200000202100200CF060FBA06CFEF75BFBCDE90B
:102010000001CDA24021CE480AF0A8FBD7E900126A
:102020000123CB480CF0F4FB208805281CD1172293
:10203000DAA102A8FEF78BF9172102A80CF0FEFB2B
:10204000202100200CF040FB206DFEF73BFBCDE98A
:102050000001BDA24021BE480AF088FBD7E900126A
:102060000123BB480CF0D4FB208806281CD1142285
:10207000D0A102A8FEF76BF9142102A80CF0DEFB38
:10208000202100200CF020FBA06DFEF71BFBCDE90A
:102090000001ADA24021AE480AF068FBD7E900126A
:1020A0000123AB480CF0B4FB2088072823D114226D
:1020B000C7A102A8FEF74BF9142102A80CF0BEFB41
:1020C000202100200CF000FB94ED120AD4ED130A3D
:1020D00030EE600A10EE100AFEF7F4FACDE90001C6
:1020E00099A240219A480AF041FBD7E90012012346
:1020F00097480CF08DFB2088082823D11422BAA120
:1021000002A8FEF724F9142102A80CF097FB1E2167
:1021100000200CF0D9FA94ED140AD4ED150A30EE33
:10212000600A10EE100AFEF7CDFACDE9000186A292
:10213000402187480AF01AFBD7E90012012384489E
:102140000CF066FB2088092823D11422ACA102A838
:10215000FEF7FDF8142102A80CF070FB20210020EE
:102160000CF0B2FA94ED160AD4ED170A30EE600ABC
:1021700010EE100AFEF7A6FACDE9000172A2402186
:1021800073480AF0F3FAD7E90012012370480CF003
:102190003FFB85F81FA085F82AA0B5F86E0001283E
:1021A0007DD1B5F87200012848D195F825000028A6
:1021B00076D10CF00DFA002108460CF085FA0123C7
:1021C000AFF2A820D7E900120CF022FB00211C205E
:1021D0000CF07AFA002137200CF0C3FB00213C20E0
:1021E0000CF0F7FB0F2100200CF06EFA1222AFF278
:1021F000BC2102A8FEF7ABF8122102A80CF01EFBCE
:10220000202100200CF060FA8348006BFEF75AFA98
:10221000CDE9000181A240214D480AF0A7FAD7E993
:10222000001201234A480CF0F3FA85F81FA00120A0
:1022300085F82A00B5F86E000128B1D1B5F8720012
:1022400002284AD195F82500002879D10CF0C0F970
:10225000002108460CF038FA0123AFF24030D7E9EC
:1022600000120CF0D5FA00211C200CF02DFA0021F0
:1022700037200CF076FB00213C200CF0AAFB0F214C
:1022800000200CF021FA112232A102A8FEF75FF81B
:10229000112102A80CF0D2FA2021002001E05AE11D
:1022A000B3E20CF011FA5C48406BFEF70BFACDE993
:1022B00000015AA2402126480AF058FAD7E9001234
:1022C000012323480CF0A4FA85F81FA0012085F80B
:1022D0002A00B5F86E000128AFD1B5F872000328C6
:1022E0002FD195F8250000282CD10CF071F9002190
:1022F00008460CF0E9F90123AFF2E030D7E900120B
:102300000CF086FA00211C200CF0DEF900213720A9
:102310000CF027FB00213C200CF05BFB0F21002080
:102320000CF0D2F9142210A102A8FEF710F8142123
:1023300002A80CF083FA202100200CF0C5F971E00E
:10234000BAE28AE010E30000252E3031660000007A
:10235000063B0020D1CAC720E2E8E1F0EEF1EAEE48
:10236000F0EEF1F2E8000000D1CAC720E2E8E1F0A7
:10237000EEEFE5F0E5ECE5F9E5EDE8FF0000000043
:10238000C0ECEFEBE8F2F3E4E020E2E8E1F0EEF39A
:10239000F1EAEEF0E5EDE8FF00000000C0ECEFEB45
:1023A000E8F2F3E4E020E2E8E1F0EEF1EAEEF0EE4C
:1023B000F1F2E800C0ECEFEBE8F2F3E4E020E2E851
:1023C000E1F0EEEFE5F0E5ECE5F9E5EDE8FF000022
:1023D000D0E0E7ECE0F520E2E8E1F0EEF3F1EAEE40
:1023E000F0E5EDE8FF000000D0E0E7ECE0F520E2EA
:1023F000E8E1F0EEF1EAEEF0EEF1F2E800000000C4
:10240000D0E0E7ECE0F520E2E8E1F0EEEFE5F0E522
:10241000ECE5F9E5EDE8FF00D8000020252E30338B
:1024200066000000FE48806BFEF74CF9AFF2140224
:10243000CDE900014021FB480AF098F9D7E90012E4
:102440000123F8480CF0E4F985F81FA0012085F875
:102450002A00B5F86E0001287DD1B5F87200042875
:1024600045D195F82500002876D10CF0B1F800216F
:1024700008460CF029F90123AFF26050D7E90012A9
:102480000CF0C6F9002137200CF06BFA00213C203B
:102490000CF09FFA0F2100200CF016F91822AFF271
:1024A000201102A8FDF753FF182102A80CF0C6F96D
:1024B000202100200CF008F9D948806CFEF702F9C1
:1024C000AFF2A802CDE900014021D6480AF04EF94A
:1024D000D7E900120123D3480CF09AF985F81FA020
:1024E000012085F82A00B5F86E000128B4D1B5F8AE
:1024F0007200052848D195F8250000287ED10CF0FF
:1025000067F8002108460CF0DFF80123AFF2F45021
:10251000D7E900120CF07CF9002137200CF021FAE9
:1025200000213C200CF055FA0F2100200CF0CCF8D3
:102530001722AFF2981102A8FDF709FF172102A890
:102540000CF07CF9202100200CF0BEF8B448006D9E
:10255000FEF7B8F801E053E25EE2AFF24012CDE9D7
:1025600000014021AF480AF001F9D7E90012012328
:10257000AC480CF04DF985F81FA0012085F82A0021
:10258000B5F86E000128B1D1B5F87200062847D120
:1025900095F8250000287CD10CF01AF80021084697
:1025A0000CF092F80123AFF28C60D7E900120CF026
:1025B0002FF9002137200CF0D4F900213C200CF039
:1025C00008FA0F2100200CF07FF81A22AFF21C212C
:1025D00002A8FDF7BCFE1A2102A80CF02FF9202159
:1025E00000200CF071F88E48806DFEF76BF8AFF2AA
:1025F000D412CDE9000140218A4800E052E20AF0FD
:10260000B5F8D7E90012012386480CF001F985F8E6
:102610001FA0012085F82A00B5F86E000128B2D16C
:10262000B5F8720007284ED195F825000028AAD1E8
:102630000BF0CEFF002108460CF046F80123AFF264
:102640002470D7E900120CF0E3F8002137200CF0D9
:1026500088F900213C200CF0BCF90F2100200CF07F
:1026600033F81522AFF2982102A8FDF770FE15216C
:1026700002A80CF0E3F8202100200CF025F86848AF
:1026800090ED120AD0ED130A30EE600A10EE100A37
:1026900000E056E2FEF716F8AFF28022CDE9000125
:1026A000402160480AF062F8D7E9001201235D4832
:1026B0000CF0AEF885F81FA0012085F82A00B5F8C7
:1026C0006E000128ABD1B5F8720008284CD195F8FE
:1026D00025000028A3D10BF07BFF002108460BF05A
:1026E000F3FF0123AFF2CC70D7E900120CF090F8A1
:1026F000002137200CF035F900213C200CF069F95D
:102700000F2100200BF0E0FF1422AFF2243102A8C9
:10271000FDF71DFE142102A80CF090F820210020E6
:102720000BF0D2FF3E4890ED140AD0ED150A30EEC2
:10273000600A10EE100AFDF7C5FFAFF22032CDE9B6
:102740000001402137480AF011F8D7E900120123AF
:1027500034480CF05DF885F81FA0012085F82A00A8
:10276000B5F86E000128ADD1B5F87200092848D13E
:1027700095F825000028A5D10BF02AFF0021084676
:102780000BF0A2FF0123AFF66C00D7E900120CF0AA
:102790003FF8002137200CF0E4F80F2100200BF067
:1027A00093FF1722AFF2A83102A8FDF7D0FD172141
:1027B00002A80CF043F8202100200BF085FF1848F8
:1027C00090ED160AD0ED170A30EE600A10EE100AEE
:1027D000FDF778FFAFF2BC32CDE90001402111488E
:1027E00009F0C4FFD7E9001201230E480CF010F8DD
:1027F00085F81FA0012085F82A00B5F86E00012891
:10280000B1D1B5F87200012852D195F82500012800
:10281000A9D100200BF0DCFE0021084604E00000F6
:10282000D8000020063B00200BF04EFF0123AFF63E
:102830001410D7E900120BF0EBFF002132200CF04E
:1028400090F8002137200CF0C4F800213C200CF057
:10285000C0F80F2100200BF037FF1822F8A102A8C2
:10286000FDF775FD182102A80BF0E8FF20210020DC
:102870000BF02AFFE87F0128F84814D0B0F90030A7
:10288000F7A24021F74809F071FFD7E900120123B0
:10289000F4480BF0BDFF012085F82A00B5F86E0062
:1028A000012805D08AE10AF09BFF85F82AA0F5E708
:1028B000B5F87200022853D195F825000128F1D10E
:1028C00000200BF085FE002108460BF0FDFE0123E1
:1028D000AFF6B810D7E900120BF09AFF00213220B2
:1028E0000CF03FF8002137200CF073F800213C2059
:1028F0000CF06FF80F2100200BF0E6FE1922DAA190
:1029000002A8FDF724FD192102A80BF097FF202152
:1029100000200BF0D9FEE87F01281AD0CF48806A4A
:10292000FDF7D0FEAFF2E052CDE900014021CD48E5
:1029300009F01CFFD7E900120123CA480BF068FF19
:10294000012085F82A0000BFB5F86E00012807D0E5
:1029500034E1C24828300AF013FE85F82AA0F3E7D4
:10296000B5F87200032853D195F82500012899D1B4
:1029700000200BF02DFE002108460BF0A5FE0123E0
:10298000AFF66820D7E900120BF042FF0021322099
:102990000BF0E7FF002137200CF01BF800213C2052
:1029A0000CF017F80F2100200BF08EFE1122B5A1BC
:1029B00002A8FDF7CCFC112102A80BF03FFF20215B
:1029C00000200BF081FEE87F01281AD0A348C06ADE
:1029D000FDF778FEAFF29062CDE900014021A148F9
:1029E00009F0C4FED7E9001201239E480BF010FF46
:1029F000012085F82A0000BFB5F86E00012807D035
:102A0000DCE096482C300AF0BBFD85F82AA0F3E7FD
:102A1000B5F87200042841D195F8250001287DD130
:102A200000200BF0D5FD002108460BF04DFE0123E0
:102A3000AFF61830D7E900120BF0EAFE0021322081
:102A40000BF08FFF002137200BF0C3FF00213C204B
:102A50000BF0BFFF0F2100200BF036FE0D228EA1E0
:102A600002A8FDF774FC0D2102A80BF0E7FE20215F
:102A700000200BF029FEEB7879A24021794809F07B
:102A800075FED7E90012012376480BF0C1FE012044
:102A900085F82A00B5F86E0001283FD1B5F872001C
:102AA00005284AD195F82500012837D100200BF0E0
:102AB0008FFD002108460BF007FE0123AFF6A4307E
:102AC000D7E900120BF0A4FE002132200BF049FFE1
:102AD000002137200BF07DFF00213C200BF079FF17
:102AE0000F2100200BF0F0FD14226FA102A8FDF7CA
:102AF0002EFC142102A80BF0A1FE202100200BF0D7
:102B0000E3FD5648006CFDF7DDFDCDE900016CA248
:102B10004021544809F02AFE012300E04EE0D7E9A5
:102B2000001250480BF074FE85F81FA0012085F8B4
:102B30002A00B5F86E00012840D1B5F872000628C9
:102B40003CD195F82500012838D100200BF040FD3C
:102B5000002108460BF0B8FD0123AFF64040D7E94D
:102B600000120BF055FE002132200BF0FAFE0F216F
:102B700000200BF0A9FD142253A102A8FDF7E7FBEA
:102B8000142102A80BF05AFE202100200BF09CFD1E
:102B90003248406CFDF796FDCDE9000148A2402186
:102BA000304809F0E3FDD7E9001201232D480BF06E
:102BB0002FFE85F81FA0012085F82A00B5F87800BF
:102BC00001283CD1B5F86E000228FAD1B5F87200A0
:102BD00098BB00200BF0FCFC002108460BF074FDB4
:102BE000D7E9001201233EA00BF012FE287901283C
:102BF00003D1B5F8780001280FD095F8250018B159
:102C0000002137200BF0E5FE00213C200BF0E1FE17
:102C1000B5F87600012867D097E095F8210068B1F3
:102C20000123AFF60450D7E9001200BF0BF0F0FD0E
:102C300095F8250001286FD072E0B3E055E02EE151
:102C4000CFE0F0E0ECE5F2F020EDE020E3EBE0E2B5
:102C5000EDEEEC20ECE5EDFE00000000D8000020D9
:102C600025640000063B0020CFF0E5E4F3EFF0E53B
:102C7000E4E8F2E5EBFCEDE0FF20F3F1F2E0E2EA5C
:102C8000E0000000C0E2E0F0E8E9EDE0FF20F3F151
:102C9000F2E0E2EAE0000000D0E5E6E8EC20F4E84B
:102CA000EBFCF2F0E0000000CAEEFDF4F4E8F6E818
:102CB000E5EDF220F3F1E8EBE5EDE8FF00000000C0
:102CC000252E303566000000CAEEFDF4F4E8F6E883
:102CD000E5EDF220F1ECE5F9E5EDE8FF000000009C
:102CE000342D3230000000002BE00F2100200BF0CB
:102CF000EBFC01235C46AFF6D450D4E900120BF094
:102D000087FD1E2100200BF0DFFC0123AFF6E4500D
:102D1000D4E900128AE7FFE7002137200BF059FEC3
:102D200000213C200BF055FEB5F87600012803D1B8
:102D300026213A200BF086FE2B213A200BF0D8FDFD
:102D40002AE026213A200BF07DFE2B213A200BF0C1
:102D5000CFFD0F2100200BF0B7FC1222FEA102A82C
:102D6000FDF7F5FA122102A80BF068FD20210020E2
:102D70000BF0AAFCFD484068FDF7A4FCAFF6641216
:102D8000CDE900014021FA4809F0F0FCD7E9001232
:102D90000123F7480BF03CFD85F82AA0B5F86E003A
:102DA00002287CD1B5F87200012879D195F8250068
:102DB000F0BB00200BF00CFC002108460BF084FC5B
:102DC0000123AFF2E400D7E900120BF021FD00214E
:102DD00037200BF0C6FD0F2100200BF075FCDBE95E
:102DE00000120123E3A00BF013FD202100200BF0C3
:102DF0006BFCDE4880388069FDF764FCCDE900019A
:102E0000DDA24021DA4809F0B1FCD7E90012012324
:102E1000D7480BF0FDFC85F81FA0012085F82A009B
:102E2000B5F86E000228BCD1B5F87200012800E0A8
:102E300000E055D195F825000128B2D100200BF013
:102E4000C7FB002108460BF03FFC0123AFF27010D6
:102E5000D7E900120BF0DCFC002132200BF081FDE1
:102E6000002137200BF0B5FD00213C200BF0B1FD17
:102E70000F2100200BF028FC2522C1A102A8FDF79C
:102E800066FA252102A80BF0D9FC202100200BF0C6
:102E90001BFCE87F0128B5481DD0006801E041E235
:102EA0001EE0FDF70FFCAFF66032CDE900014021D6
:102EB000AF4809F05BFCD7E900120123AC480BF0E6
:102EC000A7FC012085F82A000BF004FCB5F86E0081
:102ED000022805D0C2E20AF053FB85F82AA0F3E7E6
:102EE000B5F87200022855D195F825000128F1D1D6
:102EF00000200BF06DFB002108460BF0E5FB0123E1
:102F0000AFF22420D7E900120BF082FC002132201E
:102F10000BF027FD002137200BF05BFD00213C204A
:102F20000BF057FD0F2100200BF0CEFB26229EA1B7
:102F300002A8FDF70CFA262102A80BF07FFC202145
:102F400000200BF0C1FBE87F01281CD087488038A7
:102F5000C06FFDF7B7FBAFF61042CDE9000140218D
:102F6000834809F003FCD7E90012012380480BF0E5
:102F70004FFC012085F82A000BF0ACFBB5F86E0081
:102F8000022807D06AE27948001F0AF0F9FA85F8AA
:102F90002AA0F1E7B5F87200032853D195F825006F
:102FA000012897D100200BF013FB002108460BF0FD
:102FB0008BFB0123AFF2D820D7E900120BF028FCDD
:102FC000002132200BF0CDFC002137200BF001FD59
:102FD00000213C200BF0FDFC0F2100200BF074FBC6
:102FE00020227BA102A8FDF7B2F9202102A80BF054
:102FF00025FC202100200BF067FBE87F01281AD078
:103000005A488038406EFDF75DFBAFF6C442CDE90B
:1030100000014021564809F0A9FBD7E9001201231D
:1030200053480BF0F5FB012085F82A00B5F86E0037
:10303000022807D012E24D481C380AF0A1FA85F8A0
:103040002AA0F3E7B5F87200042853D195F82500BB
:10305000012897D100200BF0BBFA002108460BF0A5
:1030600033FB0123AFF28830D7E900120BF0D0FB1D
:10307000002132200BF075FC002137200BF0A9FC59
:1030800000213C200BF0A5FC0F2100200BF01CFBC5
:10309000182258A102A8FDF75AF9182102A80BF02E
:1030A000CDFB202100200BF00FFBE87F01281AD078
:1030B0002E488038C06EFDF705FBAFF67452CDE99F
:1030C000000140212A4809F051FBD7E900120123F1
:1030D00027480BF09DFB012085F82A00B5F86E000B
:1030E000022807D0BAE1214814380AF049FA85F8D5
:1030F0002AA0F3E7B5F8720005282BD195F8250032
:10310000012897D100200BF063FA002108460BF04C
:10311000DBFA0123AFF23840D7E900120BF078FB5D
:10312000002132200BF01DFC002137200BF051FC58
:1031300000213C200BF04DFC0F2100200BF0C4FAC5
:10314000212233A102A8FDF702F9212102A80BF0E8
:1031500075FB6FE096E00000D0E0F1F7E5F2EDEEF0
:10316000E520E7EDE0F7E5EDE8E500005801002097
:10317000063B0020D2EEEA00252E30326600000029
:10318000CDE8E6EDE8E920EFF0E5E4E5EB20E4E862
:10319000E0EFE0E7EEEDE020E4EBFF20EFE5F0E527
:1031A000F1F7E5F2E0000000C2E5F0F5EDE8E92016
:1031B000EFF0E5E4E5EB20E4E8E0EFE0E7EEEDE05A
:1031C00020E4EBFF20EFE5F0E5F1F7E5F2E00000A9
:1031D000D3F1F2E0E2EAE020EDE8E6EDFFFF20EFD8
:1031E000F0E5E4F3EFF0E5E4E8F2E5EBFCEDE0FF19
:1031F00000000000D3F1F2E0E2EAE020EDE8E6EDC5
:10320000FFFF20E0E2E0F0E8E9EDE0FF0000000071
:10321000D3F1F2E0E2EAE020E2E5F0F5EDFFFF2095
:10322000EFF0E5E4F3EFF0E5E4E8F2E5EBFCEDE0E8
:10323000FF000000202100200BF046FAE87F012863
:1032400019D0FE48806EFDF73DFAAFF60472CDE965
:1032500000014021FA4809F089FAD7E90012012358
:10326000F7480BF0D5FA012085F82A00B5F86E0072
:10327000022807D0F2E0F14868300AF081F985F8B9
:103280002AA0F3E7B5F87200062853D195F8250077
:10329000012847D100200BF09BF9002108460BF0D4
:1032A00013FA0123AFF2C850D7E900120BF0B0FABD
:1032B000002132200BF055FB002137200BF089FB59
:1032C00000213C200BF085FB0F2100200BF0FCF9C6
:1032D0001922DCA102A8FDF73AF8192102A80BF087
:1032E000ADFA202100200BF0EFF9E87F01281AD079
:1032F000D248006FFDF7E6F9AFF6B472CDE90001F0
:103300004021CF4809F032FAD7E900120123CC4816
:103310000BF07EFA012085F82A0000BFB5F86E0098
:10332000022807D09AE0C54870300AF029F985F8DC
:103330002AA0F3E7B5F8720007284AD195F82500CE
:1033400001287DD100200BF043F9002108460BF045
:10335000BBF90123AFF27860D7E900120BF058FAFD
:10336000002132200BF0FDFA002137200BF031FB59
:1033700000213C200BF02DFB0F2100200BF0A4F9C5
:103380001422AFF2DC6102A8FCF7E1FF142102A8CD
:103390000BF054FA1E2100200BF096F9A748406F5D
:1033A000FDF790F9AFF2E862CDE900014021A448B1
:1033B00009F0DCF9D7E900120123A1480BF028FA43
:1033C00085F81FA0012085F82A00B5F86E000228B4
:1033D00044D1B5F87200082840D195F8250001289D
:1033E0003CD100200BF0F4F8002108460BF06CF9FA
:1033F0000123AFF21470D7E900120BF009FA002193
:1034000032200BF0AEFA0F2100200BF05DF91422F0
:10341000AFF24C7102A8FCF79AFF142102A80BF03E
:103420000DFA1E2100200BF04FF98448806FFDF744
:1034300049F9AFF27472CDE900014021804800E003
:103440000CE009F093F9D7E9001201237C480BF056
:10345000DFF985F81FA0012085F82A00B5F87A0069
:10346000012801D002287BD1B5F86E00032841D194
:10347000B5F87200F0BB00200BF0AAF80021084656
:103480000BF022F9D7E90012012375A00BF0C0F967
:10349000B5F87A00022817D100200BF099F8002126
:1034A00008460BF011F95C460123D4E900126DA027
:1034B0000BF0AEF900211C200BF006F9D4E9001244
:1034C000012369A00BF0A4F995F8250018B100219B
:1034D00037200BF07EFA00213C200BF07AFAB5F889
:1034E0007600012803D0B5F87800012805D12621FF
:1034F0003A2000E040E00BF0A5FA2B213A200BF037
:10350000F7F9687901283BD00F2100200BF0DCF897
:10351000B5F87A0002284DD0122254A102A8FCF777
:1035200016FF464C122102A8A2780BF0A9F920211F
:1035300000200BF0C9F8B4F9020000EB800109EBA0
:10354000C1008179012946D0042944D090ED050AB3
:10355000BDEEC00A10EE100A03B2AFF6FC0200E0A6
:10356000FEE34021364809F001F93548012300BF48
:10357000D7E900120BF04CF995F82500B8B3F0E349
:1035800095F8210010B101233DA0F1E70F210020A3
:103590000BF09AF85C460123D4E9001239A00BF035
:1035A00037F91E2100200BF08FF8D4E90012012317
:1035B00035A0DFE7092236A102A8FCF7C8FE0921E1
:1035C00002A80BF03BF9202100200BF07DF8B5F8A4
:1035D000483032A2C3E74069FDF774F8AFF26842A1
:1035E000CDE900014021164809F0C0F8BDE7FFE72A
:1035F0005FF00004B5F86E0003287DD1B5F87200C5
:10360000661CB04218D1B5F87000A8B900200AF0C5
:10361000DFFF002108460BF057F8234621A2402186
:10362000074809F0A3F8D7E90012012304480BF07A
:10363000EFF80021372039E088E00000D8000020B2
:10364000063B0020D3F1F2E0E2EAE020E2E5F0F50B
:10365000EDFFFF20E0E2E0F0E8E9EDE0FF00000030
:1036600034383500D2C8CA00C7D1CA00C7EDE0F768
:10367000E5EDE8E520F0E5E3E8F1F2F0E020000018
:1036800020000000CDC5D200D1C2DFC7C8000000B5
:10369000D1EEF1F2EEFFEDE8E50000002564202513
:1036A0002500000034383520256400000BF059F95E
:1036B000272C03D000213C200BF08BF92B213A2042
:1036C0000BF016F90F2100200AF0FEFF1222AFF2D4
:1036D000640102A8FCF73BFE2246122102A80BF06F
:1036E000CFF8202100200AF0EFFF04EB840109EB62
:1036F000C1018879012800E004E21BD0042819D018
:1037000091ED050ABDEEC00A10EE100A03B2AFF249
:1037100068024021FC4809F029F8D7E9001201238A
:10372000F9480BF075F885F81FA0B5F86E0003286E
:103730000CD0E7E14869FCF7C5FFAFF2C452CDE910
:1037400000014021F04809F011F8E6E7B5F87200F1
:10375000B0425BD1B5F87000012857D100200AF0C3
:1037600037FF002108460AF0AFFF2346AFF2CC0234
:103770004021E54808F0FAFFD7E900120123E248AA
:103780000BF046F8002137200BF0EBF8272C03D084
:1037900000213C200BF01DF926213A200BF052F9B4
:1037A0002B213A200BF0A4F80F2100200AF08CFF07
:1037B0001822D6A102A8FCF7CAFD2246182102A8A9
:1037C0000BF05EF8202100200AF07EFFE87F04EB7A
:1037D0008401012813D019F83130AFF2341240219E
:1037E000C94808F0C3FFD7E900120123C6480BF00F
:1037F0000FF800BFB5F86E00032807D082E108EB90
:10380000C10000F5907009F0EBFFF3E7B5F8720026
:10381000B0425BD1B5F87000022857D100200AF001
:10382000D7FE002108460AF04FFF2346AFF28C1264
:103830004021B54808F09AFFD7E900120123B248A9
:103840000AF0E6FF002137200BF08BF8272C03D07D
:1038500000213C200BF0BDF826213A200BF0F2F8B5
:103860002B213A200BF044F80F2100200AF02CFF06
:103870001A22ADA102A8FCF76AFD22461A2102A86D
:103880000AF0FEFF202100200AF01EFFE87F04EB73
:103890008401012813D009EBC1004378AFF2F8127C
:1038A0004021994808F062FFD7E9001201239648A9
:1038B0000AF0AEFFB5F86E00032807D022E108EB4E
:1038C000C10000F5917009F08BFFF3E7B5F87200C5
:1038D000B0425BD1B5F87000032857D100200AF040
:1038E00077FE002108460AF0EFFE2346AFF24C2295
:1038F0004021854808F03AFFD7E9001201238248A9
:103900000AF086FF002137200BF02BF8272C03D07C
:1039100000213C200BF05DF826213A200BF092F8B4
:103920002B213A200AF0E4FF0F2100200AF0CCFE00
:103930000F2284A102A8FCF70AFD22460F2102A84B
:103940000AF09EFF202100200AF0BEFEE87F04EB73
:103950008401012813D009EBC1008388AFF2B8229B
:103960004021694808F002FFD7E9001201236648A8
:103970000AF04EFFB5F86E00032807D0C2E008EB4E
:10398000C10000F5927009F02BFFF3E7B5F8720063
:10399000B0425BD1B5F87000042857D100200AF07E
:1039A00017FE002108460AF08FFE2346AFF20C32C4
:1039B0004021554808F0DAFED7E9001201235248A9
:1039C0000AF026FF002137200AF0CBFF272C03D076
:1039D00000213C200AF0FDFF26213A200BF032F8AE
:1039E0002B213A200AF084FF0F2100200AF06CFE00
:1039F0001C2258A102A8FCF7AAFC22461C2102A8FE
:103A00000AF03EFF202100200AF05EFEE87F04EB72
:103A10008401012813D009EBC1008378AFF278321A
:103A20004021394808F0A2FED7E9001201233648A8
:103A30000AF0EEFEB5F86E00032807D062E008EB4E
:103A4000C10000F5937009F0CBFEF3E7B5F8720002
:103A5000B04258D1B5F87000052854D100200AF0C2
:103A6000B7FD002108460AF02FFE2346AFF2CC3204
:103A70004021254808F07AFED7E9001201232248A8
:103A80000AF0C6FE002137200AF06BFF272C03D076
:103A900000213C200AF09DFF26213A200AF0D2FFA7
:103AA0002B213A200AF024FF0F2100200AF00CFEFF
:103AB0002A2230A102A8FCF74AFC22462A2102A8A9
:103AC0000AF0DEFE202100200AF0FEFDE87F01283A
:103AD00069D004EB840109EBC100006AFCF7F2FD38
:103AE000CDE900012E4A4021074808F03FFED7E902
:103AF0000012012304480AF08BFE00BFB5F86E00E7
:103B000003286BD0C4E369E0063B0020C2EAEBFE69
:103B1000F7E8F2FC20EEEFF0EEF120F0E5E3E8F15B
:103B2000F2F0E02000000000C0E4F0E5F120F3F145
:103B3000F2F0EEE9F1F2E2E020F0E5E3E8F1F2F094
:103B4000E0200000C0E4F0E5F120F0E5E3E8F1F268
:103B5000F0E02000D4F3EDEAF6E8EEEDE0EBFCED6A
:103B6000FBE920EAEEE420F0E5E3E8F1F2F0E02002
:103B700000000000CDE8E6EDFFFF20EFF0E5E4F304
:103B8000EFF0E5E4E8F2E5EBFCEDE0FF20F3F1F225
:103B9000E0E2EAE020F0E5E3E8F1F2F0E020000006
:103BA00048230108FFE704EB84000B9009EBC000F9
:103BB0000090203009F0E4FC009890ED080A0AA873
:103BC00009F0ABFC0B98BDF8282008EBC000A0F86A
:103BD0003821BDF82A10A0F83A118FE7B5F8720025
:103BE000B04274D1B5F87000062870D100200AF0F8
:103BF000EFFC002108460AF067FD2346AFF25C5255
:103C00004021FE4808F0B2FDD7E900120123FB482D
:103C10000AF0FEFD002137200AF0A3FE272C03D076
:103C200000213C200AF0D5FE26213A200AF00AFFA6
:103C30002B213A200AF05CFE0F2100200AF044FDFF
:103C40002222EFA102A8FCF782FB2246222102A831
:103C50000AF016FE202100200AF036FDE87F012838
:103C600019D004EB840109EBC100406AFCF72AFD7E
:103C7000CDE90001EB4A4021E04808F077FDD7E9A3
:103C800000120123DD480AF0C3FD00BFB5F86E0045
:103C900003281CD0FCE204EB84000B9009EBC0006D
:103CA0000090243009F06CFC009890ED090A0AA8F5
:103CB00009F033FC0B98BDF8282008EBC000A0F8F1
:103CC0003C21BDF82A10A0F83E11DFE7FFE7B5F868
:103CD0007200B04277D1B5F87000072873D1002088
:103CE0000AF076FC002108460AF0EEFC2346AFF20B
:103CF0004C624021C14808F039FDD7E90012012388
:103D0000BE480AF085FD002137200AF02AFE272C44
:103D100003D000213C200AF05CFE26213A200AF064
:103D200091FE2B213A200AF0E3FD0F2100200AF03A
:103D3000CBFC2B22BCA102A8FCF709FB22462B21BD
:103D400002A80AF09DFD202100200AF0BDFCE87FBA
:103D500001281CD004EB840109EBC100806901E05B
:103D60009FE29AE2FCF7AEFCCDE90001AD4A4021AA
:103D7000A24808F0FBFCD7E9001201239F480AF093
:103D800047FD00BFB5F86E0003281CD080E204EBAD
:103D900084000B9009EBC0000090183009F0F0FB94
:103DA000009890ED060A0AA809F0B7FB0B98BDF839
:103DB000282008EBC000A0F84021BDF82A10A0F888
:103DC0004211DFE7FFE7B5F87200B04273D1B5F8F2
:103DD000700008286FD100200AF0FAFB0021084685
:103DE0000AF072FC2346AFF244724021834808F087
:103DF000BDFCD7E90012012380480AF009FD00212B
:103E000037200AF0AEFD272C03D000213C200AF019
:103E1000E0FD26213A200AF015FE2B213A200AF077
:103E200067FD0F2100200AF04FFC232289A102A880
:103E3000FCF78DFA2246232102A80AF021FD202159
:103E400000200AF041FCE87F012818D004EB84012F
:103E500009EBC100C069FCF735FCCDE90001714AEE
:103E60004021664808F082FCD7E90012012363482C
:103E70000AF0CEFCB5F86E0003281CD008E204EB73
:103E800084000B9009EBC00000901C3009F078FB17
:103E9000009890ED070A0AA809F03FFB0B98BDF8BF
:103EA000282008EBC000A0F84421BDF82A10A0F893
:103EB0004611DFE7FFE7B5F87200B04273D1B5F8FD
:103EC000700009286FD100200AF082FB002108460B
:103ED0000AF0FAFB2346AFF634024021474808F0C7
:103EE00045FCD7E90012012344480AF091FC002167
:103EF00037200AF036FD272C03D000213C200AF0A1
:103F000068FD26213A200AF09DFD2B213A200AF077
:103F1000EFFC0F2100200AF0D7FB172256A102A8C0
:103F2000FCF715FA2246172102A80AF0A9FC202165
:103F300000200AF0C9FBE87F012818D004EB8401B7
:103F400009EBC100C068FCF7BDFBCDE90001504A98
:103F500040212A4808F00AFCD7E90012012327482B
:103F60000AF056FCB5F86E0003281CD090E104EB73
:103F700084000B9009EBC00000900C3009F000FBAE
:103F8000009890ED030A0AA809F0C7FA0B98BDF84B
:103F9000282008EBC000A0F82C21BDF82A10A0F8BA
:103FA0002E11DFE7FFE7B5F87200B04272D1B5F825
:103FB00070000A286ED100200AF00AFB0021084692
:103FC0000AF082FB2346AFF6241240210B4808F08A
:103FD000CDFBD7E90012012308480AF019FC0021A3
:103FE00037200AF0BEFC272C03D000213C200AF029
:103FF000F0FC26213A200AF025FD4CE0063B00208B
:10400000CDE8E6EDFFFF20E0E2E0F0E8E9EDE0FFDB
:1040100020F3F1F2E0E2EAE020F0E5E3E8F1F2F08B
:10402000E020000048230108C2E5F0F5EDFFFF2085
:10403000EFF0E5E4F3EFF0E5E4E8F2E5EBFCEDE0CA
:10404000FF20F3F1F2E0E2EAE020F0E5E3E8F1F24C
:10405000F0E02000C2E5F0F5EDFFFF20E0E2E0F047
:10406000E8E9EDE0FF20F3F1F2E0E2EAE020F0E53C
:10407000E3E8F1F2F0E02000CAEEFDF4F4E8F6E83F
:10408000E5EDF220C020F0E5E3E8F1F2F0E02000F9
:10409000C02C01084CE02B213A200AF029FC0F210A
:1040A00000200AF011FB1722FEA102A8FCF74FF92D
:1040B0002246172102A80AF0E3FB202100200AF083
:1040C00003FBE87F012818D004EB840109EBC10051
:1040D0000069FCF7F7FACDE90001F84A4021F848F9
:1040E00008F044FBD7E900120123F5480AF090FBE1
:1040F000B5F86E0003281BD0CAE004EB84000B90D7
:1041000009EBC0000090103009F03AFA009890EDE9
:10411000040A0AA809F001FA0B98BDF8282008EB58
:10412000C000A0F83021BDF82A10A0F83211DFE756
:10413000B5F87200B0425BD1B5F870000B2857D1CA
:1041400000200AF045FA002108460AF0BDFA23468D
:10415000AFF6B0224021DA4808F008FBD7E9001298
:104160000123D7480AF054FB002137200AF0F9FB5D
:10417000272C03D000213C200AF02BFC26213A20DA
:104180000AF060FC2B213A200AF0B2FB0F2100203C
:104190000AF09AFA1422CBA102A8FCF7D8F822461A
:1041A000142102A80AF06CFB202100200AF08CFAEE
:1041B000E87F04EB8401012813D009EBC100837967
:1041C000AFF61C324021BE4808F0D0FAD7E9001201
:1041D0000123BB480AF01CFBB5F86E00032807D08A
:1041E00056E008EBC10000F5947009F0F9FAF3E726
:1041F000B5F87200B0424BD1B5F870000C2847D129
:1042000000200AF0E5F9002108460AF05DFA23468D
:10421000AFF670324021AA4808F0A8FAD7E9001298
:104220000123A7480AF0F4FA002137200AF099FB8D
:10423000272C03D000213C200AF0CBFB26213A207A
:104240000AF000FC0F2100200AF03EFA1122A3A17F
:1042500002A8FCF77CF82246112102A80AF010FB04
:10426000202100200AF030FAE87F04EB84010128C5
:1042700018D009EBC1000389AFF6D4324021904831
:1042800008F074FAD7E9001201238D480AF0C0FA49
:10429000641CE4B2282CFFF4ADA9B5F86E00032825
:1042A00007D099E008EBC10000F5957009F098FA85
:1042B000EEE7B5F8720001284CD195F825000128E9
:1042C0007DD100200AF084F9002108460AF0FCF9AB
:1042D0000123AFF67440D7E900120AF099FA0021E1
:1042E00032200AF03EFB002137200AF072FB002149
:1042F0003C200AF06EFB0F2100200AF0E5F96F491F
:104300001822803902A8FCF722F8182102A80AF026
:1043100095FA202100200AF0D7F9E87F012814D06F
:104320007348B0F90230AFF680424021644808F08B
:104330001DFAD7E90012012361480AF069FA00BFAB
:10434000B5F86E00032805D046E06948801C09F0E6
:1043500047FAF5E7B5F872000228B1D195F82500C3
:104360000128ADD100200AF033F9002108460AF0F7
:10437000ABF90123AFF61850D7E900120AF048FA5A
:10438000002132200AF0EDFA0F2100200AF09CF9FA
:10439000082258A102A8FBF7DAFF082102A80AF0B8
:1043A0004DFA202100200AF08FF9E87F012818D06B
:1043B0004F488030006BFCF785F951A200E02BE2FA
:1043C000CDE9000140213E4808F0D0F9D7E90012BC
:1043D00001233B480AF01CFAB5F86E00042806D009
:1043E0002DE343484849B03009F084F9F4E7B5F8C3
:1043F0007200E8BB00200AF0EBF8002108460AF042
:1044000063F95C460123D4E9001240A00AF000FAE7
:1044100095F8250018B1002137200AF0DAFA0021BA
:104420003C200AF0D6FA26213A200AF00BFB2B2179
:104430003A200AF05DFA0F2100200AF045F9D4E98C
:104440000012012333A00AF0E3F9D7E90012012397
:1044500032A00AF0DDF910212A200AF035F92B7A72
:10446000AFF6BC524021164808F080F9012300E065
:104470006FE0D7E9001212480AF0CAF920210020A3
:104480000AF022F9D4E90012012325A00AF0C0F9AC
:10449000D7E90012012321A00AF0BAF921212A202C
:1044A00042E00000CAEEFDF4F4E8F6E8E5EDF220A3
:1044B000C220F0E5E3E8F1F2F0E02000C02C0108B2
:1044C000063B0020D2E8EF20E4E0EDEDFBF520F024
:1044D000E5E3E8F1F2F0E02000000000D2E0E9ECD2
:1044E000E0F3F220F0E5E3E8F1F2F0E02000000074
:1044F000D8000020D1EAEEF0EEF1F2FC000000005E
:10450000252E30306600000000180208D0E5EBE5EB
:1045100000000000CFF0E5E4000000002E000000E5
:10452000C0E2E0F0000000000AF0CEF8EB79AFF650
:1045300088624021FA4808F019F9D7E900120123EE
:10454000F7480AF065F985F82AA0B5F86E00042846
:104550007ED1B5F87200012868D195F82500B0BB6E
:1045600000200AF035F8002108460AF0ADF80123D2
:10457000AFF26800DBE900120AF04AF900213720A7
:104580000AF0EFF900213C200AF023FAB5F87A008E
:10459000012802D002281BD03FE00F2100200AF0A2
:1045A00093F81022DFA102A8FBF7D1FE102102A888
:1045B0000AF044F9D7E900120123DFA00AF028F934
:1045C000202100200AF080F8B5F874301AE0A1E04C
:1045D0000F2100200AF078F80D22D8A102A8FBF7DD
:1045E000B6FE0D2102A80AF029F9D7E9001201232D
:1045F000D6A00AF00DF9202100200AF065F8D54870
:10460000008C83B2D4A24021C54808F0AFF8D7E9A6
:1046100000120123C2480AF0FBF885F81FA0012010
:1046200085F82A00B5F86E00042811D1B5F872009B
:1046300002286BD195F82500A0BB002009F0C8FF27
:10464000002108460AF040F80123AFF2401000E0D4
:10465000AAE0DBE900120AF0DBF8002137200AF0BB
:1046600080F9B5F87A00012802D002281BD044E076
:104670000F2100200AF028F81022AAA102A8FBF7B7
:1046800066FE102102A80AF0D9F8D7E9001201232A
:10469000B3A00AF0BDF8202100200AF015F8B5F803
:1046A00044301FE08EE00F2100200AF00DF80D22AB
:1046B000A2A102A8FBF74BFE0D2102A80AF0BEF84A
:1046C000D7E900120123A7A00AF0A2F820210020B8
:1046D00009F0FAFF9F49086A91F82410000C40EA9B
:1046E000014083B29CA240218D4808F03FF8D7E9F1
:1046F000001201238A480AF08BF885F81FA00120D8
:1047000085F82A00B5F86E0004284DD1B5F872007E
:10471000012853D195F8250001287DD1002009F00A
:1047200057FF0021084609F0CFFF01235C46AFF296
:104730002420D4E900120AF06BF8002132200AF09C
:1047400010F9002137200AF044F900213C200AF03A
:1047500040F90F21002009F0B7FFD4E9001201232E
:1047600082A00AF055F8C82009F07EF92021002027
:1047700009F0AAFFE87F012817D0B5F852307DA2D2
:104780004021674807F0F2FFD7E90012012364488F
:104790000AF03EF8012085F82A0085F82BA000BF1A
:1047A000B5F86E00042809D049E1734809F018F8FB
:1047B00085F82AA0012085F82B00F1E7B5F87200F2
:1047C000022854D195F825000128A6D1002009F02F
:1047D000FFFE0021084609F077FF0123AFF2D42045
:1047E000DBE900120AF014F8002132200AF0B9F8CF
:1047F000002137200AF0EDF800213C200AF0E9F80A
:104800000F21002009F060FF18225CA102A8FBF72D
:104810009EFD182102A800E052E10AF00FF82021C5
:10482000002009F051FFE87F012816D0B5F8543078
:1048300050A240213A4807F099FFD7E9001201231E
:10484000374809F0E5FF012085F82A0085F82BA0FC
:10485000B5F86E0004280AD0F1E04748801C08F043
:10486000BFFF85F82AA0012085F82B00F0E7B5F8F6
:104870007200032853D195F825000128A5D1002006
:1048800009F0A6FE0021084609F01EFF0123AFF241
:104890008430DBE9001209F0BBFF002132200AF06E
:1048A00060F8002137200AF094F800213C200AF03B
:1048B00090F80F21002009F007FF212236A102A85D
:1048C000FBF745FD212102A809F0B8FF20210020B7
:1048D00009F0FAFEE87F012817D0B5F8563025A276
:1048E00040210F4807F042FFD7E9001201230C488E
:1048F00009F08EFF012085F82A0085F82BA000BF63
:10490000B5F86E00042859D099E01B48001D08F046
:1049100067FF85F82AA0012085F82B00F0E74DE01D
:10492000063B0020C0F2F2F0E8E1F3F220F1EEE104
:10493000FBF2E8FF0000000020310000C1E8F22097
:10494000F1EEF1F2EEFFEDE8FF00000028302D312E
:1049500035290000D80200203078255800000000DA
:10496000203200002831362D33312900D0E5E6E829
:10497000EC00000025640000AA000020C7E0E4E588
:10498000F0E6EAE020EDE020F1F0E0E1E0F2FBE229
:10499000E0EDE8E500000000C7E0E4E5F0E6EAE06D
:1049A00020EDE020E2FBF5EEE420E8E720F1F0E086
:1049B000E1E0F2FBE2E0EDE8FF000000B5F8720094
:1049C00004287DD195F825000128FAD1002009F0AE
:1049D000FFFD0021084609F077FE0123AFF2D44025
:1049E000DBE9001209F014FF0021322009F0B9FFC1
:1049F0000F21002009F068FE0922FEA102A8FBF7A2
:104A0000A6FC092102A809F019FF2021002009F0C5
:104A10005BFEE87F012817D0B5F85C30AFF2AC023E
:104A20004021F74807F0A2FED7E900120123F4481D
:104A300009F0EEFE012085F82A0085F82BA0B5F8D4
:104A40006E00052809D07FE1EE4808F0C9FE85F820
:104A50002AA0012085F82B00F1E7B5F8720028BBE9
:104A6000002009F0B5FD0021084609F02DFE0021C7
:104A70003C2009F0AEFF26213A2009F0E3FF2B216C
:104A80003A2009F035FF0F21002009F01DFE092210
:104A9000DDA102A8FBF75BFC092102A809F0CEFE0C
:104AA00085F82AA0B5F86E0005284DD1B5F872003A
:104AB000012854D1002009F08BFD0021084600E0B8
:104AC00083E109F001FE5C460123D4E90012D1A084
:104AD00009F09EFE0123AFF2BC50D7E9001209F0A5
:104AE00097FE0021372009F03CFF00213C2009F00F
:104AF00070FF0F21002009F0E7FDD4E90012012327
:104B0000C6A009F085FEC82008F0AEFF20210020D5
:104B100009F0DAFDE87F012817D0B5F86630AFF26A
:104B2000AC124021B64807F021FED7E9001201235C
:104B3000B34809F06DFE012085F82A0085F82BA006
:104B4000B5F86E0005280AD0FEE0AE480A3008F03D
:104B500047FE85F82AA0012085F82B00F0E7B5F87C
:104B60007200022858D1002009F032FD00210846C9
:104B700009F0AAFDDBE900120123A6A009F048FE16
:104B80000123AFF26860D7E9001209F041FE00216D
:104B9000372009F0E6FE00213C2009F01AFF0F2122
:104BA000002009F091FD0822AFF2B86102A8FBF7DE
:104BB000CEFB082102A809F041FE2021002009F0C7
:104BC00083FDE87F01281CD08E48A430C06AFBF723
:104BD00079FDAFF2D462CDE900014021884807F0A9
:104BE000C5FDD7E900120123854809F011FE012017
:104BF00085F82A0085F82BA0B5F86E0005280BD0A3
:104C0000A2E080488749D03008F074FD85F82AA0DA
:104C1000012085F82B00EFE7B5F87200032852D188
:104C2000002009F0D5FC0021084609F04DFDDBE924
:104C30000012012377A009F0EBFD0123AFF22470ED
:104C4000D7E9001209F0E4FD0021372009F089FEC0
:104C500000213C2009F0BDFE0F21002009F034FDA9
:104C60000E2271A102A8FBF772FB0E2102A809F027
:104C7000E5FD2021002009F027FDE87F012818D05C
:104C8000B5F86830AFF2143240215D4807F06EFD90
:104C9000D7E9001201235A4809F0BAFD012085F82E
:104CA0002A0085F82BA000BFB5F86E0005280AD0B1
:104CB0004AE054480C3008F093FD85F82AA0012002
:104CC00085F82B00F0E7B5F8720004287DD10020AC
:104CD00009F07EFC0021084609F0F6FCDBE9001231
:104CE00001234CA009F094FD0123AFF2D070D7E965
:104CF000001209F08DFD0021372009F032FE0F214E
:104D0000002009F0E1FC0E224BA102A8FBF71FFBDB
:104D10000E2102A809F092FD2021002009F0D4FC08
:104D2000E87F012815D0B5F87E30AFF2B8324021C7
:104D3000334807F01BFDD7E900120123304809F082
:104D400067FD012085F82A00B5F86E00062807D017
:104D500038E12C48223008F043FD85F82AA0F3E71B
:104D6000B5F8720008BB002009F032FC00210846AB
:104D700009F0AAFC00213C2009F02BFE26213A2054
:104D800009F060FE0F21002009F09EFC0A222EA1EE
:104D900002A8FBF7DCFA0A2102A809F04FFD85F80A
:104DA0002AA0B5F86E0006287DD1B5F8720001285A
:104DB0007FD1002009F00CFC0021084609F084FC9A
:104DC000DBE90012012323A000E03DE109F020FD12
:104DD0000123AFF6B800D7E9001209F019FD002150
:104DE000372009F0BEFD00213C2009F0F2FD0F2123
:104DF000002031E0D2E5F1F220F0E5EBE500000023
:104E0000063B0020B4000020CDE0F1F2F0EEE9EA2C
:104E1000E8000000CDE0F1F2F0000000C0E4F0E5B1
:104E2000F100000000180208C2F0E5ECFF20EFF0EE
:104E3000EEE3F0E5E2E00000D1E1F0EEF120EDE09C
:104E4000F1F2F0EEE5EA0000C8EDF4EEF0ECE0F689
:104E5000E8FF0000C8EDF40009F036FC1222DDA1E5
:104E600002A8FBF774FA122102A809F0E7FC20213E
:104E7000002009F029FCDC4890ED080A10EE100A29
:104E8000FBF720FCCDE90001D84A4021D84807F0C3
:104E90006DFCD7E900120123D54809F0B9FC0120C7
:104EA00085F82A0001E083E003E0B5F86E000628EB
:104EB0007ED1B5F87200022843D1002009F088FBAA
:104EC0000021084609F000FC0123AFF27800DBE97D
:104ED000001209F09DFC0123AFF6C010D7E90012C3
:104EE00009F096FC0021372009F03BFD00213C2011
:104EF00009F06FFD0F21002009F0E6FB0922BDA19A
:104F000002A8FBF724FA092102A809F097FC202146
:104F1000002009F0D9FB9FEDBA0BBB4A8DED000BC9
:104F20004021B34807F022FCD7E900120123B04822
:104F300009F06EFC012085F82A00B5F86E000628FD
:104F400040D1B5F8720003287ED1002009F040FB63
:104F50000021084609F0B8FB0123AFF20810DBE995
:104F6000001209F055FC0123AFF65020D7E90012DA
:104F700009F04EFC0021372009F0F3FC0F2100203E
:104F800009F0A2FBD7E900120123A0A009F040FC20
:104F90002021002009F098FB9348C068FBF792FBA2
:104FA000CDE90001914A4021914807F0DFFB00E084
:104FB00008E0D7E9001201238D4809F029FC0120FF
:104FC00085F82A00B5F86E0007283DD1B5F87200C3
:104FD000D8B995F82300012836D1002009F0F8FA55
:104FE0000221372009F0F5FC0F21002009F06CFBAD
:104FF0000C2288A102A8FBF7AAF90C2102A809F04B
:105000001DFCB5F86E0007281ED1B5F87200012806
:1050100046D1002009F0DCFA0021084609F054FBD3
:10502000DBE9001201237FA009F0F2FB0123AFF6B8
:105030001430D7E9001209F0EBFB0221302009F00F
:1050400090FC0221372000E0AFE009F0C2FC0F2104
:10505000002009F039FBD7E900120123734809F059
:10506000D7FB2021002009F02FFBE87F012812D078
:10507000B5F87630AFF2047240215D4807F076FB58
:10508000D7E9001201235A4809F0C2FBB5F86E00B7
:10509000072805D089E054488A3808F0A1FBF5E7D5
:1050A000B5F87200022845D1002009F091FA0021DC
:1050B000084609F009FBDBE90012012359A009F0B9
:1050C000A7FB0123AFF6AC30D7E9001209F0A0FB33
:1050D0000221302009F045FC0221372009F079FC3B
:1050E0000F21002009F0F0FAD7E9001201235048FF
:1050F00009F08EFB2021002009F0E6FAE87F012864
:1051000013D0B5F87830AFF294724021384807F0E8
:105110002DFBD7E900120123354809F079FB00BFC8
:10512000B5F86E00072805D03FE02F48883808F012
:1051300057FBF5E7B5F87200032836D1002009F0D7
:1051400047FA0021084609F0BFFADBE90012012303
:1051500034A009F05DFB0123AFF64040D7E900120F
:1051600009F056FB0221302009F0FBFB0F21002043
:1051700009F0AAFAD7E9001201232E4809F048FBEA
:105180002021002009F0A0FAE87F01281BD0B5F803
:105190007A30AFF620024021154807F0E7FAD7E948
:1051A00000120123124809F033FB09F093FA95F835
:1051B000210068B15FF0000085F82100642008F04C
:1051C00053FCFCF799BC0848863808F009FBECE76B
:1051D0000120F1E7CDE0EFF0FFE6E5EDE8E520EFB7
:1051E000E8F2E0EDE8FF0000580100204823010844
:1051F000063B0020C2E5F0F1E8FF20CFCE00000022
:10520000D7A3703D0AD71540783101084D4D54455C
:1052100000000000CACECDD4C8C3D3D0C0D6C8DFEA
:1052200000000000CAEEEDF4000000001C1F0108A1
:10523000E02C010860360108184F0026DFF860B046
:1052400086B04FF008084FF0180A4FF08009A7F514
:10525000C07401254FF0FF31F86A0AF08BFA607FC5
:105260000128F7D101AA0496009682E82005CBF820
:10527000109001F09FFC04F82F0F032008F0F4FBBE
:1052800004A9684601F0C8FB207001F037FC14F84F
:105290002F090028DED184F82E50DBE7D80100204A
:1052A00000200240124A117F1248012901D003292F
:1052B0000BD1036843F400630360036823F40063C5
:1052C0000360036843F400730360022901D00329DB
:1052D0000BD1016841F480510160016821F48051D3
:1052E0000160016841F4806101600020107770471F
:1052F0004C040020002002400849C20703D04A693C
:1053000042F004024A61800703D5486940F4004036
:105310004861486940F4803048617047002002408D
:10532000CA070B494A6902D022F4006201E042F444
:1053300000624A614A6960F3CA024A61486940F002
:1053400002004861486940F48030486170470000BD
:1053500000200240044910B54C6944F001044C613E
:105360000260436010BD000000200240074B10B5F2
:105370005C69402244F480245C6172B608C908C0AC
:10538000521E12F0FF02F9D162B610BD0020024099
:1053900070B5054601F00CFD0646184C08E0681C87
:1053A00006D001F005FD801BA84201D3032070BD8B
:1053B0002069C043C003F2D5216911480140A069AA
:1053C00000F00040084311D00E494A6802434A6089
:1053D000810F04D0A16900F040421143A161810016
:1053E00002D020F040402061012070BD2069C04300
:1053F000C00701D101202061002070BD00200240C3
:10540000FAC302004C040020294810B5C078A0B3AC
:10541000012840D0022828D3264B274A0221A3F195
:105420000C0007F054FF234B234A84332148022108
:10543000783007F04CFF1F4B1F4AB0330221A3F115
:105440000C0007F044FF1B4B1B4A2C33A03A0221EF
:10545000A3F10C0007F03BFF164B174A5833783A7C
:105460000221A3F10C0007F032FF16489FED130B49
:1054700080ED0A0B80ED0C0B10BDFFE70D4B0E4AC3
:105480000221503AA3F10C0007F021FF094B0A4A10
:105490008433503ACAE7074B074A0221283AA3F15E
:1054A0000C0007F014FF034B034A8433283ABDE78E
:1054B000580000202C180020F803002000000000F5
:1054C00000000000D802002010B504460AF0E0FAFF
:1054D000014614B108F0DEF92060C86C10BD000070
:1054E0002DE9F84F4FF000080446CDF800800D4636
:1054F00094F85420DFF80894216947464046012A71
:105500000AD00126FF4A84F8546041B1A9690129F3
:1055100005D0636EEBB129E00220BDE8F88F686822
:10552000082838D1296A4FF4F85041B12B6801F0AE
:105530003C0100EA93400843696A084302E0296895
:1055400000EA91402368D96C11400143D964206678
:1055500021E0C4E91871296AA86931B101F03C0160
:10556000401E0843696A084300E0401E29682B7901
:10557000C1F3846103F01F0399400143606E401E34
:105580006066236E43EA0103236604D12068C16C80
:1055900011401943C164206803F058FB48B9687F83
:1055A00090B12068C168AA7F21F4401141EA4251BC
:1055B000C160206803F052FB8246206803F046FB7E
:1055C0005AEA00000BD0DDE0A87F297F400540EAC1
:1055D00001512068C26822F440121143E8E7286AAA
:1055E00028B1686A18B1687F012845D002E0687F59
:1055F000012804D02068C16821F0007103E0206810
:10560000C16841F00071C16095F8280001283AD0C6
:105610002068016921F002010161AA6829682068F7
:10562000B2F1004F20D003F034FB2068416921F033
:105630000041416120686969C268C2F3C102520039
:1056400091402A69042A2AD000EB82002B68DFF8F7
:10565000B8C2026E03F0F84302EA0C020B431A438D
:1056600042F0004101668DE0002203F012FB206849
:10567000416941F00041DCE7A06D40F02000A065E9
:105680004FF00108C0E7D5E90B01084321680A691A
:1056900022F4FF7242F0020210430861BDE70021CC
:1056A00003F0CAFA400320684FF0000172D003F003
:1056B000C3FA90FAA0F0B0FA80F1286842036ED0E5
:1056C00090FAA0F0B0FA80F0814204D10022114695
:1056D000206803F0F5FA0121206803F0ADFA4003D9
:1056E00020684FF001015DD003F0A6FA90FAA0F017
:1056F000B0FA80F12868420359D090FAA0F0B0FACD
:1057000080F0814204D100220121206803F0D8FA00
:105710000221206803F090FA400320684FF0020154
:1057200048D003F089FA90FAA0F0B0FA80F1286826
:10573000420344D090FAA0F0B0FA80F0814204D144
:1057400000220221206803F0BBFA0321206803F045
:1057500073FA400320684FF0030133D003F06CFA72
:1057600090FAA0F0B0FA80F1286842032FD090FAA6
:10577000A0F0B0FA80F0814204D100220321206819
:1057800003F09EFA2068816811F0010F22D0ABE08F
:1057900000E004E003F050FAC0F384618DE7C0F349
:1057A000846091E703F048FAC0F38461A2E7C0F394
:1057B0008460A6E703F040FAC0F38461B7E7C0F362
:1057C0008460BBE703F038FAC0F38461CCE7C0F330
:1057D0008460D0E72B7B296850F8B02FC1F3120CFE
:1057E00022EA0C0203F0180C484B23FA0CF30B408E
:1057F0001A430260E968494576D1286841031BD005
:1058000090FAA0F1B1FA81F1491C01F01F010929B8
:105810004FEA403131D8002911D090FAA0F1B1FA05
:1058200081F100BF01F1010101F01F0106FA01F64B
:1058300008D1C0F3846109E0C0F38461E4E7C0F3F8
:105840008461EFE790FAA0F1B1FA81F101F1010171
:1058500001F01F0146EA816102D1C0F3846003E0D8
:1058600090FAA0F0B0FA80F000F1010000F01F0003
:1058700000EB400041EA005132E000290ED090FADE
:10588000A0F1B1FA81F100BF01F1010101F01F01A6
:1058900006FA01F605D1C0F3846106E0C0F3846125
:1058A000F2E790FAA0F1B1FA81F101F1010101F002
:1058B0001F0146EA816102D1C0F3846003E090FADF
:1058C000A0F0B0FA80F000F1010000F01F00104AD3
:1058D00000EB400002EB005041EA000141F0007192
:1058E000AA68206803F0D5F90A482A68024256D00F
:1058F00009488168094E01F0E071094B094D13E038
:1059000000007F400020088200F0FF03FFFF070037
:10591000000020FE0000088000030450000052C771
:105920000000045000020450B2421BD10E0219D4F0
:1059300022689A4201D0AA4231D1826841F4000122
:1059400022F0E0720A438260174818490068B0FBF1
:10595000F1F000EB4000800000E0401E00900028C5
:10596000FBD11CE0124EB24209D1CE0107D422680D
:105970009A4201D0AA4212D141F080710AE06FF040
:105980000045EA420BD14A0209D422689A4206D164
:1059900041F48001826822F0E0720A43826084F858
:1059A00054704046B9E500006C040020400D03002F
:1059B000000084CB0068B1F5877F0FD0B1F5057F7B
:1059C00009D0A1F540711A3902D0D0F88000704793
:1059D000D0F88C007047D0F888007047D0F8840069
:1059E000704700002DE9F041044637480F468068B3
:1059F00000F01F066069082804D0202501F0D8F9BE
:105A000080460AE04025F9E7781C06D001F0D0F97D
:105A1000A0EB0800B84215D8A7B12068006828425A
:105A2000F2D02168C86C10F0C00F15D00022C868F1
:105A300010F4406F12D00023244F2548B9420FD1F3
:105A400084460EE0A06D40F00400A065002084F8BC
:105A500054000320BDE8F0810122E8E70123EBE7D1
:105A60008C468C450ED06EB1062E0BD0072E09D079
:105A7000B94200D00846C068A66D46F40056A66537
:105A80003AB901E0C868F7E7820112D48BB1820409
:105A90000FD40A6852060CD582020AD4A26D22F4F1
:105AA0008052A265A26DD20503D4A26D42F001021C
:105AB000A265402D01D0202002E0400401D46020E6
:105AC00008600020C6E700000003045000010450F5
:105AD000000004502DE9F04104463548806800F08C
