:020000040801F1
:10000000688B01208102010879CA0108C9AB010887
:10001000F1C401084D110108B5F30108000000000A
:10002000000000000000000000000000C101010805
:1000300015210108000000001D02010873D6010807
:100040009B0201089B0201089B0201089B02010818
:100050009B0201089B0201089B0201089B02010808
:100060009B0201089B0201089B020108ED15010893
:10007000FD1501080D1601081D1601082D160108B1
:100080003D1601084D1601089B0201089B0201085C
:100090009B0201089B0201089B0201089B020108C8
:1000A0009B02010879DC01089B0201089B02010800
:1000B0009B0201089B0201089B0201089B020108A8
:1000C0009B0201089B0201089B0201089B02010898
:1000D0009B02010819F0010889F00108F9F00108F4
:1000E0009B0201089B0201089B0201089B02010878
:1000F0009B0201089B0201089B0201089B02010868
:100100009B0201089B0201089B0201089B02010857
:100110009B020108E1E7010889DC0108A1DC010874
:100120005D1601086D1601089B0201089B0201087B
:100130009B0201089B0201089B0201089B02010827
:100140009B0201089B0201089B0201089B02010817
:100150009B0201089B0201089B0201089B02010807
:100160009B0201089B0201089B0201089B020108F7
:100170009B0201089B0201089B020108000000008D
:100180009B0201089B0201089B0201089B020108D7
:100190009B0201089B0201089B0201089B020108C7
:1001A0009B0201089B0201089B020108DFF80CD0AA
:1001B00000F0ECFB004800474D0A0208688B012064
:1001C0002C4B19680868B0E8F04F80F30988BFF33A
:1001D0006F8F4FF0000080F311887047000000001F
:1001E00008480068006880F308884FF0000080F33A
:1001F000148862B661B6BFF34F8FBFF36F8F00DF15
:1002000000BF00BF08ED00E0DFF80C00016841F41A
:1002100070010160704700BF88ED00E0EFF30980D6
:10022000BFF36F8F134B1A681EF0100F08BF20ED3D
:10023000108A20E9F04F106009B44FF0500080F3AD
:100240001188BFF34F8FBFF36F8F12F07FFA4FF01B
:10025000000080F3118809BC19680868B0E8F04F05
:100260001EF0100F08BFB0EC108A80F30988BFF3AE
:100270006F8F704784050020EFF305807047000002
:100280000648804706480047FEE7FEE7FEE7FEE730
:10029000FEE7FEE7FEE7FEE7FEE7FEE77DD70108A3
:1002A000AD0101082DE9F05F0546002092469B460E
:1002B00088460646814640241BE02846414647467C
:1002C000224600F076FA53465A46C01A914110D39E
:1002D00011461846224600F05DFA2D1A67EB010818
:1002E0004F4622460120002100F054FA17EB000986
:1002F0004E41201EA4F10104DFDC484631462A4667
:100300004346BDE8F09F40EA01039B0703D009E0A4
:1003100008C9121F08C0042AFAD203E011F8013BF1
:1003200000F8013B521EF9D27047D2B201E000F84A
:10033000012B491EFBD270470022F6E710B5134689
:100340000A4604461946FFF7F0FF204610BD10B5D7
:10035000044604E00B7800F8013B03B1491C521E2F
:10036000F8D2204610BD2DE9FE4F804681EA0300F9
:10037000C00F0C46009021F0004123F00045B8EB7F
:100380000200A94105D24046214690461C460B4634
:10039000024623F00040104347D0270DC7F30A0060
:1003A000C3F30A510290401A019040286BDAC3F35C
:1003B000130040F4801B0098924620B10023D2EB3A
:1003C000030A63EB0B0B01985946C0F140025046FB
:1003D00000F0E0F906460D4650465946019A00F0F5
:1003E000F8F910EB08006141002487EA115284EA11
:1003F000E7731A4340D0009A62B3019A012A4FEA88
:10040000075215DC001B61EB02014FF0004202EACB
:100410000752CDE90042001C41F5801132462B46BF
:1004200000F04DFA03B0BDE8F08F40462146F9E7F1
:10043000001B61EB0201001C41F5801300185B41B9
:100440002018A2F5001747EB030140EAD570B61952
:100450006D4111E06D084FEA360645EAC0754FEA76
:100460000752001B61EB0201001C41F58011490895
:100470004FEA30000019514132462B4603B0BDE827
:10048000F04F00F00DBA0098012240000023D0EB9D
:10049000020263EBE073009821464FEAE074B8EB88
:1004A000000061EB0401E9E783F000435BE781F0C2
:1004B000004158E72DE9FE4F81EA030404F00044AF
:1004C00021F0004100944FF0000B23F0004350EA6C
:1004D00001045ED052EA03045BD0C3F30A54C1F3B3
:1004E0000A552C44A4F2F3340194A0FB0254C1F346
:1004F000130141F48011C3F3130343F4801301FB90
:10050000024400FB034E840A970A44EA815447EAF6
:100510008357A4FB076802958D0A05FB07854FEA00
:10052000932C04FB0C542705029D4FEA065847EA1A
:100530001637B5EB08056EEB070C870E920E47EAEF
:10054000811742EA8312A7FB0201B6EB0B0164EBB1
:1005500000042B0D43EA0C335E1844EB1C50DA46C2
:100560005146E7FB0201C5F313044FEA0B3343EA9C
:1005700014534FEA0432019C43EA0603A4F10C042D
:100580000294009CCDE900B400F099F903B0BDE8F5
:10059000F08F00200146F9E72DE9F04D81EA0304D0
:1005A00004F0004B21F0004514464FF0000A23F000
:1005B000004150EA050220D054EA01021DD0C5F3E3
:1005C0000A570246C5F31303C1F31300C1F30A56D9
:1005D00040F4801543F48013A7EB0608101BD646A1
:1005E00008F2FD3873EB050002D308F1010801E0C1
:1005F00092185B41B8F1000F03DA00200146BDE814
:10060000F08D00204FF48011064684460EE0171B43
:1006100073EB050705D3121B63EB050306434CEA96
:10062000010C49084FEA300092185B4150EA01077B
:10063000EDD152EA030012D082EA040083EA0501F8
:10064000084305D0101BAB4106D20122002306E06F
:1006500000224FF0004302E06FF0010253101AEB4A
:1006600006004CEB085110EB0A0041EB0B01BDE812
:10067000F04D00F015B930B4044696230800214629
:1006800004D0B62330BC002200F0BEB820460021C2
:10069000F8E70EB540F2334202920022CDE9002283
:1006A000134600F00CF903B000BD00F0004230F03A
:1006B00000400AD0C10D01F56071C0F3160042EA96
:1006C0000151C2084007114370470020014670479E
:1006D00030B5041E71F1000404DB4FF000444042C9
:1006E00064EB0101141E73F1000405DB1C464FF09E
:1006F0000043524263EB04038B4208BF824230BD89
:1007000030B5041E71F1000404DB4FF00044404298
:1007100064EB0101141E73F1000405DB1C464FF06D
:100720000043524263EB0403994208BF904230BD3C
:1007300001F0004330B421F0004150EA010206D03C
:100740000A0DA2F56072C1F31301002A02DC30BC6D
:1007500000207047440F44EAC104C100E01830BCD7
:1007600000EBC25000F047B830B50B460146002000
:100770002022012409E021FA02F59D4205D303FA63
:1007800002F5491B04FA02F52844151EA2F10102E4
:10079000F1DC30BD202A04DB203A00FA02F100200F
:1007A00070479140C2F1200320FA03F319439040AF
:1007B0007047202A04DB203A21FA02F0002170471A
:1007C00021FA02F3D040C2F12002914008431946B9
:1007D0007047202A06DBCB17203A41FA02F043EAA1
:1007E000E07306E041FA02F3D040C2F120029140EA
:1007F0000843194670470029A8BF7047401C4900AC
:1008000008BF20F00100704710B4B0FA80FC00FA75
:100810000CF050EA010404BF10BC704749B1CCF1A0
:10082000200421FA04F411FA0CF118BF012121432C
:100830000843A3EB0C01CB1D4FEA00614FEA1020E7
:1008400042BF002010BC704700EBC3501044002989
:10085000A4BF10BC7047401C490008BF20F0010035
:1008600010BC704710B541000CD0C0F3C751962999
:1008700008DC7E2909DC06DB410204D000F00040E0
:1008800040F07E5010BD002010BDC1F19604C4F1AF
:10089000200100FA01F1E040FFF7ADFFA04010BDDC
:1008A00010B5141E73F1000408DA401C41F1000178
:1008B00092185B411A4301D120F0010010BD2DE9CF
:1008C000F04D92469B4611B1B1FA81F202E0B0FAC6
:1008D00080F220329046FFF75DFF04460F4640EA63
:1008E0000A0041EA0B0153465A46084313D0114609
:1008F00053EA010019D0C8F140025046FFF759FFF2
:1009000005460E46504659464246FFF743FF084308
:1009100005D0012004E020463946BDE8F08D0020D6
:10092000054346EAE0762C4337430A986305E40A18
:10093000A0EB08000022FD0A44EA47540A3002D521
:1009400000200146E9E7010510196941DDE9084584
:1009500000196941BDE8F04DA2E7C1F30A52C1F3A5
:10096000130140F2FF3341F480119A4202DA002071
:100970000146704740F233439A42A2F2334202DC0E
:100980005242FFF716BFFFF705BF0000064C074DA8
:1009900006E0E06840F0010394E80700984710344F
:1009A000AC42F6D3FFF706FCB0AF0208D0AF0208A6
:1009B00070B58C1810F8015B15F0070301D110F821
:1009C000013B2A1106D110F8012B03E010F8016B4E
:1009D00001F8016B5B1EF9D12B0705D40023521ED1
:1009E0000DD401F8013BFAE710F8013BCB1A921C39
:1009F00003E013F8015B01F8015B521EF9D5A14237
:100A0000D8D3002070BD00002DE9F05F0446884671
:100A10004FF00009474620680AF0B4F98246206882
:100A20000AF088F98346BAF1000F02D1BBF1000F3A
:100A30006ED02068C06800F0007000B3607E0128AE
:100A40001DD1207E01281AD101270FE031488145B0
:100A50000AD3A06D40F01000A065E06D40F00100E9
:100A6000E0650120BDE8F09F09F1010920680068F8
:100A7000C0F380100028E9D0402021680860022FD0
:100A800010D020680AF07EF960B120680AF066F99B
:100A900040B920688168204A114041F0100181600E
:100AA00000BF00BF012F10D020680AF043F960B1E9
:100AB00020680AF053F940B920688168164A11404D
:100AC00041F02001816000BF00BF022F03D0032F3F
:100AD00003D10C2503E0082501E0042500BF00BF79
:100AE00007F0CAFC06460EE007F0C6FC801B05288E
:100AF00009D9A06D40F01000A065E06D40F0010044
:100B0000E0650120AEE72068806828400028EBD12E
:100B10000020A7E7000040A3C0FFFF7F70B5054697
:100B2000AC6AA06D00F0500098BBA06D40F400705E
:100B3000A0652068006800F00800A8B120680AF0ED
:100B40002BF910B32068C06800F40050E8B9A06D1C
:100B500020F48070A065A06D00F48050A8B9A06D4D
:100B600040F00100A06510E02068C06800F00200BD
:100B700058B9A06D20F48070A065A06D00F480507D
:100B800018B9A06D40F00100A065204606F0B0FC49
:100B90000CE0FFE7A06D00F0100018B1204606F051
:100BA000F7FC03E0206D416B2846884770BD70B5A7
:100BB0000546AC6AA06D40F04000A065E06D40F0D5
:100BC0000400E065204606F0E3FC70BD70B5044605
:100BD000A56A284606F0B4FC70BD000070B5044656
:100BE00020680AF0BBF8064620680AF0BCF870B32B
:100BF0006EBB2068806800F00D0001280AD12068D3
:100C00008168174A1140891C816000BF0320216858
:100C1000086009E0A06D40F01000A065E06D40F0B4
:100C20000100E065012070BD07F026FC05460FE0DD
:100C300007F022FC401B02280AD9A06D40F01000EA
:100C4000A065E06D40F00100E0650120EBE705E004
:100C50002068806800F001000028E9D10020E2E768
:100C6000C0FFFF7F70B5044620680AF07CF888BB9F
:100C7000206880681849084048B1A06D40F0100015
:100C8000A065E06D40F00100E065012070BD2068C6
:100C90000AF02CF807F0F0FB054615E020680AF092
:100CA00062F810B920680AF021F807F0E5FB401B54
:100CB000022809D9A06D40F01000A065E06D40F059
:100CC0000100E0650120E1E72068006800F0010014
:100CD0000028E3D00020D9E73F0000802DED068BEF
:100CE00082B00020019000BF1B4806F041F864214B
:100CF000194805F0A1FF0121174805F07DFF80B2DA
:100D00000190154806F0B8F8BDF8040000EE100A8E
:100D1000B8EE400A10EE100AFFF7C7FC41EC1A0BC0
:100D20009FED0E0B53EC102BFFF7C4FB41EC190B9E
:100D30009FED0C0B53EC102BFFF7BCFB41EC180B99
:100D4000FFF7F6FC00EE100A084880ED000A4FF4A9
:100D50007A700FF0EEFEC7E748070020B4D934E7F9
:100D60000C684A3F0000000000002440F002002010
:100D70002DED0E8B88B09FEDD20A8DED070A9FED09
:100D8000D00A8DED060A9FEDCE0A8DED050A9FED86
:100D9000CC0A8DED040A9FEDCA0A8DED030A9FED82
:100DA000C80A8DED020A00BF4FF0FF31C548006848
:100DB00012F02AF9C4480078012828D10020002127
:100DC0001CE0C24A32F8102000EE102AB8EE400AA9
:100DD000BF4A02EB810282ED000ABC4B421C33F891
:100DE000122000EE102AB8EE400ABA4A02EB810245
:100DF00082ED000A821C90B24A1C91B2B0F5007FCD
:100E0000DFDBB5480088401CB34908802BE0AE48C2
:100E10000078022827D1000200211CE0AB4A32F8FA
:100E2000102000EE102AB8EE400AA94A02EB810217
:100E300082ED000AA54B421C33F8122000EE102A66
:100E4000B8EE400AA34A02EB810282ED000A821C3E
:100E500090B24A1C91B2B0F5806FDFDB9F480088EA
:100E6000401C9E4908806A464FF4807198480FF0F4
:100E70005BFA4FF48073964A114699480FF0B2F826
:100E8000002000210DE0924A02EB800292ED000A60
:100E9000944A02EB810282ED000A021D90B24A1CC4
:100EA00091B2FF28EFDD40238E4A11468E480FF0A5
:100EB00099F840238B4A11468C480FF093F807AA03
:100EC000402188480FF030FA06AA4FF4807181481B
:100ED0000FF02AFA01AB03AA402182480FF03BF938
:100EE00001AB05AA4FF480717A480FF034F901ABD9
:100EF00002AA40217B480FF0BFF901AB04AA4FF4CE
:100F0000807174480FF0B8F900231A4607A9784891
:100F1000006811F081FE00231A4606A97548006892
:100F200011F07AFE74480068FFF7BFFB41EC190B23
:100F300072480068FFF7B9FB41EC1B0B0398FFF701
:100F4000B4FB41EC1E0B9FED6E0B53EC102BFFF727
:100F5000B1FA41EC1D0B9FED6C0B53EC102BFFF71E
:100F60001BFB41EC1C0B53EC1B2BFFF7A3FA41ECD2
:100F70001A0B53EC192BFFF7F6F941EC180BFFF79E
:100F8000D7FB634908605C480068FFF78EFB41ECC3
:100F9000190B5A480068FFF788FB41EC1B0B0298BD
:100FA000FFF783FB41EC1E0B9FED550B53EC102B11
:100FB000FFF780FA41EC1D0B9FED530B53EC102B08
:100FC000FFF7EAFA41EC1C0B53EC1B2BFFF772FA0C
:100FD00041EC1A0B53EC192BFFF7C5F941EC180B38
:100FE000FFF7A6FB4B4908604B48D0ED000A9FED88
:100FF0004B1A80EE810A4648D0ED000A80EE801A36
:1010000080ED001A4448D0ED000A9FED441A80EEAE
:10101000810A0846D0ED000A80EE801A80ED001AA1
:1010200000231A4605A93E48006811F0F5FD00238B
:101030001A4604A93B48006811F0EEFD9DED000A38
:10104000DFED390AB4EEE00AF1EE10FA03DD01201B
:101050003649087002E0002034490870344890EDA9
:10106000000ADDED060A334890ED001A00EE810A11
:1010700010EE101A0846FFF718FB41EC180B9FED15
:101080002E0B53EC102BFFF73BFB03D200202C4917
:10109000087002E001202A4908700E4810F066FF2F
:1010A00000231A4619462748006811F0B5FD0023B1
:1010B0001A4619462448006811F0AEFD74E6000097
:1010C0000000000098000020BE030020100800204F
:1010D0001010002010140020C0030020C2030020C4
:1010E0003C19002010180020101900206819002059
:1010F0003801002044010020D8010020D401002044
:10110000B4D934E70C684A3F393939393939E93FBC
:10111000DC010020E0010020D001002000007A4422
:10112000680100206C01002000007A45B401002015
:1011300014020020100200209A99999999990D4063
:101140000C0200209C000020A400002000BFFEE74D
:1011500000BF00BF6D48007800BB4FF400614FF046
:10116000904007F077F928B969480078401C684931
:10117000087013E06648007805280FDD01206549F6
:101180000870002064490870644908706449087058
:10119000644908805E490870634908705B480078BC
:1011A00000BB4FF48071614807F054F928B96048DA
:1011B0000078401C5E49087014E05D4800780528FE
:1011C00010DD0020534908700120534908700020A9
:1011D00052490870524908705249088054490870B1
:1011E0005149087053480078F8B908214F4807F072
:1011F00031F928B950480078401C4F49087014E074
:101200004D480078052810DD002042490870424909
:101210000870012041490870002041490870414987
:10122000088045490870404908704248007800BB72
:101230004FF400713D4807F00DF928B93F48007898
:10124000401C3E49087014E03C480078052810DD39
:10125000002030490870304908703049087001207A
:101260002F49087000202F490880344908702E4902
:1012700008708021324807F0EDF8E8B92948008865
:10128000401C284908800846008864283ADB2D481D
:101290000078B8BB00201F4908701F4908701F491B
:1012A00008701F49087028490870012027490870F4
:1012B00000201C49088025E01A48008802281ADD11
:1012C00018480088642816DA2048007898B91D4824
:1012D000007880B900200F4908700F4908700F4945
:1012E00008700F490870012017490870002017493D
:1012F00008700C49088013480078012802D10020AA
:10130000084908800A200FF014FC23E7BD030020E1
:10131000040300200A0300200B0300200C0300201C
:101320000D030020080300203C03002000040048B7
:1013300005030020BC030020060300200703002053
:1013400000080048BB0300200E0300200F0300200C
:101350002DED0A8B84B0002003909FED930A8DED54
:10136000020A00BF9FED900A10EE104A019000BFE4
:1013700000BF5E218D480FF05FF810EE104A8B48D9
:10138000B0F8C20080B201908848B0F8B20058B9F5
:101390003E2186480FF050F8854880ED000A90ED18
:1013A000000A844880ED000A8048B0F8B2000128A5
:1013B00026D12046FFF779F941EC1C0B53EC1C2B8E
:1013C0009FED7D0B51EC100BFFF7E6F841EC1A0B8B
:1013D0007B480068FFF769F941EC1B0B53EC1A2BB3
:1013E000FFF768F841EC190B9FED760B53EC102BCF
:1013F000FEF7B9FF41EC180BFFF79AF96D49086049
:101400006A48B0F8B200022805D1704890ED000A91
:10141000684880ED000A6548B0F8B200032830D172
:101420002046FFF742F941EC1C0B53EC1C2B9FEDBF
:10143000620B51EC100BFFF7AFF841EC1A0BBDF843
:10144000040000EB8000624A02EBC00090ED050A48
:1014500010EE101A0846FFF728F941EC1B0B53EC6D
:101460001A2BFFF727F841EC190B9FED560B53ECA5
:10147000102BFEF778FF41EC180BFFF759F94D4997
:1014800008604A48B0F8B20004286FD12046FFF740
:101490000CF941EC1A0B53EC1A2B9FED470B51EC56
:1014A000100BFFF779F841EC190B9FED4A0B53EC49
:1014B000102BFEF758FF41EC180BFFF739F93D49A7
:1014C0000860084690ED000ADFED440A60EE200A4D
:1014D000434890ED001A434890ED000A00EE810A5F
:1014E000BCEEC00A8DED030A002211463E48039B64
:1014F00006F08AFB01200FF01CFB2046FFF7D5F811
:1015000041EC1A0B53EC1A2B9FED2B0B51EC100BEB
:10151000FFF742F841EC190B9FED2A0B53EC102B0F
:10152000FEF721FF41EC180BFFF702F92149086093
:10153000084690ED000ADFED290A60EE200A2848EF
:1015400090ED001A274890ED000A00EE810ABCEEEB
:10155000C00A8DED030A002211462348039B06F0C2
:1015600053FB13200FF0E5FA03E7FFE7114890ED76
:10157000000ADFED1A0A60EE200A194890ED001A01
:10158000184890ED000A00EE810ABCEEC00A8DED0D
:10159000030A002211461448039B06F035FB642021
:1015A0000FF0C7FAE5E6000000000000441A002032
:1015B000E0020020F80100200000000000003040A0
:1015C000C80100200000000000001040EC000020D6
:1015D000F0340020000000000000244000004C43D4
:1015E000E4020020E8020020F807002010B50248BD
:1015F00006F0AAFB10BD0000B007002010B502489D
:1016000006F0A2FB10BD0000EC45002010B502481A
:1016100006F09AFB10BD0000A445002010B502485A
:1016200006F092FB10BD0000CC44002010B502482B
:1016300006F08AFB10BD00008444002010B502486B
:1016400006F082FB10BD00001445002010B50248D2
:1016500006F07AFB10BD00005C45002010B5024882
:1016600006F072FB10BD00003C44002010B502489B
:1016700006F06AFB10BD0000F443002030B590F87E
:10168000444004F01C050124AC40056C6C60046807
:1016900063608468102C04D10468A2600468E1606F
:1016A00003E00468A1600468E26030BD2DED028BA8
:1016B00084B0002002909FEDFE0A8DED010A00BF6C
:1016C00003A8FC4991ED000A0EF0ABFEBDF80C003A
:1016D00000B2F9490880BDF80E0000B24880F74812
:1016E0000078888203A8F64991ED000A0EF099FE71
:1016F000BDF80C0000B2F0498885BDF80E0000B2BC
:10170000C88503A8EF4991ED000A0EF08AFEBDF8E6
:101710000C0000B2E8490886BDF80E0000B2488609
:1017200003A8E94991ED000A0EF07BFEBDF80C001C
:1017300000B2E1498886BDF80E0000B2C886E348D1
:10174000008800B28887E14801680079020442EA13
:10175000114000B2D849C887DD48008800B2A1F81E
:10176000400003A8DB4991ED000A0EF05AFEBDF8D7
:101770000C0000B2D049A1F84800BDF80E0000B23C
:10178000A1F84A00D4480078A1F85C0003A8D34926
:1017900091ED000A0EF045FEBDF80C0000B2C649FE
:1017A000A1F86E00BDF80E0000B2A1F8700003A809
:1017B000CB4991ED000A0EF034FEBDF80C0000B2EA
:1017C000BD49A1F87400BDF80E0000B2A1F8760082
:1017D000C348D0ED000AC34890ED001A70EEC10A6C
:1017E000B0EE600A03A80EF01CFEBDF80C0000B2BB
:1017F000B149A1F87800BDF80E0000B2A1F87A0056
:10180000B948008800B2A1F88C00B848008800B23E
:10181000A1F88E00B6480078A1F8920003A8B54957
:1018200091ED000A0EF0FDFDBDF80C0000B2A249DA
:10183000A1F89400BDF80E0000B2A1F8960003A82C
:10184000AD4991ED000A0EF0ECFDBDF80C0000B2C0
:101850009949A1F89800BDF80E0000B2A1F89A00CD
:10186000A648D0E90020A649D1E90031D21A884122
:1018700012D2A348D0E90010A04D30CD0A1B60EB76
:1018800005011046FEF7F7FE08EE100A03A8B0EEB9
:10189000480A0EF0C6FD04E003A89FED850A0EF08D
:1018A000C0FDBDF80C0000B28349A1F89C00BDF852
:1018B0000E0000B2A1F89E009248008800B2A1F884
:1018C000A0009148008800B2A1F8A2008F480078DB
:1018D000A1F8A4008E480078A1F8A6008D480088E1
:1018E00000B2A1F8AE0003A88B4991ED000A0EF0FA
:1018F00098FDBDF80C0000B26F49A1F8C400BDF816
:101900000E0000B2A1F8C60003A8844991ED000AB8
:101910000EF087FDBDF80C0000B26749A1F8CE00BB
:10192000BDF80E0000B2A1F8D00003A89FED7C0A1C
:101930000EF077FDBDF80C0000B25F49A1F8D200AF
:10194000BDF80E0000B2A1F8D4007648008800B2BD
:10195000A1F8F00003A8744991ED000A0EF061FDB2
:10196000BDF80C0000B25449A1F8F400BDF80E0017
:1019700000B2A1F8F60003A86C4991ED000A0EF040
:1019800050FDBDF80C0000B24B49A1F8F800BDF8BD
:101990000E0000B2A1F8FA0003A8654991ED000A13
:1019A0000EF03FFDBDF80C0000B24349A1F8FC0069
:1019B000BDF80E0000B2A1F8FE005B48D0ED000AB1
:1019C0005C4890ED001A70EEC10AB0EE600A03A800
:1019D0000EF027FDBDF80C0000B23749A1F8000158
:1019E000BDF80E0000B2A1F802015048D0ED000A87
:1019F000514890ED001A70EEC10AB0EE600A03A8DB
:101A00000EF00FFDBDF80C0000B22B49A1F8040147
:101A1000BDF80E0000B2A1F806014548D0ED000A5D
:101A2000464890ED001A70EEC10AB0EE600A03A8B5
:101A30000EF0F7FCBDF80C0000B21F49A1F8080138
:101A4000BDF80E0000B2A1F80A0103A83C4991EDCF
:101A5000000A0EF0E6FCBDF80C0000B21649A1F831
:101A60001001BDF80E0000B2A1F81201354800784F
:101A700000286BD1002496E104EB840080009030B4
:101A80000D4911F8100004EB84012F4A02F83100CF
:101A900004EB840080009130074911F8100004EB3A
:101AA000840102EBC101487004EB840080004EE029
:101AB00000000000A0010020441A0020B401002012
:101AC000C4010020C8010020CC01002088020020B1
:101AD00098020020EC0000200C02002020020020D0
:101AE0007C01002078010020780200207A0200208A
:101AF0003202002058020020480200206802002024
:101B000060020020AE020020B0020020EE030020A0
:101B1000EF03002026030020F002002044000020F4
:101B2000AE47B1409E010020DC010020E40100200E
:101B3000EC010020E0010020E8010020F00100207D
:101B4000880300203D030020F03400202EE1923075
:101B5000FE4931F8100004EB840102EBC1018880DA
:101B600004EB840080009330F84911F8100004EB76
:101B7000840102EBC101887004EB84008000943082
:101B8000F24911F8100004EB840102EBC1018871E5
:101B900004EB840080009530EC4931F8100004EB30
:101BA000840102EBC101088104EB840189009631B4
:101BB000E64A02EB410000210EF03EFC04EB8400FB
:101BC000E34901EBC00080ED030A04EB84018900C6
:101BD0009831DE4A02EB410000210EF02DFC04EBAF
:101BE0008400DB4901EBC00080ED040A04EB8400B3
:101BF00001EBC000807908BB04EB840001EBC0005E
:101C000090ED050ABDEEC00A10EE100A01B204EB19
:101C1000840080009A30CD4A22F8101004EB840032
:101C2000CB4901EBC00090ED050ABDEEC00A10EEF5
:101C3000100A00B26100C74A22F8110004EB8400C8
:101C4000C34901EBC0008079012806D004EB840071
:101C500001EBC000807904282DD104EB8400BC493D
:101C600001EBC000D0ED050AB0EE600A03A80EF04B
:101C7000D8FBBDF80C0001B204EB840080009A3060
:101C8000B24A22F81010BDF80E0001B204EB840035
:101C900080009B3022F81010BDF80C0000B26100EB
:101CA000AC4A22F81100BDF80E0000B2012101EB90
:101CB000440122F8110004EB8400A54901EBC000A7
:101CC0008079022806D004EB840001EBC000807903
:101CD000032822D104EB84009D4901EBC00090ED64
:101CE000050ABDEEC00A10EE100A01B204EB840032
:101CF00080009A30954A22F8101004EB8400944931
:101D000001EBC00090ED050ABDEEC00A10EE100A0E
:101D100000B261008F4A22F8110004EB84018900AF
:101D20009C318A4A02EB410000210EF085FB04EB56
:101D30008400874901EBC00080ED080A04EB8401B0
:101D400089009E31814A02EB410000210EF074FBB4
:101D500004EB84007E4901EBC00080ED090A04EB2E
:101D600084018900A031794A02EB410000210EF084
:101D700063FB04EB8400764901EBC00080ED060AAA
:101D800004EB84018900A231704A02EB410000217A
:101D90000EF052FB04EB84006D4901EBC00080EDB6
:101DA000070A601C84B2282CFFF666AE6748B0F9BB
:101DB000D60040F2E111884212D100206349A1F817
:101DC000D60010F0BDFA614810F09CFD02900FF0B3
:101DD000A3FA10F0DFFA00200EF08EFD04F07AFB7B
:101DE0005A48B0F9D6005C4988427DD10020574955
:101DF000A1F8D60003A8594991ED000A0EF011FB95
:101E0000BDF80C0000B251494883BDF80E0000B285
:101E1000888303A8524991ED000A0EF002FBBDF839
:101E20000C0000B24949C883BDF80E0000B2088416
:101E300003A84C4991ED000A0EF0F3FABDF80C002E
:101E400000B242494884BDF80E0000B2888403A85D
:101E50004549097800EE101AB8EE400A0EF0E1FA92
:101E6000BDF80C0000B23949C884BDF80E0000B2BC
:101E7000088503A83D4991ED000A0EF0D2FABDF89D
:101E80000C0000B23149A1F86600BDF80E0000B2A6
:101E9000A1F8680003A8364991ED000A0EF0C1FAD6
:101EA000BDF80C0000B22949A1F86A00BDF80E0087
:101EB00000B2A1F86C000846B0F880002D490880F7
:101EC00003A82D4991ED000A0EF0ABFABDF80C0005
:101ED00000B21E49A1F8B400BDF80E0000B2A1F88E
:101EE000B60003A8254900E02CE091ED000A0EF0B1
:101EF00098FABDF80C0000B21449A1F8B800BDF87A
:101F00000E0000B2A1F8BA0010F01AFA0F4810F053
:101F1000F9FC02900FF000FA10F03CFA00200EF0ED
:101F2000EBFC04F0D7FA00211548006810F028FEF9
:101F300000211448006810F023FE002112480068B8
:101F400010F01EFE0148B0F9D8001FE0441A00202E
:101F5000F0340020A4210020CDABFFFFD0010020F1
:101F6000D4010020D8010020C00100201002002070
:101F70001402002062030020E4020020E802002096
:101F800044010020480100204C0100205A498842A9
:101F900007D05A48007800287DD159480088012888
:101FA000FAD100205749A1F8D80000BF28E00D2839
:101FB00019D00E2817D00F2815D0102813D01128AB
:101FC00011D012280FD033280DD034280BD035284B
:101FD00009D0362807D05A2805D05B2803D05C28C2
:101FE00001D05D2806D1474931F81010454A22F842
:101FF000101003E00021434A22F81010411C88B25F
:10200000B0F56C7FD3DB0A203E49A1F8C80044F646
:102010002060A1F8DA0003A8B3EE060A0EF001FA78
:10202000BDF80C0000B23749A1F8DC00BDF80E0085
:1020300000B2A1F8DE0003A8B3EE0A0A0EF0F1F92F
:10204000BDF80C0000B22F49A1F8E000BDF80E0069
:1020500000B2A1F8E20003A89FED2B0A0EF0E1F90F
:10206000BDF80C0000B22749A1F88200BDF80E00AF
:1020700000B2A1F88400BDF80C0000B2A1F88800FD
:10208000BDF80E0000B2A1F88A00BDF80C0000B245
:10209000A1F8CA0000E029E0BDF80E0000B2A1F8E6
:1020A000CC006420A1F8EE00084610F02BFC029052
:1020B00000BF00BF00BF00BF00BFBFF34F8F00BF16
:1020C00000BF00BF1148006800F4E06010490843F9
:1020D000001D0E49086000BF00BF00BFBFF34F8F57
:1020E00000BF00BF00BF00BF00BFFDE70A200EF029
:1020F00020FDFFF7E5BA0000BADCFFFF3D0300203A
:102100005E030020441A00200000E1470CED00E0CF
:102110000000FA05704700002DED0E8B84B09FED96
:102120005E0A8DED030A9FED5C0A8DED020A9FEDBC
:102130005A0A8DED010A00BF4FF0FF315748006881
:1021400010F062FF40225649084608F03FFD402348
:10215000534A114653480DF045FF03AA4021504809
:102160000EF0E2F86B4602AA40214D480DF0F3FF55
:102170006B4601AA40214A480EF07EF800231A4619
:1021800003A94948006810F047FD48480068FEF779
:102190008CFA41EC190B46480068FEF786FA41ECD0
:1021A0001B0B0298FEF781FA41EC1E0B9FED410BD1
:1021B00053EC102BFEF77EF941EC1D0B9FED3F0B0E
:1021C00053EC102BFEF7E8F941EC1C0B53EC1B2BE6
:1021D000FEF770F941EC1A0B53EC192BFEF7C3F81C
:1021E00041EC180BFEF7A4FA364908602F48006846
:1021F000FEF75BFA41EC190B2D480068FEF755FA23
:1022000041EC1B0B0198FEF750FA41EC1E0B9FEDC1
:10221000290B53EC102BFEF74DF941EC1D0B9FEDF4
:10222000270B53EC102BFEF7B7F941EC1C0B53ECCA
:102230001B2BFEF73FF941EC1A0B53EC192BFEF761
:1022400092F841EC180BFEF773FA1F4908601F481B
:10225000D0ED000A9FED1E1A80EE810A1948D0EDDC
:10226000000A80EE801A80ED001A1848D0ED000AAE
:102270009FED171A80EE810A0846D0ED000A80EE25
:10228000801A80ED001A00231A461946114800688A
:1022900010F0C2FC50E7000000000000A000002089
:1022A00010180020C019002040010020D801002093
:1022B000D4010020B4D934E70C684A3F39393939A0
:1022C0003939E93FEC010020F0010020D001002065
:1022D00000007A44AC0000208EB00122D1034FF000
:1022E000904006F0C3F80FF0C9FB01200FF0B6FBD9
:1022F0000EF076F80FF032FCFE48B0F9DA000490E8
:1023000000EBD070401003900EF013FC01200EF093
:10231000F3FA00BFF8480078012808D100200FF038
:102320009DFB0EF073FB0FF019FC03F07CBFF3482C
:10233000007801283FD1F248007801280BD0F048FE
:102340000078022807D0EE480078032803D0EC4834
:10235000007804282FD100200FF080FB00210846D0
:102360000FF0F6FB0123E74806C8E7A00FF09CFC3E
:102370000123E74806C8E7A00FF096FC0F210020D4
:102380000FF0E6FB0123DF4806C8E3A00FF08CFC4A
:102390001E2100200FF0DCFB0123DA4806C8E0A074
:1023A0000FF082FC0123DA4806C8DEA00FF07CFCA7
:1023B0000FF0D4FBB9E7D1480078012813D1D048F9
:1023C000007805280FD100200FF048FB0F210020D6
:1023D0000FF0BEFB0123CB4806C8D3A00FF064FC6E
:1023E0000FF0BCFBA1E7D2480088012809D1D148F1
:1023F000007818B90920D049087002E00620CE49BB
:102400000870CB480088022809D1CA48007818B95A
:102410000120C949087002E00820C7490870C44873
:102420000088032809D1C348007818B92820C24978
:10243000087002E00220C0490870BD4800880428E6
:1024400009D1BC48007818B90220BB49087002E0E5
:102450000420B9490870B6480088052801D1B6495A
:102460000870B3480088062802D10320B2490870DA
:10247000AF480088072802D10320AF490870AF4851
:102480000078012812D1AE48008800280EDDAD4842
:10249000007858B9AA480088401EA9490880002041
:1024A000A6490870A8490870A8490870A84800788B
:1024B000012814D1A24800889F49097888420EDA81
:1024C000A048007858B99E480088401C9C49088064
:1024D00000209F4908709C4908709C4908709D48DD
:1024E0000078012836D192480088002832DD9648CD
:1024F000007878BB9348007860BB8D48008803283B
:1025000011D18F48008870B193480088002804DDFD
:1025100091480088401E9049088000208D4908702D
:102520008A49087016E08D480088002804DD8B4831
:102530000088401E8949088089488849098830F800
:1025400011007B4908800020824908707C4908807E
:102550007E49087083480078012839D17A4800788C
:10256000B0BB7848007898BB71480088032815D123
:102570007348008890B178480088282808DA76489F
:1025800000880C2804DA74480088401C72490880CE
:102590000020744908706D49087019E0724800887D
:1025A000401E6E490988884204DD6C480088401C42
:1025B0006A4908806A486949098830F811005C490D
:1025C00008800020674908705D4908805F490870ED
:1025D0005D48007801280ED15948008858B1594803
:1025E000007808B9012000E000205649087000205A
:1025F0005549087014E05D480078012810D1504812
:10260000008868B94B48007808B9012000E0002034
:102610004849087000205549087001205449087045
:1026200046480078012813D14648007801280FD188
:1026300046480078002805DD44480078401E43499C
:10264000087002E000204149087000203B490870F2
:102650003F480078012813D13A48007801280FD16B
:102660003A480078012805DA38480078401C374994
:10267000087002E0012035490870002034490870D4
:102680003A48007801280ED12D48008858B10FF043
:1026900043F80020354908702B4908702549087017
:1026A00001203349087033480088012841F0158023
:1026B0001F48008801281CD1214800880028FAD131
:1026C0000FF0CCF9002108460FF042FA0123104820
:1026D00006C829A00FF0E8FA2848007801287AD126
:1026E0002748007820B90F2100200FF031FA49E087
:1026F00059E01CE2441A0020F802002024030020C4
:10270000E103002018000020CEE1EDEEE200000021
:10271000200000202D000000EBE5EDE8E5000000C2
:10272000CFCE00002E2E2E00D3D1CFC5D8CDCE00D7
:1027300012030020640300204C0300200A03002041
:10274000160300203D0300200E0300203E0300205E
:102750000B0300200C0300201403002010030020B2
:10276000403D00200D0300205A0300200F030020ED
:10277000BB0300202C03002049435000B40100207B
:10278000440300200123FE4806C8FEA00FF08CFA87
:102790001E2100200FF0DCF90123F94806C8FBA038
:1027A0000FF082FA05E00123FA4806C8FAA00FF0FC
:1027B0007BFAFA480078012803D1002137200FF076
:1027C0005EFB00213C200FF05AFB2B213A200FF03A
:1027D000DFFAA7E1FFE7F1480078F0B900200FF039
:1027E0003DF9002108460FF0B3F90123E94806C876
:1027F000AFF27C000FF058FA00211C200FF0A8F96E
:1028000000213C200FF03BFB2B213A200FF0C0FAB7
:102810000F2100200FF09CF925E0E0480078012806
:1028200021D100200FF01AF9002108460FF090F98D
:102830000123D84806C8AFF2C0000FF035FA0021D6
:102840001C200FF085F9002137200FF018FB002124
:102850003C200FF014FB2B213A200FF099FA0F21A6
:1028600000200FF075F9CE48008801281FD11222F0
:10287000CCA106A8FDF76BFD122106A80FF02AFADD
:10288000202100200FF064F9CB480068FDF70DFF10
:10289000CDE90201C9A2CDE900014021C9480CF0EF
:1028A00075FE0123BB4806C8C6480FF0FDF9BC48B9
:1028B000008802281FD11122C3A106A8FDF747FDF9
:1028C000112106A80FF006FA202100200FF040F990
:1028D000C2480068FDF7E9FECDE90201B7A2CDE9E3
:1028E00000014021B7480CF051FE0123A94806C859
:1028F000B4480FF0D9F9AA48008803281FD1142240
:10290000B7A106A8FDF723FD142106A80FF0E2F9F0
:10291000202100200FF01CF9B7480068FDF7C5FE24
:10292000CDE90201A5A2CDE900014021A5480CF0A6
:102930002DFE0123974806C8A2480FF0B5F9984824
:10294000008804281FD11422ACA106A8FDF7FFFCC3
:10295000142106A80FF0BEF9202100200FF0F8F88E
:10296000AD480068FDF7A1FECDE9020193A2CDE9D3
:102970000001402193480CF009FE0123854806C858
:1029800090480FF091F98648008805281FD117223A
:10299000A2A106A8FDF7DBFC172106A80FF09AF903
:1029A000202100200FF0D4F8A2480068FDF77DFE3A
:1029B000CDE9020181A2CDE90001402181480CF05E
:1029C000E5FD0123734806C87E480FF06DF9744891
:1029D000008806281FD1142297A106A8FDF7B7FC8E
:1029E000142106A80FF076F9202100200FF0B0F88E
:1029F00098480068FDF759FECDE902016FA2CDE9C4
:102A0000000140216F480CF0C1FD0123614806C858
:102A10006C480FF049F962480088072828D1142231
:102A20008DA106A8FDF793FC142106A80FF052F91A
:102A3000202100200FF08CF8774890ED000A8C4898
:102A4000D0ED000A30EE600A8DED010A0198FDF725
:102A50002CFECDE9020159A2CDE9000140215948DF
:102A60000CF094FD01234B4806C856480FF01CF9A2
:102A70004B480088082828D114227EA106A8FDF71B
:102A800066FC142106A80FF025F91E2100200FF086
:102A90005FF8684890ED000A7C48D0ED000A30EEFF
:102AA000600A8DED010A0198FDF7FFFDCDE90201F5
:102AB00042A2CDE90001402142480CF067FD01230C
:102AC000344806C83F480FF0EFF835480088092819
:102AD00028D114226EA106A8FDF739FC142106A8FE
:102AE0000FF0F8F8202100200FF032F8594890ED4F
:102AF000000A6D48D0ED000A30EE600A8DED010A43
:102B00000198FDF7D2FDCDE902012CA2CDE900012B
:102B100040212C480CF03AFD01231E4806C82948E4
:102B20000FF0C2F8002061490870614908706148DF
:102B30000088012822D16048008801281ED117484A
:102B40000078D8B900200EF089FF002108460EF069
:102B5000FFFF01230F4806C8AFF2E4300FF0A4F8DE
:102B600000211C200EF0F4FF002137200FF04CF95B
:102B700000213C200FF083F90F219FE0C8E0000006
:102B800018000020CEC1D0DBC2000000C4C0D2D7E4
:102B9000C8CAC000200000202000000064030020FC
:102BA00060030020D1CAC720E2E8E1F0EEF3F1EAC9
:102BB000EEF0E5EDE8FF0000C4010020252E3031E5
:102BC000660000004E3D0020D1CAC720E2E8E1F0D7
:102BD000EEF1EAEEF0EEF1F2E8000000C8010020AC
:102BE000D1CAC720E2E8E1F0EEEFE5F0E5ECE5F967
:102BF000E5EDE8FF00000000CC010020C0ECEFEBA9
:102C0000E8F2F3E4E020E2E8E1F0EEF3F1EAEEF0DE
:102C1000E5EDE8FF00000000DC010020C0ECEFEB78
:102C2000E8F2F3E4E020E2E8E1F0EEF1EAEEF0EEC3
:102C3000F1F2E800E4010020C0ECEFEBE8F2F3E48D
:102C4000E020E2E8E1F0EEEFE5F0E5ECE5F9E5EDB6
:102C5000E8FF0000EC010020D0E0E7ECE0F520E226
:102C6000E8E1F0EEF3F1EAEEF0E5EDE8FF00000058
:102C7000E0010020D0E0E7ECE0F520E2E8E1F0EE52
:102C8000F1EAEEF0EEF1F2E800000000E8010020C9
:102C9000D0E0E7ECE0F520E2E8E1F0EEEFE5F0E58A
:102CA000ECE5F9E5EDE8FF00F00100203D03002030
:102CB000BC030020120300201603002000200EF0A9
:102CC00047FF1222AFF2241106A8FDF740FB1221A4
:102CD00006A80EF0FFFF202100200EF039FFFE486D
:102CE0000068FDF7E2FCCDE90201FCA2CDE900019C
:102CF0004021FC480CF04AFC0123FB4806C8F94877
:102D00000EF0D2FF0020F94908700120F849087040
:102D1000F848008801284DD1F7480088022849D199
:102D2000F6480078E8BB00200EF098FE0021084627
:102D30000EF00EFF0123EC4806C8AFF2C4500EF0AF
:102D4000B3FF00211C200EF003FF002137200FF0FD
:102D50005BF800213C200FF092F80F2100200EF0CC
:102D6000F7FE1122AFF2A01106A8FDF7F0FA11212B
:102D700006A80EF0AFFF202100200EF0E9FEE0488B
:102D80000068FDF792FCCDE90201D4A2CDE9000173
:102D90004021D4480CF0FAFB0123D34806C8D1489F
:102DA00000E007E00EF080FF0020D049087001200D
:102DB000CF490870CF48008801284DD1CE480088FF
:102DC000032849D1CD480078E8BB00200EF046FE2C
:102DD000002108460EF0BCFE0123C34806C8AFF22E
:102DE00068600EF061FF00211C200EF0B1FE002192
:102DF00037200FF009F800213C200FF040F80F2198
:102E000000200EF0A5FE1422AFF22C2106A8FDF73B
:102E10009EFA142106A80EF05DFF202100200EF07E
:102E200097FEB8480068FDF740FCCDE90201ABA26F
:102E3000CDE900014021AB480CF0A8FB0123AA48D2
:102E400006C8A84800E007E00EF02EFF0020A749C2
:102E500008700120A6490870A6480088012849D1B9
:102E6000A5480088042845D1A4480078F0BB00207C
:102E70000EF0F4FD002108460EF06AFE01239A4888
:102E800006C8AFF20C700EF00FFF002137200EF0D5
:102E9000BBFF00213C200EF0F2FF0F2100200EF0BE
:102EA00057FE1822AFF2AC2106A8FDF750FA182100
:102EB00006A80EF00FFF202100200EF049FE9248D8
:102EC0000068FDF7F2FBCDE9020184A2CDE9000123
:102ED000402184480CF05AFB0123834806C88148EE
:102EE0000EF0E2FE00208149087000E002E00120BF
:102EF0007F4908707F480088012849D17E480088B2
:102F0000052845D17D480078F0BB00200EF0A6FDD5
:102F1000002108460EF01CFE0123734806C8AFF2DC
:102F2000A8700EF0C1FE002137200EF06DFF0021C9
:102F30003C200EF0A4FF0F2100200EF009FE172206
:102F4000AFF2283106A8FDF702FA172106A80EF005
:102F5000C1FE202100200EF0FBFD6C480068FDF74B
:102F6000A4FBCDE902015DA2CDE9000140215D484D
:102F70000CF00CFB01235C4806C85A480EF094FE86
:102F800000205A49087000E002E00120584908700A
:102F900058480088012849D157480088062845D15B
:102FA00056480078F0BB00200EF058FD002108467E
:102FB0000EF0CEFD01234C4806C8AFF644000EF0DB
:102FC00073FE002137200EF01FFF00213C200EF081
:102FD00056FF0F2100200EF0BBFD1A22AFF2A831E0
:102FE00006A8FDF7B4F91A2106A80EF073FE2021F9
:102FF00000200EF0ADFD46480068FDF756FBCDE918
:10300000020136A2CDE90001402136480CF0BEFA9B
:103010000123354806C833480EF046FE00203349E8
:10302000087000E002E00120314908703148008852
:10303000012873D13048008807286FD12F480078C5
:10304000F0BB00200EF00AFD002108460EF080FDC6
:103050000123254806C8AFF6E0000EF025FE00214A
:1030600037200EF0D1FE00213C200EF008FF0F218A
:1030700000200EF06DFD1522AFF2244106A8FDF7E9
:1030800066F9152106A80EF025FE202100200EF07D
:103090005FFD1D4890ED000A1E48D0ED000A30EE9D
:1030A000600A8DED010A0198FDF7FFFACDE90201F2
:1030B0000AA2CDE9000140210A480CF067FA00E0BD
:1030C0002CE00123084806C806480EF0EDFD00205C
:1030D0000649087001201FE0C4010020252E30336E
:1030E000660000004E3D0020200000203D0300202F
:1030F000BC030020120300201603002064030020FC
:10310000C8010020CC010020DC010020E4010020E7
:10311000EC010020E0010020FE490870FE48008814
:10312000012853D1FD48008808284FD1FC48007879
:10313000E8BB00200EF092FC002108460EF008FDCE
:103140000123F84806C8AFF6D0100EF0ADFD0021FF
:1031500037200EF059FE00213C200EF090FE0F218A
:1031600000200EF0F5FC1422AFF2F84106A8FDF79E
:10317000EEF8142106A80EF0ADFD202100200EF07F
:10318000E7FCE94890ED000AE848D0ED000A30EE8F
:10319000600A8DED010A0198FDF787FACDE9020179
:1031A000AFF2C802CDE900014021E14800E00DE0A6
:1031B0000CF0ECF90123DB4806C8DD480EF074FD85
:1031C0000020DC4908700120D2490870D2480088EC
:1031D00001284FD1D148008809284BD1D048007828
:1031E000F0BB00200EF03AFC002108460EF0B0FCC7
:1031F0000123CC4806C8AFF680200EF055FD002113
:1032000037200EF001FE0F2100200EF0A1FC172246
:10321000AFF2845106A8FDF79AF8172106A80EF020
:1032200059FD202100200EF093FCC34890ED000AC8
:10323000C248D0ED000A30EE600A8DED010A019817
:10324000FDF733FACDE90201AFF27012CDE90001CA
:103250004021B7480CF09AF90123B24806C800E0B3
:1032600008E0B3480EF020FD0020B24908700120AC
:10327000A8490870A848008801284ED1A7480088AE
:1032800001284AD1A6480078012846D100200EF036
:10329000E5FB002108460EF05BFC0123A14806C8AF
:1032A000AFF62C300EF000FD002132200EF0ACFD08
:1032B000002137200EF0E3FD00213C200EF0DFFD61
:1032C0000F2100200EF044FC18229DA106A8FDF756
:1032D0003EF8182106A80EF0FDFC202100200EF07B
:1032E00037FC94480078012806D19C480DF08AFAF2
:1032F00000208849087010E09848B0F9003098A282
:1033000040218B480CF042F90123864806C88848C2
:103310000EF0CAFC01207F4908707F480088012810
:1033200054D17E480088022850D17D480078012879
:103330004CD100200EF092FB002108460EF008FC54
:103340000123784806C8AFF6D0300EF0ADFC00215E
:1033500032200EF059FD002137200EF090FD0021A3
:103360003C200EF08CFD0F2100200EF0F1FB192205
:103370007CA106A8FCF7EBFF192106A80EF0AAFC19
:10338000202100200EF0E4FB6A480078012806D1D5
:103390007B480DF07FF800205E49087016E0784801
:1033A0000068FDF782F9CDE90201AFF2F072CDE9D4
:1033B000000140215E480CF0E9F80123594806C895
:1033C0005B480EF071FC0120524908705248008899
:1033D000012854D151480088032850D15048007822
:1033E00001284CD100200EF039FB002108460EF0D8
:1033F000AFFB01234B4806C8AFF684400EF054FCE7
:10340000002132200EF000FD002137200EF037FDA4
:1034100000213C200EF033FD0F2100200EF098FB20
:10342000112258A106A8FCF792FF112106A80EF060
:1034300051FC202100200EF08BFB3E480078012833
:1034400006D155480DF026F800203249087016E0E4
:1034500051480068FDF729F9CDE90201AFF6A40251
:10346000CDE90001402132480CF090F801232D48AD
:1034700006C82F480EF018FC01202649087026487F
:103480000088012842D12548008804283ED12448DC
:10349000007801283AD100200EF0E0FA0021084619
:1034A0000EF056FB01231F4806C8AFF634500EF04D
:1034B000FBFB002132200EF0A7FC002137200EF08C
:1034C000DEFC00213C200EF0DAFC0F2100200EF083
:1034D0003FFB0D2231A106A8FCF739FF0D2106A8FC
:1034E0000EF0F8FB202100200EF032FB2F4803786D
:1034F0001BA240210E480CF049F80123094806C8D8
:103500000B480EF0D1FB01200249087002480088E8
:1035100001284DE0BC030020120300201603002008
:103520006403002020000020E4010020E8010020C6
:103530004E3D00203D030020EC010020F001002062
:10354000CFE0F0E0ECE5F2F020EDE020E3EBE0E2AC
:10355000EDEEEC20ECE5EDFE000000006003002045
:1035600025640000CFF0E5E4F3EFF0E5E4E8F2E5F0
:10357000EBFCEDE0FF20F3F1F2E0E2EAE000000016
:10358000A8010020C0E2E0F0E8E9EDE0FF20F3F15F
:10359000F2E0E2EAE0000000B0010020D0E5E6E859
:1035A000EC20F4E8EBFCF2F0E0000000C0010020A9
:1035B0004BD1FE480088052847D1FD4800780128F6
:1035C00043D100200EF04AFA002108460EF0C0FA5E
:1035D0000123F84806C8AFF660600EF065FB0021D5
:1035E00032200EF011FC002137200EF048FC0021A3
:1035F0003C200EF044FC0F2100200EF0A9FA14220A
:10360000EDA106A8FCF7A3FE142106A80EF062FBAC
:10361000202100200EF09CFAED480068FDF745F8E7
:10362000CDE90201EBA2CDE900014021EB480BF00E
:10363000ADFF0123DF4806C8E8480EF035FB002047
:10364000E74908700120E7490870E7480088012829
:1036500043D1D648008806283FD1D54800780128B4
:103660003BD100200EF0FAF9002108460EF070FA66
:103670000123D04806C8AFF600700EF015FB0021FC
:1036800032200EF0C1FB0F2100200EF061FA14224F
:10369000D6A106A8FCF75BFE142106A80EF01AFBC3
:1036A000202100200EF054FAD6480068FCF7FDFFF8
:1036B000CDE90201C7A2CDE900014021C7480BF0C6
:1036C00065FF0123BB4806C8C4480EF0EDFA002090
:1036D000C34908700120C3490870CB4800880128FD
:1036E00070D1C148008802286DD1B04800880028F8
:1036F00069D10EF0B3F9002108460EF029FA012332
:10370000AC4806C8C1A00EF0CFFAC2480078012824
:1037100000D100E00020BC490988012900D100E067
:1037200000210840C8B3BC480078B0B90F21002080
:103730000EF00EFA0123B94806C8AFF6B8300EF005
:10374000B3FA1E2100200EF003FA0123B34806C885
:10375000AFF6C8300EF0A8FA06E00123954806C877
:10376000AFF6CC300EF0A0FA91480078012803D1D2
:10377000002137200EF083FB00213C200EF07FFB60
:10378000A7480088012803D126213A200EF0B3FB78
:103790002B213A200EF0FCFA4FE0FFE78448007836
:1037A00090B900213C200EF06AFB9D48008801285A
:1037B00003D126213A200EF09EFB2B213A200EF059
:1037C000E7FA15E0D0E33BE0002137200EF057FB8D
:1037D00000213C200EF053FB91480088012803D1C2
:1037E00026213A200EF087FB2B213A200EF0D0FA4A
:1037F0000F2100200EF0ACF912228AA106A8FCF7D6
:10380000A6FD122106A80EF065FA202100200EF078
:103810009FF989480068FCF748FFCDE90201AFF243
:103820004472CDE9000140216C480BF0AFFE01234A
:10383000604806C869480EF037FA002069490870E8
:103840006948008802283ED15848008801283AD1AA
:1038500057480078B8BB00200EF000F90021084658
:103860000EF076F90123534806C868A00EF01CFA42
:10387000002137200EF0C8FA0F2100200EF068F961
:103880000123664806C86DA00EF00EFA2021002024
:103890000EF05EF96A480068FCF707FFCDE9020107
:1038A00068A2CDE9000140214C480BF06FFE0123D6
:1038B000404806C849480EF0F7F90020484908700A
:1038C00001204849087048480088022855D13748E7
:1038D0000088012851D13648007801284DD10020B8
:1038E0000EF0BCF8002108460EF032F901233148F1
:1038F00006C846A00EF0D8F9002132200EF084FA56
:10390000002137200EF0BBFA00213C200EF0B7FA60
:103910000F2100200EF01CF925224CA106A8FCF76F
:1039200016FD252106A80EF0D5F9202100200EF065
:103930000FF92B480078012806D14E480CF0AAFD5B
:1039400000202849087016E04A480068FCF7ADFEE0
:10395000CDE90201AFF69C52CDE9000140211F489C
:103960000BF014FE0123134806C81C480EF09CF906
:1039700001201C4908700EF0F1F81B48008802284D
:1039800013D10A48008802280FD10948007801287D
:103990000BD100200EF062F8002108460EF0D8F896
:1039A0000123044806C819A066E0A8E01603002019
:1039B0006403002020000020CAEEFDF4F4E8F6E8DD
:1039C000E5EDF220F3F1E8EBE5EDE8FF00000000A3
:1039D000D4010020252E3035660000004E3D002029
:1039E0003D030020BC03002012030020CAEEFDF4BA
:1039F000F4E8F6E8E5EDF220F1ECE5F9E5EDE8FFB5
:103A000000000000D80100202E030020342D3230A9
:103A1000000000000C0200204403002018000020D9
:103A20002C030020D0E0F1F7E5F2EDEEE520E7ED24
:103A3000E0F7E5EDE8E5000020020020D2EEEA0024
:103A4000EC000020252E303266000000CDE8E6EDC7
:103A5000E8E920EFF0E5E4E5EB20E4E8E0EFE0E77B
:103A6000EEEDE020E4EBFF20EFE5F0E5F1F7E5F225
:103A7000E00000001C0200200EF016F900213220A8
:103A80000EF0C2F9002137200EF0F9F900213C2098
:103A90000EF0F5F90F2100200EF05AF82622FAA1B7
:103AA00006A8FCF754FC262106A80EF013F92021E5
:103AB00000200EF04DF8FE480078012806D1FD48A0
:103AC0000CF0E8FC0020FC49087016E0F94800689A
:103AD000FCF7EBFDCDE90201AFF62072CDE9000164
:103AE0004021F6480BF052FD0123F54806C8F34883
:103AF0000EF0DAF80120F04908700EF02FF8F148C6
:103B00000088022854D1F0480088032850D1EF489B
:103B1000007801284CD100200DF0A0FF00210846BC
:103B20000EF016F80123E64806C8AFF220100EF09A
:103B3000BBF8002132200EF067F9002137200EF08B
:103B40009EF900213C200EF09AF90F2100200DF083
:103B5000FFFF2022DEA106A8FCF7F9FB202106A822
:103B60000EF0B8F8202100200DF0F2FFD0480078C8
:103B7000012806D1DF480CF08DFC0020CE490870EA
:103B800016E0DC480068FCF790FDCDE90201AFF6D5
:103B9000D472CDE900014021C8480BF0F7FC0123A5
:103BA000C74806C8C5480EF07FF80120C249087012
:103BB000C4480088022853D1C348008804284FD144
:103BC000C248007801284BD100200DF047FF0021AA
:103BD00008460DF0BDFF0123B94806C8AFF2D41066
:103BE0000EF062F8002132200EF00EF9002137208D
:103BF0000EF045F900213C200EF041F90F21002084
:103C00000DF0A6FF1822BCA106A8FCF7A0FB182106
:103C100006A80EF05FF8202100200DF099FFA448BF
:103C20000078012806D1BB480CF034FC0020A249E2
:103C3000087015E0B7480068FCF737FDCDE90201D0
:103C4000B54ACDE9000140219C480BF09FFC0123BF
:103C50009B4806C899480EF027F80120964908703D
:103C600098480088022853D19748008805284FD1EA
:103C70009648007801284BD100200DF0EFFE00217E
:103C800008460DF065FF01238D4806C8AFF2842079
:103C90000EF00AF8002132200EF0B6F8002137208D
:103CA0000EF0EDF800213C200EF0E9F80F21002085
:103CB0000DF04EFF212299A106A8FCF748FB212117
:103CC00006A80EF007F8202100200DF041FF7848EB
:103CD0000078012806D19A480CF0DCFB00207649D8
:103CE000087015E096480068FCF7DFFCCDE902019A
:103CF000894ACDE90001402170480BF047FC0123BF
:103D00006F4806C86D480DF0CFFF01206A49087062
:103D10006C480088022853D16B48008806284FD190
:103D20006A48007801284BD100200DF097FE002151
:103D300008460DF00DFF0123614806C8AFF234308C
:103D40000DF0B2FF002132200EF05EF80021372086
:103D50000EF095F800213C200EF091F80F21002084
:103D60000DF0F6FE192277A106A8FCF7F0FA19214A
:103D700006A80DF0AFFF202100200DF0E9FE4C4811
:103D80000078012806D176480CF084FB00204A49CF
:103D9000087015E072480068FCF787FCCDE9020165
:103DA0005D4ACDE90001402144480BF0EFFB0123BF
:103DB000434806C841480DF077FF01203E4908708E
:103DC0004048008802284DD13F480088072849D143
:103DD0003E480078012845D100200DF03FFE00212B
:103DE00008460DF0B5FE0123354806C8AFF2E430B1
:103DF0000DF05AFF002132200EF006F80021372086
:103E00000EF03DF800213C200EF039F80F21002083
:103E10000DF09EFE1422AFF2604106A8FCF797FA5F
:103E2000142106A80DF056FF1E2100200DF090FE73
:103E30004C480068FCF739FCCDE90201AFF26C4256
:103E4000CDE9000140211D480BF0A0FB01231C48D7
:103E500006C81A480DF028FF0020154908700120F7
:103E6000154908701748008802287DD11648008837
:103E7000082879D115480078012875D100200DF067
:103E8000EDFD0021084670E0C2E5F0F5EDE8E9201F
:103E9000EFF0E5E4E5EB20E4E8E0EFE0E7EEEDE06D
:103EA00020E4EBFF20EFE5F0E5F1F7E5F2E00000BC
:103EB0003D03002018020020BC0300204E3D0020DE
:103EC00020000020120300201603002064030020BD
:103ED000D3F1F2E0E2EAE020EDE8E6EDFFFF20EFCB
:103EE000F0E5E4F3EFF0E5E4E8F2E5EBFCEDE0FF0C
:103EF00000000000FC010020D3F1F2E0E2EAE02043
:103F0000EDE8E6EDFFFF20E0E2E0F0E8E9EDE0FFBC
:103F10000000000004020020BC2B0108D3F1F2E0F5
:103F2000E2EAE020E2E5F0F5EDFFFF20EFF0E5E466
:103F3000F3EFF0E5E4E8F2E5EBFCEDE0FF00000074
:103F400000020020D3F1F2E0E2EAE020E2E5F0F541
:103F5000EDFFFF20E0E2E0F0E8E9EDE0FF00000027
:103F6000080200201002002038E00DF0F1FD0123CE
:103F7000FE4806C8AFF26C500DF096FE00213220CC
:103F80000DF042FF0F2100200DF0E2FD1422AFF2F0
:103F9000A45106A8FCF7DBF9142106A80DF09AFE3F
:103FA0001E2100200DF0D4FDF1480068FCF77DFBD8
:103FB000CDE90201AFF2E452CDE900014021ED4824
:103FC0000BF0E4FA0123E94806C8EA480DF06CFE5C
:103FD0000020E94908700120E8490870E848008895
:103FE000012804D0E6480088022841F06381E548B2
:103FF0000088032875D1E44800880028FAD10DF024
:104000002DFD002108460DF0A3FD0123D74806C869
:10401000DEA00DF049FEDA480088022816D1002003
:104020000DF01CFD002108460DF092FD0123D8483B
:1040300006C8D8A00DF038FE00211C200DF088FD28
:104040000123D34806C8D4A00DF02EFED348007833
:10405000A0B900213C200DF012FFD14800880128B2
:1040600003D0D0480088012803D126213A200DF042
:1040700042FF2B213A200DF08BFE17E00021372064
:104080000DF0FDFE00213C200DF0F9FEC448008833
:10409000012803D0C3480088012803D126213A20F3
:1040A0000DF029FF2B213A200DF072FEBE4800785A
:1040B00001281ED1BD480078A0B90F2100200DF0C5
:1040C00047FD0123B24806C8B9A00DF0EDFD1E2141
:1040D00000200DF03DFD0123AD4806C8B5A00DF050
:1040E000E3FD83E00123A14806C8B4A00DF0DCFD88
:1040F0007CE00F2100200DF02BFDA1480088022854
:104100001AD10922AEA106A8FCF721F9092106A8B7
:104110000DF0E0FD202100200DF01AFDAB480388D2
:10412000ABA2402193480BF031FA01238F4806C817
:1041300090480DF0B9FD59E01222A7A106A8FCF79E
:1041400006F9AA48007802461221049006A80DF04C
:10415000E5FD202100200DF0FBFCA448B0F9000093
:1041600000EB8000A24901EBC0008079012809D052
:104170009E48B0F9000000EB800001EBC0008079A0
:10418000042816D19948B0F9000000EB8000984946
:1041900001EBC00040690190FCF787FACDE902010C
:1041A000AFF26072CDE90001402172480BF0EEF9E8
:1041B00016E08E48B0F9000000EB80008C4901EB5E
:1041C000C00090ED050ABDEEC00A10EE100A00B264
:1041D0000346AFF674424021049066480BF0D6F9CE
:1041E0000123624806C863480DF05EFD6B48007805
:1041F00000287DD10490FCE362480088032847D161
:10420000614801880498401C81427DD1794800882A
:10421000F0BB00200DF022FC002108460DF098FCB8
:1042200075A240215348049B0BF0B0F901234F487D
:1042300006C850480DF038FD002137200DF0E4FD90
:104240000498272803D000213C200DF018FE2B21D4
:104250003A200DF09DFD0F2100200DF079FC122277
:104260005DA106A8FCF773F8122106A8049A0DF0C8
:1042700055FD202100200DF06BFC049800EB800020
:104280005B4901EBC0008079012809D0049800E067
:104290003AE000EB800001EBC0008079042814D1E3
:1042A000049800EB8000524901EBC0004069019086
:1042B000FCF7FBF9CDE90201AFF67802CDE9000188
:1042C00040212C480BF062F915E0049800EB8000C7
:1042D000474901EBC00090ED050ABDEEC00A10EEA3
:1042E000100A00B2034645A240210390214800E095
:1042F000FEE30BF04BF901231C4806C81D480DF0E6
:10430000D3FC00201C4908701E480088032877D180
:104310001D4801880498401C814271D135480088AD
:1043200001286DD100200DF099FB002108460DF009
:104330000FFC31A240210F48049B0BF027F9012309
:104340000A4806C80B480DF0AFFC002137200DF0DD
:104350005BFD0498272803D000213C200DF08FFD41
:1043600026213A200DF0C7FD2B214AE02000002035
:10437000140200204E3D00203D030020BC0300201D
:1043800030030020120300201603002034383500CB
:1043900018000020D2C8CA00C7D1CA006403002098
:1043A0002C0300202E0300203202002044030020B2
:1043B000CDC5D200D1C2DFC7C80000002000000078
:1043C000D1EEF1F2EEFFEDE8E500000098020020EA
:1043D0002564202525000000C7EDE0F7E5EDE8E5C0
:1043E00020F0E5E3E8F1F2F0E020000062030020B5
:1043F000F0340020140300203438352025640000F8
:1044000038E03A200DF0C4FC0F2100200DF0A0FB95
:104410001822F8A106A8FBF79AFF182106A8049A0B
:104420000DF07CFC202100200DF092FBF848007874
:1044300001280BD1049800EB800080009030F549F2
:1044400001EB400003900CF0DDF913E0049800EB61
:104450008000F14911F830000346AFF260024021BC
:104460000390EE480BF092F80123ED4806C8EB48A4
:104470000DF01AFCEB480088032867D1EA48018850
:104480000498401C814261D1E848008802285DD12F
:1044900000200DF0E3FA002108460DF059FBAFF2C1
:1044A000A8024021DD48049B0BF070F80123DC4892
:1044B00006C8DA480DF0F8FB002137200DF0A4FC07
:1044C0000498272803D000213C200DF0D8FC262199
:1044D0003A200DF010FD2B213A200DF059FC0F2150
:1044E00000200DF035FB1A22D1A106A8FBF72FFF03
:1044F0001A2106A8049A0DF011FC202100200DF0CD
:1045000027FBC348007801280BD1049800EB8000FA
:1045100080009130BF4901EB400003900CF072F92C
:1045200014E0049800EB8000BB4901EBC000407828
:104530000346AFF2381240210390B8480BF026F83A
:104540000123B74806C8B5480DF0AEFBB548008852
:10455000032867D1B44801880498401C814261D186
:10456000B248008803285DD100200DF077FA0021C1
:1045700008460DF0EDFAAFF280124021A748049BE7
:104580000BF004F80123A64806C8A4480DF08CFBE4
:10459000002137200DF038FC0498272803D0002193
:1045A0003C200DF06CFC26213A200DF0A4FC2B21C0
:1045B0003A200DF0EDFB0F2100200DF0C9FA0F227B
:1045C000A2A106A8FBF7C3FE0F2106A8049A0DF0CE
:1045D000A5FB202100200DF0BBFA8D4800780128B2
:1045E0000BD1049800EB800080009230894901EBE8
:1045F000400003900CF006F914E0049800EB8000F2
:10460000854901EBC00080880346AFF210224021AB
:10461000039082480AF0BAFF0123814806C87F4808
:104620000DF042FB7F480088032867D17E4801884F
:104630000498401C814261D17C48008804285DD1E7
:1046400000200DF00BFA002108460DF081FAAFF2C0
:10465000582240217148049B0AF098FF01237048BA
:1046600006C86E480DF020FB002137200DF0CCFB72
:104670000498272803D000213C200DF000FC2621BF
:104680003A200DF038FC2B213A200DF081FB0F2150
:1046900000200DF05DFA1C2270A106A8FBF757FE62
:1046A0001C2106A8049A0DF039FB202100200DF0F2
:1046B0004FFA5748007801280BD1049800EB80008E
:1046C00080009330534901EB400003900CF09AF8BE
:1046D00014E0049800EB80004F4901EBC0008078A3
:1046E0000346AFF2E822402103904C480AF04EFF07
:1046F00001234B4806C849480DF0D6FA49480088BE
:10470000032874D1484801880498401C81426ED126
:104710004648008805286AD100200DF09FF9002145
:1047200008460DF015FAAFF2303240213B48049BA9
:104730000AF02CFF01233A4806C838480DF0B4FAB5
:10474000002137200DF060FB0498272803D00021BA
:104750003C200DF094FB26213A200DF0CCFB2B21C0
:104760003A200DF015FB0F2100200DF0F1F92A225F
:1047700042A106A8FBF7EBFD2A2106A8049A0DF03A
:10478000CDFA202100200DF0E3F92148007801281E
:104790002ED1049800EB80001F4901EBC0002030AF
:1047A00003900BF077FE049800EB80001A4901EBB0
:1047B000C00090ED080A8DED030A05A89DED030ADF
:1047C0000BF02FFEBDF8140001B2049800EB80003E
:1047D00080009C300F4A22F81010BDF8160001B27C
:1047E000049800EB800080009D3022F8101074E0E7
:1047F0005AE00000C2EAEBFEF7E8F2FC20EEEFF030
:10480000EEF120F0E5E3E8F1F2F0E0200000000036
:104810003D030020441A0020F03400204E3D0020CB
:1048200020000020120300201603002014030020A3
:10483000C0E4F0E5F120F3F1F2F0EEE9F1F2E2E0AC
:1048400020F0E5E3E8F1F2F0E0200000C0E4F0E55C
:10485000F120F0E5E3E8F1F2F0E02000D4F3EDEA36
:10486000F6E8EEEDE0EBFCEDFBE920EAEEE420F00B
:10487000E5E3E8F1F2F0E02000000000CDE8E6ED2D
:10488000FFFF20EFF0E5E4F3EFF0E5E4E8F2E5EB1D
:10489000FCEDE0FF20F3F1F2E0E2EAE020F0E5E3F6
:1048A000E8F1F2F0E0200000049800EB8000FE49FF
:1048B00001EBC000006A0190FBF7F7FECDE90201B1
:1048C000FA4ACDE900014021F9480AF05FFE0123D0
:1048D000F84806C8F6480DF0E7F9F74800880328BD
:1048E00074D1F64801880498401C81426ED1F44886
:1048F000008806286AD100200DF0B0F80021084693
:104900000DF026F9AFF210524021E948049B0AF05D
:104910003DFE0123E74806C8E5480DF0C5F9002132
:1049200037200DF071FA0498272803D000213C208D
:104930000DF0A5FA26213A200DF0DDFA2B213A20C0
:104940000DF026FA0F2100200DF002F92222DDA140
:1049500006A8FBF7FCFC222106A8049A0DF0DEF95C
:10496000202100200DF0F4F8DF48007801282ED136
:10497000049800EB8000CC4901EBC0002430039088
:104980000BF088FD049800EB8000C74901EBC000E4
:1049900090ED090A8DED030A05A89DED030A0BF0C1
:1049A00040FDBDF8140001B2049800EB80008000C7
:1049B0009E30CE4A22F81010BDF8160001B20498BD
:1049C00000EB800080009F3022F810101AE004985D
:1049D00000EB8000B44901EBC000406A0190FBF796
:1049E00064FECDE90201B14ACDE900014021B048A1
:1049F00000E07CE30AF0CAFD0123AE4806C8AC48DB
:104A00000DF052F9AC480088032872D1AB480188F8
:104A10000498401C81426CD1A9480088072868D1BD
:104A200000200DF01BF8002108460DF091F8AFF2C0
:104A3000386240219E48049B0AF0A8FD01239D484E
:104A400006C89B480DF030F9002137200DF0DCF945
:104A50000498272803D000213C200DF010FA2621CD
:104A60003A200DF048FA2B213A200DF091F90F2150
:104A700000200DF06DF82B229DA106A8FBF767FC26
:104A80002B2106A8049A0DF049F9202100200DF0F1
:104A90005FF895480078012831D1049800EB800038
:104AA000814901EBC000183003900BF0F3FC04982F
:104AB00000EB80007C4901EBC00090ED060A8DED13
:104AC000030A05A89DED030A0BF0ABFCBDF814002A
:104AD00001B2049800EB80008000A030834A22F8E5
:104AE0001010BDF8160001B2049800EB800001E040
:104AF00001E31DE08000A13022F8101018E00498B6
:104B000000EB8000684901EBC00080690190FBF771
:104B1000CCFDCDE90201654ACDE9000140216448A0
:104B20000AF034FD0123634806C861480DF0BCF863
:104B300061480088032874D1604801880498401CAB
:104B400081426ED15E48008808286AD100200CF0AE
:104B500085FF002108460CF0FBFFAFF26472402194
:104B60005348049B0AF012FD0123524806C85048DE
:104B70000DF09AF8002137200DF046F90498272807
:104B800003D000213C200DF07AF926213A200DF0C7
:104B9000B2F92B213A200DF0FBF80F2100200CF088
:104BA000D7FF23225DA106A8FBF7D1FB232106A88E
:104BB000049A0DF0B3F8202100200CF0C9FF4A48F8
:104BC000007801282ED1049800EB8000364901EBD3
:104BD000C0001C3003900BF05DFC049800EB8000DB
:104BE000314901EBC00090ED070A8DED030A05A8DD
:104BF0009DED030A0BF015FCBDF8140001B20498FA
:104C000000EB80008000A230384A22F81010BDF876
:104C1000160001B2049800EB80008000A33022F857
:104C2000101018E0049800EB80001F4901EBC00051
:104C3000C0690190FBF739FDCDE902011B4ACDE9BE
:104C4000000140211A480AF0A1FC0123194806C8B6
:104C500017480DF029F818480088032870D1174824
:104C600001880498401C81426AD1154800880928AF
:104C700066D100200CF0F2FE002108460CF068FF1F
:104C8000AFF68C0240210A48049B0AF07FFC012306
:104C9000084806C806480DF007F8002137200DF037
:104CA000B3F8049827284CE0F0340020BC2B01080E
:104CB0004E3D00202000002012030020160300209B
:104CC00014030020CDE8E6EDFFFF20E0E2E0F0E88D
:104CD000E9EDE0FF20F3F1F2E0E2EAE020F0E5E3C5
:104CE000E8F1F2F0E02000003D030020441A00202B
:104CF000C2E5F0F5EDFFFF20EFF0E5E4F3EFF0E5BE
:104D0000E4E8F2E5EBFCEDE0FF20F3F1F2E0E2EAAB
:104D1000E020F0E5E3E8F1F2F0E02000C2E5F0F594
:104D2000EDFFFF20E0E2E0F0E8E9EDE0FF20F3F145
:104D3000F2E0E2EAE020F0E5E3E8F1F2F0E0200062
:104D40006AE003D000213C200DF099F826213A209A
:104D50000DF0D1F82B213A200DF01AF80F21002088
:104D60000CF0F6FE1722FEA106A8FBF7F0FA1721B9
:104D700006A8049A0CF0D2FF202100200CF0E8FED7
:104D8000FD48007801282ED1049800EB8001FB48F3
:104D900000EBC1000C3003900BF07CFB049800EB9F
:104DA0008000F64901EBC00090ED030A8DED030A87
:104DB00005A89DED030A0BF034FBBDF8140001B209
:104DC000049800EB800080009630ED4A22F8101025
:104DD000BDF8160001B2049800EB80008000973007
:104DE00022F8101018E0049800EB8000E34901EB72
:104DF000C000C0680190FBF758FCCDE90201E14A10
:104E0000CDE900014021E0480AF0C0FB0123DF4862
:104E100006C8DD480CF048FFDD480088032874D13F
:104E2000DC4801880498401C81426ED1DA48008831
:104E30000A286AD100200CF011FE002108460CF06F
:104E400087FEAFF64C224021CF48049B0AF09EFB20
:104E50000123CE4806C8CC480CF026FF002137209D
:104E60000CF0D2FF0498272803D000213C200DF03D
:104E700006F826213A200DF03EF82B213A200CF0BE
:104E800087FF0F2100200CF063FE1722C3A106A8A4
:104E9000FBF75DFA172106A8049A0CF03FFF2021CA
:104EA00000200CF055FEB448007801282ED104985B
:104EB00000EB8001B14800EBC100103003900BF013
:104EC000E9FA049800EB8000AC4901EBC00090EDDA
:104ED000040A8DED030A05A89DED030A0BF0A1FA63
:104EE000BDF8140001B2049800EB800080009830F7
:104EF000A34A22F81010BDF8160001B2049800EB86
:104F000080008000993022F8101018E0049800EB1F
:104F100080009A4901EBC00000690190FBF7C5FBD6
:104F2000CDE90201974ACDE90001402196480AF0F7
:104F30002DFB0123954806C893480CF0B5FE944814
:104F40000088032867D1934801880498401C814257
:104F500061D1914800880B285DD100200CF07EFDC6
:104F6000002108460CF0F4FDAFF67432402186486B
:104F7000049B0AF00BFB0123844806C882480CF00E
:104F800093FE002137200CF03FFF0498272803D020
:104F900000213C200CF073FF26213A200CF0ABFFDF
:104FA0002B213A200CF0F4FE0F2100200CF0D0FD54
:104FB000142280A106A8FBF7CAF9142106A8049AB6
:104FC0000CF0ACFE202100200CF0C2FD6A480078F5
:104FD00001280BD1049800EB8000800094306849D0
:104FE00001EB400003900BF00DFC14E0049800EB83
:104FF0008000624901EBC00080790346AFF60442AD
:105000004021039060480AF0C1FA01235F4806C8B6
:105010005D480CF049FE5E480088032863D15D4876
:1050200001880498401C81425DD15B4800880C28AF
:1050300059D100200CF012FD002108460CF088FD2B
:10504000AFF64C4240215048049B0AF09FFA0123DE
:105050004E4806C84C480CF027FE002137200CF0C3
:10506000D3FE0498272803D000213C200CF007FF32
:1050700026213A200CF03FFF0F2100200CF068FDA4
:10508000112252A106A8FBF762F9112106A8049A81
:105090000CF044FE202100200CF05AFD3648007828
:1050A00001280BD1049800EB800080009530344932
:1050B00001EB400003900BF0A5FB14E0049800EB1B
:1050C00080002E4901EBC00000890346AFF6D442B0
:1050D000402103902C480AF059FA01232B4806C8B6
:1050E00029480CF0E1FD0498401CC0B204900498DB
:1050F0002828FFF681A826480088032874D125486F
:105100000088012870D13648007801286CD1002031
:105110000CF0A4FC002108460CF01AFD01231B48EA
:1051200006C8AFF698500CF0BFFD002132200CF0FD
:105130006BFE002137200CF0A2FE00213C200CF079
:105140009EFE0F2100200CF003FD1822254906A821
:10515000FBF7FDF8182106A80CF0BCFD202144E067
:10516000CAEEFDF4F4E8F6E8E5EDF220C020F0E543
:10517000E3E8F1F2F0E020003D030020F0340020ED
:10518000441A0020D43901084E3D002020000020A0
:10519000120300201603002014030020CAEEFDF4C1
:1051A000F4E8F6E8E5EDF220C220F0E5E3E8F1F2FC
:1051B000F0E02000D2E8EF20E4E0EDEDFBF520F098
:1051C000E5E3E8F1F2F0E02000000000D2E0E9ECD5
:1051D000E0F3F220F0E5E3E8F1F2F0E02000000077
:1051E000640300204035010819E000200CF0B0FCF9
:1051F000FD480078012803D1FC480BF003FB0EE0CA
:10520000FA48B0F90030AFF60C624021F8480AF0D5
:10521000BDF90123F74806C8F5480CF045FDF648EE
:105220000088032846D1F5480088022842D1F44876
:10523000007801283ED100200CF010FC0021084627
:105240000CF086FC0123EB4806C8AFF6C0600CF0FA
:105250002BFD002132200CF0D7FD0F2100200CF097
:1052600077FC0822E7A106A8FBF771F8082106A839
:105270000CF030FD202100200CF06AFCDA480078A8
:10528000012804D1E249E3480BF020FA12E0E1489A
:105290000068FBF70AFACDE90201DFA2CDE90001BF
:1052A0004021D3480AF072F90123D24806C8D048F9
:1052B0000CF0FAFCD0480088042878D1CF48008848
:1052C000F0BB00200CF0CAFB002108460CF040FCAB
:1052D0000123D34806C8D3A00CF0E6FCC8480078E8
:1052E00060B900213C200CF0CAFD26213A200CF0C8
:1052F00002FE2B213A200CF04BFD0FE0002137205D
:105300000CF0BDFD00213C200CF0B9FD26213A2017
:105310000CF0F1FD2B213A200CF03AFD0F2100207A
:105320000CF016FC0123BE4806C8C0A00CF0BCFC63
:105330000123B04806C8BFA00CF0B6FC102100E065
:1053400035E02A200CF004FCBB480378AFF6547219
:105350004021A7480AF01AF90123A64806C8A44824
:105360000CF0A2FC202100200CF0F2FB0123AC4841
:1053700006C8B2A00CF098FC01239E4806C8ADA058
:105380000CF092FC21212A200CF0E2FBAD480378BE
:10539000AFF69872402196480AF0F8F80123954834
:1053A00006C893480CF080FC0020A749087092487A
:1053B0000088042876D191480088012872D190484D
:1053C0000078E8BB00200CF049FB002108460CF0F7
:1053D000BFFB0123924806C892A00CF065FC002197
:1053E00037200CF011FD00213C200CF048FD9748BF
:1053F0000088012825D10F2100200CF0A9FB1022E4
:1054000093A106A8FAF7A3FF102106A80CF062FCEE
:105410000123784806C893A00CF046FC2021002008
:105420000CF096FB9048038890A2402170480AF047
:10543000ADF801236F4806C86D480CF035FC2BE031
:1054400030E082480088022826D10F2100200CF08D
:105450007FFB0D2287A106A8FAF779FF0D2106A888
:105460000CF038FC0123634806C886A00CF01CFC35
:10547000202100200CF06CFB8448008880B2034699
:105480007AA2402104905A480AF080F80123594832
:1054900006C857480CF008FC00205349087001204A
:1054A0006949087054480088042876D15348008818
:1054B000022872D152480078C8BB00200CF0CEFA06
:1054C000002108460CF044FB0123554806C855A0AE
:1054D0000CF0EAFB002137200CF096FC5B480088BA
:1054E000012825D10F2100200CF032FB102258A1F9
:1054F00006A8FAF72CFF102106A80CF0EBFB0123FD
:105500003C4806C862A00CF0CFFB202100200CF024
:105510001FFB6048038855A2402135480AF036F841
:105520000123344806C832480CF0BEFB2FE034E0BB
:105530004648008802282AD10F2100200CF008FBE1
:105540000D224CA106A8FAF702FF0D2106A80CF0C7
:10555000C1FB0123274806C84FA00CF0A5FB202162
:1055600000200CF0F5FA494801680079020442EA8B
:10557000114080B203463DA2402104901C480AF02D
:1055800005F801231B4806C819480CF08DFB0020C4
:105590001549087001202C49087017480088042814
:1055A0007ED11648008801287AD115480078012854
:1055B00076D100200CF052FA002108460CF0C8FA0F
:1055C0000123174806C817A00CF06EFB00213220FB
:1055D0000CF01AFC002137200CF051FC00213C207B
:1055E0000CF04DFC0F215CE03D0300206203002025
:1055F0004E3D002020000020120300201603002052
:1056000064030020D1EAEEF0EEF1F2FC00000000AD
:10561000ECAB020820030020252E3030660000008D
:1056200018000020D0E5EBE500000000CFF0E5E435
:10563000000000002E000000A3020020C0E2E0F005
:1056400000000000A2020020BC0300203003002064
:10565000C0F2F2F0E8E1F3F220F1EEE1FBF2E8FF54
:10566000000000002031000026030020307825587B
:1056700000000000C1E8F220F1EEF1F2EEFFEDE8EB
:10568000FF00000028302D3135290000880200205D
:1056900020320000780200202831362D33312900D5
:1056A00030E000200CF054FA0123F94806C8F9A0B4
:1056B0000CF0FAFAC8200BF03CFA202100200CF084
:1056C00047FAF6480078012809D1F5480BF09AF816
:1056D0000020F44908700120F349087012E0F048F6
:1056E0000388F2A24021F24809F050FF0123F1485B
:1056F00006C8EF480CF0D8FA0120EA4908700020EB
:10570000E9490870EC480088042853D1EB48008828
:1057100002284FD1EA48007801284BD100200CF034
:105720009DF9002108460CF013FA0123D84806C859
:10573000AFF210100CF0B8FA002132200CF064FB2C
:10574000002137200CF09BFB00213C200CF097FB44
:105750000F2100200CF0FCF91822DAA106A8FAF7B4
:10576000F6FD182106A80CF0B5FA202100200CF057
:10577000EFF9CA480078012809D1D9480BF042F85E
:105780000020C84908700120C749087012E0D448B9
:105790000388C6A24021C64809F0F8FE0123C54887
:1057A00006C8C3480CF080FA0120BE4908700020EA
:1057B000BD490870C0480088042853D1BF480088FC
:1057C00003284FD1BE48007801284BD100200CF0AF
:1057D00045F9002108460CF0BBF90123AC4806C886
:1057E000AFF2C0100CF060FA002132200CF00CFB7C
:1057F000002137200CF043FB00213C200CF03FFB44
:105800000F2100200CF0A4F92122B6A106A8FAF776
:105810009EFD212106A80CF05DFA202100200CF04D
:1058200097F99E480078012809D1B7480AF0EAFFA5
:1058300000209C49087001209B49087012E0B24882
:1058400003889AA240219A4809F0A0FE01239948B2
:1058500006C897480CF028FA0120924908700020E9
:10586000914908709448008804284BD193480088D7
:10587000042847D192480078012843D100200CF039
:10588000EDF8002108460CF063F90123804806C8B2
:10589000AFF270200CF008FA002132200CF0B4FABC
:1058A0000F2100200CF054F9092298A106A8FAF75C
:1058B0004EFD092106A80CF00DFA202100200CF065
:1058C00047F976480078012809D193480AF09AFFF1
:1058D00000207449087001207349087012E08E4856
:1058E000038872A24021724809F050FE01237148DA
:1058F00006C86F480CF0D8F901206A4908700020EA
:10590000694908706C480088052825D16B480088D3
:1059100010BB00200CF0A2F8002108460CF018F98A
:1059200000213C200CF0ABFA26213A200CF0E3FADF
:105930002B213A200CF02CFA0F2100200CF008F952
:10594000092276A106A8FAF702FD092106A80CF0A3
:10595000C1F900205349087057480088052851D1E3
:105960005648008801284DD100200CF077F800211E
:1059700008460CF0EDF80123454806C86AA00CF073
:1059800093F901234B4806C8AFF258300CF08CF95C
:10599000002137200CF038FA00213C200CF06FFA7F
:1059A0000F2100200CF0D4F80123394806C860A06C
:1059B0000CF07AF9C8200BF0BCF8202100200CF084
:1059C000C7F836480078012809D15B480AF01AFF69
:1059D00000203449087001203349087012E056480D
:1059E000038832A24021324809F0D0FD012331481A
:1059F00006C82F480CF058F901202A4908700020E9
:105A0000294908702C48008805283FD12B48008878
:105A100002283BD100200CF021F8002108460CF0B0
:105A200097F801231A4806C83FA00CF03DF901235E
:105A3000204806C8AFF204400CF036F900213720A8
:105A40000CF0E2F900213C200CF019FA0F210020A3
:105A50000CF07EF80822AFF2544106A8FAF777FC62
:105A6000082106A80CF036F9202100200CF070F86F
:105A70000A480078012865D1304931480AF026FEED
:105A800000200849087001200749087074E059E0B7
:105A900018000020D0E5E6E8EC0000003D030020FF
:105AA000A4020020BC030020BD03002025640000E8
:105AB0004E3D00202000002012030020160300208D
:105AC00064030020C7E0E4E5F0E6EAE020EDE02032
:105AD000F1F0E0E1E0F2FBE2E0EDE8E500000000DB
