:020000040801F1
:10000000508B0120810201086DC90108D1AA0108A5
:10001000E5C301084D110108C5F101080000000009
:10002000000000000000000000000000C101010805
:10003000E5200108000000001D0201084BD5010861
:100040009B0201089B0201089B0201089B02010818
:100050009B0201089B0201089B0201089B02010808
:100060009B0201089B0201089B020108ED15010893
:10007000FD1501080D1601081D1601082D160108B1
:100080003D1601084D1601089B0201089B0201085C
:100090009B0201089B0201089B0201089B020108C8
:1000A0009B02010851DB01089B0201089B02010829
:1000B0009B0201089B0201089B0201089B020108A8
:1000C0009B0201089B0201089B0201089B02010898
:1000D0009B02010829EE010899EE010809EF0108C9
:1000E0009B0201089B0201089B0201089B02010878
:1000F0009B0201089B0201089B0201089B02010868
:100100009B0201089B0201089B0201089B02010857
:100110009B020108F1E5010861DB010879DB0108B8
:100120005D1601086D1601089B0201089B0201087B
:100130009B0201089B0201089B0201089B02010827
:100140009B0201089B0201089B0201089B02010817
:100150009B0201089B0201089B0201089B02010807
:100160009B0201089B0201089B0201089B020108F7
:100170009B0201089B0201089B020108000000008D
:100180009B0201089B0201089B0201089B020108D7
:100190009B0201089B0201089B0201089B020108C7
:1001A0009B0201089B0201089B020108DFF80CD0AA
:1001B00000F0ECFB004800475D080208508B01206E
:1001C0002C4B19680868B0E8F04F80F30988BFF33A
:1001D0006F8F4FF0000080F311887047000000001F
:1001E00008480068006880F308884FF0000080F33A
:1001F000148862B661B6BFF34F8FBFF36F8F00DF15
:1002000000BF00BF08ED00E0DFF80C00016841F41A
:1002100070010160704700BF88ED00E0EFF30980D6
:10022000BFF36F8F134B1A681EF0100F08BF20ED3D
:10023000108A20E9F04F106009B44FF0500080F3AD
:100240001188BFF34F8FBFF36F8F12F073F94FF028
:10025000000080F3118809BC19680868B0E8F04F05
:100260001EF0100F08BFB0EC108A80F30988BFF3AE
:100270006F8F704770050020EFF305807047000016
:100280000648804706480047FEE7FEE7FEE7FEE730
:10029000FEE7FEE7FEE7FEE7FEE7FEE755D60108CC
:1002A000AD0101082DE9F05F0546002092469B460E
:1002B00088460646814640241BE02846414647467C
:1002C000224600F076FA53465A46C01A914110D39E
:1002D00011461846224600F05DFA2D1A67EB010818
:1002E0004F4622460120002100F054FA17EB000986
:1002F0004E41201EA4F10104DFDC484631462A4667
:100300004346BDE8F09F40EA01039B0703D009E0A4
:1003100008C9121F08C0042AFAD203E011F8013BF1
:1003200000F8013B521EF9D27047D2B201E000F84A
:10033000012B491EFBD270470022F6E710B5134689
:100340000A4604461946FFF7F0FF204610BD10B5D7
:10035000044604E00B7800F8013B03B1491C521E2F
:10036000F8D2204610BD2DE9FE4F804681EA0300F9
:10037000C00F0C46009021F0004123F00045B8EB7F
:100380000200A94105D24046214690461C460B4634
:10039000024623F00040104347D0270DC7F30A0060
:1003A000C3F30A510290401A019040286BDAC3F35C
:1003B000130040F4801B0098924620B10023D2EB3A
:1003C000030A63EB0B0B01985946C0F140025046FB
:1003D00000F0E0F906460D4650465946019A00F0F5
:1003E000F8F910EB08006141002487EA115284EA11
:1003F000E7731A4340D0009A62B3019A012A4FEA88
:10040000075215DC001B61EB02014FF0004202EACB
:100410000752CDE90042001C41F5801132462B46BF
:1004200000F04DFA03B0BDE8F08F40462146F9E7F1
:10043000001B61EB0201001C41F5801300185B41B9
:100440002018A2F5001747EB030140EAD570B61952
:100450006D4111E06D084FEA360645EAC0754FEA76
:100460000752001B61EB0201001C41F58011490895
:100470004FEA30000019514132462B4603B0BDE827
:10048000F04F00F00DBA0098012240000023D0EB9D
:10049000020263EBE073009821464FEAE074B8EB88
:1004A000000061EB0401E9E783F000435BE781F0C2
:1004B000004158E72DE9FE4F81EA030404F00044AF
:1004C00021F0004100944FF0000B23F0004350EA6C
:1004D00001045ED052EA03045BD0C3F30A54C1F3B3
:1004E0000A552C44A4F2F3340194A0FB0254C1F346
:1004F000130141F48011C3F3130343F4801301FB90
:10050000024400FB034E840A970A44EA815447EAF6
:100510008357A4FB076802958D0A05FB07854FEA00
:10052000932C04FB0C542705029D4FEA065847EA1A
:100530001637B5EB08056EEB070C870E920E47EAEF
:10054000811742EA8312A7FB0201B6EB0B0164EBB1
:1005500000042B0D43EA0C335E1844EB1C50DA46C2
:100560005146E7FB0201C5F313044FEA0B3343EA9C
:1005700014534FEA0432019C43EA0603A4F10C042D
:100580000294009CCDE900B400F099F903B0BDE8F5
:10059000F08F00200146F9E72DE9F04D81EA0304D0
:1005A00004F0004B21F0004514464FF0000A23F000
:1005B000004150EA050220D054EA01021DD0C5F3E3
:1005C0000A570246C5F31303C1F31300C1F30A56D9
:1005D00040F4801543F48013A7EB0608101BD646A1
:1005E00008F2FD3873EB050002D308F1010801E0C1
:1005F00092185B41B8F1000F03DA00200146BDE814
:10060000F08D00204FF48011064684460EE0171B43
:1006100073EB050705D3121B63EB050306434CEA96
:10062000010C49084FEA300092185B4150EA01077B
:10063000EDD152EA030012D082EA040083EA0501F8
:10064000084305D0101BAB4106D20122002306E06F
:1006500000224FF0004302E06FF0010253101AEB4A
:1006600006004CEB085110EB0A0041EB0B01BDE812
:10067000F04D00F015B930B4044696230800214629
:1006800004D0B62330BC002200F0BEB820460021C2
:10069000F8E70EB540F2334202920022CDE9002283
:1006A000134600F00CF903B000BD00F0004230F03A
:1006B00000400AD0C10D01F56071C0F3160042EA96
:1006C0000151C2084007114370470020014670479E
:1006D00030B5041E71F1000404DB4FF000444042C9
:1006E00064EB0101141E73F1000405DB1C464FF09E
:1006F0000043524263EB04038B4208BF824230BD89
:1007000030B5041E71F1000404DB4FF00044404298
:1007100064EB0101141E73F1000405DB1C464FF06D
:100720000043524263EB0403994208BF904230BD3C
:1007300001F0004330B421F0004150EA010206D03C
:100740000A0DA2F56072C1F31301002A02DC30BC6D
:1007500000207047440F44EAC104C100E01830BCD7
:1007600000EBC25000F047B830B50B460146002000
:100770002022012409E021FA02F59D4205D303FA63
:1007800002F5491B04FA02F52844151EA2F10102E4
:10079000F1DC30BD202A04DB203A00FA02F100200F
:1007A00070479140C2F1200320FA03F319439040AF
:1007B0007047202A04DB203A21FA02F0002170471A
:1007C00021FA02F3D040C2F12002914008431946B9
:1007D0007047202A06DBCB17203A41FA02F043EAA1
:1007E000E07306E041FA02F3D040C2F120029140EA
:1007F0000843194670470029A8BF7047401C4900AC
:1008000008BF20F00100704710B4B0FA80FC00FA75
:100810000CF050EA010404BF10BC704749B1CCF1A0
:10082000200421FA04F411FA0CF118BF012121432C
:100830000843A3EB0C01CB1D4FEA00614FEA1020E7
:1008400042BF002010BC704700EBC3501044002989
:10085000A4BF10BC7047401C490008BF20F0010035
:1008600010BC704710B541000CD0C0F3C751962999
:1008700008DC7E2909DC06DB410204D000F00040E0
:1008800040F07E5010BD002010BDC1F19604C4F1AF
:10089000200100FA01F1E040FFF7ADFFA04010BDDC
:1008A00010B5141E73F1000408DA401C41F1000178
:1008B00092185B411A4301D120F0010010BD2DE9CF
:1008C000F04D92469B4611B1B1FA81F202E0B0FAC6
:1008D00080F220329046FFF75DFF04460F4640EA63
:1008E0000A0041EA0B0153465A46084313D0114609
:1008F00053EA010019D0C8F140025046FFF759FFF2
:1009000005460E46504659464246FFF743FF084308
:1009100005D0012004E020463946BDE8F08D0020D6
:10092000054346EAE0762C4337430A986305E40A18
:10093000A0EB08000022FD0A44EA47540A3002D521
:1009400000200146E9E7010510196941DDE9084584
:1009500000196941BDE8F04DA2E7C1F30A52C1F3A5
:10096000130140F2FF3341F480119A4202DA002071
:100970000146704740F233439A42A2F2334202DC0E
:100980005242FFF716BFFFF705BF0000064C074DA8
:1009900006E0E06840F0010394E80700984710344F
:1009A000AC42F6D3FFF706FC98AD0208B8AD0208DA
:1009B00070B58C1810F8015B15F0070301D110F821
:1009C000013B2A1106D110F8012B03E010F8016B4E
:1009D00001F8016B5B1EF9D12B0705D40023521ED1
:1009E0000DD401F8013BFAE710F8013BCB1A921C39
:1009F00003E013F8015B01F8015B521EF9D5A14237
:100A0000D8D3002070BD00002DE9F05F0446884671
:100A10004FF00009474620680AF038F982462068FE
:100A20000AF00CF98346BAF1000F02D1BBF1000FB6
:100A30006ED02068C06800F0007000B3607E0128AE
:100A40001DD1207E01281AD101270FE031488145B0
:100A50000AD3A06D40F01000A065E06D40F00100E9
:100A6000E0650120BDE8F09F09F1010920680068F8
:100A7000C0F380100028E9D0402021680860022FD0
:100A800010D020680AF002F960B120680AF0EAF894
:100A900040B920688168204A114041F0100181600E
:100AA00000BF00BF012F10D020680AF0C7F860B166
:100AB00020680AF0D7F840B920688168164A1140CA
:100AC00041F02001816000BF00BF022F03D0032F3F
:100AD00003D10C2503E0082501E0042500BF00BF79
:100AE00007F0B2FC06460EE007F0AEFC801B0528BE
:100AF00009D9A06D40F01000A065E06D40F0010044
:100B0000E0650120AEE72068806828400028EBD12E
:100B10000020A7E7000040A3C0FFFF7F70B5054697
:100B2000AC6AA06D00F0500098BBA06D40F400705E
:100B3000A0652068006800F00800A8B120680AF0ED
:100B4000AFF810B32068C06800F40050E8B9A06D99
:100B500020F48070A065A06D00F48050A8B9A06D4D
:100B600040F00100A06510E02068C06800F00200BD
:100B700058B9A06D20F48070A065A06D00F480507D
:100B800018B9A06D40F00100A065204606F098FC61
:100B90000CE0FFE7A06D00F0100018B1204606F051
:100BA000DFFC03E0206D416B2846884770BD70B5BF
:100BB0000546AC6AA06D40F04000A065E06D40F0D5
:100BC0000400E065204606F0CBFC70BD70B504461D
:100BD000A56A284606F09CFC70BD000070B504466E
:100BE00020680AF03FF8064620680AF040F870B323
:100BF0006EBB2068806800F00D0001280AD12068D3
:100C00008168174A1140891C816000BF0320216858
:100C1000086009E0A06D40F01000A065E06D40F0B4
:100C20000100E065012070BD07F00EFC05460FE0F5
:100C300007F00AFC401B02280AD9A06D40F0100002
:100C4000A065E06D40F00100E0650120EBE705E004
:100C50002068806800F001000028E9D10020E2E768
:100C6000C0FFFF7F70B5044620680AF000F888BB1B
:100C7000206880681849084048B1A06D40F0100015
:100C8000A065E06D40F00100E065012070BD2068C6
:100C900009F0B0FF07F0D8FB054615E0206809F021
:100CA000E6FF10B9206809F0A5FF07F0CDFB401B57
:100CB000022809D9A06D40F01000A065E06D40F059
:100CC0000100E0650120E1E72068006800F0010014
:100CD0000028E3D00020D9E73F0000802DED068BEF
:100CE00082B00020019000BF1B4806F029F8642163
:100CF000194805F089FF0121174805F065FF80B20A
:100D00000190154806F0A0F8BDF8040000EE100AA6
:100D1000B8EE400A10EE100AFFF7C7FC41EC1A0BC0
:100D20009FED0E0B53EC102BFFF7C4FB41EC190B9E
:100D30009FED0C0B53EC102BFFF7BCFB41EC180B99
:100D4000FFF7F6FC00EE100A084880ED000A4FF4A9
:100D50007A700FF0F6FDC7E734070020B4D934E706
:100D60000C684A3F0000000000002440E002002020
:100D70002DED0E8B88B09FEDD20A8DED070A9FED09
:100D8000D00A8DED060A9FEDCE0A8DED050A9FED86
:100D9000CC0A8DED040A9FEDCA0A8DED030A9FED82
:100DA000C80A8DED020A00BF4FF0FF31C548006848
:100DB00012F01EF8C4480078012828D10020002134
:100DC0001CE0C24A32F8102000EE102AB8EE400AA9
:100DD000BF4A02EB810282ED000ABC4B421C33F891
:100DE000122000EE102AB8EE400ABA4A02EB810245
:100DF00082ED000A821C90B24A1C91B2B0F5007FCD
:100E0000DFDBB5480088401CB34908802BE0AE48C2
:100E10000078022827D1000200211CE0AB4A32F8FA
:100E2000102000EE102AB8EE400AA94A02EB810217
:100E300082ED000AA54B421C33F8122000EE102A66
:100E4000B8EE400AA34A02EB810282ED000A821C3E
:100E500090B24A1C91B2B0F5806FDFDB9F480088EA
:100E6000401C9E4908806A464FF4807198480FF0F4
:100E700063F94FF48073964A114699480EF0BAFF11
:100E8000002000210DE0924A02EB800292ED000A60
:100E9000944A02EB810282ED000A021D90B24A1CC4
:100EA00091B2FF28EFDD40238E4A11468E480EF0A6
:100EB000A1FF40238B4A11468C480EF09BFF07AAE6
:100EC000402188480FF038F906AA4FF48071814814
:100ED0000FF032F901AB03AA402182480FF043F82A
:100EE00001AB05AA4FF480717A480FF03CF801ABD2
:100EF00002AA40217B480FF0C7F801AB04AA4FF4C7
:100F0000807174480FF0C0F800231A4607A978488A
:100F1000006811F075FD00231A4606A9754800689F
:100F200011F06EFD74480068FFF7BFFB41EC190B30
:100F300072480068FFF7B9FB41EC1B0B0398FFF701
:100F4000B4FB41EC1E0B9FED6E0B53EC102BFFF727
:100F5000B1FA41EC1D0B9FED6C0B53EC102BFFF71E
:100F60001BFB41EC1C0B53EC1B2BFFF7A3FA41ECD2
:100F70001A0B53EC192BFFF7F6F941EC180BFFF79E
:100F8000D7FB634908605C480068FFF78EFB41ECC3
:100F9000190B5A480068FFF788FB41EC1B0B0298BD
:100FA000FFF783FB41EC1E0B9FED550B53EC102B11
:100FB000FFF780FA41EC1D0B9FED530B53EC102B08
:100FC000FFF7EAFA41EC1C0B53EC1B2BFFF772FA0C
:100FD00041EC1A0B53EC192BFFF7C5F941EC180B38
:100FE000FFF7A6FB4B4908604B48D0ED000A9FED88
:100FF0004B1A80EE810A4648D0ED000A80EE801A36
:1010000080ED001A4448D0ED000A9FED441A80EEAE
:10101000810A0846D0ED000A80EE801A80ED001AA1
:1010200000231A4605A93E48006811F0E9FC002398
:101030001A4604A93B48006811F0E2FC9DED000A45
:10104000DFED390AB4EEE00AF1EE10FA03DD01201B
:101050003649087002E0002034490870344890EDA9
:10106000000ADDED060A334890ED001A00EE810A11
:1010700010EE101A0846FFF718FB41EC180B9FED15
:101080002E0B53EC102BFFF73BFB03D200202C4917
:10109000087002E001202A4908700E4810F05AFE3C
:1010A00000231A4619462748006811F0A9FC0023BE
:1010B0001A4619462448006811F0A2FC74E60000A4
:1010C0000000000098000020AE030020F807002078
:1010D000F80F0020F8130020B0030020B203002016
:1010E00024190020F8170020F818002050190020BB
:1010F0003801002044010020D8010020D401002044
:10110000B4D934E70C684A3F393939393939E93FBC
:10111000DC010020E0010020D001002000007A4422
:10112000680100206C01002000007A45B401002015
:1011300014020020100200209A99999999990D4063
:101140000C0200209C000020A400002000BFFEE74D
:1011500000BF00BF6D48007800BB4FF400614FF046
:10116000904007F05FF928B969480078401C684949
:10117000087013E06648007805280FDD01206549F6
:101180000870002064490870644908706449087058
:10119000644908805E490870634908705B480078BC
:1011A00000BB4FF48071614807F03CF928B96048F2
:1011B0000078401C5E49087014E05D4800780528FE
:1011C00010DD0020534908700120534908700020A9
:1011D00052490870524908705249088054490870B1
:1011E0005149087053480078F8B908214F4807F072
:1011F00019F928B950480078401C4F49087014E08C
:101200004D480078052810DD002042490870424909
:101210000870012041490870002041490870414987
:10122000088045490870404908704248007800BB72
:101230004FF400713D4807F0F5F828B93F480078B1
:10124000401C3E49087014E03C480078052810DD39
:10125000002030490870304908703049087001207A
:101260002F49087000202F490880344908702E4902
:1012700008708021324807F0D5F8E8B9294800887D
:10128000401C284908800846008864283ADB2D481D
:101290000078B8BB00201F4908701F4908701F491B
:1012A00008701F49087028490870012027490870F4
:1012B00000201C49088025E01A48008802281ADD11
:1012C00018480088642816DA2048007898B91D4824
:1012D000007880B900200F4908700F4908700F4945
:1012E00008700F490870012017490870002017493D
:1012F00008700C49088013480078012802D10020AA
:10130000084908800A200FF01CFB23E7AD030020EA
:10131000F4020020FA020020FB020020FC02002060
:10132000FD020020F80200202C03002000040048E9
:10133000F5020020AC030020F6020020F702002096
:1013400000080048AB030020FE020020FF0200203E
:101350002DED0A8B84B0002003909FED930A8DED54
:10136000020A00BF9FED900A10EE104A019000BFE4
:1013700000BF5E218D480EF067FF10EE104A8B48CB
:10138000B0F8C20080B201908848B0F8B20058B9F5
:101390003E2186480EF058FF854880ED000A90ED0A
:1013A000000A844880ED000A8048B0F8B2000128A5
:1013B00026D12046FFF779F941EC1C0B53EC1C2B8E
:1013C0009FED7D0B51EC100BFFF7E6F841EC1A0B8B
:1013D0007B480068FFF769F941EC1B0B53EC1A2BB3
:1013E000FFF768F841EC190B9FED760B53EC102BCF
:1013F000FEF7B9FF41EC180BFFF79AF96D49086049
:101400006A48B0F8B200022805D1704890ED000A91
:10141000684880ED000A6548B0F8B200032830D172
:101420002046FFF742F941EC1C0B53EC1C2B9FEDBF
:10143000620B51EC100BFFF7AFF841EC1A0BBDF843
:10144000040000EB8000624A02EBC00090ED050A48
:1014500010EE101A0846FFF728F941EC1B0B53EC6D
:101460001A2BFFF727F841EC190B9FED560B53ECA5
:10147000102BFEF778FF41EC180BFFF759F94D4997
:1014800008604A48B0F8B20004286FD12046FFF740
:101490000CF941EC1A0B53EC1A2B9FED470B51EC56
:1014A000100BFFF779F841EC190B9FED4A0B53EC49
:1014B000102BFEF758FF41EC180BFFF739F93D49A7
:1014C0000860084690ED000ADFED440A60EE200A4D
:1014D000434890ED001A434890ED000A00EE810A5F
:1014E000BCEEC00A8DED030A002211463E48039B64
:1014F00006F072FB01200FF024FA2046FFF7D5F822
:1015000041EC1A0B53EC1A2B9FED2B0B51EC100BEB
:10151000FFF742F841EC190B9FED2A0B53EC102B0F
:10152000FEF721FF41EC180BFFF702F92149086093
:10153000084690ED000ADFED290A60EE200A2848EF
:1015400090ED001A274890ED000A00EE810ABCEEEB
:10155000C00A8DED030A002211462348039B06F0C2
:101560003BFB13200FF0EDF903E7FFE7114890ED87
:10157000000ADFED1A0A60EE200A194890ED001A01
:10158000184890ED000A00EE810ABCEEC00A8DED0D
:10159000030A002211461448039B06F01DFB642039
:1015A0000FF0CFF9E5E60000000000002C1A002043
:1015B000D0020020F80100200000000000003040B0
:1015C000C80100200000000000001040EC000020D6
:1015D000D8340020000000000000244000004C43EC
:1015E000D4020020D8020020E407002010B50248F1
:1015F00006F092FB10BD00009C07002010B50248C9
:1016000006F08AFB10BD0000D445002010B502484A
:1016100006F082FB10BD00008C45002010B502488A
:1016200006F07AFB10BD0000B444002010B502485B
:1016300006F072FB10BD00006C44002010B502489B
:1016400006F06AFB10BD0000FC44002010B5024803
:1016500006F062FB10BD00004445002010B50248B2
:1016600006F05AFB10BD00002444002010B50248CB
:1016700006F052FB10BD0000DC43002030B590F8AE
:10168000444004F01C050124AC40056C6C60046807
:1016900063608468102C04D10468A2600468E1606F
:1016A00003E00468A1600468E26030BD2DED028BA8
:1016B00084B0002002909FEDFE0A8DED010A00BF6C
:1016C00003A8FC4991ED000A0EF0B3FDBDF80C0033
:1016D00000B2F9490880BDF80E0000B24880F74812
:1016E0000078888203A8F64991ED000A0EF0A1FD6A
:1016F000BDF80C0000B2F0498885BDF80E0000B2BC
:10170000C88503A8EF4991ED000A0EF092FDBDF8DF
:101710000C0000B2E8490886BDF80E0000B2488609
:1017200003A8E94991ED000A0EF083FDBDF80C0015
:1017300000B2E1498886BDF80E0000B2C886E348D1
:10174000008800B28887E14801680079020442EA13
:10175000114000B2D849C887DD48008800B2A1F81E
:10176000400003A8DB4991ED000A0EF062FDBDF8D0
:101770000C0000B2D049A1F84800BDF80E0000B23C
:10178000A1F84A00D4480078A1F85C0003A8D34926
:1017900091ED000A0EF04DFDBDF80C0000B2C649F7
:1017A000A1F86E00BDF80E0000B2A1F8700003A809
:1017B000CB4991ED000A0EF03CFDBDF80C0000B2E3
:1017C000BD49A1F87400BDF80E0000B2A1F8760082
:1017D000C348D0ED000AC34890ED001A70EEC10A6C
:1017E000B0EE600A03A80EF024FDBDF80C0000B2B4
:1017F000B149A1F87800BDF80E0000B2A1F87A0056
:10180000B948008800B2A1F88C00B848008800B23E
:10181000A1F88E00B6480078A1F8920003A8B54957
:1018200091ED000A0EF005FDBDF80C0000B2A249D2
:10183000A1F89400BDF80E0000B2A1F8960003A82C
:10184000AD4991ED000A0EF0F4FCBDF80C0000B2B9
:101850009949A1F89800BDF80E0000B2A1F89A00CD
:10186000A648D0E90020A649D1E90031D21A884122
:1018700012D2A348D0E90050A04C12CC6A1A60EBF7
:1018800004011046FEF7F7FE08EE100A03A8B0EEBA
:10189000480A0EF0CEFC04E003A89FED850A0EF086
:1018A000C8FCBDF80C0000B28349A1F89C00BDF84B
:1018B0000E0000B2A1F89E009248008800B2A1F884
:1018C000A0009148008800B2A1F8A2008F480078DB
:1018D000A1F8A4008E480078A1F8A6008D480088E1
:1018E00000B2A1F8AE0003A88B4991ED000A0EF0FA
:1018F000A0FCBDF80C0000B26F49A1F8C400BDF80F
:101900000E0000B2A1F8C60003A8844991ED000AB8
:101910000EF08FFCBDF80C0000B26749A1F8CE00B4
:10192000BDF80E0000B2A1F8D00003A8B1EE060A7F
:101930000EF07FFCBDF80C0000B25F49A1F8D200A8
:10194000BDF80E0000B2A1F8D4007548008800B2BE
:10195000A1F8F00003A8734991ED000A0EF069FCAC
:10196000BDF80C0000B25449A1F8F400BDF80E0017
:1019700000B2A1F8F60003A86B4991ED000A0EF041
:1019800058FCBDF80C0000B24B49A1F8F800BDF8B6
:101990000E0000B2A1F8FA0003A8644991ED000A14
:1019A0000EF047FCBDF80C0000B24349A1F8FC0062
:1019B000BDF80E0000B2A1F8FE005A48D0ED000AB2
:1019C0005B4890ED001A70EEC10AB0EE600A03A801
:1019D0000EF02FFCBDF80C0000B23749A1F8000151
:1019E000BDF80E0000B2A1F802014F48D0ED000A88
:1019F000504890ED001A70EEC10AB0EE600A03A8DC
:101A00000EF017FCBDF80C0000B22B49A1F8040140
:101A1000BDF80E0000B2A1F806014448D0ED000A5E
:101A2000454890ED001A70EEC10AB0EE600A03A8B6
:101A30000EF0FFFBBDF80C0000B21F49A1F8080131
:101A4000BDF80E0000B2A1F80A0103A83B4991EDD0
:101A5000000A0EF0EEFBBDF80C0000B21649A1F82A
:101A60001001BDF80E0000B2A1F812013448007850
:101A7000002869D1002494E104EB840080009030B8
:101A80000D4911F8100004EB84012E4A02F83100D0
:101A900004EB840080009130074911F8100004EB3A
:101AA000840102EBC101487004EB840080004CE02B
:101AB00000000000A00100202C1A0020B40100202A
:101AC000C4010020C8010020CC01002088020020B1
:101AD00098020020EC0000200C02002020020020D0
:101AE0007C01002078010020780200207A0200208A
:101AF0003202002058020020480200206802002024
:101B000060020020AE020020B0020020A3020020EC
:101B1000A202002016030020E00200204400002062
:101B20009E010020DC010020E4010020EC010020E7
:101B3000E0010020E8010020F001002078030020EF
:101B40002D030020D83400202EE19230FE4931F8D8
:101B5000100004EB840102EBC101888004EB8400D7
:101B600080009330F84911F8100004EB840102EB77
:101B7000C101887004EB840080009430F24911F8B0
:101B8000100004EB840102EBC101887104EB8400B6
:101B900080009530EC4931F8100004EB840102EB31
:101BA000C101088104EB840189009631E64A02EB09
:101BB000410000210EF048FB04EB8400E34901EBF7
:101BC000C00080ED030A04EB840189009831DE4AED
:101BD00002EB410000210EF037FB04EB8400DB49EF
:101BE00001EBC00080ED040A04EB840001EBC000AF
:101BF000807908BB04EB840001EBC00090ED050A7E
:101C0000BDEEC00A10EE100A01B204EB84008000A1
:101C10009A30CD4A22F8101004EB8400CB4901EB36
:101C2000C00090ED050ABDEEC00A10EE100A00B229
:101C30006100C74A22F8110004EB8400C34901EB9C
:101C4000C0008079012806D004EB840001EBC000BD
:101C5000807904282DD104EB8400BC4901EBC0003D
:101C6000D0ED050AB0EE600A03A80EF0E2FABDF866
:101C70000C0001B204EB840080009A30B24A22F8D2
:101C80001010BDF80E0001B204EB840080009B3000
:101C900022F81010BDF80C0000B26100AC4A22F826
:101CA0001100BDF80E0000B2012101EB440122F841
:101CB000110004EB8400A54901EBC00080790228E3
:101CC00006D004EB840001EBC0008079032822D108
:101CD00004EB84009D4901EBC00090ED050ABDEEC8
:101CE000C00A10EE100A01B204EB840080009A30A2
:101CF000954A22F8101004EB8400944901EBC000CF
:101D000090ED050ABDEEC00A10EE100A00B26100A7
:101D10008F4A22F8110004EB840189009C318A4A21
:101D200002EB410000210EF08FFA04EB840087499A
:101D300001EBC00080ED080A04EB840189009E31AC
:101D4000814A02EB410000210EF07EFA04EB840090
:101D50007E4901EBC00080ED090A04EB8401890093
:101D6000A031794A02EB410000210EF06DFA04EB3C
:101D70008400764901EBC00080ED060A04EB840183
:101D80008900A231704A02EB410000210EF05CFA9A
:101D900004EB84006D4901EBC00080ED070A601C74
:101DA00084B2282CFFF668AE6748B0F9D60040F23E
:101DB000E111884212D100206349A1F8D60010F049
:101DC000B3F9614810F092FC02900FF0ADF910F0F9
:101DD000D5F900200EF098FC04F064FB5A48B0F9E5
:101DE000D6005C4988427DD100205749A1F8D60031
:101DF00003A8594991ED000A0EF01BFABDF80C003A
:101E000000B251494883BDF80E0000B2888303A890
:101E1000524991ED000A0EF00CFABDF80C0000B228
:101E20004949C883BDF80E0000B2088403A84C4994
:101E300091ED000A0EF0FDF9BDF80C0000B2424928
:101E40004884BDF80E0000B2888403A8454909788B
:101E500000EE101AB8EE400A0EF0EBF9BDF80C00D7
:101E600000B23949C884BDF80E0000B2088503A845
:101E70003D4991ED000A0EF0DCF9BDF80C0000B20E
:101E80003149A1F86600BDF80E0000B2A1F8680063
:101E900003A8364991ED000A0EF0CBF9BDF80C000D
:101EA00000B22949A1F86A00BDF80E0000B2A1F8FD
:101EB0006C000846B0F880002D49088003A82D4921
:101EC00091ED000A0EF0B5F9BDF80C0000B21E4904
:101ED000A1F8B400BDF80E0000B2A1F8B60003A846
:101EE000254900E01DE091ED000A0EF0A2F9BDF8D1
:101EF0000C0000B21449A1F8B800BDF80E0000B201
:101F0000A1F8BA0010F010F90F4810F0EFFB0290A2
:101F10000FF00AF910F032F900200EF0F5FB04F092
:101F2000C1FA0948B0F9D8001449884207D01448CA
:101F3000007800287DD1134800880128FAD10020BC
:101F40000149A1F8D8001FE02C1A0020D834002045
:101F50008C210020CDABFFFFD0010020D401002058
:101F6000D8010020C001002010020020140200202F
:101F700052030020D4020020D8020020BADCFFFF68
:101F80002D0300204E03002000BF28E00D2819D0AB
:101F90000E2817D00F2815D0102813D0112811D0D3
:101FA00012280FD033280DD034280BD0352809D073
:101FB000362807D05A2805D05B2803D05C2801D0EA
:101FC0005D2806D1434931F81010424A22F810101A
:101FD00003E000213F4A22F81010411C88B2B0F5FE
:101FE0006C7FD3DB0A203B49A1F8C80044F620608F
:101FF000A1F8DA0003A8B3EE060A0EF01AF9BDF84C
:102000000C0000B23349A1F8DC00BDF80E0000B2AC
:10201000A1F8DE0003A8B3EE0A0A0EF00AF9BDF833
:102020000C0000B22B49A1F8E000BDF80E0000B290
:1020300000E04AE0A1F8E20003A89FED270A0EF0B5
:10204000F8F8BDF80C0000B22249A1F88200BDF8F2
:102050000E0000B2A1F88400BDF80C0000B2A1F897
:102060008800BDF80E0000B2A1F88A00BDF80C008F
:1020700000B2A1F8CA00BDF80E0000B2A1F8CC0071
:102080006420A1F8EE00084610F030FB029000BF7B
:1020900000BF00BF00BF00BFBFF34F8F00BF00BF36
:1020A00000BF0E48006800F4E0600D490843001DC1
:1020B0000A49086000BF00BF00BFBFF34F8F00BFD9
:1020C00000BF00BF00BF00BFFDE70A200EF039FCD3
:1020D000FFF7F6BA2C1A00200000E1470CED00E0F3
:1020E0000000FA05704700002DED0E8B84B09FEDC7
:1020F0005E0A8DED030A9FED5C0A8DED020A9FEDED
:102100005A0A8DED010A00BF4FF0FF3157480068B1
:1021100010F06EFE40225649084608F0DBFC4023D2
:10212000534A114653480DF065FE03AA402150481A
:102130000EF002F86B4602AA40214D480DF013FF45
:102140006B4601AA40214A480DF09EFF00231A4623
:1021500003A94948006810F053FC48480068FEF79E
:10216000A4FA41EC190B46480068FEF79EFA41ECD0
:102170001B0B0298FEF799FA41EC1E0B9FED410BE9
:1021800053EC102BFEF796F941EC1D0B9FED3F0B26
:1021900053EC102BFEF700FA41EC1C0B53EC1B2BFD
:1021A000FEF788F941EC1A0B53EC192BFEF7DBF81C
:1021B00041EC180BFEF7BCFA364908602F4800685E
:1021C000FEF773FA41EC190B2D480068FEF76DFA23
:1021D00041EC1B0B0198FEF768FA41EC1E0B9FEDDA
:1021E000290B53EC102BFEF765F941EC1D0B9FED0D
:1021F000270B53EC102BFEF7CFF941EC1C0B53ECE3
:102200001B2BFEF757F941EC1A0B53EC192BFEF779
:10221000AAF841EC180BFEF78BFA1F4908601F481B
:10222000D0ED000A9FED1E1A80EE810A1948D0ED0C
:10223000000A80EE801A80ED001A1848D0ED000ADE
:102240009FED171A80EE810A0846D0ED000A80EE55
:10225000801A80ED001A00231A46194611480068BA
:1022600010F0CEFB50E7000000000000A0000020AE
:10227000F8170020A819002040010020D8010020F4
:10228000D4010020B4D934E70C684A3F39393939D0
:102290003939E93FEC010020F0010020D001002095
:1022A00000007A44AC0000208EB00122D1034FF030
:1022B000904006F0C3F80FF0D5FA01200FF0C2FAF3
:1022C0000DF096FF0FF03EFBFE48B0F9DA000490E7
:1022D00000EBD070401003900EF033FB01200EF0A5
:1022E00013FA00BFF8480078012808D100200FF049
:1022F000A9FA0EF093FA0FF025FB03F07CBFF34828
:10230000007801283FD1F248007801280BD0F0482E
:102310000078022807D0EE480078032803D0EC4864
:10232000007804282FD100200FF08CFA00210846F5
:102330000FF002FB0123E74806C8E7A00FF0A8FB57
:102340000123E74806C8E7A00FF0A2FB0F210020F9
:102350000FF0F2FA0123DF4806C8E3A00FF098FB64
:102360001E2100200FF0E8FA0123DA4806C8E0A099
:102370000FF08EFB0123DA4806C8DEA00FF088FBC1
:102380000FF0E0FAB9E7D1480078012813D1D0481E
:10239000007805280FD100200FF054FA0F210020FB
:1023A0000FF0CAFA0123CB4806C8D3A00FF070FB88
:1023B0000FF0C8FAA1E7D2480088012809D1D14816
:1023C000007818B90920D049087002E00620CE49EB
:1023D0000870CB480088022809D1CA48007818B98B
:1023E0000120C949087002E00820C7490870C448A4
:1023F0000088032809D1C348007818B92820C249A9
:10240000087002E00220C0490870BD480088042816
:1024100009D1BC48007818B90220BB49087002E015
:102420000420B9490870B6480088052801D1B6498A
:102430000870B3480088062802D10320B24908700A
:10244000AF480088072802D10320AF490870AF4881
:102450000078012812D1AE48008800280EDDAD4872
:10246000007858B9AA480088401EA9490880002071
:10247000A6490870A8490870A8490870A8480078BB
:10248000012814D1A24800889F49097888420EDAB1
:10249000A048007858B99E480088401C9C49088094
:1024A00000209F4908709C4908709C4908709D480D
:1024B0000078012836D192480088002832DD9648FD
:1024C000007878BB9348007860BB8D48008803286B
:1024D00011D18F48008870B193480088002804DD2E
:1024E00091480088401E9049088000208D4908705E
:1024F0008A49087016E08D480088002804DD8B4862
:102500000088401E8949088089488849098830F830
:1025100011007B4908800020824908707C490880AE
:102520007E49087083480078012839D17A480078BC
:10253000B0BB7848007898BB71480088032815D153
:102540007348008890B178480088282808DA7648CF
:1025500000880C2804DA74480088401C72490880FE
:102560000020744908706D49087019E072480088AD
:10257000401E6E490988884204DD6C480088401C72
:102580006A4908806A486949098830F811005C493D
:1025900008800020674908705D4908805F4908701D
:1025A0005D48007801280ED15948008858B1594833
:1025B000007808B9012000E000205649087000208A
:1025C0005549087014E05D480078012810D1504842
:1025D000008868B94B48007808B9012000E0002065
:1025E0004849087000205549087001205449087076
:1025F00046480078012813D14648007801280FD1B9
:1026000046480078002805DD44480078401E4349CC
:10261000087002E000204149087000203B49087022
:102620003F480078012813D13A48007801280FD19B
:102630003A480078012805DA38480078401C3749C4
:10264000087002E001203549087000203449087004
:102650003A48007801280ED12D48008858B10EF074
:102660004FFF0020354908702B4908702549087034
:1026700001203349087033480088012841F0158053
:102680001F48008801281CD1214800880028FAD161
:102690000FF0D8F8002108460FF04EF9012310483A
:1026A00006C829A00FF0F4F92848007801287AD14B
:1026B0002748007820B90F2100200FF03DF949E0AC
:1026C00059E01CE22C1A0020E8020020140300202C
:1026D000D103002018000020CEE1EDEEE200000062
:1026E000200000202D000000EBE5EDE8E5000000F3
:1026F000CFCE00002E2E2E00D3D1CFC5D8CDCE0008
:1027000002030020540300203C030020FA020020B2
:10271000060300202D030020FE0200202E030020CF
:10272000FB020020FC020020040300200003002024
:10273000283D0020FD0200204A030020FF02002067
:10274000AB0300201C03002049435000B4010020CB
:10275000340300200123FE4806C8FEA00FF098F9BC
:102760001E2100200FF0E8F80123F94806C8FBA05D
:102770000FF08EF905E00123FA4806C8FAA00FF021
:1027800087F9FA480078012803D1002137200FF09B
:102790006AFA00213C200FF066FA2B213A200FF054
:1027A000EBF9A7E1FFE7F1480078F0B900200FF05E
:1027B00049F8002108460FF0BFF80123E94806C890
:1027C000AFF27C000FF064F900211C200FF0B4F888
:1027D00000213C200FF047FA2B213A200FF0CCF9D2
:1027E0000F2100200FF0A8F825E0E048007801282C
:1027F00021D100200FF026F8002108460FF09CF8A8
:102800000123D84806C8AFF2C0000FF041F90021FB
:102810001C200FF091F8002137200FF024FA00213E
:102820003C200FF020FA2B213A200FF0A5F90F21C0
:1028300000200FF081F8CE48008801281FD1122215
:10284000CCA106A8FDF783FD122106A80FF036F9EA
:10285000202100200FF070F8CB480068FDF725FF1D
:10286000CDE90201C9A2CDE900014021C9480CF01F
:1028700095FD0123BB4806C8C6480FF009F9BC48BE
:10288000008802281FD11122C3A106A8FDF75FFD11
:10289000112106A80FF012F9202100200FF04CF8AA
:1028A000C2480068FDF701FFCDE90201B7A2CDE9FA
:1028B00000014021B7480CF071FD0123A94806C86A
:1028C000B4480FF0E5F8AA48008803281FD1142265
:1028D000B7A106A8FDF73BFD142106A80FF0EEF8FE
:1028E000202100200FF028F8B7480068FDF7DDFE32
:1028F000CDE90201A5A2CDE900014021A5480CF0D7
:102900004DFD0123974806C8A2480FF0C1F898482A
:10291000008804281FD11422ACA106A8FDF717FDDA
:10292000142106A80FF0CAF8202100200FF004F8A7
:10293000AD480068FDF7B9FECDE9020193A2CDE9EB
:102940000001402193480CF029FD0123854806C869
:1029500090480FF09DF88648008805281FD117225F
:10296000A2A106A8FDF7F3FC172106A80FF0A6F810
:10297000202100200EF0E0FFA2480068FDF795FE40
:10298000CDE9020181A2CDE90001402181480CF08E
:1029900005FD0123734806C87E480FF079F8744896
:1029A000008806281FD1142297A106A8FDF7CFFCA6
:1029B000142106A80FF082F8202100200EF0BCFFA1
:1029C00098480068FDF771FECDE902016FA2CDE9DC
:1029D000000140216F480CF0E1FC0123614806C86A
:1029E0006C480FF055F862480088072828D1142257
:1029F0008DA106A8FDF7ABFC142106A80FF05EF828
:102A0000202100200EF098FF774890ED000A8C48B6
:102A1000D0ED000A30EE600A8DED010A0198FDF755
:102A200044FECDE9020159A2CDE9000140215948F7
:102A30000CF0B4FC01234B4806C856480FF028F8A8
:102A40004B480088082828D114227EA106A8FDF74B
:102A50007EFC142106A80FF031F81E2100200EF094
:102A60006BFF684890ED000A7C48D0ED000A30EE1C
:102A7000600A8DED010A0198FDF717FECDE902010C
:102A800042A2CDE90001402142480CF087FC01231D
:102A9000344806C83F480EF0FBFF35480088092837
:102AA00028D114226EA106A8FDF751FC142106A816
:102AB0000FF004F8202100200EF03EFF594890ED61
:102AC000000A6D48D0ED000A30EE600A8DED010A73
:102AD0000198FDF7EAFDCDE902012CA2CDE9000144
:102AE00040212C480CF05AFC01231E4806C82948F6
:102AF0000EF0CEFF002061490870614908706148FE
:102B00000088012822D16048008801281ED117487A
:102B10000078D8B900200EF095FE002108460EF08E
:102B20000BFF01230F4806C8AFF2E4300EF0B0FFF0
:102B300000211C200EF000FF002137200FF058F874
:102B400000213C200FF08FF80F219FE0C8E000002B
:102B500018000020CEC1D0DBC2000000C4C0D2D714
:102B6000C8CAC0002000002020000000540300203C
:102B700050030020D1CAC720E2E8E1F0EEF3F1EA09
:102B8000EEF0E5EDE8FF0000C4010020252E303115
:102B900066000000363D0020D1CAC720E2E8E1F01F
:102BA000EEF1EAEEF0EEF1F2E8000000C8010020DC
:102BB000D1CAC720E2E8E1F0EEEFE5F0E5ECE5F997
:102BC000E5EDE8FF00000000CC010020C0ECEFEBD9
:102BD000E8F2F3E4E020E2E8E1F0EEF3F1EAEEF00F
:102BE000E5EDE8FF00000000DC010020C0ECEFEBA9
:102BF000E8F2F3E4E020E2E8E1F0EEF1EAEEF0EEF4
:102C0000F1F2E800E4010020C0ECEFEBE8F2F3E4BD
:102C1000E020E2E8E1F0EEEFE5F0E5ECE5F9E5EDE6
:102C2000E8FF0000EC010020D0E0E7ECE0F520E256
:102C3000E8E1F0EEF3F1EAEEF0E5EDE8FF00000088
:102C4000E0010020D0E0E7ECE0F520E2E8E1F0EE82
:102C5000F1EAEEF0EEF1F2E800000000E8010020F9
:102C6000D0E0E7ECE0F520E2E8E1F0EEEFE5F0E5BA
:102C7000ECE5F9E5EDE8FF00F00100202D03002070
:102C8000AC030020020300200603002000200EF009
:102C900053FE1222AFF2241106A8FDF758FB1221B1
:102CA00006A80EF00BFF202100200EF045FEFE4886
:102CB0000068FDF7FAFCCDE90201FCA2CDE90001B4
:102CC0004021FC480CF06AFB0123FB4806C8F94888
:102CD0000EF0DEFE0020F94908700120F849087066
:102CE000F848008801284DD1F7480088022849D1CA
:102CF000F6480078E8BB00200EF0A4FD002108464D
:102D00000EF01AFE0123EC4806C8AFF2C4500EF0D4
:102D1000BFFE00211C200EF00FFE002137200EF018
:102D200067FF00213C200EF09EFF0F2100200EF0D7
:102D300003FE1122AFF2A01106A8FDF708FB112136
:102D400006A80EF0BBFE202100200EF0F5FDE048A5
:102D50000068FDF7AAFCCDE90201D4A2CDE900018B
:102D60004021D4480CF01AFB0123D34806C8D148AF
:102D700000E007E00EF08CFE0020D0490870012032
:102D8000CF490870CF48008801284DD1CE4800882F
:102D9000032849D1CD480078E8BB00200EF052FD51
:102DA000002108460EF0C8FD0123C34806C8AFF253
:102DB00068600EF06DFE00211C200EF0BDFD0021AC
:102DC00037200EF015FF00213C200EF04CFF0F21A4
:102DD00000200EF0B1FD1422AFF22C2106A8FDF761
:102DE000B6FA142106A80EF069FE202100200EF08C
:102DF000A3FDB8480068FDF758FCCDE90201ABA27D
:102E0000CDE900014021AB480CF0C8FA0123AA48E3
:102E100006C8A84800E007E00EF03AFE0020A749E7
:102E200008700120A6490870A6480088012849D1E9
:102E3000A5480088042845D1A4480078F0BB0020AC
:102E40000EF000FD002108460EF076FD01239A48A1
:102E500006C8AFF20C700EF01BFE002137200EF0FA
:102E6000C7FE00213C200EF0FEFE0F2100200EF0D8
:102E700063FD1822AFF2AC2106A8FDF768FA18210D
:102E800006A80EF01BFE202100200EF055FD9248F2
:102E90000068FDF70AFCCDE9020184A2CDE900013A
:102EA000402184480CF07AFA0123834806C88148FF
:102EB0000EF0EEFD00208149087000E002E00120E4
:102EC0007F4908707F480088012849D17E480088E2
:102ED000052845D17D480078F0BB00200EF0B2FCFB
:102EE000002108460EF028FD0123734806C8AFF202
:102EF000A8700EF0CDFD002137200EF079FE0021E4
:102F00003C200EF0B0FE0F2100200EF015FD172220
:102F1000AFF2283106A8FDF71AFA172106A80EF01D
:102F2000CDFD202100200EF007FD6C480068FDF764
:102F3000BCFBCDE902015DA2CDE9000140215D4865
:102F40000CF02CFA01235C4806C85A480EF0A0FD8C
:102F500000205A49087000E002E00120584908703A
:102F600058480088012849D157480088062845D18B
:102F700056480078F0BB00200EF064FC00210846A3
:102F80000EF0DAFC01234C4806C8AFF644000EF000
:102F90007FFD002137200EF02BFE00213C200EF09B
:102FA00062FE0F2100200EF0C7FC1A22AFF2A831FA
:102FB00006A8FDF7CCF91A2106A80EF07FFD202106
:102FC00000200EF0B9FC46480068FDF76EFBCDE925
:102FD000020136A2CDE90001402136480CF0DEF9AD
:102FE0000123354806C833480EF052FD002033490E
:102FF000087000E002E00120314908703148008883
:10300000012873D13048008807286FD12F480078F5
:10301000F0BB00200EF016FC002108460EF08CFCE0
:103020000123254806C8AFF6E0000EF031FD00216F
:1030300037200EF0DDFD00213C200EF014FE0F21A4
:1030400000200EF079FC1522AFF2244106A8FDF70E
:103050007EF9152106A80EF031FD202100200EF08A
:103060006BFC1D4890ED000A1E48D0ED000A30EEC2
:10307000600A8DED010A0198FDF717FBCDE9020109
:103080000AA2CDE9000140210A480CF087F900E0CE
:103090002CE00123084806C806480EF0F9FC002081
:1030A0000649087001201FE0C4010020252E30339E
:1030B00066000000363D0020200000202D03002087
:1030C000AC0300200203002006030020540300206C
:1030D000C8010020CC010020DC010020E401002018
:1030E000EC010020E0010020FE490870FE48008845
:1030F000012853D1FD48008808284FD1FC480078AA
:10310000E8BB00200EF09EFB002108460EF014FCE8
:103110000123F84806C8AFF6D0100EF0B9FC002124
:1031200037200EF065FD00213C200EF09CFD0F21A4
:1031300000200EF001FC1422AFF2F84106A8FDF7C2
:1031400006F9142106A80EF0B9FC202100200EF08B
:10315000F3FBE94890ED000AE848D0ED000A30EEB4
:10316000600A8DED010A0198FDF79FFACDE9020191
:10317000AFF2C802CDE900014021E14800E00DE0D6
:103180000CF00CF90123DB4806C8DD480EF080FC8A
:103190000020DC4908700120D2490870D24800881C
:1031A00001284FD1D148008809284BD1D048007858
:1031B000F0BB00200EF046FB002108460EF0BCFBE1
:1031C0000123CC4806C8AFF680200EF061FC002138
:1031D00037200EF00DFD0F2100200EF0ADFB172261
:1031E000AFF2845106A8FDF7B2F8172106A80EF039
:1031F00065FC202100200EF09FFBC34890ED000AE3
:10320000C248D0ED000A30EE600A8DED010A019847
:10321000FDF74BFACDE90201AFF27012CDE90001E2
:103220004021B7480CF0BAF80123B24806C800E0C4
:1032300008E0B3480EF02CFC0020B24908700120D1
:10324000A8490870A848008801284ED1A7480088DE
:1032500001284AD1A6480078012846D100200EF066
:10326000F1FA002108460EF067FB0123A14806C8C9
:10327000AFF62C300EF00CFC002132200EF0B8FC22
:10328000002137200EF0EFFC00213C200EF0EBFC7B
:103290000F2100200EF050FB18229DA106A8FDF77B
:1032A00056F8182106A80EF009FC202100200EF087
:1032B00043FB94480078012806D19C480DF0AAF9F8
:1032C00000208849087010E09848B0F9003098A2B2
:1032D00040218B480CF062F80123864806C88848D4
:1032E0000EF0D6FB01207F4908707F480088012836
:1032F00054D17E480088022850D17D4800780128AA
:103300004CD100200EF09EFA002108460EF014FB6E
:103310000123784806C8AFF6D0300EF0B9FB002183
:1033200032200EF065FC002137200EF09CFC0021BD
:103330003C200EF098FC0F2100200EF0FDFA19221F
:103340007CA106A8FDF703F8192106A80EF0B6FB2C
:10335000202100200EF0F0FA6A480078012806D1FA
:103360007B480CF09FFF00205E49087016E078480B
:103370000068FDF79AF9CDE90201AFF2F072CDE9EC
:10338000000140215E480CF009F80123594806C8A5
:103390005B480EF07DFB01205249087052480088BE
:1033A000012854D151480088032850D15048007852
:1033B00001284CD100200EF045FA002108460EF0FD
:1033C000BBFA01234B4806C8AFF684400EF060FB01
:1033D000002132200EF00CFC002137200EF043FCBF
:1033E00000213C200EF03FFC0F2100200EF0A4FA3B
:1033F000112258A106A8FCF7AAFF112106A80EF079
:103400005DFB202100200EF097FA3E48007801284D
:1034100006D155480CF046FF00203249087016E0EE
:1034200051480068FDF741F9CDE90201AFF6A40269
:10343000CDE90001402132480BF0B0FF01232D48B7
:1034400006C82F480EF024FB0120264908702648A4
:103450000088012842D12548008804283ED124480C
:10346000007801283AD100200EF0ECF9002108463E
:103470000EF062FA01231F4806C8AFF634500EF072
:1034800007FB002132200EF0B3FB002137200EF0A5
:10349000EAFB00213C200EF0E6FB0F2100200EF09D
:1034A0004BFA0D2231A106A8FCF751FF0D2106A809
:1034B0000EF004FB202100200EF03EFA2F48037886
:1034C0001BA240210E480BF069FF0123094806C8E2
:1034D0000B480EF0DDFA012002490870024800880E
:1034E00001284DE0AC030020020300200603002069
:1034F0005403002020000020E4010020E801002007
:10350000363D00202D030020EC010020F0010020BA
:10351000CFE0F0E0ECE5F2F020EDE020E3EBE0E2DC
:10352000EDEEEC20ECE5EDFE000000005003002085
:1035300025640000CFF0E5E4F3EFF0E5E4E8F2E520
:10354000EBFCEDE0FF20F3F1F2E0E2EAE000000046
:10355000A8010020C0E2E0F0E8E9EDE0FF20F3F18F
:10356000F2E0E2EAE0000000B0010020D0E5E6E889
:10357000EC20F4E8EBFCF2F0E0000000C0010020D9
:103580004BD1FE480088052847D1FD480078012826
:1035900043D100200EF056F9002108460EF0CCF978
:1035A0000123F84806C8AFF660600EF071FA0021FA
:1035B00032200EF01DFB002137200EF054FB0021BD
:1035C0003C200EF050FB0F2100200EF0B5F9142224
:1035D000EDA106A8FCF7BBFE142106A80EF06EFABA
:1035E000202100200EF0A8F9ED480068FDF75DF8F5
:1035F000CDE90201EBA2CDE900014021EB480BF03F
:10360000CDFE0123DF4806C8E8480EF041FA00204D
:10361000E74908700120E7490870E7480088012859
:1036200043D1D648008806283FD1D54800780128E4
:103630003BD100200EF006F9002108460EF07CF97F
:103640000123D04806C8AFF600700EF021FA002121
:1036500032200EF0CDFA0F2100200EF06DF9142269
:10366000D6A106A8FCF773FE142106A80EF026FAD0
:10367000202100200EF060F9D6480068FDF715F80B
:10368000CDE90201C7A2CDE900014021C7480BF0F6
:1036900085FE0123BB4806C8C4480EF0F9F9002096
:1036A000C34908700120C3490870CB48008801282D
:1036B00070D1C148008802286DD1B0480088002828
:1036C00069D10EF0BFF8002108460EF035F901234C
:1036D000AC4806C8C1A00EF0DBF9C248007801284A
:1036E00000D100E00020BC490988012900D100E098
:1036F00000210840C8B3BC480078B0B90F210020B1
:103700000EF01AF90123B94806C8AFF6B8300EF02A
:10371000BFF91E2100200EF00FF90123B34806C89F
:10372000AFF6C8300EF0B4F906E00123954806C89C
:10373000AFF6CC300EF0ACF991480078012803D1F7
:10374000002137200EF08FFA00213C200EF08BFA7A
:10375000A7480088012803D126213A200EF0BFFA9D
:103760002B213A200EF008FA4FE0FFE7844800785A
:1037700090B900213C200EF076FA9D48008801287F
:1037800003D126213A200EF0AAFA2B213A200EF07E
:10379000F3F915E0D0E33BE0002137200EF063FAA7
:1037A00000213C200EF05FFA91480088012803D1E7
:1037B00026213A200EF093FA2B213A200EF0DCF964
:1037C0000F2100200EF0B8F812228AA106A8FCF7FB
:1037D000BEFD122106A80EF071F9202100200EF086
:1037E000ABF889480068FCF760FFCDE90201AFF251
:1037F0004472CDE9000140216C480BF0CFFD01235C
:10380000604806C869480EF043F90020694908700D
:103810006948008802283ED15848008801283AD1DA
:1038200057480078B8BB00200EF00CF8002108467D
:103830000EF082F80123534806C868A00EF028F95C
:10384000002137200EF0D4F90F2100200EF074F87B
:103850000123664806C86DA00EF01AF92021002049
:103860000EF06AF86A480068FCF71FFFCDE9020114
:1038700068A2CDE9000140214C480BF08FFD0123E7
:10388000404806C849480EF003F90020484908702E
:1038900001204849087048480088022855D1374817
:1038A0000088012851D13648007801284DD10020E8
:1038B0000DF0C8FF002108460EF03EF80123314804
:1038C00006C846A00EF0E4F8002132200EF090F970
:1038D000002137200EF0C7F900213C200EF0C3F97B
:1038E0000F2100200EF028F825224CA106A8FCF795
:1038F0002EFD252106A80EF0E1F8202100200EF073
:103900001BF82B480078012806D14E480CF0CAFC61
:1039100000202849087016E04A480068FCF7C5FEF8
:10392000CDE90201AFF69C52CDE9000140211F48CC
:103930000BF034FD0123134806C81C480EF0A8F80C
:1039400001201C4908700DF0FDFF1B48008802286B
:1039500013D10A48008802280FD1094800780128AD
:103960000BD100200DF06EFF002108460DF0E4FFA2
:103970000123044806C819A066E0A8E00603002059
:103980005403002020000020CAEEFDF4F4E8F6E81D
:10399000E5EDF220F3F1E8EBE5EDE8FF00000000D3
:1039A000D4010020252E303566000000363D002071
:1039B0002D030020AC03002002030020CAEEFDF41A
:1039C000F4E8F6E8E5EDF220F1ECE5F9E5EDE8FFE5
:1039D00000000000D80100201E030020342D3230EA
:1039E000000000000C02002034030020180000201A
:1039F0001C030020D0E0F1F7E5F2EDEEE520E7ED65
:103A0000E0F7E5EDE8E5000020020020D2EEEA0054
:103A1000EC000020252E303266000000CDE8E6EDF7
:103A2000E8E920EFF0E5E4E5EB20E4E8E0EFE0E7AB
:103A3000EEEDE020E4EBFF20EFE5F0E5F1F7E5F255
:103A4000E00000001C0200200EF022F800213220CD
:103A50000EF0CEF8002137200EF005F900213C20B1
:103A60000EF001F90F2100200DF066FF2622FAA1C9
:103A700006A8FCF76CFC262106A80EF01FF82021F2
:103A800000200DF059FFFE480078012806D1FD48BE
:103A90000CF008FC0020FC49087016E0F9480068AA
:103AA000FCF703FECDE90201AFF62072CDE900017B
:103AB0004021F6480BF072FC0123F54806C8F34894
:103AC0000DF0E6FF0120F04908700DF03BFFF148D2
:103AD0000088022854D1F0480088032850D1EF48CC
:103AE000007801284CD100200DF0ACFE00210846E2
:103AF0000DF022FF0123E64806C8AFF220100DF0BA
:103B0000C7FF002132200EF073F8002137200EF09D
:103B1000AAF800213C200EF0A6F80F2100200DF09D
:103B20000BFF2022DEA106A8FCF711FC202106A82D
:103B30000DF0C4FF202100200DF0FEFED0480078DB
:103B4000012806D1DF480CF0ADFB0020CE490870FB
:103B500016E0DC480068FCF7A8FDCDE90201AFF6ED
:103B6000D472CDE900014021C8480BF017FC0123B5
:103B7000C74806C8C5480DF08BFF0120C249087030
:103B8000C4480088022853D1C348008804284FD174
:103B9000C248007801284BD100200DF053FE0021CF
:103BA00008460DF0C9FE0123B94806C8AFF2D4108B
:103BB0000DF06EFF002132200EF01AF800213720A0
:103BC0000EF051F800213C200EF04DF80F2100209E
:103BD0000DF0B2FE1822BCA106A8FCF7B8FB182114
:103BE00006A80DF06BFF202100200DF0A5FEA448D3
:103BF0000078012806D1BB480CF054FB0020A249F4
:103C0000087015E0B7480068FCF74FFDCDE90201E8
:103C1000B54ACDE9000140219C480BF0BFFB0123D0
:103C20009B4806C899480DF033FF0120964908705B
:103C300098480088022853D19748008805284FD11A
:103C40009648007801284BD100200DF0FBFD0021A3
:103C500008460DF071FE01238D4806C8AFF284209E
:103C60000DF016FF002132200DF0C2FF0021372099
:103C70000DF0F9FF00213C200DF0F5FF0F21002091
:103C80000DF05AFE212299A106A8FCF760FB212124
:103C900006A80DF013FF202100200DF04DFE7848FE
:103CA0000078012806D19A480CF0FCFA00207649E9
:103CB000087015E096480068FCF7F7FCCDE90201B2
:103CC000894ACDE90001402170480BF067FB0123D0
:103CD0006F4806C86D480DF0DBFE01206A49087088
:103CE0006C480088022853D16B48008806284FD1C1
:103CF0006A48007801284BD100200DF0A3FD002177
:103D000008460DF019FE0123614806C8AFF23430B1
:103D10000DF0BEFE002132200DF06AFF0021372099
:103D20000DF0A1FF00213C200DF09DFF0F21002090
:103D30000DF002FE192277A106A8FCF708FB192155
:103D400006A80DF0BBFE202100200DF0F5FD4C482B
:103D50000078012806D176480CF0A4FA00204A49E0
:103D6000087015E072480068FCF79FFCCDE902017D
:103D70005D4ACDE90001402144480BF00FFB0123CF
:103D8000434806C841480DF083FE01203E490870B3
:103D90004048008802284DD13F480088072849D173
:103DA0003E480078012845D100200DF04BFD002150
:103DB00008460DF0C1FD0123354806C8AFF2E430D6
:103DC0000DF066FE002132200DF012FF0021372099
:103DD0000DF049FF00213C200DF045FF0F21002090
:103DE0000DF0AAFD1422AFF2604106A8FCF7AFFA6D
:103DF000142106A80DF062FE1E2100200DF09CFD8E
:103E00004C480068FCF751FCCDE90201AFF26C426E
:103E1000CDE9000140211D480BF0C0FA01231C48E8
:103E200006C81A480DF034FE00201549087001201C
:103E3000154908701748008802287DD11648008867
:103E4000082879D115480078012875D100200DF097
:103E5000F9FC0021084670E0C2E5F0F5EDE8E92044
:103E6000EFF0E5E4E5EB20E4E8E0EFE0E7EEEDE09D
:103E700020E4EBFF20EFE5F0E5F1F7E5F2E00000EC
:103E80002D03002018020020AC030020363D002046
:103E9000200000200203002006030020540300201D
:103EA000D3F1F2E0E2EAE020EDE8E6EDFFFF20EFFB
:103EB000F0E5E4F3EFF0E5E4E8F2E5EBFCEDE0FF3C
:103EC00000000000FC010020D3F1F2E0E2EAE02073
:103ED000EDE8E6EDFFFF20E0E2E0F0E8E9EDE0FFED
:103EE00000000000040200208C2B0108D3F1F2E056
:103EF000E2EAE020E2E5F0F5EDFFFF20EFF0E5E497
:103F0000F3EFF0E5E4E8F2E5EBFCEDE0FF000000A4
:103F100000020020D3F1F2E0E2EAE020E2E5F0F571
:103F2000EDFFFF20E0E2E0F0E8E9EDE0FF00000057
:103F3000080200201002002038E00DF0FDFC0123F3
:103F4000FE4806C8AFF26C500DF0A2FD00213220F1
:103F50000DF04EFE0F2100200DF0EEFC1422AFF20A
:103F6000A45106A8FCF7F3F9142106A80DF0A6FD4C
:103F70001E2100200DF0E0FCF1480068FCF795FBE5
:103F8000CDE90201AFF2E452CDE900014021ED4854
:103F90000BF004FA0123E94806C8EA480DF078FD61
:103FA0000020E94908700120E8490870E8480088C5
:103FB000012804D0E6480088022841F06381E548E2
:103FC0000088032875D1E44800880028FAD10DF054
:103FD00039FC002108460DF0AFFC0123D74806C884
:103FE000DEA00DF055FDDA480088022816D1002029
:103FF0000DF028FC002108460DF09EFC0123D84856
:1040000006C8D8A00DF044FD00211C200DF094FC42
:104010000123D34806C8D4A00DF03AFDD348007858
:10402000A0B900213C200DF01EFED14800880128D7
:1040300003D0D0480088012803D126213A200DF072
:104040004EFE2B213A200DF097FD17E0002137207E
:104050000DF009FE00213C200DF005FEC44800884B
:10406000012803D0C3480088012803D126213A2023
:104070000DF035FE2B213A200DF07EFDBE48007874
:1040800001281ED1BD480078A0B90F2100200DF0F5
:1040900053FC0123B24806C8B9A00DF0F9FC1E215B
:1040A00000200DF049FC0123AD4806C8B5A00DF075
:1040B000EFFC83E00123A14806C8B4A00DF0E8FCA2
:1040C0007CE00F2100200DF037FCA1480088022879
:1040D0001AD10922AEA106A8FCF739F9092106A8D0
:1040E0000DF0ECFC202100200DF026FCAB480388ED
:1040F000ABA2402193480BF051F901238F4806C829
:1041000090480DF0C5FC59E01222A7A106A8FCF7C3
:104110001EF9AA48007802461221049006A80DF064
:10412000F1FC202100200DF007FCA448B0F90000AC
:1041300000EB8000A24901EBC0008079012809D082
:104140009E48B0F9000000EB800001EBC0008079D0
:10415000042816D19948B0F9000000EB8000984976
:1041600001EBC00040690190FCF79FFACDE9020124
:10417000AFF26072CDE90001402172480BF00EF9F8
:1041800016E08E48B0F9000000EB80008C4901EB8E
:10419000C00090ED050ABDEEC00A10EE100A00B294
:1041A0000346AFF674424021049066480BF0F6F8DF
:1041B0000123624806C863480DF06AFC6B4800782A
:1041C00000287DD10490FCE362480088032847D191
:1041D000614801880498401C81427DD1794800885B
:1041E000F0BB00200DF02EFB002108460DF0A4FBD3
:1041F00075A240215348049B0BF0D0F801234F488F
:1042000006C850480DF044FC002137200DF0F0FCAA
:104210000498272803D000213C200DF024FD2B21F9
:104220003A200DF0A9FC0F2100200DF085FB122291
:104230005DA106A8FCF78BF8122106A8049A0DF0E0
:1042400061FC202100200DF077FB049800EB80003A
:104250005B4901EBC0008079012809D0049800E097
:104260003AE000EB800001EBC0008079042814D113
:10427000049800EB8000524901EBC00040690190B6
:10428000FCF713FACDE90201AFF67802CDE900019F
:1042900040212C480BF082F815E0049800EB8000D8
:1042A000474901EBC00090ED050ABDEEC00A10EED3
:1042B000100A00B2034645A240210390214800E0C5
:1042C000FEE30BF06BF801231C4806C81D480DF0F7
:1042D000DFFB00201C4908701E480088032877D1A6
:1042E0001D4801880498401C814271D135480088DE
:1042F00001286DD100200DF0A5FA002108460DF02F
:104300001BFB31A240210F48049B0BF047F801230F
:104310000A4806C80B480DF0BBFB002137200DF002
:1043200067FC0498272803D000213C200DF09BFC5B
:1043300026213A200DF0D3FC2B214AE0200000205A
:1043400014020020363D00202D030020AC03002085
:10435000200300200203002006030020343835002B
:1043600018000020D2C8CA00C7D1CA0054030020D8
:104370001C0300201E030020320200203403002012
:10438000CDC5D200D1C2DFC7C800000020000000A8
:10439000D1EEF1F2EEFFEDE8E5000000980200201A
:1043A0002564202525000000C7EDE0F7E5EDE8E5F0
:1043B00020F0E5E3E8F1F2F0E020000052030020F5
:1043C000D834002004030020343835202564000050
:1043D00038E03A200DF0D0FB0F2100200DF0ACFAB0
:1043E0001822F8A106A8FBF7B2FF182106A8049A24
:1043F0000DF088FB202100200DF09EFAF84800788F
:1044000001280BD1049800EB800080009030F54922
:1044100001EB400003900CF0FDF813E0049800EB72
:104420008000F14911F830000346AFF260024021EC
:104430000390EE480AF0B2FF0123ED4806C8EB48AE
:104440000DF026FBEB480088032867D1EA48018875
:104450000498401C814261D1E848008802285DD15F
:1044600000200DF0EFF9002108460DF065FAAFF2DB
:10447000A8024021DD48049B0AF090FF0123DC489C
:1044800006C8DA480DF004FB002137200DF0B0FB20
:104490000498272803D000213C200DF0E4FB2621BE
:1044A0003A200DF01CFC2B213A200DF065FB0F216A
:1044B00000200DF041FA1A22D1A106A8FBF747FF10
:1044C0001A2106A8049A0DF01DFB202100200DF0F2
:1044D00033FAC348007801280BD1049800EB800020
:1044E00080009130BF4901EB400003900CF092F83E
:1044F00014E0049800EB8000BB4901EBC000407859
:104500000346AFF2381240210390B8480AF046FF44
:104510000123B74806C8B5480DF0BAFAB548008877
:10452000032867D1B44801880498401C814261D1B6
:10453000B248008803285DD100200DF083F90021E6
:1045400008460DF0F9F9AFF280124021A748049B0C
:104550000AF024FF0123A64806C8A4480DF098FAE3
:10456000002137200DF044FB0498272803D00021B8
:104570003C200DF078FB26213A200DF0B0FB2B21DA
:104580003A200DF0F9FA0F2100200DF0D5F90F2295
:10459000A2A106A8FBF7DBFE0F2106A8049A0DF0E6
:1045A000B1FA202100200DF0C7F98D4800780128CC
:1045B0000BD1049800EB800080009230894901EB18
:1045C000400003900CF026F814E0049800EB800003
:1045D000854901EBC00080880346AFF210224021DC
:1045E000039082480AF0DAFE0123814806C87F481A
:1045F0000DF04EFA7F480088032867D17E48018875
:104600000498401C814261D17C48008804285DD117
:1046100000200DF017F9002108460DF08DF9AFF2DA
:10462000582240217148049B0AF0B8FE01237048CB
:1046300006C86E480DF02CFA002137200DF0D8FA8C
:104640000498272803D000213C200DF00CFB2621E4
:104650003A200DF044FB2B213A200DF08DFA0F216A
:1046600000200DF069F91C2270A106A8FBF76FFE6F
:104670001C2106A8049A0DF045FA202100200DF017
:104680005BF95748007801280BD1049800EB8000B3
:1046900080009330534901EB400003900BF0BAFFC8
:1046A00014E0049800EB80004F4901EBC0008078D3
:1046B0000346AFF2E822402103904C480AF06EFE18
:1046C00001234B4806C849480DF0E2F949480088E3
:1046D000032874D1484801880498401C81426ED157
:1046E0004648008805286AD100200DF0ABF800216B
:1046F00008460DF021F9AFF2303240213B48049BCF
:104700000AF04CFE01233A4806C838480DF0C0F9BB
:10471000002137200DF06CFA0498272803D00021DF
:104720003C200DF0A0FA26213A200DF0D8FA2B21DA
:104730003A200DF021FA0F2100200DF0FDF82A2279
:1047400042A106A8FBF703FE2A2106A8049A0DF051
:10475000D9F9202100200DF0EFF821480078012838
:104760002ED1049800EB80001F4901EBC0002030DF
:1047700003900BF097FD049800EB80001A4901EBC1
:10478000C00090ED080A8DED030A05A89DED030A0F
:104790000BF04FFDBDF8140001B2049800EB80004F
:1047A00080009C300F4A22F81010BDF8160001B2AC
:1047B000049800EB800080009D3022F8101074E017
:1047C0005AE00000C2EAEBFEF7E8F2FC20EEEFF060
:1047D000EEF120F0E5E3E8F1F2F0E0200000000067
:1047E0002D0300202C1A0020D8340020363D002054
:1047F0002000002002030020060300200403002004
:10480000C0E4F0E5F120F3F1F2F0EEE9F1F2E2E0DC
:1048100020F0E5E3E8F1F2F0E0200000C0E4F0E58C
:10482000F120F0E5E3E8F1F2F0E02000D4F3EDEA66
:10483000F6E8EEEDE0EBFCEDFBE920EAEEE420F03B
:10484000E5E3E8F1F2F0E02000000000CDE8E6ED5D
:10485000FFFF20EFF0E5E4F3EFF0E5E4E8F2E5EB4D
:10486000FCEDE0FF20F3F1F2E0E2EAE020F0E5E326
:10487000E8F1F2F0E0200000049800EB8000FE492F
:1048800001EBC000006A0190FBF70FFFCDE90201C8
:10489000FA4ACDE900014021F9480AF07FFD0123E1
:1048A000F84806C8F6480DF0F3F8F74800880328E2
:1048B00074D1F64801880498401C81426ED1F448B6
:1048C000008806286AD100200CF0BCFF00210846B1
:1048D0000DF032F8AFF210524021E948049B0AF083
:1048E0005DFD0123E74806C8E5480DF0D1F8002139
:1048F00037200DF07DF90498272803D000213C20B3
:104900000DF0B1F926213A200DF0E9F92B213A20DA
:104910000DF032F90F2100200DF00EF82222DDA15A
:1049200006A8FBF714FD222106A8049A0DF0EAF868
:10493000202100200DF000F8DF48007801282ED15A
:10494000049800EB8000CC4901EBC00024300390B8
:104950000BF0A8FC049800EB8000C74901EBC000F5
:1049600090ED090A8DED030A05A89DED030A0BF0F1
:1049700060FCBDF8140001B2049800EB80008000D8
:104980009E30CE4A22F81010BDF8160001B20498ED
:1049900000EB800080009F3022F810101AE004988D
:1049A00000EB8000B44901EBC000406A0190FBF7C6
:1049B0007CFECDE90201B14ACDE900014021B048B9
:1049C00000E07CE30AF0EAFC0123AE4806C8AC48EC
:1049D0000DF05EF8AC480088032872D1AB4801881E
:1049E0000498401C81426CD1A9480088072868D1EE
:1049F00000200CF027FF002108460CF09DFFAFF2CD
:104A0000386240219E48049B0AF0C8FC01239D485F
:104A100006C89B480DF03CF8002137200DF0E8F85F
:104A20000498272803D000213C200DF01CF92621F2
:104A30003A200DF054F92B213A200DF09DF80F216A
:104A400000200CF079FF2B229DA106A8FBF77FFC2C
:104A50002B2106A8049A0DF055F8202100200CF017
:104A60006BFF95480078012831D1049800EB800055
:104A7000814901EBC000183003900BF013FC04983F
:104A800000EB80007C4901EBC00090ED060A8DED43
:104A9000030A05A89DED030A0BF0CBFBBDF814003B
:104AA00001B2049800EB80008000A030834A22F815
:104AB0001010BDF8160001B2049800EB800001E070
:104AC00001E31DE08000A13022F8101018E00498E6
:104AD00000EB8000684901EBC00080690190FBF7A2
:104AE000E4FDCDE90201654ACDE9000140216448B9
:104AF0000AF054FC0123634806C861480CF0C8FF63
:104B000061480088032874D1604801880498401CDB
:104B100081426ED15E48008808286AD100200CF0DE
:104B200091FE002108460CF007FFAFF264724021AD
:104B30005348049B0AF032FC0123524806C85048EF
:104B40000CF0A6FF002137200DF052F8049827281A
:104B500003D000213C200DF086F826213A200DF0EC
:104B6000BEF82B213A200DF007F80F2100200CF0A1
:104B7000E3FE23225DA106A8FBF7E9FB232106A89B
:104B8000049A0CF0BFFF202100200CF0D5FE4A480B
:104B9000007801282ED1049800EB8000364901EB03
:104BA000C0001C3003900BF07DFB049800EB8000EC
:104BB000314901EBC00090ED070A8DED030A05A80D
:104BC0009DED030A0BF035FBBDF8140001B204980B
:104BD00000EB80008000A230384A22F81010BDF8A7
:104BE000160001B2049800EB80008000A33022F888
:104BF000101018E0049800EB80001F4901EBC00082
:104C0000C0690190FBF751FDCDE902011B4ACDE9D6
:104C1000000140211A480AF0C1FB0123194806C8C7
:104C200017480CF035FF18480088032870D1174842
:104C300001880498401C81426AD1154800880928DF
:104C400066D100200CF0FEFD002108460CF074FE39
:104C5000AFF68C0240210A48049B0AF09FFB012317
:104C6000084806C806480CF013FF002137200CF056
:104C7000BFFF049827284CE0D83400208C2B010873
:104C8000363D002020000020020300200603002003
:104C900004030020CDE8E6EDFFFF20E0E2E0F0E8CD
:104CA000E9EDE0FF20F3F1F2E0E2EAE020F0E5E3F5
:104CB000E8F1F2F0E02000002D0300202C1A002083
:104CC000C2E5F0F5EDFFFF20EFF0E5E4F3EFF0E5EE
:104CD000E4E8F2E5EBFCEDE0FF20F3F1F2E0E2EADC
:104CE000E020F0E5E3E8F1F2F0E02000C2E5F0F5C5
:104CF000EDFFFF20E0E2E0F0E8E9EDE0FF20F3F176
:104D0000F2E0E2EAE020F0E5E3E8F1F2F0E0200092
:104D10006AE003D000213C200CF0A5FF26213A20B8
:104D20000CF0DDFF2B213A200CF026FF0F21002094
:104D30000CF002FE1722FEA106A8FBF708FB1721C4
:104D400006A8049A0CF0DEFE202100200CF0F4FDF1
:104D5000FD48007801282ED1049800EB8001FB4823
:104D600000EBC1000C3003900BF09CFA049800EBB0
:104D70008000F64901EBC00090ED030A8DED030AB7
:104D800005A89DED030A0BF054FABDF8140001B21A
:104D9000049800EB800080009630ED4A22F8101055
:104DA000BDF8160001B2049800EB80008000973037
:104DB00022F8101018E0049800EB8000E34901EBA2
:104DC000C000C0680190FBF770FCCDE90201E14A28
:104DD000CDE900014021E0480AF0E0FA0123DF4874
:104DE00006C8DD480CF054FEDD480088032874D165
:104DF000DC4801880498401C81426ED1DA48008862
:104E00000A286AD100200CF01DFD002108460CF094
:104E100093FDAFF64C224021CF48049B0AF0BEFA26
:104E20000123CE4806C8CC480CF032FE00213720C2
:104E30000CF0DEFE0498272803D000213C200CF063
:104E400012FF26213A200CF04AFF2B213A200CF0C9
:104E500093FE0F2100200CF06FFD1722C3A106A8BE
:104E6000FBF775FA172106A8049A0CF04BFE2021D7
:104E700000200CF061FDB448007801282ED1049880
:104E800000EB8001B14800EBC100103003900BF043
:104E900009FA049800EB8000AC4901EBC00090EDEA
:104EA000040A8DED030A05A89DED030A0BF0C1F974
:104EB000BDF8140001B2049800EB80008000983027
:104EC000A34A22F81010BDF8160001B2049800EBB6
:104ED00080008000993022F8101018E0049800EB50
:104EE00080009A4901EBC00000690190FBF7DDFBEF
:104EF000CDE90201974ACDE90001402196480AF028
:104F00004DFA0123954806C893480CF0C1FD94481A
:104F10000088032867D1934801880498401C814287
:104F200061D1914800880B285DD100200CF08AFCEB
:104F3000002108460CF000FDAFF67432402186488F
:104F4000049B0AF02BFA0123844806C882480CF01F
:104F50009FFD002137200CF04BFE0498272803D03A
:104F600000213C200CF07FFE26213A200CF0B7FEF9
:104F70002B213A200CF000FE0F2100200CF0DCFC6D
:104F8000142280A106A8FBF7E2F9142106A8049ACE
:104F90000CF0B8FD202100200CF0CEFC6A4800780F
:104FA00001280BD1049800EB800080009430684900
:104FB00001EB400003900BF02DFB14E0049800EB94
:104FC0008000624901EBC00080790346AFF60442DD
:104FD0004021039060480AF0E1F901235F4806C8C8
:104FE0005D480CF055FD5E480088032863D15D489C
:104FF00001880498401C81425DD15B4800880C28E0
:1050000059D100200CF01EFC002108460CF094FC45
:10501000AFF64C4240215048049B0AF0BFF90123EF
:105020004E4806C84C480CF033FD002137200CF0E8
:10503000DFFD0498272803D000213C200CF013FE4C
:1050400026213A200CF04BFE0F2100200CF074FCBE
:10505000112252A106A8FBF77AF9112106A8049A99
:105060000CF050FD202100200CF066FC3648007842
:1050700001280BD1049800EB800080009530344962
:1050800001EB400003900BF0C5FA14E0049800EB2C
:1050900080002E4901EBC00000890346AFF6D442E0
:1050A000402103902C480AF079F901232B4806C8C7
:1050B00029480CF0EDFC0498401CC0B20490049800
:1050C0002828FFF681A826480088032874D125489F
:1050D0000088012870D13648007801286CD1002062
:1050E0000CF0B0FB002108460CF026FC01231B4805
:1050F00006C8AFF698500CF0CBFC002132200CF023
:1051000077FD002137200CF0AEFD00213C200CF093
:10511000AAFD0F2100200CF00FFC1822254906A83B
:10512000FBF715F9182106A80CF0C8FC202144E073
:10513000CAEEFDF4F4E8F6E8E5EDF220C020F0E573
:10514000E3E8F1F2F0E020002D030020D834002045
:105150002C1A0020A4390108363D00202000002030
:10516000020300200603002004030020CAEEFDF421
:10517000F4E8F6E8E5EDF220C220F0E5E3E8F1F22C
:10518000F0E02000D2E8EF20E4E0EDEDFBF520F0C8
:10519000E5E3E8F1F2F0E02000000000D2E0E9EC05
:1051A000E0F3F220F0E5E3E8F1F2F0E020000000A7
:1051B000540300201035010819E000200CF0BCFB5E
:1051C000FD480078012803D1FC480BF023FA0EE0DB
:1051D000FA48B0F90030AFF60C624021F8480AF006
:1051E000DDF80123F74806C8F5480CF051FCF648F5
:1051F0000088032846D1F5480088022842D1F448A7
:10520000007801283ED100200CF01CFB002108464C
:105210000CF092FB0123EB4806C8AFF6C0600CF01F
:1052200037FC002132200CF0E3FC0F2100200CF0B1
:1052300083FB0822E7A106A8FBF789F8082106A846
:105240000CF03CFC202100200CF076FBDA480078C2
:10525000012804D1E249E3480BF040F912E0E148AB
:105260000068FBF722FACDE90201DFA2CDE90001D7
:105270004021D3480AF092F80123D24806C8D0480A
:105280000CF006FCD0480088042878D1CF4800886C
:10529000F0BB00200CF0D6FA002108460CF04CFBC5
:1052A0000123D34806C8D3A00CF0F2FBC84800780D
:1052B00060B900213C200CF0D6FC26213A200CF0ED
:1052C0000EFD2B213A200CF057FC0FE00021372077
:1052D0000CF0C9FC00213C200CF0C5FC26213A2032
:1052E0000CF0FDFC2B213A200CF046FC0F21002095
:1052F0000CF022FB0123BE4806C8C0A00CF0C8FB7E
:105300000123B04806C8BFA00CF0C2FB102100E08A
:1053100035E02A200CF010FBBB480378AFF654723E
:105320004021A7480AF03AF80123A64806C8A44835
:105330000CF0AEFB202100200CF0FEFA0123AC485B
:1053400006C8B2A00CF0A4FB01239E4806C8ADA07D
:105350000CF09EFB21212A200CF0EEFAAD480378D8
:10536000AFF69872402196480AF018F80123954844
:1053700006C893480CF08CFB0020A749087092489F
:105380000088042876D191480088012872D190487D
:105390000078E8BB00200CF055FA002108460CF01C
:1053A000CBFA0123924806C892A00CF071FB0021B1
:1053B00037200CF01DFC00213C200CF054FC9748D9
:1053C0000088012825D10F2100200CF0B5FA102209
:1053D00093A106A8FAF7BBFF102106A80CF06EFBFC
:1053E0000123784806C893A00CF052FB202100202E
:1053F0000CF0A2FA9048038890A24021704809F06E
:10540000CDFF01236F4806C86D480CF041FB2BE02F
:1054100030E082480088022826D10F2100200CF0BD
:105420008BFA0D2287A106A8FAF791FF0D2106A895
:105430000CF044FB0123634806C886A00CF028FB4F
:10544000202100200CF078FA8448008880B20346BE
:105450007AA2402104905A4809F0A0FF012359483C
:1054600006C857480CF014FB00205349087001206F
:105470006949087054480088042876D15348008848
:10548000022872D152480078C8BB00200CF0DAF92B
:10549000002108460CF050FA0123554806C855A0D3
:1054A0000CF0F6FA002137200CF0A2FB5B480088D4
:1054B000012825D10F2100200CF03EFA102258A11E
:1054C00006A8FAF744FF102106A80CF0F7FA01230A
:1054D0003C4806C862A00CF0DBFA202100200CF04A
:1054E0002BFA6048038855A24021354809F056FF41
:1054F0000123344806C832480CF0CAFA2FE034E0E1
:105500004648008802282AD10F2100200CF014FA06
:105510000D224CA106A8FAF71AFF0D2106A80CF0DF
:10552000CDFA0123274806C84FA00CF0B1FA20217C
:1055300000200CF001FA494801680079020442EAAF
:10554000114080B203463DA2402104901C4809F05E
:1055500025FF01231B4806C819480CF099FA0020C2
:105560001549087001202C49087017480088042844
:105570007ED11648008801287AD115480078012884
:1055800076D100200CF05EF9002108460CF0D4F929
:105590000123174806C817A00CF07AFA0021322020
:1055A0000CF026FB002137200CF05DFB00213C2095
:1055B0000CF059FB0F215CE02D030020520300206A
:1055C000363D0020200000200203002006030020BA
:1055D00054030020D1EAEEF0EEF1F2FC00000000EE
:1055E000D4A9020810030020252E303066000000E8
:1055F00018000020D0E5EBE500000000CFF0E5E466
:10560000000000002E000000A3020020C0E2E0F035
:1056100000000000A2020020AC03002020030020B4
:10562000C0F2F2F0E8E1F3F220F1EEE1FBF2E8FF84
:1056300000000000203100001603002030782558BB
:1056400000000000C1E8F220F1EEF1F2EEFFEDE81B
:10565000FF00000028302D3135290000880200208D
:1056600020320000780200202831362D3331290005
:1056700030E000200CF060F90123F94806C8F9A0D9
:105680000CF006FAC8200BF05CF9202100200CF089
:1056900053F9F6480078012809D1F5480AF0BAFF15
:1056A0000020F44908700120F349087012E0F04826
:1056B0000388F2A24021F24809F070FE0123F1486C
:1056C00006C8EF480CF0E4F90120EA490870002010
:1056D000E9490870EC480088042853D1EB48008859
:1056E00002284FD1EA48007801284BD100200CF065
:1056F000A9F8002108460CF01FF90123D84806C874
:10570000AFF210100CF0C4F9002132200CF070FA46
:10571000002137200CF0A7FA00213C200CF0A3FA5E
:105720000F2100200CF008F91822DAA106A8FAF7D8
:105730000EFE182106A80CF0C1F9202100200CF063
:10574000FBF8CA480078012809D1D9480AF062FF5D
:105750000020C84908700120C749087012E0D448E9
:105760000388C6A24021C64809F018FE0123C54897
:1057700006C8C3480CF08CF90120BE49087000200F
:10578000BD490870C0480088042853D1BF4800882C
:1057900003284FD1BE48007801284BD100200CF0DF
:1057A00051F8002108460CF0C7F80123AC4806C8A0
:1057B000AFF2C0100CF06CF9002132200CF018FA96
:1057C000002137200CF04FFA00213C200CF04BFA5E
:1057D0000F2100200CF0B0F82122B6A106A8FAF79C
:1057E000B6FD212106A80CF069F9202100200CF05B
:1057F000A3F89E480078012809D1B7480AF00AFFAB
:1058000000209C49087001209B49087012E0B248B2
:1058100003889AA240219A4809F0C0FD01239948C3
:1058200006C897480CF034F901209249087000200E
:10583000914908709448008804284BD19348008807
:10584000042847D192480078012843D100200BF06A
:10585000F9FF002108460CF06FF80123804806C8C4
:10586000AFF270200CF014F9002132200CF0C0F9D6
:105870000F2100200CF060F8092298A106A8FAF781
:1058800066FD092106A80CF019F9202100200CF072
:1058900053F876480078012809D193480AF0BAFEF7
:1058A00000207449087001207349087012E08E4886
:1058B000038872A24021724809F070FD01237148EB
:1058C00006C86F480CF0E4F801206A49087000200F
:1058D000694908706C480088052825D16B48008804
:1058E00010BB00200BF0AEFF002108460CF024F89E
:1058F00000213C200CF0B7F926213A200CF0EFF9FA
:105900002B213A200CF038F90F2100200CF014F86C
:10591000092276A106A8FAF71AFD092106A80CF0BB
:10592000CDF800205349087057480088052851D108
:105930005648008801284DD100200BF083FF00213C
:1059400008460BF0F9FF0123454806C86AA00CF091
:105950009FF801234B4806C8AFF258300CF098F876
:10596000002137200CF044F900213C200CF07BF999
:105970000F2100200BF0E0FF0123394806C860A08A
:105980000CF086F8C8200AF0DCFF202100200BF084
:10599000D3FF36480078012809D15B480AF03AFE67
:1059A00000203449087001203349087012E056483D
:1059B000038832A24021324809F0F0FC012331482B
:1059C00006C82F480CF064F801202A49087000200E
:1059D000294908702C48008805283FD12B480088A9
:1059E00002283BD100200BF02DFF002108460BF0D0
:1059F000A3FF01231A4806C83FA00CF049F8012371
:105A0000204806C8AFF204400CF042F800213720CD
:105A10000CF0EEF800213C200CF025F90F210020BD
:105A20000BF08AFF0822AFF2544106A8FAF78FFC68
:105A3000082106A80CF042F8202100200BF07CFF82
:105A40000A480078012865D1304931480AF046FDFE
:105A500000200849087001200749087074E059E0E7
:105A600018000020D0E5E6E8EC0000002D0300203F
:105A7000A4020020AC030020AD0300202564000038
:105A8000363D0020200000200203002006030020F5
:105A900054030020C7E0E4E5F0E6EAE020EDE02072
:105AA000F1F0E0E1E0F2FBE2E0EDE8E5000000000B
:105AB000A8020020C7E0E4E5F0E6EAE020EDE020FF
:105AC000E2FBF5EEE420E8E720F1F0E0E1E0F2FBB4
:105AD000E2E0EDE8FF000000AA020020D2E5F1F2CA
