:020000040801F1
:100000002089012081020108ADA30108398C010873
:100010007D9F0108AD0F0108F9C60108000000002E
:10002000000000000000000000000000C101010805
:1000300091190108000000001D020108E3AC01084D
:100040009B0201089B0201089B0201089B02010818
:100050009B0201089B0201089B0201089B02010808
:100060009B0201089B0201089B020108E1120108A2
:10007000ED120108F9120108051301081113010816
:100080001D130108291301089B0201089B020108A6
:100090009B0201089B0201089B0201089B020108C8
:1000A0009B02010855B101089B0201089B0201084F
:1000B0009B0201089B0201089B0201089B020108A8
:1000C0009B0201089B0201089B0201089B02010898
:1000D0009B02010815C4010871C40108CDC40108C0
:1000E0009B0201089B0201089B0201089B02010878
:1000F0009B0201089B0201089B0201089B02010868
:100100009B0201089B0201089B0201089B02010857
:100110009B0201087DBE010861B101087DB10108A3
:1001200035130108411301089B0201089B020108D5
:100130009B0201089B0201089B0201089B02010827
:100140009B0201089B0201089B0201089B02010817
:100150009B0201089B0201089B0201089B02010807
:100160009B0201089B0201089B0201089B020108F7
:100170009B0201089B0201089B020108000000008D
:100180009B0201089B0201089B0201089B020108D7
:100190009B0201089B0201089B0201089B020108C7
:1001A0009B0201089B0201089B020108DFF80CD0AA
:1001B00000F0E0FB0048004789DA010820890120AF
:1001C0002C4B19680868B0E8F04F80F30988BFF33A
:1001D0006F8F4FF0000080F311887047000000001F
:1001E00008480068006880F308884FF0000080F33A
:1001F000148862B661B6BFF34F8FBFF36F8F00DF15
:1002000000BF00BF08ED00E0DFF80C00016841F41A
:1002100070010160704700BF88ED00E0EFF30980D6
:10022000BFF36F8F134B1A681EF0100F08BF20ED3D
:10023000108A20E9F04F106009B44FF0500080F3AD
:100240001188BFF34F8FBFF36F8F0EF077FF4FF022
:10025000000080F3118809BC19680868B0E8F04F05
:100260001EF0100F08BFB0EC108A80F30988BFF3AE
:100270006F8F704794040020EFF3058070470000F3
:100280000648804706480047FEE7FEE7FEE7FEE730
:10029000FEE7FEE7FEE7FEE7FEE7FEE7A5AD0108A5
:1002A000AD0101082DE9F05F0546002092469B460E
:1002B00088460646814640241BE02846414647467C
:1002C000224600F053FA53465A46C01A914110D3C1
:1002D00011461846224600F03AFA2D1A67EB01083B
:1002E0004F4622460120002100F031FA17EB0009A9
:1002F0004E41201EA4F10104DFDC484631462A4667
:100300004346BDE8F09F40EA01039B0703D009E0A4
:1003100008C9121F08C0042AFAD203E011F8013BF1
:1003200000F8013B521EF9D27047D2B201E000F84A
:10033000012B491EFBD270470022F6E710B5134689
:100340000A4604461946FFF7F0FF204610BD10B5D7
:10035000044604E00B7800F8013B03B1491C521E2F
:10036000F8D2204610BD2DE9FE4F804681EA0300F9
:10037000C00F0C46009021F0004123F00045B8EB7F
:100380000200A94105D24046214690461C460B4634
:10039000024623F00040104347D0270DC7F30A0060
:1003A000C3F30A510290401A019040286BDAC3F35C
:1003B000130040F4801B0098924620B10023D2EB3A
:1003C000030A63EB0B0B01985946C0F140025046FB
:1003D00000F0BDF906460D4650465946019A00F018
:1003E000D5F910EB08006141002487EA115284EA34
:1003F000E7731A4340D0009A62B3019A012A4FEA88
:10040000075215DC001B61EB02014FF0004202EACB
:100410000752CDE90042001C41F5801132462B46BF
:1004200000F02AFA03B0BDE8F08F40462146F9E714
:10043000001B61EB0201001C41F5801300185B41B9
:100440002018A2F5001747EB030140EAD570B61952
:100450006D4111E06D084FEA360645EAC0754FEA76
:100460000752001B61EB0201001C41F58011490895
:100470004FEA30000019514132462B4603B0BDE827
:10048000F04F00F0EAB90098012240000023D0EBC1
:10049000020263EBE073009821464FEAE074B8EB88
:1004A000000061EB0401E9E783F000435BE781F0C2
:1004B000004158E72DE9FE4F81EA030404F00044AF
:1004C00021F0004100944FF0000B23F0004350EA6C
:1004D00001045ED052EA03045BD0C3F30A54C1F3B3
:1004E0000A552C44A4F2F3340194A0FB0254C1F346
:1004F000130141F48011C3F3130343F4801301FB90
:10050000024400FB034E840A970A44EA815447EAF6
:100510008357A4FB076802958D0A05FB07854FEA00
:10052000932C04FB0C542705029D4FEA065847EA1A
:100530001637B5EB08056EEB070C870E920E47EAEF
:10054000811742EA8312A7FB0201B6EB0B0164EBB1
:1005500000042B0D43EA0C335E1844EB1C50DA46C2
:100560005146E7FB0201C5F313044FEA0B3343EA9C
:1005700014534FEA0432019C43EA0603A4F10C042D
:100580000294009CCDE900B400F076F903B0BDE818
:10059000F08F00200146F9E72DE9F04D81EA0304D0
:1005A00004F0004B21F0004514464FF0000A23F000
:1005B000004150EA050220D054EA01021DD0C5F3E3
:1005C0000A570246C5F31303C1F31300C1F30A56D9
:1005D00040F4801543F48013A7EB0608101BD646A1
:1005E00008F2FD3873EB050002D308F1010801E0C1
:1005F00092185B41B8F1000F03DA00200146BDE814
:10060000F08D00204FF48011064684460EE0171B43
:1006100073EB050705D3121B63EB050306434CEA96
:10062000010C49084FEA300092185B4150EA01077B
:10063000EDD152EA030012D082EA040083EA0501F8
:10064000084305D0101BAB4106D20122002306E06F
:1006500000224FF0004302E06FF0010253101AEB4A
:1006600006004CEB085110EB0A0041EB0B01BDE812
:10067000F04D00F0F2B830B404469623080021464D
:1006800004D0B62330BC002200F09BB820460021E5
:10069000F8E70EB540F2334102910021CDE9001197
:1006A0000A460B4600F0E8F803B000BD0EB540F274
:1006B000334202920022CDE90022134600F0DCF81A
:1006C00003B000BD00F0004230F000400AD0C10D80
:1006D00001F56071C0F3160042EA0151C2084007FB
:1006E0001143704700200146704701F0004330B4C9
:1006F00021F0004150EA010206D00A0DA2F5607215
:10070000C1F31301002A02DC30BC00207047440F03
:1007100044EAC104C100E01830BC00EBC25000F054
:1007200047B830B50B46014600202022012409E0DD
:1007300021FA02F59D4205D303FA02F5491B04FA9A
:1007400002F52844151EA2F10102F1DC30BD202A79
:1007500004DB203A00FA02F1002070479140C2F118
:10076000200320FA03F3194390407047202A04DB4A
:10077000203A21FA02F00021704721FA02F3D0401A
:10078000C2F120029140084319467047202A06DB37
:10079000CB17203A41FA02F043EAE07306E041FA4F
:1007A00002F3D040C2F1200291400843194670473D
:1007B0000029A8BF7047401C490008BF20F0010075
:1007C000704710B4B0FA80FC00FA0CF050EA010453
:1007D00004BF10BC704749B1CCF1200421FA04F4E5
:1007E00011FA0CF118BF012121430843A3EB0C01BE
:1007F000CB1D4FEA00614FEA102042BF002010BC21
:10080000704700EBC35010440029A4BF10BC7047D0
:10081000401C490008BF20F0010010BC704710B513
:1008200041000CD0C0F3C751962908DC7E2909DCB1
:1008300006DB410204D000F0004040F07E5010BDC5
:10084000002010BDC1F19604C4F1200100FA01F1AD
:10085000E040FFF7ADFFA04010BD10B5141E73F1CE
:10086000000408DA401C41F1000192185B411A4370
:1008700001D120F0010010BD2DE9F04D92469B46BC
:1008800011B1B1FA81F202E0B0FA80F22032904662
:10089000FFF75DFF04460F4640EA0A0041EA0B01FC
:1008A00053465A46084313D0114653EA010019D063
:1008B000C8F140025046FFF759FF05460E46504624
:1008C00059464246FFF743FF084305D0012004E0A4
:1008D00020463946BDE8F08D0020054346EAE07623
:1008E0002C4337430A986305E40AA0EB0800002272
:1008F000FD0A44EA47540A3002D500200146E9E7E0
:10090000010510196941DDE9084500196941BDE893
:10091000F04DA2E7C1F30A52C1F3130140F2FF33D5
:1009200041F480119A4202DA00200146704740F2F9
:1009300033439A42A2F2334202DC5242FFF716BF1F
:10094000FFF705BF30B5041E71F1000404DB4FF062
:100950000044404264EB0101141E73F1000405DB06
:100960001C464FF00043524263EB0403994208BF18
:10097000904230BD064C074D06E0E06840F00103B0
:1009800094E8070098471034AC42F6D3FFF712FC06
:10099000A41C0208C41C020870B58C1810F8015B76
:1009A00015F0070301D110F8013B2A1106D110F808
:1009B000012B03E010F8016B01F8016B5B1EF9D10C
:1009C0002B0705D40023521E0DD401F8013BFAE792
:1009D00010F8013BCB1A921C03E013F8015B01F8FD
:1009E000015B521EF9D5A142D8D3002070BD000092
:1009F0002DE9F041044600270D46006808F0A2F9F1
:100A00000646206808F096F9304359D02068C1683E
:100A10002C4E890105D5617E012902D1217E012953
:100A20000BD0022D1DD0206808F08CF9B8B12068D9
:100A30008168C1F3400169B111E00125224902E05A
:100A40008F422ED27F1C0268D2435206F8D4402136
:100A50000160E8E78168314041F010018160012DBB
:100A600011D0206808F066F948B120688168C1F3A8
:100A7000400121B98168314041F020018160022D9F
:100A800008D0032D04D0042506F00AFA064613E028
:100A90000C25F9E70825F7E706F002FA801B052880
:100AA0000AD9A06D40F01000A065E06D40F0010093
:100AB000E0650120BDE8F081206880682842EBD124
:100AC0000020F7E7C0FFFF7F000040A310B5846A55
:100AD000A16D11F0500F06D0A16DC90625D5204695
:100AE00005F0D6FB10BDA06D40F40070A065206835
:100AF0000168090716D508F02DF978B12068C0689B
:100B0000800400280ADBA06D20F48070A065A06D31
:100B1000C00403D4A06D40F00100A065204605F09C
:100B200073FB10BDC0688007EBE7216D496BBDE822
:100B30001040084710B5806A816D41F04001816521
:100B4000C16D41F00401C16505F0A2FB10BD10B5F7
:100B5000806A05F07BFB10BD70B5044600688168B3
:100B60008268C1F3400112F0010F24D019BB8168E3
:100B700001F00D01012910D18168104A1140891C32
:100B8000816021680320086006F08AF905460EE0BE
:100B900006F086F9401B022809D9A06D40F010002C
:100BA000A065E06D40F00100E065012070BD2068A7
:100BB0008068C007ECD1002070BD0000C0FFFF7F3F
:100BC00070B504460068816811F0010F28D1816872
:100BD000144A114215D18168D5432940491C8160CE
:100BE00006F05EF9064616E0816811F0010F03D1A8
:100BF00081682940491C816006F052F9801B022857
:100C000009D9A06D40F01000A065E06D40F0010032
:100C1000E065012070BD20680168C943C907E3D1C0
:100C2000002070BD3F0000802DED048B82B00020BD
:100C3000ADF800009FED168B9FED179B184C4FF4FD
:100C40007A75184804F0BEFF6421164804F042FF8C
:100C50000121144804F026FFADF80000114805F00A
:100C600027F8BDF80000FFF714FD53EC182BFFF731
:100C700021FC53EC192BFFF71DFCFFF736FD00EEAE
:100C8000100A284684ED080A0CF066FFD9E7000038
:100C9000B4D934E70C684A3F00000000000024404B
:100CA00058010020580600202DED0A8B90B09FEDD2
:100CB000B10AB24C8DED0B0A8DED000A8DED060ADE
:100CC0008DED070A8DED010ADFF8AC928DED040A77
:100CD0004FF0000AA4F180054FF0010B04F18008E9
:100CE0004FF0FF31D8F860000EF0B4FD95F82C00FD
:100CF000012802D0022828D04EE0A14A0020014657
:100D00004FF4007C02F540634FEA090632F8107098
:100D100000EE107A06EB8107B8EE400A87ED000A74
:100D200002EB4007801C7F8880B200EE107A03EB54
:100D30008107491CB8EE400A89B2604587ED000A78
:100D4000E4D3A089401CA08126E08D4A4FF40070B6
:100D5000002102F540634FF4806C4E4632F810706B
:100D600000EE107A06EB8107B8EE400A87ED000A24
:100D700002EB4007801C7F8880B200EE107A03EB04
:100D80008107491CB8EE400A89B2604587ED000A28
:100D9000E4D3E089401CE0814FF4807605AA314617
:100DA00075480CF0D9FB744A3346114601F62C10F5
:100DB0000CF080FA0020734B01464A4602EB800794
:100DC000001D97ED000A03EB8107491C80B287EDF7
:100DD000000A89B2FF28F1D96A4A4023114601F579
:100DE00080700CF067FA674A4023114601F5AC7039
:100DF0000CF060FA0BAA402162480CF0ADFB6A4689
:100E0000314661480CF0A8FB0AAB01AA40215D48BD
:100E10000CF0E0FA0AAB06AA31465B480CF0DAFAAD
:100E20000AAB04AA402157480CF04CFB0AAB07AAB6
:100E3000314655480CF046FB544E00231A460BA988
:100E4000306E0EF06DFB00231A466946F06E0EF010
:100E500067FB606C0746FFF735FC41EC180B206C14
:100E60000646FFF72FFC41EC190B0198FFF72AFC0F
:100E70009FED47BB53EC1B2BFFF71CFB9FED46CBB5
:100E800053EC1C2BFFF788FB53EC192BFFF712FBDD
:100E900053EC182BFFF767FAFFF727FC08EE100A50
:100EA0003846FFF70FFC41EC190B3046FFF70AFC00
:100EB00041EC1A0B0498FFF705FC53EC1B2BFFF7D2
:100EC000F9FA53EC1C2BFFF767FB53EC1A2BFFF7D7
:100ED000F1FA53EC192BFFF746FAFFF706FCD4EDB5
:100EE0000F1A9FED2F1A00EE100A284EC1EE810A4C
:100EF000803600231A4606A988EE201A84ED121ABD
:100F000080EE201A84ED131AB0680EF009FB00235E
:100F10001A4607A9F0680EF003FB2249059888429B
:100F200002DD85F802B001E085F802A094ED1E0A0A
:100F3000DDED000A94ED1D1A1B4900EE810A10EE4A
:100F4000100A884202DB85F804A001E085F804B0AD
:100F50000D480DF01FFE00231A4619464646D8F8E4
:100F600064000EF0DDFA00231A461946F06E0EF00A
:100F7000D7FAB5E600000000200F0020D8000020BE
:100F8000200700202017002020130020D801002077
:100F9000B4D934E70C684A3F393939393939E93F2E
:100FA00000007A4400007A45CDCC6C40FEE700009A
:100FB0004C4FDFF8348101264C4C002594F82B006F
:100FC00058BB4FF400614FF0904005F05BFF0028E4
:100FD000E07C0DD0052807D9E67525766576A576DF
:100FE000A4F86A50E574A57794F82B0018B114E0C2
:100FF000401CE074F8E74FF48071384605F042FF7A
:101000000028207D0DD0052807D9E5752676657660
:10101000A576A4F86A502575A57794F82A0018B12A
:101020002CE0401C2075F8E70821384605F02AFF1F
:101030000028607D0DD0052807D9E57525766676F0
:10104000A576A4F86A506575A57794F82A0018B1BA
:1010500014E0401C6075F8E74FF40071384605F065
:1010600011FF0028A07D17D0052807D9E575257642
:101070006576A676A4F86A50A575A57780214046C6
:1010800005F000FF0028B4F86A0008D0C01E6128EF
:1010900018D2207F98B115E0401CA075EEE7401CE7
:1010A00080B2A4F86A00642818D394F82900A8B97B
:1010B000E57525766576A576E57626770CE094F8D5
:1010C000290020B194F82900012805D006E0E57533
:1010D00025766576A576E676A4F86A500A200CF0A7
:1010E0003BFD6BE700040048000800485800002062
:1010F0002DED088B84B000209FED6D0A00908DEDE2
:10110000000AADF804006B4E9FED6B9B9FED6CAB3E
:101110006D4DA5F18004DFED6D8A5E2165480CF010
:101120007CFAB6F8C200B0EE408AADF80400B6F81A
:10113000B20038B93E215F480CF06FFA85ED050A20
:1011400084ED180AB6F9B200012806D0022814D09E
:10115000032817D0042852D037E018EE100AFFF702
:10116000B1FA41EC100B51EC190B53EC102BFFF7BB
:1011700013FA41EC1B0B606B1AE094ED060A84ED48
:10118000180A22E018EE100AFFF79CFA41EC100B47
:1011900051EC190B53EC102BFFF7FEF941EC1B0B34
:1011A000BDF804004A4900EB800001EBC000406933
:1011B000FFF788FA53EC1B2BFFF77CF953EC1A2B43
:1011C000FFF7D1F8FFF791FA206694ED180A95ED34
:1011D000061A002260EE280A95ED070A11463D48DE
:1011E00000EE810ABCEEC00A8DED000A10EE103A46
:1011F00005F0F4FA5FF064000CF0AEFC8DE718EE39
:10120000100AFFF75FFA41EC100B51EC190B53EC8D
:10121000102BFFF7C1F99FED301B53EC112BFFF79B
:10122000A2F8FFF762FA00EE100A002284ED180A15
:1012300060EE280A95ED061A95ED070A1146254835
:1012400000EE810ABCEEC00A8DED000A10EE103AE5
:1012500005F0C4FA01200CF07FFC18EE100AFFF72D
:1012600031FA41EC100B51EC190B53EC102BFFF73A
:1012700093F953EC1A2BFFF776F8FFF736FA00EEE6
:10128000100A002284ED180A60EE280A95ED061A6D
:1012900095ED070A11460F4800EE810ABCEEC00A20
:1012A0008DED000A10EE103A05F098FA1320A3E72E
:1012B00000000000FC18002000000000000030408A
:1012C00000000000000010405801002000004C43C6
:1012D000A832002008070020000000000000244081
:1012E000014805F0F8BA0000C0060020014805F0EA
:1012F000F2BA0000A4430020014805F0ECBA000057
:101300005C430020014805F0E6BA0000844200205A
:10131000014805F0E0BA00003C420020014805F019
:10132000DABA0000CC420020014805F0D4BA00002F
:1013300014430020014805F0CEBA0000F44100201B
:10134000014805F0C8BA0000AC41002030B590F863
:10135000444004F01C050124AC40056C6C6004683A
:1013600063608368102B036803D099600068C260D3
:1013700030BD9A600068C16030BD00002DED028B69
:1013800082B04FF0000B8DF804B09FEDFE8ADFF8BD
:10139000FCA3DFEDFD8AFE4F8DED018A0AF1800985
:1013A000684654469AED090A0CF02FF9BDF8000082
:1013B000F64D27F85C0BBDF80200803D27F85A0C6B
:1013C000A87827F8480C684694ED0C0A0CF01DF933
:1013D000BDF8000027F8300CBDF8020027F82E0CED
:1013E000684694ED0D0A0CF010F9BDF8000027F8DE
:1013F0002C0CBDF8020027F82A0C684694ED0E0A62
:101400000CF003F9BDF8000027F8280CBDF8020025
:1014100027F8260C05F520708046006A98F82410FD
:1014200027F8200C000C40EA014027F81E0CB5F804
:10143000480027F81C0C684694ED060A0CF0E5F805
:10144000BDF8000027F8140CBDF8020027F8120CB4
:101450002879388068464E4699ED010A0CF0D5F897
:10146000BDF800007882BDF80200B882684694EDAD
:10147000080A0CF0CAF8BDF800003883BDF8020075
:10148000788394ED080AD4ED070A684630EE600AC6
:101490000CF0BBF8BDF80000B883BDF80200F8837B
:1014A0006088B884B5F844003886B5F84600788678
:1014B0006879F886684696ED040A0CF0A6F8BDF83F
:1014C00000003887BDF802007887684696ED030A69
:1014D0000CF09BF8BDF80000B887BDF80200F88753
:1014E000D8E90623D8E904015C3F161A73EB01061C
:1014F00008D2801A61EB0301FFF7BDF800EE100A75
:10150000684602E06846B0EE480A0CF07EF8BDF886
:10151000000027F89C0FBDF802007880B5F858004D
:10152000B880B5F85A00F880287A3881E87978814F
:10153000B5F8740027F8120FA84668464E4699ED94
:10154000080A0CF062F8BDF80000F882BDF802004D
:1015500090493883684691ED000A0CF056F8BDF8C2
:1015600000003884BDF8020078846846B0EE680A4E
:101570000CF04BF8BDF80000B884BDF80200F88408
:10158000B5F84000A7F842006846A24694ED120A5A
:101590001E370CF03AF8BDF800003885BDF802009F
:1015A0007885684694ED140A0CF02FF8BDF8000019
:1015B000B885BDF80200F885684694ED160A0CF06F
:1015C00024F8BDF800003886BDF80200788694ED56
:1015D000120AD4ED130A684630EE600A0CF015F8D2
:1015E000BDF80000B886BDF80200F88694ED140A34
:1015F000D4ED150A684630EE600A0CF006F8BDF826
:1016000000003887BDF80200788794ED160AD4ED03
:10161000170A684630EE600A0BF0F7FFBDF80000CD
:10162000B887BDF80200F887684696ED0F0A0BF000
:10163000ECFFBDF80000A7F84400BDF80200A7F8D1
:101640004600E87FCC3F002875D1002606EB8600D7
:1016500007EBC004504A94F8201102EBC00502F8D1
:10166000301094F822116970B4F82401A88094F81D
:101670002601A87094F82801A871B4F82A012881DD
:1016800004F5967000210BF0C8FF85ED030A04F500
:10169000987000210BF0C1FF85ED040AA87920B1F4
:1016A000012810D004280ED020E095ED050A3B4912
:1016B000BDEEC00A10EE100AA4F8340110EE100AB4
:1016C00021F8260017E095ED050A68460BF09DFF0E
:1016D000BDF80000A4F83401304ABDF80210A4F8A7
:1016E000361122F8260002EB86004180A8790228F4
:1016F000DBD00328D9D004F59C7000210BF08DFFBE
:1017000085ED080A04F59E7000210BF086FF85ED3B
:10171000090A04F5A07000210BF07FFF85ED060A91
:1017200004F5A27000210BF078FF761CB6B285EDAF
:10173000070A282E8AD3B7F9D600A0F58071E139BF
:1017400011D1A7F8D6B00DF07DFB11480DF0A8FD22
:101750008DF804000CF0E0FC0DF094FB00200CF080
:1017600017F903F0C9FEB7F9D60045F23341C84274
:101770007ED1A7F8D6B0684654469AED0F0A0BF012
:1017800044FF0DE000000000B4C8AE40D8000020C7
:10179000FC18002024000020A83200205C2000203B
:1017A000BDF800007883BDF80200B883684694ED68
:1017B000100A0BF02AFFBDF80000F883BDF8020004
:1017C0003884684694ED110A0BF01FFFBDF8000045
:1017D0007884BDF80200B88498F80310684600EEDB
:1017E000101AB8EE400A0BF010FFBDF80000F884A4
:1017F000BDF802003885684694ED1D0A0BF005FF20
:10180000BDF80000A7F86600BDF80200A7F8680060
:10181000684694ED1E0A0BF0F8FEBDF80000A7F82C
:101820006A00BDF80200A7F86C0068464C4699EDC6
:10183000060A0BF0EAFEBDF80000A7F8B400BDF8F8
:101840000200A7F8B600684694ED070A0BF0DDFE2B
:10185000BDF80000A7F8B800BDF80200A7F8BA006C
:101860000DF0F0FA46480DF01BFD8DF8040000E085
:1018700008E00CF051FC0DF005FB00200CF088F89E
:1018800003F03AFEB7F9D80042F24631C8420AD016
:1018900098F81F1019B9B8F87E00012803D00A2063
:1018A0000CF05AF97CE559463C46A7F8D8B0002020
:1018B0004FF46C721BE00D281BD00E2819D00F2896
:1018C00017D0102815D0112813D0122811D0332882
:1018D0000FD034280DD035280BD0362809D05A28FF
:1018E00007D05B2805D05C2803D05D2801D024F800
:1018F0001010401C80B29042DDD30A2024F8C80F9B
:1019000044F6206060826846B3EE060A0BF07DFE66
:10191000BDF80000A082BDF80200E0826846B3EE88
:101920000A0A0BF072FEBDF800002083BDF8020029
:10193000608368469FED130A0BF067FEBDF8000058
:1019400024F8460CBDF8021024F8441C24F8400C7E
:1019500024F83E1C6080A1806420E08408480DF0DB
:101960009FFC8DF80400BFF34F8F07480168074ABA
:1019700001F4E06111430160BFF34F8F00BFFDE749
:10198000FC1800200000E1470CED00E00400FA051F
:10199000704700002DED0C8B8CB09FED4A0A4A4F2A
:1019A0008DED050A8DED000A8DED010A4FF0FF392E
:1019B00007F18008A7F180049FED449B9FED45ABA4
:1019C0009FED46DA4946B86E0DF044FF4449402287
:1019D000084607F033F9424A4023114601F5D87012
:1019E0000BF068FC05AA40213D480BF0B5FD08ABA3
:1019F0006A4640213A480BF0EDFC08AB01AA4021B1
:101A000037480BF05FFD00231A4605A9D8F8680097
:101A10000DF086FD606C0646FEF754FE41EC1B0B94
:101A2000206C0546FEF74EFE41EC180B0098FEF7C1
:101A300049FE53EC192BFEF73DFD53EC1A2BFEF734
:101A4000ABFD53EC182BFEF735FD53EC1B2BFEF7CB
:101A50008AFCFEF74AFE08EE100A3046FEF732FE18
:101A600041EC1C0B2846FEF72DFE41EC1B0B0198A8
:101A7000FEF728FE53EC192BFEF71CFD53EC1A2B36
:101A8000FEF78AFD53EC1B2BFEF714FD53EC1C2BC9
:101A9000FEF769FCFEF729FE94ED0F1A00EE100A1E
:101AA0000023C1EE0D0A1A46194688EE201A84ED6D
:101AB000161A80EE201A84ED171A786F0DF030FD9B
:101AC00080E700000000000058010020B4D934E78E
:101AD0000C684A3F393939393939E93F00007A44CD
:101AE000201700208CB00122D1034FF0904005F068
:101AF000D2F90CF0EDFD01200CF0DAFD0BF066FDE3
:101B00000CF058FEDFF80C84B8F9DA0000EBD07066
:101B100040100CF021F801200BF03AFFDFF8F893A9
:101B2000DFF8F8B3FE4FFF4D4FF0000AA87C012804
:101B300003D0687F012806D011E000200CF0B8FD2A
:101B40000BF084FF56E095F82E00012818D00228EB
:101B500016D0032814D0042812D005283DD0B5F89B
:101B60006E0001284AD002284FD0032854D0042800
:101B700057D005285CD0062861D007285FD05AE0EE
:101B800000200CF095FD002108460CF00DFE5C468F
:101B90000123D4E90012E4A00CF0AAFED7E9001258
:101BA0000123E3A00CF0A4FE0F2100200CF0FCFDAB
:101BB000D4E900120123DFA00CF09AFE1E210020C0
:101BC0000CF0F2FDD4E900120123DCA00CF090FE31
:101BD000D7E900120123DAA00AE000200CF068FD2A
:101BE0000F2100200CF0E0FDDBE900120123D5A05D
:101BF0000CF07EFE0CF0DEFD03F082BB95F82510A4
:101C000009B1062115E0092113E095F8251009B165
:101C100008210EE001210CE095F8251031B92821AA
:101C200007E095F8251009B1042102E0022100E047
:101C3000052185F82210E97D012902D00FE003215A
:101C4000F7E7B5F8721051B1EA7F42B9491EA5F81D
:101C5000721085F817A085F81BA085F820A0297EB2
:101C6000012910D1B5F8721095F8222091420AD2BC
:101C7000EA7F42B9491CA5F8721085F818A085F8CA
:101C80001BA085F820A0697E012927D130B3E97E09
:101C900021BBE97F11BB03280CD1B5F8720048B114
:101CA000B5F8700010B1401EA5F87000504685F8D8
:101CB00019A011E0B5F86C0010B1401EA5F86C0039
:101CC000A248B5F86C1030F81100A5F86E0085F840
:101CD00019A05046A5F872A085F82000A87E01281A
:101CE00001D1E87E18B1E87E01282FD03AE0E87FE4
:101CF00058BBB5F86E0003280FD1B5F8720060B17B
:101D0000B5F87000282804D20C2802D2401CA5F88F
:101D10007000504685F81AA015E0B5F87C10B5F8AB
:101D20006C00491E884202DA401CA5F86C00874806
:101D3000B5F86C1030F81100A5F86E0085F81AA0FF
:101D40005046A5F872A085F820000BE0B5F87200A7
:101D500040B1E87F20B10020E87785F81BA012E0B1
:101D60000120F9E7287F01280DD1B5F8720050B99C
:101D700095F8250058B1002085F8250085F81CA0AD
:101D8000012085F82900E87D012802D00CE001201F
:101D9000F2E7E87F012807D195F8200010B1401E36
:101DA00085F8200085F817A0287E012809D1E87F52
:101DB000012806D195F82000012085F8200085F83B
:101DC00018A0287F01280DD1B5F8720050B10CF091
:101DD0006BFB85F81CA085F81BA085F825A00120C9
:101DE00085F82900B5F8760001287DD1B5F86E0098
:101DF0000128FAD1B5F87200002876D10CF058FC11
:101E0000002108460CF0D0FCD7E90012012350A0B5
:101E10000CF06EFDA878012805D095F8250088B350
:101E2000012842D065E095F8210050B1D7E90012B1
:101E3000012348A00CF05CFD95F82500012814D082
:101E400017E00F2100200CF0AFFC5C460123D4E921
:101E5000001241A00CF04CFD1E2100200CF0A4FC4F
:101E6000D4E9001201233EA0E4E7002137200CF062
:101E700020FE00213C200CF01CFE2B213A200CF00F
:101E8000A7FDA2E1FFE700200CF012FC00210846AC
:101E90000CF08AFCD7E9001201232DA00CF028FDDC
:101EA00000211C200CF080FC14E000200CF000FC51
:101EB000002108460CF078FCD7E90012012324A089
:101EC0000CF016FD00211C200CF06EFC00213720C8
:101ED0000CF0EFFD00213C200CF0EBFD2B213A2013
:101EE0000CF076FD0F2101E0F5E176E100200CF029
:101EF0005BFC0C4C80342088012851D112221AA19D
:101F000002A8FEF724FA122102A80CF007FD2021F6
:101F1000002033E0FC180020A83200200000002040
:101F20000800002058000020CEE1EDEEE2000000A5
:101F30002D000000EBE5EDE8E5000000CFCE00004D
:101F40002E2E2E00D3D1CFC5D8CDCE00F83A00200A
:101F50004943500020000000CEC1D0DBC200000089
:101F6000C4C0D2D7C8CAC000D1CAC720E2E8E1F0D5
:101F7000EEF3F1EAEEF0E5EDE8FF00000CF014FC02
:101F8000206BFEF79FFBCDE90001FDA24021FE483A
:101F90000AF064FCD7E900120123FB480CF0A8FC0E
:101FA000208802281CD11122F8A102A8FEF7CFF93F
:101FB000112102A80CF0B2FC202100200CF0F4FB4F
:101FC000606BFEF77FFBCDE90001EDA24021EE48FA
:101FD0000AF044FCD7E900120123EB480CF088FC1E
:101FE000208803281CD11422EDA102A8FEF7AFF926
:101FF000142102A80CF092FC202100200CF0D4FB4C
:10200000A06BFEF75FFBCDE90001DDA24021DE48B9
:102010000AF024FCD7E900120123DB480CF068FC2D
:10202000208804281CD11422E3A102A8FEF78FF90E
:10203000142102A80CF072FC202100200CF0B4FB4B
:10204000A06CFEF73FFBCDE90001CDA24021CE48B8
:102050000AF004FCD7E900120123CB480CF048FC3D
:10206000208805281CD11722DAA102A8FEF76FF9F3
:10207000172102A80CF052FC202100200CF094FB48
:10208000206DFEF71FFBCDE90001BDA24021BE4837
:102090000AF0E4FBD7E900120123BB480CF028FC4E
:1020A000208806281CD11422D0A102A8FEF74FF9DF
:1020B000142102A80CF032FC202100200CF074FB4B
:1020C000A06DFEF7FFFACDE90001ADA24021AE48B8
:1020D0000AF0C4FBD7E900120123AB480CF008FC5E
:1020E0002088072823D11422C7A102A8FEF72FF9C0
:1020F000142102A80CF012FC202100200CF054FB4B
:1021000094ED120AD4ED130A30EE600A10EE100AB4
:10211000FEF7D8FACDE9000199A240219A480AF0C9
:102120009DFBD7E90012012397480CF0E1FB2088C2
:10213000082823D11422BAA102A8FEF708F9142115
:1021400002A80CF0EBFB1E2100200CF02DFB94EDFF
:10215000140AD4ED150A30EE600A10EE100AFEF7EC
:10216000B1FACDE9000186A2402187480AF076FB4A
:10217000D7E90012012384480CF0BAFB2088092813
:1021800023D11422ACA102A8FEF7E1F8142102A881
:102190000CF0C4FB202100200CF006FB94ED160A85
:1021A000D4ED170A30EE600A10EE100AFEF78AFA34
:1021B000CDE9000172A2402173480AF04FFBD7E934
:1021C0000012012370480CF093FB85F81FA085F8DE
:1021D0002AA0B5F86E0001287DD1B5F8720001285B
:1021E00048D195F82500002876D10CF061FA00213D
:1021F00008460CF0D9FA0123AFF2AC20D7E900125F
:102200000CF076FB00211C200CF0CEFA00213720C8
:102210000CF017FC00213C200CF04BFC0F2100209F
:102220000CF0C2FA1222AFF2C02102A8FEF78FF81A
:10223000122102A80CF072FB202100200CF0B4FA4D
:102240008348006BFEF73EFACDE9000181A24021F0
:102250004D480AF003FBD7E9001201234A480CF06D
:1022600047FB85F81FA0012085F82A00B5F86E000D
:102270000128B1D1B5F8720002284AD195F825009D
:10228000002879D10CF014FA002108460CF08CFAE1
:102290000123AFF24430D7E900120CF029FB0021F2
:1022A0001C200CF081FA002137200CF0CAFB002121
:1022B0003C200CF0FEFB0F2100200CF075FA1122DF
:1022C00032A102A8FEF743F8112102A80CF026FB68
:1022D0002021002001E05AE1B3E20CF065FA5C48ED
:1022E000406BFEF7EFF9CDE900015AA240212648E4
:1022F0000AF0B4FAD7E90012012323480CF0F8FAE7
:1023000085F81FA0012085F82A00B5F86E00012885
:10231000AFD1B5F8720003282FD195F82500002819
:102320002CD10CF0C5F9002108460CF03DFA012330
:10233000AFF2E430D7E900120CF0DAFA00211C20E9
:102340000CF032FA002137200CF07BFB00213C20FE
:102350000CF0AFFB0F2100200CF026FA142210A184
:1023600002A8FDF7F4FF142102A80CF0D7FA2021EF
:1023700000200CF019FA71E0BAE28AE010E30000E4
:10238000252E303166000000063B0020D1CAC72050
:10239000E2E8E1F0EEF1EAEEF0EEF1F2E800000042
:1023A000D1CAC720E2E8E1F0EEEFE5F0E5ECE5F9AF
:1023B000E5EDE8FF00000000C0ECEFEBE8F2F3E42D
:1023C000E020E2E8E1F0EEF3F1EAEEF0E5EDE8FF1F
:1023D00000000000C0ECEFEBE8F2F3E4E020E2E8FC
:1023E000E1F0EEF1EAEEF0EEF1F2E800C0ECEFEB36
:1023F000E8F2F3E4E020E2E8E1F0EEEFE5F0E5EC0E
:10240000E5F9E5EDE8FF0000D0E0E7ECE0F520E2DB
:10241000E8E1F0EEF3F1EAEEF0E5EDE8FF000000B0
:10242000D0E0E7ECE0F520E2E8E1F0EEF1EAEEF0F2
:10243000EEF1F2E800000000D0E0E7ECE0F520E289
:10244000E8E1F0EEEFE5F0E5ECE5F9E5EDE8FF00B9
:10245000D8000020252E303366000000FE48806B37
:10246000FEF730F9AFF21402CDE900014021FB483C
:102470000AF0F4F9D7E900120123F8480CF038FA11
:1024800085F81FA0012085F82A00B5F86E00012804
:102490007DD1B5F87200042845D195F825000028B3
:1024A00076D10CF005F9002108460CF07DF90123E6
:1024B000AFF26450D7E900120CF01AFA002137206D
:1024C0000CF0BFFA00213C200CF0F3FA0F210020A1
:1024D0000CF06AF91822AFF2201102A8FDF737FFBD
:1024E000182102A80CF01AFA202100200CF05CF947
:1024F000D948806CFEF7E6F8AFF2A802CDE90001FA
:102500004021D6480AF0AAF9D7E900120123D3489E
:102510000CF0EEF985F81FA0012085F82A00B5F827
:102520006E000128B4D1B5F87200052848D195F89D
:10253000250000287ED10CF0BBF8002108460CF0E5
:1025400033F90123AFF2F850D7E900120CF0D0F9BB
:10255000002137200CF075FA00213C200CF0A9FA7C
:102560000F2100200CF020F91722AFF2981102A8D9
:10257000FDF7EDFE172102A80CF0D0F92021002074
:102580000CF012F9B448006DFEF79CF801E053E23C
:102590005EE2AFF24012CDE900014021AF480AF0FF
:1025A0005DF9D7E900120123AC480CF0A1F985F8D8
:1025B0001FA0012085F82A00B5F86E000128B1D1CE
:1025C000B5F87200062847D195F8250000287CD17F
:1025D0000CF06EF8002108460CF0E6F80123AFF28B
:1025E0009060D7E900120CF083F9002137200CF03D
:1025F00028FA00213C200CF05CFA0F2100200CF09E
:10260000D3F81A22AFF21C2102A8FDF7A0FE1A216E
:1026100002A80CF083F9202100200CF0C5F88E48A8
:10262000806DFEF74FF8AFF2D412CDE900014021E2
:102630008A4800E052E20AF011F9D7E900120123BA
:1026400086480CF055F985F81FA0012085F82A006E
:10265000B5F86E000128B2D1B5F8720007284ED146
:1026600095F825000028AAD10CF022F80021084690
:102670000CF09AF80123AFF22870D7E900120CF0A1
:1026800037F9002137200CF0DCF900213C200CF058
:1026900010FA0F2100200CF087F81522AFF29821D4
:1026A00002A8FDF754FE152102A80CF037F92021ED
:1026B00000200CF079F8684890ED120AD0ED130A6A
:1026C00030EE600A10EE100A00E056E2FDF7FAFF65
:1026D000AFF28022CDE90001402160480AF0BEF847
:1026E000D7E9001201235D480CF002F985F81FA01C
:1026F000012085F82A00B5F86E000128ABD1B5F8A5
:10270000720008284CD195F825000028A3D10BF0C1
:10271000CFFF002108460CF047F80123AFF2D0703C
:10272000D7E900120CF0E4F8002137200CF089F909
:1027300000213C200CF0BDF90F2100200CF034F8F2
:102740001422AFF2243102A8FDF701FE142102A8E1
:102750000CF0E4F8202100200CF026F83E4890ED23
:10276000140AD0ED150A30EE600A10EE100AFDF7DB
:10277000A9FFAFF22032CDE90001402137480AF02D
:102780006DF8D7E90012012334480CF0B1F885F850
:102790001FA0012085F82A00B5F86E000128ADD1F0
:1027A000B5F87200092848D195F825000028A5D170
:1027B0000BF07EFF002108460BF0F6FF0123AFF679
:1027C0007000D7E900120CF093F8002137200CF0CC
:1027D00038F90F2100200BF0E7FF1722AFF2A831E4
:1027E00002A8FDF7B4FD172102A80CF097F82021EC
:1027F00000200BF0D9FF184890ED160AD0ED170A0B
:1028000030EE600A10EE100AFDF75CFFAFF2BC324A
:10281000CDE90001402111480AF020F8D7E9001263
:1028200001230E480CF064F885F81FA0012085F8FC
:102830002A00B5F86E000128B1D1B5F87200012860
:1028400052D195F825000128A9D100200BF030FFC6
:102850000021084604E00000D8000020063B0020CC
:102860000BF0A2FF0123AFF61810D7E900120CF00D
:102870003FF8002132200CF0E4F8002137200CF062
:1028800018F900213C200CF014F90F2100200BF066
:102890008BFF1822F8A102A8FDF759FD182102A804
:1028A0000CF03CF8202100200BF07EFFE87F01288F
:1028B000F84814D0B0F90030F7A24021F74809F0E9
:1028C000CDFFD7E900120123F4480CF011F80120E4
:1028D00085F82A00B5F86E00012805D08AE10AF0D3
:1028E000F7FF85F82AA0F5E7B5F87200022853D162
:1028F00095F825000128F1D100200BF0D9FE002128
:1029000008460BF051FF0123AFF6BC10D7E90012C7
:102910000BF0EEFF002132200CF093F8002137205D
:102920000CF0C7F800213C200CF0C3F80F21002068
:102930000BF03AFF1922DAA102A8FDF708FD1921D0
:1029400002A80BF0EBFF202100200BF02DFFE87F09
:1029500001281AD0CF48806AFDF7B4FEAFF2E052EA
:10296000CDE900014021CD4809F078FFD7E90012F8
:102970000123CA480BF0BCFF012085F82A0000BFE4
:10298000B5F86E00012807D034E1C24828300AF0BB
:102990006FFE85F82AA0F3E7B5F87200032853D13B
:1029A00095F82500012899D100200BF081FE002127
:1029B00008460BF0F9FE0123AFF66C20D7E90012B0
:1029C0000BF096FF002132200CF03BF8002137205D
:1029D0000CF06FF800213C200CF06BF80F21002068
:1029E0000BF0E2FE1122B5A102A8FDF7B0FC112107
:1029F00002A80BF093FF202100200BF0D5FEE87F0A
:102A000001281AD0A348C06AFDF75CFEAFF29062BD
:102A1000CDE900014021A14809F020FFD7E90012CB
:102A200001239E480BF064FF012085F82A0000BFB7
:102A3000B5F86E00012807D0DCE096482C300AF08B
:102A400017FE85F82AA0F3E7B5F87200042841D1F3
:102A500095F8250001287DD100200BF029FE0021EA
:102A600008460BF0A1FE0123AFF61C30D7E9001297
:102A70000BF03EFF002132200BF0E3FF0021372056
:102A80000CF017F800213C200CF013F80F21002067
:102A90000BF08AFE0D228EA102A8FDF758FC0D2135
:102AA00002A80BF03BFF202100200BF07DFEEB780D
:102AB00079A24021794809F0D1FED7E9001201231B
:102AC00076480BF015FF012085F82A00B5F86E0056
:102AD00001283FD1B5F8720005284AD195F82500A4
:102AE000012837D100200BF0E3FD002108460BF050
:102AF0005BFE0123AFF6A830D7E900120BF0F8FE19
:102B0000002132200BF09DFF002137200BF0D1FF78
:102B100000213C200BF0CDFF0F2100200BF044FEE4
:102B200014226FA102A8FDF712FC142102A80BF0D9
:102B3000F5FE202100200BF037FE5648006CFDF713
:102B4000C1FDCDE900016CA24021544809F086FE88
:102B5000012300E04EE0D7E9001250480BF0C8FE18
:102B600085F81FA0012085F82A00B5F86E0001281D
:102B700040D1B5F8720006283CD195F8250001280F
:102B800038D100200BF094FD002108460BF00CFE1C
:102B90000123AFF64440D7E900120BF0A9FE002153
:102BA00032200BF04EFF0F2100200BF0FDFD142210
:102BB00053A102A8FDF7CBFB142102A80BF0AEFE37
:102BC000202100200BF0F0FD3248406CFDF77AFD2B
:102BD000CDE9000148A24021304809F03FFED7E985
:102BE000001201232D480BF083FE85F81FA0012061
:102BF00085F82A00B5F8780001283CD1B5F86E00B8
:102C00000228FAD1B5F8720098BB00200BF050FDF5
:102C1000002108460BF0C8FDD7E9001201233EA0B1
:102C20000BF066FE2879012803D1B5F87800012859
:102C30000FD095F8250018B1002137200BF039FF8F
:102C400000213C200BF035FFB5F87600012867D055
:102C500097E095F8210068B10123AFF60850D7E955
:102C6000001200BF0BF044FE95F8250001286FD03C
:102C700072E0B3E055E02EE1CFE0F0E0ECE5F2F0F9
:102C800020EDE020E3EBE0E2EDEEEC20ECE5EDFE04
:102C900000000000D800002025640000063B002052
:102CA000CFF0E5E4F3EFF0E5E4E8F2E5EBFCEDE08E
:102CB000FF20F3F1F2E0E2EAE0000000C0E2E0F021
:102CC000E8E9EDE0FF20F3F1F2E0E2EAE0000000E5
:102CD000D0E5E6E8EC20F4E8EBFCF2F0E0000000E0
:102CE000CAEEFDF4F4E8F6E8E5EDF220F3F1E8EBE6
:102CF000E5EDE8FF00000000252E303566000000FD
:102D0000CAEEFDF4F4E8F6E8E5EDF220F1ECE5F9C1
:102D1000E5EDE8FF00000000342D32300000000037
:102D20002BE00F2100200BF03FFD01235C46AFF6A6
:102D3000D850D4E900120BF0DBFD1E2100200BF06F
:102D400033FD0123AFF6E850D4E900128AE7FFE72C
:102D5000002137200BF0ADFE00213C200BF0A9FE36
:102D6000B5F87600012803D126213A200BF0DAFECF
:102D70002B213A200BF02CFE2AE026213A200BF0E2
:102D8000D1FE2B213A200BF023FE0F2100200BF067
:102D90000BFD1222F9A102A8FDF7D9FA122102A80F
:102DA0000BF0BCFD202100200BF0FEFCF848406831
:102DB000FDF788FCAFF66412CDE900014021F5482B
:102DC00009F04CFDD7E900120123F2480BF090FD09
:102DD00085F82AA0B5F86E0002287CD1B5F87200FB
:102DE000012879D195F82500F0BB00200BF060FC9C
:102DF000002108460BF0D8FC0123AFF2E400D7E92C
:102E000000120BF075FD002137200BF01AFE0F2188
:102E100000200BF0C9FCDBE900120123DEA00BF05F
:102E200067FD202100200BF0BFFCD9488038806965
:102E3000FDF748FCCDE90001D8A24021D54809F0B2
:102E40000DFDD7E900120123D2480BF051FD85F8A2
:102E50001FA0012085F82A00B5F86E000228BCD119
:102E6000B5F87200012800E000E055D195F8250082
:102E70000128B2D100200BF01BFC002108460BF00A
:102E800093FC0123AFF27010D7E900120BF030FD74
:102E9000002132200BF0D5FD002137200BF009FE78
:102EA00000213C200BF005FE0F2100200BF07CFCE4
:102EB0002522BCA102A8FDF74AFA252102A80BF0A1
:102EC0002DFD202100200BF06FFCE87F0128B04889
:102ED0001DD0006801E02FE21EE0FDF7F3FBAFF626
:102EE0006032CDE900014021AA4809F0B7FCD7E9DA
:102EF00000120123A7480BF0FBFC012085F82A00F3
:102F00000BF058FCB5F86E00022805D0B0E20AF0CC
:102F1000AFFB85F82AA0F3E7B5F87200022855D177
:102F200095F825000128F1D100200BF0C1FB00210C
:102F300008460BF039FC0123AFF22420D7E9001238
:102F40000BF0D6FC002132200BF07BFD0021372056
:102F50000BF0AFFD00213C200BF0ABFD0F2100205A
:102F60000BF022FC262299A102A8FDF7F0F92621F8
:102F700002A80BF0D3FC202100200BF015FCE87F09
:102F800001281CD082488038C06FFDF79BFBAFF64C
:102F90001042CDE9000140217E4809F05FFCD7E9ED
:102FA000001201237B480BF0A3FC012085F82A00C6
:102FB0000BF000FCB5F86E00022807D058E2744808
:102FC000001F0AF055FB85F82AA0F1E7B5F872005A
:102FD000032853D195F82500012897D100200BF044
:102FE00067FB002108460BF0DFFB0123AFF2D8207E
:102FF000D7E900120BF07CFC002132200BF021FD00
:10300000002137200BF055FD00213C200BF051FD35
:103010000F2100200BF0C8FB202276A102A8FDF7AB
:1030200096F9202102A80BF079FC202100200BF05A
:10303000BBFBE87F01281AD055488038406EFDF769
:1030400041FBAFF6C442CDE900014021514809F0EF
:1030500005FCD7E9001201234E480BF049FC012082
:1030600085F82A00B5F86E00022807D000E248482B
:103070001C380AF0FDFA85F82AA0F3E7B5F87200CB
:10308000042853D195F82500012897D100200BF092
:103090000FFB002108460BF087FB0123AFF28830BD
:1030A000D7E900120BF024FC002132200BF0C9FC00
:1030B000002137200BF0FDFC00213C200BF0F9FC37
:1030C0000F2100200BF070FB182253A102A8FDF77E
:1030D0003EF9182102A80BF021FC202100200BF062
:1030E00063FBE87F01281AD029488038C06EFDF7BD
:1030F000E9FAAFF67452CDE900014021254809F004
:10310000ADFBD7E90012012322480BF0F1FB0120AF
:1031100085F82A00B5F86E00022807D0A8E11C48FF
:1031200014380AF0A5FA85F82AA0F3E7B5F872007A
:1031300005287FD195F82500012897D100200BF0B4
:10314000B7FA002108460BF02FFB0123AFF23840FD
:10315000D7E900120BF0CCFB002132200BF071FC00
:10316000002137200BF0A5FC00213C200BF0A1FC36
:103170000F2100200BF018FB21225CE0D0E0F1F7DA
:10318000E5F2EDEEE520E7EDE0F7E5EDE8E500003E
:1031900058010020063B0020D2EEEA00252E3032F6
:1031A00066000000CDE8E6EDE8E920EFF0E5E4E5B3
:1031B000EB20E4E8E0EFE0E7EEEDE020E4EBFF20D9
:1031C000EFE5F0E5F1F7E5F2E0000000C2E5F0F52B
:1031D000EDE8E920EFF0E5E4E5EB20E4E8E0EFE0FE
:1031E000E7EEEDE020E4EBFF20EFE5F0E5F1F7E5B9
:1031F000F2E00000D3F1F2E0E2EAE020EDE8E6EDF3
:10320000FFFF20EFF0E5E4F3EFF0E5E4E8F2E5EBB3
:10321000FCEDE0FF00000000D3F1F2E0E2EAE02084
:10322000EDE8E6EDFFFF20E0E2E0F0E8E9EDE0FFA9
:103230000000000030E0FDA102A8FDF788F8212180
:1032400002A80BF06BFB202100200BF0ADFAE87F09
:1032500001281AD0FE48806EFDF734FAAFF6E0621E
:10326000CDE900014021FB4809F0F8FAD7E9001246
:103270000123F8480BF03CFB012085F82A0000BF31
:10328000B5F86E00022807D0F2E0F14868300AF085
:10329000EFF985F82AA0F3E7B5F87200062853D1B4
:1032A00095F82500012847D100200BF001FA0021F4
:1032B00008460BF079FA0123AFF2A450D7E90012C7
:1032C0000BF016FB002132200BF0BBFB0021372056
:1032D0000BF0EFFB00213C200BF0EBFB0F2100205B
:1032E0000BF062FA1922DCA102A8FDF730F81921CF
:1032F00002A80BF013FB202100200BF055FAE87F09
:1033000001281AD0D248006FFDF7DCF9AFF69072B1
:10331000CDE900014021CF4809F0A0FAD7E9001219
:103320000123CC480BF0E4FA012085F82A0000BF05
:10333000B5F86E00022807D09AE0C54870300AF050
:1033400097F985F82AA0F3E7B5F8720007284AD163
:1033500095F8250001287DD100200BF0A9F9002166
:1033600008460BF021FA0123AFF25460D7E90012AE
:103370000BF0BEFA002132200BF063FB0021372056
:103380000BF097FB00213C200BF093FB0F2100205A
:103390000BF00AFA1422AFF2B86102A8FCF7D7FFCB
:1033A000142102A80BF0BAFA1E2100200BF0FCF940
:1033B000A748406FFDF786F9AFF2C462CDE900017E
:1033C0004021A44809F04AFAD7E900120123A14894
:1033D0000BF08EFA85F81FA0012085F82A00B5F8B9
:1033E0006E00022844D1B5F87200082840D195F843
:1033F000250001283CD100200BF05AF90021084695
:103400000BF0D2F90123AFF2F060D7E900120BF014
:103410006FFA002132200BF014FB0F2100200BF07B
:10342000C3F91422AFF2287102A8FCF790FF14210F
:1034300002A80BF073FA1E2100200BF0B5F98448A6
:10344000806FFDF73FF9AFF25072CDE900014021E6
:10345000804800E00CE009F001FAD7E900120123EE
:103460007C480BF045FA85F81FA0012085F82A005A
:10347000B5F87A00012801D002287BD1B5F86E009A
:10348000032841D1B5F87200F0BB00200BF010F911
:10349000002108460BF088F9D7E90012012375A036
:1034A0000BF026FAB5F87A00022817D100200BF0AD
:1034B000FFF8002108460BF077F95C460123D4E9B8
:1034C00000126DA00BF014FA00211C200BF06CF917
:1034D000D4E90012012369A00BF00AFA95F825003F
:1034E00018B1002137200BF0E4FA00213C200BF04A
:1034F000E0FAB5F87600012803D0B5F87800012885
:1035000005D126213A2000E040E00BF00BFB2B21F7
:103510003A200BF05DFA687901283BD00F2100209A
:103520000BF042F9B5F87A0002284DD0122254A1CE
:1035300002A8FCF70CFF464C122102A8A2780BF05F
:103540000FFA202100200BF02FF9B4F9020000EB54
:10355000800109EBC1008179012946D0042944D0BA
:1035600090ED050ABDEEC00A10EE100A03B2AFF6E8
:10357000D80200E0FDE34021364809F06FF93548F4
:10358000012300BFD7E900120BF0B2F995F825002E
:10359000B8B3EFE395F8210010B101233DA0F1E7A6
:1035A0000F2100200BF000F95C460123D4E9001242
:1035B00039A00BF09DF91E2100200BF0F5F8D4E99D
:1035C0000012012335A0DFE7092236A102A8FCF78B
:1035D000BEFE092102A80BF0A1F9202100200BF06A
:1035E000E3F8B5F8483032A2C3E74069FDF76AF85E
:1035F000AFF25842CDE900014021164809F02EF9FA
:10360000BDE7FFE75FF00004B5F86E0003287DD149
:10361000B5F87200661CB04206D1B5F8700018B952
:1036200000200BF045F847E0A7E00000D3F1F2E0FE
:10363000E2EAE020E2E5F0F5EDFFFF20EFF0E5E45F
:10364000F3EFF0E5E4E8F2E5EBFCEDE0FF0000006D
:10365000D8000020063B0020D3F1F2E0E2EAE020AF
:10366000E2E5F0F5EDFFFF20E0E2E0F0E8E9EDE073
:10367000FF00000034383500D2C8CA00C7D1CA00E4
:10368000C7EDE0F7E5EDE8E520F0E5E3E8F1F2F07D
:10369000E020000020000000CDC5D200D1C2DFC76D
:1036A000C8000000D1EEF1F2EEFFEDE8E500000009
:1036B0002564202525000000002108460BF074F841
:1036C0002346FDA24021FE4809F0C8F8D7E90012C0
:1036D0000123FB480BF00CF9002137200BF0B1F966
:1036E000272C03D000213C200BF0E3F92B213A20BA
:1036F0000BF06EF90F2100200BF056F81222AFF2FA
:10370000800102A8FCF723FE224600E044E21221D9
:1037100002A80BF025F9202100200BF045F804EB5E
:10372000840109EBC101887901281AD0042818D036
:1037300091ED050AE1A24021BDEEC00A10EE100A8B
:1037400003B2DF4809F08AF8D7E900120123DC4808
:103750000BF0CEF885F81FA0B5F86E0003280CD04A
:103760001AE24869FCF7AEFFAFF2D052CDE9000192
:103770004021D34809F072F8E6E7B5F87200B0428C
:1037800058D1B5F87000012854D100200AF090FFFC
:10379000002108460BF008F82346C7A24021C8487C
:1037A00009F05CF8D7E900120123C5480BF0A0F836
:1037B000002137200BF045F9272C03D000213C20B5
:1037C0000BF077F926213A200BF0ACF92B213A20A7
:1037D0000BF0FEF80F2100200AF0E6FF1822B9A135
:1037E00002A8FCF7B4FD2246182102A80BF0B8F895
:1037F000202100200AF0D8FFE87F04EB8401012893
:1038000011D019F83130ADA24021AD4809F026F8A9
:10381000D7E900120123AA480BF06AF8B5F86E0048
:10382000032807D0B8E108EBC10000F590700AF05A
:103830004FF8F3E7B5F87200B04259D1B5F870000F
:10384000022855D100200AF033FF002108460AF073
:10385000ABFF234698A24021994808F0FFFFD7E923
:103860000012012396480BF043F8002137200BF09B
:10387000E8F8272C03D000213C200BF01AF9262170
:103880003A200BF04FF92B213A200BF0A1F80F2131
:1038900000200AF089FF1A2291A102A8FCF757FD27
:1038A00022461A2102A80BF05BF8202100200AF022
:1038B0007BFFE87F04EB8401012812D009EBC100F3
:1038C0007EA2437840217E4808F0C8FFD7E9001265
:1038D00001237B480BF00CF8B5F86E00032807D0E5
:1038E0005AE108EBC10000F5917009F0F1FFF3E730
:1038F000B5F87200B04259D1B5F87000032855D11F
:1039000000200AF0D5FE002108460AF04DFF2346AC
:1039100069A240216A4808F0A1FFD7E900120123FB
:1039200067480AF0E5FF002137200BF08AF8272CC2
:1039300003D000213C200BF0BCF826213A200BF0EC
:10394000F1F82B213A200BF043F80F2100200AF068
:103950002BFF0F2269A102A8FCF7F9FC22460F21D8
:1039600002A80AF0FDFF202100200AF01DFFE87FD9
:1039700004EB8401012812D009EBC1004FA2838817
:1039800040214F4808F06AFFD7E9001201234C4854
:103990000AF0AEFFB5F86E00032807D0FCE008EB94
:1039A000C10000F5927009F093FFF3E7B5F87200DB
:1039B000B04259D1B5F87000042855D100200AF062
:1039C00077FE002108460AF0EFFE23463AA2402186
:1039D0003B4808F043FFD7E90012012338480AF0BA
:1039E00087FF002137200BF02CF8272C03D0002173
:1039F0003C200BF05EF826213A200BF093F82B21A7
:103A00003A200AF0E5FF0F2100200AF0CDFE1C222B
:103A10003EA102A8FCF79BFC22461C2102A80AF04A
:103A20009FFF202100200AF0BFFEE87F04EB840105
:103A3000012812D009EBC10020A283784021204840
:103A400008F00CFFD7E9001201231D480AF050FFCF
:103A5000B5F86E00032807D09EE008EBC10000F522
:103A6000937009F035FFF3E7B5F87200B0427DD1ED
:103A7000B5F87000052879D100200AF019FE002160
:103A800008460AF091FE23460BA240210C4808F09C
:103A9000E5FED7E90012012309480AF029FF0021B9
:103AA00037200AF0CEFF272C03D000213C200BF05A
:103AB00000F826213A2039E034383520256400000A
:103AC000063B0020C2EAEBFEF7E8F2FC20EEEFF046
:103AD000EEF120F0E5E3E8F1F2F0E0200000000074
:103AE000C0E4F0E5F120F3F1F2F0EEE9F1F2E2E00A
:103AF00020F0E5E3E8F1F2F0E0200000C0E4F0E5BA
:103B0000F120F0E5E3E8F1F2F0E02000D4F3EDEA93
:103B1000F6E8EEEDE0EBFCEDFBE920EAEEE420F068
:103B2000E5E3E8F1F2F0E020000000000AF0FAFF1F
:103B30002B213A200AF04CFF0F2100200AF034FE1E
:103B40002A22FDA102A8FCF702FC22462A2102A893
:103B50000AF006FF202100200AF026FEE87F012857
:103B60001BD004EB840109EBC10000E030E0006AE7
:103B7000FCF7A8FDCDE90001FA4A4021FA4808F017
:103B80006DFED7E900120123F7480AF0B1FE00BF2D
:103B9000B5F86E0003281BD08AE304EB84000B9079
:103BA00009EBC0000090203009F062FD009890ED14
:103BB000080A0AA809F029FD0B98BDF8282008EB8F
:103BC000C000A0F83821BDF82A10A0F83A11DFE7AC
:103BD000B5F87200B04274D1B5F87000062870D103
:103BE00000200AF065FD002108460AF0DDFD2346AD
:103BF000AFF23C124021DC4808F030FED7E9001259
:103C00000123D9480AF074FE002137200AF019FF79
:103C1000272C03D000213C200AF04BFF26213A201C
:103C20000AF080FF2B213A200AF0D2FE0F2100205B
:103C30000AF0BAFD2222CDA102A8FCF788FB224699
:103C4000222102A80AF08CFE202100200AF0ACFDFF
:103C5000E87F012819D004EB840109EBC100406A18
:103C6000FCF730FDCDE90001BE4A4021BE4808F016
:103C7000F5FDD7E900120123BB480AF039FE00BF69
:103C8000B5F86E0003281CD012E304EB84000B90FF
:103C900009EBC0000090243009F0EAFC009890ED98
:103CA000090A0AA809F0B1FC0B98BDF8282008EB16
:103CB000C000A0F83C21BDF82A10A0F83E11DFE7B3
:103CC000FFE7B5F87200B04276D1B5F8700007286A
:103CD00072D100200AF0ECFC002108460AF064FDD5
:103CE0002346AFF22C2240219F4808F0B7FDD7E9C8
:103CF000001201239C480AF0FBFD002137200AF046
:103D0000A0FE272C03D000213C200AF0D2FE262161
:103D10003A200AF007FF2B213A200AF059FE0F2122
:103D200000200AF041FD2B2299A102A8FCF70FFB0D
:103D300022462B2102A80AF013FE202100200AF0BF
:103D400033FDE87F01281BD004EB840109EBC1009F
:103D50008069FCF7B7FCCDE90001824A4021824826
:103D600008F07CFDD7E9001201237F480AF0C0FD6E
:103D700001E0A6E2A1E2B5F86E0003281CD097E2AC
:103D800004EB84000B9009EBC0000090183009F0A0
:103D90006FFC009890ED060A0AA809F036FC0B9813
:103DA000BDF8282008EBC000A0F84021BDF82A107B
:103DB000A0F84211DCE7FFE7B5F87200B04274D119
:103DC000B5F87000082870D100200AF071FC0021BD
:103DD00008460AF0E9FC2346AFF22432402162484B
:103DE00008F03CFDD7E9001201235F480AF080FD8E
:103DF000002137200AF025FE272C03D000213C208B
:103E00000AF057FE26213A200AF08CFE2B213A2098
:103E10000AF0DEFD0F2100200AF0C6FC232267A174
:103E200002A8FCF794FA2246232102A80AF098FD82
:103E3000202100200AF0B8FCE87F012819D004EB0B
:103E4000840109EBC100C069FCF73CFCCDE900012D
:103E5000444A4021444808F001FDD7E900120123FB
:103E600041480AF045FD00BFB5F86E0003281CD09C
:103E70001EE204EB84000B9009EBC00000901C30A4
:103E800009F0F6FB009890ED070A0AA809F0BDFBBF
:103E90000B98BDF8282008EBC000A0F84421BDF81D
:103EA0002A10A0F84611DFE7FFE7B5F87200B0422C
:103EB00041D1B5F8700009283DD100200AF0F8FB87
:103EC000002108460AF070FC2346AFF2144240215C
:103ED000254808F0C3FCD7E90012012322480AF064
:103EE00007FD002137200AF0ACFD272C03D000216C
:103EF0003C200AF0DEFD26213A200AF013FE2B2199
:103F00003A200AF065FD0F2100200AF04DFC17222F
:103F100033A102A8FCF71BFA2246172102A80AF0D7
:103F20001FFD202100200AF03FFCE87F01287BD004
:103F300004EB840160E092E0CDE8E6EDFFFF20EFC6
:103F4000F0E5E4F3EFF0E5E4E8F2E5EBFCEDE0FFAB
:103F500020F3F1F2E0E2EAE020F0E5E3E8F1F2F04C
:103F6000E020000080230108063B0020CDE8E6EDBC
:103F7000FFFF20E0E2E0F0E8E9EDE0FF20F3F1F2FE
:103F8000E0E2EAE020F0E5E3E8F1F2F0E020000012
:103F9000C2E5F0F5EDFFFF20EFF0E5E4F3EFF0E52B
:103FA000E4E8F2E5EBFCEDE0FF20F3F1F2E0E2EA19
:103FB000E020F0E5E3E8F1F2F0E02000C2E5F0F502
:103FC000EDFFFF20E0E2E0F0E8E9EDE0FF20F3F1B3
:103FD000F2E0E2EAE020F0E5E3E8F1F2F0E02000D0
:103FE000CAEEFDF4F4E8F6E8E5EDF220C020F0E5D5
:103FF000E3E8F1F2F0E0200009EBC100C068FCF753
:1040000061FBCDE90001FD4A4021FD4808F026FC96
:10401000D7E900120123FA480AF06AFCB5F86E00ED
:1040200003281CD044E1FFE704EB84000B9009EB6C
:10403000C00000900C3009F01BFB009890ED030AC3
:104040000AA809F0E2FA0B98BDF8282008EBC00096
:10405000A0F82C21BDF82A10A0F82E11DEE7B5F843
:104060007200B04273D1B5F870000A286FD10020F9
:104070000AF01EFB002108460AF096FB2346AFF229
:10408000C8524021DE4808F0E9FBD7E900120123BD
:10409000DB480AF02DFC002137200AF0D2FC272C47
:1040A00003D000213C200AF004FD26213A200AF02A
:1040B00039FD2B213A200AF08BFC0F2100200AF059
:1040C00073FB1722CFA102A8FCF741F92246172162
:1040D00002A80AF045FC202100200AF065FBE87FD9
:1040E000012818D004EB840109EBC1000069FCF73A
:1040F000E9FACDE90001C14A4021C14808F0AEFB10
:10410000D7E900120123BE480AF0F2FBB5F86E00B1
:1041100003281CD0CCE004EB84000B9009EBC0001A
:104120000090103009F0A4FA009890ED040A0AA853
:1041300009F06BFA0B98BDF8282008EBC000A0F836
:104140003021BDF82A10A0F83211DFE7FFE7B5F8FB
:104150007200B0425CD1B5F870000B2858D1002035
:104160000AF0A6FA002108460AF01EFB2346AFF229
:10417000B8624021A24808F071FBD7E90012012380
:104180009F480AF0B5FB002137200AF05AFC272C83
:1041900003D000213C200AF08CFC26213A200AF0B2
:1041A000C1FC2B213A200AF013FC0F2100200AF059
:1041B000FBFA142299A102A8FCF7C9F8224614219F
:1041C00002A80AF0CDFB202100200AF0EDFAE87FDA
:1041D00004EB8401012814D009EBC1008379AFF20C
:1041E00024724021864808F039FBD7E900120123E8
:1041F00083480AF07DFB00BFB5F86E00032807D0A6
:1042000056E008EBC10000F5947009F061FBF3E79C
:10421000B5F87200B0424BD1B5F870000C2847D108
:1042200000200AF045FA002108460AF0BDFA2346AC
:10423000AFF27C724021724808F010FBD7E90012FF
:1042400001236F480AF054FB002137200AF0F9FBE4
:10425000272C03D000213C200AF02BFC26213A20F9
:104260000AF060FC0F2100200AF09EFA112271A1D1
:1042700002A8FCF76CF82246112102A80AF070FB94
:10428000202100200AF090FAE87F04EB8401012845
:1042900018D009EBC1000389AFF2E0724021584801
:1042A00008F0DCFAD7E90012012355480AF020FB98
:1042B000641CE4B2282CFFF4A7A9B5F86E0003280B
:1042C00007D099E008EBC10000F5957009F000FBFC
:1042D000EEE7B5F8720001284CD195F825000128C9
:1042E0007CD100200AF0E4F9002108460AF05CFACB
:1042F0000123AFF68040D7E900120AF0F9FA002155
:1043000032200AF09EFB002137200AF0D2FB002168
:104310003C200AF0CEFB0F2100200AF045FA374975
:104320001822803902A8FCF712F8182102A80AF016
:10433000F5FA202100200AF037FAE87F012814D08E
:104340004148B0F90230AFF68C0240212C4808F009
:1043500085FAD7E90012012329480AF0C9FA00BFFB
:10436000B5F86E00032805D046E03748801C09F0F8
:10437000AFFAF5E7B5F872000228B1D195F825003B
:104380000128ADD100200AF093F9002108460AF077
:104390000BFA0123AFF62450D7E900120AF0A8FA6D
:1043A000002132200AF04DFB0F2100200AF0FCF919
:1043B000082226A102A8FBF7CAFF082102A80AF0DA
:1043C000ADFA202100200AF0EFF9E87F01284CD057
:1043D0001D488030006BFCF775F900E018E2CDE96C
:1043E00000011DA24021064808F038FAD7E9001262
:1043F000012303480AF07CFA32E00000F82C01089F
:10440000063B0020CAEEFDF4F4E8F6E8E5EDF22004
:10441000C220F0E5E3E8F1F2F0E02000D2E8EF207E
:10442000E4E0EDEDFBF520F0E5E3E8F1F2F0E0206B
:1044300000000000D2E0E9ECE0F3F220F0E5E3E870
:10444000F1F2F0E020000000D8000020D1EAEEF008
:10445000EEF1F2FC00000000252E30306600000076
:10446000B5F86E00042805D0E4E2FB49FB4809F0EA
:10447000B9F9C1E7B5F87200F0BB00200AF018F9ED
:10448000002108460AF090F95C460123D4E90012A5
:10449000F3A00AF02DFA95F8250018B10021372075
:1044A0000AF007FB00213C200AF003FB26213A20FA
:1044B0000AF038FB2B213A200AF08AFA0F2100205B
:1044C0000AF072F9D4E900120123E7A00AF010FA09
:1044D000D7E900120123E6A00AF00AFA10212A20E7
:1044E0000AF062F92B7AAFF62C224021E14808F05D
:1044F000B5F90123DF4800E02AE0D7E900120AF00D
:10450000F7F9202100200AF04FF9D4E90012012325
:10451000D9A00AF0EDF9D7E900120123D4A00AF0DE
:10452000E7F921212A200AF03FF9EB79AFF674224E
:104530004021D04808F092F9D7E900120123CD4874
:104540000AF0D6F985F82AA0B5F86E0004288BD1B8
:10455000B5F87200012867D195F82500A8BB0020A6
:104560000AF0A6F8002108460AF01EF9DBE900125D
:104570000123BBA00AF0BCF9002137200AF061FA40
:1045800000213C200AF095FAB5F87A00012802D003
:1045900002281BD03FE00F2100200AF005F910226D
:1045A000B7A102A8FBF7D3FE102102A80AF0B6F9C2
:1045B000D7E900120123B7A00AF09AF920210020C0
:1045C0000AF0F2F8B5F874301AE09EE00F210020EE
:1045D0000AF0EAF80D22B0A102A8FBF7B8FE0D21FF
:1045E00002A80AF09BF9D7E900120123AEA00AF055
:1045F0007FF9202100200AF0D7F8AD48008C83B263
:10460000ACA240219B4808F029F9D7E90012012308
:1046100098480AF06DF985F81FA0012085F82A0056
:10462000B5F86E0004287DD1B5F87200022868D173
:1046300095F8250088BB00200AF03AF800210846CA
:104640000AF0B2F8DBE90012012385A00AF050F964
:10465000002137200AF0F5F9B5F87A00012802D0D8
:1046600002281BD044E00F2100200AF09DF8102200
:1046700083A102A8FBF76BFE102102A80AF04EF9F5
:10468000D7E9001201238DA00AF032F92021002081
:104690000AF08AF8B5F844301FE090E00F210020BE
:1046A0000AF082F80D227CA102A8FBF750FE0D2132
:1046B00002A80AF033F9D7E90012012380A00AF01A
:1046C00017F9202100200AF06FF87949086A91F85B
:1046D0002410000C40EA014083B276A240216548D4
:1046E00008F0BCF8D7E90012012362480AF000F98B
:1046F00085F81FA0012085F82A00B5F86E0004286F
:1047000010D1B5F87200012855D195F8250001287F
:104710007ED1002009F0CCFF002108460AF044F8C1
:10472000012300E086E15C464DA0D4E900120AF0C6
:10473000DFF8002132200AF084F9002137200AF046
:10474000B8F900213C200AF0B4F90F2100200AF04A
:104750002BF8D4E9001201235BA00AF0C9F8C820A5
:1047600009F0FAF9202100200AF01EF8E87F01285C
:1047700017D0B5F85230AFF6BC4240213D4808F0A2
:104780006DF8D7E9001201233A480AF0B1F8012088
:1047900085F82A0085F82BA0B5F86E0004280AD009
:1047A00048E12E48DE3809F093F885F82AA0012068
:1047B00085F82B00F0E7B5F8720002284BD195F888
:1047C00025000128A4D1002009F072FF002108462D
:1047D00009F0EAFFDBE90012012321A00AF088F8C2
:1047E000002132200AF02DF9002137200AF061F96A
:1047F00000213C200AF05DF90F21002009F0D4FFD0
:10480000182233A102A8FBF7A2FD182102A800E09C
:10481000FCE00AF083F82021002009F0C5FFE87FC2
:10482000012863D0B5F85430AFF6705240211148DA
:1048300008F014F8D7E9001201230E480AF058F8DE
:10484000012085F82A0085F82BA000BFB5F86E007E
:10485000042854D0EEE052E0E0180208880100205D
:10486000D0E5EBE500000000CFF0E5E4000000003B
:104870002E000000063B0020C0E2E0F00000000037
:10488000C0F2F2F0E8E1F3F220F1EEE1FBF2E8FF32
:104890000000000020310000C1E8F220F1EEF1F24A
:1048A000EEFFEDE8FF00000028302D313529000033
:1048B000D802002030782558000000002032000087
:1048C0002831362D33312900D0E5E6E8EC00000030
:1048D000C7E0E4E5F0E6EAE020EDE020F1F0E0E119
:1048E000E0F2FBE2E0EDE8E500000000FE4808F041
:1048F000EFFF85F82AA0012085F82B00A6E7B5F880
:104900007200032853D195F8250001287ED100209C
:1049100009F0CEFE0021084609F046FF0123AFF260
:10492000C000DBE9001209F0E3FF002132200AF0A9
:1049300088F8002137200AF0BCF800213C200AF05A
:10494000B8F80F21002009F02FFF2122E7A102A8CB
:10495000FBF7FDFC212102A809F0E0FF2021002047
:1049600009F022FFE87F012817D0B5F85630AFF6DE
:10497000B4624021E64807F071FFD7E90012012335
:10498000E34809F0B5FF012085F82A0085F82BA03F
:10499000B5F86E0004280AD04CE0D348801C08F01B
:1049A00097FF85F82AA0012085F82B00F0E7B5F8DD
:1049B00072000428AAD195F825000128A6D100206C
:1049C00009F076FE0021084609F0EEFE0123AFF261
:1049D0007010DBE9001209F08BFF002132200AF091
:1049E00030F80F21002009F0DFFE0922C9A102A83A
:1049F000FBF7ADFC092102A809F090FF202100205F
:104A000009F0D2FEE87F012819D000E069E2B5F88C
:104A10005C30AFF658724021BD4807F01FFFD7E960
:104A200000120123BA4809F063FF012085F82A002B
:104A300085F82BA0B5F86E0005280AD012E2AA4826
:104A4000083008F045FF85F82AA0012085F82B00E2
:104A5000F0E7B5F8720028BB002009F029FE00211C
:104A6000084609F0A1FE00213C200AF022F8262188
:104A70003A200AF057F82B213A2009F0A9FF0F211C
:104A8000002009F091FE0922A5A102A8FBF75FFC16
:104A9000092102A809F042FF85F82AA0B5F86E00A6
:104AA00005284BD1B5F87200012852D1002009F039
:104AB000FFFD0021084609F077FE5C460123D4E99A
:104AC00000129AA009F014FF0123AFF25C20D7E98D
:104AD000001209F00DFF0021372009F0B2FF00217C
:104AE0003C2009F0E6FF0F21002009F05DFED4E92B
:104AF000001201238FA009F0FBFEC82009F02CF85A
:104B00002021002009F050FEE87F012817D0B5F8D9
:104B100066308AA240217E4807F0A0FED7E9001245
:104B200001237B4809F0E4FE012085F82A0085F87E
:104B30002BA000BFB5F86E0005280AD092E16A48A4
:104B4000123008F0C5FE85F82AA0012085F82B0058
:104B5000F0E7B5F87200022858D1002009F0A8FD4E
:104B60000021084609F020FEDBE9001201236FA0B6
:104B700009F0BEFE0123AFF20830D7E9001209F0B8
:104B8000B7FE0021372009F05CFF00213C2009F02E
:104B900090FF0F21002009F007FE0822AFF25471A8
:104BA00002A8FBF7D4FB082102A809F0B7FE2021D8
:104BB000002009F0F9FDE87F01281CD04A48AC30FC
:104BC000C06AFBF77FFDAFF27072CDE900014021B2
:104BD0004F4807F043FED7E9001201234C4809F083
:104BE00087FE012085F82A0085F82BA0B5F86E0015
:104BF00005280BD036E13C485149D83008F0F2FD89
:104C000085F82AA0012085F82B00EFE7B5F872009F
:104C1000032857D1002009F04BFD0021084609F078
:104C2000C3FDDBE90012012340A009F061FE01236E
:104C3000AFF2C430D7E9001209F05AFE0021372044
:104C400009F0FFFE00213C2009F033FF0F21002076
:104C500009F0AAFD0D223BA102A8FBF778FB0D216C
:104C600002A809F05BFE2021002009F09DFDE87FED
:104C700001281CD01C48AC30006BFBF723FDAFF6BD
:104C80002802CDE900014021214807F0E7FDD7E9DE
:104C9000001201231E4809F02BFE012085F82A008E
:104CA00085F82BA0B5F86E0005280BD0DAE00E4889
:104CB0002349DC3008F096FD85F82AA0012085F80C
:104CC0002B00EFE7B5F8720004287DD1002009F031
:104CD000EFFC0021084609F067FDDBE90012012323
:104CE00012A009F005FE35E0AC000020C7E0E4E5C5
:104CF000F0E6EAE020EDE020E2FBF5EEE420E8E774
:104D000020F1F0E0E1E0F2FBE2E0EDE8FF0000007E
:104D1000063B0020D2E5F1F220F0E5EBE5000000D3
:104D2000CDE0F1F2F0EEE9EAE8000000CDE0F1F2CA
:104D3000F0000000C0E4F0E5F10000002564000090
:104D4000E0180208D1EAEEF0EEF1F2FC20F8E8ED0E
:104D5000E00000000123AFF2E840D7E9001209F0BB
:104D6000C7FD0021372009F06CFE00213C2009F02E
:104D7000A0FE0F21002009F017FD0E22FEA102A8BF
:104D8000FBF7E5FA0E2102A809F0C8FD202100205A
:104D900009F00AFDE87F012819D0B5F86830AFF2B4
:104DA00064024021F84807F059FDD7E900120123B9
:104DB000F54809F09DFD012085F82A0085F82BA013
:104DC000B5F86E00052800E00AE009D04AE0EF4897
:104DD00008F07EFD85F82AA0012085F82B00EFE77A
:104DE000B5F8720005287CD1002009F061FC002193
:104DF000084609F0D9FC0123AFF2D000DBE900122C
:104E000009F076FD0123AFF29850D7E9001209F0BE
:104E10006FFD0021372009F014FE0F21002009F05A
:104E2000C3FC0E22DAA102A8FBF791FA0E2102A818
:104E300009F074FD2021002009F0B6FCE87F01286C
:104E400015D0B5F87E30AFF20C124021CE4807F0F5
:104E500005FDD7E900120123CB4809F049FD0120E7
:104E600085F82A00B5F86E00062807D002E1C74889
:104E7000163008F02DFD85F82AA0F3E7B5F872008A
:104E800008BB002009F014FC0021084609F08CFC46
:104E900000213C2009F00DFE26213A2009F042FEB7
:104EA0000F21002009F080FC0A22BDA102A8FBF717
:104EB0004EFA0A2102A809F031FD85F82AA0B5F8BA
:104EC0006E0006287ED1B5F8720001284AD1002074
:104ED00009F0EEFB0021084609F066FC0123B3A0AF
:104EE00000E00BE1DBE9001209F002FD0123AFF263
:104EF0008060D7E9001209F0FBFC0021372009F09F
:104F0000A0FD00213C2009F0D4FD0F21002009F074
:104F10004BFC1222A6A102A8FBF719FA122102A843
:104F200009F0FCFC2021002009F03EFC9748983055
:104F300090ED080A10EE100AFBF7C4FBCDE9000162
:104F4000A04A4021904807F089FCD7E900120123CC
:104F50008D4809F0CDFC012085F82A00B5F86E00D7
:104F600006282FD1B5F87200022844D1002009F09C
:104F70009FFB0021084609F017FCDBE90012012322
:104F80008AA009F0B5FC0123AFF21C70D7E900122A
:104F900009F0AEFC0021372009F053FD00213C2030
:104FA00009F087FD0F21002009F0FEFB092286A1F0
:104FB00002A8FBF7CCF9092102A809F0AFFC2021D7
:104FC000002000E056E009F0EFFB9FED820B834AE2
:104FD0008DED000B40216C4807F040FCD7E9001232
:104FE0000123694809F084FC012085F82A00B5F8FE
:104FF0006E0006283ED1B5F8720003287ED100204D
:1050000009F056FB0021084609F0CEFBDBE900124F
:10501000012366A009F06CFC0123AFF2AC70D7E964
:10502000001209F065FC0021372009F00AFD0F216C
:10503000002009F0B9FBD7E90012012368A009F0AC
:1050400057FC2021002009F0AFFB50489830C06881
:10505000FBF738FBCDE900015A4A40214A4807F0E6
:10506000FDFBD7E900120123474809F041FC01206C
:1050700085F82A00B5F86E0007283FD1B5F8720010
:10508000D8B995F82300012838D1002009F010FB89
:105090000221372009F00DFD0F21002009F084FBCB
:1050A0000C2251A102A8FBF752F90C2102A809F029
:1050B00035FCB5F86E00072820D1B5F8720001283C
:1050C00046D1002009F0F4FA0021084609F06CFBF3
:1050D000DBE90012012348A009F00AFC0123AFF626
:1050E0007000D7E9001209F003FC0221302009F01A
:1050F000A8FC0221372009F0DCFC00E0F7E00F21DA
:10510000002009F051FBD7E9001201233C4809F0C7
:10511000EFFB2021002009F047FBE87F012812D097
:10512000B5F87630AFF2EC324021174807F096FB25
:10513000D7E900120123144809F0DAFBB5F86E0034
:10514000072805D0D3E011480E3008F0C1FBF5E781
:10515000B5F8720002287DD1002009F0A9FA0021DB
:10516000084609F021FBDBE90012012322A009F027
:10517000BFFB012346E00000C2F0E5ECFF20EFF0AA
:10518000EEE3F0E5E2E00000063B0020C000002076
:10519000D1E1F0EEF120EDE0F1F2F0EEE5EA000011
:1051A000C8EDF4EEF0ECE0F6E8FF0000C8EDF40026
:1051B000CDE0EFF0FFE6E5EDE8E520EFE8F2E0ED29
:1051C000E8FF000080230108C2E5F0F1E8FF20CFEE
:1051D000CE0000000C022B8716D915409C31010827
:1051E0004D4D544500000000CACECDD4C8C3D3D025
:1051F000C0D6C8DF00000000CAEEEDF400000000D9
:10520000501F0108AFF69810D7E9001209F070FBA3
:105210000221302009F015FC0221372009F049FC59
:105220000F21002009F0C0FAD7E9001201233A4803
:1052300009F05EFB2021002009F0B6FAE87F012882
:1052400015D0B5F87830AFF20C524021334807F052
:1052500005FB00E00FE0D7E9001201232F4809F019
:1052600047FB00BFB5F86E00072804D03FE02C488C
:1052700008F02EFBF6E7B5F87200032837D10020BE
:1052800009F016FA0021084609F08EFA0123AFF260
:105290009800DBE9001209F02BFB0123AFF6302068
:1052A000D7E9001209F024FB0221302009F0C9FBE4
:1052B0000F21002009F078FAD7E9001201231948DC
:1052C00009F016FB2021002009F06EFAE87F012882
:1052D0001BD0B5F87A30AFF29C5240210F4807F04E
:1052E000BDFAD7E9001201230C4809F001FB09F0CF
:1052F00061FA95F8210068B15FF0000085F821009F
:10530000642008F029FCFCF711BC0548801C08F05B
:10531000DFFAECE70120F1E7182D0108063B002039
:10532000D000002074360108184F0026DFF860B066
:1053300086B04FF008084FF0180A4FF08009A7F523
:10534000C07401254FF0FF31F86A0AF083FA607FDC
:105350000128F7D101AA0496009682E82005CBF82F
:10536000109001F09FFC04F82F0F032008F0F4FBCD
:1053700004A9684601F0C8FB207001F037FC14F85E
:105380002F090028DED184F82E50DBE7D801002059
:1053900000200240124A117F1248012901D003293E
:1053A0000BD1036843F400630360036823F40063D4
:1053B0000360036843F400730360022901D00329EA
:1053C0000BD1016841F480510160016821F48051E2
:1053D0000160016841F4806101600020107770472E
:1053E0004C040020002002400849C20703D04A694B
:1053F00042F004024A61800703D5486940F4004046
:105400004861486940F4803048617047002002409C
:10541000CA070B494A6902D022F4006201E042F453
:1054200000624A614A6960F3CA024A61486940F011
:1054300002004861486940F48030486170470000CC
:1054400000200240044910B54C6944F001044C614D
:105450000260436010BD000000200240074B10B501
:105460005C69402244F480245C6172B608C908C0BB
:10547000521E12F0FF02F9D162B610BD00200240A8
:1054800070B5054601F00CFD0646184C08E0681C96
:1054900006D001F005FD801BA84201D3032070BD9A
:1054A0002069C043C003F2D5216911480140A069B9
:1054B00000F00040084311D00E494A6802434A6098
:1054C000810F04D0A16900F040421143A161810025
:1054D00002D020F040402061012070BD2069C0430F
:1054E000C00701D101202061002070BD00200240D2
:1054F000FAC302004C040020294810B5C078A0B3BC
:10550000012840D0022828D3264B274A0221A3F1A4
:105510000C0007F054FF234B234A84332148022117
:10552000783007F04CFF1F4B1F4AB0330221A3F124
:105530000C0007F044FF1B4B1B4A2C33A03A0221FE
:10554000A3F10C0007F03BFF164B174A5833783A8B
:105550000221A3F10C0007F032FF16489FED130B58
:1055600080ED0A0B80ED0C0B10BDFFE70D4B0E4AD2
:105570000221503AA3F10C0007F021FF094B0A4A1F
:105580008433503ACAE7074B074A0221283AA3F16D
:105590000C0007F014FF034B034A8433283ABDE79D
:1055A000580000202C180020F80300200000000004
:1055B00000000000D802002010B504460AF0D8FA16
:1055C000014614B108F0DEF92060C86C10BD00007F
:1055D0002DE9F84F4FF000080446CDF800800D4645
:1055E00094F85420DFF80894216947464046012A80
:1055F0000AD00126FF4A84F8546041B1A969012903
:1056000005D0636EEBB129E00220BDE8F88F686831
:10561000082838D1296A4FF4F85041B12B6801F0BD
:105620003C0100EA93400843696A084302E02968A4
:1056300000EA91402368D96C11400143D964206687
:1056400021E0C4E91871296AA86931B101F03C016F
:10565000401E0843696A084300E0401E29682B7910
:10566000C1F3846103F01F0399400143606E401E43
:105670006066236E43EA0103236604D12068C16C8F
:1056800011401943C164206803F058FB48B9687F92
:1056900090B12068C168AA7F21F4401141EA4251CB
:1056A000C160206803F052FB8246206803F046FB8D
:1056B0005AEA00000BD0DDE0A87F297F400540EAD0
:1056C00001512068C26822F440121143E8E7286AB9
:1056D00028B1686A18B1687F012845D002E0687F68
:1056E000012804D02068C16821F0007103E020681F
:1056F000C16841F00071C16095F8280001283AD0D6
:105700002068016921F002010161AA682968206806
:10571000B2F1004F20D003F034FB2068416921F042
:105720000041416120686969C268C2F3C102520048
:1057300091402A69042A2AD000EB82002B68DFF806
:10574000B8C2026E03F0F84302EA0C020B431A439C
:1057500042F0004101668DE0002203F012FB206858
:10576000416941F00041DCE7A06D40F02000A065F8
:105770004FF00108C0E7D5E90B01084321680A6929
:1057800022F4FF7242F0020210430861BDE70021DB
:1057900003F0CAFA400320684FF0000172D003F012
:1057A000C3FA90FAA0F0B0FA80F1286842036ED0F4
:1057B00090FAA0F0B0FA80F0814204D100221146A4
:1057C000206803F0F5FA0121206803F0ADFA4003E8
:1057D00020684FF001015DD003F0A6FA90FAA0F026
:1057E000B0FA80F12868420359D090FAA0F0B0FADC
:1057F00080F0814204D100220121206803F0D8FA10
:105800000221206803F090FA400320684FF0020163
:1058100048D003F089FA90FAA0F0B0FA80F1286835
:10582000420344D090FAA0F0B0FA80F0814204D153
:1058300000220221206803F0BBFA0321206803F054
:1058400073FA400320684FF0030133D003F06CFA81
:1058500090FAA0F0B0FA80F1286842032FD090FAB5
:10586000A0F0B0FA80F0814204D100220321206828
:1058700003F09EFA2068816811F0010F22D0ABE09E
:1058800000E004E003F050FAC0F384618DE7C0F358
:10589000846091E703F048FAC0F38461A2E7C0F3A3
:1058A0008460A6E703F040FAC0F38461B7E7C0F371
:1058B0008460BBE703F038FAC0F38461CCE7C0F33F
:1058C0008460D0E72B7B296850F8B02FC1F3120C0D
:1058D00022EA0C0203F0180C484B23FA0CF30B409D
:1058E0001A430260E968494576D1286841031BD014
:1058F00090FAA0F1B1FA81F1491C01F01F010929C8
:105900004FEA403131D8002911D090FAA0F1B1FA14
:1059100081F100BF01F1010101F01F0106FA01F65A
:1059200008D1C0F3846109E0C0F38461E4E7C0F307
:105930008461EFE790FAA0F1B1FA81F101F1010180
:1059400001F01F0146EA816102D1C0F3846003E0E7
:1059500090FAA0F0B0FA80F000F1010000F01F0012
:1059600000EB400041EA005132E000290ED090FAED
:10597000A0F1B1FA81F100BF01F1010101F01F01B5
:1059800006FA01F605D1C0F3846106E0C0F3846134
:10599000F2E790FAA0F1B1FA81F101F1010101F011
:1059A0001F0146EA816102D1C0F3846003E090FAEE
:1059B000A0F0B0FA80F000F1010000F01F00104AE2
:1059C00000EB400002EB005041EA000141F00071A1
:1059D000AA68206803F0D5F90A482A68024256D01E
:1059E00009488168094E01F0E071094B094D13E047
:1059F00000007F400020088200F0FF03FFFF070047
:105A0000000020FE0000088000030450000052C780
:105A10000000045000020450B2421BD10E0219D4FF
:105A200022689A4201D0AA4231D1826841F4000131
:105A300022F0E0720A438260174818490068B0FB00
:105A4000F1F000EB4000800000E0401E00900028D4
:105A5000FBD11CE0124EB24209D1CE0107D422681C
:105A60009A4201D0AA4212D141F080710AE06FF04F
:105A70000045EA420BD14A0209D422689A4206D173
:105A800041F48001826822F0E0720A43826084F867
:105A900054704046B9E500006C040020400D03003E
:105AA000000084CB0068B1F5877F0FD0B1F5057F8A
:105AB00009D0A1F540711A3902D0D0F880007047A2
:105AC000D0F88C007047D0F888007047D0F8840078
:105AD000704700002DE9F041044637480F468068C2
